{
	"TreasuryPool.sol": {
		"Gmonad": {
			"abi": [
				{
					"inputs": [
						{
							"internalType": "string",
							"name": "_greeting",
							"type": "string"
						}
					],
					"stateMutability": "payable",
					"type": "constructor"
				},
				{
					"anonymous": false,
					"inputs": [
						{
							"indexed": true,
							"internalType": "address",
							"name": "from",
							"type": "address"
						},
						{
							"indexed": false,
							"internalType": "address",
							"name": "token",
							"type": "address"
						},
						{
							"indexed": false,
							"internalType": "uint256",
							"name": "amount",
							"type": "uint256"
						}
					],
					"name": "Deposited",
					"type": "event"
				},
				{
					"anonymous": false,
					"inputs": [
						{
							"indexed": true,
							"internalType": "address",
							"name": "user",
							"type": "address"
						},
						{
							"indexed": false,
							"internalType": "address",
							"name": "tokenA",
							"type": "address"
						},
						{
							"indexed": false,
							"internalType": "address",
							"name": "tokenB",
							"type": "address"
						},
						{
							"indexed": false,
							"internalType": "uint256",
							"name": "amountA",
							"type": "uint256"
						},
						{
							"indexed": false,
							"internalType": "uint256",
							"name": "amountB",
							"type": "uint256"
						}
					],
					"name": "Swapped",
					"type": "event"
				},
				{
					"stateMutability": "payable",
					"type": "fallback"
				},
				{
					"inputs": [],
					"name": "callFee",
					"outputs": [
						{
							"internalType": "uint256",
							"name": "",
							"type": "uint256"
						}
					],
					"stateMutability": "view",
					"type": "function"
				},
				{
					"inputs": [
						{
							"internalType": "address",
							"name": "_token",
							"type": "address"
						},
						{
							"internalType": "uint256",
							"name": "_amount",
							"type": "uint256"
						}
					],
					"name": "deposit",
					"outputs": [],
					"stateMutability": "nonpayable",
					"type": "function"
				},
				{
					"inputs": [
						{
							"internalType": "address",
							"name": "_token",
							"type": "address"
						},
						{
							"internalType": "uint256",
							"name": "_amount",
							"type": "uint256"
						}
					],
					"name": "depositOwner",
					"outputs": [],
					"stateMutability": "nonpayable",
					"type": "function"
				},
				{
					"inputs": [
						{
							"internalType": "uint256",
							"name": "_amount",
							"type": "uint256"
						}
					],
					"name": "depositWmon",
					"outputs": [],
					"stateMutability": "nonpayable",
					"type": "function"
				},
				{
					"inputs": [
						{
							"internalType": "address",
							"name": "_token",
							"type": "address"
						}
					],
					"name": "getContractBalance",
					"outputs": [
						{
							"internalType": "uint256",
							"name": "",
							"type": "uint256"
						}
					],
					"stateMutability": "view",
					"type": "function"
				},
				{
					"inputs": [],
					"name": "getContractPortfolio",
					"outputs": [
						{
							"internalType": "address[]",
							"name": "tokens",
							"type": "address[]"
						},
						{
							"internalType": "uint256[]",
							"name": "balances",
							"type": "uint256[]"
						}
					],
					"stateMutability": "view",
					"type": "function"
				},
				{
					"inputs": [
						{
							"internalType": "address",
							"name": "user",
							"type": "address"
						}
					],
					"name": "getUserPortfolio",
					"outputs": [
						{
							"internalType": "address[]",
							"name": "tokens",
							"type": "address[]"
						},
						{
							"internalType": "uint256[]",
							"name": "balances",
							"type": "uint256[]"
						}
					],
					"stateMutability": "view",
					"type": "function"
				},
				{
					"inputs": [],
					"name": "greeting",
					"outputs": [
						{
							"internalType": "string",
							"name": "",
							"type": "string"
						}
					],
					"stateMutability": "view",
					"type": "function"
				},
				{
					"inputs": [],
					"name": "owner",
					"outputs": [
						{
							"internalType": "address",
							"name": "",
							"type": "address"
						}
					],
					"stateMutability": "view",
					"type": "function"
				},
				{
					"inputs": [
						{
							"internalType": "string",
							"name": "_greeting",
							"type": "string"
						}
					],
					"name": "setGreeting",
					"outputs": [],
					"stateMutability": "payable",
					"type": "function"
				},
				{
					"inputs": [
						{
							"internalType": "address",
							"name": "tokenA",
							"type": "address"
						},
						{
							"internalType": "address",
							"name": "tokenB",
							"type": "address"
						},
						{
							"internalType": "uint256",
							"name": "amountA",
							"type": "uint256"
						},
						{
							"internalType": "uint256",
							"name": "rate",
							"type": "uint256"
						}
					],
					"name": "swap",
					"outputs": [],
					"stateMutability": "payable",
					"type": "function"
				},
				{
					"inputs": [
						{
							"internalType": "address",
							"name": "",
							"type": "address"
						}
					],
					"name": "totalTokenBalance",
					"outputs": [
						{
							"internalType": "uint256",
							"name": "",
							"type": "uint256"
						}
					],
					"stateMutability": "view",
					"type": "function"
				},
				{
					"inputs": [
						{
							"internalType": "uint256",
							"name": "",
							"type": "uint256"
						}
					],
					"name": "trackedTokens",
					"outputs": [
						{
							"internalType": "address",
							"name": "",
							"type": "address"
						}
					],
					"stateMutability": "view",
					"type": "function"
				},
				{
					"inputs": [
						{
							"internalType": "address",
							"name": "",
							"type": "address"
						},
						{
							"internalType": "address",
							"name": "",
							"type": "address"
						}
					],
					"name": "userBalances",
					"outputs": [
						{
							"internalType": "uint256",
							"name": "",
							"type": "uint256"
						}
					],
					"stateMutability": "view",
					"type": "function"
				},
				{
					"inputs": [],
					"name": "withdrawETH",
					"outputs": [],
					"stateMutability": "nonpayable",
					"type": "function"
				},
				{
					"inputs": [
						{
							"internalType": "address",
							"name": "_token",
							"type": "address"
						}
					],
					"name": "withdrawToken",
					"outputs": [],
					"stateMutability": "nonpayable",
					"type": "function"
				},
				{
					"inputs": [],
					"name": "withdrawWmon",
					"outputs": [],
					"stateMutability": "nonpayable",
					"type": "function"
				},
				{
					"stateMutability": "payable",
					"type": "receive"
				}
			],
			"devdoc": {
				"kind": "dev",
				"methods": {},
				"version": 1
			},
			"evm": {
				"assembly": "    /* \"TreasuryPool.sol\":207:7657  contract Gmonad {... */\n  mstore(0x40, 0x80)\n    /* \"TreasuryPool.sol\":311:322  0.001 ether */\n  0x038d7ea4c68000\n    /* \"TreasuryPool.sol\":286:322  uint256 public callFee = 0.001 ether */\n  0x02\n  sstore\n    /* \"TreasuryPool.sol\":865:978  constructor(string memory _greeting) payable {... */\n  mload(0x40)\n  sub(codesize, bytecodeSize)\n  dup1\n  bytecodeSize\n  dup4\n  codecopy\n  dup2\n  dup2\n  add\n  0x40\n  mstore\n  dup2\n  add\n  swap1\n  tag_1\n  swap2\n  swap1\n  tag_2\n  jump\t// in\ntag_1:\n    /* \"TreasuryPool.sol\":932:941  _greeting */\n  dup1\n    /* \"TreasuryPool.sol\":921:929  greeting */\n  0x00\n    /* \"TreasuryPool.sol\":921:941  greeting = _greeting */\n  swap1\n  dup2\n  tag_5\n  swap2\n  swap1\n  tag_6\n  jump\t// in\ntag_5:\n  pop\n    /* \"TreasuryPool.sol\":960:970  msg.sender */\n  caller\n    /* \"TreasuryPool.sol\":952:957  owner */\n  0x01\n  0x00\n    /* \"TreasuryPool.sol\":952:970  owner = msg.sender */\n  0x0100\n  exp\n  dup2\n  sload\n  dup2\n  0xffffffffffffffffffffffffffffffffffffffff\n  mul\n  not\n  and\n  swap1\n  dup4\n  0xffffffffffffffffffffffffffffffffffffffff\n  and\n  mul\n  or\n  swap1\n  sstore\n  pop\n    /* \"TreasuryPool.sol\":865:978  constructor(string memory _greeting) payable {... */\n  pop\n    /* \"TreasuryPool.sol\":207:7657  contract Gmonad {... */\n  jump(tag_7)\n    /* \"#utility.yul\":7:82   */\ntag_8:\n    /* \"#utility.yul\":40:46   */\n  0x00\n    /* \"#utility.yul\":73:75   */\n  0x40\n    /* \"#utility.yul\":67:76   */\n  mload\n    /* \"#utility.yul\":57:76   */\n  swap1\n  pop\n    /* \"#utility.yul\":7:82   */\n  swap1\n  jump\t// out\n    /* \"#utility.yul\":88:205   */\ntag_9:\n    /* \"#utility.yul\":197:198   */\n  0x00\n    /* \"#utility.yul\":194:195   */\n  dup1\n    /* \"#utility.yul\":187:199   */\n  revert\n    /* \"#utility.yul\":211:328   */\ntag_10:\n    /* \"#utility.yul\":320:321   */\n  0x00\n    /* \"#utility.yul\":317:318   */\n  dup1\n    /* \"#utility.yul\":310:322   */\n  revert\n    /* \"#utility.yul\":334:451   */\ntag_11:\n    /* \"#utility.yul\":443:444   */\n  0x00\n    /* \"#utility.yul\":440:441   */\n  dup1\n    /* \"#utility.yul\":433:445   */\n  revert\n    /* \"#utility.yul\":457:574   */\ntag_12:\n    /* \"#utility.yul\":566:567   */\n  0x00\n    /* \"#utility.yul\":563:564   */\n  dup1\n    /* \"#utility.yul\":556:568   */\n  revert\n    /* \"#utility.yul\":580:682   */\ntag_13:\n    /* \"#utility.yul\":621:627   */\n  0x00\n    /* \"#utility.yul\":672:674   */\n  0x1f\n    /* \"#utility.yul\":668:675   */\n  not\n    /* \"#utility.yul\":663:665   */\n  0x1f\n    /* \"#utility.yul\":656:661   */\n  dup4\n    /* \"#utility.yul\":652:666   */\n  add\n    /* \"#utility.yul\":648:676   */\n  and\n    /* \"#utility.yul\":638:676   */\n  swap1\n  pop\n    /* \"#utility.yul\":580:682   */\n  swap2\n  swap1\n  pop\n  jump\t// out\n    /* \"#utility.yul\":688:868   */\ntag_14:\n    /* \"#utility.yul\":736:813   */\n  0x4e487b7100000000000000000000000000000000000000000000000000000000\n    /* \"#utility.yul\":733:734   */\n  0x00\n    /* \"#utility.yul\":726:814   */\n  mstore\n    /* \"#utility.yul\":833:837   */\n  0x41\n    /* \"#utility.yul\":830:831   */\n  0x04\n    /* \"#utility.yul\":823:838   */\n  mstore\n    /* \"#utility.yul\":857:861   */\n  0x24\n    /* \"#utility.yul\":854:855   */\n  0x00\n    /* \"#utility.yul\":847:862   */\n  revert\n    /* \"#utility.yul\":874:1155   */\ntag_15:\n    /* \"#utility.yul\":957:984   */\n  tag_49\n    /* \"#utility.yul\":979:983   */\n  dup3\n    /* \"#utility.yul\":957:984   */\n  tag_13\n  jump\t// in\ntag_49:\n    /* \"#utility.yul\":949:955   */\n  dup2\n    /* \"#utility.yul\":945:985   */\n  add\n    /* \"#utility.yul\":1087:1093   */\n  dup2\n    /* \"#utility.yul\":1075:1085   */\n  dup2\n    /* \"#utility.yul\":1072:1094   */\n  lt\n    /* \"#utility.yul\":1051:1069   */\n  0xffffffffffffffff\n    /* \"#utility.yul\":1039:1049   */\n  dup3\n    /* \"#utility.yul\":1036:1070   */\n  gt\n    /* \"#utility.yul\":1033:1095   */\n  or\n    /* \"#utility.yul\":1030:1118   */\n  iszero\n  tag_50\n  jumpi\n    /* \"#utility.yul\":1098:1116   */\n  tag_51\n  tag_14\n  jump\t// in\ntag_51:\n    /* \"#utility.yul\":1030:1118   */\ntag_50:\n    /* \"#utility.yul\":1138:1148   */\n  dup1\n    /* \"#utility.yul\":1134:1136   */\n  0x40\n    /* \"#utility.yul\":1127:1149   */\n  mstore\n    /* \"#utility.yul\":917:1155   */\n  pop\n    /* \"#utility.yul\":874:1155   */\n  pop\n  pop\n  jump\t// out\n    /* \"#utility.yul\":1161:1290   */\ntag_16:\n    /* \"#utility.yul\":1195:1201   */\n  0x00\n    /* \"#utility.yul\":1222:1242   */\n  tag_53\n  tag_8\n  jump\t// in\ntag_53:\n    /* \"#utility.yul\":1212:1242   */\n  swap1\n  pop\n    /* \"#utility.yul\":1251:1284   */\n  tag_54\n    /* \"#utility.yul\":1279:1283   */\n  dup3\n    /* \"#utility.yul\":1271:1277   */\n  dup3\n    /* \"#utility.yul\":1251:1284   */\n  tag_15\n  jump\t// in\ntag_54:\n    /* \"#utility.yul\":1161:1290   */\n  swap2\n  swap1\n  pop\n  jump\t// out\n    /* \"#utility.yul\":1296:1604   */\ntag_17:\n    /* \"#utility.yul\":1358:1362   */\n  0x00\n    /* \"#utility.yul\":1448:1466   */\n  0xffffffffffffffff\n    /* \"#utility.yul\":1440:1446   */\n  dup3\n    /* \"#utility.yul\":1437:1467   */\n  gt\n    /* \"#utility.yul\":1434:1490   */\n  iszero\n  tag_56\n  jumpi\n    /* \"#utility.yul\":1470:1488   */\n  tag_57\n  tag_14\n  jump\t// in\ntag_57:\n    /* \"#utility.yul\":1434:1490   */\ntag_56:\n    /* \"#utility.yul\":1508:1537   */\n  tag_58\n    /* \"#utility.yul\":1530:1536   */\n  dup3\n    /* \"#utility.yul\":1508:1537   */\n  tag_13\n  jump\t// in\ntag_58:\n    /* \"#utility.yul\":1500:1537   */\n  swap1\n  pop\n    /* \"#utility.yul\":1592:1596   */\n  0x20\n    /* \"#utility.yul\":1586:1590   */\n  dup2\n    /* \"#utility.yul\":1582:1597   */\n  add\n    /* \"#utility.yul\":1574:1597   */\n  swap1\n  pop\n    /* \"#utility.yul\":1296:1604   */\n  swap2\n  swap1\n  pop\n  jump\t// out\n    /* \"#utility.yul\":1610:1856   */\ntag_18:\n    /* \"#utility.yul\":1691:1692   */\n  0x00\n    /* \"#utility.yul\":1701:1814   */\ntag_60:\n    /* \"#utility.yul\":1715:1721   */\n  dup4\n    /* \"#utility.yul\":1712:1713   */\n  dup2\n    /* \"#utility.yul\":1709:1722   */\n  lt\n    /* \"#utility.yul\":1701:1814   */\n  iszero\n  tag_62\n  jumpi\n    /* \"#utility.yul\":1800:1801   */\n  dup1\n    /* \"#utility.yul\":1795:1798   */\n  dup3\n    /* \"#utility.yul\":1791:1802   */\n  add\n    /* \"#utility.yul\":1785:1803   */\n  mload\n    /* \"#utility.yul\":1781:1782   */\n  dup2\n    /* \"#utility.yul\":1776:1779   */\n  dup5\n    /* \"#utility.yul\":1772:1783   */\n  add\n    /* \"#utility.yul\":1765:1804   */\n  mstore\n    /* \"#utility.yul\":1737:1739   */\n  0x20\n    /* \"#utility.yul\":1734:1735   */\n  dup2\n    /* \"#utility.yul\":1730:1740   */\n  add\n    /* \"#utility.yul\":1725:1740   */\n  swap1\n  pop\n    /* \"#utility.yul\":1701:1814   */\n  jump(tag_60)\ntag_62:\n    /* \"#utility.yul\":1848:1849   */\n  0x00\n    /* \"#utility.yul\":1839:1845   */\n  dup5\n    /* \"#utility.yul\":1834:1837   */\n  dup5\n    /* \"#utility.yul\":1830:1846   */\n  add\n    /* \"#utility.yul\":1823:1850   */\n  mstore\n    /* \"#utility.yul\":1672:1856   */\n  pop\n    /* \"#utility.yul\":1610:1856   */\n  pop\n  pop\n  pop\n  jump\t// out\n    /* \"#utility.yul\":1862:2296   */\ntag_19:\n    /* \"#utility.yul\":1951:1956   */\n  0x00\n    /* \"#utility.yul\":1976:2042   */\n  tag_64\n    /* \"#utility.yul\":1992:2041   */\n  tag_65\n    /* \"#utility.yul\":2034:2040   */\n  dup5\n    /* \"#utility.yul\":1992:2041   */\n  tag_17\n  jump\t// in\ntag_65:\n    /* \"#utility.yul\":1976:2042   */\n  tag_16\n  jump\t// in\ntag_64:\n    /* \"#utility.yul\":1967:2042   */\n  swap1\n  pop\n    /* \"#utility.yul\":2065:2071   */\n  dup3\n    /* \"#utility.yul\":2058:2063   */\n  dup2\n    /* \"#utility.yul\":2051:2072   */\n  mstore\n    /* \"#utility.yul\":2103:2107   */\n  0x20\n    /* \"#utility.yul\":2096:2101   */\n  dup2\n    /* \"#utility.yul\":2092:2108   */\n  add\n    /* \"#utility.yul\":2141:2144   */\n  dup5\n    /* \"#utility.yul\":2132:2138   */\n  dup5\n    /* \"#utility.yul\":2127:2130   */\n  dup5\n    /* \"#utility.yul\":2123:2139   */\n  add\n    /* \"#utility.yul\":2120:2145   */\n  gt\n    /* \"#utility.yul\":2117:2229   */\n  iszero\n  tag_66\n  jumpi\n    /* \"#utility.yul\":2148:2227   */\n  tag_67\n  tag_12\n  jump\t// in\ntag_67:\n    /* \"#utility.yul\":2117:2229   */\ntag_66:\n    /* \"#utility.yul\":2238:2290   */\n  tag_68\n    /* \"#utility.yul\":2283:2289   */\n  dup5\n    /* \"#utility.yul\":2278:2281   */\n  dup3\n    /* \"#utility.yul\":2273:2276   */\n  dup6\n    /* \"#utility.yul\":2238:2290   */\n  tag_18\n  jump\t// in\ntag_68:\n    /* \"#utility.yul\":1957:2296   */\n  pop\n    /* \"#utility.yul\":1862:2296   */\n  swap4\n  swap3\n  pop\n  pop\n  pop\n  jump\t// out\n    /* \"#utility.yul\":2316:2671   */\ntag_20:\n    /* \"#utility.yul\":2383:2388   */\n  0x00\n    /* \"#utility.yul\":2432:2435   */\n  dup3\n    /* \"#utility.yul\":2425:2429   */\n  0x1f\n    /* \"#utility.yul\":2417:2423   */\n  dup4\n    /* \"#utility.yul\":2413:2430   */\n  add\n    /* \"#utility.yul\":2409:2436   */\n  slt\n    /* \"#utility.yul\":2399:2521   */\n  tag_70\n  jumpi\n    /* \"#utility.yul\":2440:2519   */\n  tag_71\n  tag_11\n  jump\t// in\ntag_71:\n    /* \"#utility.yul\":2399:2521   */\ntag_70:\n    /* \"#utility.yul\":2550:2556   */\n  dup2\n    /* \"#utility.yul\":2544:2557   */\n  mload\n    /* \"#utility.yul\":2575:2665   */\n  tag_72\n    /* \"#utility.yul\":2661:2664   */\n  dup5\n    /* \"#utility.yul\":2653:2659   */\n  dup3\n    /* \"#utility.yul\":2646:2650   */\n  0x20\n    /* \"#utility.yul\":2638:2644   */\n  dup7\n    /* \"#utility.yul\":2634:2651   */\n  add\n    /* \"#utility.yul\":2575:2665   */\n  tag_19\n  jump\t// in\ntag_72:\n    /* \"#utility.yul\":2566:2665   */\n  swap2\n  pop\n    /* \"#utility.yul\":2389:2671   */\n  pop\n    /* \"#utility.yul\":2316:2671   */\n  swap3\n  swap2\n  pop\n  pop\n  jump\t// out\n    /* \"#utility.yul\":2677:3201   */\ntag_2:\n    /* \"#utility.yul\":2757:2763   */\n  0x00\n    /* \"#utility.yul\":2806:2808   */\n  0x20\n    /* \"#utility.yul\":2794:2803   */\n  dup3\n    /* \"#utility.yul\":2785:2792   */\n  dup5\n    /* \"#utility.yul\":2781:2804   */\n  sub\n    /* \"#utility.yul\":2777:2809   */\n  slt\n    /* \"#utility.yul\":2774:2893   */\n  iszero\n  tag_74\n  jumpi\n    /* \"#utility.yul\":2812:2891   */\n  tag_75\n  tag_9\n  jump\t// in\ntag_75:\n    /* \"#utility.yul\":2774:2893   */\ntag_74:\n    /* \"#utility.yul\":2953:2954   */\n  0x00\n    /* \"#utility.yul\":2942:2951   */\n  dup3\n    /* \"#utility.yul\":2938:2955   */\n  add\n    /* \"#utility.yul\":2932:2956   */\n  mload\n    /* \"#utility.yul\":2983:3001   */\n  0xffffffffffffffff\n    /* \"#utility.yul\":2975:2981   */\n  dup2\n    /* \"#utility.yul\":2972:3002   */\n  gt\n    /* \"#utility.yul\":2969:3086   */\n  iszero\n  tag_76\n  jumpi\n    /* \"#utility.yul\":3005:3084   */\n  tag_77\n  tag_10\n  jump\t// in\ntag_77:\n    /* \"#utility.yul\":2969:3086   */\ntag_76:\n    /* \"#utility.yul\":3110:3184   */\n  tag_78\n    /* \"#utility.yul\":3176:3183   */\n  dup5\n    /* \"#utility.yul\":3167:3173   */\n  dup3\n    /* \"#utility.yul\":3156:3165   */\n  dup6\n    /* \"#utility.yul\":3152:3174   */\n  add\n    /* \"#utility.yul\":3110:3184   */\n  tag_20\n  jump\t// in\ntag_78:\n    /* \"#utility.yul\":3100:3184   */\n  swap2\n  pop\n    /* \"#utility.yul\":2903:3194   */\n  pop\n    /* \"#utility.yul\":2677:3201   */\n  swap3\n  swap2\n  pop\n  pop\n  jump\t// out\n    /* \"#utility.yul\":3207:3306   */\ntag_21:\n    /* \"#utility.yul\":3259:3265   */\n  0x00\n    /* \"#utility.yul\":3293:3298   */\n  dup2\n    /* \"#utility.yul\":3287:3299   */\n  mload\n    /* \"#utility.yul\":3277:3299   */\n  swap1\n  pop\n    /* \"#utility.yul\":3207:3306   */\n  swap2\n  swap1\n  pop\n  jump\t// out\n    /* \"#utility.yul\":3312:3492   */\ntag_22:\n    /* \"#utility.yul\":3360:3437   */\n  0x4e487b7100000000000000000000000000000000000000000000000000000000\n    /* \"#utility.yul\":3357:3358   */\n  0x00\n    /* \"#utility.yul\":3350:3438   */\n  mstore\n    /* \"#utility.yul\":3457:3461   */\n  0x22\n    /* \"#utility.yul\":3454:3455   */\n  0x04\n    /* \"#utility.yul\":3447:3462   */\n  mstore\n    /* \"#utility.yul\":3481:3485   */\n  0x24\n    /* \"#utility.yul\":3478:3479   */\n  0x00\n    /* \"#utility.yul\":3471:3486   */\n  revert\n    /* \"#utility.yul\":3498:3818   */\ntag_23:\n    /* \"#utility.yul\":3542:3548   */\n  0x00\n    /* \"#utility.yul\":3579:3580   */\n  0x02\n    /* \"#utility.yul\":3573:3577   */\n  dup3\n    /* \"#utility.yul\":3569:3581   */\n  div\n    /* \"#utility.yul\":3559:3581   */\n  swap1\n  pop\n    /* \"#utility.yul\":3626:3627   */\n  0x01\n    /* \"#utility.yul\":3620:3624   */\n  dup3\n    /* \"#utility.yul\":3616:3628   */\n  and\n    /* \"#utility.yul\":3647:3665   */\n  dup1\n    /* \"#utility.yul\":3637:3718   */\n  tag_82\n  jumpi\n    /* \"#utility.yul\":3703:3707   */\n  0x7f\n    /* \"#utility.yul\":3695:3701   */\n  dup3\n    /* \"#utility.yul\":3691:3708   */\n  and\n    /* \"#utility.yul\":3681:3708   */\n  swap2\n  pop\n    /* \"#utility.yul\":3637:3718   */\ntag_82:\n    /* \"#utility.yul\":3765:3767   */\n  0x20\n    /* \"#utility.yul\":3757:3763   */\n  dup3\n    /* \"#utility.yul\":3754:3768   */\n  lt\n    /* \"#utility.yul\":3734:3752   */\n  dup2\n    /* \"#utility.yul\":3731:3769   */\n  sub\n    /* \"#utility.yul\":3728:3812   */\n  tag_83\n  jumpi\n    /* \"#utility.yul\":3784:3802   */\n  tag_84\n  tag_22\n  jump\t// in\ntag_84:\n    /* \"#utility.yul\":3728:3812   */\ntag_83:\n    /* \"#utility.yul\":3549:3818   */\n  pop\n    /* \"#utility.yul\":3498:3818   */\n  swap2\n  swap1\n  pop\n  jump\t// out\n    /* \"#utility.yul\":3824:3965   */\ntag_24:\n    /* \"#utility.yul\":3873:3877   */\n  0x00\n    /* \"#utility.yul\":3896:3899   */\n  dup2\n    /* \"#utility.yul\":3888:3899   */\n  swap1\n  pop\n    /* \"#utility.yul\":3919:3922   */\n  dup2\n    /* \"#utility.yul\":3916:3917   */\n  0x00\n    /* \"#utility.yul\":3909:3923   */\n  mstore\n    /* \"#utility.yul\":3953:3957   */\n  0x20\n    /* \"#utility.yul\":3950:3951   */\n  0x00\n    /* \"#utility.yul\":3940:3958   */\n  keccak256\n    /* \"#utility.yul\":3932:3958   */\n  swap1\n  pop\n    /* \"#utility.yul\":3824:3965   */\n  swap2\n  swap1\n  pop\n  jump\t// out\n    /* \"#utility.yul\":3971:4064   */\ntag_25:\n    /* \"#utility.yul\":4008:4014   */\n  0x00\n    /* \"#utility.yul\":4055:4057   */\n  0x20\n    /* \"#utility.yul\":4050:4052   */\n  0x1f\n    /* \"#utility.yul\":4043:4048   */\n  dup4\n    /* \"#utility.yul\":4039:4053   */\n  add\n    /* \"#utility.yul\":4035:4058   */\n  div\n    /* \"#utility.yul\":4025:4058   */\n  swap1\n  pop\n    /* \"#utility.yul\":3971:4064   */\n  swap2\n  swap1\n  pop\n  jump\t// out\n    /* \"#utility.yul\":4070:4177   */\ntag_26:\n    /* \"#utility.yul\":4114:4122   */\n  0x00\n    /* \"#utility.yul\":4164:4169   */\n  dup3\n    /* \"#utility.yul\":4158:4162   */\n  dup3\n    /* \"#utility.yul\":4154:4170   */\n  shl\n    /* \"#utility.yul\":4133:4170   */\n  swap1\n  pop\n    /* \"#utility.yul\":4070:4177   */\n  swap3\n  swap2\n  pop\n  pop\n  jump\t// out\n    /* \"#utility.yul\":4183:4576   */\ntag_27:\n    /* \"#utility.yul\":4252:4258   */\n  0x00\n    /* \"#utility.yul\":4302:4303   */\n  0x08\n    /* \"#utility.yul\":4290:4300   */\n  dup4\n    /* \"#utility.yul\":4286:4304   */\n  mul\n    /* \"#utility.yul\":4325:4422   */\n  tag_89\n    /* \"#utility.yul\":4355:4421   */\n  0xffffffffffffffffffffffffffffffffffffffffffffffffffffffffffffffff\n    /* \"#utility.yul\":4344:4353   */\n  dup3\n    /* \"#utility.yul\":4325:4422   */\n  tag_26\n  jump\t// in\ntag_89:\n    /* \"#utility.yul\":4443:4482   */\n  tag_90\n    /* \"#utility.yul\":4473:4481   */\n  dup7\n    /* \"#utility.yul\":4462:4471   */\n  dup4\n    /* \"#utility.yul\":4443:4482   */\n  tag_26\n  jump\t// in\ntag_90:\n    /* \"#utility.yul\":4431:4482   */\n  swap6\n  pop\n    /* \"#utility.yul\":4515:4519   */\n  dup1\n    /* \"#utility.yul\":4511:4520   */\n  not\n    /* \"#utility.yul\":4504:4509   */\n  dup5\n    /* \"#utility.yul\":4500:4521   */\n  and\n    /* \"#utility.yul\":4491:4521   */\n  swap4\n  pop\n    /* \"#utility.yul\":4564:4568   */\n  dup1\n    /* \"#utility.yul\":4554:4562   */\n  dup7\n    /* \"#utility.yul\":4550:4569   */\n  and\n    /* \"#utility.yul\":4543:4548   */\n  dup5\n    /* \"#utility.yul\":4540:4570   */\n  or\n    /* \"#utility.yul\":4530:4570   */\n  swap3\n  pop\n    /* \"#utility.yul\":4259:4576   */\n  pop\n  pop\n    /* \"#utility.yul\":4183:4576   */\n  swap4\n  swap3\n  pop\n  pop\n  pop\n  jump\t// out\n    /* \"#utility.yul\":4582:4659   */\ntag_28:\n    /* \"#utility.yul\":4619:4626   */\n  0x00\n    /* \"#utility.yul\":4648:4653   */\n  dup2\n    /* \"#utility.yul\":4637:4653   */\n  swap1\n  pop\n    /* \"#utility.yul\":4582:4659   */\n  swap2\n  swap1\n  pop\n  jump\t// out\n    /* \"#utility.yul\":4665:4725   */\ntag_29:\n    /* \"#utility.yul\":4693:4696   */\n  0x00\n    /* \"#utility.yul\":4714:4719   */\n  dup2\n    /* \"#utility.yul\":4707:4719   */\n  swap1\n  pop\n    /* \"#utility.yul\":4665:4725   */\n  swap2\n  swap1\n  pop\n  jump\t// out\n    /* \"#utility.yul\":4731:4873   */\ntag_30:\n    /* \"#utility.yul\":4781:4790   */\n  0x00\n    /* \"#utility.yul\":4814:4867   */\n  tag_94\n    /* \"#utility.yul\":4832:4866   */\n  tag_95\n    /* \"#utility.yul\":4841:4865   */\n  tag_96\n    /* \"#utility.yul\":4859:4864   */\n  dup5\n    /* \"#utility.yul\":4841:4865   */\n  tag_28\n  jump\t// in\ntag_96:\n    /* \"#utility.yul\":4832:4866   */\n  tag_29\n  jump\t// in\ntag_95:\n    /* \"#utility.yul\":4814:4867   */\n  tag_28\n  jump\t// in\ntag_94:\n    /* \"#utility.yul\":4801:4867   */\n  swap1\n  pop\n    /* \"#utility.yul\":4731:4873   */\n  swap2\n  swap1\n  pop\n  jump\t// out\n    /* \"#utility.yul\":4879:4954   */\ntag_31:\n    /* \"#utility.yul\":4922:4925   */\n  0x00\n    /* \"#utility.yul\":4943:4948   */\n  dup2\n    /* \"#utility.yul\":4936:4948   */\n  swap1\n  pop\n    /* \"#utility.yul\":4879:4954   */\n  swap2\n  swap1\n  pop\n  jump\t// out\n    /* \"#utility.yul\":4960:5229   */\ntag_32:\n    /* \"#utility.yul\":5070:5109   */\n  tag_99\n    /* \"#utility.yul\":5101:5108   */\n  dup4\n    /* \"#utility.yul\":5070:5109   */\n  tag_30\n  jump\t// in\ntag_99:\n    /* \"#utility.yul\":5131:5222   */\n  tag_100\n    /* \"#utility.yul\":5180:5221   */\n  tag_101\n    /* \"#utility.yul\":5204:5220   */\n  dup3\n    /* \"#utility.yul\":5180:5221   */\n  tag_31\n  jump\t// in\ntag_101:\n    /* \"#utility.yul\":5172:5178   */\n  dup5\n    /* \"#utility.yul\":5165:5169   */\n  dup5\n    /* \"#utility.yul\":5159:5170   */\n  sload\n    /* \"#utility.yul\":5131:5222   */\n  tag_27\n  jump\t// in\ntag_100:\n    /* \"#utility.yul\":5125:5129   */\n  dup3\n    /* \"#utility.yul\":5118:5223   */\n  sstore\n    /* \"#utility.yul\":5036:5229   */\n  pop\n    /* \"#utility.yul\":4960:5229   */\n  pop\n  pop\n  pop\n  jump\t// out\n    /* \"#utility.yul\":5235:5308   */\ntag_33:\n    /* \"#utility.yul\":5280:5283   */\n  0x00\n    /* \"#utility.yul\":5235:5308   */\n  swap1\n  jump\t// out\n    /* \"#utility.yul\":5314:5503   */\ntag_34:\n    /* \"#utility.yul\":5391:5423   */\n  tag_104\n  tag_33\n  jump\t// in\ntag_104:\n    /* \"#utility.yul\":5432:5497   */\n  tag_105\n    /* \"#utility.yul\":5490:5496   */\n  dup2\n    /* \"#utility.yul\":5482:5488   */\n  dup5\n    /* \"#utility.yul\":5476:5480   */\n  dup5\n    /* \"#utility.yul\":5432:5497   */\n  tag_32\n  jump\t// in\ntag_105:\n    /* \"#utility.yul\":5367:5503   */\n  pop\n    /* \"#utility.yul\":5314:5503   */\n  pop\n  pop\n  jump\t// out\n    /* \"#utility.yul\":5509:5695   */\ntag_35:\n    /* \"#utility.yul\":5569:5689   */\ntag_107:\n    /* \"#utility.yul\":5586:5589   */\n  dup2\n    /* \"#utility.yul\":5579:5584   */\n  dup2\n    /* \"#utility.yul\":5576:5590   */\n  lt\n    /* \"#utility.yul\":5569:5689   */\n  iszero\n  tag_109\n  jumpi\n    /* \"#utility.yul\":5640:5679   */\n  tag_110\n    /* \"#utility.yul\":5677:5678   */\n  0x00\n    /* \"#utility.yul\":5670:5675   */\n  dup3\n    /* \"#utility.yul\":5640:5679   */\n  tag_34\n  jump\t// in\ntag_110:\n    /* \"#utility.yul\":5613:5614   */\n  0x01\n    /* \"#utility.yul\":5606:5611   */\n  dup2\n    /* \"#utility.yul\":5602:5615   */\n  add\n    /* \"#utility.yul\":5593:5615   */\n  swap1\n  pop\n    /* \"#utility.yul\":5569:5689   */\n  jump(tag_107)\ntag_109:\n    /* \"#utility.yul\":5509:5695   */\n  pop\n  pop\n  jump\t// out\n    /* \"#utility.yul\":5701:6244   */\ntag_36:\n    /* \"#utility.yul\":5802:5804   */\n  0x1f\n    /* \"#utility.yul\":5797:5800   */\n  dup3\n    /* \"#utility.yul\":5794:5805   */\n  gt\n    /* \"#utility.yul\":5791:6237   */\n  iszero\n  tag_112\n  jumpi\n    /* \"#utility.yul\":5836:5874   */\n  tag_113\n    /* \"#utility.yul\":5868:5873   */\n  dup2\n    /* \"#utility.yul\":5836:5874   */\n  tag_24\n  jump\t// in\ntag_113:\n    /* \"#utility.yul\":5920:5949   */\n  tag_114\n    /* \"#utility.yul\":5938:5948   */\n  dup5\n    /* \"#utility.yul\":5920:5949   */\n  tag_25\n  jump\t// in\ntag_114:\n    /* \"#utility.yul\":5910:5918   */\n  dup2\n    /* \"#utility.yul\":5906:5950   */\n  add\n    /* \"#utility.yul\":6103:6105   */\n  0x20\n    /* \"#utility.yul\":6091:6101   */\n  dup6\n    /* \"#utility.yul\":6088:6106   */\n  lt\n    /* \"#utility.yul\":6085:6134   */\n  iszero\n  tag_115\n  jumpi\n    /* \"#utility.yul\":6124:6132   */\n  dup2\n    /* \"#utility.yul\":6109:6132   */\n  swap1\n  pop\n    /* \"#utility.yul\":6085:6134   */\ntag_115:\n    /* \"#utility.yul\":6147:6227   */\n  tag_116\n    /* \"#utility.yul\":6203:6225   */\n  tag_117\n    /* \"#utility.yul\":6221:6224   */\n  dup6\n    /* \"#utility.yul\":6203:6225   */\n  tag_25\n  jump\t// in\ntag_117:\n    /* \"#utility.yul\":6193:6201   */\n  dup4\n    /* \"#utility.yul\":6189:6226   */\n  add\n    /* \"#utility.yul\":6176:6187   */\n  dup3\n    /* \"#utility.yul\":6147:6227   */\n  tag_35\n  jump\t// in\ntag_116:\n    /* \"#utility.yul\":5806:6237   */\n  pop\n  pop\n    /* \"#utility.yul\":5791:6237   */\ntag_112:\n    /* \"#utility.yul\":5701:6244   */\n  pop\n  pop\n  pop\n  jump\t// out\n    /* \"#utility.yul\":6250:6367   */\ntag_37:\n    /* \"#utility.yul\":6304:6312   */\n  0x00\n    /* \"#utility.yul\":6354:6359   */\n  dup3\n    /* \"#utility.yul\":6348:6352   */\n  dup3\n    /* \"#utility.yul\":6344:6360   */\n  shr\n    /* \"#utility.yul\":6323:6360   */\n  swap1\n  pop\n    /* \"#utility.yul\":6250:6367   */\n  swap3\n  swap2\n  pop\n  pop\n  jump\t// out\n    /* \"#utility.yul\":6373:6542   */\ntag_38:\n    /* \"#utility.yul\":6417:6423   */\n  0x00\n    /* \"#utility.yul\":6450:6501   */\n  tag_120\n    /* \"#utility.yul\":6498:6499   */\n  0x00\n    /* \"#utility.yul\":6494:6500   */\n  not\n    /* \"#utility.yul\":6486:6491   */\n  dup5\n    /* \"#utility.yul\":6483:6484   */\n  0x08\n    /* \"#utility.yul\":6479:6492   */\n  mul\n    /* \"#utility.yul\":6450:6501   */\n  tag_37\n  jump\t// in\ntag_120:\n    /* \"#utility.yul\":6446:6502   */\n  not\n    /* \"#utility.yul\":6531:6535   */\n  dup1\n    /* \"#utility.yul\":6525:6529   */\n  dup4\n    /* \"#utility.yul\":6521:6536   */\n  and\n    /* \"#utility.yul\":6511:6536   */\n  swap2\n  pop\n    /* \"#utility.yul\":6424:6542   */\n  pop\n    /* \"#utility.yul\":6373:6542   */\n  swap3\n  swap2\n  pop\n  pop\n  jump\t// out\n    /* \"#utility.yul\":6547:6842   */\ntag_39:\n    /* \"#utility.yul\":6623:6627   */\n  0x00\n    /* \"#utility.yul\":6769:6798   */\n  tag_122\n    /* \"#utility.yul\":6794:6797   */\n  dup4\n    /* \"#utility.yul\":6788:6792   */\n  dup4\n    /* \"#utility.yul\":6769:6798   */\n  tag_38\n  jump\t// in\ntag_122:\n    /* \"#utility.yul\":6761:6798   */\n  swap2\n  pop\n    /* \"#utility.yul\":6831:6834   */\n  dup3\n    /* \"#utility.yul\":6828:6829   */\n  0x02\n    /* \"#utility.yul\":6824:6835   */\n  mul\n    /* \"#utility.yul\":6818:6822   */\n  dup3\n    /* \"#utility.yul\":6815:6836   */\n  or\n    /* \"#utility.yul\":6807:6836   */\n  swap1\n  pop\n    /* \"#utility.yul\":6547:6842   */\n  swap3\n  swap2\n  pop\n  pop\n  jump\t// out\n    /* \"#utility.yul\":6847:8242   */\ntag_6:\n    /* \"#utility.yul\":6964:7001   */\n  tag_124\n    /* \"#utility.yul\":6997:7000   */\n  dup3\n    /* \"#utility.yul\":6964:7001   */\n  tag_21\n  jump\t// in\ntag_124:\n    /* \"#utility.yul\":7066:7084   */\n  0xffffffffffffffff\n    /* \"#utility.yul\":7058:7064   */\n  dup2\n    /* \"#utility.yul\":7055:7085   */\n  gt\n    /* \"#utility.yul\":7052:7108   */\n  iszero\n  tag_125\n  jumpi\n    /* \"#utility.yul\":7088:7106   */\n  tag_126\n  tag_14\n  jump\t// in\ntag_126:\n    /* \"#utility.yul\":7052:7108   */\ntag_125:\n    /* \"#utility.yul\":7132:7170   */\n  tag_127\n    /* \"#utility.yul\":7164:7168   */\n  dup3\n    /* \"#utility.yul\":7158:7169   */\n  sload\n    /* \"#utility.yul\":7132:7170   */\n  tag_23\n  jump\t// in\ntag_127:\n    /* \"#utility.yul\":7217:7284   */\n  tag_128\n    /* \"#utility.yul\":7277:7283   */\n  dup3\n    /* \"#utility.yul\":7269:7275   */\n  dup3\n    /* \"#utility.yul\":7263:7267   */\n  dup6\n    /* \"#utility.yul\":7217:7284   */\n  tag_36\n  jump\t// in\ntag_128:\n    /* \"#utility.yul\":7311:7312   */\n  0x00\n    /* \"#utility.yul\":7335:7339   */\n  0x20\n    /* \"#utility.yul\":7322:7339   */\n  swap1\n  pop\n    /* \"#utility.yul\":7367:7369   */\n  0x1f\n    /* \"#utility.yul\":7359:7365   */\n  dup4\n    /* \"#utility.yul\":7356:7370   */\n  gt\n    /* \"#utility.yul\":7384:7385   */\n  0x01\n    /* \"#utility.yul\":7379:7997   */\n  dup2\n  eq\n  tag_130\n  jumpi\n    /* \"#utility.yul\":8041:8042   */\n  0x00\n    /* \"#utility.yul\":8058:8064   */\n  dup5\n    /* \"#utility.yul\":8055:8132   */\n  iszero\n  tag_131\n  jumpi\n    /* \"#utility.yul\":8107:8116   */\n  dup3\n    /* \"#utility.yul\":8102:8105   */\n  dup8\n    /* \"#utility.yul\":8098:8117   */\n  add\n    /* \"#utility.yul\":8092:8118   */\n  mload\n    /* \"#utility.yul\":8083:8118   */\n  swap1\n  pop\n    /* \"#utility.yul\":8055:8132   */\ntag_131:\n    /* \"#utility.yul\":8158:8225   */\n  tag_132\n    /* \"#utility.yul\":8218:8224   */\n  dup6\n    /* \"#utility.yul\":8211:8216   */\n  dup3\n    /* \"#utility.yul\":8158:8225   */\n  tag_39\n  jump\t// in\ntag_132:\n    /* \"#utility.yul\":8152:8156   */\n  dup7\n    /* \"#utility.yul\":8145:8226   */\n  sstore\n    /* \"#utility.yul\":8014:8236   */\n  pop\n    /* \"#utility.yul\":7349:8236   */\n  jump(tag_129)\n    /* \"#utility.yul\":7379:7997   */\ntag_130:\n    /* \"#utility.yul\":7431:7435   */\n  0x1f\n    /* \"#utility.yul\":7427:7436   */\n  not\n    /* \"#utility.yul\":7419:7425   */\n  dup5\n    /* \"#utility.yul\":7415:7437   */\n  and\n    /* \"#utility.yul\":7465:7502   */\n  tag_133\n    /* \"#utility.yul\":7497:7501   */\n  dup7\n    /* \"#utility.yul\":7465:7502   */\n  tag_24\n  jump\t// in\ntag_133:\n    /* \"#utility.yul\":7524:7525   */\n  0x00\n    /* \"#utility.yul\":7538:7746   */\ntag_134:\n    /* \"#utility.yul\":7552:7559   */\n  dup3\n    /* \"#utility.yul\":7549:7550   */\n  dup2\n    /* \"#utility.yul\":7546:7560   */\n  lt\n    /* \"#utility.yul\":7538:7746   */\n  iszero\n  tag_136\n  jumpi\n    /* \"#utility.yul\":7631:7640   */\n  dup5\n    /* \"#utility.yul\":7626:7629   */\n  dup10\n    /* \"#utility.yul\":7622:7641   */\n  add\n    /* \"#utility.yul\":7616:7642   */\n  mload\n    /* \"#utility.yul\":7608:7614   */\n  dup3\n    /* \"#utility.yul\":7601:7643   */\n  sstore\n    /* \"#utility.yul\":7682:7683   */\n  0x01\n    /* \"#utility.yul\":7674:7680   */\n  dup3\n    /* \"#utility.yul\":7670:7684   */\n  add\n    /* \"#utility.yul\":7660:7684   */\n  swap2\n  pop\n    /* \"#utility.yul\":7729:7731   */\n  0x20\n    /* \"#utility.yul\":7718:7727   */\n  dup6\n    /* \"#utility.yul\":7714:7732   */\n  add\n    /* \"#utility.yul\":7701:7732   */\n  swap5\n  pop\n    /* \"#utility.yul\":7575:7579   */\n  0x20\n    /* \"#utility.yul\":7572:7573   */\n  dup2\n    /* \"#utility.yul\":7568:7580   */\n  add\n    /* \"#utility.yul\":7563:7580   */\n  swap1\n  pop\n    /* \"#utility.yul\":7538:7746   */\n  jump(tag_134)\ntag_136:\n    /* \"#utility.yul\":7774:7780   */\n  dup7\n    /* \"#utility.yul\":7765:7772   */\n  dup4\n    /* \"#utility.yul\":7762:7781   */\n  lt\n    /* \"#utility.yul\":7759:7938   */\n  iszero\n  tag_137\n  jumpi\n    /* \"#utility.yul\":7832:7841   */\n  dup5\n    /* \"#utility.yul\":7827:7830   */\n  dup10\n    /* \"#utility.yul\":7823:7842   */\n  add\n    /* \"#utility.yul\":7817:7843   */\n  mload\n    /* \"#utility.yul\":7875:7923   */\n  tag_138\n    /* \"#utility.yul\":7917:7921   */\n  0x1f\n    /* \"#utility.yul\":7909:7915   */\n  dup10\n    /* \"#utility.yul\":7905:7922   */\n  and\n    /* \"#utility.yul\":7894:7903   */\n  dup3\n    /* \"#utility.yul\":7875:7923   */\n  tag_38\n  jump\t// in\ntag_138:\n    /* \"#utility.yul\":7867:7873   */\n  dup4\n    /* \"#utility.yul\":7860:7924   */\n  sstore\n    /* \"#utility.yul\":7782:7938   */\n  pop\n    /* \"#utility.yul\":7759:7938   */\ntag_137:\n    /* \"#utility.yul\":7984:7985   */\n  0x01\n    /* \"#utility.yul\":7980:7981   */\n  0x02\n    /* \"#utility.yul\":7972:7978   */\n  dup9\n    /* \"#utility.yul\":7968:7982   */\n  mul\n    /* \"#utility.yul\":7964:7986   */\n  add\n    /* \"#utility.yul\":7958:7962   */\n  dup9\n    /* \"#utility.yul\":7951:7987   */\n  sstore\n    /* \"#utility.yul\":7386:7997   */\n  pop\n  pop\n  pop\n    /* \"#utility.yul\":7349:8236   */\ntag_129:\n  pop\n    /* \"#utility.yul\":6939:8242   */\n  pop\n  pop\n  pop\n    /* \"#utility.yul\":6847:8242   */\n  pop\n  pop\n  jump\t// out\n    /* \"TreasuryPool.sol\":207:7657  contract Gmonad {... */\ntag_7:\n  dataSize(sub_0)\n  dup1\n  dataOffset(sub_0)\n  0x00\n  codecopy\n  0x00\n  return\nstop\n\nsub_0: assembly {\n        /* \"TreasuryPool.sol\":207:7657  contract Gmonad {... */\n      mstore(0x40, 0x80)\n      jumpi(tag_1, lt(calldatasize, 0x04))\n      shr(0xe0, calldataload(0x00))\n      dup1\n      0x90321e1a\n      gt\n      tag_20\n      jumpi\n      dup1\n      0xc8a34efe\n      gt\n      tag_21\n      jumpi\n      dup1\n      0xc8a34efe\n      eq\n      tag_15\n      jumpi\n      dup1\n      0xe086e5ec\n      eq\n      tag_16\n      jumpi\n      dup1\n      0xef690cc0\n      eq\n      tag_17\n      jumpi\n      dup1\n      0xf5465992\n      eq\n      tag_18\n      jumpi\n      dup1\n      0xfe029156\n      eq\n      tag_19\n      jumpi\n      jump(tag_2)\n    tag_21:\n      dup1\n      0x90321e1a\n      eq\n      tag_11\n      jumpi\n      dup1\n      0x95310efa\n      eq\n      tag_12\n      jumpi\n      dup1\n      0xa4136862\n      eq\n      tag_13\n      jumpi\n      dup1\n      0xadb51980\n      eq\n      tag_14\n      jumpi\n      jump(tag_2)\n    tag_20:\n      dup1\n      0x6677b49b\n      gt\n      tag_22\n      jumpi\n      dup1\n      0x6677b49b\n      eq\n      tag_7\n      jumpi\n      dup1\n      0x8305368a\n      eq\n      tag_8\n      jumpi\n      dup1\n      0x89476069\n      eq\n      tag_9\n      jumpi\n      dup1\n      0x8da5cb5b\n      eq\n      tag_10\n      jumpi\n      jump(tag_2)\n    tag_22:\n      dup1\n      0x062dd331\n      eq\n      tag_3\n      jumpi\n      dup1\n      0x1edb27e9\n      eq\n      tag_4\n      jumpi\n      dup1\n      0x43ab265f\n      eq\n      tag_5\n      jumpi\n      dup1\n      0x47e7ef24\n      eq\n      tag_6\n      jumpi\n      jump(tag_2)\n    tag_1:\n      jumpi(tag_2, calldatasize)\n      stop\n    tag_2:\n      stop\n        /* \"TreasuryPool.sol\":2302:2610  function withdrawWmon() external onlyOwner {... */\n    tag_3:\n      callvalue\n      dup1\n      iszero\n      tag_27\n      jumpi\n      0x00\n      dup1\n      revert\n    tag_27:\n      pop\n      tag_28\n      tag_29\n      jump\t// in\n    tag_28:\n      stop\n        /* \"TreasuryPool.sol\":5964:6403  function getUserPortfolio(address user) external view returns (address[] memory tokens, uint256[] memory balances) {... */\n    tag_4:\n      callvalue\n      dup1\n      iszero\n      tag_30\n      jumpi\n      0x00\n      dup1\n      revert\n    tag_30:\n      pop\n      tag_31\n      0x04\n      dup1\n      calldatasize\n      sub\n      dup2\n      add\n      swap1\n      tag_32\n      swap2\n      swap1\n      tag_33\n      jump\t// in\n    tag_32:\n      tag_34\n      jump\t// in\n    tag_31:\n      mload(0x40)\n      tag_35\n      swap3\n      swap2\n      swap1\n      tag_36\n      jump\t// in\n    tag_35:\n      mload(0x40)\n      dup1\n      swap2\n      sub\n      swap1\n      return\n        /* \"TreasuryPool.sol\":6907:7114  function getContractBalance(address _token) external view returns (uint256) {... */\n    tag_5:\n      callvalue\n      dup1\n      iszero\n      tag_37\n      jumpi\n      0x00\n      dup1\n      revert\n    tag_37:\n      pop\n      tag_38\n      0x04\n      dup1\n      calldatasize\n      sub\n      dup2\n      add\n      swap1\n      tag_39\n      swap2\n      swap1\n      tag_33\n      jump\t// in\n    tag_39:\n      tag_40\n      jump\t// in\n    tag_38:\n      mload(0x40)\n      tag_41\n      swap2\n      swap1\n      tag_42\n      jump\t// in\n    tag_41:\n      mload(0x40)\n      dup1\n      swap2\n      sub\n      swap1\n      return\n        /* \"TreasuryPool.sol\":2766:3370  function deposit(address _token, uint256 _amount) external {... */\n    tag_6:\n      callvalue\n      dup1\n      iszero\n      tag_43\n      jumpi\n      0x00\n      dup1\n      revert\n    tag_43:\n      pop\n      tag_44\n      0x04\n      dup1\n      calldatasize\n      sub\n      dup2\n      add\n      swap1\n      tag_45\n      swap2\n      swap1\n      tag_46\n      jump\t// in\n    tag_45:\n      tag_47\n      jump\t// in\n    tag_44:\n      stop\n        /* \"TreasuryPool.sol\":6455:6899  function getContractPortfolio() external view returns (address[] memory tokens, uint256[] memory balances) {... */\n    tag_7:\n      callvalue\n      dup1\n      iszero\n      tag_48\n      jumpi\n      0x00\n      dup1\n      revert\n    tag_48:\n      pop\n      tag_49\n      tag_50\n      jump\t// in\n    tag_49:\n      mload(0x40)\n      tag_51\n      swap3\n      swap2\n      swap1\n      tag_36\n      jump\t// in\n    tag_51:\n      mload(0x40)\n      dup1\n      swap2\n      sub\n      swap1\n      return\n        /* \"TreasuryPool.sol\":826:856  address[] public trackedTokens */\n    tag_8:\n      callvalue\n      dup1\n      iszero\n      tag_52\n      jumpi\n      0x00\n      dup1\n      revert\n    tag_52:\n      pop\n      tag_53\n      0x04\n      dup1\n      calldatasize\n      sub\n      dup2\n      add\n      swap1\n      tag_54\n      swap2\n      swap1\n      tag_55\n      jump\t// in\n    tag_54:\n      tag_56\n      jump\t// in\n    tag_53:\n      mload(0x40)\n      tag_57\n      swap2\n      swap1\n      tag_58\n      jump\t// in\n    tag_57:\n      mload(0x40)\n      dup1\n      swap2\n      sub\n      swap1\n      return\n        /* \"TreasuryPool.sol\":2037:2294  function withdrawToken(address _token) external onlyOwner {... */\n    tag_9:\n      callvalue\n      dup1\n      iszero\n      tag_59\n      jumpi\n      0x00\n      dup1\n      revert\n    tag_59:\n      pop\n      tag_60\n      0x04\n      dup1\n      calldatasize\n      sub\n      dup2\n      add\n      swap1\n      tag_61\n      swap2\n      swap1\n      tag_33\n      jump\t// in\n    tag_61:\n      tag_62\n      jump\t// in\n    tag_60:\n      stop\n        /* \"TreasuryPool.sol\":259:279  address public owner */\n    tag_10:\n      callvalue\n      dup1\n      iszero\n      tag_63\n      jumpi\n      0x00\n      dup1\n      revert\n    tag_63:\n      pop\n      tag_64\n      tag_65\n      jump\t// in\n    tag_64:\n      mload(0x40)\n      tag_66\n      swap2\n      swap1\n      tag_58\n      jump\t// in\n    tag_66:\n      mload(0x40)\n      dup1\n      swap2\n      sub\n      swap1\n      return\n        /* \"TreasuryPool.sol\":286:322  uint256 public callFee = 0.001 ether */\n    tag_11:\n      callvalue\n      dup1\n      iszero\n      tag_67\n      jumpi\n      0x00\n      dup1\n      revert\n    tag_67:\n      pop\n      tag_68\n      tag_69\n      jump\t// in\n    tag_68:\n      mload(0x40)\n      tag_70\n      swap2\n      swap1\n      tag_42\n      jump\t// in\n    tag_70:\n      mload(0x40)\n      dup1\n      swap2\n      sub\n      swap1\n      return\n        /* \"TreasuryPool.sol\":3969:4519  function depositOwner(address _token, uint256 _amount) external onlyOwner {... */\n    tag_12:\n      callvalue\n      dup1\n      iszero\n      tag_71\n      jumpi\n      0x00\n      dup1\n      revert\n    tag_71:\n      pop\n      tag_72\n      0x04\n      dup1\n      calldatasize\n      sub\n      dup2\n      add\n      swap1\n      tag_73\n      swap2\n      swap1\n      tag_46\n      jump\t// in\n    tag_73:\n      tag_74\n      jump\t// in\n    tag_72:\n      stop\n        /* \"TreasuryPool.sol\":1596:1765  function setGreeting(string calldata _greeting) external payable {... */\n    tag_13:\n      tag_75\n      0x04\n      dup1\n      calldatasize\n      sub\n      dup2\n      add\n      swap1\n      tag_76\n      swap2\n      swap1\n      tag_77\n      jump\t// in\n    tag_76:\n      tag_78\n      jump\t// in\n    tag_75:\n      stop\n        /* \"TreasuryPool.sol\":683:750  mapping(address => mapping(address => uint256)) public userBalances */\n    tag_14:\n      callvalue\n      dup1\n      iszero\n      tag_79\n      jumpi\n      0x00\n      dup1\n      revert\n    tag_79:\n      pop\n      tag_80\n      0x04\n      dup1\n      calldatasize\n      sub\n      dup2\n      add\n      swap1\n      tag_81\n      swap2\n      swap1\n      tag_82\n      jump\t// in\n    tag_81:\n      tag_83\n      jump\t// in\n    tag_80:\n      mload(0x40)\n      tag_84\n      swap2\n      swap1\n      tag_42\n      jump\t// in\n    tag_84:\n      mload(0x40)\n      dup1\n      swap2\n      sub\n      swap1\n      return\n        /* \"TreasuryPool.sol\":3378:3961  function depositWmon(uint256 _amount) external {... */\n    tag_15:\n      callvalue\n      dup1\n      iszero\n      tag_85\n      jumpi\n      0x00\n      dup1\n      revert\n    tag_85:\n      pop\n      tag_86\n      0x04\n      dup1\n      calldatasize\n      sub\n      dup2\n      add\n      swap1\n      tag_87\n      swap2\n      swap1\n      tag_55\n      jump\t// in\n    tag_87:\n      tag_88\n      jump\t// in\n    tag_86:\n      stop\n        /* \"TreasuryPool.sol\":1922:2029  function withdrawETH() external onlyOwner {... */\n    tag_16:\n      callvalue\n      dup1\n      iszero\n      tag_89\n      jumpi\n      0x00\n      dup1\n      revert\n    tag_89:\n      pop\n      tag_90\n      tag_91\n      jump\t// in\n    tag_90:\n      stop\n        /* \"TreasuryPool.sol\":230:252  string public greeting */\n    tag_17:\n      callvalue\n      dup1\n      iszero\n      tag_92\n      jumpi\n      0x00\n      dup1\n      revert\n    tag_92:\n      pop\n      tag_93\n      tag_94\n      jump\t// in\n    tag_93:\n      mload(0x40)\n      tag_95\n      swap2\n      swap1\n      tag_96\n      jump\t// in\n    tag_95:\n      mload(0x40)\n      dup1\n      swap2\n      sub\n      swap1\n      return\n        /* \"TreasuryPool.sol\":380:432  mapping(address => uint256) public totalTokenBalance */\n    tag_18:\n      callvalue\n      dup1\n      iszero\n      tag_97\n      jumpi\n      0x00\n      dup1\n      revert\n    tag_97:\n      pop\n      tag_98\n      0x04\n      dup1\n      calldatasize\n      sub\n      dup2\n      add\n      swap1\n      tag_99\n      swap2\n      swap1\n      tag_33\n      jump\t// in\n    tag_99:\n      tag_100\n      jump\t// in\n    tag_98:\n      mload(0x40)\n      tag_101\n      swap2\n      swap1\n      tag_42\n      jump\t// in\n    tag_101:\n      mload(0x40)\n      dup1\n      swap2\n      sub\n      swap1\n      return\n        /* \"TreasuryPool.sol\":4672:5915  function swap(address tokenA, address tokenB, uint256 amountA, uint256 rate) external payable {... */\n    tag_19:\n      tag_102\n      0x04\n      dup1\n      calldatasize\n      sub\n      dup2\n      add\n      swap1\n      tag_103\n      swap2\n      swap1\n      tag_104\n      jump\t// in\n    tag_103:\n      tag_105\n      jump\t// in\n    tag_102:\n      stop\n        /* \"TreasuryPool.sol\":2302:2610  function withdrawWmon() external onlyOwner {... */\n    tag_29:\n        /* \"TreasuryPool.sol\":1040:1045  owner */\n      0x01\n      0x00\n      swap1\n      sload\n      swap1\n      0x0100\n      exp\n      swap1\n      div\n      0xffffffffffffffffffffffffffffffffffffffff\n      and\n        /* \"TreasuryPool.sol\":1026:1045  msg.sender == owner */\n      0xffffffffffffffffffffffffffffffffffffffff\n      and\n        /* \"TreasuryPool.sol\":1026:1036  msg.sender */\n      caller\n        /* \"TreasuryPool.sol\":1026:1045  msg.sender == owner */\n      0xffffffffffffffffffffffffffffffffffffffff\n      and\n      eq\n        /* \"TreasuryPool.sol\":1018:1060  require(msg.sender == owner, \"Only owner\") */\n      tag_107\n      jumpi\n      mload(0x40)\n      0x08c379a000000000000000000000000000000000000000000000000000000000\n      dup2\n      mstore\n      0x04\n      add\n      tag_108\n      swap1\n      tag_109\n      jump\t// in\n    tag_108:\n      mload(0x40)\n      dup1\n      swap2\n      sub\n      swap1\n      revert\n    tag_107:\n        /* \"TreasuryPool.sol\":2356:2368  address wmon */\n      0x00\n        /* \"TreasuryPool.sol\":2371:2413  0x760AfE86e5de5fa0Ee542fc7B7B713e1c5425701 */\n      0x760afe86e5de5fa0ee542fc7b7b713e1c5425701\n        /* \"TreasuryPool.sol\":2356:2413  address wmon = 0x760AfE86e5de5fa0Ee542fc7B7B713e1c5425701 */\n      swap1\n      pop\n        /* \"TreasuryPool.sol\":2424:2436  IERC20 erc20 */\n      0x00\n        /* \"TreasuryPool.sol\":2446:2450  wmon */\n      dup2\n        /* \"TreasuryPool.sol\":2424:2451  IERC20 erc20 = IERC20(wmon) */\n      swap1\n      pop\n        /* \"TreasuryPool.sol\":2462:2477  uint256 balance */\n      0x00\n        /* \"TreasuryPool.sol\":2480:2485  erc20 */\n      dup2\n        /* \"TreasuryPool.sol\":2480:2495  erc20.balanceOf */\n      0xffffffffffffffffffffffffffffffffffffffff\n      and\n      0x70a08231\n        /* \"TreasuryPool.sol\":2504:2508  this */\n      address\n        /* \"TreasuryPool.sol\":2480:2510  erc20.balanceOf(address(this)) */\n      mload(0x40)\n      dup3\n      0xffffffff\n      and\n      0xe0\n      shl\n      dup2\n      mstore\n      0x04\n      add\n      tag_111\n      swap2\n      swap1\n      tag_58\n      jump\t// in\n    tag_111:\n      0x20\n      mload(0x40)\n      dup1\n      dup4\n      sub\n      dup2\n      dup7\n      gas\n      staticcall\n      iszero\n      dup1\n      iszero\n      tag_113\n      jumpi\n      returndatasize\n      0x00\n      dup1\n      returndatacopy\n      revert(0x00, returndatasize)\n    tag_113:\n      pop\n      pop\n      pop\n      pop\n      mload(0x40)\n      returndatasize\n      not(0x1f)\n      0x1f\n      dup3\n      add\n      and\n      dup3\n      add\n      dup1\n      0x40\n      mstore\n      pop\n      dup2\n      add\n      swap1\n      tag_114\n      swap2\n      swap1\n      tag_115\n      jump\t// in\n    tag_114:\n        /* \"TreasuryPool.sol\":2462:2510  uint256 balance = erc20.balanceOf(address(this)) */\n      swap1\n      pop\n        /* \"TreasuryPool.sol\":2539:2540  0 */\n      0x00\n        /* \"TreasuryPool.sol\":2529:2536  balance */\n      dup2\n        /* \"TreasuryPool.sol\":2529:2540  balance > 0 */\n      gt\n        /* \"TreasuryPool.sol\":2521:2561  require(balance > 0, \"No token balance\") */\n      tag_116\n      jumpi\n      mload(0x40)\n      0x08c379a000000000000000000000000000000000000000000000000000000000\n      dup2\n      mstore\n      0x04\n      add\n      tag_117\n      swap1\n      tag_118\n      jump\t// in\n    tag_117:\n      mload(0x40)\n      dup1\n      swap2\n      sub\n      swap1\n      revert\n    tag_116:\n        /* \"TreasuryPool.sol\":2572:2577  erc20 */\n      dup2\n        /* \"TreasuryPool.sol\":2572:2586  erc20.transfer */\n      0xffffffffffffffffffffffffffffffffffffffff\n      and\n      0xa9059cbb\n        /* \"TreasuryPool.sol\":2587:2592  owner */\n      0x01\n      0x00\n      swap1\n      sload\n      swap1\n      0x0100\n      exp\n      swap1\n      div\n      0xffffffffffffffffffffffffffffffffffffffff\n      and\n        /* \"TreasuryPool.sol\":2594:2601  balance */\n      dup4\n        /* \"TreasuryPool.sol\":2572:2602  erc20.transfer(owner, balance) */\n      mload(0x40)\n      dup4\n      0xffffffff\n      and\n      0xe0\n      shl\n      dup2\n      mstore\n      0x04\n      add\n      tag_119\n      swap3\n      swap2\n      swap1\n      tag_120\n      jump\t// in\n    tag_119:\n      0x20\n      mload(0x40)\n      dup1\n      dup4\n      sub\n      dup2\n      0x00\n      dup8\n      gas\n      call\n      iszero\n      dup1\n      iszero\n      tag_122\n      jumpi\n      returndatasize\n      0x00\n      dup1\n      returndatacopy\n      revert(0x00, returndatasize)\n    tag_122:\n      pop\n      pop\n      pop\n      pop\n      mload(0x40)\n      returndatasize\n      not(0x1f)\n      0x1f\n      dup3\n      add\n      and\n      dup3\n      add\n      dup1\n      0x40\n      mstore\n      pop\n      dup2\n      add\n      swap1\n      tag_123\n      swap2\n      swap1\n      tag_124\n      jump\t// in\n    tag_123:\n      pop\n        /* \"TreasuryPool.sol\":2345:2610  {... */\n      pop\n      pop\n      pop\n        /* \"TreasuryPool.sol\":2302:2610  function withdrawWmon() external onlyOwner {... */\n      jump\t// out\n        /* \"TreasuryPool.sol\":5964:6403  function getUserPortfolio(address user) external view returns (address[] memory tokens, uint256[] memory balances) {... */\n    tag_34:\n        /* \"TreasuryPool.sol\":6027:6050  address[] memory tokens */\n      0x60\n        /* \"TreasuryPool.sol\":6052:6077  uint256[] memory balances */\n      dup1\n        /* \"TreasuryPool.sol\":6090:6100  uint count */\n      0x00\n        /* \"TreasuryPool.sol\":6103:6116  trackedTokens */\n      0x05\n        /* \"TreasuryPool.sol\":6103:6123  trackedTokens.length */\n      dup1\n      sload\n      swap1\n      pop\n        /* \"TreasuryPool.sol\":6090:6123  uint count = trackedTokens.length */\n      swap1\n      pop\n        /* \"TreasuryPool.sol\":6157:6162  count */\n      dup1\n        /* \"TreasuryPool.sol\":6143:6163  new address[](count) */\n      0xffffffffffffffff\n      dup2\n      gt\n      iszero\n      tag_126\n      jumpi\n      tag_127\n      tag_128\n      jump\t// in\n    tag_127:\n    tag_126:\n      mload(0x40)\n      swap1\n      dup1\n      dup3\n      mstore\n      dup1\n      0x20\n      mul\n      0x20\n      add\n      dup3\n      add\n      0x40\n      mstore\n      dup1\n      iszero\n      tag_129\n      jumpi\n      dup2\n      0x20\n      add\n      0x20\n      dup3\n      mul\n      dup1\n      calldatasize\n      dup4\n      calldatacopy\n      dup1\n      dup3\n      add\n      swap2\n      pop\n      pop\n      swap1\n      pop\n    tag_129:\n      pop\n        /* \"TreasuryPool.sol\":6134:6163  tokens = new address[](count) */\n      swap3\n      pop\n        /* \"TreasuryPool.sol\":6199:6204  count */\n      dup1\n        /* \"TreasuryPool.sol\":6185:6205  new uint256[](count) */\n      0xffffffffffffffff\n      dup2\n      gt\n      iszero\n      tag_130\n      jumpi\n      tag_131\n      tag_128\n      jump\t// in\n    tag_131:\n    tag_130:\n      mload(0x40)\n      swap1\n      dup1\n      dup3\n      mstore\n      dup1\n      0x20\n      mul\n      0x20\n      add\n      dup3\n      add\n      0x40\n      mstore\n      dup1\n      iszero\n      tag_132\n      jumpi\n      dup2\n      0x20\n      add\n      0x20\n      dup3\n      mul\n      dup1\n      calldatasize\n      dup4\n      calldatacopy\n      dup1\n      dup3\n      add\n      swap2\n      pop\n      pop\n      swap1\n      pop\n    tag_132:\n      pop\n        /* \"TreasuryPool.sol\":6174:6205  balances = new uint256[](count) */\n      swap2\n      pop\n        /* \"TreasuryPool.sol\":6223:6229  uint i */\n      0x00\n        /* \"TreasuryPool.sol\":6218:6396  for (uint i = 0; i < count; i++) {... */\n    tag_133:\n        /* \"TreasuryPool.sol\":6239:6244  count */\n      dup2\n        /* \"TreasuryPool.sol\":6235:6236  i */\n      dup2\n        /* \"TreasuryPool.sol\":6235:6244  i < count */\n      lt\n        /* \"TreasuryPool.sol\":6218:6396  for (uint i = 0; i < count; i++) {... */\n      iszero\n      tag_134\n      jumpi\n        /* \"TreasuryPool.sol\":6266:6279  address token */\n      0x00\n        /* \"TreasuryPool.sol\":6282:6295  trackedTokens */\n      0x05\n        /* \"TreasuryPool.sol\":6296:6297  i */\n      dup3\n        /* \"TreasuryPool.sol\":6282:6298  trackedTokens[i] */\n      dup2\n      sload\n      dup2\n      lt\n      tag_136\n      jumpi\n      tag_137\n      tag_138\n      jump\t// in\n    tag_137:\n    tag_136:\n      swap1\n      0x00\n      mstore\n      keccak256(0x00, 0x20)\n      add\n      0x00\n      swap1\n      sload\n      swap1\n      0x0100\n      exp\n      swap1\n      div\n      0xffffffffffffffffffffffffffffffffffffffff\n      and\n        /* \"TreasuryPool.sol\":6266:6298  address token = trackedTokens[i] */\n      swap1\n      pop\n        /* \"TreasuryPool.sol\":6325:6330  token */\n      dup1\n        /* \"TreasuryPool.sol\":6313:6319  tokens */\n      dup6\n        /* \"TreasuryPool.sol\":6320:6321  i */\n      dup4\n        /* \"TreasuryPool.sol\":6313:6322  tokens[i] */\n      dup2\n      mload\n      dup2\n      lt\n      tag_140\n      jumpi\n      tag_141\n      tag_138\n      jump\t// in\n    tag_141:\n    tag_140:\n      0x20\n      mul\n      0x20\n      add\n      add\n        /* \"TreasuryPool.sol\":6313:6330  tokens[i] = token */\n      swap1\n      0xffffffffffffffffffffffffffffffffffffffff\n      and\n      swap1\n      dup2\n      0xffffffffffffffffffffffffffffffffffffffff\n      and\n      dup2\n      mstore\n      pop\n      pop\n        /* \"TreasuryPool.sol\":6359:6371  userBalances */\n      0x04\n        /* \"TreasuryPool.sol\":6359:6377  userBalances[user] */\n      0x00\n        /* \"TreasuryPool.sol\":6372:6376  user */\n      dup8\n        /* \"TreasuryPool.sol\":6359:6377  userBalances[user] */\n      0xffffffffffffffffffffffffffffffffffffffff\n      and\n      0xffffffffffffffffffffffffffffffffffffffff\n      and\n      dup2\n      mstore\n      0x20\n      add\n      swap1\n      dup2\n      mstore\n      0x20\n      add\n      0x00\n      keccak256\n        /* \"TreasuryPool.sol\":6359:6384  userBalances[user][token] */\n      0x00\n        /* \"TreasuryPool.sol\":6378:6383  token */\n      dup3\n        /* \"TreasuryPool.sol\":6359:6384  userBalances[user][token] */\n      0xffffffffffffffffffffffffffffffffffffffff\n      and\n      0xffffffffffffffffffffffffffffffffffffffff\n      and\n      dup2\n      mstore\n      0x20\n      add\n      swap1\n      dup2\n      mstore\n      0x20\n      add\n      0x00\n      keccak256\n      sload\n        /* \"TreasuryPool.sol\":6345:6353  balances */\n      dup5\n        /* \"TreasuryPool.sol\":6354:6355  i */\n      dup4\n        /* \"TreasuryPool.sol\":6345:6356  balances[i] */\n      dup2\n      mload\n      dup2\n      lt\n      tag_142\n      jumpi\n      tag_143\n      tag_138\n      jump\t// in\n    tag_143:\n    tag_142:\n      0x20\n      mul\n      0x20\n      add\n      add\n        /* \"TreasuryPool.sol\":6345:6384  balances[i] = userBalances[user][token] */\n      dup2\n      dup2\n      mstore\n      pop\n      pop\n        /* \"TreasuryPool.sol\":6251:6396  {... */\n      pop\n        /* \"TreasuryPool.sol\":6246:6249  i++ */\n      dup1\n      dup1\n      tag_144\n      swap1\n      tag_145\n      jump\t// in\n    tag_144:\n      swap2\n      pop\n      pop\n        /* \"TreasuryPool.sol\":6218:6396  for (uint i = 0; i < count; i++) {... */\n      jump(tag_133)\n    tag_134:\n      pop\n        /* \"TreasuryPool.sol\":6079:6403  {... */\n      pop\n        /* \"TreasuryPool.sol\":5964:6403  function getUserPortfolio(address user) external view returns (address[] memory tokens, uint256[] memory balances) {... */\n      swap2\n      pop\n      swap2\n      jump\t// out\n        /* \"TreasuryPool.sol\":6907:7114  function getContractBalance(address _token) external view returns (uint256) {... */\n    tag_40:\n        /* \"TreasuryPool.sol\":6974:6981  uint256 */\n      0x00\n        /* \"TreasuryPool.sol\":6994:7008  uint8 decimals */\n      dup1\n        /* \"TreasuryPool.sol\":7026:7032  _token */\n      dup3\n        /* \"TreasuryPool.sol\":7011:7042  IERC20Metadata(_token).decimals */\n      0xffffffffffffffffffffffffffffffffffffffff\n      and\n      0x313ce567\n        /* \"TreasuryPool.sol\":7011:7044  IERC20Metadata(_token).decimals() */\n      mload(0x40)\n      dup2\n      0xffffffff\n      and\n      0xe0\n      shl\n      dup2\n      mstore\n      0x04\n      add\n      0x20\n      mload(0x40)\n      dup1\n      dup4\n      sub\n      dup2\n      dup7\n      gas\n      staticcall\n      iszero\n      dup1\n      iszero\n      tag_148\n      jumpi\n      returndatasize\n      0x00\n      dup1\n      returndatacopy\n      revert(0x00, returndatasize)\n    tag_148:\n      pop\n      pop\n      pop\n      pop\n      mload(0x40)\n      returndatasize\n      not(0x1f)\n      0x1f\n      dup3\n      add\n      and\n      dup3\n      add\n      dup1\n      0x40\n      mstore\n      pop\n      dup2\n      add\n      swap1\n      tag_149\n      swap2\n      swap1\n      tag_150\n      jump\t// in\n    tag_149:\n        /* \"TreasuryPool.sol\":6994:7044  uint8 decimals = IERC20Metadata(_token).decimals() */\n      swap1\n      pop\n        /* \"TreasuryPool.sol\":7097:7105  decimals */\n      dup1\n        /* \"TreasuryPool.sol\":7091:7093  10 */\n      0x0a\n        /* \"TreasuryPool.sol\":7091:7105  10 ** decimals */\n      tag_151\n      swap2\n      swap1\n      tag_152\n      jump\t// in\n    tag_151:\n        /* \"TreasuryPool.sol\":7062:7079  totalTokenBalance */\n      0x03\n        /* \"TreasuryPool.sol\":7062:7087  totalTokenBalance[_token] */\n      0x00\n        /* \"TreasuryPool.sol\":7080:7086  _token */\n      dup6\n        /* \"TreasuryPool.sol\":7062:7087  totalTokenBalance[_token] */\n      0xffffffffffffffffffffffffffffffffffffffff\n      and\n      0xffffffffffffffffffffffffffffffffffffffff\n      and\n      dup2\n      mstore\n      0x20\n      add\n      swap1\n      dup2\n      mstore\n      0x20\n      add\n      0x00\n      keccak256\n      sload\n        /* \"TreasuryPool.sol\":7062:7106  totalTokenBalance[_token] / (10 ** decimals) */\n      tag_153\n      swap2\n      swap1\n      tag_154\n      jump\t// in\n    tag_153:\n        /* \"TreasuryPool.sol\":7055:7106  return totalTokenBalance[_token] / (10 ** decimals) */\n      swap2\n      pop\n      pop\n        /* \"TreasuryPool.sol\":6907:7114  function getContractBalance(address _token) external view returns (uint256) {... */\n      swap2\n      swap1\n      pop\n      jump\t// out\n        /* \"TreasuryPool.sol\":2766:3370  function deposit(address _token, uint256 _amount) external {... */\n    tag_47:\n        /* \"TreasuryPool.sol\":2854:2855  0 */\n      0x00\n        /* \"TreasuryPool.sol\":2844:2851  _amount */\n      dup2\n        /* \"TreasuryPool.sol\":2844:2855  _amount > 0 */\n      gt\n        /* \"TreasuryPool.sol\":2836:2892  require(_amount > 0, \"Amount must be greater than zero\") */\n      tag_156\n      jumpi\n      mload(0x40)\n      0x08c379a000000000000000000000000000000000000000000000000000000000\n      dup2\n      mstore\n      0x04\n      add\n      tag_157\n      swap1\n      tag_158\n      jump\t// in\n    tag_157:\n      mload(0x40)\n      dup1\n      swap2\n      sub\n      swap1\n      revert\n    tag_156:\n        /* \"TreasuryPool.sol\":2905:2917  IERC20 token */\n      0x00\n        /* \"TreasuryPool.sol\":2927:2933  _token */\n      dup3\n        /* \"TreasuryPool.sol\":2905:2934  IERC20 token = IERC20(_token) */\n      swap1\n      pop\n        /* \"TreasuryPool.sol\":2945:2962  uint256 weiAmount */\n      0x00\n        /* \"TreasuryPool.sol\":2965:2988  _toWei(_token, _amount) */\n      tag_159\n        /* \"TreasuryPool.sol\":2972:2978  _token */\n      dup5\n        /* \"TreasuryPool.sol\":2980:2987  _amount */\n      dup5\n        /* \"TreasuryPool.sol\":2965:2971  _toWei */\n      tag_160\n        /* \"TreasuryPool.sol\":2965:2988  _toWei(_token, _amount) */\n      jump\t// in\n    tag_159:\n        /* \"TreasuryPool.sol\":2945:2988  uint256 weiAmount = _toWei(_token, _amount) */\n      swap1\n      pop\n        /* \"TreasuryPool.sol\":3001:3016  uint256 allowed */\n      0x00\n        /* \"TreasuryPool.sol\":3019:3024  token */\n      dup3\n        /* \"TreasuryPool.sol\":3019:3034  token.allowance */\n      0xffffffffffffffffffffffffffffffffffffffff\n      and\n      0xdd62ed3e\n        /* \"TreasuryPool.sol\":3035:3045  msg.sender */\n      caller\n        /* \"TreasuryPool.sol\":3055:3059  this */\n      address\n        /* \"TreasuryPool.sol\":3019:3061  token.allowance(msg.sender, address(this)) */\n      mload(0x40)\n      dup4\n      0xffffffff\n      and\n      0xe0\n      shl\n      dup2\n      mstore\n      0x04\n      add\n      tag_161\n      swap3\n      swap2\n      swap1\n      tag_162\n      jump\t// in\n    tag_161:\n      0x20\n      mload(0x40)\n      dup1\n      dup4\n      sub\n      dup2\n      dup7\n      gas\n      staticcall\n      iszero\n      dup1\n      iszero\n      tag_164\n      jumpi\n      returndatasize\n      0x00\n      dup1\n      returndatacopy\n      revert(0x00, returndatasize)\n    tag_164:\n      pop\n      pop\n      pop\n      pop\n      mload(0x40)\n      returndatasize\n      not(0x1f)\n      0x1f\n      dup3\n      add\n      and\n      dup3\n      add\n      dup1\n      0x40\n      mstore\n      pop\n      dup2\n      add\n      swap1\n      tag_165\n      swap2\n      swap1\n      tag_115\n      jump\t// in\n    tag_165:\n        /* \"TreasuryPool.sol\":3001:3061  uint256 allowed = token.allowance(msg.sender, address(this)) */\n      swap1\n      pop\n        /* \"TreasuryPool.sol\":3091:3100  weiAmount */\n      dup2\n        /* \"TreasuryPool.sol\":3080:3087  allowed */\n      dup2\n        /* \"TreasuryPool.sol\":3080:3100  allowed >= weiAmount */\n      lt\n      iszero\n        /* \"TreasuryPool.sol\":3072:3125  require(allowed >= weiAmount, \"Not enough allowance\") */\n      tag_166\n      jumpi\n      mload(0x40)\n      0x08c379a000000000000000000000000000000000000000000000000000000000\n      dup2\n      mstore\n      0x04\n      add\n      tag_167\n      swap1\n      tag_168\n      jump\t// in\n    tag_167:\n      mload(0x40)\n      dup1\n      swap2\n      sub\n      swap1\n      revert\n    tag_166:\n        /* \"TreasuryPool.sol\":3138:3150  bool success */\n      0x00\n        /* \"TreasuryPool.sol\":3153:3158  token */\n      dup4\n        /* \"TreasuryPool.sol\":3153:3171  token.transferFrom */\n      0xffffffffffffffffffffffffffffffffffffffff\n      and\n      0x23b872dd\n        /* \"TreasuryPool.sol\":3172:3182  msg.sender */\n      caller\n        /* \"TreasuryPool.sol\":3192:3196  this */\n      address\n        /* \"TreasuryPool.sol\":3199:3208  weiAmount */\n      dup7\n        /* \"TreasuryPool.sol\":3153:3209  token.transferFrom(msg.sender, address(this), weiAmount) */\n      mload(0x40)\n      dup5\n      0xffffffff\n      and\n      0xe0\n      shl\n      dup2\n      mstore\n      0x04\n      add\n      tag_169\n      swap4\n      swap3\n      swap2\n      swap1\n      tag_170\n      jump\t// in\n    tag_169:\n      0x20\n      mload(0x40)\n      dup1\n      dup4\n      sub\n      dup2\n      0x00\n      dup8\n      gas\n      call\n      iszero\n      dup1\n      iszero\n      tag_172\n      jumpi\n      returndatasize\n      0x00\n      dup1\n      returndatacopy\n      revert(0x00, returndatasize)\n    tag_172:\n      pop\n      pop\n      pop\n      pop\n      mload(0x40)\n      returndatasize\n      not(0x1f)\n      0x1f\n      dup3\n      add\n      and\n      dup3\n      add\n      dup1\n      0x40\n      mstore\n      pop\n      dup2\n      add\n      swap1\n      tag_173\n      swap2\n      swap1\n      tag_124\n      jump\t// in\n    tag_173:\n        /* \"TreasuryPool.sol\":3138:3209  bool success = token.transferFrom(msg.sender, address(this), weiAmount) */\n      swap1\n      pop\n        /* \"TreasuryPool.sol\":3228:3235  success */\n      dup1\n        /* \"TreasuryPool.sol\":3220:3255  require(success, \"Transfer failed\") */\n      tag_174\n      jumpi\n      mload(0x40)\n      0x08c379a000000000000000000000000000000000000000000000000000000000\n      dup2\n      mstore\n      0x04\n      add\n      tag_175\n      swap1\n      tag_176\n      jump\t// in\n    tag_175:\n      mload(0x40)\n      dup1\n      swap2\n      sub\n      swap1\n      revert\n    tag_174:\n        /* \"TreasuryPool.sol\":3297:3306  weiAmount */\n      dup3\n        /* \"TreasuryPool.sol\":3268:3285  totalTokenBalance */\n      0x03\n        /* \"TreasuryPool.sol\":3268:3293  totalTokenBalance[_token] */\n      0x00\n        /* \"TreasuryPool.sol\":3286:3292  _token */\n      dup9\n        /* \"TreasuryPool.sol\":3268:3293  totalTokenBalance[_token] */\n      0xffffffffffffffffffffffffffffffffffffffff\n      and\n      0xffffffffffffffffffffffffffffffffffffffff\n      and\n      dup2\n      mstore\n      0x20\n      add\n      swap1\n      dup2\n      mstore\n      0x20\n      add\n      0x00\n      keccak256\n      0x00\n        /* \"TreasuryPool.sol\":3268:3306  totalTokenBalance[_token] += weiAmount */\n      dup3\n      dup3\n      sload\n      tag_177\n      swap2\n      swap1\n      tag_178\n      jump\t// in\n    tag_177:\n      swap3\n      pop\n      pop\n      dup2\n      swap1\n      sstore\n      pop\n        /* \"TreasuryPool.sol\":3332:3342  msg.sender */\n      caller\n        /* \"TreasuryPool.sol\":3322:3362  Deposited(msg.sender, _token, weiAmount) */\n      0xffffffffffffffffffffffffffffffffffffffff\n      and\n      0x8752a472e571a816aea92eec8dae9baf628e840f4929fbcc2d155e6233ff68a7\n        /* \"TreasuryPool.sol\":3344:3350  _token */\n      dup8\n        /* \"TreasuryPool.sol\":3352:3361  weiAmount */\n      dup6\n        /* \"TreasuryPool.sol\":3322:3362  Deposited(msg.sender, _token, weiAmount) */\n      mload(0x40)\n      tag_179\n      swap3\n      swap2\n      swap1\n      tag_120\n      jump\t// in\n    tag_179:\n      mload(0x40)\n      dup1\n      swap2\n      sub\n      swap1\n      log2\n        /* \"TreasuryPool.sol\":2825:3370  {... */\n      pop\n      pop\n      pop\n      pop\n        /* \"TreasuryPool.sol\":2766:3370  function deposit(address _token, uint256 _amount) external {... */\n      pop\n      pop\n      jump\t// out\n        /* \"TreasuryPool.sol\":6455:6899  function getContractPortfolio() external view returns (address[] memory tokens, uint256[] memory balances) {... */\n    tag_50:\n        /* \"TreasuryPool.sol\":6510:6533  address[] memory tokens */\n      0x60\n        /* \"TreasuryPool.sol\":6535:6560  uint256[] memory balances */\n      dup1\n        /* \"TreasuryPool.sol\":6573:6583  uint count */\n      0x00\n        /* \"TreasuryPool.sol\":6586:6599  trackedTokens */\n      0x05\n        /* \"TreasuryPool.sol\":6586:6606  trackedTokens.length */\n      dup1\n      sload\n      swap1\n      pop\n        /* \"TreasuryPool.sol\":6573:6606  uint count = trackedTokens.length */\n      swap1\n      pop\n        /* \"TreasuryPool.sol\":6640:6645  count */\n      dup1\n        /* \"TreasuryPool.sol\":6626:6646  new address[](count) */\n      0xffffffffffffffff\n      dup2\n      gt\n      iszero\n      tag_181\n      jumpi\n      tag_182\n      tag_128\n      jump\t// in\n    tag_182:\n    tag_181:\n      mload(0x40)\n      swap1\n      dup1\n      dup3\n      mstore\n      dup1\n      0x20\n      mul\n      0x20\n      add\n      dup3\n      add\n      0x40\n      mstore\n      dup1\n      iszero\n      tag_183\n      jumpi\n      dup2\n      0x20\n      add\n      0x20\n      dup3\n      mul\n      dup1\n      calldatasize\n      dup4\n      calldatacopy\n      dup1\n      dup3\n      add\n      swap2\n      pop\n      pop\n      swap1\n      pop\n    tag_183:\n      pop\n        /* \"TreasuryPool.sol\":6617:6646  tokens = new address[](count) */\n      swap3\n      pop\n        /* \"TreasuryPool.sol\":6682:6687  count */\n      dup1\n        /* \"TreasuryPool.sol\":6668:6688  new uint256[](count) */\n      0xffffffffffffffff\n      dup2\n      gt\n      iszero\n      tag_184\n      jumpi\n      tag_185\n      tag_128\n      jump\t// in\n    tag_185:\n    tag_184:\n      mload(0x40)\n      swap1\n      dup1\n      dup3\n      mstore\n      dup1\n      0x20\n      mul\n      0x20\n      add\n      dup3\n      add\n      0x40\n      mstore\n      dup1\n      iszero\n      tag_186\n      jumpi\n      dup2\n      0x20\n      add\n      0x20\n      dup3\n      mul\n      dup1\n      calldatasize\n      dup4\n      calldatacopy\n      dup1\n      dup3\n      add\n      swap2\n      pop\n      pop\n      swap1\n      pop\n    tag_186:\n      pop\n        /* \"TreasuryPool.sol\":6657:6688  balances = new uint256[](count) */\n      swap2\n      pop\n        /* \"TreasuryPool.sol\":6706:6712  uint i */\n      0x00\n        /* \"TreasuryPool.sol\":6701:6892  for (uint i = 0; i < count; i++) {... */\n    tag_187:\n        /* \"TreasuryPool.sol\":6722:6727  count */\n      dup2\n        /* \"TreasuryPool.sol\":6718:6719  i */\n      dup2\n        /* \"TreasuryPool.sol\":6718:6727  i < count */\n      lt\n        /* \"TreasuryPool.sol\":6701:6892  for (uint i = 0; i < count; i++) {... */\n      iszero\n      tag_188\n      jumpi\n        /* \"TreasuryPool.sol\":6749:6762  address token */\n      0x00\n        /* \"TreasuryPool.sol\":6765:6778  trackedTokens */\n      0x05\n        /* \"TreasuryPool.sol\":6779:6780  i */\n      dup3\n        /* \"TreasuryPool.sol\":6765:6781  trackedTokens[i] */\n      dup2\n      sload\n      dup2\n      lt\n      tag_190\n      jumpi\n      tag_191\n      tag_138\n      jump\t// in\n    tag_191:\n    tag_190:\n      swap1\n      0x00\n      mstore\n      keccak256(0x00, 0x20)\n      add\n      0x00\n      swap1\n      sload\n      swap1\n      0x0100\n      exp\n      swap1\n      div\n      0xffffffffffffffffffffffffffffffffffffffff\n      and\n        /* \"TreasuryPool.sol\":6749:6781  address token = trackedTokens[i] */\n      swap1\n      pop\n        /* \"TreasuryPool.sol\":6808:6813  token */\n      dup1\n        /* \"TreasuryPool.sol\":6796:6802  tokens */\n      dup6\n        /* \"TreasuryPool.sol\":6803:6804  i */\n      dup4\n        /* \"TreasuryPool.sol\":6796:6805  tokens[i] */\n      dup2\n      mload\n      dup2\n      lt\n      tag_193\n      jumpi\n      tag_194\n      tag_138\n      jump\t// in\n    tag_194:\n    tag_193:\n      0x20\n      mul\n      0x20\n      add\n      add\n        /* \"TreasuryPool.sol\":6796:6813  tokens[i] = token */\n      swap1\n      0xffffffffffffffffffffffffffffffffffffffff\n      and\n      swap1\n      dup2\n      0xffffffffffffffffffffffffffffffffffffffff\n      and\n      dup2\n      mstore\n      pop\n      pop\n        /* \"TreasuryPool.sol\":6849:6854  token */\n      dup1\n        /* \"TreasuryPool.sol\":6842:6865  IERC20(token).balanceOf */\n      0xffffffffffffffffffffffffffffffffffffffff\n      and\n      0x70a08231\n        /* \"TreasuryPool.sol\":6874:6878  this */\n      address\n        /* \"TreasuryPool.sol\":6842:6880  IERC20(token).balanceOf(address(this)) */\n      mload(0x40)\n      dup3\n      0xffffffff\n      and\n      0xe0\n      shl\n      dup2\n      mstore\n      0x04\n      add\n      tag_195\n      swap2\n      swap1\n      tag_58\n      jump\t// in\n    tag_195:\n      0x20\n      mload(0x40)\n      dup1\n      dup4\n      sub\n      dup2\n      dup7\n      gas\n      staticcall\n      iszero\n      dup1\n      iszero\n      tag_197\n      jumpi\n      returndatasize\n      0x00\n      dup1\n      returndatacopy\n      revert(0x00, returndatasize)\n    tag_197:\n      pop\n      pop\n      pop\n      pop\n      mload(0x40)\n      returndatasize\n      not(0x1f)\n      0x1f\n      dup3\n      add\n      and\n      dup3\n      add\n      dup1\n      0x40\n      mstore\n      pop\n      dup2\n      add\n      swap1\n      tag_198\n      swap2\n      swap1\n      tag_115\n      jump\t// in\n    tag_198:\n        /* \"TreasuryPool.sol\":6828:6836  balances */\n      dup5\n        /* \"TreasuryPool.sol\":6837:6838  i */\n      dup4\n        /* \"TreasuryPool.sol\":6828:6839  balances[i] */\n      dup2\n      mload\n      dup2\n      lt\n      tag_199\n      jumpi\n      tag_200\n      tag_138\n      jump\t// in\n    tag_200:\n    tag_199:\n      0x20\n      mul\n      0x20\n      add\n      add\n        /* \"TreasuryPool.sol\":6828:6880  balances[i] = IERC20(token).balanceOf(address(this)) */\n      dup2\n      dup2\n      mstore\n      pop\n      pop\n        /* \"TreasuryPool.sol\":6734:6892  {... */\n      pop\n        /* \"TreasuryPool.sol\":6729:6732  i++ */\n      dup1\n      dup1\n      tag_201\n      swap1\n      tag_145\n      jump\t// in\n    tag_201:\n      swap2\n      pop\n      pop\n        /* \"TreasuryPool.sol\":6701:6892  for (uint i = 0; i < count; i++) {... */\n      jump(tag_187)\n    tag_188:\n      pop\n        /* \"TreasuryPool.sol\":6562:6899  {... */\n      pop\n        /* \"TreasuryPool.sol\":6455:6899  function getContractPortfolio() external view returns (address[] memory tokens, uint256[] memory balances) {... */\n      swap1\n      swap2\n      jump\t// out\n        /* \"TreasuryPool.sol\":826:856  address[] public trackedTokens */\n    tag_56:\n      0x05\n      dup2\n      dup2\n      sload\n      dup2\n      lt\n      tag_202\n      jumpi\n      0x00\n      dup1\n      revert\n    tag_202:\n      swap1\n      0x00\n      mstore\n      keccak256(0x00, 0x20)\n      add\n      0x00\n      swap2\n      pop\n      sload\n      swap1\n      0x0100\n      exp\n      swap1\n      div\n      0xffffffffffffffffffffffffffffffffffffffff\n      and\n      dup2\n      jump\t// out\n        /* \"TreasuryPool.sol\":2037:2294  function withdrawToken(address _token) external onlyOwner {... */\n    tag_62:\n        /* \"TreasuryPool.sol\":1040:1045  owner */\n      0x01\n      0x00\n      swap1\n      sload\n      swap1\n      0x0100\n      exp\n      swap1\n      div\n      0xffffffffffffffffffffffffffffffffffffffff\n      and\n        /* \"TreasuryPool.sol\":1026:1045  msg.sender == owner */\n      0xffffffffffffffffffffffffffffffffffffffff\n      and\n        /* \"TreasuryPool.sol\":1026:1036  msg.sender */\n      caller\n        /* \"TreasuryPool.sol\":1026:1045  msg.sender == owner */\n      0xffffffffffffffffffffffffffffffffffffffff\n      and\n      eq\n        /* \"TreasuryPool.sol\":1018:1060  require(msg.sender == owner, \"Only owner\") */\n      tag_205\n      jumpi\n      mload(0x40)\n      0x08c379a000000000000000000000000000000000000000000000000000000000\n      dup2\n      mstore\n      0x04\n      add\n      tag_206\n      swap1\n      tag_109\n      jump\t// in\n    tag_206:\n      mload(0x40)\n      dup1\n      swap2\n      sub\n      swap1\n      revert\n    tag_205:\n        /* \"TreasuryPool.sol\":2106:2118  IERC20 erc20 */\n      0x00\n        /* \"TreasuryPool.sol\":2128:2134  _token */\n      dup2\n        /* \"TreasuryPool.sol\":2106:2135  IERC20 erc20 = IERC20(_token) */\n      swap1\n      pop\n        /* \"TreasuryPool.sol\":2146:2161  uint256 balance */\n      0x00\n        /* \"TreasuryPool.sol\":2164:2169  erc20 */\n      dup2\n        /* \"TreasuryPool.sol\":2164:2179  erc20.balanceOf */\n      0xffffffffffffffffffffffffffffffffffffffff\n      and\n      0x70a08231\n        /* \"TreasuryPool.sol\":2188:2192  this */\n      address\n        /* \"TreasuryPool.sol\":2164:2194  erc20.balanceOf(address(this)) */\n      mload(0x40)\n      dup3\n      0xffffffff\n      and\n      0xe0\n      shl\n      dup2\n      mstore\n      0x04\n      add\n      tag_208\n      swap2\n      swap1\n      tag_58\n      jump\t// in\n    tag_208:\n      0x20\n      mload(0x40)\n      dup1\n      dup4\n      sub\n      dup2\n      dup7\n      gas\n      staticcall\n      iszero\n      dup1\n      iszero\n      tag_210\n      jumpi\n      returndatasize\n      0x00\n      dup1\n      returndatacopy\n      revert(0x00, returndatasize)\n    tag_210:\n      pop\n      pop\n      pop\n      pop\n      mload(0x40)\n      returndatasize\n      not(0x1f)\n      0x1f\n      dup3\n      add\n      and\n      dup3\n      add\n      dup1\n      0x40\n      mstore\n      pop\n      dup2\n      add\n      swap1\n      tag_211\n      swap2\n      swap1\n      tag_115\n      jump\t// in\n    tag_211:\n        /* \"TreasuryPool.sol\":2146:2194  uint256 balance = erc20.balanceOf(address(this)) */\n      swap1\n      pop\n        /* \"TreasuryPool.sol\":2223:2224  0 */\n      0x00\n        /* \"TreasuryPool.sol\":2213:2220  balance */\n      dup2\n        /* \"TreasuryPool.sol\":2213:2224  balance > 0 */\n      gt\n        /* \"TreasuryPool.sol\":2205:2245  require(balance > 0, \"No token balance\") */\n      tag_212\n      jumpi\n      mload(0x40)\n      0x08c379a000000000000000000000000000000000000000000000000000000000\n      dup2\n      mstore\n      0x04\n      add\n      tag_213\n      swap1\n      tag_118\n      jump\t// in\n    tag_213:\n      mload(0x40)\n      dup1\n      swap2\n      sub\n      swap1\n      revert\n    tag_212:\n        /* \"TreasuryPool.sol\":2256:2261  erc20 */\n      dup2\n        /* \"TreasuryPool.sol\":2256:2270  erc20.transfer */\n      0xffffffffffffffffffffffffffffffffffffffff\n      and\n      0xa9059cbb\n        /* \"TreasuryPool.sol\":2271:2276  owner */\n      0x01\n      0x00\n      swap1\n      sload\n      swap1\n      0x0100\n      exp\n      swap1\n      div\n      0xffffffffffffffffffffffffffffffffffffffff\n      and\n        /* \"TreasuryPool.sol\":2278:2285  balance */\n      dup4\n        /* \"TreasuryPool.sol\":2256:2286  erc20.transfer(owner, balance) */\n      mload(0x40)\n      dup4\n      0xffffffff\n      and\n      0xe0\n      shl\n      dup2\n      mstore\n      0x04\n      add\n      tag_214\n      swap3\n      swap2\n      swap1\n      tag_120\n      jump\t// in\n    tag_214:\n      0x20\n      mload(0x40)\n      dup1\n      dup4\n      sub\n      dup2\n      0x00\n      dup8\n      gas\n      call\n      iszero\n      dup1\n      iszero\n      tag_216\n      jumpi\n      returndatasize\n      0x00\n      dup1\n      returndatacopy\n      revert(0x00, returndatasize)\n    tag_216:\n      pop\n      pop\n      pop\n      pop\n      mload(0x40)\n      returndatasize\n      not(0x1f)\n      0x1f\n      dup3\n      add\n      and\n      dup3\n      add\n      dup1\n      0x40\n      mstore\n      pop\n      dup2\n      add\n      swap1\n      tag_217\n      swap2\n      swap1\n      tag_124\n      jump\t// in\n    tag_217:\n      pop\n        /* \"TreasuryPool.sol\":2095:2294  {... */\n      pop\n      pop\n        /* \"TreasuryPool.sol\":2037:2294  function withdrawToken(address _token) external onlyOwner {... */\n      pop\n      jump\t// out\n        /* \"TreasuryPool.sol\":259:279  address public owner */\n    tag_65:\n      0x01\n      0x00\n      swap1\n      sload\n      swap1\n      0x0100\n      exp\n      swap1\n      div\n      0xffffffffffffffffffffffffffffffffffffffff\n      and\n      dup2\n      jump\t// out\n        /* \"TreasuryPool.sol\":286:322  uint256 public callFee = 0.001 ether */\n    tag_69:\n      sload(0x02)\n      dup2\n      jump\t// out\n        /* \"TreasuryPool.sol\":3969:4519  function depositOwner(address _token, uint256 _amount) external onlyOwner {... */\n    tag_74:\n        /* \"TreasuryPool.sol\":1040:1045  owner */\n      0x01\n      0x00\n      swap1\n      sload\n      swap1\n      0x0100\n      exp\n      swap1\n      div\n      0xffffffffffffffffffffffffffffffffffffffff\n      and\n        /* \"TreasuryPool.sol\":1026:1045  msg.sender == owner */\n      0xffffffffffffffffffffffffffffffffffffffff\n      and\n        /* \"TreasuryPool.sol\":1026:1036  msg.sender */\n      caller\n        /* \"TreasuryPool.sol\":1026:1045  msg.sender == owner */\n      0xffffffffffffffffffffffffffffffffffffffff\n      and\n      eq\n        /* \"TreasuryPool.sol\":1018:1060  require(msg.sender == owner, \"Only owner\") */\n      tag_219\n      jumpi\n      mload(0x40)\n      0x08c379a000000000000000000000000000000000000000000000000000000000\n      dup2\n      mstore\n      0x04\n      add\n      tag_220\n      swap1\n      tag_109\n      jump\t// in\n    tag_220:\n      mload(0x40)\n      dup1\n      swap2\n      sub\n      swap1\n      revert\n    tag_219:\n        /* \"TreasuryPool.sol\":4054:4066  IERC20 token */\n      0x00\n        /* \"TreasuryPool.sol\":4076:4082  _token */\n      dup3\n        /* \"TreasuryPool.sol\":4054:4083  IERC20 token = IERC20(_token) */\n      swap1\n      pop\n        /* \"TreasuryPool.sol\":4094:4111  uint256 weiAmount */\n      0x00\n        /* \"TreasuryPool.sol\":4114:4137  _toWei(_token, _amount) */\n      tag_222\n        /* \"TreasuryPool.sol\":4121:4127  _token */\n      dup5\n        /* \"TreasuryPool.sol\":4129:4136  _amount */\n      dup5\n        /* \"TreasuryPool.sol\":4114:4120  _toWei */\n      tag_160\n        /* \"TreasuryPool.sol\":4114:4137  _toWei(_token, _amount) */\n      jump\t// in\n    tag_222:\n        /* \"TreasuryPool.sol\":4094:4137  uint256 weiAmount = _toWei(_token, _amount) */\n      swap1\n      pop\n        /* \"TreasuryPool.sol\":4150:4165  uint256 allowed */\n      0x00\n        /* \"TreasuryPool.sol\":4168:4173  token */\n      dup3\n        /* \"TreasuryPool.sol\":4168:4183  token.allowance */\n      0xffffffffffffffffffffffffffffffffffffffff\n      and\n      0xdd62ed3e\n        /* \"TreasuryPool.sol\":4184:4194  msg.sender */\n      caller\n        /* \"TreasuryPool.sol\":4204:4208  this */\n      address\n        /* \"TreasuryPool.sol\":4168:4210  token.allowance(msg.sender, address(this)) */\n      mload(0x40)\n      dup4\n      0xffffffff\n      and\n      0xe0\n      shl\n      dup2\n      mstore\n      0x04\n      add\n      tag_223\n      swap3\n      swap2\n      swap1\n      tag_162\n      jump\t// in\n    tag_223:\n      0x20\n      mload(0x40)\n      dup1\n      dup4\n      sub\n      dup2\n      dup7\n      gas\n      staticcall\n      iszero\n      dup1\n      iszero\n      tag_225\n      jumpi\n      returndatasize\n      0x00\n      dup1\n      returndatacopy\n      revert(0x00, returndatasize)\n    tag_225:\n      pop\n      pop\n      pop\n      pop\n      mload(0x40)\n      returndatasize\n      not(0x1f)\n      0x1f\n      dup3\n      add\n      and\n      dup3\n      add\n      dup1\n      0x40\n      mstore\n      pop\n      dup2\n      add\n      swap1\n      tag_226\n      swap2\n      swap1\n      tag_115\n      jump\t// in\n    tag_226:\n        /* \"TreasuryPool.sol\":4150:4210  uint256 allowed = token.allowance(msg.sender, address(this)) */\n      swap1\n      pop\n        /* \"TreasuryPool.sol\":4240:4249  weiAmount */\n      dup2\n        /* \"TreasuryPool.sol\":4229:4236  allowed */\n      dup2\n        /* \"TreasuryPool.sol\":4229:4249  allowed >= weiAmount */\n      lt\n      iszero\n        /* \"TreasuryPool.sol\":4221:4274  require(allowed >= weiAmount, \"Not enough allowance\") */\n      tag_227\n      jumpi\n      mload(0x40)\n      0x08c379a000000000000000000000000000000000000000000000000000000000\n      dup2\n      mstore\n      0x04\n      add\n      tag_228\n      swap1\n      tag_168\n      jump\t// in\n    tag_228:\n      mload(0x40)\n      dup1\n      swap2\n      sub\n      swap1\n      revert\n    tag_227:\n        /* \"TreasuryPool.sol\":4287:4299  bool success */\n      0x00\n        /* \"TreasuryPool.sol\":4302:4307  token */\n      dup4\n        /* \"TreasuryPool.sol\":4302:4320  token.transferFrom */\n      0xffffffffffffffffffffffffffffffffffffffff\n      and\n      0x23b872dd\n        /* \"TreasuryPool.sol\":4321:4331  msg.sender */\n      caller\n        /* \"TreasuryPool.sol\":4341:4345  this */\n      address\n        /* \"TreasuryPool.sol\":4348:4357  weiAmount */\n      dup7\n        /* \"TreasuryPool.sol\":4302:4358  token.transferFrom(msg.sender, address(this), weiAmount) */\n      mload(0x40)\n      dup5\n      0xffffffff\n      and\n      0xe0\n      shl\n      dup2\n      mstore\n      0x04\n      add\n      tag_229\n      swap4\n      swap3\n      swap2\n      swap1\n      tag_170\n      jump\t// in\n    tag_229:\n      0x20\n      mload(0x40)\n      dup1\n      dup4\n      sub\n      dup2\n      0x00\n      dup8\n      gas\n      call\n      iszero\n      dup1\n      iszero\n      tag_231\n      jumpi\n      returndatasize\n      0x00\n      dup1\n      returndatacopy\n      revert(0x00, returndatasize)\n    tag_231:\n      pop\n      pop\n      pop\n      pop\n      mload(0x40)\n      returndatasize\n      not(0x1f)\n      0x1f\n      dup3\n      add\n      and\n      dup3\n      add\n      dup1\n      0x40\n      mstore\n      pop\n      dup2\n      add\n      swap1\n      tag_232\n      swap2\n      swap1\n      tag_124\n      jump\t// in\n    tag_232:\n        /* \"TreasuryPool.sol\":4287:4358  bool success = token.transferFrom(msg.sender, address(this), weiAmount) */\n      swap1\n      pop\n        /* \"TreasuryPool.sol\":4377:4384  success */\n      dup1\n        /* \"TreasuryPool.sol\":4369:4404  require(success, \"Transfer failed\") */\n      tag_233\n      jumpi\n      mload(0x40)\n      0x08c379a000000000000000000000000000000000000000000000000000000000\n      dup2\n      mstore\n      0x04\n      add\n      tag_234\n      swap1\n      tag_176\n      jump\t// in\n    tag_234:\n      mload(0x40)\n      dup1\n      swap2\n      sub\n      swap1\n      revert\n    tag_233:\n        /* \"TreasuryPool.sol\":4446:4455  weiAmount */\n      dup3\n        /* \"TreasuryPool.sol\":4417:4434  totalTokenBalance */\n      0x03\n        /* \"TreasuryPool.sol\":4417:4442  totalTokenBalance[_token] */\n      0x00\n        /* \"TreasuryPool.sol\":4435:4441  _token */\n      dup9\n        /* \"TreasuryPool.sol\":4417:4442  totalTokenBalance[_token] */\n      0xffffffffffffffffffffffffffffffffffffffff\n      and\n      0xffffffffffffffffffffffffffffffffffffffff\n      and\n      dup2\n      mstore\n      0x20\n      add\n      swap1\n      dup2\n      mstore\n      0x20\n      add\n      0x00\n      keccak256\n      0x00\n        /* \"TreasuryPool.sol\":4417:4455  totalTokenBalance[_token] += weiAmount */\n      dup3\n      dup3\n      sload\n      tag_235\n      swap2\n      swap1\n      tag_178\n      jump\t// in\n    tag_235:\n      swap3\n      pop\n      pop\n      dup2\n      swap1\n      sstore\n      pop\n        /* \"TreasuryPool.sol\":4481:4491  msg.sender */\n      caller\n        /* \"TreasuryPool.sol\":4471:4511  Deposited(msg.sender, _token, weiAmount) */\n      0xffffffffffffffffffffffffffffffffffffffff\n      and\n      0x8752a472e571a816aea92eec8dae9baf628e840f4929fbcc2d155e6233ff68a7\n        /* \"TreasuryPool.sol\":4493:4499  _token */\n      dup8\n        /* \"TreasuryPool.sol\":4501:4510  weiAmount */\n      dup6\n        /* \"TreasuryPool.sol\":4471:4511  Deposited(msg.sender, _token, weiAmount) */\n      mload(0x40)\n      tag_236\n      swap3\n      swap2\n      swap1\n      tag_120\n      jump\t// in\n    tag_236:\n      mload(0x40)\n      dup1\n      swap2\n      sub\n      swap1\n      log2\n        /* \"TreasuryPool.sol\":4043:4519  {... */\n      pop\n      pop\n      pop\n      pop\n        /* \"TreasuryPool.sol\":3969:4519  function depositOwner(address _token, uint256 _amount) external onlyOwner {... */\n      pop\n      pop\n      jump\t// out\n        /* \"TreasuryPool.sol\":1596:1765  function setGreeting(string calldata _greeting) external payable {... */\n    tag_78:\n        /* \"TreasuryPool.sol\":1693:1700  callFee */\n      sload(0x02)\n        /* \"TreasuryPool.sol\":1680:1689  msg.value */\n      callvalue\n        /* \"TreasuryPool.sol\":1680:1700  msg.value >= callFee */\n      lt\n      iszero\n        /* \"TreasuryPool.sol\":1672:1726  require(msg.value >= callFee, \"Insufficient fee sent\") */\n      tag_238\n      jumpi\n      mload(0x40)\n      0x08c379a000000000000000000000000000000000000000000000000000000000\n      dup2\n      mstore\n      0x04\n      add\n      tag_239\n      swap1\n      tag_240\n      jump\t// in\n    tag_239:\n      mload(0x40)\n      dup1\n      swap2\n      sub\n      swap1\n      revert\n    tag_238:\n        /* \"TreasuryPool.sol\":1748:1757  _greeting */\n      dup2\n      dup2\n        /* \"TreasuryPool.sol\":1737:1745  greeting */\n      0x00\n        /* \"TreasuryPool.sol\":1737:1757  greeting = _greeting */\n      swap2\n      dup3\n      tag_241\n      swap3\n      swap2\n      swap1\n      tag_242\n      jump\t// in\n    tag_241:\n      pop\n        /* \"TreasuryPool.sol\":1596:1765  function setGreeting(string calldata _greeting) external payable {... */\n      pop\n      pop\n      jump\t// out\n        /* \"TreasuryPool.sol\":683:750  mapping(address => mapping(address => uint256)) public userBalances */\n    tag_83:\n      mstore(0x20, 0x04)\n      dup2\n      0x00\n      mstore\n      mstore(0x20, keccak256(0x00, 0x40))\n      dup1\n      0x00\n      mstore\n      keccak256(0x00, 0x40)\n      0x00\n      swap2\n      pop\n      swap2\n      pop\n      pop\n      sload\n      dup2\n      jump\t// out\n        /* \"TreasuryPool.sol\":3378:3961  function depositWmon(uint256 _amount) external {... */\n    tag_88:\n        /* \"TreasuryPool.sol\":3436:3448  address wmon */\n      0x00\n        /* \"TreasuryPool.sol\":3451:3493  0x760AfE86e5de5fa0Ee542fc7B7B713e1c5425701 */\n      0x760afe86e5de5fa0ee542fc7b7b713e1c5425701\n        /* \"TreasuryPool.sol\":3436:3493  address wmon = 0x760AfE86e5de5fa0Ee542fc7B7B713e1c5425701 */\n      swap1\n      pop\n        /* \"TreasuryPool.sol\":3504:3516  IERC20 token */\n      0x00\n        /* \"TreasuryPool.sol\":3526:3530  wmon */\n      dup2\n        /* \"TreasuryPool.sol\":3504:3531  IERC20 token = IERC20(wmon) */\n      swap1\n      pop\n        /* \"TreasuryPool.sol\":3544:3561  uint256 weiAmount */\n      0x00\n        /* \"TreasuryPool.sol\":3564:3585  _toWei(wmon, _amount) */\n      tag_244\n        /* \"TreasuryPool.sol\":3571:3575  wmon */\n      dup4\n        /* \"TreasuryPool.sol\":3577:3584  _amount */\n      dup6\n        /* \"TreasuryPool.sol\":3564:3570  _toWei */\n      tag_160\n        /* \"TreasuryPool.sol\":3564:3585  _toWei(wmon, _amount) */\n      jump\t// in\n    tag_244:\n        /* \"TreasuryPool.sol\":3544:3585  uint256 weiAmount = _toWei(wmon, _amount) */\n      swap1\n      pop\n        /* \"TreasuryPool.sol\":3596:3611  uint256 allowed */\n      0x00\n        /* \"TreasuryPool.sol\":3614:3619  token */\n      dup3\n        /* \"TreasuryPool.sol\":3614:3629  token.allowance */\n      0xffffffffffffffffffffffffffffffffffffffff\n      and\n      0xdd62ed3e\n        /* \"TreasuryPool.sol\":3630:3640  msg.sender */\n      caller\n        /* \"TreasuryPool.sol\":3650:3654  this */\n      address\n        /* \"TreasuryPool.sol\":3614:3656  token.allowance(msg.sender, address(this)) */\n      mload(0x40)\n      dup4\n      0xffffffff\n      and\n      0xe0\n      shl\n      dup2\n      mstore\n      0x04\n      add\n      tag_245\n      swap3\n      swap2\n      swap1\n      tag_162\n      jump\t// in\n    tag_245:\n      0x20\n      mload(0x40)\n      dup1\n      dup4\n      sub\n      dup2\n      dup7\n      gas\n      staticcall\n      iszero\n      dup1\n      iszero\n      tag_247\n      jumpi\n      returndatasize\n      0x00\n      dup1\n      returndatacopy\n      revert(0x00, returndatasize)\n    tag_247:\n      pop\n      pop\n      pop\n      pop\n      mload(0x40)\n      returndatasize\n      not(0x1f)\n      0x1f\n      dup3\n      add\n      and\n      dup3\n      add\n      dup1\n      0x40\n      mstore\n      pop\n      dup2\n      add\n      swap1\n      tag_248\n      swap2\n      swap1\n      tag_115\n      jump\t// in\n    tag_248:\n        /* \"TreasuryPool.sol\":3596:3656  uint256 allowed = token.allowance(msg.sender, address(this)) */\n      swap1\n      pop\n        /* \"TreasuryPool.sol\":3686:3695  weiAmount */\n      dup2\n        /* \"TreasuryPool.sol\":3675:3682  allowed */\n      dup2\n        /* \"TreasuryPool.sol\":3675:3695  allowed >= weiAmount */\n      lt\n      iszero\n        /* \"TreasuryPool.sol\":3667:3720  require(allowed >= weiAmount, \"Not enough allowance\") */\n      tag_249\n      jumpi\n      mload(0x40)\n      0x08c379a000000000000000000000000000000000000000000000000000000000\n      dup2\n      mstore\n      0x04\n      add\n      tag_250\n      swap1\n      tag_168\n      jump\t// in\n    tag_250:\n      mload(0x40)\n      dup1\n      swap2\n      sub\n      swap1\n      revert\n    tag_249:\n        /* \"TreasuryPool.sol\":3733:3745  bool success */\n      0x00\n        /* \"TreasuryPool.sol\":3748:3753  token */\n      dup4\n        /* \"TreasuryPool.sol\":3748:3766  token.transferFrom */\n      0xffffffffffffffffffffffffffffffffffffffff\n      and\n      0x23b872dd\n        /* \"TreasuryPool.sol\":3767:3777  msg.sender */\n      caller\n        /* \"TreasuryPool.sol\":3787:3791  this */\n      address\n        /* \"TreasuryPool.sol\":3794:3803  weiAmount */\n      dup7\n        /* \"TreasuryPool.sol\":3748:3804  token.transferFrom(msg.sender, address(this), weiAmount) */\n      mload(0x40)\n      dup5\n      0xffffffff\n      and\n      0xe0\n      shl\n      dup2\n      mstore\n      0x04\n      add\n      tag_251\n      swap4\n      swap3\n      swap2\n      swap1\n      tag_170\n      jump\t// in\n    tag_251:\n      0x20\n      mload(0x40)\n      dup1\n      dup4\n      sub\n      dup2\n      0x00\n      dup8\n      gas\n      call\n      iszero\n      dup1\n      iszero\n      tag_253\n      jumpi\n      returndatasize\n      0x00\n      dup1\n      returndatacopy\n      revert(0x00, returndatasize)\n    tag_253:\n      pop\n      pop\n      pop\n      pop\n      mload(0x40)\n      returndatasize\n      not(0x1f)\n      0x1f\n      dup3\n      add\n      and\n      dup3\n      add\n      dup1\n      0x40\n      mstore\n      pop\n      dup2\n      add\n      swap1\n      tag_254\n      swap2\n      swap1\n      tag_124\n      jump\t// in\n    tag_254:\n        /* \"TreasuryPool.sol\":3733:3804  bool success = token.transferFrom(msg.sender, address(this), weiAmount) */\n      swap1\n      pop\n        /* \"TreasuryPool.sol\":3823:3830  success */\n      dup1\n        /* \"TreasuryPool.sol\":3815:3850  require(success, \"Transfer failed\") */\n      tag_255\n      jumpi\n      mload(0x40)\n      0x08c379a000000000000000000000000000000000000000000000000000000000\n      dup2\n      mstore\n      0x04\n      add\n      tag_256\n      swap1\n      tag_176\n      jump\t// in\n    tag_256:\n      mload(0x40)\n      dup1\n      swap2\n      sub\n      swap1\n      revert\n    tag_255:\n        /* \"TreasuryPool.sol\":3890:3899  weiAmount */\n      dup3\n        /* \"TreasuryPool.sol\":3863:3880  totalTokenBalance */\n      0x03\n        /* \"TreasuryPool.sol\":3863:3886  totalTokenBalance[wmon] */\n      0x00\n        /* \"TreasuryPool.sol\":3881:3885  wmon */\n      dup8\n        /* \"TreasuryPool.sol\":3863:3886  totalTokenBalance[wmon] */\n      0xffffffffffffffffffffffffffffffffffffffff\n      and\n      0xffffffffffffffffffffffffffffffffffffffff\n      and\n      dup2\n      mstore\n      0x20\n      add\n      swap1\n      dup2\n      mstore\n      0x20\n      add\n      0x00\n      keccak256\n      0x00\n        /* \"TreasuryPool.sol\":3863:3899  totalTokenBalance[wmon] += weiAmount */\n      dup3\n      dup3\n      sload\n      tag_257\n      swap2\n      swap1\n      tag_178\n      jump\t// in\n    tag_257:\n      swap3\n      pop\n      pop\n      dup2\n      swap1\n      sstore\n      pop\n        /* \"TreasuryPool.sol\":3925:3935  msg.sender */\n      caller\n        /* \"TreasuryPool.sol\":3915:3953  Deposited(msg.sender, wmon, weiAmount) */\n      0xffffffffffffffffffffffffffffffffffffffff\n      and\n      0x8752a472e571a816aea92eec8dae9baf628e840f4929fbcc2d155e6233ff68a7\n        /* \"TreasuryPool.sol\":3937:3941  wmon */\n      dup7\n        /* \"TreasuryPool.sol\":3943:3952  weiAmount */\n      dup6\n        /* \"TreasuryPool.sol\":3915:3953  Deposited(msg.sender, wmon, weiAmount) */\n      mload(0x40)\n      tag_258\n      swap3\n      swap2\n      swap1\n      tag_120\n      jump\t// in\n    tag_258:\n      mload(0x40)\n      dup1\n      swap2\n      sub\n      swap1\n      log2\n        /* \"TreasuryPool.sol\":3425:3961  {... */\n      pop\n      pop\n      pop\n      pop\n      pop\n        /* \"TreasuryPool.sol\":3378:3961  function depositWmon(uint256 _amount) external {... */\n      pop\n      jump\t// out\n        /* \"TreasuryPool.sol\":1922:2029  function withdrawETH() external onlyOwner {... */\n    tag_91:\n        /* \"TreasuryPool.sol\":1040:1045  owner */\n      0x01\n      0x00\n      swap1\n      sload\n      swap1\n      0x0100\n      exp\n      swap1\n      div\n      0xffffffffffffffffffffffffffffffffffffffff\n      and\n        /* \"TreasuryPool.sol\":1026:1045  msg.sender == owner */\n      0xffffffffffffffffffffffffffffffffffffffff\n      and\n        /* \"TreasuryPool.sol\":1026:1036  msg.sender */\n      caller\n        /* \"TreasuryPool.sol\":1026:1045  msg.sender == owner */\n      0xffffffffffffffffffffffffffffffffffffffff\n      and\n      eq\n        /* \"TreasuryPool.sol\":1018:1060  require(msg.sender == owner, \"Only owner\") */\n      tag_260\n      jumpi\n      mload(0x40)\n      0x08c379a000000000000000000000000000000000000000000000000000000000\n      dup2\n      mstore\n      0x04\n      add\n      tag_261\n      swap1\n      tag_109\n      jump\t// in\n    tag_261:\n      mload(0x40)\n      dup1\n      swap2\n      sub\n      swap1\n      revert\n    tag_260:\n        /* \"TreasuryPool.sol\":1983:1988  owner */\n      0x01\n      0x00\n      swap1\n      sload\n      swap1\n      0x0100\n      exp\n      swap1\n      div\n      0xffffffffffffffffffffffffffffffffffffffff\n      and\n        /* \"TreasuryPool.sol\":1975:1998  payable(owner).transfer */\n      0xffffffffffffffffffffffffffffffffffffffff\n      and\n        /* \"TreasuryPool.sol\":1975:2021  payable(owner).transfer(address(this).balance) */\n      0x08fc\n        /* \"TreasuryPool.sol\":1999:2020  address(this).balance */\n      selfbalance\n        /* \"TreasuryPool.sol\":1975:2021  payable(owner).transfer(address(this).balance) */\n      swap1\n      dup2\n      iszero\n      mul\n      swap1\n      mload(0x40)\n      0x00\n      mload(0x40)\n      dup1\n      dup4\n      sub\n      dup2\n      dup6\n      dup9\n      dup9\n      call\n      swap4\n      pop\n      pop\n      pop\n      pop\n      iszero\n      dup1\n      iszero\n      tag_264\n      jumpi\n      returndatasize\n      0x00\n      dup1\n      returndatacopy\n      revert(0x00, returndatasize)\n    tag_264:\n      pop\n        /* \"TreasuryPool.sol\":1922:2029  function withdrawETH() external onlyOwner {... */\n      jump\t// out\n        /* \"TreasuryPool.sol\":230:252  string public greeting */\n    tag_94:\n      0x00\n      dup1\n      sload\n      tag_265\n      swap1\n      tag_266\n      jump\t// in\n    tag_265:\n      dup1\n      0x1f\n      add\n      0x20\n      dup1\n      swap2\n      div\n      mul\n      0x20\n      add\n      mload(0x40)\n      swap1\n      dup2\n      add\n      0x40\n      mstore\n      dup1\n      swap3\n      swap2\n      swap1\n      dup2\n      dup2\n      mstore\n      0x20\n      add\n      dup3\n      dup1\n      sload\n      tag_267\n      swap1\n      tag_266\n      jump\t// in\n    tag_267:\n      dup1\n      iszero\n      tag_268\n      jumpi\n      dup1\n      0x1f\n      lt\n      tag_269\n      jumpi\n      0x0100\n      dup1\n      dup4\n      sload\n      div\n      mul\n      dup4\n      mstore\n      swap2\n      0x20\n      add\n      swap2\n      jump(tag_268)\n    tag_269:\n      dup3\n      add\n      swap2\n      swap1\n      0x00\n      mstore\n      keccak256(0x00, 0x20)\n      swap1\n    tag_270:\n      dup2\n      sload\n      dup2\n      mstore\n      swap1\n      0x01\n      add\n      swap1\n      0x20\n      add\n      dup1\n      dup4\n      gt\n      tag_270\n      jumpi\n      dup3\n      swap1\n      sub\n      0x1f\n      and\n      dup3\n      add\n      swap2\n    tag_268:\n      pop\n      pop\n      pop\n      pop\n      pop\n      dup2\n      jump\t// out\n        /* \"TreasuryPool.sol\":380:432  mapping(address => uint256) public totalTokenBalance */\n    tag_100:\n      mstore(0x20, 0x03)\n      dup1\n      0x00\n      mstore\n      keccak256(0x00, 0x40)\n      0x00\n      swap2\n      pop\n      swap1\n      pop\n      sload\n      dup2\n      jump\t// out\n        /* \"TreasuryPool.sol\":4672:5915  function swap(address tokenA, address tokenB, uint256 amountA, uint256 rate) external payable {... */\n    tag_105:\n        /* \"TreasuryPool.sol\":4798:4805  callFee */\n      sload(0x02)\n        /* \"TreasuryPool.sol\":4785:4794  msg.value */\n      callvalue\n        /* \"TreasuryPool.sol\":4785:4805  msg.value >= callFee */\n      lt\n      iszero\n        /* \"TreasuryPool.sol\":4777:4831  require(msg.value >= callFee, \"Insufficient fee sent\") */\n      tag_272\n      jumpi\n      mload(0x40)\n      0x08c379a000000000000000000000000000000000000000000000000000000000\n      dup2\n      mstore\n      0x04\n      add\n      tag_273\n      swap1\n      tag_240\n      jump\t// in\n    tag_273:\n      mload(0x40)\n      dup1\n      swap2\n      sub\n      swap1\n      revert\n    tag_272:\n        /* \"TreasuryPool.sol\":4860:4861  0 */\n      0x00\n        /* \"TreasuryPool.sol\":4850:4857  amountA */\n      dup3\n        /* \"TreasuryPool.sol\":4850:4861  amountA > 0 */\n      gt\n        /* \"TreasuryPool.sol\":4842:4884  require(amountA > 0, \"Amount must be > 0\") */\n      tag_274\n      jumpi\n      mload(0x40)\n      0x08c379a000000000000000000000000000000000000000000000000000000000\n      dup2\n      mstore\n      0x04\n      add\n      tag_275\n      swap1\n      tag_276\n      jump\t// in\n    tag_275:\n      mload(0x40)\n      dup1\n      swap2\n      sub\n      swap1\n      revert\n    tag_274:\n        /* \"TreasuryPool.sol\":4897:4906  IERC20 tA */\n      0x00\n        /* \"TreasuryPool.sol\":4916:4922  tokenA */\n      dup5\n        /* \"TreasuryPool.sol\":4897:4923  IERC20 tA = IERC20(tokenA) */\n      swap1\n      pop\n        /* \"TreasuryPool.sol\":4934:4943  IERC20 tB */\n      0x00\n        /* \"TreasuryPool.sol\":4953:4959  tokenB */\n      dup5\n        /* \"TreasuryPool.sol\":4934:4960  IERC20 tB = IERC20(tokenB) */\n      swap1\n      pop\n        /* \"TreasuryPool.sol\":4973:4991  uint256 weiAmountA */\n      0x00\n        /* \"TreasuryPool.sol\":4994:5017  _toWei(tokenA, amountA) */\n      tag_277\n        /* \"TreasuryPool.sol\":5001:5007  tokenA */\n      dup8\n        /* \"TreasuryPool.sol\":5009:5016  amountA */\n      dup7\n        /* \"TreasuryPool.sol\":4994:5000  _toWei */\n      tag_160\n        /* \"TreasuryPool.sol\":4994:5017  _toWei(tokenA, amountA) */\n      jump\t// in\n    tag_277:\n        /* \"TreasuryPool.sol\":4973:5017  uint256 weiAmountA = _toWei(tokenA, amountA) */\n      swap1\n      pop\n        /* \"TreasuryPool.sol\":5069:5084  uint256 allowed */\n      0x00\n        /* \"TreasuryPool.sol\":5087:5089  tA */\n      dup4\n        /* \"TreasuryPool.sol\":5087:5099  tA.allowance */\n      0xffffffffffffffffffffffffffffffffffffffff\n      and\n      0xdd62ed3e\n        /* \"TreasuryPool.sol\":5100:5110  msg.sender */\n      caller\n        /* \"TreasuryPool.sol\":5120:5124  this */\n      address\n        /* \"TreasuryPool.sol\":5087:5126  tA.allowance(msg.sender, address(this)) */\n      mload(0x40)\n      dup4\n      0xffffffff\n      and\n      0xe0\n      shl\n      dup2\n      mstore\n      0x04\n      add\n      tag_278\n      swap3\n      swap2\n      swap1\n      tag_162\n      jump\t// in\n    tag_278:\n      0x20\n      mload(0x40)\n      dup1\n      dup4\n      sub\n      dup2\n      dup7\n      gas\n      staticcall\n      iszero\n      dup1\n      iszero\n      tag_280\n      jumpi\n      returndatasize\n      0x00\n      dup1\n      returndatacopy\n      revert(0x00, returndatasize)\n    tag_280:\n      pop\n      pop\n      pop\n      pop\n      mload(0x40)\n      returndatasize\n      not(0x1f)\n      0x1f\n      dup3\n      add\n      and\n      dup3\n      add\n      dup1\n      0x40\n      mstore\n      pop\n      dup2\n      add\n      swap1\n      tag_281\n      swap2\n      swap1\n      tag_115\n      jump\t// in\n    tag_281:\n        /* \"TreasuryPool.sol\":5069:5126  uint256 allowed = tA.allowance(msg.sender, address(this)) */\n      swap1\n      pop\n        /* \"TreasuryPool.sol\":5156:5166  weiAmountA */\n      dup2\n        /* \"TreasuryPool.sol\":5145:5152  allowed */\n      dup2\n        /* \"TreasuryPool.sol\":5145:5166  allowed >= weiAmountA */\n      lt\n      iszero\n        /* \"TreasuryPool.sol\":5137:5191  require(allowed >= weiAmountA, \"Not enough allowance\") */\n      tag_282\n      jumpi\n      mload(0x40)\n      0x08c379a000000000000000000000000000000000000000000000000000000000\n      dup2\n      mstore\n      0x04\n      add\n      tag_283\n      swap1\n      tag_168\n      jump\t// in\n    tag_283:\n      mload(0x40)\n      dup1\n      swap2\n      sub\n      swap1\n      revert\n    tag_282:\n        /* \"TreasuryPool.sol\":5242:5255  bool successA */\n      0x00\n        /* \"TreasuryPool.sol\":5258:5260  tA */\n      dup5\n        /* \"TreasuryPool.sol\":5258:5273  tA.transferFrom */\n      0xffffffffffffffffffffffffffffffffffffffff\n      and\n      0x23b872dd\n        /* \"TreasuryPool.sol\":5274:5284  msg.sender */\n      caller\n        /* \"TreasuryPool.sol\":5294:5298  this */\n      address\n        /* \"TreasuryPool.sol\":5301:5311  weiAmountA */\n      dup7\n        /* \"TreasuryPool.sol\":5258:5312  tA.transferFrom(msg.sender, address(this), weiAmountA) */\n      mload(0x40)\n      dup5\n      0xffffffff\n      and\n      0xe0\n      shl\n      dup2\n      mstore\n      0x04\n      add\n      tag_284\n      swap4\n      swap3\n      swap2\n      swap1\n      tag_170\n      jump\t// in\n    tag_284:\n      0x20\n      mload(0x40)\n      dup1\n      dup4\n      sub\n      dup2\n      0x00\n      dup8\n      gas\n      call\n      iszero\n      dup1\n      iszero\n      tag_286\n      jumpi\n      returndatasize\n      0x00\n      dup1\n      returndatacopy\n      revert(0x00, returndatasize)\n    tag_286:\n      pop\n      pop\n      pop\n      pop\n      mload(0x40)\n      returndatasize\n      not(0x1f)\n      0x1f\n      dup3\n      add\n      and\n      dup3\n      add\n      dup1\n      0x40\n      mstore\n      pop\n      dup2\n      add\n      swap1\n      tag_287\n      swap2\n      swap1\n      tag_124\n      jump\t// in\n    tag_287:\n        /* \"TreasuryPool.sol\":5242:5312  bool successA = tA.transferFrom(msg.sender, address(this), weiAmountA) */\n      swap1\n      pop\n        /* \"TreasuryPool.sol\":5331:5339  successA */\n      dup1\n        /* \"TreasuryPool.sol\":5323:5366  require(successA, \"TokenA transfer failed\") */\n      tag_288\n      jumpi\n      mload(0x40)\n      0x08c379a000000000000000000000000000000000000000000000000000000000\n      dup2\n      mstore\n      0x04\n      add\n      tag_289\n      swap1\n      tag_290\n      jump\t// in\n    tag_289:\n      mload(0x40)\n      dup1\n      swap2\n      sub\n      swap1\n      revert\n    tag_288:\n        /* \"TreasuryPool.sol\":5437:5455  uint256 weiAmountB */\n      0x00\n        /* \"TreasuryPool.sol\":5480:5484  1e18 */\n      0x0de0b6b3a7640000\n        /* \"TreasuryPool.sol\":5472:5476  rate */\n      dup8\n        /* \"TreasuryPool.sol\":5459:5469  weiAmountA */\n      dup6\n        /* \"TreasuryPool.sol\":5459:5476  weiAmountA * rate */\n      tag_291\n      swap2\n      swap1\n      tag_292\n      jump\t// in\n    tag_291:\n        /* \"TreasuryPool.sol\":5458:5484  (weiAmountA * rate) / 1e18 */\n      tag_293\n      swap2\n      swap1\n      tag_154\n      jump\t// in\n    tag_293:\n        /* \"TreasuryPool.sol\":5437:5484  uint256 weiAmountB = (weiAmountA * rate) / 1e18 */\n      swap1\n      pop\n        /* \"TreasuryPool.sol\":5534:5544  weiAmountB */\n      dup1\n        /* \"TreasuryPool.sol\":5503:5505  tB */\n      dup6\n        /* \"TreasuryPool.sol\":5503:5515  tB.balanceOf */\n      0xffffffffffffffffffffffffffffffffffffffff\n      and\n      0x70a08231\n        /* \"TreasuryPool.sol\":5524:5528  this */\n      address\n        /* \"TreasuryPool.sol\":5503:5530  tB.balanceOf(address(this)) */\n      mload(0x40)\n      dup3\n      0xffffffff\n      and\n      0xe0\n      shl\n      dup2\n      mstore\n      0x04\n      add\n      tag_294\n      swap2\n      swap1\n      tag_58\n      jump\t// in\n    tag_294:\n      0x20\n      mload(0x40)\n      dup1\n      dup4\n      sub\n      dup2\n      dup7\n      gas\n      staticcall\n      iszero\n      dup1\n      iszero\n      tag_296\n      jumpi\n      returndatasize\n      0x00\n      dup1\n      returndatacopy\n      revert(0x00, returndatasize)\n    tag_296:\n      pop\n      pop\n      pop\n      pop\n      mload(0x40)\n      returndatasize\n      not(0x1f)\n      0x1f\n      dup3\n      add\n      and\n      dup3\n      add\n      dup1\n      0x40\n      mstore\n      pop\n      dup2\n      add\n      swap1\n      tag_297\n      swap2\n      swap1\n      tag_115\n      jump\t// in\n    tag_297:\n        /* \"TreasuryPool.sol\":5503:5544  tB.balanceOf(address(this)) >= weiAmountB */\n      lt\n      iszero\n        /* \"TreasuryPool.sol\":5495:5574  require(tB.balanceOf(address(this)) >= weiAmountB, \"Not enough tokenB in pool\") */\n      tag_298\n      jumpi\n      mload(0x40)\n      0x08c379a000000000000000000000000000000000000000000000000000000000\n      dup2\n      mstore\n      0x04\n      add\n      tag_299\n      swap1\n      tag_300\n      jump\t// in\n    tag_299:\n      mload(0x40)\n      dup1\n      swap2\n      sub\n      swap1\n      revert\n    tag_298:\n        /* \"TreasuryPool.sol\":5623:5636  bool successB */\n      0x00\n        /* \"TreasuryPool.sol\":5639:5641  tB */\n      dup6\n        /* \"TreasuryPool.sol\":5639:5650  tB.transfer */\n      0xffffffffffffffffffffffffffffffffffffffff\n      and\n      0xa9059cbb\n        /* \"TreasuryPool.sol\":5651:5661  msg.sender */\n      caller\n        /* \"TreasuryPool.sol\":5663:5673  weiAmountB */\n      dup5\n        /* \"TreasuryPool.sol\":5639:5674  tB.transfer(msg.sender, weiAmountB) */\n      mload(0x40)\n      dup4\n      0xffffffff\n      and\n      0xe0\n      shl\n      dup2\n      mstore\n      0x04\n      add\n      tag_301\n      swap3\n      swap2\n      swap1\n      tag_120\n      jump\t// in\n    tag_301:\n      0x20\n      mload(0x40)\n      dup1\n      dup4\n      sub\n      dup2\n      0x00\n      dup8\n      gas\n      call\n      iszero\n      dup1\n      iszero\n      tag_303\n      jumpi\n      returndatasize\n      0x00\n      dup1\n      returndatacopy\n      revert(0x00, returndatasize)\n    tag_303:\n      pop\n      pop\n      pop\n      pop\n      mload(0x40)\n      returndatasize\n      not(0x1f)\n      0x1f\n      dup3\n      add\n      and\n      dup3\n      add\n      dup1\n      0x40\n      mstore\n      pop\n      dup2\n      add\n      swap1\n      tag_304\n      swap2\n      swap1\n      tag_124\n      jump\t// in\n    tag_304:\n        /* \"TreasuryPool.sol\":5623:5674  bool successB = tB.transfer(msg.sender, weiAmountB) */\n      swap1\n      pop\n        /* \"TreasuryPool.sol\":5693:5701  successB */\n      dup1\n        /* \"TreasuryPool.sol\":5685:5728  require(successB, \"TokenB transfer failed\") */\n      tag_305\n      jumpi\n      mload(0x40)\n      0x08c379a000000000000000000000000000000000000000000000000000000000\n      dup2\n      mstore\n      0x04\n      add\n      tag_306\n      swap1\n      tag_307\n      jump\t// in\n    tag_306:\n      mload(0x40)\n      dup1\n      swap2\n      sub\n      swap1\n      revert\n    tag_305:\n        /* \"TreasuryPool.sol\":5770:5780  weiAmountA */\n      dup5\n        /* \"TreasuryPool.sol\":5741:5758  totalTokenBalance */\n      0x03\n        /* \"TreasuryPool.sol\":5741:5766  totalTokenBalance[tokenA] */\n      0x00\n        /* \"TreasuryPool.sol\":5759:5765  tokenA */\n      dup14\n        /* \"TreasuryPool.sol\":5741:5766  totalTokenBalance[tokenA] */\n      0xffffffffffffffffffffffffffffffffffffffff\n      and\n      0xffffffffffffffffffffffffffffffffffffffff\n      and\n      dup2\n      mstore\n      0x20\n      add\n      swap1\n      dup2\n      mstore\n      0x20\n      add\n      0x00\n      keccak256\n      0x00\n        /* \"TreasuryPool.sol\":5741:5780  totalTokenBalance[tokenA] += weiAmountA */\n      dup3\n      dup3\n      sload\n      tag_308\n      swap2\n      swap1\n      tag_178\n      jump\t// in\n    tag_308:\n      swap3\n      pop\n      pop\n      dup2\n      swap1\n      sstore\n      pop\n        /* \"TreasuryPool.sol\":5820:5830  weiAmountB */\n      dup2\n        /* \"TreasuryPool.sol\":5791:5808  totalTokenBalance */\n      0x03\n        /* \"TreasuryPool.sol\":5791:5816  totalTokenBalance[tokenB] */\n      0x00\n        /* \"TreasuryPool.sol\":5809:5815  tokenB */\n      dup13\n        /* \"TreasuryPool.sol\":5791:5816  totalTokenBalance[tokenB] */\n      0xffffffffffffffffffffffffffffffffffffffff\n      and\n      0xffffffffffffffffffffffffffffffffffffffff\n      and\n      dup2\n      mstore\n      0x20\n      add\n      swap1\n      dup2\n      mstore\n      0x20\n      add\n      0x00\n      keccak256\n      0x00\n        /* \"TreasuryPool.sol\":5791:5830  totalTokenBalance[tokenB] -= weiAmountB */\n      dup3\n      dup3\n      sload\n      tag_309\n      swap2\n      swap1\n      tag_310\n      jump\t// in\n    tag_309:\n      swap3\n      pop\n      pop\n      dup2\n      swap1\n      sstore\n      pop\n        /* \"TreasuryPool.sol\":5856:5866  msg.sender */\n      caller\n        /* \"TreasuryPool.sol\":5848:5907  Swapped(msg.sender, tokenA, tokenB, weiAmountA, weiAmountB) */\n      0xffffffffffffffffffffffffffffffffffffffff\n      and\n      0x6782190c91d4a7e8ad2a867deed6ec0a970cab8ff137ae2bd4abd92b3810f4d3\n        /* \"TreasuryPool.sol\":5868:5874  tokenA */\n      dup13\n        /* \"TreasuryPool.sol\":5876:5882  tokenB */\n      dup13\n        /* \"TreasuryPool.sol\":5884:5894  weiAmountA */\n      dup9\n        /* \"TreasuryPool.sol\":5896:5906  weiAmountB */\n      dup7\n        /* \"TreasuryPool.sol\":5848:5907  Swapped(msg.sender, tokenA, tokenB, weiAmountA, weiAmountB) */\n      mload(0x40)\n      tag_311\n      swap5\n      swap4\n      swap3\n      swap2\n      swap1\n      tag_312\n      jump\t// in\n    tag_311:\n      mload(0x40)\n      dup1\n      swap2\n      sub\n      swap1\n      log2\n        /* \"TreasuryPool.sol\":4766:5915  {... */\n      pop\n      pop\n      pop\n      pop\n      pop\n      pop\n      pop\n        /* \"TreasuryPool.sol\":4672:5915  function swap(address tokenA, address tokenB, uint256 amountA, uint256 rate) external payable {... */\n      pop\n      pop\n      pop\n      pop\n      jump\t// out\n        /* \"TreasuryPool.sol\":1236:1439  function _toWei(address _token, uint256 _amount) internal view returns (uint256) {... */\n    tag_160:\n        /* \"TreasuryPool.sol\":1308:1315  uint256 */\n      0x00\n        /* \"TreasuryPool.sol\":1328:1342  uint8 decimals */\n      dup1\n        /* \"TreasuryPool.sol\":1360:1366  _token */\n      dup4\n        /* \"TreasuryPool.sol\":1345:1376  IERC20Metadata(_token).decimals */\n      0xffffffffffffffffffffffffffffffffffffffff\n      and\n      0x313ce567\n        /* \"TreasuryPool.sol\":1345:1378  IERC20Metadata(_token).decimals() */\n      mload(0x40)\n      dup2\n      0xffffffff\n      and\n      0xe0\n      shl\n      dup2\n      mstore\n      0x04\n      add\n      0x20\n      mload(0x40)\n      dup1\n      dup4\n      sub\n      dup2\n      dup7\n      gas\n      staticcall\n      iszero\n      dup1\n      iszero\n      tag_315\n      jumpi\n      returndatasize\n      0x00\n      dup1\n      returndatacopy\n      revert(0x00, returndatasize)\n    tag_315:\n      pop\n      pop\n      pop\n      pop\n      mload(0x40)\n      returndatasize\n      not(0x1f)\n      0x1f\n      dup3\n      add\n      and\n      dup3\n      add\n      dup1\n      0x40\n      mstore\n      pop\n      dup2\n      add\n      swap1\n      tag_316\n      swap2\n      swap1\n      tag_150\n      jump\t// in\n    tag_316:\n        /* \"TreasuryPool.sol\":1328:1378  uint8 decimals = IERC20Metadata(_token).decimals() */\n      swap1\n      pop\n        /* \"TreasuryPool.sol\":1421:1429  decimals */\n      dup1\n        /* \"TreasuryPool.sol\":1413:1430  uint256(decimals) */\n      0xff\n      and\n        /* \"TreasuryPool.sol\":1407:1409  10 */\n      0x0a\n        /* \"TreasuryPool.sol\":1407:1430  10 ** uint256(decimals) */\n      tag_317\n      swap2\n      swap1\n      tag_318\n      jump\t// in\n    tag_317:\n        /* \"TreasuryPool.sol\":1396:1403  _amount */\n      dup4\n        /* \"TreasuryPool.sol\":1396:1431  _amount * (10 ** uint256(decimals)) */\n      tag_319\n      swap2\n      swap1\n      tag_292\n      jump\t// in\n    tag_319:\n        /* \"TreasuryPool.sol\":1389:1431  return _amount * (10 ** uint256(decimals)) */\n      swap2\n      pop\n      pop\n        /* \"TreasuryPool.sol\":1236:1439  function _toWei(address _token, uint256 _amount) internal view returns (uint256) {... */\n      swap3\n      swap2\n      pop\n      pop\n      jump\t// out\n        /* \"#utility.yul\":88:205   */\n    tag_321:\n        /* \"#utility.yul\":197:198   */\n      0x00\n        /* \"#utility.yul\":194:195   */\n      dup1\n        /* \"#utility.yul\":187:199   */\n      revert\n        /* \"#utility.yul\":211:328   */\n    tag_322:\n        /* \"#utility.yul\":320:321   */\n      0x00\n        /* \"#utility.yul\":317:318   */\n      dup1\n        /* \"#utility.yul\":310:322   */\n      revert\n        /* \"#utility.yul\":334:460   */\n    tag_323:\n        /* \"#utility.yul\":371:378   */\n      0x00\n        /* \"#utility.yul\":411:453   */\n      0xffffffffffffffffffffffffffffffffffffffff\n        /* \"#utility.yul\":404:409   */\n      dup3\n        /* \"#utility.yul\":400:454   */\n      and\n        /* \"#utility.yul\":389:454   */\n      swap1\n      pop\n        /* \"#utility.yul\":334:460   */\n      swap2\n      swap1\n      pop\n      jump\t// out\n        /* \"#utility.yul\":466:562   */\n    tag_324:\n        /* \"#utility.yul\":503:510   */\n      0x00\n        /* \"#utility.yul\":532:556   */\n      tag_410\n        /* \"#utility.yul\":550:555   */\n      dup3\n        /* \"#utility.yul\":532:556   */\n      tag_323\n      jump\t// in\n    tag_410:\n        /* \"#utility.yul\":521:556   */\n      swap1\n      pop\n        /* \"#utility.yul\":466:562   */\n      swap2\n      swap1\n      pop\n      jump\t// out\n        /* \"#utility.yul\":568:690   */\n    tag_325:\n        /* \"#utility.yul\":641:665   */\n      tag_412\n        /* \"#utility.yul\":659:664   */\n      dup2\n        /* \"#utility.yul\":641:665   */\n      tag_324\n      jump\t// in\n    tag_412:\n        /* \"#utility.yul\":634:639   */\n      dup2\n        /* \"#utility.yul\":631:666   */\n      eq\n        /* \"#utility.yul\":621:684   */\n      tag_413\n      jumpi\n        /* \"#utility.yul\":680:681   */\n      0x00\n        /* \"#utility.yul\":677:678   */\n      dup1\n        /* \"#utility.yul\":670:682   */\n      revert\n        /* \"#utility.yul\":621:684   */\n    tag_413:\n        /* \"#utility.yul\":568:690   */\n      pop\n      jump\t// out\n        /* \"#utility.yul\":696:835   */\n    tag_326:\n        /* \"#utility.yul\":742:747   */\n      0x00\n        /* \"#utility.yul\":780:786   */\n      dup2\n        /* \"#utility.yul\":767:787   */\n      calldataload\n        /* \"#utility.yul\":758:787   */\n      swap1\n      pop\n        /* \"#utility.yul\":796:829   */\n      tag_415\n        /* \"#utility.yul\":823:828   */\n      dup2\n        /* \"#utility.yul\":796:829   */\n      tag_325\n      jump\t// in\n    tag_415:\n        /* \"#utility.yul\":696:835   */\n      swap3\n      swap2\n      pop\n      pop\n      jump\t// out\n        /* \"#utility.yul\":841:1170   */\n    tag_33:\n        /* \"#utility.yul\":900:906   */\n      0x00\n        /* \"#utility.yul\":949:951   */\n      0x20\n        /* \"#utility.yul\":937:946   */\n      dup3\n        /* \"#utility.yul\":928:935   */\n      dup5\n        /* \"#utility.yul\":924:947   */\n      sub\n        /* \"#utility.yul\":920:952   */\n      slt\n        /* \"#utility.yul\":917:1036   */\n      iszero\n      tag_417\n      jumpi\n        /* \"#utility.yul\":955:1034   */\n      tag_418\n      tag_321\n      jump\t// in\n    tag_418:\n        /* \"#utility.yul\":917:1036   */\n    tag_417:\n        /* \"#utility.yul\":1075:1076   */\n      0x00\n        /* \"#utility.yul\":1100:1153   */\n      tag_419\n        /* \"#utility.yul\":1145:1152   */\n      dup5\n        /* \"#utility.yul\":1136:1142   */\n      dup3\n        /* \"#utility.yul\":1125:1134   */\n      dup6\n        /* \"#utility.yul\":1121:1143   */\n      add\n        /* \"#utility.yul\":1100:1153   */\n      tag_326\n      jump\t// in\n    tag_419:\n        /* \"#utility.yul\":1090:1153   */\n      swap2\n      pop\n        /* \"#utility.yul\":1046:1163   */\n      pop\n        /* \"#utility.yul\":841:1170   */\n      swap3\n      swap2\n      pop\n      pop\n      jump\t// out\n        /* \"#utility.yul\":1176:1290   */\n    tag_327:\n        /* \"#utility.yul\":1243:1249   */\n      0x00\n        /* \"#utility.yul\":1277:1282   */\n      dup2\n        /* \"#utility.yul\":1271:1283   */\n      mload\n        /* \"#utility.yul\":1261:1283   */\n      swap1\n      pop\n        /* \"#utility.yul\":1176:1290   */\n      swap2\n      swap1\n      pop\n      jump\t// out\n        /* \"#utility.yul\":1296:1480   */\n    tag_328:\n        /* \"#utility.yul\":1395:1406   */\n      0x00\n        /* \"#utility.yul\":1429:1435   */\n      dup3\n        /* \"#utility.yul\":1424:1427   */\n      dup3\n        /* \"#utility.yul\":1417:1436   */\n      mstore\n        /* \"#utility.yul\":1469:1473   */\n      0x20\n        /* \"#utility.yul\":1464:1467   */\n      dup3\n        /* \"#utility.yul\":1460:1474   */\n      add\n        /* \"#utility.yul\":1445:1474   */\n      swap1\n      pop\n        /* \"#utility.yul\":1296:1480   */\n      swap3\n      swap2\n      pop\n      pop\n      jump\t// out\n        /* \"#utility.yul\":1486:1618   */\n    tag_329:\n        /* \"#utility.yul\":1553:1557   */\n      0x00\n        /* \"#utility.yul\":1576:1579   */\n      dup2\n        /* \"#utility.yul\":1568:1579   */\n      swap1\n      pop\n        /* \"#utility.yul\":1606:1610   */\n      0x20\n        /* \"#utility.yul\":1601:1604   */\n      dup3\n        /* \"#utility.yul\":1597:1611   */\n      add\n        /* \"#utility.yul\":1589:1611   */\n      swap1\n      pop\n        /* \"#utility.yul\":1486:1618   */\n      swap2\n      swap1\n      pop\n      jump\t// out\n        /* \"#utility.yul\":1624:1732   */\n    tag_330:\n        /* \"#utility.yul\":1701:1725   */\n      tag_424\n        /* \"#utility.yul\":1719:1724   */\n      dup2\n        /* \"#utility.yul\":1701:1725   */\n      tag_324\n      jump\t// in\n    tag_424:\n        /* \"#utility.yul\":1696:1699   */\n      dup3\n        /* \"#utility.yul\":1689:1726   */\n      mstore\n        /* \"#utility.yul\":1624:1732   */\n      pop\n      pop\n      jump\t// out\n        /* \"#utility.yul\":1738:1917   */\n    tag_331:\n        /* \"#utility.yul\":1807:1817   */\n      0x00\n        /* \"#utility.yul\":1828:1874   */\n      tag_426\n        /* \"#utility.yul\":1870:1873   */\n      dup4\n        /* \"#utility.yul\":1862:1868   */\n      dup4\n        /* \"#utility.yul\":1828:1874   */\n      tag_330\n      jump\t// in\n    tag_426:\n        /* \"#utility.yul\":1906:1910   */\n      0x20\n        /* \"#utility.yul\":1901:1904   */\n      dup4\n        /* \"#utility.yul\":1897:1911   */\n      add\n        /* \"#utility.yul\":1883:1911   */\n      swap1\n      pop\n        /* \"#utility.yul\":1738:1917   */\n      swap3\n      swap2\n      pop\n      pop\n      jump\t// out\n        /* \"#utility.yul\":1923:2036   */\n    tag_332:\n        /* \"#utility.yul\":1993:1997   */\n      0x00\n        /* \"#utility.yul\":2025:2029   */\n      0x20\n        /* \"#utility.yul\":2020:2023   */\n      dup3\n        /* \"#utility.yul\":2016:2030   */\n      add\n        /* \"#utility.yul\":2008:2030   */\n      swap1\n      pop\n        /* \"#utility.yul\":1923:2036   */\n      swap2\n      swap1\n      pop\n      jump\t// out\n        /* \"#utility.yul\":2072:2804   */\n    tag_333:\n        /* \"#utility.yul\":2191:2194   */\n      0x00\n        /* \"#utility.yul\":2220:2274   */\n      tag_429\n        /* \"#utility.yul\":2268:2273   */\n      dup3\n        /* \"#utility.yul\":2220:2274   */\n      tag_327\n      jump\t// in\n    tag_429:\n        /* \"#utility.yul\":2290:2376   */\n      tag_430\n        /* \"#utility.yul\":2369:2375   */\n      dup2\n        /* \"#utility.yul\":2364:2367   */\n      dup6\n        /* \"#utility.yul\":2290:2376   */\n      tag_328\n      jump\t// in\n    tag_430:\n        /* \"#utility.yul\":2283:2376   */\n      swap4\n      pop\n        /* \"#utility.yul\":2400:2456   */\n      tag_431\n        /* \"#utility.yul\":2450:2455   */\n      dup4\n        /* \"#utility.yul\":2400:2456   */\n      tag_329\n      jump\t// in\n    tag_431:\n        /* \"#utility.yul\":2479:2486   */\n      dup1\n        /* \"#utility.yul\":2510:2511   */\n      0x00\n        /* \"#utility.yul\":2495:2779   */\n    tag_432:\n        /* \"#utility.yul\":2520:2526   */\n      dup4\n        /* \"#utility.yul\":2517:2518   */\n      dup2\n        /* \"#utility.yul\":2514:2527   */\n      lt\n        /* \"#utility.yul\":2495:2779   */\n      iszero\n      tag_434\n      jumpi\n        /* \"#utility.yul\":2596:2602   */\n      dup2\n        /* \"#utility.yul\":2590:2603   */\n      mload\n        /* \"#utility.yul\":2623:2686   */\n      tag_435\n        /* \"#utility.yul\":2682:2685   */\n      dup9\n        /* \"#utility.yul\":2667:2680   */\n      dup3\n        /* \"#utility.yul\":2623:2686   */\n      tag_331\n      jump\t// in\n    tag_435:\n        /* \"#utility.yul\":2616:2686   */\n      swap8\n      pop\n        /* \"#utility.yul\":2709:2769   */\n      tag_436\n        /* \"#utility.yul\":2762:2768   */\n      dup4\n        /* \"#utility.yul\":2709:2769   */\n      tag_332\n      jump\t// in\n    tag_436:\n        /* \"#utility.yul\":2699:2769   */\n      swap3\n      pop\n        /* \"#utility.yul\":2555:2779   */\n      pop\n        /* \"#utility.yul\":2542:2543   */\n      0x01\n        /* \"#utility.yul\":2539:2540   */\n      dup2\n        /* \"#utility.yul\":2535:2544   */\n      add\n        /* \"#utility.yul\":2530:2544   */\n      swap1\n      pop\n        /* \"#utility.yul\":2495:2779   */\n      jump(tag_432)\n    tag_434:\n        /* \"#utility.yul\":2499:2513   */\n      pop\n        /* \"#utility.yul\":2795:2798   */\n      dup6\n        /* \"#utility.yul\":2788:2798   */\n      swap4\n      pop\n        /* \"#utility.yul\":2196:2804   */\n      pop\n      pop\n      pop\n        /* \"#utility.yul\":2072:2804   */\n      swap3\n      swap2\n      pop\n      pop\n      jump\t// out\n        /* \"#utility.yul\":2810:2924   */\n    tag_334:\n        /* \"#utility.yul\":2877:2883   */\n      0x00\n        /* \"#utility.yul\":2911:2916   */\n      dup2\n        /* \"#utility.yul\":2905:2917   */\n      mload\n        /* \"#utility.yul\":2895:2917   */\n      swap1\n      pop\n        /* \"#utility.yul\":2810:2924   */\n      swap2\n      swap1\n      pop\n      jump\t// out\n        /* \"#utility.yul\":2930:3114   */\n    tag_335:\n        /* \"#utility.yul\":3029:3040   */\n      0x00\n        /* \"#utility.yul\":3063:3069   */\n      dup3\n        /* \"#utility.yul\":3058:3061   */\n      dup3\n        /* \"#utility.yul\":3051:3070   */\n      mstore\n        /* \"#utility.yul\":3103:3107   */\n      0x20\n        /* \"#utility.yul\":3098:3101   */\n      dup3\n        /* \"#utility.yul\":3094:3108   */\n      add\n        /* \"#utility.yul\":3079:3108   */\n      swap1\n      pop\n        /* \"#utility.yul\":2930:3114   */\n      swap3\n      swap2\n      pop\n      pop\n      jump\t// out\n        /* \"#utility.yul\":3120:3252   */\n    tag_336:\n        /* \"#utility.yul\":3187:3191   */\n      0x00\n        /* \"#utility.yul\":3210:3213   */\n      dup2\n        /* \"#utility.yul\":3202:3213   */\n      swap1\n      pop\n        /* \"#utility.yul\":3240:3244   */\n      0x20\n        /* \"#utility.yul\":3235:3238   */\n      dup3\n        /* \"#utility.yul\":3231:3245   */\n      add\n        /* \"#utility.yul\":3223:3245   */\n      swap1\n      pop\n        /* \"#utility.yul\":3120:3252   */\n      swap2\n      swap1\n      pop\n      jump\t// out\n        /* \"#utility.yul\":3258:3335   */\n    tag_337:\n        /* \"#utility.yul\":3295:3302   */\n      0x00\n        /* \"#utility.yul\":3324:3329   */\n      dup2\n        /* \"#utility.yul\":3313:3329   */\n      swap1\n      pop\n        /* \"#utility.yul\":3258:3335   */\n      swap2\n      swap1\n      pop\n      jump\t// out\n        /* \"#utility.yul\":3341:3449   */\n    tag_338:\n        /* \"#utility.yul\":3418:3442   */\n      tag_442\n        /* \"#utility.yul\":3436:3441   */\n      dup2\n        /* \"#utility.yul\":3418:3442   */\n      tag_337\n      jump\t// in\n    tag_442:\n        /* \"#utility.yul\":3413:3416   */\n      dup3\n        /* \"#utility.yul\":3406:3443   */\n      mstore\n        /* \"#utility.yul\":3341:3449   */\n      pop\n      pop\n      jump\t// out\n        /* \"#utility.yul\":3455:3634   */\n    tag_339:\n        /* \"#utility.yul\":3524:3534   */\n      0x00\n        /* \"#utility.yul\":3545:3591   */\n      tag_444\n        /* \"#utility.yul\":3587:3590   */\n      dup4\n        /* \"#utility.yul\":3579:3585   */\n      dup4\n        /* \"#utility.yul\":3545:3591   */\n      tag_338\n      jump\t// in\n    tag_444:\n        /* \"#utility.yul\":3623:3627   */\n      0x20\n        /* \"#utility.yul\":3618:3621   */\n      dup4\n        /* \"#utility.yul\":3614:3628   */\n      add\n        /* \"#utility.yul\":3600:3628   */\n      swap1\n      pop\n        /* \"#utility.yul\":3455:3634   */\n      swap3\n      swap2\n      pop\n      pop\n      jump\t// out\n        /* \"#utility.yul\":3640:3753   */\n    tag_340:\n        /* \"#utility.yul\":3710:3714   */\n      0x00\n        /* \"#utility.yul\":3742:3746   */\n      0x20\n        /* \"#utility.yul\":3737:3740   */\n      dup3\n        /* \"#utility.yul\":3733:3747   */\n      add\n        /* \"#utility.yul\":3725:3747   */\n      swap1\n      pop\n        /* \"#utility.yul\":3640:3753   */\n      swap2\n      swap1\n      pop\n      jump\t// out\n        /* \"#utility.yul\":3789:4521   */\n    tag_341:\n        /* \"#utility.yul\":3908:3911   */\n      0x00\n        /* \"#utility.yul\":3937:3991   */\n      tag_447\n        /* \"#utility.yul\":3985:3990   */\n      dup3\n        /* \"#utility.yul\":3937:3991   */\n      tag_334\n      jump\t// in\n    tag_447:\n        /* \"#utility.yul\":4007:4093   */\n      tag_448\n        /* \"#utility.yul\":4086:4092   */\n      dup2\n        /* \"#utility.yul\":4081:4084   */\n      dup6\n        /* \"#utility.yul\":4007:4093   */\n      tag_335\n      jump\t// in\n    tag_448:\n        /* \"#utility.yul\":4000:4093   */\n      swap4\n      pop\n        /* \"#utility.yul\":4117:4173   */\n      tag_449\n        /* \"#utility.yul\":4167:4172   */\n      dup4\n        /* \"#utility.yul\":4117:4173   */\n      tag_336\n      jump\t// in\n    tag_449:\n        /* \"#utility.yul\":4196:4203   */\n      dup1\n        /* \"#utility.yul\":4227:4228   */\n      0x00\n        /* \"#utility.yul\":4212:4496   */\n    tag_450:\n        /* \"#utility.yul\":4237:4243   */\n      dup4\n        /* \"#utility.yul\":4234:4235   */\n      dup2\n        /* \"#utility.yul\":4231:4244   */\n      lt\n        /* \"#utility.yul\":4212:4496   */\n      iszero\n      tag_452\n      jumpi\n        /* \"#utility.yul\":4313:4319   */\n      dup2\n        /* \"#utility.yul\":4307:4320   */\n      mload\n        /* \"#utility.yul\":4340:4403   */\n      tag_453\n        /* \"#utility.yul\":4399:4402   */\n      dup9\n        /* \"#utility.yul\":4384:4397   */\n      dup3\n        /* \"#utility.yul\":4340:4403   */\n      tag_339\n      jump\t// in\n    tag_453:\n        /* \"#utility.yul\":4333:4403   */\n      swap8\n      pop\n        /* \"#utility.yul\":4426:4486   */\n      tag_454\n        /* \"#utility.yul\":4479:4485   */\n      dup4\n        /* \"#utility.yul\":4426:4486   */\n      tag_340\n      jump\t// in\n    tag_454:\n        /* \"#utility.yul\":4416:4486   */\n      swap3\n      pop\n        /* \"#utility.yul\":4272:4496   */\n      pop\n        /* \"#utility.yul\":4259:4260   */\n      0x01\n        /* \"#utility.yul\":4256:4257   */\n      dup2\n        /* \"#utility.yul\":4252:4261   */\n      add\n        /* \"#utility.yul\":4247:4261   */\n      swap1\n      pop\n        /* \"#utility.yul\":4212:4496   */\n      jump(tag_450)\n    tag_452:\n        /* \"#utility.yul\":4216:4230   */\n      pop\n        /* \"#utility.yul\":4512:4515   */\n      dup6\n        /* \"#utility.yul\":4505:4515   */\n      swap4\n      pop\n        /* \"#utility.yul\":3913:4521   */\n      pop\n      pop\n      pop\n        /* \"#utility.yul\":3789:4521   */\n      swap3\n      swap2\n      pop\n      pop\n      jump\t// out\n        /* \"#utility.yul\":4527:5161   */\n    tag_36:\n        /* \"#utility.yul\":4748:4752   */\n      0x00\n        /* \"#utility.yul\":4786:4788   */\n      0x40\n        /* \"#utility.yul\":4775:4784   */\n      dup3\n        /* \"#utility.yul\":4771:4789   */\n      add\n        /* \"#utility.yul\":4763:4789   */\n      swap1\n      pop\n        /* \"#utility.yul\":4835:4844   */\n      dup2\n        /* \"#utility.yul\":4829:4833   */\n      dup2\n        /* \"#utility.yul\":4825:4845   */\n      sub\n        /* \"#utility.yul\":4821:4822   */\n      0x00\n        /* \"#utility.yul\":4810:4819   */\n      dup4\n        /* \"#utility.yul\":4806:4823   */\n      add\n        /* \"#utility.yul\":4799:4846   */\n      mstore\n        /* \"#utility.yul\":4863:4971   */\n      tag_456\n        /* \"#utility.yul\":4966:4970   */\n      dup2\n        /* \"#utility.yul\":4957:4963   */\n      dup6\n        /* \"#utility.yul\":4863:4971   */\n      tag_333\n      jump\t// in\n    tag_456:\n        /* \"#utility.yul\":4855:4971   */\n      swap1\n      pop\n        /* \"#utility.yul\":5018:5027   */\n      dup2\n        /* \"#utility.yul\":5012:5016   */\n      dup2\n        /* \"#utility.yul\":5008:5028   */\n      sub\n        /* \"#utility.yul\":5003:5005   */\n      0x20\n        /* \"#utility.yul\":4992:5001   */\n      dup4\n        /* \"#utility.yul\":4988:5006   */\n      add\n        /* \"#utility.yul\":4981:5029   */\n      mstore\n        /* \"#utility.yul\":5046:5154   */\n      tag_457\n        /* \"#utility.yul\":5149:5153   */\n      dup2\n        /* \"#utility.yul\":5140:5146   */\n      dup5\n        /* \"#utility.yul\":5046:5154   */\n      tag_341\n      jump\t// in\n    tag_457:\n        /* \"#utility.yul\":5038:5154   */\n      swap1\n      pop\n        /* \"#utility.yul\":4527:5161   */\n      swap4\n      swap3\n      pop\n      pop\n      pop\n      jump\t// out\n        /* \"#utility.yul\":5167:5285   */\n    tag_342:\n        /* \"#utility.yul\":5254:5278   */\n      tag_459\n        /* \"#utility.yul\":5272:5277   */\n      dup2\n        /* \"#utility.yul\":5254:5278   */\n      tag_337\n      jump\t// in\n    tag_459:\n        /* \"#utility.yul\":5249:5252   */\n      dup3\n        /* \"#utility.yul\":5242:5279   */\n      mstore\n        /* \"#utility.yul\":5167:5285   */\n      pop\n      pop\n      jump\t// out\n        /* \"#utility.yul\":5291:5513   */\n    tag_42:\n        /* \"#utility.yul\":5384:5388   */\n      0x00\n        /* \"#utility.yul\":5422:5424   */\n      0x20\n        /* \"#utility.yul\":5411:5420   */\n      dup3\n        /* \"#utility.yul\":5407:5425   */\n      add\n        /* \"#utility.yul\":5399:5425   */\n      swap1\n      pop\n        /* \"#utility.yul\":5435:5506   */\n      tag_461\n        /* \"#utility.yul\":5503:5504   */\n      0x00\n        /* \"#utility.yul\":5492:5501   */\n      dup4\n        /* \"#utility.yul\":5488:5505   */\n      add\n        /* \"#utility.yul\":5479:5485   */\n      dup5\n        /* \"#utility.yul\":5435:5506   */\n      tag_342\n      jump\t// in\n    tag_461:\n        /* \"#utility.yul\":5291:5513   */\n      swap3\n      swap2\n      pop\n      pop\n      jump\t// out\n        /* \"#utility.yul\":5519:5641   */\n    tag_343:\n        /* \"#utility.yul\":5592:5616   */\n      tag_463\n        /* \"#utility.yul\":5610:5615   */\n      dup2\n        /* \"#utility.yul\":5592:5616   */\n      tag_337\n      jump\t// in\n    tag_463:\n        /* \"#utility.yul\":5585:5590   */\n      dup2\n        /* \"#utility.yul\":5582:5617   */\n      eq\n        /* \"#utility.yul\":5572:5635   */\n      tag_464\n      jumpi\n        /* \"#utility.yul\":5631:5632   */\n      0x00\n        /* \"#utility.yul\":5628:5629   */\n      dup1\n        /* \"#utility.yul\":5621:5633   */\n      revert\n        /* \"#utility.yul\":5572:5635   */\n    tag_464:\n        /* \"#utility.yul\":5519:5641   */\n      pop\n      jump\t// out\n        /* \"#utility.yul\":5647:5786   */\n    tag_344:\n        /* \"#utility.yul\":5693:5698   */\n      0x00\n        /* \"#utility.yul\":5731:5737   */\n      dup2\n        /* \"#utility.yul\":5718:5738   */\n      calldataload\n        /* \"#utility.yul\":5709:5738   */\n      swap1\n      pop\n        /* \"#utility.yul\":5747:5780   */\n      tag_466\n        /* \"#utility.yul\":5774:5779   */\n      dup2\n        /* \"#utility.yul\":5747:5780   */\n      tag_343\n      jump\t// in\n    tag_466:\n        /* \"#utility.yul\":5647:5786   */\n      swap3\n      swap2\n      pop\n      pop\n      jump\t// out\n        /* \"#utility.yul\":5792:6266   */\n    tag_46:\n        /* \"#utility.yul\":5860:5866   */\n      0x00\n        /* \"#utility.yul\":5868:5874   */\n      dup1\n        /* \"#utility.yul\":5917:5919   */\n      0x40\n        /* \"#utility.yul\":5905:5914   */\n      dup4\n        /* \"#utility.yul\":5896:5903   */\n      dup6\n        /* \"#utility.yul\":5892:5915   */\n      sub\n        /* \"#utility.yul\":5888:5920   */\n      slt\n        /* \"#utility.yul\":5885:6004   */\n      iszero\n      tag_468\n      jumpi\n        /* \"#utility.yul\":5923:6002   */\n      tag_469\n      tag_321\n      jump\t// in\n    tag_469:\n        /* \"#utility.yul\":5885:6004   */\n    tag_468:\n        /* \"#utility.yul\":6043:6044   */\n      0x00\n        /* \"#utility.yul\":6068:6121   */\n      tag_470\n        /* \"#utility.yul\":6113:6120   */\n      dup6\n        /* \"#utility.yul\":6104:6110   */\n      dup3\n        /* \"#utility.yul\":6093:6102   */\n      dup7\n        /* \"#utility.yul\":6089:6111   */\n      add\n        /* \"#utility.yul\":6068:6121   */\n      tag_326\n      jump\t// in\n    tag_470:\n        /* \"#utility.yul\":6058:6121   */\n      swap3\n      pop\n        /* \"#utility.yul\":6014:6131   */\n      pop\n        /* \"#utility.yul\":6170:6172   */\n      0x20\n        /* \"#utility.yul\":6196:6249   */\n      tag_471\n        /* \"#utility.yul\":6241:6248   */\n      dup6\n        /* \"#utility.yul\":6232:6238   */\n      dup3\n        /* \"#utility.yul\":6221:6230   */\n      dup7\n        /* \"#utility.yul\":6217:6239   */\n      add\n        /* \"#utility.yul\":6196:6249   */\n      tag_344\n      jump\t// in\n    tag_471:\n        /* \"#utility.yul\":6186:6249   */\n      swap2\n      pop\n        /* \"#utility.yul\":6141:6259   */\n      pop\n        /* \"#utility.yul\":5792:6266   */\n      swap3\n      pop\n      swap3\n      swap1\n      pop\n      jump\t// out\n        /* \"#utility.yul\":6272:6601   */\n    tag_55:\n        /* \"#utility.yul\":6331:6337   */\n      0x00\n        /* \"#utility.yul\":6380:6382   */\n      0x20\n        /* \"#utility.yul\":6368:6377   */\n      dup3\n        /* \"#utility.yul\":6359:6366   */\n      dup5\n        /* \"#utility.yul\":6355:6378   */\n      sub\n        /* \"#utility.yul\":6351:6383   */\n      slt\n        /* \"#utility.yul\":6348:6467   */\n      iszero\n      tag_473\n      jumpi\n        /* \"#utility.yul\":6386:6465   */\n      tag_474\n      tag_321\n      jump\t// in\n    tag_474:\n        /* \"#utility.yul\":6348:6467   */\n    tag_473:\n        /* \"#utility.yul\":6506:6507   */\n      0x00\n        /* \"#utility.yul\":6531:6584   */\n      tag_475\n        /* \"#utility.yul\":6576:6583   */\n      dup5\n        /* \"#utility.yul\":6567:6573   */\n      dup3\n        /* \"#utility.yul\":6556:6565   */\n      dup6\n        /* \"#utility.yul\":6552:6574   */\n      add\n        /* \"#utility.yul\":6531:6584   */\n      tag_344\n      jump\t// in\n    tag_475:\n        /* \"#utility.yul\":6521:6584   */\n      swap2\n      pop\n        /* \"#utility.yul\":6477:6594   */\n      pop\n        /* \"#utility.yul\":6272:6601   */\n      swap3\n      swap2\n      pop\n      pop\n      jump\t// out\n        /* \"#utility.yul\":6607:6725   */\n    tag_345:\n        /* \"#utility.yul\":6694:6718   */\n      tag_477\n        /* \"#utility.yul\":6712:6717   */\n      dup2\n        /* \"#utility.yul\":6694:6718   */\n      tag_324\n      jump\t// in\n    tag_477:\n        /* \"#utility.yul\":6689:6692   */\n      dup3\n        /* \"#utility.yul\":6682:6719   */\n      mstore\n        /* \"#utility.yul\":6607:6725   */\n      pop\n      pop\n      jump\t// out\n        /* \"#utility.yul\":6731:6953   */\n    tag_58:\n        /* \"#utility.yul\":6824:6828   */\n      0x00\n        /* \"#utility.yul\":6862:6864   */\n      0x20\n        /* \"#utility.yul\":6851:6860   */\n      dup3\n        /* \"#utility.yul\":6847:6865   */\n      add\n        /* \"#utility.yul\":6839:6865   */\n      swap1\n      pop\n        /* \"#utility.yul\":6875:6946   */\n      tag_479\n        /* \"#utility.yul\":6943:6944   */\n      0x00\n        /* \"#utility.yul\":6932:6941   */\n      dup4\n        /* \"#utility.yul\":6928:6945   */\n      add\n        /* \"#utility.yul\":6919:6925   */\n      dup5\n        /* \"#utility.yul\":6875:6946   */\n      tag_345\n      jump\t// in\n    tag_479:\n        /* \"#utility.yul\":6731:6953   */\n      swap3\n      swap2\n      pop\n      pop\n      jump\t// out\n        /* \"#utility.yul\":6959:7076   */\n    tag_346:\n        /* \"#utility.yul\":7068:7069   */\n      0x00\n        /* \"#utility.yul\":7065:7066   */\n      dup1\n        /* \"#utility.yul\":7058:7070   */\n      revert\n        /* \"#utility.yul\":7082:7199   */\n    tag_347:\n        /* \"#utility.yul\":7191:7192   */\n      0x00\n        /* \"#utility.yul\":7188:7189   */\n      dup1\n        /* \"#utility.yul\":7181:7193   */\n      revert\n        /* \"#utility.yul\":7205:7322   */\n    tag_348:\n        /* \"#utility.yul\":7314:7315   */\n      0x00\n        /* \"#utility.yul\":7311:7312   */\n      dup1\n        /* \"#utility.yul\":7304:7316   */\n      revert\n        /* \"#utility.yul\":7342:7895   */\n    tag_349:\n        /* \"#utility.yul\":7400:7408   */\n      0x00\n        /* \"#utility.yul\":7410:7416   */\n      dup1\n        /* \"#utility.yul\":7460:7463   */\n      dup4\n        /* \"#utility.yul\":7453:7457   */\n      0x1f\n        /* \"#utility.yul\":7445:7451   */\n      dup5\n        /* \"#utility.yul\":7441:7458   */\n      add\n        /* \"#utility.yul\":7437:7464   */\n      slt\n        /* \"#utility.yul\":7427:7549   */\n      tag_484\n      jumpi\n        /* \"#utility.yul\":7468:7547   */\n      tag_485\n      tag_346\n      jump\t// in\n    tag_485:\n        /* \"#utility.yul\":7427:7549   */\n    tag_484:\n        /* \"#utility.yul\":7581:7587   */\n      dup3\n        /* \"#utility.yul\":7568:7588   */\n      calldataload\n        /* \"#utility.yul\":7558:7588   */\n      swap1\n      pop\n        /* \"#utility.yul\":7611:7629   */\n      0xffffffffffffffff\n        /* \"#utility.yul\":7603:7609   */\n      dup2\n        /* \"#utility.yul\":7600:7630   */\n      gt\n        /* \"#utility.yul\":7597:7714   */\n      iszero\n      tag_486\n      jumpi\n        /* \"#utility.yul\":7633:7712   */\n      tag_487\n      tag_347\n      jump\t// in\n    tag_487:\n        /* \"#utility.yul\":7597:7714   */\n    tag_486:\n        /* \"#utility.yul\":7747:7751   */\n      0x20\n        /* \"#utility.yul\":7739:7745   */\n      dup4\n        /* \"#utility.yul\":7735:7752   */\n      add\n        /* \"#utility.yul\":7723:7752   */\n      swap2\n      pop\n        /* \"#utility.yul\":7801:7804   */\n      dup4\n        /* \"#utility.yul\":7793:7797   */\n      0x01\n        /* \"#utility.yul\":7785:7791   */\n      dup3\n        /* \"#utility.yul\":7781:7798   */\n      mul\n        /* \"#utility.yul\":7771:7779   */\n      dup4\n        /* \"#utility.yul\":7767:7799   */\n      add\n        /* \"#utility.yul\":7764:7805   */\n      gt\n        /* \"#utility.yul\":7761:7889   */\n      iszero\n      tag_488\n      jumpi\n        /* \"#utility.yul\":7808:7887   */\n      tag_489\n      tag_348\n      jump\t// in\n    tag_489:\n        /* \"#utility.yul\":7761:7889   */\n    tag_488:\n        /* \"#utility.yul\":7342:7895   */\n      swap3\n      pop\n      swap3\n      swap1\n      pop\n      jump\t// out\n        /* \"#utility.yul\":7901:8430   */\n    tag_77:\n        /* \"#utility.yul\":7972:7978   */\n      0x00\n        /* \"#utility.yul\":7980:7986   */\n      dup1\n        /* \"#utility.yul\":8029:8031   */\n      0x20\n        /* \"#utility.yul\":8017:8026   */\n      dup4\n        /* \"#utility.yul\":8008:8015   */\n      dup6\n        /* \"#utility.yul\":8004:8027   */\n      sub\n        /* \"#utility.yul\":8000:8032   */\n      slt\n        /* \"#utility.yul\":7997:8116   */\n      iszero\n      tag_491\n      jumpi\n        /* \"#utility.yul\":8035:8114   */\n      tag_492\n      tag_321\n      jump\t// in\n    tag_492:\n        /* \"#utility.yul\":7997:8116   */\n    tag_491:\n        /* \"#utility.yul\":8183:8184   */\n      0x00\n        /* \"#utility.yul\":8172:8181   */\n      dup4\n        /* \"#utility.yul\":8168:8185   */\n      add\n        /* \"#utility.yul\":8155:8186   */\n      calldataload\n        /* \"#utility.yul\":8213:8231   */\n      0xffffffffffffffff\n        /* \"#utility.yul\":8205:8211   */\n      dup2\n        /* \"#utility.yul\":8202:8232   */\n      gt\n        /* \"#utility.yul\":8199:8316   */\n      iszero\n      tag_493\n      jumpi\n        /* \"#utility.yul\":8235:8314   */\n      tag_494\n      tag_322\n      jump\t// in\n    tag_494:\n        /* \"#utility.yul\":8199:8316   */\n    tag_493:\n        /* \"#utility.yul\":8348:8413   */\n      tag_495\n        /* \"#utility.yul\":8405:8412   */\n      dup6\n        /* \"#utility.yul\":8396:8402   */\n      dup3\n        /* \"#utility.yul\":8385:8394   */\n      dup7\n        /* \"#utility.yul\":8381:8403   */\n      add\n        /* \"#utility.yul\":8348:8413   */\n      tag_349\n      jump\t// in\n    tag_495:\n        /* \"#utility.yul\":8330:8413   */\n      swap3\n      pop\n      swap3\n      pop\n        /* \"#utility.yul\":8126:8423   */\n      pop\n        /* \"#utility.yul\":7901:8430   */\n      swap3\n      pop\n      swap3\n      swap1\n      pop\n      jump\t// out\n        /* \"#utility.yul\":8436:8910   */\n    tag_82:\n        /* \"#utility.yul\":8504:8510   */\n      0x00\n        /* \"#utility.yul\":8512:8518   */\n      dup1\n        /* \"#utility.yul\":8561:8563   */\n      0x40\n        /* \"#utility.yul\":8549:8558   */\n      dup4\n        /* \"#utility.yul\":8540:8547   */\n      dup6\n        /* \"#utility.yul\":8536:8559   */\n      sub\n        /* \"#utility.yul\":8532:8564   */\n      slt\n        /* \"#utility.yul\":8529:8648   */\n      iszero\n      tag_497\n      jumpi\n        /* \"#utility.yul\":8567:8646   */\n      tag_498\n      tag_321\n      jump\t// in\n    tag_498:\n        /* \"#utility.yul\":8529:8648   */\n    tag_497:\n        /* \"#utility.yul\":8687:8688   */\n      0x00\n        /* \"#utility.yul\":8712:8765   */\n      tag_499\n        /* \"#utility.yul\":8757:8764   */\n      dup6\n        /* \"#utility.yul\":8748:8754   */\n      dup3\n        /* \"#utility.yul\":8737:8746   */\n      dup7\n        /* \"#utility.yul\":8733:8755   */\n      add\n        /* \"#utility.yul\":8712:8765   */\n      tag_326\n      jump\t// in\n    tag_499:\n        /* \"#utility.yul\":8702:8765   */\n      swap3\n      pop\n        /* \"#utility.yul\":8658:8775   */\n      pop\n        /* \"#utility.yul\":8814:8816   */\n      0x20\n        /* \"#utility.yul\":8840:8893   */\n      tag_500\n        /* \"#utility.yul\":8885:8892   */\n      dup6\n        /* \"#utility.yul\":8876:8882   */\n      dup3\n        /* \"#utility.yul\":8865:8874   */\n      dup7\n        /* \"#utility.yul\":8861:8883   */\n      add\n        /* \"#utility.yul\":8840:8893   */\n      tag_326\n      jump\t// in\n    tag_500:\n        /* \"#utility.yul\":8830:8893   */\n      swap2\n      pop\n        /* \"#utility.yul\":8785:8903   */\n      pop\n        /* \"#utility.yul\":8436:8910   */\n      swap3\n      pop\n      swap3\n      swap1\n      pop\n      jump\t// out\n        /* \"#utility.yul\":8916:9015   */\n    tag_350:\n        /* \"#utility.yul\":8968:8974   */\n      0x00\n        /* \"#utility.yul\":9002:9007   */\n      dup2\n        /* \"#utility.yul\":8996:9008   */\n      mload\n        /* \"#utility.yul\":8986:9008   */\n      swap1\n      pop\n        /* \"#utility.yul\":8916:9015   */\n      swap2\n      swap1\n      pop\n      jump\t// out\n        /* \"#utility.yul\":9021:9190   */\n    tag_351:\n        /* \"#utility.yul\":9105:9116   */\n      0x00\n        /* \"#utility.yul\":9139:9145   */\n      dup3\n        /* \"#utility.yul\":9134:9137   */\n      dup3\n        /* \"#utility.yul\":9127:9146   */\n      mstore\n        /* \"#utility.yul\":9179:9183   */\n      0x20\n        /* \"#utility.yul\":9174:9177   */\n      dup3\n        /* \"#utility.yul\":9170:9184   */\n      add\n        /* \"#utility.yul\":9155:9184   */\n      swap1\n      pop\n        /* \"#utility.yul\":9021:9190   */\n      swap3\n      swap2\n      pop\n      pop\n      jump\t// out\n        /* \"#utility.yul\":9196:9442   */\n    tag_352:\n        /* \"#utility.yul\":9277:9278   */\n      0x00\n        /* \"#utility.yul\":9287:9400   */\n    tag_504:\n        /* \"#utility.yul\":9301:9307   */\n      dup4\n        /* \"#utility.yul\":9298:9299   */\n      dup2\n        /* \"#utility.yul\":9295:9308   */\n      lt\n        /* \"#utility.yul\":9287:9400   */\n      iszero\n      tag_506\n      jumpi\n        /* \"#utility.yul\":9386:9387   */\n      dup1\n        /* \"#utility.yul\":9381:9384   */\n      dup3\n        /* \"#utility.yul\":9377:9388   */\n      add\n        /* \"#utility.yul\":9371:9389   */\n      mload\n        /* \"#utility.yul\":9367:9368   */\n      dup2\n        /* \"#utility.yul\":9362:9365   */\n      dup5\n        /* \"#utility.yul\":9358:9369   */\n      add\n        /* \"#utility.yul\":9351:9390   */\n      mstore\n        /* \"#utility.yul\":9323:9325   */\n      0x20\n        /* \"#utility.yul\":9320:9321   */\n      dup2\n        /* \"#utility.yul\":9316:9326   */\n      add\n        /* \"#utility.yul\":9311:9326   */\n      swap1\n      pop\n        /* \"#utility.yul\":9287:9400   */\n      jump(tag_504)\n    tag_506:\n        /* \"#utility.yul\":9434:9435   */\n      0x00\n        /* \"#utility.yul\":9425:9431   */\n      dup5\n        /* \"#utility.yul\":9420:9423   */\n      dup5\n        /* \"#utility.yul\":9416:9432   */\n      add\n        /* \"#utility.yul\":9409:9436   */\n      mstore\n        /* \"#utility.yul\":9258:9442   */\n      pop\n        /* \"#utility.yul\":9196:9442   */\n      pop\n      pop\n      pop\n      jump\t// out\n        /* \"#utility.yul\":9448:9550   */\n    tag_353:\n        /* \"#utility.yul\":9489:9495   */\n      0x00\n        /* \"#utility.yul\":9540:9542   */\n      0x1f\n        /* \"#utility.yul\":9536:9543   */\n      not\n        /* \"#utility.yul\":9531:9533   */\n      0x1f\n        /* \"#utility.yul\":9524:9529   */\n      dup4\n        /* \"#utility.yul\":9520:9534   */\n      add\n        /* \"#utility.yul\":9516:9544   */\n      and\n        /* \"#utility.yul\":9506:9544   */\n      swap1\n      pop\n        /* \"#utility.yul\":9448:9550   */\n      swap2\n      swap1\n      pop\n      jump\t// out\n        /* \"#utility.yul\":9556:9933   */\n    tag_354:\n        /* \"#utility.yul\":9644:9647   */\n      0x00\n        /* \"#utility.yul\":9672:9711   */\n      tag_509\n        /* \"#utility.yul\":9705:9710   */\n      dup3\n        /* \"#utility.yul\":9672:9711   */\n      tag_350\n      jump\t// in\n    tag_509:\n        /* \"#utility.yul\":9727:9798   */\n      tag_510\n        /* \"#utility.yul\":9791:9797   */\n      dup2\n        /* \"#utility.yul\":9786:9789   */\n      dup6\n        /* \"#utility.yul\":9727:9798   */\n      tag_351\n      jump\t// in\n    tag_510:\n        /* \"#utility.yul\":9720:9798   */\n      swap4\n      pop\n        /* \"#utility.yul\":9807:9872   */\n      tag_511\n        /* \"#utility.yul\":9865:9871   */\n      dup2\n        /* \"#utility.yul\":9860:9863   */\n      dup6\n        /* \"#utility.yul\":9853:9857   */\n      0x20\n        /* \"#utility.yul\":9846:9851   */\n      dup7\n        /* \"#utility.yul\":9842:9858   */\n      add\n        /* \"#utility.yul\":9807:9872   */\n      tag_352\n      jump\t// in\n    tag_511:\n        /* \"#utility.yul\":9897:9926   */\n      tag_512\n        /* \"#utility.yul\":9919:9925   */\n      dup2\n        /* \"#utility.yul\":9897:9926   */\n      tag_353\n      jump\t// in\n    tag_512:\n        /* \"#utility.yul\":9892:9895   */\n      dup5\n        /* \"#utility.yul\":9888:9927   */\n      add\n        /* \"#utility.yul\":9881:9927   */\n      swap2\n      pop\n        /* \"#utility.yul\":9648:9933   */\n      pop\n        /* \"#utility.yul\":9556:9933   */\n      swap3\n      swap2\n      pop\n      pop\n      jump\t// out\n        /* \"#utility.yul\":9939:10252   */\n    tag_96:\n        /* \"#utility.yul\":10052:10056   */\n      0x00\n        /* \"#utility.yul\":10090:10092   */\n      0x20\n        /* \"#utility.yul\":10079:10088   */\n      dup3\n        /* \"#utility.yul\":10075:10093   */\n      add\n        /* \"#utility.yul\":10067:10093   */\n      swap1\n      pop\n        /* \"#utility.yul\":10139:10148   */\n      dup2\n        /* \"#utility.yul\":10133:10137   */\n      dup2\n        /* \"#utility.yul\":10129:10149   */\n      sub\n        /* \"#utility.yul\":10125:10126   */\n      0x00\n        /* \"#utility.yul\":10114:10123   */\n      dup4\n        /* \"#utility.yul\":10110:10127   */\n      add\n        /* \"#utility.yul\":10103:10150   */\n      mstore\n        /* \"#utility.yul\":10167:10245   */\n      tag_514\n        /* \"#utility.yul\":10240:10244   */\n      dup2\n        /* \"#utility.yul\":10231:10237   */\n      dup5\n        /* \"#utility.yul\":10167:10245   */\n      tag_354\n      jump\t// in\n    tag_514:\n        /* \"#utility.yul\":10159:10245   */\n      swap1\n      pop\n        /* \"#utility.yul\":9939:10252   */\n      swap3\n      swap2\n      pop\n      pop\n      jump\t// out\n        /* \"#utility.yul\":10258:11023   */\n    tag_104:\n        /* \"#utility.yul\":10344:10350   */\n      0x00\n        /* \"#utility.yul\":10352:10358   */\n      dup1\n        /* \"#utility.yul\":10360:10366   */\n      0x00\n        /* \"#utility.yul\":10368:10374   */\n      dup1\n        /* \"#utility.yul\":10417:10420   */\n      0x80\n        /* \"#utility.yul\":10405:10414   */\n      dup6\n        /* \"#utility.yul\":10396:10403   */\n      dup8\n        /* \"#utility.yul\":10392:10415   */\n      sub\n        /* \"#utility.yul\":10388:10421   */\n      slt\n        /* \"#utility.yul\":10385:10505   */\n      iszero\n      tag_516\n      jumpi\n        /* \"#utility.yul\":10424:10503   */\n      tag_517\n      tag_321\n      jump\t// in\n    tag_517:\n        /* \"#utility.yul\":10385:10505   */\n    tag_516:\n        /* \"#utility.yul\":10544:10545   */\n      0x00\n        /* \"#utility.yul\":10569:10622   */\n      tag_518\n        /* \"#utility.yul\":10614:10621   */\n      dup8\n        /* \"#utility.yul\":10605:10611   */\n      dup3\n        /* \"#utility.yul\":10594:10603   */\n      dup9\n        /* \"#utility.yul\":10590:10612   */\n      add\n        /* \"#utility.yul\":10569:10622   */\n      tag_326\n      jump\t// in\n    tag_518:\n        /* \"#utility.yul\":10559:10622   */\n      swap5\n      pop\n        /* \"#utility.yul\":10515:10632   */\n      pop\n        /* \"#utility.yul\":10671:10673   */\n      0x20\n        /* \"#utility.yul\":10697:10750   */\n      tag_519\n        /* \"#utility.yul\":10742:10749   */\n      dup8\n        /* \"#utility.yul\":10733:10739   */\n      dup3\n        /* \"#utility.yul\":10722:10731   */\n      dup9\n        /* \"#utility.yul\":10718:10740   */\n      add\n        /* \"#utility.yul\":10697:10750   */\n      tag_326\n      jump\t// in\n    tag_519:\n        /* \"#utility.yul\":10687:10750   */\n      swap4\n      pop\n        /* \"#utility.yul\":10642:10760   */\n      pop\n        /* \"#utility.yul\":10799:10801   */\n      0x40\n        /* \"#utility.yul\":10825:10878   */\n      tag_520\n        /* \"#utility.yul\":10870:10877   */\n      dup8\n        /* \"#utility.yul\":10861:10867   */\n      dup3\n        /* \"#utility.yul\":10850:10859   */\n      dup9\n        /* \"#utility.yul\":10846:10868   */\n      add\n        /* \"#utility.yul\":10825:10878   */\n      tag_344\n      jump\t// in\n    tag_520:\n        /* \"#utility.yul\":10815:10878   */\n      swap3\n      pop\n        /* \"#utility.yul\":10770:10888   */\n      pop\n        /* \"#utility.yul\":10927:10929   */\n      0x60\n        /* \"#utility.yul\":10953:11006   */\n      tag_521\n        /* \"#utility.yul\":10998:11005   */\n      dup8\n        /* \"#utility.yul\":10989:10995   */\n      dup3\n        /* \"#utility.yul\":10978:10987   */\n      dup9\n        /* \"#utility.yul\":10974:10996   */\n      add\n        /* \"#utility.yul\":10953:11006   */\n      tag_344\n      jump\t// in\n    tag_521:\n        /* \"#utility.yul\":10943:11006   */\n      swap2\n      pop\n        /* \"#utility.yul\":10898:11016   */\n      pop\n        /* \"#utility.yul\":10258:11023   */\n      swap3\n      swap6\n      swap2\n      swap5\n      pop\n      swap3\n      pop\n      jump\t// out\n        /* \"#utility.yul\":11029:11189   */\n    tag_355:\n        /* \"#utility.yul\":11169:11181   */\n      0x4f6e6c79206f776e657200000000000000000000000000000000000000000000\n        /* \"#utility.yul\":11165:11166   */\n      0x00\n        /* \"#utility.yul\":11157:11163   */\n      dup3\n        /* \"#utility.yul\":11153:11167   */\n      add\n        /* \"#utility.yul\":11146:11182   */\n      mstore\n        /* \"#utility.yul\":11029:11189   */\n      pop\n      jump\t// out\n        /* \"#utility.yul\":11195:11561   */\n    tag_356:\n        /* \"#utility.yul\":11337:11340   */\n      0x00\n        /* \"#utility.yul\":11358:11425   */\n      tag_524\n        /* \"#utility.yul\":11422:11424   */\n      0x0a\n        /* \"#utility.yul\":11417:11420   */\n      dup4\n        /* \"#utility.yul\":11358:11425   */\n      tag_351\n      jump\t// in\n    tag_524:\n        /* \"#utility.yul\":11351:11425   */\n      swap2\n      pop\n        /* \"#utility.yul\":11434:11527   */\n      tag_525\n        /* \"#utility.yul\":11523:11526   */\n      dup3\n        /* \"#utility.yul\":11434:11527   */\n      tag_355\n      jump\t// in\n    tag_525:\n        /* \"#utility.yul\":11552:11554   */\n      0x20\n        /* \"#utility.yul\":11547:11550   */\n      dup3\n        /* \"#utility.yul\":11543:11555   */\n      add\n        /* \"#utility.yul\":11536:11555   */\n      swap1\n      pop\n        /* \"#utility.yul\":11195:11561   */\n      swap2\n      swap1\n      pop\n      jump\t// out\n        /* \"#utility.yul\":11567:11986   */\n    tag_109:\n        /* \"#utility.yul\":11733:11737   */\n      0x00\n        /* \"#utility.yul\":11771:11773   */\n      0x20\n        /* \"#utility.yul\":11760:11769   */\n      dup3\n        /* \"#utility.yul\":11756:11774   */\n      add\n        /* \"#utility.yul\":11748:11774   */\n      swap1\n      pop\n        /* \"#utility.yul\":11820:11829   */\n      dup2\n        /* \"#utility.yul\":11814:11818   */\n      dup2\n        /* \"#utility.yul\":11810:11830   */\n      sub\n        /* \"#utility.yul\":11806:11807   */\n      0x00\n        /* \"#utility.yul\":11795:11804   */\n      dup4\n        /* \"#utility.yul\":11791:11808   */\n      add\n        /* \"#utility.yul\":11784:11831   */\n      mstore\n        /* \"#utility.yul\":11848:11979   */\n      tag_527\n        /* \"#utility.yul\":11974:11978   */\n      dup2\n        /* \"#utility.yul\":11848:11979   */\n      tag_356\n      jump\t// in\n    tag_527:\n        /* \"#utility.yul\":11840:11979   */\n      swap1\n      pop\n        /* \"#utility.yul\":11567:11986   */\n      swap2\n      swap1\n      pop\n      jump\t// out\n        /* \"#utility.yul\":11992:12135   */\n    tag_357:\n        /* \"#utility.yul\":12049:12054   */\n      0x00\n        /* \"#utility.yul\":12080:12086   */\n      dup2\n        /* \"#utility.yul\":12074:12087   */\n      mload\n        /* \"#utility.yul\":12065:12087   */\n      swap1\n      pop\n        /* \"#utility.yul\":12096:12129   */\n      tag_529\n        /* \"#utility.yul\":12123:12128   */\n      dup2\n        /* \"#utility.yul\":12096:12129   */\n      tag_343\n      jump\t// in\n    tag_529:\n        /* \"#utility.yul\":11992:12135   */\n      swap3\n      swap2\n      pop\n      pop\n      jump\t// out\n        /* \"#utility.yul\":12141:12492   */\n    tag_115:\n        /* \"#utility.yul\":12211:12217   */\n      0x00\n        /* \"#utility.yul\":12260:12262   */\n      0x20\n        /* \"#utility.yul\":12248:12257   */\n      dup3\n        /* \"#utility.yul\":12239:12246   */\n      dup5\n        /* \"#utility.yul\":12235:12258   */\n      sub\n        /* \"#utility.yul\":12231:12263   */\n      slt\n        /* \"#utility.yul\":12228:12347   */\n      iszero\n      tag_531\n      jumpi\n        /* \"#utility.yul\":12266:12345   */\n      tag_532\n      tag_321\n      jump\t// in\n    tag_532:\n        /* \"#utility.yul\":12228:12347   */\n    tag_531:\n        /* \"#utility.yul\":12386:12387   */\n      0x00\n        /* \"#utility.yul\":12411:12475   */\n      tag_533\n        /* \"#utility.yul\":12467:12474   */\n      dup5\n        /* \"#utility.yul\":12458:12464   */\n      dup3\n        /* \"#utility.yul\":12447:12456   */\n      dup6\n        /* \"#utility.yul\":12443:12465   */\n      add\n        /* \"#utility.yul\":12411:12475   */\n      tag_357\n      jump\t// in\n    tag_533:\n        /* \"#utility.yul\":12401:12475   */\n      swap2\n      pop\n        /* \"#utility.yul\":12357:12485   */\n      pop\n        /* \"#utility.yul\":12141:12492   */\n      swap3\n      swap2\n      pop\n      pop\n      jump\t// out\n        /* \"#utility.yul\":12498:12664   */\n    tag_358:\n        /* \"#utility.yul\":12638:12656   */\n      0x4e6f20746f6b656e2062616c616e636500000000000000000000000000000000\n        /* \"#utility.yul\":12634:12635   */\n      0x00\n        /* \"#utility.yul\":12626:12632   */\n      dup3\n        /* \"#utility.yul\":12622:12636   */\n      add\n        /* \"#utility.yul\":12615:12657   */\n      mstore\n        /* \"#utility.yul\":12498:12664   */\n      pop\n      jump\t// out\n        /* \"#utility.yul\":12670:13036   */\n    tag_359:\n        /* \"#utility.yul\":12812:12815   */\n      0x00\n        /* \"#utility.yul\":12833:12900   */\n      tag_536\n        /* \"#utility.yul\":12897:12899   */\n      0x10\n        /* \"#utility.yul\":12892:12895   */\n      dup4\n        /* \"#utility.yul\":12833:12900   */\n      tag_351\n      jump\t// in\n    tag_536:\n        /* \"#utility.yul\":12826:12900   */\n      swap2\n      pop\n        /* \"#utility.yul\":12909:13002   */\n      tag_537\n        /* \"#utility.yul\":12998:13001   */\n      dup3\n        /* \"#utility.yul\":12909:13002   */\n      tag_358\n      jump\t// in\n    tag_537:\n        /* \"#utility.yul\":13027:13029   */\n      0x20\n        /* \"#utility.yul\":13022:13025   */\n      dup3\n        /* \"#utility.yul\":13018:13030   */\n      add\n        /* \"#utility.yul\":13011:13030   */\n      swap1\n      pop\n        /* \"#utility.yul\":12670:13036   */\n      swap2\n      swap1\n      pop\n      jump\t// out\n        /* \"#utility.yul\":13042:13461   */\n    tag_118:\n        /* \"#utility.yul\":13208:13212   */\n      0x00\n        /* \"#utility.yul\":13246:13248   */\n      0x20\n        /* \"#utility.yul\":13235:13244   */\n      dup3\n        /* \"#utility.yul\":13231:13249   */\n      add\n        /* \"#utility.yul\":13223:13249   */\n      swap1\n      pop\n        /* \"#utility.yul\":13295:13304   */\n      dup2\n        /* \"#utility.yul\":13289:13293   */\n      dup2\n        /* \"#utility.yul\":13285:13305   */\n      sub\n        /* \"#utility.yul\":13281:13282   */\n      0x00\n        /* \"#utility.yul\":13270:13279   */\n      dup4\n        /* \"#utility.yul\":13266:13283   */\n      add\n        /* \"#utility.yul\":13259:13306   */\n      mstore\n        /* \"#utility.yul\":13323:13454   */\n      tag_539\n        /* \"#utility.yul\":13449:13453   */\n      dup2\n        /* \"#utility.yul\":13323:13454   */\n      tag_359\n      jump\t// in\n    tag_539:\n        /* \"#utility.yul\":13315:13454   */\n      swap1\n      pop\n        /* \"#utility.yul\":13042:13461   */\n      swap2\n      swap1\n      pop\n      jump\t// out\n        /* \"#utility.yul\":13467:13799   */\n    tag_120:\n        /* \"#utility.yul\":13588:13592   */\n      0x00\n        /* \"#utility.yul\":13626:13628   */\n      0x40\n        /* \"#utility.yul\":13615:13624   */\n      dup3\n        /* \"#utility.yul\":13611:13629   */\n      add\n        /* \"#utility.yul\":13603:13629   */\n      swap1\n      pop\n        /* \"#utility.yul\":13639:13710   */\n      tag_541\n        /* \"#utility.yul\":13707:13708   */\n      0x00\n        /* \"#utility.yul\":13696:13705   */\n      dup4\n        /* \"#utility.yul\":13692:13709   */\n      add\n        /* \"#utility.yul\":13683:13689   */\n      dup6\n        /* \"#utility.yul\":13639:13710   */\n      tag_345\n      jump\t// in\n    tag_541:\n        /* \"#utility.yul\":13720:13792   */\n      tag_542\n        /* \"#utility.yul\":13788:13790   */\n      0x20\n        /* \"#utility.yul\":13777:13786   */\n      dup4\n        /* \"#utility.yul\":13773:13791   */\n      add\n        /* \"#utility.yul\":13764:13770   */\n      dup5\n        /* \"#utility.yul\":13720:13792   */\n      tag_342\n      jump\t// in\n    tag_542:\n        /* \"#utility.yul\":13467:13799   */\n      swap4\n      swap3\n      pop\n      pop\n      pop\n      jump\t// out\n        /* \"#utility.yul\":13805:13895   */\n    tag_360:\n        /* \"#utility.yul\":13839:13846   */\n      0x00\n        /* \"#utility.yul\":13882:13887   */\n      dup2\n        /* \"#utility.yul\":13875:13888   */\n      iszero\n        /* \"#utility.yul\":13868:13889   */\n      iszero\n        /* \"#utility.yul\":13857:13889   */\n      swap1\n      pop\n        /* \"#utility.yul\":13805:13895   */\n      swap2\n      swap1\n      pop\n      jump\t// out\n        /* \"#utility.yul\":13901:14017   */\n    tag_361:\n        /* \"#utility.yul\":13971:13992   */\n      tag_545\n        /* \"#utility.yul\":13986:13991   */\n      dup2\n        /* \"#utility.yul\":13971:13992   */\n      tag_360\n      jump\t// in\n    tag_545:\n        /* \"#utility.yul\":13964:13969   */\n      dup2\n        /* \"#utility.yul\":13961:13993   */\n      eq\n        /* \"#utility.yul\":13951:14011   */\n      tag_546\n      jumpi\n        /* \"#utility.yul\":14007:14008   */\n      0x00\n        /* \"#utility.yul\":14004:14005   */\n      dup1\n        /* \"#utility.yul\":13997:14009   */\n      revert\n        /* \"#utility.yul\":13951:14011   */\n    tag_546:\n        /* \"#utility.yul\":13901:14017   */\n      pop\n      jump\t// out\n        /* \"#utility.yul\":14023:14160   */\n    tag_362:\n        /* \"#utility.yul\":14077:14082   */\n      0x00\n        /* \"#utility.yul\":14108:14114   */\n      dup2\n        /* \"#utility.yul\":14102:14115   */\n      mload\n        /* \"#utility.yul\":14093:14115   */\n      swap1\n      pop\n        /* \"#utility.yul\":14124:14154   */\n      tag_548\n        /* \"#utility.yul\":14148:14153   */\n      dup2\n        /* \"#utility.yul\":14124:14154   */\n      tag_361\n      jump\t// in\n    tag_548:\n        /* \"#utility.yul\":14023:14160   */\n      swap3\n      swap2\n      pop\n      pop\n      jump\t// out\n        /* \"#utility.yul\":14166:14511   */\n    tag_124:\n        /* \"#utility.yul\":14233:14239   */\n      0x00\n        /* \"#utility.yul\":14282:14284   */\n      0x20\n        /* \"#utility.yul\":14270:14279   */\n      dup3\n        /* \"#utility.yul\":14261:14268   */\n      dup5\n        /* \"#utility.yul\":14257:14280   */\n      sub\n        /* \"#utility.yul\":14253:14285   */\n      slt\n        /* \"#utility.yul\":14250:14369   */\n      iszero\n      tag_550\n      jumpi\n        /* \"#utility.yul\":14288:14367   */\n      tag_551\n      tag_321\n      jump\t// in\n    tag_551:\n        /* \"#utility.yul\":14250:14369   */\n    tag_550:\n        /* \"#utility.yul\":14408:14409   */\n      0x00\n        /* \"#utility.yul\":14433:14494   */\n      tag_552\n        /* \"#utility.yul\":14486:14493   */\n      dup5\n        /* \"#utility.yul\":14477:14483   */\n      dup3\n        /* \"#utility.yul\":14466:14475   */\n      dup6\n        /* \"#utility.yul\":14462:14484   */\n      add\n        /* \"#utility.yul\":14433:14494   */\n      tag_362\n      jump\t// in\n    tag_552:\n        /* \"#utility.yul\":14423:14494   */\n      swap2\n      pop\n        /* \"#utility.yul\":14379:14504   */\n      pop\n        /* \"#utility.yul\":14166:14511   */\n      swap3\n      swap2\n      pop\n      pop\n      jump\t// out\n        /* \"#utility.yul\":14517:14697   */\n    tag_128:\n        /* \"#utility.yul\":14565:14642   */\n      0x4e487b7100000000000000000000000000000000000000000000000000000000\n        /* \"#utility.yul\":14562:14563   */\n      0x00\n        /* \"#utility.yul\":14555:14643   */\n      mstore\n        /* \"#utility.yul\":14662:14666   */\n      0x41\n        /* \"#utility.yul\":14659:14660   */\n      0x04\n        /* \"#utility.yul\":14652:14667   */\n      mstore\n        /* \"#utility.yul\":14686:14690   */\n      0x24\n        /* \"#utility.yul\":14683:14684   */\n      0x00\n        /* \"#utility.yul\":14676:14691   */\n      revert\n        /* \"#utility.yul\":14703:14883   */\n    tag_138:\n        /* \"#utility.yul\":14751:14828   */\n      0x4e487b7100000000000000000000000000000000000000000000000000000000\n        /* \"#utility.yul\":14748:14749   */\n      0x00\n        /* \"#utility.yul\":14741:14829   */\n      mstore\n        /* \"#utility.yul\":14848:14852   */\n      0x32\n        /* \"#utility.yul\":14845:14846   */\n      0x04\n        /* \"#utility.yul\":14838:14853   */\n      mstore\n        /* \"#utility.yul\":14872:14876   */\n      0x24\n        /* \"#utility.yul\":14869:14870   */\n      0x00\n        /* \"#utility.yul\":14862:14877   */\n      revert\n        /* \"#utility.yul\":14889:15069   */\n    tag_363:\n        /* \"#utility.yul\":14937:15014   */\n      0x4e487b7100000000000000000000000000000000000000000000000000000000\n        /* \"#utility.yul\":14934:14935   */\n      0x00\n        /* \"#utility.yul\":14927:15015   */\n      mstore\n        /* \"#utility.yul\":15034:15038   */\n      0x11\n        /* \"#utility.yul\":15031:15032   */\n      0x04\n        /* \"#utility.yul\":15024:15039   */\n      mstore\n        /* \"#utility.yul\":15058:15062   */\n      0x24\n        /* \"#utility.yul\":15055:15056   */\n      0x00\n        /* \"#utility.yul\":15048:15063   */\n      revert\n        /* \"#utility.yul\":15075:15308   */\n    tag_145:\n        /* \"#utility.yul\":15114:15117   */\n      0x00\n        /* \"#utility.yul\":15137:15161   */\n      tag_557\n        /* \"#utility.yul\":15155:15160   */\n      dup3\n        /* \"#utility.yul\":15137:15161   */\n      tag_337\n      jump\t// in\n    tag_557:\n        /* \"#utility.yul\":15128:15161   */\n      swap2\n      pop\n        /* \"#utility.yul\":15183:15249   */\n      0xffffffffffffffffffffffffffffffffffffffffffffffffffffffffffffffff\n        /* \"#utility.yul\":15176:15181   */\n      dup3\n        /* \"#utility.yul\":15173:15250   */\n      sub\n        /* \"#utility.yul\":15170:15273   */\n      tag_558\n      jumpi\n        /* \"#utility.yul\":15253:15271   */\n      tag_559\n      tag_363\n      jump\t// in\n    tag_559:\n        /* \"#utility.yul\":15170:15273   */\n    tag_558:\n        /* \"#utility.yul\":15300:15301   */\n      0x01\n        /* \"#utility.yul\":15293:15298   */\n      dup3\n        /* \"#utility.yul\":15289:15302   */\n      add\n        /* \"#utility.yul\":15282:15302   */\n      swap1\n      pop\n        /* \"#utility.yul\":15075:15308   */\n      swap2\n      swap1\n      pop\n      jump\t// out\n        /* \"#utility.yul\":15314:15400   */\n    tag_364:\n        /* \"#utility.yul\":15349:15356   */\n      0x00\n        /* \"#utility.yul\":15389:15393   */\n      0xff\n        /* \"#utility.yul\":15382:15387   */\n      dup3\n        /* \"#utility.yul\":15378:15394   */\n      and\n        /* \"#utility.yul\":15367:15394   */\n      swap1\n      pop\n        /* \"#utility.yul\":15314:15400   */\n      swap2\n      swap1\n      pop\n      jump\t// out\n        /* \"#utility.yul\":15406:15524   */\n    tag_365:\n        /* \"#utility.yul\":15477:15499   */\n      tag_562\n        /* \"#utility.yul\":15493:15498   */\n      dup2\n        /* \"#utility.yul\":15477:15499   */\n      tag_364\n      jump\t// in\n    tag_562:\n        /* \"#utility.yul\":15470:15475   */\n      dup2\n        /* \"#utility.yul\":15467:15500   */\n      eq\n        /* \"#utility.yul\":15457:15518   */\n      tag_563\n      jumpi\n        /* \"#utility.yul\":15514:15515   */\n      0x00\n        /* \"#utility.yul\":15511:15512   */\n      dup1\n        /* \"#utility.yul\":15504:15516   */\n      revert\n        /* \"#utility.yul\":15457:15518   */\n    tag_563:\n        /* \"#utility.yul\":15406:15524   */\n      pop\n      jump\t// out\n        /* \"#utility.yul\":15530:15669   */\n    tag_366:\n        /* \"#utility.yul\":15585:15590   */\n      0x00\n        /* \"#utility.yul\":15616:15622   */\n      dup2\n        /* \"#utility.yul\":15610:15623   */\n      mload\n        /* \"#utility.yul\":15601:15623   */\n      swap1\n      pop\n        /* \"#utility.yul\":15632:15663   */\n      tag_565\n        /* \"#utility.yul\":15657:15662   */\n      dup2\n        /* \"#utility.yul\":15632:15663   */\n      tag_365\n      jump\t// in\n    tag_565:\n        /* \"#utility.yul\":15530:15669   */\n      swap3\n      swap2\n      pop\n      pop\n      jump\t// out\n        /* \"#utility.yul\":15675:16022   */\n    tag_150:\n        /* \"#utility.yul\":15743:15749   */\n      0x00\n        /* \"#utility.yul\":15792:15794   */\n      0x20\n        /* \"#utility.yul\":15780:15789   */\n      dup3\n        /* \"#utility.yul\":15771:15778   */\n      dup5\n        /* \"#utility.yul\":15767:15790   */\n      sub\n        /* \"#utility.yul\":15763:15795   */\n      slt\n        /* \"#utility.yul\":15760:15879   */\n      iszero\n      tag_567\n      jumpi\n        /* \"#utility.yul\":15798:15877   */\n      tag_568\n      tag_321\n      jump\t// in\n    tag_568:\n        /* \"#utility.yul\":15760:15879   */\n    tag_567:\n        /* \"#utility.yul\":15918:15919   */\n      0x00\n        /* \"#utility.yul\":15943:16005   */\n      tag_569\n        /* \"#utility.yul\":15997:16004   */\n      dup5\n        /* \"#utility.yul\":15988:15994   */\n      dup3\n        /* \"#utility.yul\":15977:15986   */\n      dup6\n        /* \"#utility.yul\":15973:15995   */\n      add\n        /* \"#utility.yul\":15943:16005   */\n      tag_366\n      jump\t// in\n    tag_569:\n        /* \"#utility.yul\":15933:16005   */\n      swap2\n      pop\n        /* \"#utility.yul\":15889:16015   */\n      pop\n        /* \"#utility.yul\":15675:16022   */\n      swap3\n      swap2\n      pop\n      pop\n      jump\t// out\n        /* \"#utility.yul\":16028:16130   */\n    tag_367:\n        /* \"#utility.yul\":16070:16078   */\n      0x00\n        /* \"#utility.yul\":16117:16122   */\n      dup2\n        /* \"#utility.yul\":16114:16115   */\n      0x01\n        /* \"#utility.yul\":16110:16123   */\n      shr\n        /* \"#utility.yul\":16089:16123   */\n      swap1\n      pop\n        /* \"#utility.yul\":16028:16130   */\n      swap2\n      swap1\n      pop\n      jump\t// out\n        /* \"#utility.yul\":16136:16984   */\n    tag_368:\n        /* \"#utility.yul\":16197:16202   */\n      0x00\n        /* \"#utility.yul\":16204:16208   */\n      dup1\n        /* \"#utility.yul\":16228:16234   */\n      dup3\n        /* \"#utility.yul\":16219:16234   */\n      swap2\n      pop\n        /* \"#utility.yul\":16252:16257   */\n      dup4\n        /* \"#utility.yul\":16243:16257   */\n      swap1\n      pop\n        /* \"#utility.yul\":16266:16978   */\n    tag_572:\n        /* \"#utility.yul\":16287:16288   */\n      0x01\n        /* \"#utility.yul\":16277:16285   */\n      dup6\n        /* \"#utility.yul\":16274:16289   */\n      gt\n        /* \"#utility.yul\":16266:16978   */\n      iszero\n      tag_574\n      jumpi\n        /* \"#utility.yul\":16382:16386   */\n      dup1\n        /* \"#utility.yul\":16377:16380   */\n      dup7\n        /* \"#utility.yul\":16373:16387   */\n      div\n        /* \"#utility.yul\":16367:16371   */\n      dup2\n        /* \"#utility.yul\":16364:16388   */\n      gt\n        /* \"#utility.yul\":16361:16411   */\n      iszero\n      tag_575\n      jumpi\n        /* \"#utility.yul\":16391:16409   */\n      tag_576\n      tag_363\n      jump\t// in\n    tag_576:\n        /* \"#utility.yul\":16361:16411   */\n    tag_575:\n        /* \"#utility.yul\":16441:16442   */\n      0x01\n        /* \"#utility.yul\":16431:16439   */\n      dup6\n        /* \"#utility.yul\":16427:16443   */\n      and\n        /* \"#utility.yul\":16424:16875   */\n      iszero\n      tag_577\n      jumpi\n        /* \"#utility.yul\":16856:16860   */\n      dup1\n        /* \"#utility.yul\":16849:16854   */\n      dup3\n        /* \"#utility.yul\":16845:16861   */\n      mul\n        /* \"#utility.yul\":16836:16861   */\n      swap2\n      pop\n        /* \"#utility.yul\":16424:16875   */\n    tag_577:\n        /* \"#utility.yul\":16906:16910   */\n      dup1\n        /* \"#utility.yul\":16900:16904   */\n      dup2\n        /* \"#utility.yul\":16896:16911   */\n      mul\n        /* \"#utility.yul\":16888:16911   */\n      swap1\n      pop\n        /* \"#utility.yul\":16936:16968   */\n      tag_578\n        /* \"#utility.yul\":16959:16967   */\n      dup6\n        /* \"#utility.yul\":16936:16968   */\n      tag_367\n      jump\t// in\n    tag_578:\n        /* \"#utility.yul\":16924:16968   */\n      swap5\n      pop\n        /* \"#utility.yul\":16266:16978   */\n      jump(tag_572)\n    tag_574:\n        /* \"#utility.yul\":16136:16984   */\n      swap5\n      pop\n      swap5\n      swap3\n      pop\n      pop\n      pop\n      jump\t// out\n        /* \"#utility.yul\":16990:18063   */\n    tag_369:\n        /* \"#utility.yul\":17044:17049   */\n      0x00\n        /* \"#utility.yul\":17235:17243   */\n      dup3\n        /* \"#utility.yul\":17225:17265   */\n      tag_580\n      jumpi\n        /* \"#utility.yul\":17256:17257   */\n      0x01\n        /* \"#utility.yul\":17247:17257   */\n      swap1\n      pop\n        /* \"#utility.yul\":17258:17263   */\n      jump(tag_579)\n        /* \"#utility.yul\":17225:17265   */\n    tag_580:\n        /* \"#utility.yul\":17284:17288   */\n      dup2\n        /* \"#utility.yul\":17274:17310   */\n      tag_581\n      jumpi\n        /* \"#utility.yul\":17301:17302   */\n      0x00\n        /* \"#utility.yul\":17292:17302   */\n      swap1\n      pop\n        /* \"#utility.yul\":17303:17308   */\n      jump(tag_579)\n        /* \"#utility.yul\":17274:17310   */\n    tag_581:\n        /* \"#utility.yul\":17370:17374   */\n      dup2\n        /* \"#utility.yul\":17418:17419   */\n      0x01\n        /* \"#utility.yul\":17413:17440   */\n      dup2\n      eq\n      tag_583\n      jumpi\n        /* \"#utility.yul\":17454:17455   */\n      0x02\n        /* \"#utility.yul\":17449:17640   */\n      dup2\n      eq\n      tag_584\n      jumpi\n        /* \"#utility.yul\":17363:17640   */\n      jump(tag_582)\n        /* \"#utility.yul\":17413:17440   */\n    tag_583:\n        /* \"#utility.yul\":17431:17432   */\n      0x01\n        /* \"#utility.yul\":17422:17432   */\n      swap2\n      pop\n        /* \"#utility.yul\":17433:17438   */\n      pop\n      jump(tag_579)\n        /* \"#utility.yul\":17449:17640   */\n    tag_584:\n        /* \"#utility.yul\":17494:17497   */\n      0xff\n        /* \"#utility.yul\":17484:17492   */\n      dup5\n        /* \"#utility.yul\":17481:17498   */\n      gt\n        /* \"#utility.yul\":17478:17521   */\n      iszero\n      tag_585\n      jumpi\n        /* \"#utility.yul\":17501:17519   */\n      tag_586\n      tag_363\n      jump\t// in\n    tag_586:\n        /* \"#utility.yul\":17478:17521   */\n    tag_585:\n        /* \"#utility.yul\":17550:17558   */\n      dup4\n        /* \"#utility.yul\":17547:17548   */\n      0x02\n        /* \"#utility.yul\":17543:17559   */\n      exp\n        /* \"#utility.yul\":17534:17559   */\n      swap2\n      pop\n        /* \"#utility.yul\":17585:17588   */\n      dup5\n        /* \"#utility.yul\":17578:17583   */\n      dup3\n        /* \"#utility.yul\":17575:17589   */\n      gt\n        /* \"#utility.yul\":17572:17612   */\n      iszero\n      tag_587\n      jumpi\n        /* \"#utility.yul\":17592:17610   */\n      tag_588\n      tag_363\n      jump\t// in\n    tag_588:\n        /* \"#utility.yul\":17572:17612   */\n    tag_587:\n        /* \"#utility.yul\":17625:17630   */\n      pop\n      jump(tag_579)\n        /* \"#utility.yul\":17363:17640   */\n    tag_582:\n      pop\n        /* \"#utility.yul\":17749:17751   */\n      0x20\n        /* \"#utility.yul\":17739:17747   */\n      dup4\n        /* \"#utility.yul\":17736:17752   */\n      lt\n        /* \"#utility.yul\":17730:17733   */\n      0x0133\n        /* \"#utility.yul\":17724:17728   */\n      dup4\n        /* \"#utility.yul\":17721:17734   */\n      lt\n        /* \"#utility.yul\":17717:17753   */\n      and\n        /* \"#utility.yul\":17699:17701   */\n      0x4e\n        /* \"#utility.yul\":17689:17697   */\n      dup5\n        /* \"#utility.yul\":17686:17702   */\n      lt\n        /* \"#utility.yul\":17681:17683   */\n      0x0b\n        /* \"#utility.yul\":17675:17679   */\n      dup5\n        /* \"#utility.yul\":17672:17684   */\n      lt\n        /* \"#utility.yul\":17668:17703   */\n      and\n        /* \"#utility.yul\":17652:17763   */\n      or\n        /* \"#utility.yul\":17649:17895   */\n      iszero\n      tag_589\n      jumpi\n        /* \"#utility.yul\":17805:17813   */\n      dup3\n        /* \"#utility.yul\":17799:17803   */\n      dup3\n        /* \"#utility.yul\":17795:17814   */\n      exp\n        /* \"#utility.yul\":17786:17814   */\n      swap1\n      pop\n        /* \"#utility.yul\":17840:17843   */\n      dup4\n        /* \"#utility.yul\":17833:17838   */\n      dup2\n        /* \"#utility.yul\":17830:17844   */\n      gt\n        /* \"#utility.yul\":17827:17867   */\n      iszero\n      tag_590\n      jumpi\n        /* \"#utility.yul\":17847:17865   */\n      tag_591\n      tag_363\n      jump\t// in\n    tag_591:\n        /* \"#utility.yul\":17827:17867   */\n    tag_590:\n        /* \"#utility.yul\":17880:17885   */\n      jump(tag_579)\n        /* \"#utility.yul\":17649:17895   */\n    tag_589:\n        /* \"#utility.yul\":17920:17962   */\n      tag_592\n        /* \"#utility.yul\":17958:17961   */\n      dup5\n        /* \"#utility.yul\":17948:17956   */\n      dup5\n        /* \"#utility.yul\":17942:17946   */\n      dup5\n        /* \"#utility.yul\":17939:17940   */\n      0x01\n        /* \"#utility.yul\":17920:17962   */\n      tag_368\n      jump\t// in\n    tag_592:\n        /* \"#utility.yul\":17905:17962   */\n      swap3\n      pop\n      swap1\n      pop\n        /* \"#utility.yul\":17994:17998   */\n      dup2\n        /* \"#utility.yul\":17989:17992   */\n      dup5\n        /* \"#utility.yul\":17985:17999   */\n      div\n        /* \"#utility.yul\":17978:17983   */\n      dup2\n        /* \"#utility.yul\":17975:18000   */\n      gt\n        /* \"#utility.yul\":17972:18023   */\n      iszero\n      tag_593\n      jumpi\n        /* \"#utility.yul\":18003:18021   */\n      tag_594\n      tag_363\n      jump\t// in\n    tag_594:\n        /* \"#utility.yul\":17972:18023   */\n    tag_593:\n        /* \"#utility.yul\":18052:18056   */\n      dup2\n        /* \"#utility.yul\":18045:18050   */\n      dup2\n        /* \"#utility.yul\":18041:18057   */\n      mul\n        /* \"#utility.yul\":18032:18057   */\n      swap1\n      pop\n        /* \"#utility.yul\":16990:18063   */\n    tag_579:\n      swap4\n      swap3\n      pop\n      pop\n      pop\n      jump\t// out\n        /* \"#utility.yul\":18069:18350   */\n    tag_152:\n        /* \"#utility.yul\":18127:18132   */\n      0x00\n        /* \"#utility.yul\":18151:18174   */\n      tag_596\n        /* \"#utility.yul\":18169:18173   */\n      dup3\n        /* \"#utility.yul\":18151:18174   */\n      tag_337\n      jump\t// in\n    tag_596:\n        /* \"#utility.yul\":18143:18174   */\n      swap2\n      pop\n        /* \"#utility.yul\":18195:18220   */\n      tag_597\n        /* \"#utility.yul\":18211:18219   */\n      dup4\n        /* \"#utility.yul\":18195:18220   */\n      tag_364\n      jump\t// in\n    tag_597:\n        /* \"#utility.yul\":18183:18220   */\n      swap3\n      pop\n        /* \"#utility.yul\":18239:18343   */\n      tag_598\n        /* \"#utility.yul\":18276:18342   */\n      0xffffffffffffffffffffffffffffffffffffffffffffffffffffffffffffffff\n        /* \"#utility.yul\":18266:18274   */\n      dup5\n        /* \"#utility.yul\":18260:18264   */\n      dup5\n        /* \"#utility.yul\":18239:18343   */\n      tag_369\n      jump\t// in\n    tag_598:\n        /* \"#utility.yul\":18230:18343   */\n      swap1\n      pop\n        /* \"#utility.yul\":18069:18350   */\n      swap3\n      swap2\n      pop\n      pop\n      jump\t// out\n        /* \"#utility.yul\":18356:18536   */\n    tag_370:\n        /* \"#utility.yul\":18404:18481   */\n      0x4e487b7100000000000000000000000000000000000000000000000000000000\n        /* \"#utility.yul\":18401:18402   */\n      0x00\n        /* \"#utility.yul\":18394:18482   */\n      mstore\n        /* \"#utility.yul\":18501:18505   */\n      0x12\n        /* \"#utility.yul\":18498:18499   */\n      0x04\n        /* \"#utility.yul\":18491:18506   */\n      mstore\n        /* \"#utility.yul\":18525:18529   */\n      0x24\n        /* \"#utility.yul\":18522:18523   */\n      0x00\n        /* \"#utility.yul\":18515:18530   */\n      revert\n        /* \"#utility.yul\":18542:18727   */\n    tag_154:\n        /* \"#utility.yul\":18582:18583   */\n      0x00\n        /* \"#utility.yul\":18599:18619   */\n      tag_601\n        /* \"#utility.yul\":18617:18618   */\n      dup3\n        /* \"#utility.yul\":18599:18619   */\n      tag_337\n      jump\t// in\n    tag_601:\n        /* \"#utility.yul\":18594:18619   */\n      swap2\n      pop\n        /* \"#utility.yul\":18633:18653   */\n      tag_602\n        /* \"#utility.yul\":18651:18652   */\n      dup4\n        /* \"#utility.yul\":18633:18653   */\n      tag_337\n      jump\t// in\n    tag_602:\n        /* \"#utility.yul\":18628:18653   */\n      swap3\n      pop\n        /* \"#utility.yul\":18672:18673   */\n      dup3\n        /* \"#utility.yul\":18662:18697   */\n      tag_603\n      jumpi\n        /* \"#utility.yul\":18677:18695   */\n      tag_604\n      tag_370\n      jump\t// in\n    tag_604:\n        /* \"#utility.yul\":18662:18697   */\n    tag_603:\n        /* \"#utility.yul\":18719:18720   */\n      dup3\n        /* \"#utility.yul\":18716:18717   */\n      dup3\n        /* \"#utility.yul\":18712:18721   */\n      div\n        /* \"#utility.yul\":18707:18721   */\n      swap1\n      pop\n        /* \"#utility.yul\":18542:18727   */\n      swap3\n      swap2\n      pop\n      pop\n      jump\t// out\n        /* \"#utility.yul\":18733:18915   */\n    tag_371:\n        /* \"#utility.yul\":18873:18907   */\n      0x416d6f756e74206d7573742062652067726561746572207468616e207a65726f\n        /* \"#utility.yul\":18869:18870   */\n      0x00\n        /* \"#utility.yul\":18861:18867   */\n      dup3\n        /* \"#utility.yul\":18857:18871   */\n      add\n        /* \"#utility.yul\":18850:18908   */\n      mstore\n        /* \"#utility.yul\":18733:18915   */\n      pop\n      jump\t// out\n        /* \"#utility.yul\":18921:19287   */\n    tag_372:\n        /* \"#utility.yul\":19063:19066   */\n      0x00\n        /* \"#utility.yul\":19084:19151   */\n      tag_607\n        /* \"#utility.yul\":19148:19150   */\n      0x20\n        /* \"#utility.yul\":19143:19146   */\n      dup4\n        /* \"#utility.yul\":19084:19151   */\n      tag_351\n      jump\t// in\n    tag_607:\n        /* \"#utility.yul\":19077:19151   */\n      swap2\n      pop\n        /* \"#utility.yul\":19160:19253   */\n      tag_608\n        /* \"#utility.yul\":19249:19252   */\n      dup3\n        /* \"#utility.yul\":19160:19253   */\n      tag_371\n      jump\t// in\n    tag_608:\n        /* \"#utility.yul\":19278:19280   */\n      0x20\n        /* \"#utility.yul\":19273:19276   */\n      dup3\n        /* \"#utility.yul\":19269:19281   */\n      add\n        /* \"#utility.yul\":19262:19281   */\n      swap1\n      pop\n        /* \"#utility.yul\":18921:19287   */\n      swap2\n      swap1\n      pop\n      jump\t// out\n        /* \"#utility.yul\":19293:19712   */\n    tag_158:\n        /* \"#utility.yul\":19459:19463   */\n      0x00\n        /* \"#utility.yul\":19497:19499   */\n      0x20\n        /* \"#utility.yul\":19486:19495   */\n      dup3\n        /* \"#utility.yul\":19482:19500   */\n      add\n        /* \"#utility.yul\":19474:19500   */\n      swap1\n      pop\n        /* \"#utility.yul\":19546:19555   */\n      dup2\n        /* \"#utility.yul\":19540:19544   */\n      dup2\n        /* \"#utility.yul\":19536:19556   */\n      sub\n        /* \"#utility.yul\":19532:19533   */\n      0x00\n        /* \"#utility.yul\":19521:19530   */\n      dup4\n        /* \"#utility.yul\":19517:19534   */\n      add\n        /* \"#utility.yul\":19510:19557   */\n      mstore\n        /* \"#utility.yul\":19574:19705   */\n      tag_610\n        /* \"#utility.yul\":19700:19704   */\n      dup2\n        /* \"#utility.yul\":19574:19705   */\n      tag_372\n      jump\t// in\n    tag_610:\n        /* \"#utility.yul\":19566:19705   */\n      swap1\n      pop\n        /* \"#utility.yul\":19293:19712   */\n      swap2\n      swap1\n      pop\n      jump\t// out\n        /* \"#utility.yul\":19718:20050   */\n    tag_162:\n        /* \"#utility.yul\":19839:19843   */\n      0x00\n        /* \"#utility.yul\":19877:19879   */\n      0x40\n        /* \"#utility.yul\":19866:19875   */\n      dup3\n        /* \"#utility.yul\":19862:19880   */\n      add\n        /* \"#utility.yul\":19854:19880   */\n      swap1\n      pop\n        /* \"#utility.yul\":19890:19961   */\n      tag_612\n        /* \"#utility.yul\":19958:19959   */\n      0x00\n        /* \"#utility.yul\":19947:19956   */\n      dup4\n        /* \"#utility.yul\":19943:19960   */\n      add\n        /* \"#utility.yul\":19934:19940   */\n      dup6\n        /* \"#utility.yul\":19890:19961   */\n      tag_345\n      jump\t// in\n    tag_612:\n        /* \"#utility.yul\":19971:20043   */\n      tag_613\n        /* \"#utility.yul\":20039:20041   */\n      0x20\n        /* \"#utility.yul\":20028:20037   */\n      dup4\n        /* \"#utility.yul\":20024:20042   */\n      add\n        /* \"#utility.yul\":20015:20021   */\n      dup5\n        /* \"#utility.yul\":19971:20043   */\n      tag_345\n      jump\t// in\n    tag_613:\n        /* \"#utility.yul\":19718:20050   */\n      swap4\n      swap3\n      pop\n      pop\n      pop\n      jump\t// out\n        /* \"#utility.yul\":20056:20226   */\n    tag_373:\n        /* \"#utility.yul\":20196:20218   */\n      0x4e6f7420656e6f75676820616c6c6f77616e6365000000000000000000000000\n        /* \"#utility.yul\":20192:20193   */\n      0x00\n        /* \"#utility.yul\":20184:20190   */\n      dup3\n        /* \"#utility.yul\":20180:20194   */\n      add\n        /* \"#utility.yul\":20173:20219   */\n      mstore\n        /* \"#utility.yul\":20056:20226   */\n      pop\n      jump\t// out\n        /* \"#utility.yul\":20232:20598   */\n    tag_374:\n        /* \"#utility.yul\":20374:20377   */\n      0x00\n        /* \"#utility.yul\":20395:20462   */\n      tag_616\n        /* \"#utility.yul\":20459:20461   */\n      0x14\n        /* \"#utility.yul\":20454:20457   */\n      dup4\n        /* \"#utility.yul\":20395:20462   */\n      tag_351\n      jump\t// in\n    tag_616:\n        /* \"#utility.yul\":20388:20462   */\n      swap2\n      pop\n        /* \"#utility.yul\":20471:20564   */\n      tag_617\n        /* \"#utility.yul\":20560:20563   */\n      dup3\n        /* \"#utility.yul\":20471:20564   */\n      tag_373\n      jump\t// in\n    tag_617:\n        /* \"#utility.yul\":20589:20591   */\n      0x20\n        /* \"#utility.yul\":20584:20587   */\n      dup3\n        /* \"#utility.yul\":20580:20592   */\n      add\n        /* \"#utility.yul\":20573:20592   */\n      swap1\n      pop\n        /* \"#utility.yul\":20232:20598   */\n      swap2\n      swap1\n      pop\n      jump\t// out\n        /* \"#utility.yul\":20604:21023   */\n    tag_168:\n        /* \"#utility.yul\":20770:20774   */\n      0x00\n        /* \"#utility.yul\":20808:20810   */\n      0x20\n        /* \"#utility.yul\":20797:20806   */\n      dup3\n        /* \"#utility.yul\":20793:20811   */\n      add\n        /* \"#utility.yul\":20785:20811   */\n      swap1\n      pop\n        /* \"#utility.yul\":20857:20866   */\n      dup2\n        /* \"#utility.yul\":20851:20855   */\n      dup2\n        /* \"#utility.yul\":20847:20867   */\n      sub\n        /* \"#utility.yul\":20843:20844   */\n      0x00\n        /* \"#utility.yul\":20832:20841   */\n      dup4\n        /* \"#utility.yul\":20828:20845   */\n      add\n        /* \"#utility.yul\":20821:20868   */\n      mstore\n        /* \"#utility.yul\":20885:21016   */\n      tag_619\n        /* \"#utility.yul\":21011:21015   */\n      dup2\n        /* \"#utility.yul\":20885:21016   */\n      tag_374\n      jump\t// in\n    tag_619:\n        /* \"#utility.yul\":20877:21016   */\n      swap1\n      pop\n        /* \"#utility.yul\":20604:21023   */\n      swap2\n      swap1\n      pop\n      jump\t// out\n        /* \"#utility.yul\":21029:21471   */\n    tag_170:\n        /* \"#utility.yul\":21178:21182   */\n      0x00\n        /* \"#utility.yul\":21216:21218   */\n      0x60\n        /* \"#utility.yul\":21205:21214   */\n      dup3\n        /* \"#utility.yul\":21201:21219   */\n      add\n        /* \"#utility.yul\":21193:21219   */\n      swap1\n      pop\n        /* \"#utility.yul\":21229:21300   */\n      tag_621\n        /* \"#utility.yul\":21297:21298   */\n      0x00\n        /* \"#utility.yul\":21286:21295   */\n      dup4\n        /* \"#utility.yul\":21282:21299   */\n      add\n        /* \"#utility.yul\":21273:21279   */\n      dup7\n        /* \"#utility.yul\":21229:21300   */\n      tag_345\n      jump\t// in\n    tag_621:\n        /* \"#utility.yul\":21310:21382   */\n      tag_622\n        /* \"#utility.yul\":21378:21380   */\n      0x20\n        /* \"#utility.yul\":21367:21376   */\n      dup4\n        /* \"#utility.yul\":21363:21381   */\n      add\n        /* \"#utility.yul\":21354:21360   */\n      dup6\n        /* \"#utility.yul\":21310:21382   */\n      tag_345\n      jump\t// in\n    tag_622:\n        /* \"#utility.yul\":21392:21464   */\n      tag_623\n        /* \"#utility.yul\":21460:21462   */\n      0x40\n        /* \"#utility.yul\":21449:21458   */\n      dup4\n        /* \"#utility.yul\":21445:21463   */\n      add\n        /* \"#utility.yul\":21436:21442   */\n      dup5\n        /* \"#utility.yul\":21392:21464   */\n      tag_342\n      jump\t// in\n    tag_623:\n        /* \"#utility.yul\":21029:21471   */\n      swap5\n      swap4\n      pop\n      pop\n      pop\n      pop\n      jump\t// out\n        /* \"#utility.yul\":21477:21642   */\n    tag_375:\n        /* \"#utility.yul\":21617:21634   */\n      0x5472616e73666572206661696c65640000000000000000000000000000000000\n        /* \"#utility.yul\":21613:21614   */\n      0x00\n        /* \"#utility.yul\":21605:21611   */\n      dup3\n        /* \"#utility.yul\":21601:21615   */\n      add\n        /* \"#utility.yul\":21594:21635   */\n      mstore\n        /* \"#utility.yul\":21477:21642   */\n      pop\n      jump\t// out\n        /* \"#utility.yul\":21648:22014   */\n    tag_376:\n        /* \"#utility.yul\":21790:21793   */\n      0x00\n        /* \"#utility.yul\":21811:21878   */\n      tag_626\n        /* \"#utility.yul\":21875:21877   */\n      0x0f\n        /* \"#utility.yul\":21870:21873   */\n      dup4\n        /* \"#utility.yul\":21811:21878   */\n      tag_351\n      jump\t// in\n    tag_626:\n        /* \"#utility.yul\":21804:21878   */\n      swap2\n      pop\n        /* \"#utility.yul\":21887:21980   */\n      tag_627\n        /* \"#utility.yul\":21976:21979   */\n      dup3\n        /* \"#utility.yul\":21887:21980   */\n      tag_375\n      jump\t// in\n    tag_627:\n        /* \"#utility.yul\":22005:22007   */\n      0x20\n        /* \"#utility.yul\":22000:22003   */\n      dup3\n        /* \"#utility.yul\":21996:22008   */\n      add\n        /* \"#utility.yul\":21989:22008   */\n      swap1\n      pop\n        /* \"#utility.yul\":21648:22014   */\n      swap2\n      swap1\n      pop\n      jump\t// out\n        /* \"#utility.yul\":22020:22439   */\n    tag_176:\n        /* \"#utility.yul\":22186:22190   */\n      0x00\n        /* \"#utility.yul\":22224:22226   */\n      0x20\n        /* \"#utility.yul\":22213:22222   */\n      dup3\n        /* \"#utility.yul\":22209:22227   */\n      add\n        /* \"#utility.yul\":22201:22227   */\n      swap1\n      pop\n        /* \"#utility.yul\":22273:22282   */\n      dup2\n        /* \"#utility.yul\":22267:22271   */\n      dup2\n        /* \"#utility.yul\":22263:22283   */\n      sub\n        /* \"#utility.yul\":22259:22260   */\n      0x00\n        /* \"#utility.yul\":22248:22257   */\n      dup4\n        /* \"#utility.yul\":22244:22261   */\n      add\n        /* \"#utility.yul\":22237:22284   */\n      mstore\n        /* \"#utility.yul\":22301:22432   */\n      tag_629\n        /* \"#utility.yul\":22427:22431   */\n      dup2\n        /* \"#utility.yul\":22301:22432   */\n      tag_376\n      jump\t// in\n    tag_629:\n        /* \"#utility.yul\":22293:22432   */\n      swap1\n      pop\n        /* \"#utility.yul\":22020:22439   */\n      swap2\n      swap1\n      pop\n      jump\t// out\n        /* \"#utility.yul\":22445:22636   */\n    tag_178:\n        /* \"#utility.yul\":22485:22488   */\n      0x00\n        /* \"#utility.yul\":22504:22524   */\n      tag_631\n        /* \"#utility.yul\":22522:22523   */\n      dup3\n        /* \"#utility.yul\":22504:22524   */\n      tag_337\n      jump\t// in\n    tag_631:\n        /* \"#utility.yul\":22499:22524   */\n      swap2\n      pop\n        /* \"#utility.yul\":22538:22558   */\n      tag_632\n        /* \"#utility.yul\":22556:22557   */\n      dup4\n        /* \"#utility.yul\":22538:22558   */\n      tag_337\n      jump\t// in\n    tag_632:\n        /* \"#utility.yul\":22533:22558   */\n      swap3\n      pop\n        /* \"#utility.yul\":22581:22582   */\n      dup3\n        /* \"#utility.yul\":22578:22579   */\n      dup3\n        /* \"#utility.yul\":22574:22583   */\n      add\n        /* \"#utility.yul\":22567:22583   */\n      swap1\n      pop\n        /* \"#utility.yul\":22602:22605   */\n      dup1\n        /* \"#utility.yul\":22599:22600   */\n      dup3\n        /* \"#utility.yul\":22596:22606   */\n      gt\n        /* \"#utility.yul\":22593:22629   */\n      iszero\n      tag_633\n      jumpi\n        /* \"#utility.yul\":22609:22627   */\n      tag_634\n      tag_363\n      jump\t// in\n    tag_634:\n        /* \"#utility.yul\":22593:22629   */\n    tag_633:\n        /* \"#utility.yul\":22445:22636   */\n      swap3\n      swap2\n      pop\n      pop\n      jump\t// out\n        /* \"#utility.yul\":22642:22813   */\n    tag_377:\n        /* \"#utility.yul\":22782:22805   */\n      0x496e73756666696369656e74206665652073656e740000000000000000000000\n        /* \"#utility.yul\":22778:22779   */\n      0x00\n        /* \"#utility.yul\":22770:22776   */\n      dup3\n        /* \"#utility.yul\":22766:22780   */\n      add\n        /* \"#utility.yul\":22759:22806   */\n      mstore\n        /* \"#utility.yul\":22642:22813   */\n      pop\n      jump\t// out\n        /* \"#utility.yul\":22819:23185   */\n    tag_378:\n        /* \"#utility.yul\":22961:22964   */\n      0x00\n        /* \"#utility.yul\":22982:23049   */\n      tag_637\n        /* \"#utility.yul\":23046:23048   */\n      0x15\n        /* \"#utility.yul\":23041:23044   */\n      dup4\n        /* \"#utility.yul\":22982:23049   */\n      tag_351\n      jump\t// in\n    tag_637:\n        /* \"#utility.yul\":22975:23049   */\n      swap2\n      pop\n        /* \"#utility.yul\":23058:23151   */\n      tag_638\n        /* \"#utility.yul\":23147:23150   */\n      dup3\n        /* \"#utility.yul\":23058:23151   */\n      tag_377\n      jump\t// in\n    tag_638:\n        /* \"#utility.yul\":23176:23178   */\n      0x20\n        /* \"#utility.yul\":23171:23174   */\n      dup3\n        /* \"#utility.yul\":23167:23179   */\n      add\n        /* \"#utility.yul\":23160:23179   */\n      swap1\n      pop\n        /* \"#utility.yul\":22819:23185   */\n      swap2\n      swap1\n      pop\n      jump\t// out\n        /* \"#utility.yul\":23191:23610   */\n    tag_240:\n        /* \"#utility.yul\":23357:23361   */\n      0x00\n        /* \"#utility.yul\":23395:23397   */\n      0x20\n        /* \"#utility.yul\":23384:23393   */\n      dup3\n        /* \"#utility.yul\":23380:23398   */\n      add\n        /* \"#utility.yul\":23372:23398   */\n      swap1\n      pop\n        /* \"#utility.yul\":23444:23453   */\n      dup2\n        /* \"#utility.yul\":23438:23442   */\n      dup2\n        /* \"#utility.yul\":23434:23454   */\n      sub\n        /* \"#utility.yul\":23430:23431   */\n      0x00\n        /* \"#utility.yul\":23419:23428   */\n      dup4\n        /* \"#utility.yul\":23415:23432   */\n      add\n        /* \"#utility.yul\":23408:23455   */\n      mstore\n        /* \"#utility.yul\":23472:23603   */\n      tag_640\n        /* \"#utility.yul\":23598:23602   */\n      dup2\n        /* \"#utility.yul\":23472:23603   */\n      tag_378\n      jump\t// in\n    tag_640:\n        /* \"#utility.yul\":23464:23603   */\n      swap1\n      pop\n        /* \"#utility.yul\":23191:23610   */\n      swap2\n      swap1\n      pop\n      jump\t// out\n        /* \"#utility.yul\":23616:23713   */\n    tag_379:\n        /* \"#utility.yul\":23675:23681   */\n      0x00\n        /* \"#utility.yul\":23703:23706   */\n      dup3\n        /* \"#utility.yul\":23693:23706   */\n      swap1\n      pop\n        /* \"#utility.yul\":23616:23713   */\n      swap3\n      swap2\n      pop\n      pop\n      jump\t// out\n        /* \"#utility.yul\":23719:23899   */\n    tag_380:\n        /* \"#utility.yul\":23767:23844   */\n      0x4e487b7100000000000000000000000000000000000000000000000000000000\n        /* \"#utility.yul\":23764:23765   */\n      0x00\n        /* \"#utility.yul\":23757:23845   */\n      mstore\n        /* \"#utility.yul\":23864:23868   */\n      0x22\n        /* \"#utility.yul\":23861:23862   */\n      0x04\n        /* \"#utility.yul\":23854:23869   */\n      mstore\n        /* \"#utility.yul\":23888:23892   */\n      0x24\n        /* \"#utility.yul\":23885:23886   */\n      0x00\n        /* \"#utility.yul\":23878:23893   */\n      revert\n        /* \"#utility.yul\":23905:24225   */\n    tag_266:\n        /* \"#utility.yul\":23949:23955   */\n      0x00\n        /* \"#utility.yul\":23986:23987   */\n      0x02\n        /* \"#utility.yul\":23980:23984   */\n      dup3\n        /* \"#utility.yul\":23976:23988   */\n      div\n        /* \"#utility.yul\":23966:23988   */\n      swap1\n      pop\n        /* \"#utility.yul\":24033:24034   */\n      0x01\n        /* \"#utility.yul\":24027:24031   */\n      dup3\n        /* \"#utility.yul\":24023:24035   */\n      and\n        /* \"#utility.yul\":24054:24072   */\n      dup1\n        /* \"#utility.yul\":24044:24125   */\n      tag_644\n      jumpi\n        /* \"#utility.yul\":24110:24114   */\n      0x7f\n        /* \"#utility.yul\":24102:24108   */\n      dup3\n        /* \"#utility.yul\":24098:24115   */\n      and\n        /* \"#utility.yul\":24088:24115   */\n      swap2\n      pop\n        /* \"#utility.yul\":24044:24125   */\n    tag_644:\n        /* \"#utility.yul\":24172:24174   */\n      0x20\n        /* \"#utility.yul\":24164:24170   */\n      dup3\n        /* \"#utility.yul\":24161:24175   */\n      lt\n        /* \"#utility.yul\":24141:24159   */\n      dup2\n        /* \"#utility.yul\":24138:24176   */\n      sub\n        /* \"#utility.yul\":24135:24219   */\n      tag_645\n      jumpi\n        /* \"#utility.yul\":24191:24209   */\n      tag_646\n      tag_380\n      jump\t// in\n    tag_646:\n        /* \"#utility.yul\":24135:24219   */\n    tag_645:\n        /* \"#utility.yul\":23956:24225   */\n      pop\n        /* \"#utility.yul\":23905:24225   */\n      swap2\n      swap1\n      pop\n      jump\t// out\n        /* \"#utility.yul\":24231:24372   */\n    tag_381:\n        /* \"#utility.yul\":24280:24284   */\n      0x00\n        /* \"#utility.yul\":24303:24306   */\n      dup2\n        /* \"#utility.yul\":24295:24306   */\n      swap1\n      pop\n        /* \"#utility.yul\":24326:24329   */\n      dup2\n        /* \"#utility.yul\":24323:24324   */\n      0x00\n        /* \"#utility.yul\":24316:24330   */\n      mstore\n        /* \"#utility.yul\":24360:24364   */\n      0x20\n        /* \"#utility.yul\":24357:24358   */\n      0x00\n        /* \"#utility.yul\":24347:24365   */\n      keccak256\n        /* \"#utility.yul\":24339:24365   */\n      swap1\n      pop\n        /* \"#utility.yul\":24231:24372   */\n      swap2\n      swap1\n      pop\n      jump\t// out\n        /* \"#utility.yul\":24378:24471   */\n    tag_382:\n        /* \"#utility.yul\":24415:24421   */\n      0x00\n        /* \"#utility.yul\":24462:24464   */\n      0x20\n        /* \"#utility.yul\":24457:24459   */\n      0x1f\n        /* \"#utility.yul\":24450:24455   */\n      dup4\n        /* \"#utility.yul\":24446:24460   */\n      add\n        /* \"#utility.yul\":24442:24465   */\n      div\n        /* \"#utility.yul\":24432:24465   */\n      swap1\n      pop\n        /* \"#utility.yul\":24378:24471   */\n      swap2\n      swap1\n      pop\n      jump\t// out\n        /* \"#utility.yul\":24477:24584   */\n    tag_383:\n        /* \"#utility.yul\":24521:24529   */\n      0x00\n        /* \"#utility.yul\":24571:24576   */\n      dup3\n        /* \"#utility.yul\":24565:24569   */\n      dup3\n        /* \"#utility.yul\":24561:24577   */\n      shl\n        /* \"#utility.yul\":24540:24577   */\n      swap1\n      pop\n        /* \"#utility.yul\":24477:24584   */\n      swap3\n      swap2\n      pop\n      pop\n      jump\t// out\n        /* \"#utility.yul\":24590:24983   */\n    tag_384:\n        /* \"#utility.yul\":24659:24665   */\n      0x00\n        /* \"#utility.yul\":24709:24710   */\n      0x08\n        /* \"#utility.yul\":24697:24707   */\n      dup4\n        /* \"#utility.yul\":24693:24711   */\n      mul\n        /* \"#utility.yul\":24732:24829   */\n      tag_651\n        /* \"#utility.yul\":24762:24828   */\n      0xffffffffffffffffffffffffffffffffffffffffffffffffffffffffffffffff\n        /* \"#utility.yul\":24751:24760   */\n      dup3\n        /* \"#utility.yul\":24732:24829   */\n      tag_383\n      jump\t// in\n    tag_651:\n        /* \"#utility.yul\":24850:24889   */\n      tag_652\n        /* \"#utility.yul\":24880:24888   */\n      dup7\n        /* \"#utility.yul\":24869:24878   */\n      dup4\n        /* \"#utility.yul\":24850:24889   */\n      tag_383\n      jump\t// in\n    tag_652:\n        /* \"#utility.yul\":24838:24889   */\n      swap6\n      pop\n        /* \"#utility.yul\":24922:24926   */\n      dup1\n        /* \"#utility.yul\":24918:24927   */\n      not\n        /* \"#utility.yul\":24911:24916   */\n      dup5\n        /* \"#utility.yul\":24907:24928   */\n      and\n        /* \"#utility.yul\":24898:24928   */\n      swap4\n      pop\n        /* \"#utility.yul\":24971:24975   */\n      dup1\n        /* \"#utility.yul\":24961:24969   */\n      dup7\n        /* \"#utility.yul\":24957:24976   */\n      and\n        /* \"#utility.yul\":24950:24955   */\n      dup5\n        /* \"#utility.yul\":24947:24977   */\n      or\n        /* \"#utility.yul\":24937:24977   */\n      swap3\n      pop\n        /* \"#utility.yul\":24666:24983   */\n      pop\n      pop\n        /* \"#utility.yul\":24590:24983   */\n      swap4\n      swap3\n      pop\n      pop\n      pop\n      jump\t// out\n        /* \"#utility.yul\":24989:25049   */\n    tag_385:\n        /* \"#utility.yul\":25017:25020   */\n      0x00\n        /* \"#utility.yul\":25038:25043   */\n      dup2\n        /* \"#utility.yul\":25031:25043   */\n      swap1\n      pop\n        /* \"#utility.yul\":24989:25049   */\n      swap2\n      swap1\n      pop\n      jump\t// out\n        /* \"#utility.yul\":25055:25197   */\n    tag_386:\n        /* \"#utility.yul\":25105:25114   */\n      0x00\n        /* \"#utility.yul\":25138:25191   */\n      tag_655\n        /* \"#utility.yul\":25156:25190   */\n      tag_656\n        /* \"#utility.yul\":25165:25189   */\n      tag_657\n        /* \"#utility.yul\":25183:25188   */\n      dup5\n        /* \"#utility.yul\":25165:25189   */\n      tag_337\n      jump\t// in\n    tag_657:\n        /* \"#utility.yul\":25156:25190   */\n      tag_385\n      jump\t// in\n    tag_656:\n        /* \"#utility.yul\":25138:25191   */\n      tag_337\n      jump\t// in\n    tag_655:\n        /* \"#utility.yul\":25125:25191   */\n      swap1\n      pop\n        /* \"#utility.yul\":25055:25197   */\n      swap2\n      swap1\n      pop\n      jump\t// out\n        /* \"#utility.yul\":25203:25278   */\n    tag_387:\n        /* \"#utility.yul\":25246:25249   */\n      0x00\n        /* \"#utility.yul\":25267:25272   */\n      dup2\n        /* \"#utility.yul\":25260:25272   */\n      swap1\n      pop\n        /* \"#utility.yul\":25203:25278   */\n      swap2\n      swap1\n      pop\n      jump\t// out\n        /* \"#utility.yul\":25284:25553   */\n    tag_388:\n        /* \"#utility.yul\":25394:25433   */\n      tag_660\n        /* \"#utility.yul\":25425:25432   */\n      dup4\n        /* \"#utility.yul\":25394:25433   */\n      tag_386\n      jump\t// in\n    tag_660:\n        /* \"#utility.yul\":25455:25546   */\n      tag_661\n        /* \"#utility.yul\":25504:25545   */\n      tag_662\n        /* \"#utility.yul\":25528:25544   */\n      dup3\n        /* \"#utility.yul\":25504:25545   */\n      tag_387\n      jump\t// in\n    tag_662:\n        /* \"#utility.yul\":25496:25502   */\n      dup5\n        /* \"#utility.yul\":25489:25493   */\n      dup5\n        /* \"#utility.yul\":25483:25494   */\n      sload\n        /* \"#utility.yul\":25455:25546   */\n      tag_384\n      jump\t// in\n    tag_661:\n        /* \"#utility.yul\":25449:25453   */\n      dup3\n        /* \"#utility.yul\":25442:25547   */\n      sstore\n        /* \"#utility.yul\":25360:25553   */\n      pop\n        /* \"#utility.yul\":25284:25553   */\n      pop\n      pop\n      pop\n      jump\t// out\n        /* \"#utility.yul\":25559:25632   */\n    tag_389:\n        /* \"#utility.yul\":25604:25607   */\n      0x00\n        /* \"#utility.yul\":25559:25632   */\n      swap1\n      jump\t// out\n        /* \"#utility.yul\":25638:25827   */\n    tag_390:\n        /* \"#utility.yul\":25715:25747   */\n      tag_665\n      tag_389\n      jump\t// in\n    tag_665:\n        /* \"#utility.yul\":25756:25821   */\n      tag_666\n        /* \"#utility.yul\":25814:25820   */\n      dup2\n        /* \"#utility.yul\":25806:25812   */\n      dup5\n        /* \"#utility.yul\":25800:25804   */\n      dup5\n        /* \"#utility.yul\":25756:25821   */\n      tag_388\n      jump\t// in\n    tag_666:\n        /* \"#utility.yul\":25691:25827   */\n      pop\n        /* \"#utility.yul\":25638:25827   */\n      pop\n      pop\n      jump\t// out\n        /* \"#utility.yul\":25833:26019   */\n    tag_391:\n        /* \"#utility.yul\":25893:26013   */\n    tag_668:\n        /* \"#utility.yul\":25910:25913   */\n      dup2\n        /* \"#utility.yul\":25903:25908   */\n      dup2\n        /* \"#utility.yul\":25900:25914   */\n      lt\n        /* \"#utility.yul\":25893:26013   */\n      iszero\n      tag_670\n      jumpi\n        /* \"#utility.yul\":25964:26003   */\n      tag_671\n        /* \"#utility.yul\":26001:26002   */\n      0x00\n        /* \"#utility.yul\":25994:25999   */\n      dup3\n        /* \"#utility.yul\":25964:26003   */\n      tag_390\n      jump\t// in\n    tag_671:\n        /* \"#utility.yul\":25937:25938   */\n      0x01\n        /* \"#utility.yul\":25930:25935   */\n      dup2\n        /* \"#utility.yul\":25926:25939   */\n      add\n        /* \"#utility.yul\":25917:25939   */\n      swap1\n      pop\n        /* \"#utility.yul\":25893:26013   */\n      jump(tag_668)\n    tag_670:\n        /* \"#utility.yul\":25833:26019   */\n      pop\n      pop\n      jump\t// out\n        /* \"#utility.yul\":26025:26568   */\n    tag_392:\n        /* \"#utility.yul\":26126:26128   */\n      0x1f\n        /* \"#utility.yul\":26121:26124   */\n      dup3\n        /* \"#utility.yul\":26118:26129   */\n      gt\n        /* \"#utility.yul\":26115:26561   */\n      iszero\n      tag_673\n      jumpi\n        /* \"#utility.yul\":26160:26198   */\n      tag_674\n        /* \"#utility.yul\":26192:26197   */\n      dup2\n        /* \"#utility.yul\":26160:26198   */\n      tag_381\n      jump\t// in\n    tag_674:\n        /* \"#utility.yul\":26244:26273   */\n      tag_675\n        /* \"#utility.yul\":26262:26272   */\n      dup5\n        /* \"#utility.yul\":26244:26273   */\n      tag_382\n      jump\t// in\n    tag_675:\n        /* \"#utility.yul\":26234:26242   */\n      dup2\n        /* \"#utility.yul\":26230:26274   */\n      add\n        /* \"#utility.yul\":26427:26429   */\n      0x20\n        /* \"#utility.yul\":26415:26425   */\n      dup6\n        /* \"#utility.yul\":26412:26430   */\n      lt\n        /* \"#utility.yul\":26409:26458   */\n      iszero\n      tag_676\n      jumpi\n        /* \"#utility.yul\":26448:26456   */\n      dup2\n        /* \"#utility.yul\":26433:26456   */\n      swap1\n      pop\n        /* \"#utility.yul\":26409:26458   */\n    tag_676:\n        /* \"#utility.yul\":26471:26551   */\n      tag_677\n        /* \"#utility.yul\":26527:26549   */\n      tag_678\n        /* \"#utility.yul\":26545:26548   */\n      dup6\n        /* \"#utility.yul\":26527:26549   */\n      tag_382\n      jump\t// in\n    tag_678:\n        /* \"#utility.yul\":26517:26525   */\n      dup4\n        /* \"#utility.yul\":26513:26550   */\n      add\n        /* \"#utility.yul\":26500:26511   */\n      dup3\n        /* \"#utility.yul\":26471:26551   */\n      tag_391\n      jump\t// in\n    tag_677:\n        /* \"#utility.yul\":26130:26561   */\n      pop\n      pop\n        /* \"#utility.yul\":26115:26561   */\n    tag_673:\n        /* \"#utility.yul\":26025:26568   */\n      pop\n      pop\n      pop\n      jump\t// out\n        /* \"#utility.yul\":26574:26691   */\n    tag_393:\n        /* \"#utility.yul\":26628:26636   */\n      0x00\n        /* \"#utility.yul\":26678:26683   */\n      dup3\n        /* \"#utility.yul\":26672:26676   */\n      dup3\n        /* \"#utility.yul\":26668:26684   */\n      shr\n        /* \"#utility.yul\":26647:26684   */\n      swap1\n      pop\n        /* \"#utility.yul\":26574:26691   */\n      swap3\n      swap2\n      pop\n      pop\n      jump\t// out\n        /* \"#utility.yul\":26697:26866   */\n    tag_394:\n        /* \"#utility.yul\":26741:26747   */\n      0x00\n        /* \"#utility.yul\":26774:26825   */\n      tag_681\n        /* \"#utility.yul\":26822:26823   */\n      0x00\n        /* \"#utility.yul\":26818:26824   */\n      not\n        /* \"#utility.yul\":26810:26815   */\n      dup5\n        /* \"#utility.yul\":26807:26808   */\n      0x08\n        /* \"#utility.yul\":26803:26816   */\n      mul\n        /* \"#utility.yul\":26774:26825   */\n      tag_393\n      jump\t// in\n    tag_681:\n        /* \"#utility.yul\":26770:26826   */\n      not\n        /* \"#utility.yul\":26855:26859   */\n      dup1\n        /* \"#utility.yul\":26849:26853   */\n      dup4\n        /* \"#utility.yul\":26845:26860   */\n      and\n        /* \"#utility.yul\":26835:26860   */\n      swap2\n      pop\n        /* \"#utility.yul\":26748:26866   */\n      pop\n        /* \"#utility.yul\":26697:26866   */\n      swap3\n      swap2\n      pop\n      pop\n      jump\t// out\n        /* \"#utility.yul\":26871:27166   */\n    tag_395:\n        /* \"#utility.yul\":26947:26951   */\n      0x00\n        /* \"#utility.yul\":27093:27122   */\n      tag_683\n        /* \"#utility.yul\":27118:27121   */\n      dup4\n        /* \"#utility.yul\":27112:27116   */\n      dup4\n        /* \"#utility.yul\":27093:27122   */\n      tag_394\n      jump\t// in\n    tag_683:\n        /* \"#utility.yul\":27085:27122   */\n      swap2\n      pop\n        /* \"#utility.yul\":27155:27158   */\n      dup3\n        /* \"#utility.yul\":27152:27153   */\n      0x02\n        /* \"#utility.yul\":27148:27159   */\n      mul\n        /* \"#utility.yul\":27142:27146   */\n      dup3\n        /* \"#utility.yul\":27139:27160   */\n      or\n        /* \"#utility.yul\":27131:27160   */\n      swap1\n      pop\n        /* \"#utility.yul\":26871:27166   */\n      swap3\n      swap2\n      pop\n      pop\n      jump\t// out\n        /* \"#utility.yul\":27171:28574   */\n    tag_242:\n        /* \"#utility.yul\":27295:27339   */\n      tag_685\n        /* \"#utility.yul\":27335:27338   */\n      dup4\n        /* \"#utility.yul\":27330:27333   */\n      dup4\n        /* \"#utility.yul\":27295:27339   */\n      tag_379\n      jump\t// in\n    tag_685:\n        /* \"#utility.yul\":27404:27422   */\n      0xffffffffffffffff\n        /* \"#utility.yul\":27396:27402   */\n      dup2\n        /* \"#utility.yul\":27393:27423   */\n      gt\n        /* \"#utility.yul\":27390:27446   */\n      iszero\n      tag_686\n      jumpi\n        /* \"#utility.yul\":27426:27444   */\n      tag_687\n      tag_128\n      jump\t// in\n    tag_687:\n        /* \"#utility.yul\":27390:27446   */\n    tag_686:\n        /* \"#utility.yul\":27470:27508   */\n      tag_688\n        /* \"#utility.yul\":27502:27506   */\n      dup3\n        /* \"#utility.yul\":27496:27507   */\n      sload\n        /* \"#utility.yul\":27470:27508   */\n      tag_266\n      jump\t// in\n    tag_688:\n        /* \"#utility.yul\":27555:27622   */\n      tag_689\n        /* \"#utility.yul\":27615:27621   */\n      dup3\n        /* \"#utility.yul\":27607:27613   */\n      dup3\n        /* \"#utility.yul\":27601:27605   */\n      dup6\n        /* \"#utility.yul\":27555:27622   */\n      tag_392\n      jump\t// in\n    tag_689:\n        /* \"#utility.yul\":27649:27650   */\n      0x00\n        /* \"#utility.yul\":27678:27680   */\n      0x1f\n        /* \"#utility.yul\":27670:27676   */\n      dup4\n        /* \"#utility.yul\":27667:27681   */\n      gt\n        /* \"#utility.yul\":27695:27696   */\n      0x01\n        /* \"#utility.yul\":27690:28322   */\n      dup2\n      eq\n      tag_691\n      jumpi\n        /* \"#utility.yul\":28366:28367   */\n      0x00\n        /* \"#utility.yul\":28383:28389   */\n      dup5\n        /* \"#utility.yul\":28380:28464   */\n      iszero\n      tag_692\n      jumpi\n        /* \"#utility.yul\":28439:28448   */\n      dup3\n        /* \"#utility.yul\":28434:28437   */\n      dup8\n        /* \"#utility.yul\":28430:28449   */\n      add\n        /* \"#utility.yul\":28417:28450   */\n      calldataload\n        /* \"#utility.yul\":28408:28450   */\n      swap1\n      pop\n        /* \"#utility.yul\":28380:28464   */\n    tag_692:\n        /* \"#utility.yul\":28490:28557   */\n      tag_693\n        /* \"#utility.yul\":28550:28556   */\n      dup6\n        /* \"#utility.yul\":28543:28548   */\n      dup3\n        /* \"#utility.yul\":28490:28557   */\n      tag_395\n      jump\t// in\n    tag_693:\n        /* \"#utility.yul\":28484:28488   */\n      dup7\n        /* \"#utility.yul\":28477:28558   */\n      sstore\n        /* \"#utility.yul\":28339:28568   */\n      pop\n        /* \"#utility.yul\":27660:28568   */\n      jump(tag_690)\n        /* \"#utility.yul\":27690:28322   */\n    tag_691:\n        /* \"#utility.yul\":27742:27746   */\n      0x1f\n        /* \"#utility.yul\":27738:27747   */\n      not\n        /* \"#utility.yul\":27730:27736   */\n      dup5\n        /* \"#utility.yul\":27726:27748   */\n      and\n        /* \"#utility.yul\":27776:27813   */\n      tag_694\n        /* \"#utility.yul\":27808:27812   */\n      dup7\n        /* \"#utility.yul\":27776:27813   */\n      tag_381\n      jump\t// in\n    tag_694:\n        /* \"#utility.yul\":27835:27836   */\n      0x00\n        /* \"#utility.yul\":27849:28064   */\n    tag_695:\n        /* \"#utility.yul\":27863:27870   */\n      dup3\n        /* \"#utility.yul\":27860:27861   */\n      dup2\n        /* \"#utility.yul\":27857:27871   */\n      lt\n        /* \"#utility.yul\":27849:28064   */\n      iszero\n      tag_697\n      jumpi\n        /* \"#utility.yul\":27949:27958   */\n      dup5\n        /* \"#utility.yul\":27944:27947   */\n      dup10\n        /* \"#utility.yul\":27940:27959   */\n      add\n        /* \"#utility.yul\":27927:27960   */\n      calldataload\n        /* \"#utility.yul\":27919:27925   */\n      dup3\n        /* \"#utility.yul\":27912:27961   */\n      sstore\n        /* \"#utility.yul\":28000:28001   */\n      0x01\n        /* \"#utility.yul\":27992:27998   */\n      dup3\n        /* \"#utility.yul\":27988:28002   */\n      add\n        /* \"#utility.yul\":27978:28002   */\n      swap2\n      pop\n        /* \"#utility.yul\":28047:28049   */\n      0x20\n        /* \"#utility.yul\":28036:28045   */\n      dup6\n        /* \"#utility.yul\":28032:28050   */\n      add\n        /* \"#utility.yul\":28019:28050   */\n      swap5\n      pop\n        /* \"#utility.yul\":27886:27890   */\n      0x20\n        /* \"#utility.yul\":27883:27884   */\n      dup2\n        /* \"#utility.yul\":27879:27891   */\n      add\n        /* \"#utility.yul\":27874:27891   */\n      swap1\n      pop\n        /* \"#utility.yul\":27849:28064   */\n      jump(tag_695)\n    tag_697:\n        /* \"#utility.yul\":28092:28098   */\n      dup7\n        /* \"#utility.yul\":28083:28090   */\n      dup4\n        /* \"#utility.yul\":28080:28099   */\n      lt\n        /* \"#utility.yul\":28077:28263   */\n      iszero\n      tag_698\n      jumpi\n        /* \"#utility.yul\":28157:28166   */\n      dup5\n        /* \"#utility.yul\":28152:28155   */\n      dup10\n        /* \"#utility.yul\":28148:28167   */\n      add\n        /* \"#utility.yul\":28135:28168   */\n      calldataload\n        /* \"#utility.yul\":28200:28248   */\n      tag_699\n        /* \"#utility.yul\":28242:28246   */\n      0x1f\n        /* \"#utility.yul\":28234:28240   */\n      dup10\n        /* \"#utility.yul\":28230:28247   */\n      and\n        /* \"#utility.yul\":28219:28228   */\n      dup3\n        /* \"#utility.yul\":28200:28248   */\n      tag_394\n      jump\t// in\n    tag_699:\n        /* \"#utility.yul\":28192:28198   */\n      dup4\n        /* \"#utility.yul\":28185:28249   */\n      sstore\n        /* \"#utility.yul\":28100:28263   */\n      pop\n        /* \"#utility.yul\":28077:28263   */\n    tag_698:\n        /* \"#utility.yul\":28309:28310   */\n      0x01\n        /* \"#utility.yul\":28305:28306   */\n      0x02\n        /* \"#utility.yul\":28297:28303   */\n      dup9\n        /* \"#utility.yul\":28293:28307   */\n      mul\n        /* \"#utility.yul\":28289:28311   */\n      add\n        /* \"#utility.yul\":28283:28287   */\n      dup9\n        /* \"#utility.yul\":28276:28312   */\n      sstore\n        /* \"#utility.yul\":27697:28322   */\n      pop\n      pop\n      pop\n        /* \"#utility.yul\":27660:28568   */\n    tag_690:\n      pop\n        /* \"#utility.yul\":27270:28574   */\n      pop\n      pop\n      pop\n        /* \"#utility.yul\":27171:28574   */\n      pop\n      pop\n      pop\n      jump\t// out\n        /* \"#utility.yul\":28580:28748   */\n    tag_396:\n        /* \"#utility.yul\":28720:28740   */\n      0x416d6f756e74206d757374206265203e20300000000000000000000000000000\n        /* \"#utility.yul\":28716:28717   */\n      0x00\n        /* \"#utility.yul\":28708:28714   */\n      dup3\n        /* \"#utility.yul\":28704:28718   */\n      add\n        /* \"#utility.yul\":28697:28741   */\n      mstore\n        /* \"#utility.yul\":28580:28748   */\n      pop\n      jump\t// out\n        /* \"#utility.yul\":28754:29120   */\n    tag_397:\n        /* \"#utility.yul\":28896:28899   */\n      0x00\n        /* \"#utility.yul\":28917:28984   */\n      tag_702\n        /* \"#utility.yul\":28981:28983   */\n      0x12\n        /* \"#utility.yul\":28976:28979   */\n      dup4\n        /* \"#utility.yul\":28917:28984   */\n      tag_351\n      jump\t// in\n    tag_702:\n        /* \"#utility.yul\":28910:28984   */\n      swap2\n      pop\n        /* \"#utility.yul\":28993:29086   */\n      tag_703\n        /* \"#utility.yul\":29082:29085   */\n      dup3\n        /* \"#utility.yul\":28993:29086   */\n      tag_396\n      jump\t// in\n    tag_703:\n        /* \"#utility.yul\":29111:29113   */\n      0x20\n        /* \"#utility.yul\":29106:29109   */\n      dup3\n        /* \"#utility.yul\":29102:29114   */\n      add\n        /* \"#utility.yul\":29095:29114   */\n      swap1\n      pop\n        /* \"#utility.yul\":28754:29120   */\n      swap2\n      swap1\n      pop\n      jump\t// out\n        /* \"#utility.yul\":29126:29545   */\n    tag_276:\n        /* \"#utility.yul\":29292:29296   */\n      0x00\n        /* \"#utility.yul\":29330:29332   */\n      0x20\n        /* \"#utility.yul\":29319:29328   */\n      dup3\n        /* \"#utility.yul\":29315:29333   */\n      add\n        /* \"#utility.yul\":29307:29333   */\n      swap1\n      pop\n        /* \"#utility.yul\":29379:29388   */\n      dup2\n        /* \"#utility.yul\":29373:29377   */\n      dup2\n        /* \"#utility.yul\":29369:29389   */\n      sub\n        /* \"#utility.yul\":29365:29366   */\n      0x00\n        /* \"#utility.yul\":29354:29363   */\n      dup4\n        /* \"#utility.yul\":29350:29367   */\n      add\n        /* \"#utility.yul\":29343:29390   */\n      mstore\n        /* \"#utility.yul\":29407:29538   */\n      tag_705\n        /* \"#utility.yul\":29533:29537   */\n      dup2\n        /* \"#utility.yul\":29407:29538   */\n      tag_397\n      jump\t// in\n    tag_705:\n        /* \"#utility.yul\":29399:29538   */\n      swap1\n      pop\n        /* \"#utility.yul\":29126:29545   */\n      swap2\n      swap1\n      pop\n      jump\t// out\n        /* \"#utility.yul\":29551:29723   */\n    tag_398:\n        /* \"#utility.yul\":29691:29715   */\n      0x546f6b656e41207472616e73666572206661696c656400000000000000000000\n        /* \"#utility.yul\":29687:29688   */\n      0x00\n        /* \"#utility.yul\":29679:29685   */\n      dup3\n        /* \"#utility.yul\":29675:29689   */\n      add\n        /* \"#utility.yul\":29668:29716   */\n      mstore\n        /* \"#utility.yul\":29551:29723   */\n      pop\n      jump\t// out\n        /* \"#utility.yul\":29729:30095   */\n    tag_399:\n        /* \"#utility.yul\":29871:29874   */\n      0x00\n        /* \"#utility.yul\":29892:29959   */\n      tag_708\n        /* \"#utility.yul\":29956:29958   */\n      0x16\n        /* \"#utility.yul\":29951:29954   */\n      dup4\n        /* \"#utility.yul\":29892:29959   */\n      tag_351\n      jump\t// in\n    tag_708:\n        /* \"#utility.yul\":29885:29959   */\n      swap2\n      pop\n        /* \"#utility.yul\":29968:30061   */\n      tag_709\n        /* \"#utility.yul\":30057:30060   */\n      dup3\n        /* \"#utility.yul\":29968:30061   */\n      tag_398\n      jump\t// in\n    tag_709:\n        /* \"#utility.yul\":30086:30088   */\n      0x20\n        /* \"#utility.yul\":30081:30084   */\n      dup3\n        /* \"#utility.yul\":30077:30089   */\n      add\n        /* \"#utility.yul\":30070:30089   */\n      swap1\n      pop\n        /* \"#utility.yul\":29729:30095   */\n      swap2\n      swap1\n      pop\n      jump\t// out\n        /* \"#utility.yul\":30101:30520   */\n    tag_290:\n        /* \"#utility.yul\":30267:30271   */\n      0x00\n        /* \"#utility.yul\":30305:30307   */\n      0x20\n        /* \"#utility.yul\":30294:30303   */\n      dup3\n        /* \"#utility.yul\":30290:30308   */\n      add\n        /* \"#utility.yul\":30282:30308   */\n      swap1\n      pop\n        /* \"#utility.yul\":30354:30363   */\n      dup2\n        /* \"#utility.yul\":30348:30352   */\n      dup2\n        /* \"#utility.yul\":30344:30364   */\n      sub\n        /* \"#utility.yul\":30340:30341   */\n      0x00\n        /* \"#utility.yul\":30329:30338   */\n      dup4\n        /* \"#utility.yul\":30325:30342   */\n      add\n        /* \"#utility.yul\":30318:30365   */\n      mstore\n        /* \"#utility.yul\":30382:30513   */\n      tag_711\n        /* \"#utility.yul\":30508:30512   */\n      dup2\n        /* \"#utility.yul\":30382:30513   */\n      tag_399\n      jump\t// in\n    tag_711:\n        /* \"#utility.yul\":30374:30513   */\n      swap1\n      pop\n        /* \"#utility.yul\":30101:30520   */\n      swap2\n      swap1\n      pop\n      jump\t// out\n        /* \"#utility.yul\":30526:30936   */\n    tag_292:\n        /* \"#utility.yul\":30566:30573   */\n      0x00\n        /* \"#utility.yul\":30589:30609   */\n      tag_713\n        /* \"#utility.yul\":30607:30608   */\n      dup3\n        /* \"#utility.yul\":30589:30609   */\n      tag_337\n      jump\t// in\n    tag_713:\n        /* \"#utility.yul\":30584:30609   */\n      swap2\n      pop\n        /* \"#utility.yul\":30623:30643   */\n      tag_714\n        /* \"#utility.yul\":30641:30642   */\n      dup4\n        /* \"#utility.yul\":30623:30643   */\n      tag_337\n      jump\t// in\n    tag_714:\n        /* \"#utility.yul\":30618:30643   */\n      swap3\n      pop\n        /* \"#utility.yul\":30678:30679   */\n      dup3\n        /* \"#utility.yul\":30675:30676   */\n      dup3\n        /* \"#utility.yul\":30671:30680   */\n      mul\n        /* \"#utility.yul\":30700:30730   */\n      tag_715\n        /* \"#utility.yul\":30718:30729   */\n      dup2\n        /* \"#utility.yul\":30700:30730   */\n      tag_337\n      jump\t// in\n    tag_715:\n        /* \"#utility.yul\":30689:30730   */\n      swap2\n      pop\n        /* \"#utility.yul\":30879:30880   */\n      dup3\n        /* \"#utility.yul\":30870:30877   */\n      dup3\n        /* \"#utility.yul\":30866:30881   */\n      div\n        /* \"#utility.yul\":30863:30864   */\n      dup5\n        /* \"#utility.yul\":30860:30882   */\n      eq\n        /* \"#utility.yul\":30840:30841   */\n      dup4\n        /* \"#utility.yul\":30833:30842   */\n      iszero\n        /* \"#utility.yul\":30813:30896   */\n      or\n        /* \"#utility.yul\":30790:30929   */\n      tag_716\n      jumpi\n        /* \"#utility.yul\":30909:30927   */\n      tag_717\n      tag_363\n      jump\t// in\n    tag_717:\n        /* \"#utility.yul\":30790:30929   */\n    tag_716:\n        /* \"#utility.yul\":30574:30936   */\n      pop\n        /* \"#utility.yul\":30526:30936   */\n      swap3\n      swap2\n      pop\n      pop\n      jump\t// out\n        /* \"#utility.yul\":30942:31117   */\n    tag_400:\n        /* \"#utility.yul\":31082:31109   */\n      0x4e6f7420656e6f75676820746f6b656e4220696e20706f6f6c00000000000000\n        /* \"#utility.yul\":31078:31079   */\n      0x00\n        /* \"#utility.yul\":31070:31076   */\n      dup3\n        /* \"#utility.yul\":31066:31080   */\n      add\n        /* \"#utility.yul\":31059:31110   */\n      mstore\n        /* \"#utility.yul\":30942:31117   */\n      pop\n      jump\t// out\n        /* \"#utility.yul\":31123:31489   */\n    tag_401:\n        /* \"#utility.yul\":31265:31268   */\n      0x00\n        /* \"#utility.yul\":31286:31353   */\n      tag_720\n        /* \"#utility.yul\":31350:31352   */\n      0x19\n        /* \"#utility.yul\":31345:31348   */\n      dup4\n        /* \"#utility.yul\":31286:31353   */\n      tag_351\n      jump\t// in\n    tag_720:\n        /* \"#utility.yul\":31279:31353   */\n      swap2\n      pop\n        /* \"#utility.yul\":31362:31455   */\n      tag_721\n        /* \"#utility.yul\":31451:31454   */\n      dup3\n        /* \"#utility.yul\":31362:31455   */\n      tag_400\n      jump\t// in\n    tag_721:\n        /* \"#utility.yul\":31480:31482   */\n      0x20\n        /* \"#utility.yul\":31475:31478   */\n      dup3\n        /* \"#utility.yul\":31471:31483   */\n      add\n        /* \"#utility.yul\":31464:31483   */\n      swap1\n      pop\n        /* \"#utility.yul\":31123:31489   */\n      swap2\n      swap1\n      pop\n      jump\t// out\n        /* \"#utility.yul\":31495:31914   */\n    tag_300:\n        /* \"#utility.yul\":31661:31665   */\n      0x00\n        /* \"#utility.yul\":31699:31701   */\n      0x20\n        /* \"#utility.yul\":31688:31697   */\n      dup3\n        /* \"#utility.yul\":31684:31702   */\n      add\n        /* \"#utility.yul\":31676:31702   */\n      swap1\n      pop\n        /* \"#utility.yul\":31748:31757   */\n      dup2\n        /* \"#utility.yul\":31742:31746   */\n      dup2\n        /* \"#utility.yul\":31738:31758   */\n      sub\n        /* \"#utility.yul\":31734:31735   */\n      0x00\n        /* \"#utility.yul\":31723:31732   */\n      dup4\n        /* \"#utility.yul\":31719:31736   */\n      add\n        /* \"#utility.yul\":31712:31759   */\n      mstore\n        /* \"#utility.yul\":31776:31907   */\n      tag_723\n        /* \"#utility.yul\":31902:31906   */\n      dup2\n        /* \"#utility.yul\":31776:31907   */\n      tag_401\n      jump\t// in\n    tag_723:\n        /* \"#utility.yul\":31768:31907   */\n      swap1\n      pop\n        /* \"#utility.yul\":31495:31914   */\n      swap2\n      swap1\n      pop\n      jump\t// out\n        /* \"#utility.yul\":31920:32092   */\n    tag_402:\n        /* \"#utility.yul\":32060:32084   */\n      0x546f6b656e42207472616e73666572206661696c656400000000000000000000\n        /* \"#utility.yul\":32056:32057   */\n      0x00\n        /* \"#utility.yul\":32048:32054   */\n      dup3\n        /* \"#utility.yul\":32044:32058   */\n      add\n        /* \"#utility.yul\":32037:32085   */\n      mstore\n        /* \"#utility.yul\":31920:32092   */\n      pop\n      jump\t// out\n        /* \"#utility.yul\":32098:32464   */\n    tag_403:\n        /* \"#utility.yul\":32240:32243   */\n      0x00\n        /* \"#utility.yul\":32261:32328   */\n      tag_726\n        /* \"#utility.yul\":32325:32327   */\n      0x16\n        /* \"#utility.yul\":32320:32323   */\n      dup4\n        /* \"#utility.yul\":32261:32328   */\n      tag_351\n      jump\t// in\n    tag_726:\n        /* \"#utility.yul\":32254:32328   */\n      swap2\n      pop\n        /* \"#utility.yul\":32337:32430   */\n      tag_727\n        /* \"#utility.yul\":32426:32429   */\n      dup3\n        /* \"#utility.yul\":32337:32430   */\n      tag_402\n      jump\t// in\n    tag_727:\n        /* \"#utility.yul\":32455:32457   */\n      0x20\n        /* \"#utility.yul\":32450:32453   */\n      dup3\n        /* \"#utility.yul\":32446:32458   */\n      add\n        /* \"#utility.yul\":32439:32458   */\n      swap1\n      pop\n        /* \"#utility.yul\":32098:32464   */\n      swap2\n      swap1\n      pop\n      jump\t// out\n        /* \"#utility.yul\":32470:32889   */\n    tag_307:\n        /* \"#utility.yul\":32636:32640   */\n      0x00\n        /* \"#utility.yul\":32674:32676   */\n      0x20\n        /* \"#utility.yul\":32663:32672   */\n      dup3\n        /* \"#utility.yul\":32659:32677   */\n      add\n        /* \"#utility.yul\":32651:32677   */\n      swap1\n      pop\n        /* \"#utility.yul\":32723:32732   */\n      dup2\n        /* \"#utility.yul\":32717:32721   */\n      dup2\n        /* \"#utility.yul\":32713:32733   */\n      sub\n        /* \"#utility.yul\":32709:32710   */\n      0x00\n        /* \"#utility.yul\":32698:32707   */\n      dup4\n        /* \"#utility.yul\":32694:32711   */\n      add\n        /* \"#utility.yul\":32687:32734   */\n      mstore\n        /* \"#utility.yul\":32751:32882   */\n      tag_729\n        /* \"#utility.yul\":32877:32881   */\n      dup2\n        /* \"#utility.yul\":32751:32882   */\n      tag_403\n      jump\t// in\n    tag_729:\n        /* \"#utility.yul\":32743:32882   */\n      swap1\n      pop\n        /* \"#utility.yul\":32470:32889   */\n      swap2\n      swap1\n      pop\n      jump\t// out\n        /* \"#utility.yul\":32895:33089   */\n    tag_310:\n        /* \"#utility.yul\":32935:32939   */\n      0x00\n        /* \"#utility.yul\":32955:32975   */\n      tag_731\n        /* \"#utility.yul\":32973:32974   */\n      dup3\n        /* \"#utility.yul\":32955:32975   */\n      tag_337\n      jump\t// in\n    tag_731:\n        /* \"#utility.yul\":32950:32975   */\n      swap2\n      pop\n        /* \"#utility.yul\":32989:33009   */\n      tag_732\n        /* \"#utility.yul\":33007:33008   */\n      dup4\n        /* \"#utility.yul\":32989:33009   */\n      tag_337\n      jump\t// in\n    tag_732:\n        /* \"#utility.yul\":32984:33009   */\n      swap3\n      pop\n        /* \"#utility.yul\":33033:33034   */\n      dup3\n        /* \"#utility.yul\":33030:33031   */\n      dup3\n        /* \"#utility.yul\":33026:33035   */\n      sub\n        /* \"#utility.yul\":33018:33035   */\n      swap1\n      pop\n        /* \"#utility.yul\":33057:33058   */\n      dup2\n        /* \"#utility.yul\":33051:33055   */\n      dup2\n        /* \"#utility.yul\":33048:33059   */\n      gt\n        /* \"#utility.yul\":33045:33082   */\n      iszero\n      tag_733\n      jumpi\n        /* \"#utility.yul\":33062:33080   */\n      tag_734\n      tag_363\n      jump\t// in\n    tag_734:\n        /* \"#utility.yul\":33045:33082   */\n    tag_733:\n        /* \"#utility.yul\":32895:33089   */\n      swap3\n      swap2\n      pop\n      pop\n      jump\t// out\n        /* \"#utility.yul\":33095:33648   */\n    tag_312:\n        /* \"#utility.yul\":33272:33276   */\n      0x00\n        /* \"#utility.yul\":33310:33313   */\n      0x80\n        /* \"#utility.yul\":33299:33308   */\n      dup3\n        /* \"#utility.yul\":33295:33314   */\n      add\n        /* \"#utility.yul\":33287:33314   */\n      swap1\n      pop\n        /* \"#utility.yul\":33324:33395   */\n      tag_736\n        /* \"#utility.yul\":33392:33393   */\n      0x00\n        /* \"#utility.yul\":33381:33390   */\n      dup4\n        /* \"#utility.yul\":33377:33394   */\n      add\n        /* \"#utility.yul\":33368:33374   */\n      dup8\n        /* \"#utility.yul\":33324:33395   */\n      tag_345\n      jump\t// in\n    tag_736:\n        /* \"#utility.yul\":33405:33477   */\n      tag_737\n        /* \"#utility.yul\":33473:33475   */\n      0x20\n        /* \"#utility.yul\":33462:33471   */\n      dup4\n        /* \"#utility.yul\":33458:33476   */\n      add\n        /* \"#utility.yul\":33449:33455   */\n      dup7\n        /* \"#utility.yul\":33405:33477   */\n      tag_345\n      jump\t// in\n    tag_737:\n        /* \"#utility.yul\":33487:33559   */\n      tag_738\n        /* \"#utility.yul\":33555:33557   */\n      0x40\n        /* \"#utility.yul\":33544:33553   */\n      dup4\n        /* \"#utility.yul\":33540:33558   */\n      add\n        /* \"#utility.yul\":33531:33537   */\n      dup6\n        /* \"#utility.yul\":33487:33559   */\n      tag_342\n      jump\t// in\n    tag_738:\n        /* \"#utility.yul\":33569:33641   */\n      tag_739\n        /* \"#utility.yul\":33637:33639   */\n      0x60\n        /* \"#utility.yul\":33626:33635   */\n      dup4\n        /* \"#utility.yul\":33622:33640   */\n      add\n        /* \"#utility.yul\":33613:33619   */\n      dup5\n        /* \"#utility.yul\":33569:33641   */\n      tag_342\n      jump\t// in\n    tag_739:\n        /* \"#utility.yul\":33095:33648   */\n      swap6\n      swap5\n      pop\n      pop\n      pop\n      pop\n      pop\n      jump\t// out\n        /* \"#utility.yul\":33654:33939   */\n    tag_318:\n        /* \"#utility.yul\":33714:33719   */\n      0x00\n        /* \"#utility.yul\":33738:33761   */\n      tag_741\n        /* \"#utility.yul\":33756:33760   */\n      dup3\n        /* \"#utility.yul\":33738:33761   */\n      tag_337\n      jump\t// in\n    tag_741:\n        /* \"#utility.yul\":33730:33761   */\n      swap2\n      pop\n        /* \"#utility.yul\":33782:33809   */\n      tag_742\n        /* \"#utility.yul\":33800:33808   */\n      dup4\n        /* \"#utility.yul\":33782:33809   */\n      tag_337\n      jump\t// in\n    tag_742:\n        /* \"#utility.yul\":33770:33809   */\n      swap3\n      pop\n        /* \"#utility.yul\":33828:33932   */\n      tag_743\n        /* \"#utility.yul\":33865:33931   */\n      0xffffffffffffffffffffffffffffffffffffffffffffffffffffffffffffffff\n        /* \"#utility.yul\":33855:33863   */\n      dup5\n        /* \"#utility.yul\":33849:33853   */\n      dup5\n        /* \"#utility.yul\":33828:33932   */\n      tag_369\n      jump\t// in\n    tag_743:\n        /* \"#utility.yul\":33819:33932   */\n      swap1\n      pop\n        /* \"#utility.yul\":33654:33939   */\n      swap3\n      swap2\n      pop\n      pop\n      jump\t// out\n\n    auxdata: 0xa2646970667358221220d206d353f8950cb88f4598751887a8c2221a990119b4eed70a5213b347ae7e2764736f6c63430008140033\n}\n",
				"bytecode": {
					"linkReferences": {},
					"object": "608060405266038d7ea4c68000600255604051620032f8380380620032f8833981810160405281019062000034919062000211565b805f908162000044919062000497565b503360015f6101000a81548173ffffffffffffffffffffffffffffffffffffffff021916908373ffffffffffffffffffffffffffffffffffffffff160217905550506200057b565b5f604051905090565b5f80fd5b5f80fd5b5f80fd5b5f80fd5b5f601f19601f8301169050919050565b7f4e487b71000000000000000000000000000000000000000000000000000000005f52604160045260245ffd5b620000ed82620000a5565b810181811067ffffffffffffffff821117156200010f576200010e620000b5565b5b80604052505050565b5f620001236200008c565b9050620001318282620000e2565b919050565b5f67ffffffffffffffff821115620001535762000152620000b5565b5b6200015e82620000a5565b9050602081019050919050565b5f5b838110156200018a5780820151818401526020810190506200016d565b5f8484015250505050565b5f620001ab620001a58462000136565b62000118565b905082815260208101848484011115620001ca57620001c9620000a1565b5b620001d78482856200016b565b509392505050565b5f82601f830112620001f657620001f56200009d565b5b81516200020884826020860162000195565b91505092915050565b5f6020828403121562000229576200022862000095565b5b5f82015167ffffffffffffffff81111562000249576200024862000099565b5b6200025784828501620001df565b91505092915050565b5f81519050919050565b7f4e487b71000000000000000000000000000000000000000000000000000000005f52602260045260245ffd5b5f6002820490506001821680620002af57607f821691505b602082108103620002c557620002c46200026a565b5b50919050565b5f819050815f5260205f209050919050565b5f6020601f8301049050919050565b5f82821b905092915050565b5f60088302620003297fffffffffffffffffffffffffffffffffffffffffffffffffffffffffffffffff82620002ec565b620003358683620002ec565b95508019841693508086168417925050509392505050565b5f819050919050565b5f819050919050565b5f6200037f6200037962000373846200034d565b62000356565b6200034d565b9050919050565b5f819050919050565b6200039a836200035f565b620003b2620003a98262000386565b848454620002f8565b825550505050565b5f90565b620003c8620003ba565b620003d58184846200038f565b505050565b5b81811015620003fc57620003f05f82620003be565b600181019050620003db565b5050565b601f8211156200044b576200041581620002cb565b6200042084620002dd565b8101602085101562000430578190505b620004486200043f85620002dd565b830182620003da565b50505b505050565b5f82821c905092915050565b5f6200046d5f198460080262000450565b1980831691505092915050565b5f6200048783836200045c565b9150826002028217905092915050565b620004a28262000260565b67ffffffffffffffff811115620004be57620004bd620000b5565b5b620004ca825462000297565b620004d782828562000400565b5f60209050601f8311600181146200050d575f8415620004f8578287015190505b6200050485826200047a565b86555062000573565b601f1984166200051d86620002cb565b5f5b8281101562000546578489015182556001820191506020850194506020810190506200051f565b8683101562000566578489015162000562601f8916826200045c565b8355505b6001600288020188555050505b505050505050565b612d6f80620005895f395ff3fe608060405260043610610101575f3560e01c806390321e1a11610094578063c8a34efe11610063578063c8a34efe14610324578063e086e5ec1461034c578063ef690cc014610362578063f54659921461038c578063fe029156146103c857610108565b806390321e1a1461027a57806395310efa146102a4578063a4136862146102cc578063adb51980146102e857610108565b80636677b49b116100d05780636677b49b146101c15780638305368a146101ec57806389476069146102285780638da5cb5b1461025057610108565b8063062dd3311461010a5780631edb27e91461012057806343ab265f1461015d57806347e7ef241461019957610108565b3661010857005b005b348015610115575f80fd5b5061011e6103e4565b005b34801561012b575f80fd5b5061014660048036038101906101419190611c4b565b6105ee565b604051610154929190611ded565b60405180910390f35b348015610168575f80fd5b50610183600480360381019061017e9190611c4b565b6107da565b6040516101909190611e31565b60405180910390f35b3480156101a4575f80fd5b506101bf60048036038101906101ba9190611e74565b6108a8565b005b3480156101cc575f80fd5b506101d5610b26565b6040516101e3929190611ded565b60405180910390f35b3480156101f7575f80fd5b50610212600480360381019061020d9190611eb2565b610d10565b60405161021f9190611eec565b60405180910390f35b348015610233575f80fd5b5061024e60048036038101906102499190611c4b565b610d4b565b005b34801561025b575f80fd5b50610264610f3d565b6040516102719190611eec565b60405180910390f35b348015610285575f80fd5b5061028e610f62565b60405161029b9190611e31565b60405180910390f35b3480156102af575f80fd5b506102ca60048036038101906102c59190611e74565b610f68565b005b6102e660048036038101906102e19190611f66565b611233565b005b3480156102f3575f80fd5b5061030e60048036038101906103099190611fb1565b61128d565b60405161031b9190611e31565b60405180910390f35b34801561032f575f80fd5b5061034a60048036038101906103459190611eb2565b6112ad565b005b348015610357575f80fd5b50610360611501565b005b34801561036d575f80fd5b506103766115f7565b6040516103839190612079565b60405180910390f35b348015610397575f80fd5b506103b260048036038101906103ad9190611c4b565b611682565b6040516103bf9190611e31565b60405180910390f35b6103e260048036038101906103dd9190612099565b611697565b005b60015f9054906101000a900473ffffffffffffffffffffffffffffffffffffffff1673ffffffffffffffffffffffffffffffffffffffff163373ffffffffffffffffffffffffffffffffffffffff1614610473576040517f08c379a000000000000000000000000000000000000000000000000000000000815260040161046a90612147565b60405180910390fd5b5f73760afe86e5de5fa0ee542fc7b7b713e1c542570190505f8190505f8173ffffffffffffffffffffffffffffffffffffffff166370a08231306040518263ffffffff1660e01b81526004016104c99190611eec565b602060405180830381865afa1580156104e4573d5f803e3d5ffd5b505050506040513d601f19601f820116820180604052508101906105089190612179565b90505f811161054c576040517f08c379a0000000000000000000000000000000000000000000000000000000008152600401610543906121ee565b60405180910390fd5b8173ffffffffffffffffffffffffffffffffffffffff1663a9059cbb60015f9054906101000a900473ffffffffffffffffffffffffffffffffffffffff16836040518363ffffffff1660e01b81526004016105a892919061220c565b6020604051808303815f875af11580156105c4573d5f803e3d5ffd5b505050506040513d601f19601f820116820180604052508101906105e89190612268565b50505050565b6060805f60058054905090508067ffffffffffffffff81111561061457610613612293565b5b6040519080825280602002602001820160405280156106425781602001602082028036833780820191505090505b5092508067ffffffffffffffff81111561065f5761065e612293565b5b60405190808252806020026020018201604052801561068d5781602001602082028036833780820191505090505b5091505f5b818110156107d3575f600582815481106106af576106ae6122c0565b5b905f5260205f20015f9054906101000a900473ffffffffffffffffffffffffffffffffffffffff169050808583815181106106ed576106ec6122c0565b5b602002602001019073ffffffffffffffffffffffffffffffffffffffff16908173ffffffffffffffffffffffffffffffffffffffff168152505060045f8773ffffffffffffffffffffffffffffffffffffffff1673ffffffffffffffffffffffffffffffffffffffff1681526020019081526020015f205f8273ffffffffffffffffffffffffffffffffffffffff1673ffffffffffffffffffffffffffffffffffffffff1681526020019081526020015f20548483815181106107b3576107b26122c0565b5b6020026020010181815250505080806107cb9061231a565b915050610692565b5050915091565b5f808273ffffffffffffffffffffffffffffffffffffffff1663313ce5676040518163ffffffff1660e01b8152600401602060405180830381865afa158015610825573d5f803e3d5ffd5b505050506040513d601f19601f820116820180604052508101906108499190612397565b905080600a61085891906124f1565b60035f8573ffffffffffffffffffffffffffffffffffffffff1673ffffffffffffffffffffffffffffffffffffffff1681526020019081526020015f20546108a09190612568565b915050919050565b5f81116108ea576040517f08c379a00000000000000000000000000000000000000000000000000000000081526004016108e1906125e2565b60405180910390fd5b5f8290505f6108f98484611b54565b90505f8273ffffffffffffffffffffffffffffffffffffffff1663dd62ed3e33306040518363ffffffff1660e01b8152600401610937929190612600565b602060405180830381865afa158015610952573d5f803e3d5ffd5b505050506040513d601f19601f820116820180604052508101906109769190612179565b9050818110156109bb576040517f08c379a00000000000000000000000000000000000000000000000000000000081526004016109b290612671565b60405180910390fd5b5f8373ffffffffffffffffffffffffffffffffffffffff166323b872dd3330866040518463ffffffff1660e01b81526004016109f99392919061268f565b6020604051808303815f875af1158015610a15573d5f803e3d5ffd5b505050506040513d601f19601f82011682018060405250810190610a399190612268565b905080610a7b576040517f08c379a0000000000000000000000000000000000000000000000000000000008152600401610a729061270e565b60405180910390fd5b8260035f8873ffffffffffffffffffffffffffffffffffffffff1673ffffffffffffffffffffffffffffffffffffffff1681526020019081526020015f205f828254610ac7919061272c565b925050819055503373ffffffffffffffffffffffffffffffffffffffff167f8752a472e571a816aea92eec8dae9baf628e840f4929fbcc2d155e6233ff68a78785604051610b1692919061220c565b60405180910390a2505050505050565b6060805f60058054905090508067ffffffffffffffff811115610b4c57610b4b612293565b5b604051908082528060200260200182016040528015610b7a5781602001602082028036833780820191505090505b5092508067ffffffffffffffff811115610b9757610b96612293565b5b604051908082528060200260200182016040528015610bc55781602001602082028036833780820191505090505b5091505f5b81811015610d0a575f60058281548110610be757610be66122c0565b5b905f5260205f20015f9054906101000a900473ffffffffffffffffffffffffffffffffffffffff16905080858381518110610c2557610c246122c0565b5b602002602001019073ffffffffffffffffffffffffffffffffffffffff16908173ffffffffffffffffffffffffffffffffffffffff16815250508073ffffffffffffffffffffffffffffffffffffffff166370a08231306040518263ffffffff1660e01b8152600401610c989190611eec565b602060405180830381865afa158015610cb3573d5f803e3d5ffd5b505050506040513d601f19601f82011682018060405250810190610cd79190612179565b848381518110610cea57610ce96122c0565b5b602002602001018181525050508080610d029061231a565b915050610bca565b50509091565b60058181548110610d1f575f80fd5b905f5260205f20015f915054906101000a900473ffffffffffffffffffffffffffffffffffffffff1681565b60015f9054906101000a900473ffffffffffffffffffffffffffffffffffffffff1673ffffffffffffffffffffffffffffffffffffffff163373ffffffffffffffffffffffffffffffffffffffff1614610dda576040517f08c379a0000000000000000000000000000000000000000000000000000000008152600401610dd190612147565b60405180910390fd5b5f8190505f8173ffffffffffffffffffffffffffffffffffffffff166370a08231306040518263ffffffff1660e01b8152600401610e189190611eec565b602060405180830381865afa158015610e33573d5f803e3d5ffd5b505050506040513d601f19601f82011682018060405250810190610e579190612179565b90505f8111610e9b576040517f08c379a0000000000000000000000000000000000000000000000000000000008152600401610e92906121ee565b60405180910390fd5b8173ffffffffffffffffffffffffffffffffffffffff1663a9059cbb60015f9054906101000a900473ffffffffffffffffffffffffffffffffffffffff16836040518363ffffffff1660e01b8152600401610ef792919061220c565b6020604051808303815f875af1158015610f13573d5f803e3d5ffd5b505050506040513d601f19601f82011682018060405250810190610f379190612268565b50505050565b60015f9054906101000a900473ffffffffffffffffffffffffffffffffffffffff1681565b60025481565b60015f9054906101000a900473ffffffffffffffffffffffffffffffffffffffff1673ffffffffffffffffffffffffffffffffffffffff163373ffffffffffffffffffffffffffffffffffffffff1614610ff7576040517f08c379a0000000000000000000000000000000000000000000000000000000008152600401610fee90612147565b60405180910390fd5b5f8290505f6110068484611b54565b90505f8273ffffffffffffffffffffffffffffffffffffffff1663dd62ed3e33306040518363ffffffff1660e01b8152600401611044929190612600565b602060405180830381865afa15801561105f573d5f803e3d5ffd5b505050506040513d601f19601f820116820180604052508101906110839190612179565b9050818110156110c8576040517f08c379a00000000000000000000000000000000000000000000000000000000081526004016110bf90612671565b60405180910390fd5b5f8373ffffffffffffffffffffffffffffffffffffffff166323b872dd3330866040518463ffffffff1660e01b81526004016111069392919061268f565b6020604051808303815f875af1158015611122573d5f803e3d5ffd5b505050506040513d601f19601f820116820180604052508101906111469190612268565b905080611188576040517f08c379a000000000000000000000000000000000000000000000000000000000815260040161117f9061270e565b60405180910390fd5b8260035f8873ffffffffffffffffffffffffffffffffffffffff1673ffffffffffffffffffffffffffffffffffffffff1681526020019081526020015f205f8282546111d4919061272c565b925050819055503373ffffffffffffffffffffffffffffffffffffffff167f8752a472e571a816aea92eec8dae9baf628e840f4929fbcc2d155e6233ff68a7878560405161122392919061220c565b60405180910390a2505050505050565b600254341015611278576040517f08c379a000000000000000000000000000000000000000000000000000000000815260040161126f906127a9565b60405180910390fd5b81815f91826112889291906129cb565b505050565b6004602052815f5260405f20602052805f5260405f205f91509150505481565b5f73760afe86e5de5fa0ee542fc7b7b713e1c542570190505f8190505f6112d48385611b54565b90505f8273ffffffffffffffffffffffffffffffffffffffff1663dd62ed3e33306040518363ffffffff1660e01b8152600401611312929190612600565b602060405180830381865afa15801561132d573d5f803e3d5ffd5b505050506040513d601f19601f820116820180604052508101906113519190612179565b905081811015611396576040517f08c379a000000000000000000000000000000000000000000000000000000000815260040161138d90612671565b60405180910390fd5b5f8373ffffffffffffffffffffffffffffffffffffffff166323b872dd3330866040518463ffffffff1660e01b81526004016113d49392919061268f565b6020604051808303815f875af11580156113f0573d5f803e3d5ffd5b505050506040513d601f19601f820116820180604052508101906114149190612268565b905080611456576040517f08c379a000000000000000000000000000000000000000000000000000000000815260040161144d9061270e565b60405180910390fd5b8260035f8773ffffffffffffffffffffffffffffffffffffffff1673ffffffffffffffffffffffffffffffffffffffff1681526020019081526020015f205f8282546114a2919061272c565b925050819055503373ffffffffffffffffffffffffffffffffffffffff167f8752a472e571a816aea92eec8dae9baf628e840f4929fbcc2d155e6233ff68a786856040516114f192919061220c565b60405180910390a2505050505050565b60015f9054906101000a900473ffffffffffffffffffffffffffffffffffffffff1673ffffffffffffffffffffffffffffffffffffffff163373ffffffffffffffffffffffffffffffffffffffff1614611590576040517f08c379a000000000000000000000000000000000000000000000000000000000815260040161158790612147565b60405180910390fd5b60015f9054906101000a900473ffffffffffffffffffffffffffffffffffffffff1673ffffffffffffffffffffffffffffffffffffffff166108fc4790811502906040515f60405180830381858888f193505050501580156115f4573d5f803e3d5ffd5b50565b5f8054611603906127fe565b80601f016020809104026020016040519081016040528092919081815260200182805461162f906127fe565b801561167a5780601f106116515761010080835404028352916020019161167a565b820191905f5260205f20905b81548152906001019060200180831161165d57829003601f168201915b505050505081565b6003602052805f5260405f205f915090505481565b6002543410156116dc576040517f08c379a00000000000000000000000000000000000000000000000000000000081526004016116d3906127a9565b60405180910390fd5b5f821161171e576040517f08c379a000000000000000000000000000000000000000000000000000000000815260040161171590612ae2565b60405180910390fd5b5f8490505f8490505f6117318786611b54565b90505f8373ffffffffffffffffffffffffffffffffffffffff1663dd62ed3e33306040518363ffffffff1660e01b815260040161176f929190612600565b602060405180830381865afa15801561178a573d5f803e3d5ffd5b505050506040513d601f19601f820116820180604052508101906117ae9190612179565b9050818110156117f3576040517f08c379a00000000000000000000000000000000000000000000000000000000081526004016117ea90612671565b60405180910390fd5b5f8473ffffffffffffffffffffffffffffffffffffffff166323b872dd3330866040518463ffffffff1660e01b81526004016118319392919061268f565b6020604051808303815f875af115801561184d573d5f803e3d5ffd5b505050506040513d601f19601f820116820180604052508101906118719190612268565b9050806118b3576040517f08c379a00000000000000000000000000000000000000000000000000000000081526004016118aa90612b4a565b60405180910390fd5b5f670de0b6b3a764000087856118c99190612b68565b6118d39190612568565b9050808573ffffffffffffffffffffffffffffffffffffffff166370a08231306040518263ffffffff1660e01b815260040161190f9190611eec565b602060405180830381865afa15801561192a573d5f803e3d5ffd5b505050506040513d601f19601f8201168201806040525081019061194e9190612179565b101561198f576040517f08c379a000000000000000000000000000000000000000000000000000000000815260040161198690612bf3565b60405180910390fd5b5f8573ffffffffffffffffffffffffffffffffffffffff1663a9059cbb33846040518363ffffffff1660e01b81526004016119cb92919061220c565b6020604051808303815f875af11580156119e7573d5f803e3d5ffd5b505050506040513d601f19601f82011682018060405250810190611a0b9190612268565b905080611a4d576040517f08c379a0000000000000000000000000000000000000000000000000000000008152600401611a4490612c5b565b60405180910390fd5b8460035f8d73ffffffffffffffffffffffffffffffffffffffff1673ffffffffffffffffffffffffffffffffffffffff1681526020019081526020015f205f828254611a99919061272c565b925050819055508160035f8c73ffffffffffffffffffffffffffffffffffffffff1673ffffffffffffffffffffffffffffffffffffffff1681526020019081526020015f205f828254611aec9190612c79565b925050819055503373ffffffffffffffffffffffffffffffffffffffff167f6782190c91d4a7e8ad2a867deed6ec0a970cab8ff137ae2bd4abd92b3810f4d38c8c8886604051611b3f9493929190612cac565b60405180910390a25050505050505050505050565b5f808373ffffffffffffffffffffffffffffffffffffffff1663313ce5676040518163ffffffff1660e01b8152600401602060405180830381865afa158015611b9f573d5f803e3d5ffd5b505050506040513d601f19601f82011682018060405250810190611bc39190612397565b90508060ff16600a611bd59190612cef565b83611be09190612b68565b91505092915050565b5f80fd5b5f80fd5b5f73ffffffffffffffffffffffffffffffffffffffff82169050919050565b5f611c1a82611bf1565b9050919050565b611c2a81611c10565b8114611c34575f80fd5b50565b5f81359050611c4581611c21565b92915050565b5f60208284031215611c6057611c5f611be9565b5b5f611c6d84828501611c37565b91505092915050565b5f81519050919050565b5f82825260208201905092915050565b5f819050602082019050919050565b611ca881611c10565b82525050565b5f611cb98383611c9f565b60208301905092915050565b5f602082019050919050565b5f611cdb82611c76565b611ce58185611c80565b9350611cf083611c90565b805f5b83811015611d20578151611d078882611cae565b9750611d1283611cc5565b925050600181019050611cf3565b5085935050505092915050565b5f81519050919050565b5f82825260208201905092915050565b5f819050602082019050919050565b5f819050919050565b611d6881611d56565b82525050565b5f611d798383611d5f565b60208301905092915050565b5f602082019050919050565b5f611d9b82611d2d565b611da58185611d37565b9350611db083611d47565b805f5b83811015611de0578151611dc78882611d6e565b9750611dd283611d85565b925050600181019050611db3565b5085935050505092915050565b5f6040820190508181035f830152611e058185611cd1565b90508181036020830152611e198184611d91565b90509392505050565b611e2b81611d56565b82525050565b5f602082019050611e445f830184611e22565b92915050565b611e5381611d56565b8114611e5d575f80fd5b50565b5f81359050611e6e81611e4a565b92915050565b5f8060408385031215611e8a57611e89611be9565b5b5f611e9785828601611c37565b9250506020611ea885828601611e60565b9150509250929050565b5f60208284031215611ec757611ec6611be9565b5b5f611ed484828501611e60565b91505092915050565b611ee681611c10565b82525050565b5f602082019050611eff5f830184611edd565b92915050565b5f80fd5b5f80fd5b5f80fd5b5f8083601f840112611f2657611f25611f05565b5b8235905067ffffffffffffffff811115611f4357611f42611f09565b5b602083019150836001820283011115611f5f57611f5e611f0d565b5b9250929050565b5f8060208385031215611f7c57611f7b611be9565b5b5f83013567ffffffffffffffff811115611f9957611f98611bed565b5b611fa585828601611f11565b92509250509250929050565b5f8060408385031215611fc757611fc6611be9565b5b5f611fd485828601611c37565b9250506020611fe585828601611c37565b9150509250929050565b5f81519050919050565b5f82825260208201905092915050565b5f5b8381101561202657808201518184015260208101905061200b565b5f8484015250505050565b5f601f19601f8301169050919050565b5f61204b82611fef565b6120558185611ff9565b9350612065818560208601612009565b61206e81612031565b840191505092915050565b5f6020820190508181035f8301526120918184612041565b905092915050565b5f805f80608085870312156120b1576120b0611be9565b5b5f6120be87828801611c37565b94505060206120cf87828801611c37565b93505060406120e087828801611e60565b92505060606120f187828801611e60565b91505092959194509250565b7f4f6e6c79206f776e6572000000000000000000000000000000000000000000005f82015250565b5f612131600a83611ff9565b915061213c826120fd565b602082019050919050565b5f6020820190508181035f83015261215e81612125565b9050919050565b5f8151905061217381611e4a565b92915050565b5f6020828403121561218e5761218d611be9565b5b5f61219b84828501612165565b91505092915050565b7f4e6f20746f6b656e2062616c616e6365000000000000000000000000000000005f82015250565b5f6121d8601083611ff9565b91506121e3826121a4565b602082019050919050565b5f6020820190508181035f830152612205816121cc565b9050919050565b5f60408201905061221f5f830185611edd565b61222c6020830184611e22565b9392505050565b5f8115159050919050565b61224781612233565b8114612251575f80fd5b50565b5f815190506122628161223e565b92915050565b5f6020828403121561227d5761227c611be9565b5b5f61228a84828501612254565b91505092915050565b7f4e487b71000000000000000000000000000000000000000000000000000000005f52604160045260245ffd5b7f4e487b71000000000000000000000000000000000000000000000000000000005f52603260045260245ffd5b7f4e487b71000000000000000000000000000000000000000000000000000000005f52601160045260245ffd5b5f61232482611d56565b91507fffffffffffffffffffffffffffffffffffffffffffffffffffffffffffffffff8203612356576123556122ed565b5b600182019050919050565b5f60ff82169050919050565b61237681612361565b8114612380575f80fd5b50565b5f815190506123918161236d565b92915050565b5f602082840312156123ac576123ab611be9565b5b5f6123b984828501612383565b91505092915050565b5f8160011c9050919050565b5f808291508390505b6001851115612417578086048111156123f3576123f26122ed565b5b60018516156124025780820291505b8081029050612410856123c2565b94506123d7565b94509492505050565b5f8261242f57600190506124ea565b8161243c575f90506124ea565b8160018114612452576002811461245c5761248b565b60019150506124ea565b60ff84111561246e5761246d6122ed565b5b8360020a915084821115612485576124846122ed565b5b506124ea565b5060208310610133831016604e8410600b84101617156124c05782820a9050838111156124bb576124ba6122ed565b5b6124ea565b6124cd84848460016123ce565b925090508184048111156124e4576124e36122ed565b5b81810290505b9392505050565b5f6124fb82611d56565b915061250683612361565b92506125337fffffffffffffffffffffffffffffffffffffffffffffffffffffffffffffffff8484612420565b905092915050565b7f4e487b71000000000000000000000000000000000000000000000000000000005f52601260045260245ffd5b5f61257282611d56565b915061257d83611d56565b92508261258d5761258c61253b565b5b828204905092915050565b7f416d6f756e74206d7573742062652067726561746572207468616e207a65726f5f82015250565b5f6125cc602083611ff9565b91506125d782612598565b602082019050919050565b5f6020820190508181035f8301526125f9816125c0565b9050919050565b5f6040820190506126135f830185611edd565b6126206020830184611edd565b9392505050565b7f4e6f7420656e6f75676820616c6c6f77616e63650000000000000000000000005f82015250565b5f61265b601483611ff9565b915061266682612627565b602082019050919050565b5f6020820190508181035f8301526126888161264f565b9050919050565b5f6060820190506126a25f830186611edd565b6126af6020830185611edd565b6126bc6040830184611e22565b949350505050565b7f5472616e73666572206661696c656400000000000000000000000000000000005f82015250565b5f6126f8600f83611ff9565b9150612703826126c4565b602082019050919050565b5f6020820190508181035f830152612725816126ec565b9050919050565b5f61273682611d56565b915061274183611d56565b9250828201905080821115612759576127586122ed565b5b92915050565b7f496e73756666696369656e74206665652073656e7400000000000000000000005f82015250565b5f612793601583611ff9565b915061279e8261275f565b602082019050919050565b5f6020820190508181035f8301526127c081612787565b9050919050565b5f82905092915050565b7f4e487b71000000000000000000000000000000000000000000000000000000005f52602260045260245ffd5b5f600282049050600182168061281557607f821691505b602082108103612828576128276127d1565b5b50919050565b5f819050815f5260205f209050919050565b5f6020601f8301049050919050565b5f82821b905092915050565b5f6008830261288a7fffffffffffffffffffffffffffffffffffffffffffffffffffffffffffffffff8261284f565b612894868361284f565b95508019841693508086168417925050509392505050565b5f819050919050565b5f6128cf6128ca6128c584611d56565b6128ac565b611d56565b9050919050565b5f819050919050565b6128e8836128b5565b6128fc6128f4826128d6565b84845461285b565b825550505050565b5f90565b612910612904565b61291b8184846128df565b505050565b5b8181101561293e576129335f82612908565b600181019050612921565b5050565b601f821115612983576129548161282e565b61295d84612840565b8101602085101561296c578190505b61298061297885612840565b830182612920565b50505b505050565b5f82821c905092915050565b5f6129a35f1984600802612988565b1980831691505092915050565b5f6129bb8383612994565b9150826002028217905092915050565b6129d583836127c7565b67ffffffffffffffff8111156129ee576129ed612293565b5b6129f882546127fe565b612a03828285612942565b5f601f831160018114612a30575f8415612a1e578287013590505b612a2885826129b0565b865550612a8f565b601f198416612a3e8661282e565b5f5b82811015612a6557848901358255600182019150602085019450602081019050612a40565b86831015612a825784890135612a7e601f891682612994565b8355505b6001600288020188555050505b50505050505050565b7f416d6f756e74206d757374206265203e203000000000000000000000000000005f82015250565b5f612acc601283611ff9565b9150612ad782612a98565b602082019050919050565b5f6020820190508181035f830152612af981612ac0565b9050919050565b7f546f6b656e41207472616e73666572206661696c6564000000000000000000005f82015250565b5f612b34601683611ff9565b9150612b3f82612b00565b602082019050919050565b5f6020820190508181035f830152612b6181612b28565b9050919050565b5f612b7282611d56565b9150612b7d83611d56565b9250828202612b8b81611d56565b91508282048414831517612ba257612ba16122ed565b5b5092915050565b7f4e6f7420656e6f75676820746f6b656e4220696e20706f6f6c000000000000005f82015250565b5f612bdd601983611ff9565b9150612be882612ba9565b602082019050919050565b5f6020820190508181035f830152612c0a81612bd1565b9050919050565b7f546f6b656e42207472616e73666572206661696c6564000000000000000000005f82015250565b5f612c45601683611ff9565b9150612c5082612c11565b602082019050919050565b5f6020820190508181035f830152612c7281612c39565b9050919050565b5f612c8382611d56565b9150612c8e83611d56565b9250828203905081811115612ca657612ca56122ed565b5b92915050565b5f608082019050612cbf5f830187611edd565b612ccc6020830186611edd565b612cd96040830185611e22565b612ce66060830184611e22565b95945050505050565b5f612cf982611d56565b9150612d0483611d56565b9250612d317fffffffffffffffffffffffffffffffffffffffffffffffffffffffffffffffff8484612420565b90509291505056fea2646970667358221220d206d353f8950cb88f4598751887a8c2221a990119b4eed70a5213b347ae7e2764736f6c63430008140033",
					"opcodes": "PUSH1 0x80 PUSH1 0x40 MSTORE PUSH7 0x38D7EA4C68000 PUSH1 0x2 SSTORE PUSH1 0x40 MLOAD PUSH3 0x32F8 CODESIZE SUB DUP1 PUSH3 0x32F8 DUP4 CODECOPY DUP2 DUP2 ADD PUSH1 0x40 MSTORE DUP2 ADD SWAP1 PUSH3 0x34 SWAP2 SWAP1 PUSH3 0x211 JUMP JUMPDEST DUP1 PUSH0 SWAP1 DUP2 PUSH3 0x44 SWAP2 SWAP1 PUSH3 0x497 JUMP JUMPDEST POP CALLER PUSH1 0x1 PUSH0 PUSH2 0x100 EXP DUP2 SLOAD DUP2 PUSH20 0xFFFFFFFFFFFFFFFFFFFFFFFFFFFFFFFFFFFFFFFF MUL NOT AND SWAP1 DUP4 PUSH20 0xFFFFFFFFFFFFFFFFFFFFFFFFFFFFFFFFFFFFFFFF AND MUL OR SWAP1 SSTORE POP POP PUSH3 0x57B JUMP JUMPDEST PUSH0 PUSH1 0x40 MLOAD SWAP1 POP SWAP1 JUMP JUMPDEST PUSH0 DUP1 REVERT JUMPDEST PUSH0 DUP1 REVERT JUMPDEST PUSH0 DUP1 REVERT JUMPDEST PUSH0 DUP1 REVERT JUMPDEST PUSH0 PUSH1 0x1F NOT PUSH1 0x1F DUP4 ADD AND SWAP1 POP SWAP2 SWAP1 POP JUMP JUMPDEST PUSH32 0x4E487B7100000000000000000000000000000000000000000000000000000000 PUSH0 MSTORE PUSH1 0x41 PUSH1 0x4 MSTORE PUSH1 0x24 PUSH0 REVERT JUMPDEST PUSH3 0xED DUP3 PUSH3 0xA5 JUMP JUMPDEST DUP2 ADD DUP2 DUP2 LT PUSH8 0xFFFFFFFFFFFFFFFF DUP3 GT OR ISZERO PUSH3 0x10F JUMPI PUSH3 0x10E PUSH3 0xB5 JUMP JUMPDEST JUMPDEST DUP1 PUSH1 0x40 MSTORE POP POP POP JUMP JUMPDEST PUSH0 PUSH3 0x123 PUSH3 0x8C JUMP JUMPDEST SWAP1 POP PUSH3 0x131 DUP3 DUP3 PUSH3 0xE2 JUMP JUMPDEST SWAP2 SWAP1 POP JUMP JUMPDEST PUSH0 PUSH8 0xFFFFFFFFFFFFFFFF DUP3 GT ISZERO PUSH3 0x153 JUMPI PUSH3 0x152 PUSH3 0xB5 JUMP JUMPDEST JUMPDEST PUSH3 0x15E DUP3 PUSH3 0xA5 JUMP JUMPDEST SWAP1 POP PUSH1 0x20 DUP2 ADD SWAP1 POP SWAP2 SWAP1 POP JUMP JUMPDEST PUSH0 JUMPDEST DUP4 DUP2 LT ISZERO PUSH3 0x18A JUMPI DUP1 DUP3 ADD MLOAD DUP2 DUP5 ADD MSTORE PUSH1 0x20 DUP2 ADD SWAP1 POP PUSH3 0x16D JUMP JUMPDEST PUSH0 DUP5 DUP5 ADD MSTORE POP POP POP POP JUMP JUMPDEST PUSH0 PUSH3 0x1AB PUSH3 0x1A5 DUP5 PUSH3 0x136 JUMP JUMPDEST PUSH3 0x118 JUMP JUMPDEST SWAP1 POP DUP3 DUP2 MSTORE PUSH1 0x20 DUP2 ADD DUP5 DUP5 DUP5 ADD GT ISZERO PUSH3 0x1CA JUMPI PUSH3 0x1C9 PUSH3 0xA1 JUMP JUMPDEST JUMPDEST PUSH3 0x1D7 DUP5 DUP3 DUP6 PUSH3 0x16B JUMP JUMPDEST POP SWAP4 SWAP3 POP POP POP JUMP JUMPDEST PUSH0 DUP3 PUSH1 0x1F DUP4 ADD SLT PUSH3 0x1F6 JUMPI PUSH3 0x1F5 PUSH3 0x9D JUMP JUMPDEST JUMPDEST DUP2 MLOAD PUSH3 0x208 DUP5 DUP3 PUSH1 0x20 DUP7 ADD PUSH3 0x195 JUMP JUMPDEST SWAP2 POP POP SWAP3 SWAP2 POP POP JUMP JUMPDEST PUSH0 PUSH1 0x20 DUP3 DUP5 SUB SLT ISZERO PUSH3 0x229 JUMPI PUSH3 0x228 PUSH3 0x95 JUMP JUMPDEST JUMPDEST PUSH0 DUP3 ADD MLOAD PUSH8 0xFFFFFFFFFFFFFFFF DUP2 GT ISZERO PUSH3 0x249 JUMPI PUSH3 0x248 PUSH3 0x99 JUMP JUMPDEST JUMPDEST PUSH3 0x257 DUP5 DUP3 DUP6 ADD PUSH3 0x1DF JUMP JUMPDEST SWAP2 POP POP SWAP3 SWAP2 POP POP JUMP JUMPDEST PUSH0 DUP2 MLOAD SWAP1 POP SWAP2 SWAP1 POP JUMP JUMPDEST PUSH32 0x4E487B7100000000000000000000000000000000000000000000000000000000 PUSH0 MSTORE PUSH1 0x22 PUSH1 0x4 MSTORE PUSH1 0x24 PUSH0 REVERT JUMPDEST PUSH0 PUSH1 0x2 DUP3 DIV SWAP1 POP PUSH1 0x1 DUP3 AND DUP1 PUSH3 0x2AF JUMPI PUSH1 0x7F DUP3 AND SWAP2 POP JUMPDEST PUSH1 0x20 DUP3 LT DUP2 SUB PUSH3 0x2C5 JUMPI PUSH3 0x2C4 PUSH3 0x26A JUMP JUMPDEST JUMPDEST POP SWAP2 SWAP1 POP JUMP JUMPDEST PUSH0 DUP2 SWAP1 POP DUP2 PUSH0 MSTORE PUSH1 0x20 PUSH0 KECCAK256 SWAP1 POP SWAP2 SWAP1 POP JUMP JUMPDEST PUSH0 PUSH1 0x20 PUSH1 0x1F DUP4 ADD DIV SWAP1 POP SWAP2 SWAP1 POP JUMP JUMPDEST PUSH0 DUP3 DUP3 SHL SWAP1 POP SWAP3 SWAP2 POP POP JUMP JUMPDEST PUSH0 PUSH1 0x8 DUP4 MUL PUSH3 0x329 PUSH32 0xFFFFFFFFFFFFFFFFFFFFFFFFFFFFFFFFFFFFFFFFFFFFFFFFFFFFFFFFFFFFFFFF DUP3 PUSH3 0x2EC JUMP JUMPDEST PUSH3 0x335 DUP7 DUP4 PUSH3 0x2EC JUMP JUMPDEST SWAP6 POP DUP1 NOT DUP5 AND SWAP4 POP DUP1 DUP7 AND DUP5 OR SWAP3 POP POP POP SWAP4 SWAP3 POP POP POP JUMP JUMPDEST PUSH0 DUP2 SWAP1 POP SWAP2 SWAP1 POP JUMP JUMPDEST PUSH0 DUP2 SWAP1 POP SWAP2 SWAP1 POP JUMP JUMPDEST PUSH0 PUSH3 0x37F PUSH3 0x379 PUSH3 0x373 DUP5 PUSH3 0x34D JUMP JUMPDEST PUSH3 0x356 JUMP JUMPDEST PUSH3 0x34D JUMP JUMPDEST SWAP1 POP SWAP2 SWAP1 POP JUMP JUMPDEST PUSH0 DUP2 SWAP1 POP SWAP2 SWAP1 POP JUMP JUMPDEST PUSH3 0x39A DUP4 PUSH3 0x35F JUMP JUMPDEST PUSH3 0x3B2 PUSH3 0x3A9 DUP3 PUSH3 0x386 JUMP JUMPDEST DUP5 DUP5 SLOAD PUSH3 0x2F8 JUMP JUMPDEST DUP3 SSTORE POP POP POP POP JUMP JUMPDEST PUSH0 SWAP1 JUMP JUMPDEST PUSH3 0x3C8 PUSH3 0x3BA JUMP JUMPDEST PUSH3 0x3D5 DUP2 DUP5 DUP5 PUSH3 0x38F JUMP JUMPDEST POP POP POP JUMP JUMPDEST JUMPDEST DUP2 DUP2 LT ISZERO PUSH3 0x3FC JUMPI PUSH3 0x3F0 PUSH0 DUP3 PUSH3 0x3BE JUMP JUMPDEST PUSH1 0x1 DUP2 ADD SWAP1 POP PUSH3 0x3DB JUMP JUMPDEST POP POP JUMP JUMPDEST PUSH1 0x1F DUP3 GT ISZERO PUSH3 0x44B JUMPI PUSH3 0x415 DUP2 PUSH3 0x2CB JUMP JUMPDEST PUSH3 0x420 DUP5 PUSH3 0x2DD JUMP JUMPDEST DUP2 ADD PUSH1 0x20 DUP6 LT ISZERO PUSH3 0x430 JUMPI DUP2 SWAP1 POP JUMPDEST PUSH3 0x448 PUSH3 0x43F DUP6 PUSH3 0x2DD JUMP JUMPDEST DUP4 ADD DUP3 PUSH3 0x3DA JUMP JUMPDEST POP POP JUMPDEST POP POP POP JUMP JUMPDEST PUSH0 DUP3 DUP3 SHR SWAP1 POP SWAP3 SWAP2 POP POP JUMP JUMPDEST PUSH0 PUSH3 0x46D PUSH0 NOT DUP5 PUSH1 0x8 MUL PUSH3 0x450 JUMP JUMPDEST NOT DUP1 DUP4 AND SWAP2 POP POP SWAP3 SWAP2 POP POP JUMP JUMPDEST PUSH0 PUSH3 0x487 DUP4 DUP4 PUSH3 0x45C JUMP JUMPDEST SWAP2 POP DUP3 PUSH1 0x2 MUL DUP3 OR SWAP1 POP SWAP3 SWAP2 POP POP JUMP JUMPDEST PUSH3 0x4A2 DUP3 PUSH3 0x260 JUMP JUMPDEST PUSH8 0xFFFFFFFFFFFFFFFF DUP2 GT ISZERO PUSH3 0x4BE JUMPI PUSH3 0x4BD PUSH3 0xB5 JUMP JUMPDEST JUMPDEST PUSH3 0x4CA DUP3 SLOAD PUSH3 0x297 JUMP JUMPDEST PUSH3 0x4D7 DUP3 DUP3 DUP6 PUSH3 0x400 JUMP JUMPDEST PUSH0 PUSH1 0x20 SWAP1 POP PUSH1 0x1F DUP4 GT PUSH1 0x1 DUP2 EQ PUSH3 0x50D JUMPI PUSH0 DUP5 ISZERO PUSH3 0x4F8 JUMPI DUP3 DUP8 ADD MLOAD SWAP1 POP JUMPDEST PUSH3 0x504 DUP6 DUP3 PUSH3 0x47A JUMP JUMPDEST DUP7 SSTORE POP PUSH3 0x573 JUMP JUMPDEST PUSH1 0x1F NOT DUP5 AND PUSH3 0x51D DUP7 PUSH3 0x2CB JUMP JUMPDEST PUSH0 JUMPDEST DUP3 DUP2 LT ISZERO PUSH3 0x546 JUMPI DUP5 DUP10 ADD MLOAD DUP3 SSTORE PUSH1 0x1 DUP3 ADD SWAP2 POP PUSH1 0x20 DUP6 ADD SWAP5 POP PUSH1 0x20 DUP2 ADD SWAP1 POP PUSH3 0x51F JUMP JUMPDEST DUP7 DUP4 LT ISZERO PUSH3 0x566 JUMPI DUP5 DUP10 ADD MLOAD PUSH3 0x562 PUSH1 0x1F DUP10 AND DUP3 PUSH3 0x45C JUMP JUMPDEST DUP4 SSTORE POP JUMPDEST PUSH1 0x1 PUSH1 0x2 DUP9 MUL ADD DUP9 SSTORE POP POP POP JUMPDEST POP POP POP POP POP POP JUMP JUMPDEST PUSH2 0x2D6F DUP1 PUSH3 0x589 PUSH0 CODECOPY PUSH0 RETURN INVALID PUSH1 0x80 PUSH1 0x40 MSTORE PUSH1 0x4 CALLDATASIZE LT PUSH2 0x101 JUMPI PUSH0 CALLDATALOAD PUSH1 0xE0 SHR DUP1 PUSH4 0x90321E1A GT PUSH2 0x94 JUMPI DUP1 PUSH4 0xC8A34EFE GT PUSH2 0x63 JUMPI DUP1 PUSH4 0xC8A34EFE EQ PUSH2 0x324 JUMPI DUP1 PUSH4 0xE086E5EC EQ PUSH2 0x34C JUMPI DUP1 PUSH4 0xEF690CC0 EQ PUSH2 0x362 JUMPI DUP1 PUSH4 0xF5465992 EQ PUSH2 0x38C JUMPI DUP1 PUSH4 0xFE029156 EQ PUSH2 0x3C8 JUMPI PUSH2 0x108 JUMP JUMPDEST DUP1 PUSH4 0x90321E1A EQ PUSH2 0x27A JUMPI DUP1 PUSH4 0x95310EFA EQ PUSH2 0x2A4 JUMPI DUP1 PUSH4 0xA4136862 EQ PUSH2 0x2CC JUMPI DUP1 PUSH4 0xADB51980 EQ PUSH2 0x2E8 JUMPI PUSH2 0x108 JUMP JUMPDEST DUP1 PUSH4 0x6677B49B GT PUSH2 0xD0 JUMPI DUP1 PUSH4 0x6677B49B EQ PUSH2 0x1C1 JUMPI DUP1 PUSH4 0x8305368A EQ PUSH2 0x1EC JUMPI DUP1 PUSH4 0x89476069 EQ PUSH2 0x228 JUMPI DUP1 PUSH4 0x8DA5CB5B EQ PUSH2 0x250 JUMPI PUSH2 0x108 JUMP JUMPDEST DUP1 PUSH4 0x62DD331 EQ PUSH2 0x10A JUMPI DUP1 PUSH4 0x1EDB27E9 EQ PUSH2 0x120 JUMPI DUP1 PUSH4 0x43AB265F EQ PUSH2 0x15D JUMPI DUP1 PUSH4 0x47E7EF24 EQ PUSH2 0x199 JUMPI PUSH2 0x108 JUMP JUMPDEST CALLDATASIZE PUSH2 0x108 JUMPI STOP JUMPDEST STOP JUMPDEST CALLVALUE DUP1 ISZERO PUSH2 0x115 JUMPI PUSH0 DUP1 REVERT JUMPDEST POP PUSH2 0x11E PUSH2 0x3E4 JUMP JUMPDEST STOP JUMPDEST CALLVALUE DUP1 ISZERO PUSH2 0x12B JUMPI PUSH0 DUP1 REVERT JUMPDEST POP PUSH2 0x146 PUSH1 0x4 DUP1 CALLDATASIZE SUB DUP2 ADD SWAP1 PUSH2 0x141 SWAP2 SWAP1 PUSH2 0x1C4B JUMP JUMPDEST PUSH2 0x5EE JUMP JUMPDEST PUSH1 0x40 MLOAD PUSH2 0x154 SWAP3 SWAP2 SWAP1 PUSH2 0x1DED JUMP JUMPDEST PUSH1 0x40 MLOAD DUP1 SWAP2 SUB SWAP1 RETURN JUMPDEST CALLVALUE DUP1 ISZERO PUSH2 0x168 JUMPI PUSH0 DUP1 REVERT JUMPDEST POP PUSH2 0x183 PUSH1 0x4 DUP1 CALLDATASIZE SUB DUP2 ADD SWAP1 PUSH2 0x17E SWAP2 SWAP1 PUSH2 0x1C4B JUMP JUMPDEST PUSH2 0x7DA JUMP JUMPDEST PUSH1 0x40 MLOAD PUSH2 0x190 SWAP2 SWAP1 PUSH2 0x1E31 JUMP JUMPDEST PUSH1 0x40 MLOAD DUP1 SWAP2 SUB SWAP1 RETURN JUMPDEST CALLVALUE DUP1 ISZERO PUSH2 0x1A4 JUMPI PUSH0 DUP1 REVERT JUMPDEST POP PUSH2 0x1BF PUSH1 0x4 DUP1 CALLDATASIZE SUB DUP2 ADD SWAP1 PUSH2 0x1BA SWAP2 SWAP1 PUSH2 0x1E74 JUMP JUMPDEST PUSH2 0x8A8 JUMP JUMPDEST STOP JUMPDEST CALLVALUE DUP1 ISZERO PUSH2 0x1CC JUMPI PUSH0 DUP1 REVERT JUMPDEST POP PUSH2 0x1D5 PUSH2 0xB26 JUMP JUMPDEST PUSH1 0x40 MLOAD PUSH2 0x1E3 SWAP3 SWAP2 SWAP1 PUSH2 0x1DED JUMP JUMPDEST PUSH1 0x40 MLOAD DUP1 SWAP2 SUB SWAP1 RETURN JUMPDEST CALLVALUE DUP1 ISZERO PUSH2 0x1F7 JUMPI PUSH0 DUP1 REVERT JUMPDEST POP PUSH2 0x212 PUSH1 0x4 DUP1 CALLDATASIZE SUB DUP2 ADD SWAP1 PUSH2 0x20D SWAP2 SWAP1 PUSH2 0x1EB2 JUMP JUMPDEST PUSH2 0xD10 JUMP JUMPDEST PUSH1 0x40 MLOAD PUSH2 0x21F SWAP2 SWAP1 PUSH2 0x1EEC JUMP JUMPDEST PUSH1 0x40 MLOAD DUP1 SWAP2 SUB SWAP1 RETURN JUMPDEST CALLVALUE DUP1 ISZERO PUSH2 0x233 JUMPI PUSH0 DUP1 REVERT JUMPDEST POP PUSH2 0x24E PUSH1 0x4 DUP1 CALLDATASIZE SUB DUP2 ADD SWAP1 PUSH2 0x249 SWAP2 SWAP1 PUSH2 0x1C4B JUMP JUMPDEST PUSH2 0xD4B JUMP JUMPDEST STOP JUMPDEST CALLVALUE DUP1 ISZERO PUSH2 0x25B JUMPI PUSH0 DUP1 REVERT JUMPDEST POP PUSH2 0x264 PUSH2 0xF3D JUMP JUMPDEST PUSH1 0x40 MLOAD PUSH2 0x271 SWAP2 SWAP1 PUSH2 0x1EEC JUMP JUMPDEST PUSH1 0x40 MLOAD DUP1 SWAP2 SUB SWAP1 RETURN JUMPDEST CALLVALUE DUP1 ISZERO PUSH2 0x285 JUMPI PUSH0 DUP1 REVERT JUMPDEST POP PUSH2 0x28E PUSH2 0xF62 JUMP JUMPDEST PUSH1 0x40 MLOAD PUSH2 0x29B SWAP2 SWAP1 PUSH2 0x1E31 JUMP JUMPDEST PUSH1 0x40 MLOAD DUP1 SWAP2 SUB SWAP1 RETURN JUMPDEST CALLVALUE DUP1 ISZERO PUSH2 0x2AF JUMPI PUSH0 DUP1 REVERT JUMPDEST POP PUSH2 0x2CA PUSH1 0x4 DUP1 CALLDATASIZE SUB DUP2 ADD SWAP1 PUSH2 0x2C5 SWAP2 SWAP1 PUSH2 0x1E74 JUMP JUMPDEST PUSH2 0xF68 JUMP JUMPDEST STOP JUMPDEST PUSH2 0x2E6 PUSH1 0x4 DUP1 CALLDATASIZE SUB DUP2 ADD SWAP1 PUSH2 0x2E1 SWAP2 SWAP1 PUSH2 0x1F66 JUMP JUMPDEST PUSH2 0x1233 JUMP JUMPDEST STOP JUMPDEST CALLVALUE DUP1 ISZERO PUSH2 0x2F3 JUMPI PUSH0 DUP1 REVERT JUMPDEST POP PUSH2 0x30E PUSH1 0x4 DUP1 CALLDATASIZE SUB DUP2 ADD SWAP1 PUSH2 0x309 SWAP2 SWAP1 PUSH2 0x1FB1 JUMP JUMPDEST PUSH2 0x128D JUMP JUMPDEST PUSH1 0x40 MLOAD PUSH2 0x31B SWAP2 SWAP1 PUSH2 0x1E31 JUMP JUMPDEST PUSH1 0x40 MLOAD DUP1 SWAP2 SUB SWAP1 RETURN JUMPDEST CALLVALUE DUP1 ISZERO PUSH2 0x32F JUMPI PUSH0 DUP1 REVERT JUMPDEST POP PUSH2 0x34A PUSH1 0x4 DUP1 CALLDATASIZE SUB DUP2 ADD SWAP1 PUSH2 0x345 SWAP2 SWAP1 PUSH2 0x1EB2 JUMP JUMPDEST PUSH2 0x12AD JUMP JUMPDEST STOP JUMPDEST CALLVALUE DUP1 ISZERO PUSH2 0x357 JUMPI PUSH0 DUP1 REVERT JUMPDEST POP PUSH2 0x360 PUSH2 0x1501 JUMP JUMPDEST STOP JUMPDEST CALLVALUE DUP1 ISZERO PUSH2 0x36D JUMPI PUSH0 DUP1 REVERT JUMPDEST POP PUSH2 0x376 PUSH2 0x15F7 JUMP JUMPDEST PUSH1 0x40 MLOAD PUSH2 0x383 SWAP2 SWAP1 PUSH2 0x2079 JUMP JUMPDEST PUSH1 0x40 MLOAD DUP1 SWAP2 SUB SWAP1 RETURN JUMPDEST CALLVALUE DUP1 ISZERO PUSH2 0x397 JUMPI PUSH0 DUP1 REVERT JUMPDEST POP PUSH2 0x3B2 PUSH1 0x4 DUP1 CALLDATASIZE SUB DUP2 ADD SWAP1 PUSH2 0x3AD SWAP2 SWAP1 PUSH2 0x1C4B JUMP JUMPDEST PUSH2 0x1682 JUMP JUMPDEST PUSH1 0x40 MLOAD PUSH2 0x3BF SWAP2 SWAP1 PUSH2 0x1E31 JUMP JUMPDEST PUSH1 0x40 MLOAD DUP1 SWAP2 SUB SWAP1 RETURN JUMPDEST PUSH2 0x3E2 PUSH1 0x4 DUP1 CALLDATASIZE SUB DUP2 ADD SWAP1 PUSH2 0x3DD SWAP2 SWAP1 PUSH2 0x2099 JUMP JUMPDEST PUSH2 0x1697 JUMP JUMPDEST STOP JUMPDEST PUSH1 0x1 PUSH0 SWAP1 SLOAD SWAP1 PUSH2 0x100 EXP SWAP1 DIV PUSH20 0xFFFFFFFFFFFFFFFFFFFFFFFFFFFFFFFFFFFFFFFF AND PUSH20 0xFFFFFFFFFFFFFFFFFFFFFFFFFFFFFFFFFFFFFFFF AND CALLER PUSH20 0xFFFFFFFFFFFFFFFFFFFFFFFFFFFFFFFFFFFFFFFF AND EQ PUSH2 0x473 JUMPI PUSH1 0x40 MLOAD PUSH32 0x8C379A000000000000000000000000000000000000000000000000000000000 DUP2 MSTORE PUSH1 0x4 ADD PUSH2 0x46A SWAP1 PUSH2 0x2147 JUMP JUMPDEST PUSH1 0x40 MLOAD DUP1 SWAP2 SUB SWAP1 REVERT JUMPDEST PUSH0 PUSH20 0x760AFE86E5DE5FA0EE542FC7B7B713E1C5425701 SWAP1 POP PUSH0 DUP2 SWAP1 POP PUSH0 DUP2 PUSH20 0xFFFFFFFFFFFFFFFFFFFFFFFFFFFFFFFFFFFFFFFF AND PUSH4 0x70A08231 ADDRESS PUSH1 0x40 MLOAD DUP3 PUSH4 0xFFFFFFFF AND PUSH1 0xE0 SHL DUP2 MSTORE PUSH1 0x4 ADD PUSH2 0x4C9 SWAP2 SWAP1 PUSH2 0x1EEC JUMP JUMPDEST PUSH1 0x20 PUSH1 0x40 MLOAD DUP1 DUP4 SUB DUP2 DUP7 GAS STATICCALL ISZERO DUP1 ISZERO PUSH2 0x4E4 JUMPI RETURNDATASIZE PUSH0 DUP1 RETURNDATACOPY RETURNDATASIZE PUSH0 REVERT JUMPDEST POP POP POP POP PUSH1 0x40 MLOAD RETURNDATASIZE PUSH1 0x1F NOT PUSH1 0x1F DUP3 ADD AND DUP3 ADD DUP1 PUSH1 0x40 MSTORE POP DUP2 ADD SWAP1 PUSH2 0x508 SWAP2 SWAP1 PUSH2 0x2179 JUMP JUMPDEST SWAP1 POP PUSH0 DUP2 GT PUSH2 0x54C JUMPI PUSH1 0x40 MLOAD PUSH32 0x8C379A000000000000000000000000000000000000000000000000000000000 DUP2 MSTORE PUSH1 0x4 ADD PUSH2 0x543 SWAP1 PUSH2 0x21EE JUMP JUMPDEST PUSH1 0x40 MLOAD DUP1 SWAP2 SUB SWAP1 REVERT JUMPDEST DUP2 PUSH20 0xFFFFFFFFFFFFFFFFFFFFFFFFFFFFFFFFFFFFFFFF AND PUSH4 0xA9059CBB PUSH1 0x1 PUSH0 SWAP1 SLOAD SWAP1 PUSH2 0x100 EXP SWAP1 DIV PUSH20 0xFFFFFFFFFFFFFFFFFFFFFFFFFFFFFFFFFFFFFFFF AND DUP4 PUSH1 0x40 MLOAD DUP4 PUSH4 0xFFFFFFFF AND PUSH1 0xE0 SHL DUP2 MSTORE PUSH1 0x4 ADD PUSH2 0x5A8 SWAP3 SWAP2 SWAP1 PUSH2 0x220C JUMP JUMPDEST PUSH1 0x20 PUSH1 0x40 MLOAD DUP1 DUP4 SUB DUP2 PUSH0 DUP8 GAS CALL ISZERO DUP1 ISZERO PUSH2 0x5C4 JUMPI RETURNDATASIZE PUSH0 DUP1 RETURNDATACOPY RETURNDATASIZE PUSH0 REVERT JUMPDEST POP POP POP POP PUSH1 0x40 MLOAD RETURNDATASIZE PUSH1 0x1F NOT PUSH1 0x1F DUP3 ADD AND DUP3 ADD DUP1 PUSH1 0x40 MSTORE POP DUP2 ADD SWAP1 PUSH2 0x5E8 SWAP2 SWAP1 PUSH2 0x2268 JUMP JUMPDEST POP POP POP POP JUMP JUMPDEST PUSH1 0x60 DUP1 PUSH0 PUSH1 0x5 DUP1 SLOAD SWAP1 POP SWAP1 POP DUP1 PUSH8 0xFFFFFFFFFFFFFFFF DUP2 GT ISZERO PUSH2 0x614 JUMPI PUSH2 0x613 PUSH2 0x2293 JUMP JUMPDEST JUMPDEST PUSH1 0x40 MLOAD SWAP1 DUP1 DUP3 MSTORE DUP1 PUSH1 0x20 MUL PUSH1 0x20 ADD DUP3 ADD PUSH1 0x40 MSTORE DUP1 ISZERO PUSH2 0x642 JUMPI DUP2 PUSH1 0x20 ADD PUSH1 0x20 DUP3 MUL DUP1 CALLDATASIZE DUP4 CALLDATACOPY DUP1 DUP3 ADD SWAP2 POP POP SWAP1 POP JUMPDEST POP SWAP3 POP DUP1 PUSH8 0xFFFFFFFFFFFFFFFF DUP2 GT ISZERO PUSH2 0x65F JUMPI PUSH2 0x65E PUSH2 0x2293 JUMP JUMPDEST JUMPDEST PUSH1 0x40 MLOAD SWAP1 DUP1 DUP3 MSTORE DUP1 PUSH1 0x20 MUL PUSH1 0x20 ADD DUP3 ADD PUSH1 0x40 MSTORE DUP1 ISZERO PUSH2 0x68D JUMPI DUP2 PUSH1 0x20 ADD PUSH1 0x20 DUP3 MUL DUP1 CALLDATASIZE DUP4 CALLDATACOPY DUP1 DUP3 ADD SWAP2 POP POP SWAP1 POP JUMPDEST POP SWAP2 POP PUSH0 JUMPDEST DUP2 DUP2 LT ISZERO PUSH2 0x7D3 JUMPI PUSH0 PUSH1 0x5 DUP3 DUP2 SLOAD DUP2 LT PUSH2 0x6AF JUMPI PUSH2 0x6AE PUSH2 0x22C0 JUMP JUMPDEST JUMPDEST SWAP1 PUSH0 MSTORE PUSH1 0x20 PUSH0 KECCAK256 ADD PUSH0 SWAP1 SLOAD SWAP1 PUSH2 0x100 EXP SWAP1 DIV PUSH20 0xFFFFFFFFFFFFFFFFFFFFFFFFFFFFFFFFFFFFFFFF AND SWAP1 POP DUP1 DUP6 DUP4 DUP2 MLOAD DUP2 LT PUSH2 0x6ED JUMPI PUSH2 0x6EC PUSH2 0x22C0 JUMP JUMPDEST JUMPDEST PUSH1 0x20 MUL PUSH1 0x20 ADD ADD SWAP1 PUSH20 0xFFFFFFFFFFFFFFFFFFFFFFFFFFFFFFFFFFFFFFFF AND SWAP1 DUP2 PUSH20 0xFFFFFFFFFFFFFFFFFFFFFFFFFFFFFFFFFFFFFFFF AND DUP2 MSTORE POP POP PUSH1 0x4 PUSH0 DUP8 PUSH20 0xFFFFFFFFFFFFFFFFFFFFFFFFFFFFFFFFFFFFFFFF AND PUSH20 0xFFFFFFFFFFFFFFFFFFFFFFFFFFFFFFFFFFFFFFFF AND DUP2 MSTORE PUSH1 0x20 ADD SWAP1 DUP2 MSTORE PUSH1 0x20 ADD PUSH0 KECCAK256 PUSH0 DUP3 PUSH20 0xFFFFFFFFFFFFFFFFFFFFFFFFFFFFFFFFFFFFFFFF AND PUSH20 0xFFFFFFFFFFFFFFFFFFFFFFFFFFFFFFFFFFFFFFFF AND DUP2 MSTORE PUSH1 0x20 ADD SWAP1 DUP2 MSTORE PUSH1 0x20 ADD PUSH0 KECCAK256 SLOAD DUP5 DUP4 DUP2 MLOAD DUP2 LT PUSH2 0x7B3 JUMPI PUSH2 0x7B2 PUSH2 0x22C0 JUMP JUMPDEST JUMPDEST PUSH1 0x20 MUL PUSH1 0x20 ADD ADD DUP2 DUP2 MSTORE POP POP POP DUP1 DUP1 PUSH2 0x7CB SWAP1 PUSH2 0x231A JUMP JUMPDEST SWAP2 POP POP PUSH2 0x692 JUMP JUMPDEST POP POP SWAP2 POP SWAP2 JUMP JUMPDEST PUSH0 DUP1 DUP3 PUSH20 0xFFFFFFFFFFFFFFFFFFFFFFFFFFFFFFFFFFFFFFFF AND PUSH4 0x313CE567 PUSH1 0x40 MLOAD DUP2 PUSH4 0xFFFFFFFF AND PUSH1 0xE0 SHL DUP2 MSTORE PUSH1 0x4 ADD PUSH1 0x20 PUSH1 0x40 MLOAD DUP1 DUP4 SUB DUP2 DUP7 GAS STATICCALL ISZERO DUP1 ISZERO PUSH2 0x825 JUMPI RETURNDATASIZE PUSH0 DUP1 RETURNDATACOPY RETURNDATASIZE PUSH0 REVERT JUMPDEST POP POP POP POP PUSH1 0x40 MLOAD RETURNDATASIZE PUSH1 0x1F NOT PUSH1 0x1F DUP3 ADD AND DUP3 ADD DUP1 PUSH1 0x40 MSTORE POP DUP2 ADD SWAP1 PUSH2 0x849 SWAP2 SWAP1 PUSH2 0x2397 JUMP JUMPDEST SWAP1 POP DUP1 PUSH1 0xA PUSH2 0x858 SWAP2 SWAP1 PUSH2 0x24F1 JUMP JUMPDEST PUSH1 0x3 PUSH0 DUP6 PUSH20 0xFFFFFFFFFFFFFFFFFFFFFFFFFFFFFFFFFFFFFFFF AND PUSH20 0xFFFFFFFFFFFFFFFFFFFFFFFFFFFFFFFFFFFFFFFF AND DUP2 MSTORE PUSH1 0x20 ADD SWAP1 DUP2 MSTORE PUSH1 0x20 ADD PUSH0 KECCAK256 SLOAD PUSH2 0x8A0 SWAP2 SWAP1 PUSH2 0x2568 JUMP JUMPDEST SWAP2 POP POP SWAP2 SWAP1 POP JUMP JUMPDEST PUSH0 DUP2 GT PUSH2 0x8EA JUMPI PUSH1 0x40 MLOAD PUSH32 0x8C379A000000000000000000000000000000000000000000000000000000000 DUP2 MSTORE PUSH1 0x4 ADD PUSH2 0x8E1 SWAP1 PUSH2 0x25E2 JUMP JUMPDEST PUSH1 0x40 MLOAD DUP1 SWAP2 SUB SWAP1 REVERT JUMPDEST PUSH0 DUP3 SWAP1 POP PUSH0 PUSH2 0x8F9 DUP5 DUP5 PUSH2 0x1B54 JUMP JUMPDEST SWAP1 POP PUSH0 DUP3 PUSH20 0xFFFFFFFFFFFFFFFFFFFFFFFFFFFFFFFFFFFFFFFF AND PUSH4 0xDD62ED3E CALLER ADDRESS PUSH1 0x40 MLOAD DUP4 PUSH4 0xFFFFFFFF AND PUSH1 0xE0 SHL DUP2 MSTORE PUSH1 0x4 ADD PUSH2 0x937 SWAP3 SWAP2 SWAP1 PUSH2 0x2600 JUMP JUMPDEST PUSH1 0x20 PUSH1 0x40 MLOAD DUP1 DUP4 SUB DUP2 DUP7 GAS STATICCALL ISZERO DUP1 ISZERO PUSH2 0x952 JUMPI RETURNDATASIZE PUSH0 DUP1 RETURNDATACOPY RETURNDATASIZE PUSH0 REVERT JUMPDEST POP POP POP POP PUSH1 0x40 MLOAD RETURNDATASIZE PUSH1 0x1F NOT PUSH1 0x1F DUP3 ADD AND DUP3 ADD DUP1 PUSH1 0x40 MSTORE POP DUP2 ADD SWAP1 PUSH2 0x976 SWAP2 SWAP1 PUSH2 0x2179 JUMP JUMPDEST SWAP1 POP DUP2 DUP2 LT ISZERO PUSH2 0x9BB JUMPI PUSH1 0x40 MLOAD PUSH32 0x8C379A000000000000000000000000000000000000000000000000000000000 DUP2 MSTORE PUSH1 0x4 ADD PUSH2 0x9B2 SWAP1 PUSH2 0x2671 JUMP JUMPDEST PUSH1 0x40 MLOAD DUP1 SWAP2 SUB SWAP1 REVERT JUMPDEST PUSH0 DUP4 PUSH20 0xFFFFFFFFFFFFFFFFFFFFFFFFFFFFFFFFFFFFFFFF AND PUSH4 0x23B872DD CALLER ADDRESS DUP7 PUSH1 0x40 MLOAD DUP5 PUSH4 0xFFFFFFFF AND PUSH1 0xE0 SHL DUP2 MSTORE PUSH1 0x4 ADD PUSH2 0x9F9 SWAP4 SWAP3 SWAP2 SWAP1 PUSH2 0x268F JUMP JUMPDEST PUSH1 0x20 PUSH1 0x40 MLOAD DUP1 DUP4 SUB DUP2 PUSH0 DUP8 GAS CALL ISZERO DUP1 ISZERO PUSH2 0xA15 JUMPI RETURNDATASIZE PUSH0 DUP1 RETURNDATACOPY RETURNDATASIZE PUSH0 REVERT JUMPDEST POP POP POP POP PUSH1 0x40 MLOAD RETURNDATASIZE PUSH1 0x1F NOT PUSH1 0x1F DUP3 ADD AND DUP3 ADD DUP1 PUSH1 0x40 MSTORE POP DUP2 ADD SWAP1 PUSH2 0xA39 SWAP2 SWAP1 PUSH2 0x2268 JUMP JUMPDEST SWAP1 POP DUP1 PUSH2 0xA7B JUMPI PUSH1 0x40 MLOAD PUSH32 0x8C379A000000000000000000000000000000000000000000000000000000000 DUP2 MSTORE PUSH1 0x4 ADD PUSH2 0xA72 SWAP1 PUSH2 0x270E JUMP JUMPDEST PUSH1 0x40 MLOAD DUP1 SWAP2 SUB SWAP1 REVERT JUMPDEST DUP3 PUSH1 0x3 PUSH0 DUP9 PUSH20 0xFFFFFFFFFFFFFFFFFFFFFFFFFFFFFFFFFFFFFFFF AND PUSH20 0xFFFFFFFFFFFFFFFFFFFFFFFFFFFFFFFFFFFFFFFF AND DUP2 MSTORE PUSH1 0x20 ADD SWAP1 DUP2 MSTORE PUSH1 0x20 ADD PUSH0 KECCAK256 PUSH0 DUP3 DUP3 SLOAD PUSH2 0xAC7 SWAP2 SWAP1 PUSH2 0x272C JUMP JUMPDEST SWAP3 POP POP DUP2 SWAP1 SSTORE POP CALLER PUSH20 0xFFFFFFFFFFFFFFFFFFFFFFFFFFFFFFFFFFFFFFFF AND PUSH32 0x8752A472E571A816AEA92EEC8DAE9BAF628E840F4929FBCC2D155E6233FF68A7 DUP8 DUP6 PUSH1 0x40 MLOAD PUSH2 0xB16 SWAP3 SWAP2 SWAP1 PUSH2 0x220C JUMP JUMPDEST PUSH1 0x40 MLOAD DUP1 SWAP2 SUB SWAP1 LOG2 POP POP POP POP POP POP JUMP JUMPDEST PUSH1 0x60 DUP1 PUSH0 PUSH1 0x5 DUP1 SLOAD SWAP1 POP SWAP1 POP DUP1 PUSH8 0xFFFFFFFFFFFFFFFF DUP2 GT ISZERO PUSH2 0xB4C JUMPI PUSH2 0xB4B PUSH2 0x2293 JUMP JUMPDEST JUMPDEST PUSH1 0x40 MLOAD SWAP1 DUP1 DUP3 MSTORE DUP1 PUSH1 0x20 MUL PUSH1 0x20 ADD DUP3 ADD PUSH1 0x40 MSTORE DUP1 ISZERO PUSH2 0xB7A JUMPI DUP2 PUSH1 0x20 ADD PUSH1 0x20 DUP3 MUL DUP1 CALLDATASIZE DUP4 CALLDATACOPY DUP1 DUP3 ADD SWAP2 POP POP SWAP1 POP JUMPDEST POP SWAP3 POP DUP1 PUSH8 0xFFFFFFFFFFFFFFFF DUP2 GT ISZERO PUSH2 0xB97 JUMPI PUSH2 0xB96 PUSH2 0x2293 JUMP JUMPDEST JUMPDEST PUSH1 0x40 MLOAD SWAP1 DUP1 DUP3 MSTORE DUP1 PUSH1 0x20 MUL PUSH1 0x20 ADD DUP3 ADD PUSH1 0x40 MSTORE DUP1 ISZERO PUSH2 0xBC5 JUMPI DUP2 PUSH1 0x20 ADD PUSH1 0x20 DUP3 MUL DUP1 CALLDATASIZE DUP4 CALLDATACOPY DUP1 DUP3 ADD SWAP2 POP POP SWAP1 POP JUMPDEST POP SWAP2 POP PUSH0 JUMPDEST DUP2 DUP2 LT ISZERO PUSH2 0xD0A JUMPI PUSH0 PUSH1 0x5 DUP3 DUP2 SLOAD DUP2 LT PUSH2 0xBE7 JUMPI PUSH2 0xBE6 PUSH2 0x22C0 JUMP JUMPDEST JUMPDEST SWAP1 PUSH0 MSTORE PUSH1 0x20 PUSH0 KECCAK256 ADD PUSH0 SWAP1 SLOAD SWAP1 PUSH2 0x100 EXP SWAP1 DIV PUSH20 0xFFFFFFFFFFFFFFFFFFFFFFFFFFFFFFFFFFFFFFFF AND SWAP1 POP DUP1 DUP6 DUP4 DUP2 MLOAD DUP2 LT PUSH2 0xC25 JUMPI PUSH2 0xC24 PUSH2 0x22C0 JUMP JUMPDEST JUMPDEST PUSH1 0x20 MUL PUSH1 0x20 ADD ADD SWAP1 PUSH20 0xFFFFFFFFFFFFFFFFFFFFFFFFFFFFFFFFFFFFFFFF AND SWAP1 DUP2 PUSH20 0xFFFFFFFFFFFFFFFFFFFFFFFFFFFFFFFFFFFFFFFF AND DUP2 MSTORE POP POP DUP1 PUSH20 0xFFFFFFFFFFFFFFFFFFFFFFFFFFFFFFFFFFFFFFFF AND PUSH4 0x70A08231 ADDRESS PUSH1 0x40 MLOAD DUP3 PUSH4 0xFFFFFFFF AND PUSH1 0xE0 SHL DUP2 MSTORE PUSH1 0x4 ADD PUSH2 0xC98 SWAP2 SWAP1 PUSH2 0x1EEC JUMP JUMPDEST PUSH1 0x20 PUSH1 0x40 MLOAD DUP1 DUP4 SUB DUP2 DUP7 GAS STATICCALL ISZERO DUP1 ISZERO PUSH2 0xCB3 JUMPI RETURNDATASIZE PUSH0 DUP1 RETURNDATACOPY RETURNDATASIZE PUSH0 REVERT JUMPDEST POP POP POP POP PUSH1 0x40 MLOAD RETURNDATASIZE PUSH1 0x1F NOT PUSH1 0x1F DUP3 ADD AND DUP3 ADD DUP1 PUSH1 0x40 MSTORE POP DUP2 ADD SWAP1 PUSH2 0xCD7 SWAP2 SWAP1 PUSH2 0x2179 JUMP JUMPDEST DUP5 DUP4 DUP2 MLOAD DUP2 LT PUSH2 0xCEA JUMPI PUSH2 0xCE9 PUSH2 0x22C0 JUMP JUMPDEST JUMPDEST PUSH1 0x20 MUL PUSH1 0x20 ADD ADD DUP2 DUP2 MSTORE POP POP POP DUP1 DUP1 PUSH2 0xD02 SWAP1 PUSH2 0x231A JUMP JUMPDEST SWAP2 POP POP PUSH2 0xBCA JUMP JUMPDEST POP POP SWAP1 SWAP2 JUMP JUMPDEST PUSH1 0x5 DUP2 DUP2 SLOAD DUP2 LT PUSH2 0xD1F JUMPI PUSH0 DUP1 REVERT JUMPDEST SWAP1 PUSH0 MSTORE PUSH1 0x20 PUSH0 KECCAK256 ADD PUSH0 SWAP2 POP SLOAD SWAP1 PUSH2 0x100 EXP SWAP1 DIV PUSH20 0xFFFFFFFFFFFFFFFFFFFFFFFFFFFFFFFFFFFFFFFF AND DUP2 JUMP JUMPDEST PUSH1 0x1 PUSH0 SWAP1 SLOAD SWAP1 PUSH2 0x100 EXP SWAP1 DIV PUSH20 0xFFFFFFFFFFFFFFFFFFFFFFFFFFFFFFFFFFFFFFFF AND PUSH20 0xFFFFFFFFFFFFFFFFFFFFFFFFFFFFFFFFFFFFFFFF AND CALLER PUSH20 0xFFFFFFFFFFFFFFFFFFFFFFFFFFFFFFFFFFFFFFFF AND EQ PUSH2 0xDDA JUMPI PUSH1 0x40 MLOAD PUSH32 0x8C379A000000000000000000000000000000000000000000000000000000000 DUP2 MSTORE PUSH1 0x4 ADD PUSH2 0xDD1 SWAP1 PUSH2 0x2147 JUMP JUMPDEST PUSH1 0x40 MLOAD DUP1 SWAP2 SUB SWAP1 REVERT JUMPDEST PUSH0 DUP2 SWAP1 POP PUSH0 DUP2 PUSH20 0xFFFFFFFFFFFFFFFFFFFFFFFFFFFFFFFFFFFFFFFF AND PUSH4 0x70A08231 ADDRESS PUSH1 0x40 MLOAD DUP3 PUSH4 0xFFFFFFFF AND PUSH1 0xE0 SHL DUP2 MSTORE PUSH1 0x4 ADD PUSH2 0xE18 SWAP2 SWAP1 PUSH2 0x1EEC JUMP JUMPDEST PUSH1 0x20 PUSH1 0x40 MLOAD DUP1 DUP4 SUB DUP2 DUP7 GAS STATICCALL ISZERO DUP1 ISZERO PUSH2 0xE33 JUMPI RETURNDATASIZE PUSH0 DUP1 RETURNDATACOPY RETURNDATASIZE PUSH0 REVERT JUMPDEST POP POP POP POP PUSH1 0x40 MLOAD RETURNDATASIZE PUSH1 0x1F NOT PUSH1 0x1F DUP3 ADD AND DUP3 ADD DUP1 PUSH1 0x40 MSTORE POP DUP2 ADD SWAP1 PUSH2 0xE57 SWAP2 SWAP1 PUSH2 0x2179 JUMP JUMPDEST SWAP1 POP PUSH0 DUP2 GT PUSH2 0xE9B JUMPI PUSH1 0x40 MLOAD PUSH32 0x8C379A000000000000000000000000000000000000000000000000000000000 DUP2 MSTORE PUSH1 0x4 ADD PUSH2 0xE92 SWAP1 PUSH2 0x21EE JUMP JUMPDEST PUSH1 0x40 MLOAD DUP1 SWAP2 SUB SWAP1 REVERT JUMPDEST DUP2 PUSH20 0xFFFFFFFFFFFFFFFFFFFFFFFFFFFFFFFFFFFFFFFF AND PUSH4 0xA9059CBB PUSH1 0x1 PUSH0 SWAP1 SLOAD SWAP1 PUSH2 0x100 EXP SWAP1 DIV PUSH20 0xFFFFFFFFFFFFFFFFFFFFFFFFFFFFFFFFFFFFFFFF AND DUP4 PUSH1 0x40 MLOAD DUP4 PUSH4 0xFFFFFFFF AND PUSH1 0xE0 SHL DUP2 MSTORE PUSH1 0x4 ADD PUSH2 0xEF7 SWAP3 SWAP2 SWAP1 PUSH2 0x220C JUMP JUMPDEST PUSH1 0x20 PUSH1 0x40 MLOAD DUP1 DUP4 SUB DUP2 PUSH0 DUP8 GAS CALL ISZERO DUP1 ISZERO PUSH2 0xF13 JUMPI RETURNDATASIZE PUSH0 DUP1 RETURNDATACOPY RETURNDATASIZE PUSH0 REVERT JUMPDEST POP POP POP POP PUSH1 0x40 MLOAD RETURNDATASIZE PUSH1 0x1F NOT PUSH1 0x1F DUP3 ADD AND DUP3 ADD DUP1 PUSH1 0x40 MSTORE POP DUP2 ADD SWAP1 PUSH2 0xF37 SWAP2 SWAP1 PUSH2 0x2268 JUMP JUMPDEST POP POP POP POP JUMP JUMPDEST PUSH1 0x1 PUSH0 SWAP1 SLOAD SWAP1 PUSH2 0x100 EXP SWAP1 DIV PUSH20 0xFFFFFFFFFFFFFFFFFFFFFFFFFFFFFFFFFFFFFFFF AND DUP2 JUMP JUMPDEST PUSH1 0x2 SLOAD DUP2 JUMP JUMPDEST PUSH1 0x1 PUSH0 SWAP1 SLOAD SWAP1 PUSH2 0x100 EXP SWAP1 DIV PUSH20 0xFFFFFFFFFFFFFFFFFFFFFFFFFFFFFFFFFFFFFFFF AND PUSH20 0xFFFFFFFFFFFFFFFFFFFFFFFFFFFFFFFFFFFFFFFF AND CALLER PUSH20 0xFFFFFFFFFFFFFFFFFFFFFFFFFFFFFFFFFFFFFFFF AND EQ PUSH2 0xFF7 JUMPI PUSH1 0x40 MLOAD PUSH32 0x8C379A000000000000000000000000000000000000000000000000000000000 DUP2 MSTORE PUSH1 0x4 ADD PUSH2 0xFEE SWAP1 PUSH2 0x2147 JUMP JUMPDEST PUSH1 0x40 MLOAD DUP1 SWAP2 SUB SWAP1 REVERT JUMPDEST PUSH0 DUP3 SWAP1 POP PUSH0 PUSH2 0x1006 DUP5 DUP5 PUSH2 0x1B54 JUMP JUMPDEST SWAP1 POP PUSH0 DUP3 PUSH20 0xFFFFFFFFFFFFFFFFFFFFFFFFFFFFFFFFFFFFFFFF AND PUSH4 0xDD62ED3E CALLER ADDRESS PUSH1 0x40 MLOAD DUP4 PUSH4 0xFFFFFFFF AND PUSH1 0xE0 SHL DUP2 MSTORE PUSH1 0x4 ADD PUSH2 0x1044 SWAP3 SWAP2 SWAP1 PUSH2 0x2600 JUMP JUMPDEST PUSH1 0x20 PUSH1 0x40 MLOAD DUP1 DUP4 SUB DUP2 DUP7 GAS STATICCALL ISZERO DUP1 ISZERO PUSH2 0x105F JUMPI RETURNDATASIZE PUSH0 DUP1 RETURNDATACOPY RETURNDATASIZE PUSH0 REVERT JUMPDEST POP POP POP POP PUSH1 0x40 MLOAD RETURNDATASIZE PUSH1 0x1F NOT PUSH1 0x1F DUP3 ADD AND DUP3 ADD DUP1 PUSH1 0x40 MSTORE POP DUP2 ADD SWAP1 PUSH2 0x1083 SWAP2 SWAP1 PUSH2 0x2179 JUMP JUMPDEST SWAP1 POP DUP2 DUP2 LT ISZERO PUSH2 0x10C8 JUMPI PUSH1 0x40 MLOAD PUSH32 0x8C379A000000000000000000000000000000000000000000000000000000000 DUP2 MSTORE PUSH1 0x4 ADD PUSH2 0x10BF SWAP1 PUSH2 0x2671 JUMP JUMPDEST PUSH1 0x40 MLOAD DUP1 SWAP2 SUB SWAP1 REVERT JUMPDEST PUSH0 DUP4 PUSH20 0xFFFFFFFFFFFFFFFFFFFFFFFFFFFFFFFFFFFFFFFF AND PUSH4 0x23B872DD CALLER ADDRESS DUP7 PUSH1 0x40 MLOAD DUP5 PUSH4 0xFFFFFFFF AND PUSH1 0xE0 SHL DUP2 MSTORE PUSH1 0x4 ADD PUSH2 0x1106 SWAP4 SWAP3 SWAP2 SWAP1 PUSH2 0x268F JUMP JUMPDEST PUSH1 0x20 PUSH1 0x40 MLOAD DUP1 DUP4 SUB DUP2 PUSH0 DUP8 GAS CALL ISZERO DUP1 ISZERO PUSH2 0x1122 JUMPI RETURNDATASIZE PUSH0 DUP1 RETURNDATACOPY RETURNDATASIZE PUSH0 REVERT JUMPDEST POP POP POP POP PUSH1 0x40 MLOAD RETURNDATASIZE PUSH1 0x1F NOT PUSH1 0x1F DUP3 ADD AND DUP3 ADD DUP1 PUSH1 0x40 MSTORE POP DUP2 ADD SWAP1 PUSH2 0x1146 SWAP2 SWAP1 PUSH2 0x2268 JUMP JUMPDEST SWAP1 POP DUP1 PUSH2 0x1188 JUMPI PUSH1 0x40 MLOAD PUSH32 0x8C379A000000000000000000000000000000000000000000000000000000000 DUP2 MSTORE PUSH1 0x4 ADD PUSH2 0x117F SWAP1 PUSH2 0x270E JUMP JUMPDEST PUSH1 0x40 MLOAD DUP1 SWAP2 SUB SWAP1 REVERT JUMPDEST DUP3 PUSH1 0x3 PUSH0 DUP9 PUSH20 0xFFFFFFFFFFFFFFFFFFFFFFFFFFFFFFFFFFFFFFFF AND PUSH20 0xFFFFFFFFFFFFFFFFFFFFFFFFFFFFFFFFFFFFFFFF AND DUP2 MSTORE PUSH1 0x20 ADD SWAP1 DUP2 MSTORE PUSH1 0x20 ADD PUSH0 KECCAK256 PUSH0 DUP3 DUP3 SLOAD PUSH2 0x11D4 SWAP2 SWAP1 PUSH2 0x272C JUMP JUMPDEST SWAP3 POP POP DUP2 SWAP1 SSTORE POP CALLER PUSH20 0xFFFFFFFFFFFFFFFFFFFFFFFFFFFFFFFFFFFFFFFF AND PUSH32 0x8752A472E571A816AEA92EEC8DAE9BAF628E840F4929FBCC2D155E6233FF68A7 DUP8 DUP6 PUSH1 0x40 MLOAD PUSH2 0x1223 SWAP3 SWAP2 SWAP1 PUSH2 0x220C JUMP JUMPDEST PUSH1 0x40 MLOAD DUP1 SWAP2 SUB SWAP1 LOG2 POP POP POP POP POP POP JUMP JUMPDEST PUSH1 0x2 SLOAD CALLVALUE LT ISZERO PUSH2 0x1278 JUMPI PUSH1 0x40 MLOAD PUSH32 0x8C379A000000000000000000000000000000000000000000000000000000000 DUP2 MSTORE PUSH1 0x4 ADD PUSH2 0x126F SWAP1 PUSH2 0x27A9 JUMP JUMPDEST PUSH1 0x40 MLOAD DUP1 SWAP2 SUB SWAP1 REVERT JUMPDEST DUP2 DUP2 PUSH0 SWAP2 DUP3 PUSH2 0x1288 SWAP3 SWAP2 SWAP1 PUSH2 0x29CB JUMP JUMPDEST POP POP POP JUMP JUMPDEST PUSH1 0x4 PUSH1 0x20 MSTORE DUP2 PUSH0 MSTORE PUSH1 0x40 PUSH0 KECCAK256 PUSH1 0x20 MSTORE DUP1 PUSH0 MSTORE PUSH1 0x40 PUSH0 KECCAK256 PUSH0 SWAP2 POP SWAP2 POP POP SLOAD DUP2 JUMP JUMPDEST PUSH0 PUSH20 0x760AFE86E5DE5FA0EE542FC7B7B713E1C5425701 SWAP1 POP PUSH0 DUP2 SWAP1 POP PUSH0 PUSH2 0x12D4 DUP4 DUP6 PUSH2 0x1B54 JUMP JUMPDEST SWAP1 POP PUSH0 DUP3 PUSH20 0xFFFFFFFFFFFFFFFFFFFFFFFFFFFFFFFFFFFFFFFF AND PUSH4 0xDD62ED3E CALLER ADDRESS PUSH1 0x40 MLOAD DUP4 PUSH4 0xFFFFFFFF AND PUSH1 0xE0 SHL DUP2 MSTORE PUSH1 0x4 ADD PUSH2 0x1312 SWAP3 SWAP2 SWAP1 PUSH2 0x2600 JUMP JUMPDEST PUSH1 0x20 PUSH1 0x40 MLOAD DUP1 DUP4 SUB DUP2 DUP7 GAS STATICCALL ISZERO DUP1 ISZERO PUSH2 0x132D JUMPI RETURNDATASIZE PUSH0 DUP1 RETURNDATACOPY RETURNDATASIZE PUSH0 REVERT JUMPDEST POP POP POP POP PUSH1 0x40 MLOAD RETURNDATASIZE PUSH1 0x1F NOT PUSH1 0x1F DUP3 ADD AND DUP3 ADD DUP1 PUSH1 0x40 MSTORE POP DUP2 ADD SWAP1 PUSH2 0x1351 SWAP2 SWAP1 PUSH2 0x2179 JUMP JUMPDEST SWAP1 POP DUP2 DUP2 LT ISZERO PUSH2 0x1396 JUMPI PUSH1 0x40 MLOAD PUSH32 0x8C379A000000000000000000000000000000000000000000000000000000000 DUP2 MSTORE PUSH1 0x4 ADD PUSH2 0x138D SWAP1 PUSH2 0x2671 JUMP JUMPDEST PUSH1 0x40 MLOAD DUP1 SWAP2 SUB SWAP1 REVERT JUMPDEST PUSH0 DUP4 PUSH20 0xFFFFFFFFFFFFFFFFFFFFFFFFFFFFFFFFFFFFFFFF AND PUSH4 0x23B872DD CALLER ADDRESS DUP7 PUSH1 0x40 MLOAD DUP5 PUSH4 0xFFFFFFFF AND PUSH1 0xE0 SHL DUP2 MSTORE PUSH1 0x4 ADD PUSH2 0x13D4 SWAP4 SWAP3 SWAP2 SWAP1 PUSH2 0x268F JUMP JUMPDEST PUSH1 0x20 PUSH1 0x40 MLOAD DUP1 DUP4 SUB DUP2 PUSH0 DUP8 GAS CALL ISZERO DUP1 ISZERO PUSH2 0x13F0 JUMPI RETURNDATASIZE PUSH0 DUP1 RETURNDATACOPY RETURNDATASIZE PUSH0 REVERT JUMPDEST POP POP POP POP PUSH1 0x40 MLOAD RETURNDATASIZE PUSH1 0x1F NOT PUSH1 0x1F DUP3 ADD AND DUP3 ADD DUP1 PUSH1 0x40 MSTORE POP DUP2 ADD SWAP1 PUSH2 0x1414 SWAP2 SWAP1 PUSH2 0x2268 JUMP JUMPDEST SWAP1 POP DUP1 PUSH2 0x1456 JUMPI PUSH1 0x40 MLOAD PUSH32 0x8C379A000000000000000000000000000000000000000000000000000000000 DUP2 MSTORE PUSH1 0x4 ADD PUSH2 0x144D SWAP1 PUSH2 0x270E JUMP JUMPDEST PUSH1 0x40 MLOAD DUP1 SWAP2 SUB SWAP1 REVERT JUMPDEST DUP3 PUSH1 0x3 PUSH0 DUP8 PUSH20 0xFFFFFFFFFFFFFFFFFFFFFFFFFFFFFFFFFFFFFFFF AND PUSH20 0xFFFFFFFFFFFFFFFFFFFFFFFFFFFFFFFFFFFFFFFF AND DUP2 MSTORE PUSH1 0x20 ADD SWAP1 DUP2 MSTORE PUSH1 0x20 ADD PUSH0 KECCAK256 PUSH0 DUP3 DUP3 SLOAD PUSH2 0x14A2 SWAP2 SWAP1 PUSH2 0x272C JUMP JUMPDEST SWAP3 POP POP DUP2 SWAP1 SSTORE POP CALLER PUSH20 0xFFFFFFFFFFFFFFFFFFFFFFFFFFFFFFFFFFFFFFFF AND PUSH32 0x8752A472E571A816AEA92EEC8DAE9BAF628E840F4929FBCC2D155E6233FF68A7 DUP7 DUP6 PUSH1 0x40 MLOAD PUSH2 0x14F1 SWAP3 SWAP2 SWAP1 PUSH2 0x220C JUMP JUMPDEST PUSH1 0x40 MLOAD DUP1 SWAP2 SUB SWAP1 LOG2 POP POP POP POP POP POP JUMP JUMPDEST PUSH1 0x1 PUSH0 SWAP1 SLOAD SWAP1 PUSH2 0x100 EXP SWAP1 DIV PUSH20 0xFFFFFFFFFFFFFFFFFFFFFFFFFFFFFFFFFFFFFFFF AND PUSH20 0xFFFFFFFFFFFFFFFFFFFFFFFFFFFFFFFFFFFFFFFF AND CALLER PUSH20 0xFFFFFFFFFFFFFFFFFFFFFFFFFFFFFFFFFFFFFFFF AND EQ PUSH2 0x1590 JUMPI PUSH1 0x40 MLOAD PUSH32 0x8C379A000000000000000000000000000000000000000000000000000000000 DUP2 MSTORE PUSH1 0x4 ADD PUSH2 0x1587 SWAP1 PUSH2 0x2147 JUMP JUMPDEST PUSH1 0x40 MLOAD DUP1 SWAP2 SUB SWAP1 REVERT JUMPDEST PUSH1 0x1 PUSH0 SWAP1 SLOAD SWAP1 PUSH2 0x100 EXP SWAP1 DIV PUSH20 0xFFFFFFFFFFFFFFFFFFFFFFFFFFFFFFFFFFFFFFFF AND PUSH20 0xFFFFFFFFFFFFFFFFFFFFFFFFFFFFFFFFFFFFFFFF AND PUSH2 0x8FC SELFBALANCE SWAP1 DUP2 ISZERO MUL SWAP1 PUSH1 0x40 MLOAD PUSH0 PUSH1 0x40 MLOAD DUP1 DUP4 SUB DUP2 DUP6 DUP9 DUP9 CALL SWAP4 POP POP POP POP ISZERO DUP1 ISZERO PUSH2 0x15F4 JUMPI RETURNDATASIZE PUSH0 DUP1 RETURNDATACOPY RETURNDATASIZE PUSH0 REVERT JUMPDEST POP JUMP JUMPDEST PUSH0 DUP1 SLOAD PUSH2 0x1603 SWAP1 PUSH2 0x27FE JUMP JUMPDEST DUP1 PUSH1 0x1F ADD PUSH1 0x20 DUP1 SWAP2 DIV MUL PUSH1 0x20 ADD PUSH1 0x40 MLOAD SWAP1 DUP2 ADD PUSH1 0x40 MSTORE DUP1 SWAP3 SWAP2 SWAP1 DUP2 DUP2 MSTORE PUSH1 0x20 ADD DUP3 DUP1 SLOAD PUSH2 0x162F SWAP1 PUSH2 0x27FE JUMP JUMPDEST DUP1 ISZERO PUSH2 0x167A JUMPI DUP1 PUSH1 0x1F LT PUSH2 0x1651 JUMPI PUSH2 0x100 DUP1 DUP4 SLOAD DIV MUL DUP4 MSTORE SWAP2 PUSH1 0x20 ADD SWAP2 PUSH2 0x167A JUMP JUMPDEST DUP3 ADD SWAP2 SWAP1 PUSH0 MSTORE PUSH1 0x20 PUSH0 KECCAK256 SWAP1 JUMPDEST DUP2 SLOAD DUP2 MSTORE SWAP1 PUSH1 0x1 ADD SWAP1 PUSH1 0x20 ADD DUP1 DUP4 GT PUSH2 0x165D JUMPI DUP3 SWAP1 SUB PUSH1 0x1F AND DUP3 ADD SWAP2 JUMPDEST POP POP POP POP POP DUP2 JUMP JUMPDEST PUSH1 0x3 PUSH1 0x20 MSTORE DUP1 PUSH0 MSTORE PUSH1 0x40 PUSH0 KECCAK256 PUSH0 SWAP2 POP SWAP1 POP SLOAD DUP2 JUMP JUMPDEST PUSH1 0x2 SLOAD CALLVALUE LT ISZERO PUSH2 0x16DC JUMPI PUSH1 0x40 MLOAD PUSH32 0x8C379A000000000000000000000000000000000000000000000000000000000 DUP2 MSTORE PUSH1 0x4 ADD PUSH2 0x16D3 SWAP1 PUSH2 0x27A9 JUMP JUMPDEST PUSH1 0x40 MLOAD DUP1 SWAP2 SUB SWAP1 REVERT JUMPDEST PUSH0 DUP3 GT PUSH2 0x171E JUMPI PUSH1 0x40 MLOAD PUSH32 0x8C379A000000000000000000000000000000000000000000000000000000000 DUP2 MSTORE PUSH1 0x4 ADD PUSH2 0x1715 SWAP1 PUSH2 0x2AE2 JUMP JUMPDEST PUSH1 0x40 MLOAD DUP1 SWAP2 SUB SWAP1 REVERT JUMPDEST PUSH0 DUP5 SWAP1 POP PUSH0 DUP5 SWAP1 POP PUSH0 PUSH2 0x1731 DUP8 DUP7 PUSH2 0x1B54 JUMP JUMPDEST SWAP1 POP PUSH0 DUP4 PUSH20 0xFFFFFFFFFFFFFFFFFFFFFFFFFFFFFFFFFFFFFFFF AND PUSH4 0xDD62ED3E CALLER ADDRESS PUSH1 0x40 MLOAD DUP4 PUSH4 0xFFFFFFFF AND PUSH1 0xE0 SHL DUP2 MSTORE PUSH1 0x4 ADD PUSH2 0x176F SWAP3 SWAP2 SWAP1 PUSH2 0x2600 JUMP JUMPDEST PUSH1 0x20 PUSH1 0x40 MLOAD DUP1 DUP4 SUB DUP2 DUP7 GAS STATICCALL ISZERO DUP1 ISZERO PUSH2 0x178A JUMPI RETURNDATASIZE PUSH0 DUP1 RETURNDATACOPY RETURNDATASIZE PUSH0 REVERT JUMPDEST POP POP POP POP PUSH1 0x40 MLOAD RETURNDATASIZE PUSH1 0x1F NOT PUSH1 0x1F DUP3 ADD AND DUP3 ADD DUP1 PUSH1 0x40 MSTORE POP DUP2 ADD SWAP1 PUSH2 0x17AE SWAP2 SWAP1 PUSH2 0x2179 JUMP JUMPDEST SWAP1 POP DUP2 DUP2 LT ISZERO PUSH2 0x17F3 JUMPI PUSH1 0x40 MLOAD PUSH32 0x8C379A000000000000000000000000000000000000000000000000000000000 DUP2 MSTORE PUSH1 0x4 ADD PUSH2 0x17EA SWAP1 PUSH2 0x2671 JUMP JUMPDEST PUSH1 0x40 MLOAD DUP1 SWAP2 SUB SWAP1 REVERT JUMPDEST PUSH0 DUP5 PUSH20 0xFFFFFFFFFFFFFFFFFFFFFFFFFFFFFFFFFFFFFFFF AND PUSH4 0x23B872DD CALLER ADDRESS DUP7 PUSH1 0x40 MLOAD DUP5 PUSH4 0xFFFFFFFF AND PUSH1 0xE0 SHL DUP2 MSTORE PUSH1 0x4 ADD PUSH2 0x1831 SWAP4 SWAP3 SWAP2 SWAP1 PUSH2 0x268F JUMP JUMPDEST PUSH1 0x20 PUSH1 0x40 MLOAD DUP1 DUP4 SUB DUP2 PUSH0 DUP8 GAS CALL ISZERO DUP1 ISZERO PUSH2 0x184D JUMPI RETURNDATASIZE PUSH0 DUP1 RETURNDATACOPY RETURNDATASIZE PUSH0 REVERT JUMPDEST POP POP POP POP PUSH1 0x40 MLOAD RETURNDATASIZE PUSH1 0x1F NOT PUSH1 0x1F DUP3 ADD AND DUP3 ADD DUP1 PUSH1 0x40 MSTORE POP DUP2 ADD SWAP1 PUSH2 0x1871 SWAP2 SWAP1 PUSH2 0x2268 JUMP JUMPDEST SWAP1 POP DUP1 PUSH2 0x18B3 JUMPI PUSH1 0x40 MLOAD PUSH32 0x8C379A000000000000000000000000000000000000000000000000000000000 DUP2 MSTORE PUSH1 0x4 ADD PUSH2 0x18AA SWAP1 PUSH2 0x2B4A JUMP JUMPDEST PUSH1 0x40 MLOAD DUP1 SWAP2 SUB SWAP1 REVERT JUMPDEST PUSH0 PUSH8 0xDE0B6B3A7640000 DUP8 DUP6 PUSH2 0x18C9 SWAP2 SWAP1 PUSH2 0x2B68 JUMP JUMPDEST PUSH2 0x18D3 SWAP2 SWAP1 PUSH2 0x2568 JUMP JUMPDEST SWAP1 POP DUP1 DUP6 PUSH20 0xFFFFFFFFFFFFFFFFFFFFFFFFFFFFFFFFFFFFFFFF AND PUSH4 0x70A08231 ADDRESS PUSH1 0x40 MLOAD DUP3 PUSH4 0xFFFFFFFF AND PUSH1 0xE0 SHL DUP2 MSTORE PUSH1 0x4 ADD PUSH2 0x190F SWAP2 SWAP1 PUSH2 0x1EEC JUMP JUMPDEST PUSH1 0x20 PUSH1 0x40 MLOAD DUP1 DUP4 SUB DUP2 DUP7 GAS STATICCALL ISZERO DUP1 ISZERO PUSH2 0x192A JUMPI RETURNDATASIZE PUSH0 DUP1 RETURNDATACOPY RETURNDATASIZE PUSH0 REVERT JUMPDEST POP POP POP POP PUSH1 0x40 MLOAD RETURNDATASIZE PUSH1 0x1F NOT PUSH1 0x1F DUP3 ADD AND DUP3 ADD DUP1 PUSH1 0x40 MSTORE POP DUP2 ADD SWAP1 PUSH2 0x194E SWAP2 SWAP1 PUSH2 0x2179 JUMP JUMPDEST LT ISZERO PUSH2 0x198F JUMPI PUSH1 0x40 MLOAD PUSH32 0x8C379A000000000000000000000000000000000000000000000000000000000 DUP2 MSTORE PUSH1 0x4 ADD PUSH2 0x1986 SWAP1 PUSH2 0x2BF3 JUMP JUMPDEST PUSH1 0x40 MLOAD DUP1 SWAP2 SUB SWAP1 REVERT JUMPDEST PUSH0 DUP6 PUSH20 0xFFFFFFFFFFFFFFFFFFFFFFFFFFFFFFFFFFFFFFFF AND PUSH4 0xA9059CBB CALLER DUP5 PUSH1 0x40 MLOAD DUP4 PUSH4 0xFFFFFFFF AND PUSH1 0xE0 SHL DUP2 MSTORE PUSH1 0x4 ADD PUSH2 0x19CB SWAP3 SWAP2 SWAP1 PUSH2 0x220C JUMP JUMPDEST PUSH1 0x20 PUSH1 0x40 MLOAD DUP1 DUP4 SUB DUP2 PUSH0 DUP8 GAS CALL ISZERO DUP1 ISZERO PUSH2 0x19E7 JUMPI RETURNDATASIZE PUSH0 DUP1 RETURNDATACOPY RETURNDATASIZE PUSH0 REVERT JUMPDEST POP POP POP POP PUSH1 0x40 MLOAD RETURNDATASIZE PUSH1 0x1F NOT PUSH1 0x1F DUP3 ADD AND DUP3 ADD DUP1 PUSH1 0x40 MSTORE POP DUP2 ADD SWAP1 PUSH2 0x1A0B SWAP2 SWAP1 PUSH2 0x2268 JUMP JUMPDEST SWAP1 POP DUP1 PUSH2 0x1A4D JUMPI PUSH1 0x40 MLOAD PUSH32 0x8C379A000000000000000000000000000000000000000000000000000000000 DUP2 MSTORE PUSH1 0x4 ADD PUSH2 0x1A44 SWAP1 PUSH2 0x2C5B JUMP JUMPDEST PUSH1 0x40 MLOAD DUP1 SWAP2 SUB SWAP1 REVERT JUMPDEST DUP5 PUSH1 0x3 PUSH0 DUP14 PUSH20 0xFFFFFFFFFFFFFFFFFFFFFFFFFFFFFFFFFFFFFFFF AND PUSH20 0xFFFFFFFFFFFFFFFFFFFFFFFFFFFFFFFFFFFFFFFF AND DUP2 MSTORE PUSH1 0x20 ADD SWAP1 DUP2 MSTORE PUSH1 0x20 ADD PUSH0 KECCAK256 PUSH0 DUP3 DUP3 SLOAD PUSH2 0x1A99 SWAP2 SWAP1 PUSH2 0x272C JUMP JUMPDEST SWAP3 POP POP DUP2 SWAP1 SSTORE POP DUP2 PUSH1 0x3 PUSH0 DUP13 PUSH20 0xFFFFFFFFFFFFFFFFFFFFFFFFFFFFFFFFFFFFFFFF AND PUSH20 0xFFFFFFFFFFFFFFFFFFFFFFFFFFFFFFFFFFFFFFFF AND DUP2 MSTORE PUSH1 0x20 ADD SWAP1 DUP2 MSTORE PUSH1 0x20 ADD PUSH0 KECCAK256 PUSH0 DUP3 DUP3 SLOAD PUSH2 0x1AEC SWAP2 SWAP1 PUSH2 0x2C79 JUMP JUMPDEST SWAP3 POP POP DUP2 SWAP1 SSTORE POP CALLER PUSH20 0xFFFFFFFFFFFFFFFFFFFFFFFFFFFFFFFFFFFFFFFF AND PUSH32 0x6782190C91D4A7E8AD2A867DEED6EC0A970CAB8FF137AE2BD4ABD92B3810F4D3 DUP13 DUP13 DUP9 DUP7 PUSH1 0x40 MLOAD PUSH2 0x1B3F SWAP5 SWAP4 SWAP3 SWAP2 SWAP1 PUSH2 0x2CAC JUMP JUMPDEST PUSH1 0x40 MLOAD DUP1 SWAP2 SUB SWAP1 LOG2 POP POP POP POP POP POP POP POP POP POP POP JUMP JUMPDEST PUSH0 DUP1 DUP4 PUSH20 0xFFFFFFFFFFFFFFFFFFFFFFFFFFFFFFFFFFFFFFFF AND PUSH4 0x313CE567 PUSH1 0x40 MLOAD DUP2 PUSH4 0xFFFFFFFF AND PUSH1 0xE0 SHL DUP2 MSTORE PUSH1 0x4 ADD PUSH1 0x20 PUSH1 0x40 MLOAD DUP1 DUP4 SUB DUP2 DUP7 GAS STATICCALL ISZERO DUP1 ISZERO PUSH2 0x1B9F JUMPI RETURNDATASIZE PUSH0 DUP1 RETURNDATACOPY RETURNDATASIZE PUSH0 REVERT JUMPDEST POP POP POP POP PUSH1 0x40 MLOAD RETURNDATASIZE PUSH1 0x1F NOT PUSH1 0x1F DUP3 ADD AND DUP3 ADD DUP1 PUSH1 0x40 MSTORE POP DUP2 ADD SWAP1 PUSH2 0x1BC3 SWAP2 SWAP1 PUSH2 0x2397 JUMP JUMPDEST SWAP1 POP DUP1 PUSH1 0xFF AND PUSH1 0xA PUSH2 0x1BD5 SWAP2 SWAP1 PUSH2 0x2CEF JUMP JUMPDEST DUP4 PUSH2 0x1BE0 SWAP2 SWAP1 PUSH2 0x2B68 JUMP JUMPDEST SWAP2 POP POP SWAP3 SWAP2 POP POP JUMP JUMPDEST PUSH0 DUP1 REVERT JUMPDEST PUSH0 DUP1 REVERT JUMPDEST PUSH0 PUSH20 0xFFFFFFFFFFFFFFFFFFFFFFFFFFFFFFFFFFFFFFFF DUP3 AND SWAP1 POP SWAP2 SWAP1 POP JUMP JUMPDEST PUSH0 PUSH2 0x1C1A DUP3 PUSH2 0x1BF1 JUMP JUMPDEST SWAP1 POP SWAP2 SWAP1 POP JUMP JUMPDEST PUSH2 0x1C2A DUP2 PUSH2 0x1C10 JUMP JUMPDEST DUP2 EQ PUSH2 0x1C34 JUMPI PUSH0 DUP1 REVERT JUMPDEST POP JUMP JUMPDEST PUSH0 DUP2 CALLDATALOAD SWAP1 POP PUSH2 0x1C45 DUP2 PUSH2 0x1C21 JUMP JUMPDEST SWAP3 SWAP2 POP POP JUMP JUMPDEST PUSH0 PUSH1 0x20 DUP3 DUP5 SUB SLT ISZERO PUSH2 0x1C60 JUMPI PUSH2 0x1C5F PUSH2 0x1BE9 JUMP JUMPDEST JUMPDEST PUSH0 PUSH2 0x1C6D DUP5 DUP3 DUP6 ADD PUSH2 0x1C37 JUMP JUMPDEST SWAP2 POP POP SWAP3 SWAP2 POP POP JUMP JUMPDEST PUSH0 DUP2 MLOAD SWAP1 POP SWAP2 SWAP1 POP JUMP JUMPDEST PUSH0 DUP3 DUP3 MSTORE PUSH1 0x20 DUP3 ADD SWAP1 POP SWAP3 SWAP2 POP POP JUMP JUMPDEST PUSH0 DUP2 SWAP1 POP PUSH1 0x20 DUP3 ADD SWAP1 POP SWAP2 SWAP1 POP JUMP JUMPDEST PUSH2 0x1CA8 DUP2 PUSH2 0x1C10 JUMP JUMPDEST DUP3 MSTORE POP POP JUMP JUMPDEST PUSH0 PUSH2 0x1CB9 DUP4 DUP4 PUSH2 0x1C9F JUMP JUMPDEST PUSH1 0x20 DUP4 ADD SWAP1 POP SWAP3 SWAP2 POP POP JUMP JUMPDEST PUSH0 PUSH1 0x20 DUP3 ADD SWAP1 POP SWAP2 SWAP1 POP JUMP JUMPDEST PUSH0 PUSH2 0x1CDB DUP3 PUSH2 0x1C76 JUMP JUMPDEST PUSH2 0x1CE5 DUP2 DUP6 PUSH2 0x1C80 JUMP JUMPDEST SWAP4 POP PUSH2 0x1CF0 DUP4 PUSH2 0x1C90 JUMP JUMPDEST DUP1 PUSH0 JUMPDEST DUP4 DUP2 LT ISZERO PUSH2 0x1D20 JUMPI DUP2 MLOAD PUSH2 0x1D07 DUP9 DUP3 PUSH2 0x1CAE JUMP JUMPDEST SWAP8 POP PUSH2 0x1D12 DUP4 PUSH2 0x1CC5 JUMP JUMPDEST SWAP3 POP POP PUSH1 0x1 DUP2 ADD SWAP1 POP PUSH2 0x1CF3 JUMP JUMPDEST POP DUP6 SWAP4 POP POP POP POP SWAP3 SWAP2 POP POP JUMP JUMPDEST PUSH0 DUP2 MLOAD SWAP1 POP SWAP2 SWAP1 POP JUMP JUMPDEST PUSH0 DUP3 DUP3 MSTORE PUSH1 0x20 DUP3 ADD SWAP1 POP SWAP3 SWAP2 POP POP JUMP JUMPDEST PUSH0 DUP2 SWAP1 POP PUSH1 0x20 DUP3 ADD SWAP1 POP SWAP2 SWAP1 POP JUMP JUMPDEST PUSH0 DUP2 SWAP1 POP SWAP2 SWAP1 POP JUMP JUMPDEST PUSH2 0x1D68 DUP2 PUSH2 0x1D56 JUMP JUMPDEST DUP3 MSTORE POP POP JUMP JUMPDEST PUSH0 PUSH2 0x1D79 DUP4 DUP4 PUSH2 0x1D5F JUMP JUMPDEST PUSH1 0x20 DUP4 ADD SWAP1 POP SWAP3 SWAP2 POP POP JUMP JUMPDEST PUSH0 PUSH1 0x20 DUP3 ADD SWAP1 POP SWAP2 SWAP1 POP JUMP JUMPDEST PUSH0 PUSH2 0x1D9B DUP3 PUSH2 0x1D2D JUMP JUMPDEST PUSH2 0x1DA5 DUP2 DUP6 PUSH2 0x1D37 JUMP JUMPDEST SWAP4 POP PUSH2 0x1DB0 DUP4 PUSH2 0x1D47 JUMP JUMPDEST DUP1 PUSH0 JUMPDEST DUP4 DUP2 LT ISZERO PUSH2 0x1DE0 JUMPI DUP2 MLOAD PUSH2 0x1DC7 DUP9 DUP3 PUSH2 0x1D6E JUMP JUMPDEST SWAP8 POP PUSH2 0x1DD2 DUP4 PUSH2 0x1D85 JUMP JUMPDEST SWAP3 POP POP PUSH1 0x1 DUP2 ADD SWAP1 POP PUSH2 0x1DB3 JUMP JUMPDEST POP DUP6 SWAP4 POP POP POP POP SWAP3 SWAP2 POP POP JUMP JUMPDEST PUSH0 PUSH1 0x40 DUP3 ADD SWAP1 POP DUP2 DUP2 SUB PUSH0 DUP4 ADD MSTORE PUSH2 0x1E05 DUP2 DUP6 PUSH2 0x1CD1 JUMP JUMPDEST SWAP1 POP DUP2 DUP2 SUB PUSH1 0x20 DUP4 ADD MSTORE PUSH2 0x1E19 DUP2 DUP5 PUSH2 0x1D91 JUMP JUMPDEST SWAP1 POP SWAP4 SWAP3 POP POP POP JUMP JUMPDEST PUSH2 0x1E2B DUP2 PUSH2 0x1D56 JUMP JUMPDEST DUP3 MSTORE POP POP JUMP JUMPDEST PUSH0 PUSH1 0x20 DUP3 ADD SWAP1 POP PUSH2 0x1E44 PUSH0 DUP4 ADD DUP5 PUSH2 0x1E22 JUMP JUMPDEST SWAP3 SWAP2 POP POP JUMP JUMPDEST PUSH2 0x1E53 DUP2 PUSH2 0x1D56 JUMP JUMPDEST DUP2 EQ PUSH2 0x1E5D JUMPI PUSH0 DUP1 REVERT JUMPDEST POP JUMP JUMPDEST PUSH0 DUP2 CALLDATALOAD SWAP1 POP PUSH2 0x1E6E DUP2 PUSH2 0x1E4A JUMP JUMPDEST SWAP3 SWAP2 POP POP JUMP JUMPDEST PUSH0 DUP1 PUSH1 0x40 DUP4 DUP6 SUB SLT ISZERO PUSH2 0x1E8A JUMPI PUSH2 0x1E89 PUSH2 0x1BE9 JUMP JUMPDEST JUMPDEST PUSH0 PUSH2 0x1E97 DUP6 DUP3 DUP7 ADD PUSH2 0x1C37 JUMP JUMPDEST SWAP3 POP POP PUSH1 0x20 PUSH2 0x1EA8 DUP6 DUP3 DUP7 ADD PUSH2 0x1E60 JUMP JUMPDEST SWAP2 POP POP SWAP3 POP SWAP3 SWAP1 POP JUMP JUMPDEST PUSH0 PUSH1 0x20 DUP3 DUP5 SUB SLT ISZERO PUSH2 0x1EC7 JUMPI PUSH2 0x1EC6 PUSH2 0x1BE9 JUMP JUMPDEST JUMPDEST PUSH0 PUSH2 0x1ED4 DUP5 DUP3 DUP6 ADD PUSH2 0x1E60 JUMP JUMPDEST SWAP2 POP POP SWAP3 SWAP2 POP POP JUMP JUMPDEST PUSH2 0x1EE6 DUP2 PUSH2 0x1C10 JUMP JUMPDEST DUP3 MSTORE POP POP JUMP JUMPDEST PUSH0 PUSH1 0x20 DUP3 ADD SWAP1 POP PUSH2 0x1EFF PUSH0 DUP4 ADD DUP5 PUSH2 0x1EDD JUMP JUMPDEST SWAP3 SWAP2 POP POP JUMP JUMPDEST PUSH0 DUP1 REVERT JUMPDEST PUSH0 DUP1 REVERT JUMPDEST PUSH0 DUP1 REVERT JUMPDEST PUSH0 DUP1 DUP4 PUSH1 0x1F DUP5 ADD SLT PUSH2 0x1F26 JUMPI PUSH2 0x1F25 PUSH2 0x1F05 JUMP JUMPDEST JUMPDEST DUP3 CALLDATALOAD SWAP1 POP PUSH8 0xFFFFFFFFFFFFFFFF DUP2 GT ISZERO PUSH2 0x1F43 JUMPI PUSH2 0x1F42 PUSH2 0x1F09 JUMP JUMPDEST JUMPDEST PUSH1 0x20 DUP4 ADD SWAP2 POP DUP4 PUSH1 0x1 DUP3 MUL DUP4 ADD GT ISZERO PUSH2 0x1F5F JUMPI PUSH2 0x1F5E PUSH2 0x1F0D JUMP JUMPDEST JUMPDEST SWAP3 POP SWAP3 SWAP1 POP JUMP JUMPDEST PUSH0 DUP1 PUSH1 0x20 DUP4 DUP6 SUB SLT ISZERO PUSH2 0x1F7C JUMPI PUSH2 0x1F7B PUSH2 0x1BE9 JUMP JUMPDEST JUMPDEST PUSH0 DUP4 ADD CALLDATALOAD PUSH8 0xFFFFFFFFFFFFFFFF DUP2 GT ISZERO PUSH2 0x1F99 JUMPI PUSH2 0x1F98 PUSH2 0x1BED JUMP JUMPDEST JUMPDEST PUSH2 0x1FA5 DUP6 DUP3 DUP7 ADD PUSH2 0x1F11 JUMP JUMPDEST SWAP3 POP SWAP3 POP POP SWAP3 POP SWAP3 SWAP1 POP JUMP JUMPDEST PUSH0 DUP1 PUSH1 0x40 DUP4 DUP6 SUB SLT ISZERO PUSH2 0x1FC7 JUMPI PUSH2 0x1FC6 PUSH2 0x1BE9 JUMP JUMPDEST JUMPDEST PUSH0 PUSH2 0x1FD4 DUP6 DUP3 DUP7 ADD PUSH2 0x1C37 JUMP JUMPDEST SWAP3 POP POP PUSH1 0x20 PUSH2 0x1FE5 DUP6 DUP3 DUP7 ADD PUSH2 0x1C37 JUMP JUMPDEST SWAP2 POP POP SWAP3 POP SWAP3 SWAP1 POP JUMP JUMPDEST PUSH0 DUP2 MLOAD SWAP1 POP SWAP2 SWAP1 POP JUMP JUMPDEST PUSH0 DUP3 DUP3 MSTORE PUSH1 0x20 DUP3 ADD SWAP1 POP SWAP3 SWAP2 POP POP JUMP JUMPDEST PUSH0 JUMPDEST DUP4 DUP2 LT ISZERO PUSH2 0x2026 JUMPI DUP1 DUP3 ADD MLOAD DUP2 DUP5 ADD MSTORE PUSH1 0x20 DUP2 ADD SWAP1 POP PUSH2 0x200B JUMP JUMPDEST PUSH0 DUP5 DUP5 ADD MSTORE POP POP POP POP JUMP JUMPDEST PUSH0 PUSH1 0x1F NOT PUSH1 0x1F DUP4 ADD AND SWAP1 POP SWAP2 SWAP1 POP JUMP JUMPDEST PUSH0 PUSH2 0x204B DUP3 PUSH2 0x1FEF JUMP JUMPDEST PUSH2 0x2055 DUP2 DUP6 PUSH2 0x1FF9 JUMP JUMPDEST SWAP4 POP PUSH2 0x2065 DUP2 DUP6 PUSH1 0x20 DUP7 ADD PUSH2 0x2009 JUMP JUMPDEST PUSH2 0x206E DUP2 PUSH2 0x2031 JUMP JUMPDEST DUP5 ADD SWAP2 POP POP SWAP3 SWAP2 POP POP JUMP JUMPDEST PUSH0 PUSH1 0x20 DUP3 ADD SWAP1 POP DUP2 DUP2 SUB PUSH0 DUP4 ADD MSTORE PUSH2 0x2091 DUP2 DUP5 PUSH2 0x2041 JUMP JUMPDEST SWAP1 POP SWAP3 SWAP2 POP POP JUMP JUMPDEST PUSH0 DUP1 PUSH0 DUP1 PUSH1 0x80 DUP6 DUP8 SUB SLT ISZERO PUSH2 0x20B1 JUMPI PUSH2 0x20B0 PUSH2 0x1BE9 JUMP JUMPDEST JUMPDEST PUSH0 PUSH2 0x20BE DUP8 DUP3 DUP9 ADD PUSH2 0x1C37 JUMP JUMPDEST SWAP5 POP POP PUSH1 0x20 PUSH2 0x20CF DUP8 DUP3 DUP9 ADD PUSH2 0x1C37 JUMP JUMPDEST SWAP4 POP POP PUSH1 0x40 PUSH2 0x20E0 DUP8 DUP3 DUP9 ADD PUSH2 0x1E60 JUMP JUMPDEST SWAP3 POP POP PUSH1 0x60 PUSH2 0x20F1 DUP8 DUP3 DUP9 ADD PUSH2 0x1E60 JUMP JUMPDEST SWAP2 POP POP SWAP3 SWAP6 SWAP2 SWAP5 POP SWAP3 POP JUMP JUMPDEST PUSH32 0x4F6E6C79206F776E657200000000000000000000000000000000000000000000 PUSH0 DUP3 ADD MSTORE POP JUMP JUMPDEST PUSH0 PUSH2 0x2131 PUSH1 0xA DUP4 PUSH2 0x1FF9 JUMP JUMPDEST SWAP2 POP PUSH2 0x213C DUP3 PUSH2 0x20FD JUMP JUMPDEST PUSH1 0x20 DUP3 ADD SWAP1 POP SWAP2 SWAP1 POP JUMP JUMPDEST PUSH0 PUSH1 0x20 DUP3 ADD SWAP1 POP DUP2 DUP2 SUB PUSH0 DUP4 ADD MSTORE PUSH2 0x215E DUP2 PUSH2 0x2125 JUMP JUMPDEST SWAP1 POP SWAP2 SWAP1 POP JUMP JUMPDEST PUSH0 DUP2 MLOAD SWAP1 POP PUSH2 0x2173 DUP2 PUSH2 0x1E4A JUMP JUMPDEST SWAP3 SWAP2 POP POP JUMP JUMPDEST PUSH0 PUSH1 0x20 DUP3 DUP5 SUB SLT ISZERO PUSH2 0x218E JUMPI PUSH2 0x218D PUSH2 0x1BE9 JUMP JUMPDEST JUMPDEST PUSH0 PUSH2 0x219B DUP5 DUP3 DUP6 ADD PUSH2 0x2165 JUMP JUMPDEST SWAP2 POP POP SWAP3 SWAP2 POP POP JUMP JUMPDEST PUSH32 0x4E6F20746F6B656E2062616C616E636500000000000000000000000000000000 PUSH0 DUP3 ADD MSTORE POP JUMP JUMPDEST PUSH0 PUSH2 0x21D8 PUSH1 0x10 DUP4 PUSH2 0x1FF9 JUMP JUMPDEST SWAP2 POP PUSH2 0x21E3 DUP3 PUSH2 0x21A4 JUMP JUMPDEST PUSH1 0x20 DUP3 ADD SWAP1 POP SWAP2 SWAP1 POP JUMP JUMPDEST PUSH0 PUSH1 0x20 DUP3 ADD SWAP1 POP DUP2 DUP2 SUB PUSH0 DUP4 ADD MSTORE PUSH2 0x2205 DUP2 PUSH2 0x21CC JUMP JUMPDEST SWAP1 POP SWAP2 SWAP1 POP JUMP JUMPDEST PUSH0 PUSH1 0x40 DUP3 ADD SWAP1 POP PUSH2 0x221F PUSH0 DUP4 ADD DUP6 PUSH2 0x1EDD JUMP JUMPDEST PUSH2 0x222C PUSH1 0x20 DUP4 ADD DUP5 PUSH2 0x1E22 JUMP JUMPDEST SWAP4 SWAP3 POP POP POP JUMP JUMPDEST PUSH0 DUP2 ISZERO ISZERO SWAP1 POP SWAP2 SWAP1 POP JUMP JUMPDEST PUSH2 0x2247 DUP2 PUSH2 0x2233 JUMP JUMPDEST DUP2 EQ PUSH2 0x2251 JUMPI PUSH0 DUP1 REVERT JUMPDEST POP JUMP JUMPDEST PUSH0 DUP2 MLOAD SWAP1 POP PUSH2 0x2262 DUP2 PUSH2 0x223E JUMP JUMPDEST SWAP3 SWAP2 POP POP JUMP JUMPDEST PUSH0 PUSH1 0x20 DUP3 DUP5 SUB SLT ISZERO PUSH2 0x227D JUMPI PUSH2 0x227C PUSH2 0x1BE9 JUMP JUMPDEST JUMPDEST PUSH0 PUSH2 0x228A DUP5 DUP3 DUP6 ADD PUSH2 0x2254 JUMP JUMPDEST SWAP2 POP POP SWAP3 SWAP2 POP POP JUMP JUMPDEST PUSH32 0x4E487B7100000000000000000000000000000000000000000000000000000000 PUSH0 MSTORE PUSH1 0x41 PUSH1 0x4 MSTORE PUSH1 0x24 PUSH0 REVERT JUMPDEST PUSH32 0x4E487B7100000000000000000000000000000000000000000000000000000000 PUSH0 MSTORE PUSH1 0x32 PUSH1 0x4 MSTORE PUSH1 0x24 PUSH0 REVERT JUMPDEST PUSH32 0x4E487B7100000000000000000000000000000000000000000000000000000000 PUSH0 MSTORE PUSH1 0x11 PUSH1 0x4 MSTORE PUSH1 0x24 PUSH0 REVERT JUMPDEST PUSH0 PUSH2 0x2324 DUP3 PUSH2 0x1D56 JUMP JUMPDEST SWAP2 POP PUSH32 0xFFFFFFFFFFFFFFFFFFFFFFFFFFFFFFFFFFFFFFFFFFFFFFFFFFFFFFFFFFFFFFFF DUP3 SUB PUSH2 0x2356 JUMPI PUSH2 0x2355 PUSH2 0x22ED JUMP JUMPDEST JUMPDEST PUSH1 0x1 DUP3 ADD SWAP1 POP SWAP2 SWAP1 POP JUMP JUMPDEST PUSH0 PUSH1 0xFF DUP3 AND SWAP1 POP SWAP2 SWAP1 POP JUMP JUMPDEST PUSH2 0x2376 DUP2 PUSH2 0x2361 JUMP JUMPDEST DUP2 EQ PUSH2 0x2380 JUMPI PUSH0 DUP1 REVERT JUMPDEST POP JUMP JUMPDEST PUSH0 DUP2 MLOAD SWAP1 POP PUSH2 0x2391 DUP2 PUSH2 0x236D JUMP JUMPDEST SWAP3 SWAP2 POP POP JUMP JUMPDEST PUSH0 PUSH1 0x20 DUP3 DUP5 SUB SLT ISZERO PUSH2 0x23AC JUMPI PUSH2 0x23AB PUSH2 0x1BE9 JUMP JUMPDEST JUMPDEST PUSH0 PUSH2 0x23B9 DUP5 DUP3 DUP6 ADD PUSH2 0x2383 JUMP JUMPDEST SWAP2 POP POP SWAP3 SWAP2 POP POP JUMP JUMPDEST PUSH0 DUP2 PUSH1 0x1 SHR SWAP1 POP SWAP2 SWAP1 POP JUMP JUMPDEST PUSH0 DUP1 DUP3 SWAP2 POP DUP4 SWAP1 POP JUMPDEST PUSH1 0x1 DUP6 GT ISZERO PUSH2 0x2417 JUMPI DUP1 DUP7 DIV DUP2 GT ISZERO PUSH2 0x23F3 JUMPI PUSH2 0x23F2 PUSH2 0x22ED JUMP JUMPDEST JUMPDEST PUSH1 0x1 DUP6 AND ISZERO PUSH2 0x2402 JUMPI DUP1 DUP3 MUL SWAP2 POP JUMPDEST DUP1 DUP2 MUL SWAP1 POP PUSH2 0x2410 DUP6 PUSH2 0x23C2 JUMP JUMPDEST SWAP5 POP PUSH2 0x23D7 JUMP JUMPDEST SWAP5 POP SWAP5 SWAP3 POP POP POP JUMP JUMPDEST PUSH0 DUP3 PUSH2 0x242F JUMPI PUSH1 0x1 SWAP1 POP PUSH2 0x24EA JUMP JUMPDEST DUP2 PUSH2 0x243C JUMPI PUSH0 SWAP1 POP PUSH2 0x24EA JUMP JUMPDEST DUP2 PUSH1 0x1 DUP2 EQ PUSH2 0x2452 JUMPI PUSH1 0x2 DUP2 EQ PUSH2 0x245C JUMPI PUSH2 0x248B JUMP JUMPDEST PUSH1 0x1 SWAP2 POP POP PUSH2 0x24EA JUMP JUMPDEST PUSH1 0xFF DUP5 GT ISZERO PUSH2 0x246E JUMPI PUSH2 0x246D PUSH2 0x22ED JUMP JUMPDEST JUMPDEST DUP4 PUSH1 0x2 EXP SWAP2 POP DUP5 DUP3 GT ISZERO PUSH2 0x2485 JUMPI PUSH2 0x2484 PUSH2 0x22ED JUMP JUMPDEST JUMPDEST POP PUSH2 0x24EA JUMP JUMPDEST POP PUSH1 0x20 DUP4 LT PUSH2 0x133 DUP4 LT AND PUSH1 0x4E DUP5 LT PUSH1 0xB DUP5 LT AND OR ISZERO PUSH2 0x24C0 JUMPI DUP3 DUP3 EXP SWAP1 POP DUP4 DUP2 GT ISZERO PUSH2 0x24BB JUMPI PUSH2 0x24BA PUSH2 0x22ED JUMP JUMPDEST JUMPDEST PUSH2 0x24EA JUMP JUMPDEST PUSH2 0x24CD DUP5 DUP5 DUP5 PUSH1 0x1 PUSH2 0x23CE JUMP JUMPDEST SWAP3 POP SWAP1 POP DUP2 DUP5 DIV DUP2 GT ISZERO PUSH2 0x24E4 JUMPI PUSH2 0x24E3 PUSH2 0x22ED JUMP JUMPDEST JUMPDEST DUP2 DUP2 MUL SWAP1 POP JUMPDEST SWAP4 SWAP3 POP POP POP JUMP JUMPDEST PUSH0 PUSH2 0x24FB DUP3 PUSH2 0x1D56 JUMP JUMPDEST SWAP2 POP PUSH2 0x2506 DUP4 PUSH2 0x2361 JUMP JUMPDEST SWAP3 POP PUSH2 0x2533 PUSH32 0xFFFFFFFFFFFFFFFFFFFFFFFFFFFFFFFFFFFFFFFFFFFFFFFFFFFFFFFFFFFFFFFF DUP5 DUP5 PUSH2 0x2420 JUMP JUMPDEST SWAP1 POP SWAP3 SWAP2 POP POP JUMP JUMPDEST PUSH32 0x4E487B7100000000000000000000000000000000000000000000000000000000 PUSH0 MSTORE PUSH1 0x12 PUSH1 0x4 MSTORE PUSH1 0x24 PUSH0 REVERT JUMPDEST PUSH0 PUSH2 0x2572 DUP3 PUSH2 0x1D56 JUMP JUMPDEST SWAP2 POP PUSH2 0x257D DUP4 PUSH2 0x1D56 JUMP JUMPDEST SWAP3 POP DUP3 PUSH2 0x258D JUMPI PUSH2 0x258C PUSH2 0x253B JUMP JUMPDEST JUMPDEST DUP3 DUP3 DIV SWAP1 POP SWAP3 SWAP2 POP POP JUMP JUMPDEST PUSH32 0x416D6F756E74206D7573742062652067726561746572207468616E207A65726F PUSH0 DUP3 ADD MSTORE POP JUMP JUMPDEST PUSH0 PUSH2 0x25CC PUSH1 0x20 DUP4 PUSH2 0x1FF9 JUMP JUMPDEST SWAP2 POP PUSH2 0x25D7 DUP3 PUSH2 0x2598 JUMP JUMPDEST PUSH1 0x20 DUP3 ADD SWAP1 POP SWAP2 SWAP1 POP JUMP JUMPDEST PUSH0 PUSH1 0x20 DUP3 ADD SWAP1 POP DUP2 DUP2 SUB PUSH0 DUP4 ADD MSTORE PUSH2 0x25F9 DUP2 PUSH2 0x25C0 JUMP JUMPDEST SWAP1 POP SWAP2 SWAP1 POP JUMP JUMPDEST PUSH0 PUSH1 0x40 DUP3 ADD SWAP1 POP PUSH2 0x2613 PUSH0 DUP4 ADD DUP6 PUSH2 0x1EDD JUMP JUMPDEST PUSH2 0x2620 PUSH1 0x20 DUP4 ADD DUP5 PUSH2 0x1EDD JUMP JUMPDEST SWAP4 SWAP3 POP POP POP JUMP JUMPDEST PUSH32 0x4E6F7420656E6F75676820616C6C6F77616E6365000000000000000000000000 PUSH0 DUP3 ADD MSTORE POP JUMP JUMPDEST PUSH0 PUSH2 0x265B PUSH1 0x14 DUP4 PUSH2 0x1FF9 JUMP JUMPDEST SWAP2 POP PUSH2 0x2666 DUP3 PUSH2 0x2627 JUMP JUMPDEST PUSH1 0x20 DUP3 ADD SWAP1 POP SWAP2 SWAP1 POP JUMP JUMPDEST PUSH0 PUSH1 0x20 DUP3 ADD SWAP1 POP DUP2 DUP2 SUB PUSH0 DUP4 ADD MSTORE PUSH2 0x2688 DUP2 PUSH2 0x264F JUMP JUMPDEST SWAP1 POP SWAP2 SWAP1 POP JUMP JUMPDEST PUSH0 PUSH1 0x60 DUP3 ADD SWAP1 POP PUSH2 0x26A2 PUSH0 DUP4 ADD DUP7 PUSH2 0x1EDD JUMP JUMPDEST PUSH2 0x26AF PUSH1 0x20 DUP4 ADD DUP6 PUSH2 0x1EDD JUMP JUMPDEST PUSH2 0x26BC PUSH1 0x40 DUP4 ADD DUP5 PUSH2 0x1E22 JUMP JUMPDEST SWAP5 SWAP4 POP POP POP POP JUMP JUMPDEST PUSH32 0x5472616E73666572206661696C65640000000000000000000000000000000000 PUSH0 DUP3 ADD MSTORE POP JUMP JUMPDEST PUSH0 PUSH2 0x26F8 PUSH1 0xF DUP4 PUSH2 0x1FF9 JUMP JUMPDEST SWAP2 POP PUSH2 0x2703 DUP3 PUSH2 0x26C4 JUMP JUMPDEST PUSH1 0x20 DUP3 ADD SWAP1 POP SWAP2 SWAP1 POP JUMP JUMPDEST PUSH0 PUSH1 0x20 DUP3 ADD SWAP1 POP DUP2 DUP2 SUB PUSH0 DUP4 ADD MSTORE PUSH2 0x2725 DUP2 PUSH2 0x26EC JUMP JUMPDEST SWAP1 POP SWAP2 SWAP1 POP JUMP JUMPDEST PUSH0 PUSH2 0x2736 DUP3 PUSH2 0x1D56 JUMP JUMPDEST SWAP2 POP PUSH2 0x2741 DUP4 PUSH2 0x1D56 JUMP JUMPDEST SWAP3 POP DUP3 DUP3 ADD SWAP1 POP DUP1 DUP3 GT ISZERO PUSH2 0x2759 JUMPI PUSH2 0x2758 PUSH2 0x22ED JUMP JUMPDEST JUMPDEST SWAP3 SWAP2 POP POP JUMP JUMPDEST PUSH32 0x496E73756666696369656E74206665652073656E740000000000000000000000 PUSH0 DUP3 ADD MSTORE POP JUMP JUMPDEST PUSH0 PUSH2 0x2793 PUSH1 0x15 DUP4 PUSH2 0x1FF9 JUMP JUMPDEST SWAP2 POP PUSH2 0x279E DUP3 PUSH2 0x275F JUMP JUMPDEST PUSH1 0x20 DUP3 ADD SWAP1 POP SWAP2 SWAP1 POP JUMP JUMPDEST PUSH0 PUSH1 0x20 DUP3 ADD SWAP1 POP DUP2 DUP2 SUB PUSH0 DUP4 ADD MSTORE PUSH2 0x27C0 DUP2 PUSH2 0x2787 JUMP JUMPDEST SWAP1 POP SWAP2 SWAP1 POP JUMP JUMPDEST PUSH0 DUP3 SWAP1 POP SWAP3 SWAP2 POP POP JUMP JUMPDEST PUSH32 0x4E487B7100000000000000000000000000000000000000000000000000000000 PUSH0 MSTORE PUSH1 0x22 PUSH1 0x4 MSTORE PUSH1 0x24 PUSH0 REVERT JUMPDEST PUSH0 PUSH1 0x2 DUP3 DIV SWAP1 POP PUSH1 0x1 DUP3 AND DUP1 PUSH2 0x2815 JUMPI PUSH1 0x7F DUP3 AND SWAP2 POP JUMPDEST PUSH1 0x20 DUP3 LT DUP2 SUB PUSH2 0x2828 JUMPI PUSH2 0x2827 PUSH2 0x27D1 JUMP JUMPDEST JUMPDEST POP SWAP2 SWAP1 POP JUMP JUMPDEST PUSH0 DUP2 SWAP1 POP DUP2 PUSH0 MSTORE PUSH1 0x20 PUSH0 KECCAK256 SWAP1 POP SWAP2 SWAP1 POP JUMP JUMPDEST PUSH0 PUSH1 0x20 PUSH1 0x1F DUP4 ADD DIV SWAP1 POP SWAP2 SWAP1 POP JUMP JUMPDEST PUSH0 DUP3 DUP3 SHL SWAP1 POP SWAP3 SWAP2 POP POP JUMP JUMPDEST PUSH0 PUSH1 0x8 DUP4 MUL PUSH2 0x288A PUSH32 0xFFFFFFFFFFFFFFFFFFFFFFFFFFFFFFFFFFFFFFFFFFFFFFFFFFFFFFFFFFFFFFFF DUP3 PUSH2 0x284F JUMP JUMPDEST PUSH2 0x2894 DUP7 DUP4 PUSH2 0x284F JUMP JUMPDEST SWAP6 POP DUP1 NOT DUP5 AND SWAP4 POP DUP1 DUP7 AND DUP5 OR SWAP3 POP POP POP SWAP4 SWAP3 POP POP POP JUMP JUMPDEST PUSH0 DUP2 SWAP1 POP SWAP2 SWAP1 POP JUMP JUMPDEST PUSH0 PUSH2 0x28CF PUSH2 0x28CA PUSH2 0x28C5 DUP5 PUSH2 0x1D56 JUMP JUMPDEST PUSH2 0x28AC JUMP JUMPDEST PUSH2 0x1D56 JUMP JUMPDEST SWAP1 POP SWAP2 SWAP1 POP JUMP JUMPDEST PUSH0 DUP2 SWAP1 POP SWAP2 SWAP1 POP JUMP JUMPDEST PUSH2 0x28E8 DUP4 PUSH2 0x28B5 JUMP JUMPDEST PUSH2 0x28FC PUSH2 0x28F4 DUP3 PUSH2 0x28D6 JUMP JUMPDEST DUP5 DUP5 SLOAD PUSH2 0x285B JUMP JUMPDEST DUP3 SSTORE POP POP POP POP JUMP JUMPDEST PUSH0 SWAP1 JUMP JUMPDEST PUSH2 0x2910 PUSH2 0x2904 JUMP JUMPDEST PUSH2 0x291B DUP2 DUP5 DUP5 PUSH2 0x28DF JUMP JUMPDEST POP POP POP JUMP JUMPDEST JUMPDEST DUP2 DUP2 LT ISZERO PUSH2 0x293E JUMPI PUSH2 0x2933 PUSH0 DUP3 PUSH2 0x2908 JUMP JUMPDEST PUSH1 0x1 DUP2 ADD SWAP1 POP PUSH2 0x2921 JUMP JUMPDEST POP POP JUMP JUMPDEST PUSH1 0x1F DUP3 GT ISZERO PUSH2 0x2983 JUMPI PUSH2 0x2954 DUP2 PUSH2 0x282E JUMP JUMPDEST PUSH2 0x295D DUP5 PUSH2 0x2840 JUMP JUMPDEST DUP2 ADD PUSH1 0x20 DUP6 LT ISZERO PUSH2 0x296C JUMPI DUP2 SWAP1 POP JUMPDEST PUSH2 0x2980 PUSH2 0x2978 DUP6 PUSH2 0x2840 JUMP JUMPDEST DUP4 ADD DUP3 PUSH2 0x2920 JUMP JUMPDEST POP POP JUMPDEST POP POP POP JUMP JUMPDEST PUSH0 DUP3 DUP3 SHR SWAP1 POP SWAP3 SWAP2 POP POP JUMP JUMPDEST PUSH0 PUSH2 0x29A3 PUSH0 NOT DUP5 PUSH1 0x8 MUL PUSH2 0x2988 JUMP JUMPDEST NOT DUP1 DUP4 AND SWAP2 POP POP SWAP3 SWAP2 POP POP JUMP JUMPDEST PUSH0 PUSH2 0x29BB DUP4 DUP4 PUSH2 0x2994 JUMP JUMPDEST SWAP2 POP DUP3 PUSH1 0x2 MUL DUP3 OR SWAP1 POP SWAP3 SWAP2 POP POP JUMP JUMPDEST PUSH2 0x29D5 DUP4 DUP4 PUSH2 0x27C7 JUMP JUMPDEST PUSH8 0xFFFFFFFFFFFFFFFF DUP2 GT ISZERO PUSH2 0x29EE JUMPI PUSH2 0x29ED PUSH2 0x2293 JUMP JUMPDEST JUMPDEST PUSH2 0x29F8 DUP3 SLOAD PUSH2 0x27FE JUMP JUMPDEST PUSH2 0x2A03 DUP3 DUP3 DUP6 PUSH2 0x2942 JUMP JUMPDEST PUSH0 PUSH1 0x1F DUP4 GT PUSH1 0x1 DUP2 EQ PUSH2 0x2A30 JUMPI PUSH0 DUP5 ISZERO PUSH2 0x2A1E JUMPI DUP3 DUP8 ADD CALLDATALOAD SWAP1 POP JUMPDEST PUSH2 0x2A28 DUP6 DUP3 PUSH2 0x29B0 JUMP JUMPDEST DUP7 SSTORE POP PUSH2 0x2A8F JUMP JUMPDEST PUSH1 0x1F NOT DUP5 AND PUSH2 0x2A3E DUP7 PUSH2 0x282E JUMP JUMPDEST PUSH0 JUMPDEST DUP3 DUP2 LT ISZERO PUSH2 0x2A65 JUMPI DUP5 DUP10 ADD CALLDATALOAD DUP3 SSTORE PUSH1 0x1 DUP3 ADD SWAP2 POP PUSH1 0x20 DUP6 ADD SWAP5 POP PUSH1 0x20 DUP2 ADD SWAP1 POP PUSH2 0x2A40 JUMP JUMPDEST DUP7 DUP4 LT ISZERO PUSH2 0x2A82 JUMPI DUP5 DUP10 ADD CALLDATALOAD PUSH2 0x2A7E PUSH1 0x1F DUP10 AND DUP3 PUSH2 0x2994 JUMP JUMPDEST DUP4 SSTORE POP JUMPDEST PUSH1 0x1 PUSH1 0x2 DUP9 MUL ADD DUP9 SSTORE POP POP POP JUMPDEST POP POP POP POP POP POP POP JUMP JUMPDEST PUSH32 0x416D6F756E74206D757374206265203E20300000000000000000000000000000 PUSH0 DUP3 ADD MSTORE POP JUMP JUMPDEST PUSH0 PUSH2 0x2ACC PUSH1 0x12 DUP4 PUSH2 0x1FF9 JUMP JUMPDEST SWAP2 POP PUSH2 0x2AD7 DUP3 PUSH2 0x2A98 JUMP JUMPDEST PUSH1 0x20 DUP3 ADD SWAP1 POP SWAP2 SWAP1 POP JUMP JUMPDEST PUSH0 PUSH1 0x20 DUP3 ADD SWAP1 POP DUP2 DUP2 SUB PUSH0 DUP4 ADD MSTORE PUSH2 0x2AF9 DUP2 PUSH2 0x2AC0 JUMP JUMPDEST SWAP1 POP SWAP2 SWAP1 POP JUMP JUMPDEST PUSH32 0x546F6B656E41207472616E73666572206661696C656400000000000000000000 PUSH0 DUP3 ADD MSTORE POP JUMP JUMPDEST PUSH0 PUSH2 0x2B34 PUSH1 0x16 DUP4 PUSH2 0x1FF9 JUMP JUMPDEST SWAP2 POP PUSH2 0x2B3F DUP3 PUSH2 0x2B00 JUMP JUMPDEST PUSH1 0x20 DUP3 ADD SWAP1 POP SWAP2 SWAP1 POP JUMP JUMPDEST PUSH0 PUSH1 0x20 DUP3 ADD SWAP1 POP DUP2 DUP2 SUB PUSH0 DUP4 ADD MSTORE PUSH2 0x2B61 DUP2 PUSH2 0x2B28 JUMP JUMPDEST SWAP1 POP SWAP2 SWAP1 POP JUMP JUMPDEST PUSH0 PUSH2 0x2B72 DUP3 PUSH2 0x1D56 JUMP JUMPDEST SWAP2 POP PUSH2 0x2B7D DUP4 PUSH2 0x1D56 JUMP JUMPDEST SWAP3 POP DUP3 DUP3 MUL PUSH2 0x2B8B DUP2 PUSH2 0x1D56 JUMP JUMPDEST SWAP2 POP DUP3 DUP3 DIV DUP5 EQ DUP4 ISZERO OR PUSH2 0x2BA2 JUMPI PUSH2 0x2BA1 PUSH2 0x22ED JUMP JUMPDEST JUMPDEST POP SWAP3 SWAP2 POP POP JUMP JUMPDEST PUSH32 0x4E6F7420656E6F75676820746F6B656E4220696E20706F6F6C00000000000000 PUSH0 DUP3 ADD MSTORE POP JUMP JUMPDEST PUSH0 PUSH2 0x2BDD PUSH1 0x19 DUP4 PUSH2 0x1FF9 JUMP JUMPDEST SWAP2 POP PUSH2 0x2BE8 DUP3 PUSH2 0x2BA9 JUMP JUMPDEST PUSH1 0x20 DUP3 ADD SWAP1 POP SWAP2 SWAP1 POP JUMP JUMPDEST PUSH0 PUSH1 0x20 DUP3 ADD SWAP1 POP DUP2 DUP2 SUB PUSH0 DUP4 ADD MSTORE PUSH2 0x2C0A DUP2 PUSH2 0x2BD1 JUMP JUMPDEST SWAP1 POP SWAP2 SWAP1 POP JUMP JUMPDEST PUSH32 0x546F6B656E42207472616E73666572206661696C656400000000000000000000 PUSH0 DUP3 ADD MSTORE POP JUMP JUMPDEST PUSH0 PUSH2 0x2C45 PUSH1 0x16 DUP4 PUSH2 0x1FF9 JUMP JUMPDEST SWAP2 POP PUSH2 0x2C50 DUP3 PUSH2 0x2C11 JUMP JUMPDEST PUSH1 0x20 DUP3 ADD SWAP1 POP SWAP2 SWAP1 POP JUMP JUMPDEST PUSH0 PUSH1 0x20 DUP3 ADD SWAP1 POP DUP2 DUP2 SUB PUSH0 DUP4 ADD MSTORE PUSH2 0x2C72 DUP2 PUSH2 0x2C39 JUMP JUMPDEST SWAP1 POP SWAP2 SWAP1 POP JUMP JUMPDEST PUSH0 PUSH2 0x2C83 DUP3 PUSH2 0x1D56 JUMP JUMPDEST SWAP2 POP PUSH2 0x2C8E DUP4 PUSH2 0x1D56 JUMP JUMPDEST SWAP3 POP DUP3 DUP3 SUB SWAP1 POP DUP2 DUP2 GT ISZERO PUSH2 0x2CA6 JUMPI PUSH2 0x2CA5 PUSH2 0x22ED JUMP JUMPDEST JUMPDEST SWAP3 SWAP2 POP POP JUMP JUMPDEST PUSH0 PUSH1 0x80 DUP3 ADD SWAP1 POP PUSH2 0x2CBF PUSH0 DUP4 ADD DUP8 PUSH2 0x1EDD JUMP JUMPDEST PUSH2 0x2CCC PUSH1 0x20 DUP4 ADD DUP7 PUSH2 0x1EDD JUMP JUMPDEST PUSH2 0x2CD9 PUSH1 0x40 DUP4 ADD DUP6 PUSH2 0x1E22 JUMP JUMPDEST PUSH2 0x2CE6 PUSH1 0x60 DUP4 ADD DUP5 PUSH2 0x1E22 JUMP JUMPDEST SWAP6 SWAP5 POP POP POP POP POP JUMP JUMPDEST PUSH0 PUSH2 0x2CF9 DUP3 PUSH2 0x1D56 JUMP JUMPDEST SWAP2 POP PUSH2 0x2D04 DUP4 PUSH2 0x1D56 JUMP JUMPDEST SWAP3 POP PUSH2 0x2D31 PUSH32 0xFFFFFFFFFFFFFFFFFFFFFFFFFFFFFFFFFFFFFFFFFFFFFFFFFFFFFFFFFFFFFFFF DUP5 DUP5 PUSH2 0x2420 JUMP JUMPDEST SWAP1 POP SWAP3 SWAP2 POP POP JUMP INVALID LOG2 PUSH5 0x6970667358 0x22 SLT KECCAK256 0xD2 MOD 0xD3 MSTORE8 0xF8 SWAP6 0xC 0xB8 DUP16 GASLIMIT SWAP9 PUSH22 0x1887A8C2221A990119B4EED70A5213B347AE7E276473 PUSH16 0x6C634300081400330000000000000000 "
				},
				"gasEstimates": {
					"creation": {
						"codeDepositCost": "2326200",
						"executionCost": "infinite",
						"totalCost": "infinite"
					},
					"external": {
						"": "196",
						"callFee()": "2448",
						"deposit(address,uint256)": "infinite",
						"depositOwner(address,uint256)": "infinite",
						"depositWmon(uint256)": "infinite",
						"getContractBalance(address)": "infinite",
						"getContractPortfolio()": "infinite",
						"getUserPortfolio(address)": "infinite",
						"greeting()": "infinite",
						"owner()": "2597",
						"setGreeting(string)": "infinite",
						"swap(address,address,uint256,uint256)": "infinite",
						"totalTokenBalance(address)": "2890",
						"trackedTokens(uint256)": "4989",
						"userBalances(address,address)": "infinite",
						"withdrawETH()": "infinite",
						"withdrawToken(address)": "infinite",
						"withdrawWmon()": "infinite"
					},
					"internal": {
						"_isTracked(address)": "infinite",
						"_toWei(address,uint256)": "infinite"
					}
				},
				"methodIdentifiers": {
					"callFee()": "90321e1a",
					"deposit(address,uint256)": "47e7ef24",
					"depositOwner(address,uint256)": "95310efa",
					"depositWmon(uint256)": "c8a34efe",
					"getContractBalance(address)": "43ab265f",
					"getContractPortfolio()": "6677b49b",
					"getUserPortfolio(address)": "1edb27e9",
					"greeting()": "ef690cc0",
					"owner()": "8da5cb5b",
					"setGreeting(string)": "a4136862",
					"swap(address,address,uint256,uint256)": "fe029156",
					"totalTokenBalance(address)": "f5465992",
					"trackedTokens(uint256)": "8305368a",
					"userBalances(address,address)": "adb51980",
					"withdrawETH()": "e086e5ec",
					"withdrawToken(address)": "89476069",
					"withdrawWmon()": "062dd331"
				}
			},
			"storageLayout": {
				"storage": [
					{
						"astId": 109,
						"contract": "TreasuryPool.sol:Gmonad",
						"label": "greeting",
						"offset": 0,
						"slot": "0",
						"type": "t_string_storage"
					},
					{
						"astId": 111,
						"contract": "TreasuryPool.sol:Gmonad",
						"label": "owner",
						"offset": 0,
						"slot": "1",
						"type": "t_address"
					},
					{
						"astId": 114,
						"contract": "TreasuryPool.sol:Gmonad",
						"label": "callFee",
						"offset": 0,
						"slot": "2",
						"type": "t_uint256"
					},
					{
						"astId": 118,
						"contract": "TreasuryPool.sol:Gmonad",
						"label": "totalTokenBalance",
						"offset": 0,
						"slot": "3",
						"type": "t_mapping(t_address,t_uint256)"
					},
					{
						"astId": 144,
						"contract": "TreasuryPool.sol:Gmonad",
						"label": "userBalances",
						"offset": 0,
						"slot": "4",
						"type": "t_mapping(t_address,t_mapping(t_address,t_uint256))"
					},
					{
						"astId": 147,
						"contract": "TreasuryPool.sol:Gmonad",
						"label": "trackedTokens",
						"offset": 0,
						"slot": "5",
						"type": "t_array(t_address)dyn_storage"
					}
				],
				"types": {
					"t_address": {
						"encoding": "inplace",
						"label": "address",
						"numberOfBytes": "20"
					},
					"t_array(t_address)dyn_storage": {
						"base": "t_address",
						"encoding": "dynamic_array",
						"label": "address[]",
						"numberOfBytes": "32"
					},
					"t_mapping(t_address,t_mapping(t_address,t_uint256))": {
						"encoding": "mapping",
						"key": "t_address",
						"label": "mapping(address => mapping(address => uint256))",
						"numberOfBytes": "32",
						"value": "t_mapping(t_address,t_uint256)"
					},
					"t_mapping(t_address,t_uint256)": {
						"encoding": "mapping",
						"key": "t_address",
						"label": "mapping(address => uint256)",
						"numberOfBytes": "32",
						"value": "t_uint256"
					},
					"t_string_storage": {
						"encoding": "bytes",
						"label": "string",
						"numberOfBytes": "32"
					},
					"t_uint256": {
						"encoding": "inplace",
						"label": "uint256",
						"numberOfBytes": "32"
					}
				}
			},
			"userdoc": {
				"kind": "user",
				"methods": {},
				"version": 1
			}
		}
	}
}