{
	"gmonad.sol": {
		"Gmonad": {
			"abi": [
				{
					"inputs": [
						{
							"internalType": "string",
							"name": "_greeting",
							"type": "string"
						}
					],
					"stateMutability": "payable",
					"type": "constructor"
				},
				{
					"anonymous": false,
					"inputs": [
						{
							"indexed": true,
							"internalType": "address",
							"name": "owner",
							"type": "address"
						},
						{
							"indexed": false,
							"internalType": "address",
							"name": "token",
							"type": "address"
						},
						{
							"indexed": false,
							"internalType": "uint256",
							"name": "amount",
							"type": "uint256"
						}
					],
					"name": "Deposited",
					"type": "event"
				},
				{
					"anonymous": false,
					"inputs": [
						{
							"indexed": true,
							"internalType": "address",
							"name": "user",
							"type": "address"
						},
						{
							"indexed": false,
							"internalType": "address",
							"name": "tokenA",
							"type": "address"
						},
						{
							"indexed": false,
							"internalType": "address",
							"name": "tokenB",
							"type": "address"
						},
						{
							"indexed": false,
							"internalType": "uint256",
							"name": "amountA",
							"type": "uint256"
						},
						{
							"indexed": false,
							"internalType": "uint256",
							"name": "amountB",
							"type": "uint256"
						}
					],
					"name": "Swapped",
					"type": "event"
				},
				{
					"stateMutability": "payable",
					"type": "fallback"
				},
				{
					"inputs": [],
					"name": "callFee",
					"outputs": [
						{
							"internalType": "uint256",
							"name": "",
							"type": "uint256"
						}
					],
					"stateMutability": "view",
					"type": "function"
				},
				{
					"inputs": [
						{
							"internalType": "address",
							"name": "token",
							"type": "address"
						},
						{
							"internalType": "uint256",
							"name": "amount",
							"type": "uint256"
						}
					],
					"name": "deposit",
					"outputs": [],
					"stateMutability": "nonpayable",
					"type": "function"
				},
				{
					"inputs": [
						{
							"internalType": "address",
							"name": "token",
							"type": "address"
						},
						{
							"internalType": "uint256",
							"name": "amount",
							"type": "uint256"
						}
					],
					"name": "depositOwner",
					"outputs": [],
					"stateMutability": "nonpayable",
					"type": "function"
				},
				{
					"inputs": [],
					"name": "depositWmon",
					"outputs": [],
					"stateMutability": "nonpayable",
					"type": "function"
				},
				{
					"inputs": [],
					"name": "greeting",
					"outputs": [
						{
							"internalType": "string",
							"name": "",
							"type": "string"
						}
					],
					"stateMutability": "view",
					"type": "function"
				},
				{
					"inputs": [],
					"name": "owner",
					"outputs": [
						{
							"internalType": "address",
							"name": "",
							"type": "address"
						}
					],
					"stateMutability": "view",
					"type": "function"
				},
				{
					"inputs": [
						{
							"internalType": "string",
							"name": "_greeting",
							"type": "string"
						}
					],
					"name": "setGreeting",
					"outputs": [],
					"stateMutability": "payable",
					"type": "function"
				},
				{
					"inputs": [
						{
							"internalType": "address",
							"name": "tokenA",
							"type": "address"
						},
						{
							"internalType": "address",
							"name": "tokenB",
							"type": "address"
						},
						{
							"internalType": "uint256",
							"name": "amountA",
							"type": "uint256"
						},
						{
							"internalType": "uint256",
							"name": "rate",
							"type": "uint256"
						}
					],
					"name": "swap",
					"outputs": [],
					"stateMutability": "payable",
					"type": "function"
				},
				{
					"inputs": [],
					"name": "withdrawETH",
					"outputs": [],
					"stateMutability": "nonpayable",
					"type": "function"
				},
				{
					"inputs": [
						{
							"internalType": "address",
							"name": "token",
							"type": "address"
						}
					],
					"name": "withdrawToken",
					"outputs": [],
					"stateMutability": "nonpayable",
					"type": "function"
				},
				{
					"inputs": [],
					"name": "withdrawWmon",
					"outputs": [],
					"stateMutability": "nonpayable",
					"type": "function"
				},
				{
					"stateMutability": "payable",
					"type": "receive"
				}
			],
			"devdoc": {
				"kind": "dev",
				"methods": {},
				"version": 1
			},
			"evm": {
				"assembly": "    /* \"gmonad.sol\":538:4130  contract Gmonad { ... */\n  mstore(0x40, 0x80)\n    /* \"gmonad.sol\":643:654  0.001 ether */\n  0x038d7ea4c68000\n    /* \"gmonad.sol\":618:654  uint256 public callFee = 0.001 ether */\n  0x02\n  sstore\n    /* \"gmonad.sol\":866:979  constructor(string memory _greeting) payable {... */\n  mload(0x40)\n  sub(codesize, bytecodeSize)\n  dup1\n  bytecodeSize\n  dup4\n  codecopy\n  dup2\n  dup2\n  add\n  0x40\n  mstore\n  dup2\n  add\n  swap1\n  tag_1\n  swap2\n  swap1\n  tag_2\n  jump\t// in\ntag_1:\n    /* \"gmonad.sol\":933:942  _greeting */\n  dup1\n    /* \"gmonad.sol\":922:930  greeting */\n  0x00\n    /* \"gmonad.sol\":922:942  greeting = _greeting */\n  swap1\n  dup2\n  tag_5\n  swap2\n  swap1\n  tag_6\n  jump\t// in\ntag_5:\n  pop\n    /* \"gmonad.sol\":961:971  msg.sender */\n  caller\n    /* \"gmonad.sol\":953:958  owner */\n  0x01\n  0x00\n    /* \"gmonad.sol\":953:971  owner = msg.sender */\n  0x0100\n  exp\n  dup2\n  sload\n  dup2\n  0xffffffffffffffffffffffffffffffffffffffff\n  mul\n  not\n  and\n  swap1\n  dup4\n  0xffffffffffffffffffffffffffffffffffffffff\n  and\n  mul\n  or\n  swap1\n  sstore\n  pop\n    /* \"gmonad.sol\":866:979  constructor(string memory _greeting) payable {... */\n  pop\n    /* \"gmonad.sol\":538:4130  contract Gmonad { ... */\n  jump(tag_7)\n    /* \"#utility.yul\":7:82   */\ntag_8:\n    /* \"#utility.yul\":40:46   */\n  0x00\n    /* \"#utility.yul\":73:75   */\n  0x40\n    /* \"#utility.yul\":67:76   */\n  mload\n    /* \"#utility.yul\":57:76   */\n  swap1\n  pop\n    /* \"#utility.yul\":7:82   */\n  swap1\n  jump\t// out\n    /* \"#utility.yul\":88:205   */\ntag_9:\n    /* \"#utility.yul\":197:198   */\n  0x00\n    /* \"#utility.yul\":194:195   */\n  dup1\n    /* \"#utility.yul\":187:199   */\n  revert\n    /* \"#utility.yul\":211:328   */\ntag_10:\n    /* \"#utility.yul\":320:321   */\n  0x00\n    /* \"#utility.yul\":317:318   */\n  dup1\n    /* \"#utility.yul\":310:322   */\n  revert\n    /* \"#utility.yul\":334:451   */\ntag_11:\n    /* \"#utility.yul\":443:444   */\n  0x00\n    /* \"#utility.yul\":440:441   */\n  dup1\n    /* \"#utility.yul\":433:445   */\n  revert\n    /* \"#utility.yul\":457:574   */\ntag_12:\n    /* \"#utility.yul\":566:567   */\n  0x00\n    /* \"#utility.yul\":563:564   */\n  dup1\n    /* \"#utility.yul\":556:568   */\n  revert\n    /* \"#utility.yul\":580:682   */\ntag_13:\n    /* \"#utility.yul\":621:627   */\n  0x00\n    /* \"#utility.yul\":672:674   */\n  0x1f\n    /* \"#utility.yul\":668:675   */\n  not\n    /* \"#utility.yul\":663:665   */\n  0x1f\n    /* \"#utility.yul\":656:661   */\n  dup4\n    /* \"#utility.yul\":652:666   */\n  add\n    /* \"#utility.yul\":648:676   */\n  and\n    /* \"#utility.yul\":638:676   */\n  swap1\n  pop\n    /* \"#utility.yul\":580:682   */\n  swap2\n  swap1\n  pop\n  jump\t// out\n    /* \"#utility.yul\":688:868   */\ntag_14:\n    /* \"#utility.yul\":736:813   */\n  0x4e487b7100000000000000000000000000000000000000000000000000000000\n    /* \"#utility.yul\":733:734   */\n  0x00\n    /* \"#utility.yul\":726:814   */\n  mstore\n    /* \"#utility.yul\":833:837   */\n  0x41\n    /* \"#utility.yul\":830:831   */\n  0x04\n    /* \"#utility.yul\":823:838   */\n  mstore\n    /* \"#utility.yul\":857:861   */\n  0x24\n    /* \"#utility.yul\":854:855   */\n  0x00\n    /* \"#utility.yul\":847:862   */\n  revert\n    /* \"#utility.yul\":874:1155   */\ntag_15:\n    /* \"#utility.yul\":957:984   */\n  tag_49\n    /* \"#utility.yul\":979:983   */\n  dup3\n    /* \"#utility.yul\":957:984   */\n  tag_13\n  jump\t// in\ntag_49:\n    /* \"#utility.yul\":949:955   */\n  dup2\n    /* \"#utility.yul\":945:985   */\n  add\n    /* \"#utility.yul\":1087:1093   */\n  dup2\n    /* \"#utility.yul\":1075:1085   */\n  dup2\n    /* \"#utility.yul\":1072:1094   */\n  lt\n    /* \"#utility.yul\":1051:1069   */\n  0xffffffffffffffff\n    /* \"#utility.yul\":1039:1049   */\n  dup3\n    /* \"#utility.yul\":1036:1070   */\n  gt\n    /* \"#utility.yul\":1033:1095   */\n  or\n    /* \"#utility.yul\":1030:1118   */\n  iszero\n  tag_50\n  jumpi\n    /* \"#utility.yul\":1098:1116   */\n  tag_51\n  tag_14\n  jump\t// in\ntag_51:\n    /* \"#utility.yul\":1030:1118   */\ntag_50:\n    /* \"#utility.yul\":1138:1148   */\n  dup1\n    /* \"#utility.yul\":1134:1136   */\n  0x40\n    /* \"#utility.yul\":1127:1149   */\n  mstore\n    /* \"#utility.yul\":917:1155   */\n  pop\n    /* \"#utility.yul\":874:1155   */\n  pop\n  pop\n  jump\t// out\n    /* \"#utility.yul\":1161:1290   */\ntag_16:\n    /* \"#utility.yul\":1195:1201   */\n  0x00\n    /* \"#utility.yul\":1222:1242   */\n  tag_53\n  tag_8\n  jump\t// in\ntag_53:\n    /* \"#utility.yul\":1212:1242   */\n  swap1\n  pop\n    /* \"#utility.yul\":1251:1284   */\n  tag_54\n    /* \"#utility.yul\":1279:1283   */\n  dup3\n    /* \"#utility.yul\":1271:1277   */\n  dup3\n    /* \"#utility.yul\":1251:1284   */\n  tag_15\n  jump\t// in\ntag_54:\n    /* \"#utility.yul\":1161:1290   */\n  swap2\n  swap1\n  pop\n  jump\t// out\n    /* \"#utility.yul\":1296:1604   */\ntag_17:\n    /* \"#utility.yul\":1358:1362   */\n  0x00\n    /* \"#utility.yul\":1448:1466   */\n  0xffffffffffffffff\n    /* \"#utility.yul\":1440:1446   */\n  dup3\n    /* \"#utility.yul\":1437:1467   */\n  gt\n    /* \"#utility.yul\":1434:1490   */\n  iszero\n  tag_56\n  jumpi\n    /* \"#utility.yul\":1470:1488   */\n  tag_57\n  tag_14\n  jump\t// in\ntag_57:\n    /* \"#utility.yul\":1434:1490   */\ntag_56:\n    /* \"#utility.yul\":1508:1537   */\n  tag_58\n    /* \"#utility.yul\":1530:1536   */\n  dup3\n    /* \"#utility.yul\":1508:1537   */\n  tag_13\n  jump\t// in\ntag_58:\n    /* \"#utility.yul\":1500:1537   */\n  swap1\n  pop\n    /* \"#utility.yul\":1592:1596   */\n  0x20\n    /* \"#utility.yul\":1586:1590   */\n  dup2\n    /* \"#utility.yul\":1582:1597   */\n  add\n    /* \"#utility.yul\":1574:1597   */\n  swap1\n  pop\n    /* \"#utility.yul\":1296:1604   */\n  swap2\n  swap1\n  pop\n  jump\t// out\n    /* \"#utility.yul\":1610:1856   */\ntag_18:\n    /* \"#utility.yul\":1691:1692   */\n  0x00\n    /* \"#utility.yul\":1701:1814   */\ntag_60:\n    /* \"#utility.yul\":1715:1721   */\n  dup4\n    /* \"#utility.yul\":1712:1713   */\n  dup2\n    /* \"#utility.yul\":1709:1722   */\n  lt\n    /* \"#utility.yul\":1701:1814   */\n  iszero\n  tag_62\n  jumpi\n    /* \"#utility.yul\":1800:1801   */\n  dup1\n    /* \"#utility.yul\":1795:1798   */\n  dup3\n    /* \"#utility.yul\":1791:1802   */\n  add\n    /* \"#utility.yul\":1785:1803   */\n  mload\n    /* \"#utility.yul\":1781:1782   */\n  dup2\n    /* \"#utility.yul\":1776:1779   */\n  dup5\n    /* \"#utility.yul\":1772:1783   */\n  add\n    /* \"#utility.yul\":1765:1804   */\n  mstore\n    /* \"#utility.yul\":1737:1739   */\n  0x20\n    /* \"#utility.yul\":1734:1735   */\n  dup2\n    /* \"#utility.yul\":1730:1740   */\n  add\n    /* \"#utility.yul\":1725:1740   */\n  swap1\n  pop\n    /* \"#utility.yul\":1701:1814   */\n  jump(tag_60)\ntag_62:\n    /* \"#utility.yul\":1848:1849   */\n  0x00\n    /* \"#utility.yul\":1839:1845   */\n  dup5\n    /* \"#utility.yul\":1834:1837   */\n  dup5\n    /* \"#utility.yul\":1830:1846   */\n  add\n    /* \"#utility.yul\":1823:1850   */\n  mstore\n    /* \"#utility.yul\":1672:1856   */\n  pop\n    /* \"#utility.yul\":1610:1856   */\n  pop\n  pop\n  pop\n  jump\t// out\n    /* \"#utility.yul\":1862:2296   */\ntag_19:\n    /* \"#utility.yul\":1951:1956   */\n  0x00\n    /* \"#utility.yul\":1976:2042   */\n  tag_64\n    /* \"#utility.yul\":1992:2041   */\n  tag_65\n    /* \"#utility.yul\":2034:2040   */\n  dup5\n    /* \"#utility.yul\":1992:2041   */\n  tag_17\n  jump\t// in\ntag_65:\n    /* \"#utility.yul\":1976:2042   */\n  tag_16\n  jump\t// in\ntag_64:\n    /* \"#utility.yul\":1967:2042   */\n  swap1\n  pop\n    /* \"#utility.yul\":2065:2071   */\n  dup3\n    /* \"#utility.yul\":2058:2063   */\n  dup2\n    /* \"#utility.yul\":2051:2072   */\n  mstore\n    /* \"#utility.yul\":2103:2107   */\n  0x20\n    /* \"#utility.yul\":2096:2101   */\n  dup2\n    /* \"#utility.yul\":2092:2108   */\n  add\n    /* \"#utility.yul\":2141:2144   */\n  dup5\n    /* \"#utility.yul\":2132:2138   */\n  dup5\n    /* \"#utility.yul\":2127:2130   */\n  dup5\n    /* \"#utility.yul\":2123:2139   */\n  add\n    /* \"#utility.yul\":2120:2145   */\n  gt\n    /* \"#utility.yul\":2117:2229   */\n  iszero\n  tag_66\n  jumpi\n    /* \"#utility.yul\":2148:2227   */\n  tag_67\n  tag_12\n  jump\t// in\ntag_67:\n    /* \"#utility.yul\":2117:2229   */\ntag_66:\n    /* \"#utility.yul\":2238:2290   */\n  tag_68\n    /* \"#utility.yul\":2283:2289   */\n  dup5\n    /* \"#utility.yul\":2278:2281   */\n  dup3\n    /* \"#utility.yul\":2273:2276   */\n  dup6\n    /* \"#utility.yul\":2238:2290   */\n  tag_18\n  jump\t// in\ntag_68:\n    /* \"#utility.yul\":1957:2296   */\n  pop\n    /* \"#utility.yul\":1862:2296   */\n  swap4\n  swap3\n  pop\n  pop\n  pop\n  jump\t// out\n    /* \"#utility.yul\":2316:2671   */\ntag_20:\n    /* \"#utility.yul\":2383:2388   */\n  0x00\n    /* \"#utility.yul\":2432:2435   */\n  dup3\n    /* \"#utility.yul\":2425:2429   */\n  0x1f\n    /* \"#utility.yul\":2417:2423   */\n  dup4\n    /* \"#utility.yul\":2413:2430   */\n  add\n    /* \"#utility.yul\":2409:2436   */\n  slt\n    /* \"#utility.yul\":2399:2521   */\n  tag_70\n  jumpi\n    /* \"#utility.yul\":2440:2519   */\n  tag_71\n  tag_11\n  jump\t// in\ntag_71:\n    /* \"#utility.yul\":2399:2521   */\ntag_70:\n    /* \"#utility.yul\":2550:2556   */\n  dup2\n    /* \"#utility.yul\":2544:2557   */\n  mload\n    /* \"#utility.yul\":2575:2665   */\n  tag_72\n    /* \"#utility.yul\":2661:2664   */\n  dup5\n    /* \"#utility.yul\":2653:2659   */\n  dup3\n    /* \"#utility.yul\":2646:2650   */\n  0x20\n    /* \"#utility.yul\":2638:2644   */\n  dup7\n    /* \"#utility.yul\":2634:2651   */\n  add\n    /* \"#utility.yul\":2575:2665   */\n  tag_19\n  jump\t// in\ntag_72:\n    /* \"#utility.yul\":2566:2665   */\n  swap2\n  pop\n    /* \"#utility.yul\":2389:2671   */\n  pop\n    /* \"#utility.yul\":2316:2671   */\n  swap3\n  swap2\n  pop\n  pop\n  jump\t// out\n    /* \"#utility.yul\":2677:3201   */\ntag_2:\n    /* \"#utility.yul\":2757:2763   */\n  0x00\n    /* \"#utility.yul\":2806:2808   */\n  0x20\n    /* \"#utility.yul\":2794:2803   */\n  dup3\n    /* \"#utility.yul\":2785:2792   */\n  dup5\n    /* \"#utility.yul\":2781:2804   */\n  sub\n    /* \"#utility.yul\":2777:2809   */\n  slt\n    /* \"#utility.yul\":2774:2893   */\n  iszero\n  tag_74\n  jumpi\n    /* \"#utility.yul\":2812:2891   */\n  tag_75\n  tag_9\n  jump\t// in\ntag_75:\n    /* \"#utility.yul\":2774:2893   */\ntag_74:\n    /* \"#utility.yul\":2953:2954   */\n  0x00\n    /* \"#utility.yul\":2942:2951   */\n  dup3\n    /* \"#utility.yul\":2938:2955   */\n  add\n    /* \"#utility.yul\":2932:2956   */\n  mload\n    /* \"#utility.yul\":2983:3001   */\n  0xffffffffffffffff\n    /* \"#utility.yul\":2975:2981   */\n  dup2\n    /* \"#utility.yul\":2972:3002   */\n  gt\n    /* \"#utility.yul\":2969:3086   */\n  iszero\n  tag_76\n  jumpi\n    /* \"#utility.yul\":3005:3084   */\n  tag_77\n  tag_10\n  jump\t// in\ntag_77:\n    /* \"#utility.yul\":2969:3086   */\ntag_76:\n    /* \"#utility.yul\":3110:3184   */\n  tag_78\n    /* \"#utility.yul\":3176:3183   */\n  dup5\n    /* \"#utility.yul\":3167:3173   */\n  dup3\n    /* \"#utility.yul\":3156:3165   */\n  dup6\n    /* \"#utility.yul\":3152:3174   */\n  add\n    /* \"#utility.yul\":3110:3184   */\n  tag_20\n  jump\t// in\ntag_78:\n    /* \"#utility.yul\":3100:3184   */\n  swap2\n  pop\n    /* \"#utility.yul\":2903:3194   */\n  pop\n    /* \"#utility.yul\":2677:3201   */\n  swap3\n  swap2\n  pop\n  pop\n  jump\t// out\n    /* \"#utility.yul\":3207:3306   */\ntag_21:\n    /* \"#utility.yul\":3259:3265   */\n  0x00\n    /* \"#utility.yul\":3293:3298   */\n  dup2\n    /* \"#utility.yul\":3287:3299   */\n  mload\n    /* \"#utility.yul\":3277:3299   */\n  swap1\n  pop\n    /* \"#utility.yul\":3207:3306   */\n  swap2\n  swap1\n  pop\n  jump\t// out\n    /* \"#utility.yul\":3312:3492   */\ntag_22:\n    /* \"#utility.yul\":3360:3437   */\n  0x4e487b7100000000000000000000000000000000000000000000000000000000\n    /* \"#utility.yul\":3357:3358   */\n  0x00\n    /* \"#utility.yul\":3350:3438   */\n  mstore\n    /* \"#utility.yul\":3457:3461   */\n  0x22\n    /* \"#utility.yul\":3454:3455   */\n  0x04\n    /* \"#utility.yul\":3447:3462   */\n  mstore\n    /* \"#utility.yul\":3481:3485   */\n  0x24\n    /* \"#utility.yul\":3478:3479   */\n  0x00\n    /* \"#utility.yul\":3471:3486   */\n  revert\n    /* \"#utility.yul\":3498:3818   */\ntag_23:\n    /* \"#utility.yul\":3542:3548   */\n  0x00\n    /* \"#utility.yul\":3579:3580   */\n  0x02\n    /* \"#utility.yul\":3573:3577   */\n  dup3\n    /* \"#utility.yul\":3569:3581   */\n  div\n    /* \"#utility.yul\":3559:3581   */\n  swap1\n  pop\n    /* \"#utility.yul\":3626:3627   */\n  0x01\n    /* \"#utility.yul\":3620:3624   */\n  dup3\n    /* \"#utility.yul\":3616:3628   */\n  and\n    /* \"#utility.yul\":3647:3665   */\n  dup1\n    /* \"#utility.yul\":3637:3718   */\n  tag_82\n  jumpi\n    /* \"#utility.yul\":3703:3707   */\n  0x7f\n    /* \"#utility.yul\":3695:3701   */\n  dup3\n    /* \"#utility.yul\":3691:3708   */\n  and\n    /* \"#utility.yul\":3681:3708   */\n  swap2\n  pop\n    /* \"#utility.yul\":3637:3718   */\ntag_82:\n    /* \"#utility.yul\":3765:3767   */\n  0x20\n    /* \"#utility.yul\":3757:3763   */\n  dup3\n    /* \"#utility.yul\":3754:3768   */\n  lt\n    /* \"#utility.yul\":3734:3752   */\n  dup2\n    /* \"#utility.yul\":3731:3769   */\n  sub\n    /* \"#utility.yul\":3728:3812   */\n  tag_83\n  jumpi\n    /* \"#utility.yul\":3784:3802   */\n  tag_84\n  tag_22\n  jump\t// in\ntag_84:\n    /* \"#utility.yul\":3728:3812   */\ntag_83:\n    /* \"#utility.yul\":3549:3818   */\n  pop\n    /* \"#utility.yul\":3498:3818   */\n  swap2\n  swap1\n  pop\n  jump\t// out\n    /* \"#utility.yul\":3824:3965   */\ntag_24:\n    /* \"#utility.yul\":3873:3877   */\n  0x00\n    /* \"#utility.yul\":3896:3899   */\n  dup2\n    /* \"#utility.yul\":3888:3899   */\n  swap1\n  pop\n    /* \"#utility.yul\":3919:3922   */\n  dup2\n    /* \"#utility.yul\":3916:3917   */\n  0x00\n    /* \"#utility.yul\":3909:3923   */\n  mstore\n    /* \"#utility.yul\":3953:3957   */\n  0x20\n    /* \"#utility.yul\":3950:3951   */\n  0x00\n    /* \"#utility.yul\":3940:3958   */\n  keccak256\n    /* \"#utility.yul\":3932:3958   */\n  swap1\n  pop\n    /* \"#utility.yul\":3824:3965   */\n  swap2\n  swap1\n  pop\n  jump\t// out\n    /* \"#utility.yul\":3971:4064   */\ntag_25:\n    /* \"#utility.yul\":4008:4014   */\n  0x00\n    /* \"#utility.yul\":4055:4057   */\n  0x20\n    /* \"#utility.yul\":4050:4052   */\n  0x1f\n    /* \"#utility.yul\":4043:4048   */\n  dup4\n    /* \"#utility.yul\":4039:4053   */\n  add\n    /* \"#utility.yul\":4035:4058   */\n  div\n    /* \"#utility.yul\":4025:4058   */\n  swap1\n  pop\n    /* \"#utility.yul\":3971:4064   */\n  swap2\n  swap1\n  pop\n  jump\t// out\n    /* \"#utility.yul\":4070:4177   */\ntag_26:\n    /* \"#utility.yul\":4114:4122   */\n  0x00\n    /* \"#utility.yul\":4164:4169   */\n  dup3\n    /* \"#utility.yul\":4158:4162   */\n  dup3\n    /* \"#utility.yul\":4154:4170   */\n  shl\n    /* \"#utility.yul\":4133:4170   */\n  swap1\n  pop\n    /* \"#utility.yul\":4070:4177   */\n  swap3\n  swap2\n  pop\n  pop\n  jump\t// out\n    /* \"#utility.yul\":4183:4576   */\ntag_27:\n    /* \"#utility.yul\":4252:4258   */\n  0x00\n    /* \"#utility.yul\":4302:4303   */\n  0x08\n    /* \"#utility.yul\":4290:4300   */\n  dup4\n    /* \"#utility.yul\":4286:4304   */\n  mul\n    /* \"#utility.yul\":4325:4422   */\n  tag_89\n    /* \"#utility.yul\":4355:4421   */\n  0xffffffffffffffffffffffffffffffffffffffffffffffffffffffffffffffff\n    /* \"#utility.yul\":4344:4353   */\n  dup3\n    /* \"#utility.yul\":4325:4422   */\n  tag_26\n  jump\t// in\ntag_89:\n    /* \"#utility.yul\":4443:4482   */\n  tag_90\n    /* \"#utility.yul\":4473:4481   */\n  dup7\n    /* \"#utility.yul\":4462:4471   */\n  dup4\n    /* \"#utility.yul\":4443:4482   */\n  tag_26\n  jump\t// in\ntag_90:\n    /* \"#utility.yul\":4431:4482   */\n  swap6\n  pop\n    /* \"#utility.yul\":4515:4519   */\n  dup1\n    /* \"#utility.yul\":4511:4520   */\n  not\n    /* \"#utility.yul\":4504:4509   */\n  dup5\n    /* \"#utility.yul\":4500:4521   */\n  and\n    /* \"#utility.yul\":4491:4521   */\n  swap4\n  pop\n    /* \"#utility.yul\":4564:4568   */\n  dup1\n    /* \"#utility.yul\":4554:4562   */\n  dup7\n    /* \"#utility.yul\":4550:4569   */\n  and\n    /* \"#utility.yul\":4543:4548   */\n  dup5\n    /* \"#utility.yul\":4540:4570   */\n  or\n    /* \"#utility.yul\":4530:4570   */\n  swap3\n  pop\n    /* \"#utility.yul\":4259:4576   */\n  pop\n  pop\n    /* \"#utility.yul\":4183:4576   */\n  swap4\n  swap3\n  pop\n  pop\n  pop\n  jump\t// out\n    /* \"#utility.yul\":4582:4659   */\ntag_28:\n    /* \"#utility.yul\":4619:4626   */\n  0x00\n    /* \"#utility.yul\":4648:4653   */\n  dup2\n    /* \"#utility.yul\":4637:4653   */\n  swap1\n  pop\n    /* \"#utility.yul\":4582:4659   */\n  swap2\n  swap1\n  pop\n  jump\t// out\n    /* \"#utility.yul\":4665:4725   */\ntag_29:\n    /* \"#utility.yul\":4693:4696   */\n  0x00\n    /* \"#utility.yul\":4714:4719   */\n  dup2\n    /* \"#utility.yul\":4707:4719   */\n  swap1\n  pop\n    /* \"#utility.yul\":4665:4725   */\n  swap2\n  swap1\n  pop\n  jump\t// out\n    /* \"#utility.yul\":4731:4873   */\ntag_30:\n    /* \"#utility.yul\":4781:4790   */\n  0x00\n    /* \"#utility.yul\":4814:4867   */\n  tag_94\n    /* \"#utility.yul\":4832:4866   */\n  tag_95\n    /* \"#utility.yul\":4841:4865   */\n  tag_96\n    /* \"#utility.yul\":4859:4864   */\n  dup5\n    /* \"#utility.yul\":4841:4865   */\n  tag_28\n  jump\t// in\ntag_96:\n    /* \"#utility.yul\":4832:4866   */\n  tag_29\n  jump\t// in\ntag_95:\n    /* \"#utility.yul\":4814:4867   */\n  tag_28\n  jump\t// in\ntag_94:\n    /* \"#utility.yul\":4801:4867   */\n  swap1\n  pop\n    /* \"#utility.yul\":4731:4873   */\n  swap2\n  swap1\n  pop\n  jump\t// out\n    /* \"#utility.yul\":4879:4954   */\ntag_31:\n    /* \"#utility.yul\":4922:4925   */\n  0x00\n    /* \"#utility.yul\":4943:4948   */\n  dup2\n    /* \"#utility.yul\":4936:4948   */\n  swap1\n  pop\n    /* \"#utility.yul\":4879:4954   */\n  swap2\n  swap1\n  pop\n  jump\t// out\n    /* \"#utility.yul\":4960:5229   */\ntag_32:\n    /* \"#utility.yul\":5070:5109   */\n  tag_99\n    /* \"#utility.yul\":5101:5108   */\n  dup4\n    /* \"#utility.yul\":5070:5109   */\n  tag_30\n  jump\t// in\ntag_99:\n    /* \"#utility.yul\":5131:5222   */\n  tag_100\n    /* \"#utility.yul\":5180:5221   */\n  tag_101\n    /* \"#utility.yul\":5204:5220   */\n  dup3\n    /* \"#utility.yul\":5180:5221   */\n  tag_31\n  jump\t// in\ntag_101:\n    /* \"#utility.yul\":5172:5178   */\n  dup5\n    /* \"#utility.yul\":5165:5169   */\n  dup5\n    /* \"#utility.yul\":5159:5170   */\n  sload\n    /* \"#utility.yul\":5131:5222   */\n  tag_27\n  jump\t// in\ntag_100:\n    /* \"#utility.yul\":5125:5129   */\n  dup3\n    /* \"#utility.yul\":5118:5223   */\n  sstore\n    /* \"#utility.yul\":5036:5229   */\n  pop\n    /* \"#utility.yul\":4960:5229   */\n  pop\n  pop\n  pop\n  jump\t// out\n    /* \"#utility.yul\":5235:5308   */\ntag_33:\n    /* \"#utility.yul\":5280:5283   */\n  0x00\n    /* \"#utility.yul\":5235:5308   */\n  swap1\n  jump\t// out\n    /* \"#utility.yul\":5314:5503   */\ntag_34:\n    /* \"#utility.yul\":5391:5423   */\n  tag_104\n  tag_33\n  jump\t// in\ntag_104:\n    /* \"#utility.yul\":5432:5497   */\n  tag_105\n    /* \"#utility.yul\":5490:5496   */\n  dup2\n    /* \"#utility.yul\":5482:5488   */\n  dup5\n    /* \"#utility.yul\":5476:5480   */\n  dup5\n    /* \"#utility.yul\":5432:5497   */\n  tag_32\n  jump\t// in\ntag_105:\n    /* \"#utility.yul\":5367:5503   */\n  pop\n    /* \"#utility.yul\":5314:5503   */\n  pop\n  pop\n  jump\t// out\n    /* \"#utility.yul\":5509:5695   */\ntag_35:\n    /* \"#utility.yul\":5569:5689   */\ntag_107:\n    /* \"#utility.yul\":5586:5589   */\n  dup2\n    /* \"#utility.yul\":5579:5584   */\n  dup2\n    /* \"#utility.yul\":5576:5590   */\n  lt\n    /* \"#utility.yul\":5569:5689   */\n  iszero\n  tag_109\n  jumpi\n    /* \"#utility.yul\":5640:5679   */\n  tag_110\n    /* \"#utility.yul\":5677:5678   */\n  0x00\n    /* \"#utility.yul\":5670:5675   */\n  dup3\n    /* \"#utility.yul\":5640:5679   */\n  tag_34\n  jump\t// in\ntag_110:\n    /* \"#utility.yul\":5613:5614   */\n  0x01\n    /* \"#utility.yul\":5606:5611   */\n  dup2\n    /* \"#utility.yul\":5602:5615   */\n  add\n    /* \"#utility.yul\":5593:5615   */\n  swap1\n  pop\n    /* \"#utility.yul\":5569:5689   */\n  jump(tag_107)\ntag_109:\n    /* \"#utility.yul\":5509:5695   */\n  pop\n  pop\n  jump\t// out\n    /* \"#utility.yul\":5701:6244   */\ntag_36:\n    /* \"#utility.yul\":5802:5804   */\n  0x1f\n    /* \"#utility.yul\":5797:5800   */\n  dup3\n    /* \"#utility.yul\":5794:5805   */\n  gt\n    /* \"#utility.yul\":5791:6237   */\n  iszero\n  tag_112\n  jumpi\n    /* \"#utility.yul\":5836:5874   */\n  tag_113\n    /* \"#utility.yul\":5868:5873   */\n  dup2\n    /* \"#utility.yul\":5836:5874   */\n  tag_24\n  jump\t// in\ntag_113:\n    /* \"#utility.yul\":5920:5949   */\n  tag_114\n    /* \"#utility.yul\":5938:5948   */\n  dup5\n    /* \"#utility.yul\":5920:5949   */\n  tag_25\n  jump\t// in\ntag_114:\n    /* \"#utility.yul\":5910:5918   */\n  dup2\n    /* \"#utility.yul\":5906:5950   */\n  add\n    /* \"#utility.yul\":6103:6105   */\n  0x20\n    /* \"#utility.yul\":6091:6101   */\n  dup6\n    /* \"#utility.yul\":6088:6106   */\n  lt\n    /* \"#utility.yul\":6085:6134   */\n  iszero\n  tag_115\n  jumpi\n    /* \"#utility.yul\":6124:6132   */\n  dup2\n    /* \"#utility.yul\":6109:6132   */\n  swap1\n  pop\n    /* \"#utility.yul\":6085:6134   */\ntag_115:\n    /* \"#utility.yul\":6147:6227   */\n  tag_116\n    /* \"#utility.yul\":6203:6225   */\n  tag_117\n    /* \"#utility.yul\":6221:6224   */\n  dup6\n    /* \"#utility.yul\":6203:6225   */\n  tag_25\n  jump\t// in\ntag_117:\n    /* \"#utility.yul\":6193:6201   */\n  dup4\n    /* \"#utility.yul\":6189:6226   */\n  add\n    /* \"#utility.yul\":6176:6187   */\n  dup3\n    /* \"#utility.yul\":6147:6227   */\n  tag_35\n  jump\t// in\ntag_116:\n    /* \"#utility.yul\":5806:6237   */\n  pop\n  pop\n    /* \"#utility.yul\":5791:6237   */\ntag_112:\n    /* \"#utility.yul\":5701:6244   */\n  pop\n  pop\n  pop\n  jump\t// out\n    /* \"#utility.yul\":6250:6367   */\ntag_37:\n    /* \"#utility.yul\":6304:6312   */\n  0x00\n    /* \"#utility.yul\":6354:6359   */\n  dup3\n    /* \"#utility.yul\":6348:6352   */\n  dup3\n    /* \"#utility.yul\":6344:6360   */\n  shr\n    /* \"#utility.yul\":6323:6360   */\n  swap1\n  pop\n    /* \"#utility.yul\":6250:6367   */\n  swap3\n  swap2\n  pop\n  pop\n  jump\t// out\n    /* \"#utility.yul\":6373:6542   */\ntag_38:\n    /* \"#utility.yul\":6417:6423   */\n  0x00\n    /* \"#utility.yul\":6450:6501   */\n  tag_120\n    /* \"#utility.yul\":6498:6499   */\n  0x00\n    /* \"#utility.yul\":6494:6500   */\n  not\n    /* \"#utility.yul\":6486:6491   */\n  dup5\n    /* \"#utility.yul\":6483:6484   */\n  0x08\n    /* \"#utility.yul\":6479:6492   */\n  mul\n    /* \"#utility.yul\":6450:6501   */\n  tag_37\n  jump\t// in\ntag_120:\n    /* \"#utility.yul\":6446:6502   */\n  not\n    /* \"#utility.yul\":6531:6535   */\n  dup1\n    /* \"#utility.yul\":6525:6529   */\n  dup4\n    /* \"#utility.yul\":6521:6536   */\n  and\n    /* \"#utility.yul\":6511:6536   */\n  swap2\n  pop\n    /* \"#utility.yul\":6424:6542   */\n  pop\n    /* \"#utility.yul\":6373:6542   */\n  swap3\n  swap2\n  pop\n  pop\n  jump\t// out\n    /* \"#utility.yul\":6547:6842   */\ntag_39:\n    /* \"#utility.yul\":6623:6627   */\n  0x00\n    /* \"#utility.yul\":6769:6798   */\n  tag_122\n    /* \"#utility.yul\":6794:6797   */\n  dup4\n    /* \"#utility.yul\":6788:6792   */\n  dup4\n    /* \"#utility.yul\":6769:6798   */\n  tag_38\n  jump\t// in\ntag_122:\n    /* \"#utility.yul\":6761:6798   */\n  swap2\n  pop\n    /* \"#utility.yul\":6831:6834   */\n  dup3\n    /* \"#utility.yul\":6828:6829   */\n  0x02\n    /* \"#utility.yul\":6824:6835   */\n  mul\n    /* \"#utility.yul\":6818:6822   */\n  dup3\n    /* \"#utility.yul\":6815:6836   */\n  or\n    /* \"#utility.yul\":6807:6836   */\n  swap1\n  pop\n    /* \"#utility.yul\":6547:6842   */\n  swap3\n  swap2\n  pop\n  pop\n  jump\t// out\n    /* \"#utility.yul\":6847:8242   */\ntag_6:\n    /* \"#utility.yul\":6964:7001   */\n  tag_124\n    /* \"#utility.yul\":6997:7000   */\n  dup3\n    /* \"#utility.yul\":6964:7001   */\n  tag_21\n  jump\t// in\ntag_124:\n    /* \"#utility.yul\":7066:7084   */\n  0xffffffffffffffff\n    /* \"#utility.yul\":7058:7064   */\n  dup2\n    /* \"#utility.yul\":7055:7085   */\n  gt\n    /* \"#utility.yul\":7052:7108   */\n  iszero\n  tag_125\n  jumpi\n    /* \"#utility.yul\":7088:7106   */\n  tag_126\n  tag_14\n  jump\t// in\ntag_126:\n    /* \"#utility.yul\":7052:7108   */\ntag_125:\n    /* \"#utility.yul\":7132:7170   */\n  tag_127\n    /* \"#utility.yul\":7164:7168   */\n  dup3\n    /* \"#utility.yul\":7158:7169   */\n  sload\n    /* \"#utility.yul\":7132:7170   */\n  tag_23\n  jump\t// in\ntag_127:\n    /* \"#utility.yul\":7217:7284   */\n  tag_128\n    /* \"#utility.yul\":7277:7283   */\n  dup3\n    /* \"#utility.yul\":7269:7275   */\n  dup3\n    /* \"#utility.yul\":7263:7267   */\n  dup6\n    /* \"#utility.yul\":7217:7284   */\n  tag_36\n  jump\t// in\ntag_128:\n    /* \"#utility.yul\":7311:7312   */\n  0x00\n    /* \"#utility.yul\":7335:7339   */\n  0x20\n    /* \"#utility.yul\":7322:7339   */\n  swap1\n  pop\n    /* \"#utility.yul\":7367:7369   */\n  0x1f\n    /* \"#utility.yul\":7359:7365   */\n  dup4\n    /* \"#utility.yul\":7356:7370   */\n  gt\n    /* \"#utility.yul\":7384:7385   */\n  0x01\n    /* \"#utility.yul\":7379:7997   */\n  dup2\n  eq\n  tag_130\n  jumpi\n    /* \"#utility.yul\":8041:8042   */\n  0x00\n    /* \"#utility.yul\":8058:8064   */\n  dup5\n    /* \"#utility.yul\":8055:8132   */\n  iszero\n  tag_131\n  jumpi\n    /* \"#utility.yul\":8107:8116   */\n  dup3\n    /* \"#utility.yul\":8102:8105   */\n  dup8\n    /* \"#utility.yul\":8098:8117   */\n  add\n    /* \"#utility.yul\":8092:8118   */\n  mload\n    /* \"#utility.yul\":8083:8118   */\n  swap1\n  pop\n    /* \"#utility.yul\":8055:8132   */\ntag_131:\n    /* \"#utility.yul\":8158:8225   */\n  tag_132\n    /* \"#utility.yul\":8218:8224   */\n  dup6\n    /* \"#utility.yul\":8211:8216   */\n  dup3\n    /* \"#utility.yul\":8158:8225   */\n  tag_39\n  jump\t// in\ntag_132:\n    /* \"#utility.yul\":8152:8156   */\n  dup7\n    /* \"#utility.yul\":8145:8226   */\n  sstore\n    /* \"#utility.yul\":8014:8236   */\n  pop\n    /* \"#utility.yul\":7349:8236   */\n  jump(tag_129)\n    /* \"#utility.yul\":7379:7997   */\ntag_130:\n    /* \"#utility.yul\":7431:7435   */\n  0x1f\n    /* \"#utility.yul\":7427:7436   */\n  not\n    /* \"#utility.yul\":7419:7425   */\n  dup5\n    /* \"#utility.yul\":7415:7437   */\n  and\n    /* \"#utility.yul\":7465:7502   */\n  tag_133\n    /* \"#utility.yul\":7497:7501   */\n  dup7\n    /* \"#utility.yul\":7465:7502   */\n  tag_24\n  jump\t// in\ntag_133:\n    /* \"#utility.yul\":7524:7525   */\n  0x00\n    /* \"#utility.yul\":7538:7746   */\ntag_134:\n    /* \"#utility.yul\":7552:7559   */\n  dup3\n    /* \"#utility.yul\":7549:7550   */\n  dup2\n    /* \"#utility.yul\":7546:7560   */\n  lt\n    /* \"#utility.yul\":7538:7746   */\n  iszero\n  tag_136\n  jumpi\n    /* \"#utility.yul\":7631:7640   */\n  dup5\n    /* \"#utility.yul\":7626:7629   */\n  dup10\n    /* \"#utility.yul\":7622:7641   */\n  add\n    /* \"#utility.yul\":7616:7642   */\n  mload\n    /* \"#utility.yul\":7608:7614   */\n  dup3\n    /* \"#utility.yul\":7601:7643   */\n  sstore\n    /* \"#utility.yul\":7682:7683   */\n  0x01\n    /* \"#utility.yul\":7674:7680   */\n  dup3\n    /* \"#utility.yul\":7670:7684   */\n  add\n    /* \"#utility.yul\":7660:7684   */\n  swap2\n  pop\n    /* \"#utility.yul\":7729:7731   */\n  0x20\n    /* \"#utility.yul\":7718:7727   */\n  dup6\n    /* \"#utility.yul\":7714:7732   */\n  add\n    /* \"#utility.yul\":7701:7732   */\n  swap5\n  pop\n    /* \"#utility.yul\":7575:7579   */\n  0x20\n    /* \"#utility.yul\":7572:7573   */\n  dup2\n    /* \"#utility.yul\":7568:7580   */\n  add\n    /* \"#utility.yul\":7563:7580   */\n  swap1\n  pop\n    /* \"#utility.yul\":7538:7746   */\n  jump(tag_134)\ntag_136:\n    /* \"#utility.yul\":7774:7780   */\n  dup7\n    /* \"#utility.yul\":7765:7772   */\n  dup4\n    /* \"#utility.yul\":7762:7781   */\n  lt\n    /* \"#utility.yul\":7759:7938   */\n  iszero\n  tag_137\n  jumpi\n    /* \"#utility.yul\":7832:7841   */\n  dup5\n    /* \"#utility.yul\":7827:7830   */\n  dup10\n    /* \"#utility.yul\":7823:7842   */\n  add\n    /* \"#utility.yul\":7817:7843   */\n  mload\n    /* \"#utility.yul\":7875:7923   */\n  tag_138\n    /* \"#utility.yul\":7917:7921   */\n  0x1f\n    /* \"#utility.yul\":7909:7915   */\n  dup10\n    /* \"#utility.yul\":7905:7922   */\n  and\n    /* \"#utility.yul\":7894:7903   */\n  dup3\n    /* \"#utility.yul\":7875:7923   */\n  tag_38\n  jump\t// in\ntag_138:\n    /* \"#utility.yul\":7867:7873   */\n  dup4\n    /* \"#utility.yul\":7860:7924   */\n  sstore\n    /* \"#utility.yul\":7782:7938   */\n  pop\n    /* \"#utility.yul\":7759:7938   */\ntag_137:\n    /* \"#utility.yul\":7984:7985   */\n  0x01\n    /* \"#utility.yul\":7980:7981   */\n  0x02\n    /* \"#utility.yul\":7972:7978   */\n  dup9\n    /* \"#utility.yul\":7968:7982   */\n  mul\n    /* \"#utility.yul\":7964:7986   */\n  add\n    /* \"#utility.yul\":7958:7962   */\n  dup9\n    /* \"#utility.yul\":7951:7987   */\n  sstore\n    /* \"#utility.yul\":7386:7997   */\n  pop\n  pop\n  pop\n    /* \"#utility.yul\":7349:8236   */\ntag_129:\n  pop\n    /* \"#utility.yul\":6939:8242   */\n  pop\n  pop\n  pop\n    /* \"#utility.yul\":6847:8242   */\n  pop\n  pop\n  jump\t// out\n    /* \"gmonad.sol\":538:4130  contract Gmonad { ... */\ntag_7:\n  dataSize(sub_0)\n  dup1\n  dataOffset(sub_0)\n  0x00\n  codecopy\n  0x00\n  return\nstop\n\nsub_0: assembly {\n        /* \"gmonad.sol\":538:4130  contract Gmonad { ... */\n      mstore(0x40, 0x80)\n      jumpi(tag_1, lt(calldatasize, 0x04))\n      shr(0xe0, calldataload(0x00))\n      dup1\n      0x95310efa\n      gt\n      tag_14\n      jumpi\n      dup1\n      0x95310efa\n      eq\n      tag_8\n      jumpi\n      dup1\n      0xa4136862\n      eq\n      tag_9\n      jumpi\n      dup1\n      0xc146408e\n      eq\n      tag_10\n      jumpi\n      dup1\n      0xe086e5ec\n      eq\n      tag_11\n      jumpi\n      dup1\n      0xef690cc0\n      eq\n      tag_12\n      jumpi\n      dup1\n      0xfe029156\n      eq\n      tag_13\n      jumpi\n      jump(tag_2)\n    tag_14:\n      dup1\n      0x062dd331\n      eq\n      tag_3\n      jumpi\n      dup1\n      0x47e7ef24\n      eq\n      tag_4\n      jumpi\n      dup1\n      0x89476069\n      eq\n      tag_5\n      jumpi\n      dup1\n      0x8da5cb5b\n      eq\n      tag_6\n      jumpi\n      dup1\n      0x90321e1a\n      eq\n      tag_7\n      jumpi\n      jump(tag_2)\n    tag_1:\n      jumpi(tag_2, calldatasize)\n      stop\n    tag_2:\n      stop\n        /* \"gmonad.sol\":1844:2162  function withdrawWmon() external {... */\n    tag_3:\n      callvalue\n      dup1\n      iszero\n      tag_19\n      jumpi\n      0x00\n      dup1\n      revert\n    tag_19:\n      pop\n      tag_20\n      tag_21\n      jump\t// in\n    tag_20:\n      stop\n        /* \"gmonad.sol\":2218:2464  function deposit(address token, uint amount) external {... */\n    tag_4:\n      callvalue\n      dup1\n      iszero\n      tag_22\n      jumpi\n      0x00\n      dup1\n      revert\n    tag_22:\n      pop\n      tag_23\n      0x04\n      dup1\n      calldatasize\n      sub\n      dup2\n      add\n      swap1\n      tag_24\n      swap2\n      swap1\n      tag_25\n      jump\t// in\n    tag_24:\n      tag_26\n      jump\t// in\n    tag_23:\n      stop\n        /* \"gmonad.sol\":1543:1838  function withdrawToken(address token) external {... */\n    tag_5:\n      callvalue\n      dup1\n      iszero\n      tag_27\n      jumpi\n      0x00\n      dup1\n      revert\n    tag_27:\n      pop\n      tag_28\n      0x04\n      dup1\n      calldatasize\n      sub\n      dup2\n      add\n      swap1\n      tag_29\n      swap2\n      swap1\n      tag_30\n      jump\t// in\n    tag_29:\n      tag_31\n      jump\t// in\n    tag_28:\n      stop\n        /* \"gmonad.sol\":591:611  address public owner */\n    tag_6:\n      callvalue\n      dup1\n      iszero\n      tag_32\n      jumpi\n      0x00\n      dup1\n      revert\n    tag_32:\n      pop\n      tag_33\n      tag_34\n      jump\t// in\n    tag_33:\n      mload(0x40)\n      tag_35\n      swap2\n      swap1\n      tag_36\n      jump\t// in\n    tag_35:\n      mload(0x40)\n      dup1\n      swap2\n      sub\n      swap1\n      return\n        /* \"gmonad.sol\":618:654  uint256 public callFee = 0.001 ether */\n    tag_7:\n      callvalue\n      dup1\n      iszero\n      tag_37\n      jumpi\n      0x00\n      dup1\n      revert\n    tag_37:\n      pop\n      tag_38\n      tag_39\n      jump\t// in\n    tag_38:\n      mload(0x40)\n      tag_40\n      swap2\n      swap1\n      tag_41\n      jump\t// in\n    tag_40:\n      mload(0x40)\n      dup1\n      swap2\n      sub\n      swap1\n      return\n        /* \"gmonad.sol\":2850:3111  function depositOwner(address token, uint amount) external onlyOwner {... */\n    tag_8:\n      callvalue\n      dup1\n      iszero\n      tag_42\n      jumpi\n      0x00\n      dup1\n      revert\n    tag_42:\n      pop\n      tag_43\n      0x04\n      dup1\n      calldatasize\n      sub\n      dup2\n      add\n      swap1\n      tag_44\n      swap2\n      swap1\n      tag_25\n      jump\t// in\n    tag_44:\n      tag_45\n      jump\t// in\n    tag_43:\n      stop\n        /* \"gmonad.sol\":1147:1316  function setGreeting(string calldata _greeting) external payable {... */\n    tag_9:\n      tag_46\n      0x04\n      dup1\n      calldatasize\n      sub\n      dup2\n      add\n      swap1\n      tag_47\n      swap2\n      swap1\n      tag_48\n      jump\t// in\n    tag_47:\n      tag_49\n      jump\t// in\n    tag_46:\n      stop\n        /* \"gmonad.sol\":2470:2794  function depositWmon() external {... */\n    tag_10:\n      callvalue\n      dup1\n      iszero\n      tag_50\n      jumpi\n      0x00\n      dup1\n      revert\n    tag_50:\n      pop\n      tag_51\n      tag_52\n      jump\t// in\n    tag_51:\n      stop\n        /* \"gmonad.sol\":1355:1505  function withdrawETH() external {... */\n    tag_11:\n      callvalue\n      dup1\n      iszero\n      tag_53\n      jumpi\n      0x00\n      dup1\n      revert\n    tag_53:\n      pop\n      tag_54\n      tag_55\n      jump\t// in\n    tag_54:\n      stop\n        /* \"gmonad.sol\":562:584  string public greeting */\n    tag_12:\n      callvalue\n      dup1\n      iszero\n      tag_56\n      jumpi\n      0x00\n      dup1\n      revert\n    tag_56:\n      pop\n      tag_57\n      tag_58\n      jump\t// in\n    tag_57:\n      mload(0x40)\n      tag_59\n      swap2\n      swap1\n      tag_60\n      jump\t// in\n    tag_59:\n      mload(0x40)\n      dup1\n      swap2\n      sub\n      swap1\n      return\n        /* \"gmonad.sol\":3118:4010  function swap(address tokenA, address tokenB, uint amountA, uint rate) external payable {... */\n    tag_13:\n      tag_61\n      0x04\n      dup1\n      calldatasize\n      sub\n      dup2\n      add\n      swap1\n      tag_62\n      swap2\n      swap1\n      tag_63\n      jump\t// in\n    tag_62:\n      tag_64\n      jump\t// in\n    tag_61:\n      stop\n        /* \"gmonad.sol\":1844:2162  function withdrawWmon() external {... */\n    tag_21:\n        /* \"gmonad.sol\":1910:1915  owner */\n      0x01\n      0x00\n      swap1\n      sload\n      swap1\n      0x0100\n      exp\n      swap1\n      div\n      0xffffffffffffffffffffffffffffffffffffffff\n      and\n        /* \"gmonad.sol\":1896:1915  msg.sender == owner */\n      0xffffffffffffffffffffffffffffffffffffffff\n      and\n        /* \"gmonad.sol\":1896:1906  msg.sender */\n      caller\n        /* \"gmonad.sol\":1896:1915  msg.sender == owner */\n      0xffffffffffffffffffffffffffffffffffffffff\n      and\n      eq\n        /* \"gmonad.sol\":1888:1930  require(msg.sender == owner, \"Only owner\") */\n      tag_66\n      jumpi\n      mload(0x40)\n      0x08c379a000000000000000000000000000000000000000000000000000000000\n      dup2\n      mstore\n      0x04\n      add\n      tag_67\n      swap1\n      tag_68\n      jump\t// in\n    tag_67:\n      mload(0x40)\n      dup1\n      swap2\n      sub\n      swap1\n      revert\n    tag_66:\n        /* \"gmonad.sol\":1941:1953  IERC20 erc20 */\n      0x00\n        /* \"gmonad.sol\":1963:2005  0x760AfE86e5de5fa0Ee542fc7B7B713e1c5425701 */\n      0x760afe86e5de5fa0ee542fc7b7b713e1c5425701\n        /* \"gmonad.sol\":1941:2006  IERC20 erc20 = IERC20(0x760AfE86e5de5fa0Ee542fc7B7B713e1c5425701) */\n      swap1\n      pop\n        /* \"gmonad.sol\":2017:2029  uint balance */\n      0x00\n        /* \"gmonad.sol\":2032:2037  erc20 */\n      dup2\n        /* \"gmonad.sol\":2032:2047  erc20.balanceOf */\n      0xffffffffffffffffffffffffffffffffffffffff\n      and\n      0x70a08231\n        /* \"gmonad.sol\":2056:2060  this */\n      address\n        /* \"gmonad.sol\":2032:2062  erc20.balanceOf(address(this)) */\n      mload(0x40)\n      dup3\n      0xffffffff\n      and\n      0xe0\n      shl\n      dup2\n      mstore\n      0x04\n      add\n      tag_69\n      swap2\n      swap1\n      tag_36\n      jump\t// in\n    tag_69:\n      0x20\n      mload(0x40)\n      dup1\n      dup4\n      sub\n      dup2\n      dup7\n      gas\n      staticcall\n      iszero\n      dup1\n      iszero\n      tag_71\n      jumpi\n      returndatasize\n      0x00\n      dup1\n      returndatacopy\n      revert(0x00, returndatasize)\n    tag_71:\n      pop\n      pop\n      pop\n      pop\n      mload(0x40)\n      returndatasize\n      not(0x1f)\n      0x1f\n      dup3\n      add\n      and\n      dup3\n      add\n      dup1\n      0x40\n      mstore\n      pop\n      dup2\n      add\n      swap1\n      tag_72\n      swap2\n      swap1\n      tag_73\n      jump\t// in\n    tag_72:\n        /* \"gmonad.sol\":2017:2062  uint balance = erc20.balanceOf(address(this)) */\n      swap1\n      pop\n        /* \"gmonad.sol\":2091:2092  0 */\n      0x00\n        /* \"gmonad.sol\":2081:2088  balance */\n      dup2\n        /* \"gmonad.sol\":2081:2092  balance > 0 */\n      gt\n        /* \"gmonad.sol\":2073:2113  require(balance > 0, \"No token balance\") */\n      tag_74\n      jumpi\n      mload(0x40)\n      0x08c379a000000000000000000000000000000000000000000000000000000000\n      dup2\n      mstore\n      0x04\n      add\n      tag_75\n      swap1\n      tag_76\n      jump\t// in\n    tag_75:\n      mload(0x40)\n      dup1\n      swap2\n      sub\n      swap1\n      revert\n    tag_74:\n        /* \"gmonad.sol\":2124:2129  erc20 */\n      dup2\n        /* \"gmonad.sol\":2124:2138  erc20.transfer */\n      0xffffffffffffffffffffffffffffffffffffffff\n      and\n      0xa9059cbb\n        /* \"gmonad.sol\":2139:2144  owner */\n      0x01\n      0x00\n      swap1\n      sload\n      swap1\n      0x0100\n      exp\n      swap1\n      div\n      0xffffffffffffffffffffffffffffffffffffffff\n      and\n        /* \"gmonad.sol\":2146:2153  balance */\n      dup4\n        /* \"gmonad.sol\":2124:2154  erc20.transfer(owner, balance) */\n      mload(0x40)\n      dup4\n      0xffffffff\n      and\n      0xe0\n      shl\n      dup2\n      mstore\n      0x04\n      add\n      tag_77\n      swap3\n      swap2\n      swap1\n      tag_78\n      jump\t// in\n    tag_77:\n      0x20\n      mload(0x40)\n      dup1\n      dup4\n      sub\n      dup2\n      0x00\n      dup8\n      gas\n      call\n      iszero\n      dup1\n      iszero\n      tag_80\n      jumpi\n      returndatasize\n      0x00\n      dup1\n      returndatacopy\n      revert(0x00, returndatasize)\n    tag_80:\n      pop\n      pop\n      pop\n      pop\n      mload(0x40)\n      returndatasize\n      not(0x1f)\n      0x1f\n      dup3\n      add\n      and\n      dup3\n      add\n      dup1\n      0x40\n      mstore\n      pop\n      dup2\n      add\n      swap1\n      tag_81\n      swap2\n      swap1\n      tag_82\n      jump\t// in\n    tag_81:\n      pop\n        /* \"gmonad.sol\":1877:2162  {... */\n      pop\n      pop\n        /* \"gmonad.sol\":1844:2162  function withdrawWmon() external {... */\n      jump\t// out\n        /* \"gmonad.sol\":2218:2464  function deposit(address token, uint amount) external {... */\n    tag_26:\n        /* \"gmonad.sol\":2283:2295  bool success */\n      0x00\n        /* \"gmonad.sol\":2305:2310  token */\n      dup3\n        /* \"gmonad.sol\":2298:2324  IERC20(token).transferFrom */\n      0xffffffffffffffffffffffffffffffffffffffff\n      and\n      0x23b872dd\n        /* \"gmonad.sol\":2325:2335  msg.sender */\n      caller\n        /* \"gmonad.sol\":2345:2349  this */\n      address\n        /* \"gmonad.sol\":2352:2358  amount */\n      dup6\n        /* \"gmonad.sol\":2298:2359  IERC20(token).transferFrom(msg.sender, address(this), amount) */\n      mload(0x40)\n      dup5\n      0xffffffff\n      and\n      0xe0\n      shl\n      dup2\n      mstore\n      0x04\n      add\n      tag_84\n      swap4\n      swap3\n      swap2\n      swap1\n      tag_85\n      jump\t// in\n    tag_84:\n      0x20\n      mload(0x40)\n      dup1\n      dup4\n      sub\n      dup2\n      0x00\n      dup8\n      gas\n      call\n      iszero\n      dup1\n      iszero\n      tag_87\n      jumpi\n      returndatasize\n      0x00\n      dup1\n      returndatacopy\n      revert(0x00, returndatasize)\n    tag_87:\n      pop\n      pop\n      pop\n      pop\n      mload(0x40)\n      returndatasize\n      not(0x1f)\n      0x1f\n      dup3\n      add\n      and\n      dup3\n      add\n      dup1\n      0x40\n      mstore\n      pop\n      dup2\n      add\n      swap1\n      tag_88\n      swap2\n      swap1\n      tag_82\n      jump\t// in\n    tag_88:\n        /* \"gmonad.sol\":2283:2359  bool success = IERC20(token).transferFrom(msg.sender, address(this), amount) */\n      swap1\n      pop\n        /* \"gmonad.sol\":2378:2385  success */\n      dup1\n        /* \"gmonad.sol\":2370:2404  require(success, \"Deposit failed\") */\n      tag_89\n      jumpi\n      mload(0x40)\n      0x08c379a000000000000000000000000000000000000000000000000000000000\n      dup2\n      mstore\n      0x04\n      add\n      tag_90\n      swap1\n      tag_91\n      jump\t// in\n    tag_90:\n      mload(0x40)\n      dup1\n      swap2\n      sub\n      swap1\n      revert\n    tag_89:\n        /* \"gmonad.sol\":2430:2440  msg.sender */\n      caller\n        /* \"gmonad.sol\":2420:2456  Deposited(msg.sender, token, amount) */\n      0xffffffffffffffffffffffffffffffffffffffff\n      and\n      0x8752a472e571a816aea92eec8dae9baf628e840f4929fbcc2d155e6233ff68a7\n        /* \"gmonad.sol\":2442:2447  token */\n      dup5\n        /* \"gmonad.sol\":2449:2455  amount */\n      dup5\n        /* \"gmonad.sol\":2420:2456  Deposited(msg.sender, token, amount) */\n      mload(0x40)\n      tag_92\n      swap3\n      swap2\n      swap1\n      tag_78\n      jump\t// in\n    tag_92:\n      mload(0x40)\n      dup1\n      swap2\n      sub\n      swap1\n      log2\n        /* \"gmonad.sol\":2272:2464  {... */\n      pop\n        /* \"gmonad.sol\":2218:2464  function deposit(address token, uint amount) external {... */\n      pop\n      pop\n      jump\t// out\n        /* \"gmonad.sol\":1543:1838  function withdrawToken(address token) external {... */\n    tag_31:\n        /* \"gmonad.sol\":1623:1628  owner */\n      0x01\n      0x00\n      swap1\n      sload\n      swap1\n      0x0100\n      exp\n      swap1\n      div\n      0xffffffffffffffffffffffffffffffffffffffff\n      and\n        /* \"gmonad.sol\":1609:1628  msg.sender == owner */\n      0xffffffffffffffffffffffffffffffffffffffff\n      and\n        /* \"gmonad.sol\":1609:1619  msg.sender */\n      caller\n        /* \"gmonad.sol\":1609:1628  msg.sender == owner */\n      0xffffffffffffffffffffffffffffffffffffffff\n      and\n      eq\n        /* \"gmonad.sol\":1601:1643  require(msg.sender == owner, \"Only owner\") */\n      tag_94\n      jumpi\n      mload(0x40)\n      0x08c379a000000000000000000000000000000000000000000000000000000000\n      dup2\n      mstore\n      0x04\n      add\n      tag_95\n      swap1\n      tag_68\n      jump\t// in\n    tag_95:\n      mload(0x40)\n      dup1\n      swap2\n      sub\n      swap1\n      revert\n    tag_94:\n        /* \"gmonad.sol\":1654:1666  IERC20 erc20 */\n      0x00\n        /* \"gmonad.sol\":1676:1681  token */\n      dup2\n        /* \"gmonad.sol\":1654:1682  IERC20 erc20 = IERC20(token) */\n      swap1\n      pop\n        /* \"gmonad.sol\":1693:1705  uint balance */\n      0x00\n        /* \"gmonad.sol\":1708:1713  erc20 */\n      dup2\n        /* \"gmonad.sol\":1708:1723  erc20.balanceOf */\n      0xffffffffffffffffffffffffffffffffffffffff\n      and\n      0x70a08231\n        /* \"gmonad.sol\":1732:1736  this */\n      address\n        /* \"gmonad.sol\":1708:1738  erc20.balanceOf(address(this)) */\n      mload(0x40)\n      dup3\n      0xffffffff\n      and\n      0xe0\n      shl\n      dup2\n      mstore\n      0x04\n      add\n      tag_96\n      swap2\n      swap1\n      tag_36\n      jump\t// in\n    tag_96:\n      0x20\n      mload(0x40)\n      dup1\n      dup4\n      sub\n      dup2\n      dup7\n      gas\n      staticcall\n      iszero\n      dup1\n      iszero\n      tag_98\n      jumpi\n      returndatasize\n      0x00\n      dup1\n      returndatacopy\n      revert(0x00, returndatasize)\n    tag_98:\n      pop\n      pop\n      pop\n      pop\n      mload(0x40)\n      returndatasize\n      not(0x1f)\n      0x1f\n      dup3\n      add\n      and\n      dup3\n      add\n      dup1\n      0x40\n      mstore\n      pop\n      dup2\n      add\n      swap1\n      tag_99\n      swap2\n      swap1\n      tag_73\n      jump\t// in\n    tag_99:\n        /* \"gmonad.sol\":1693:1738  uint balance = erc20.balanceOf(address(this)) */\n      swap1\n      pop\n        /* \"gmonad.sol\":1767:1768  0 */\n      0x00\n        /* \"gmonad.sol\":1757:1764  balance */\n      dup2\n        /* \"gmonad.sol\":1757:1768  balance > 0 */\n      gt\n        /* \"gmonad.sol\":1749:1789  require(balance > 0, \"No token balance\") */\n      tag_100\n      jumpi\n      mload(0x40)\n      0x08c379a000000000000000000000000000000000000000000000000000000000\n      dup2\n      mstore\n      0x04\n      add\n      tag_101\n      swap1\n      tag_76\n      jump\t// in\n    tag_101:\n      mload(0x40)\n      dup1\n      swap2\n      sub\n      swap1\n      revert\n    tag_100:\n        /* \"gmonad.sol\":1800:1805  erc20 */\n      dup2\n        /* \"gmonad.sol\":1800:1814  erc20.transfer */\n      0xffffffffffffffffffffffffffffffffffffffff\n      and\n      0xa9059cbb\n        /* \"gmonad.sol\":1815:1820  owner */\n      0x01\n      0x00\n      swap1\n      sload\n      swap1\n      0x0100\n      exp\n      swap1\n      div\n      0xffffffffffffffffffffffffffffffffffffffff\n      and\n        /* \"gmonad.sol\":1822:1829  balance */\n      dup4\n        /* \"gmonad.sol\":1800:1830  erc20.transfer(owner, balance) */\n      mload(0x40)\n      dup4\n      0xffffffff\n      and\n      0xe0\n      shl\n      dup2\n      mstore\n      0x04\n      add\n      tag_102\n      swap3\n      swap2\n      swap1\n      tag_78\n      jump\t// in\n    tag_102:\n      0x20\n      mload(0x40)\n      dup1\n      dup4\n      sub\n      dup2\n      0x00\n      dup8\n      gas\n      call\n      iszero\n      dup1\n      iszero\n      tag_104\n      jumpi\n      returndatasize\n      0x00\n      dup1\n      returndatacopy\n      revert(0x00, returndatasize)\n    tag_104:\n      pop\n      pop\n      pop\n      pop\n      mload(0x40)\n      returndatasize\n      not(0x1f)\n      0x1f\n      dup3\n      add\n      and\n      dup3\n      add\n      dup1\n      0x40\n      mstore\n      pop\n      dup2\n      add\n      swap1\n      tag_105\n      swap2\n      swap1\n      tag_82\n      jump\t// in\n    tag_105:\n      pop\n        /* \"gmonad.sol\":1590:1838  {... */\n      pop\n      pop\n        /* \"gmonad.sol\":1543:1838  function withdrawToken(address token) external {... */\n      pop\n      jump\t// out\n        /* \"gmonad.sol\":591:611  address public owner */\n    tag_34:\n      0x01\n      0x00\n      swap1\n      sload\n      swap1\n      0x0100\n      exp\n      swap1\n      div\n      0xffffffffffffffffffffffffffffffffffffffff\n      and\n      dup2\n      jump\t// out\n        /* \"gmonad.sol\":618:654  uint256 public callFee = 0.001 ether */\n    tag_39:\n      sload(0x02)\n      dup2\n      jump\t// out\n        /* \"gmonad.sol\":2850:3111  function depositOwner(address token, uint amount) external onlyOwner {... */\n    tag_45:\n        /* \"gmonad.sol\":1043:1048  owner */\n      0x01\n      0x00\n      swap1\n      sload\n      swap1\n      0x0100\n      exp\n      swap1\n      div\n      0xffffffffffffffffffffffffffffffffffffffff\n      and\n        /* \"gmonad.sol\":1029:1048  msg.sender == owner */\n      0xffffffffffffffffffffffffffffffffffffffff\n      and\n        /* \"gmonad.sol\":1029:1039  msg.sender */\n      caller\n        /* \"gmonad.sol\":1029:1048  msg.sender == owner */\n      0xffffffffffffffffffffffffffffffffffffffff\n      and\n      eq\n        /* \"gmonad.sol\":1021:1063  require(msg.sender == owner, \"Only owner\") */\n      tag_107\n      jumpi\n      mload(0x40)\n      0x08c379a000000000000000000000000000000000000000000000000000000000\n      dup2\n      mstore\n      0x04\n      add\n      tag_108\n      swap1\n      tag_68\n      jump\t// in\n    tag_108:\n      mload(0x40)\n      dup1\n      swap2\n      sub\n      swap1\n      revert\n    tag_107:\n        /* \"gmonad.sol\":2930:2942  bool success */\n      0x00\n        /* \"gmonad.sol\":2952:2957  token */\n      dup3\n        /* \"gmonad.sol\":2945:2971  IERC20(token).transferFrom */\n      0xffffffffffffffffffffffffffffffffffffffff\n      and\n      0x23b872dd\n        /* \"gmonad.sol\":2972:2982  msg.sender */\n      caller\n        /* \"gmonad.sol\":2992:2996  this */\n      address\n        /* \"gmonad.sol\":2999:3005  amount */\n      dup6\n        /* \"gmonad.sol\":2945:3006  IERC20(token).transferFrom(msg.sender, address(this), amount) */\n      mload(0x40)\n      dup5\n      0xffffffff\n      and\n      0xe0\n      shl\n      dup2\n      mstore\n      0x04\n      add\n      tag_110\n      swap4\n      swap3\n      swap2\n      swap1\n      tag_85\n      jump\t// in\n    tag_110:\n      0x20\n      mload(0x40)\n      dup1\n      dup4\n      sub\n      dup2\n      0x00\n      dup8\n      gas\n      call\n      iszero\n      dup1\n      iszero\n      tag_112\n      jumpi\n      returndatasize\n      0x00\n      dup1\n      returndatacopy\n      revert(0x00, returndatasize)\n    tag_112:\n      pop\n      pop\n      pop\n      pop\n      mload(0x40)\n      returndatasize\n      not(0x1f)\n      0x1f\n      dup3\n      add\n      and\n      dup3\n      add\n      dup1\n      0x40\n      mstore\n      pop\n      dup2\n      add\n      swap1\n      tag_113\n      swap2\n      swap1\n      tag_82\n      jump\t// in\n    tag_113:\n        /* \"gmonad.sol\":2930:3006  bool success = IERC20(token).transferFrom(msg.sender, address(this), amount) */\n      swap1\n      pop\n        /* \"gmonad.sol\":3025:3032  success */\n      dup1\n        /* \"gmonad.sol\":3017:3051  require(success, \"Deposit failed\") */\n      tag_114\n      jumpi\n      mload(0x40)\n      0x08c379a000000000000000000000000000000000000000000000000000000000\n      dup2\n      mstore\n      0x04\n      add\n      tag_115\n      swap1\n      tag_91\n      jump\t// in\n    tag_115:\n      mload(0x40)\n      dup1\n      swap2\n      sub\n      swap1\n      revert\n    tag_114:\n        /* \"gmonad.sol\":3077:3087  msg.sender */\n      caller\n        /* \"gmonad.sol\":3067:3103  Deposited(msg.sender, token, amount) */\n      0xffffffffffffffffffffffffffffffffffffffff\n      and\n      0x8752a472e571a816aea92eec8dae9baf628e840f4929fbcc2d155e6233ff68a7\n        /* \"gmonad.sol\":3089:3094  token */\n      dup5\n        /* \"gmonad.sol\":3096:3102  amount */\n      dup5\n        /* \"gmonad.sol\":3067:3103  Deposited(msg.sender, token, amount) */\n      mload(0x40)\n      tag_116\n      swap3\n      swap2\n      swap1\n      tag_78\n      jump\t// in\n    tag_116:\n      mload(0x40)\n      dup1\n      swap2\n      sub\n      swap1\n      log2\n        /* \"gmonad.sol\":2919:3111  {... */\n      pop\n        /* \"gmonad.sol\":2850:3111  function depositOwner(address token, uint amount) external onlyOwner {... */\n      pop\n      pop\n      jump\t// out\n        /* \"gmonad.sol\":1147:1316  function setGreeting(string calldata _greeting) external payable {... */\n    tag_49:\n        /* \"gmonad.sol\":1244:1251  callFee */\n      sload(0x02)\n        /* \"gmonad.sol\":1231:1240  msg.value */\n      callvalue\n        /* \"gmonad.sol\":1231:1251  msg.value >= callFee */\n      lt\n      iszero\n        /* \"gmonad.sol\":1223:1277  require(msg.value >= callFee, \"Insufficient fee sent\") */\n      tag_118\n      jumpi\n      mload(0x40)\n      0x08c379a000000000000000000000000000000000000000000000000000000000\n      dup2\n      mstore\n      0x04\n      add\n      tag_119\n      swap1\n      tag_120\n      jump\t// in\n    tag_119:\n      mload(0x40)\n      dup1\n      swap2\n      sub\n      swap1\n      revert\n    tag_118:\n        /* \"gmonad.sol\":1299:1308  _greeting */\n      dup2\n      dup2\n        /* \"gmonad.sol\":1288:1296  greeting */\n      0x00\n        /* \"gmonad.sol\":1288:1308  greeting = _greeting */\n      swap2\n      dup3\n      tag_121\n      swap3\n      swap2\n      swap1\n      tag_122\n      jump\t// in\n    tag_121:\n      pop\n        /* \"gmonad.sol\":1147:1316  function setGreeting(string calldata _greeting) external payable {... */\n      pop\n      pop\n      jump\t// out\n        /* \"gmonad.sol\":2470:2794  function depositWmon() external {... */\n    tag_52:\n        /* \"gmonad.sol\":2513:2525  bool success */\n      0x00\n        /* \"gmonad.sol\":2535:2577  0x760AfE86e5de5fa0Ee542fc7B7B713e1c5425701 */\n      0x760afe86e5de5fa0ee542fc7b7b713e1c5425701\n        /* \"gmonad.sol\":2528:2591  IERC20(0x760AfE86e5de5fa0Ee542fc7B7B713e1c5425701).transferFrom */\n      0xffffffffffffffffffffffffffffffffffffffff\n      and\n      0x23b872dd\n        /* \"gmonad.sol\":2592:2602  msg.sender */\n      caller\n        /* \"gmonad.sol\":2612:2616  this */\n      address\n        /* \"gmonad.sol\":2619:2638  1000000000000000000 */\n      0x0de0b6b3a7640000\n        /* \"gmonad.sol\":2528:2639  IERC20(0x760AfE86e5de5fa0Ee542fc7B7B713e1c5425701).transferFrom(msg.sender, address(this), 1000000000000000000) */\n      mload(0x40)\n      dup5\n      0xffffffff\n      and\n      0xe0\n      shl\n      dup2\n      mstore\n      0x04\n      add\n      tag_124\n      swap4\n      swap3\n      swap2\n      swap1\n      tag_125\n      jump\t// in\n    tag_124:\n      0x20\n      mload(0x40)\n      dup1\n      dup4\n      sub\n      dup2\n      0x00\n      dup8\n      gas\n      call\n      iszero\n      dup1\n      iszero\n      tag_127\n      jumpi\n      returndatasize\n      0x00\n      dup1\n      returndatacopy\n      revert(0x00, returndatasize)\n    tag_127:\n      pop\n      pop\n      pop\n      pop\n      mload(0x40)\n      returndatasize\n      not(0x1f)\n      0x1f\n      dup3\n      add\n      and\n      dup3\n      add\n      dup1\n      0x40\n      mstore\n      pop\n      dup2\n      add\n      swap1\n      tag_128\n      swap2\n      swap1\n      tag_82\n      jump\t// in\n    tag_128:\n        /* \"gmonad.sol\":2513:2639  bool success = IERC20(0x760AfE86e5de5fa0Ee542fc7B7B713e1c5425701).transferFrom(msg.sender, address(this), 1000000000000000000) */\n      swap1\n      pop\n        /* \"gmonad.sol\":2658:2665  success */\n      dup1\n        /* \"gmonad.sol\":2650:2684  require(success, \"Deposit failed\") */\n      tag_129\n      jumpi\n      mload(0x40)\n      0x08c379a000000000000000000000000000000000000000000000000000000000\n      dup2\n      mstore\n      0x04\n      add\n      tag_130\n      swap1\n      tag_91\n      jump\t// in\n    tag_130:\n      mload(0x40)\n      dup1\n      swap2\n      sub\n      swap1\n      revert\n    tag_129:\n        /* \"gmonad.sol\":2710:2720  msg.sender */\n      caller\n        /* \"gmonad.sol\":2700:2786  Deposited(msg.sender, 0x760AfE86e5de5fa0Ee542fc7B7B713e1c5425701, 1000000000000000000) */\n      0xffffffffffffffffffffffffffffffffffffffff\n      and\n      0x8752a472e571a816aea92eec8dae9baf628e840f4929fbcc2d155e6233ff68a7\n        /* \"gmonad.sol\":2722:2764  0x760AfE86e5de5fa0Ee542fc7B7B713e1c5425701 */\n      0x760afe86e5de5fa0ee542fc7b7b713e1c5425701\n        /* \"gmonad.sol\":2766:2785  1000000000000000000 */\n      0x0de0b6b3a7640000\n        /* \"gmonad.sol\":2700:2786  Deposited(msg.sender, 0x760AfE86e5de5fa0Ee542fc7B7B713e1c5425701, 1000000000000000000) */\n      mload(0x40)\n      tag_131\n      swap3\n      swap2\n      swap1\n      tag_132\n      jump\t// in\n    tag_131:\n      mload(0x40)\n      dup1\n      swap2\n      sub\n      swap1\n      log2\n        /* \"gmonad.sol\":2502:2794  {... */\n      pop\n        /* \"gmonad.sol\":2470:2794  function depositWmon() external {... */\n      jump\t// out\n        /* \"gmonad.sol\":1355:1505  function withdrawETH() external {... */\n    tag_55:\n        /* \"gmonad.sol\":1420:1425  owner */\n      0x01\n      0x00\n      swap1\n      sload\n      swap1\n      0x0100\n      exp\n      swap1\n      div\n      0xffffffffffffffffffffffffffffffffffffffff\n      and\n        /* \"gmonad.sol\":1406:1425  msg.sender == owner */\n      0xffffffffffffffffffffffffffffffffffffffff\n      and\n        /* \"gmonad.sol\":1406:1416  msg.sender */\n      caller\n        /* \"gmonad.sol\":1406:1425  msg.sender == owner */\n      0xffffffffffffffffffffffffffffffffffffffff\n      and\n      eq\n        /* \"gmonad.sol\":1398:1440  require(msg.sender == owner, \"Only owner\") */\n      tag_134\n      jumpi\n      mload(0x40)\n      0x08c379a000000000000000000000000000000000000000000000000000000000\n      dup2\n      mstore\n      0x04\n      add\n      tag_135\n      swap1\n      tag_68\n      jump\t// in\n    tag_135:\n      mload(0x40)\n      dup1\n      swap2\n      sub\n      swap1\n      revert\n    tag_134:\n        /* \"gmonad.sol\":1459:1464  owner */\n      0x01\n      0x00\n      swap1\n      sload\n      swap1\n      0x0100\n      exp\n      swap1\n      div\n      0xffffffffffffffffffffffffffffffffffffffff\n      and\n        /* \"gmonad.sol\":1451:1474  payable(owner).transfer */\n      0xffffffffffffffffffffffffffffffffffffffff\n      and\n        /* \"gmonad.sol\":1451:1497  payable(owner).transfer(address(this).balance) */\n      0x08fc\n        /* \"gmonad.sol\":1475:1496  address(this).balance */\n      selfbalance\n        /* \"gmonad.sol\":1451:1497  payable(owner).transfer(address(this).balance) */\n      swap1\n      dup2\n      iszero\n      mul\n      swap1\n      mload(0x40)\n      0x00\n      mload(0x40)\n      dup1\n      dup4\n      sub\n      dup2\n      dup6\n      dup9\n      dup9\n      call\n      swap4\n      pop\n      pop\n      pop\n      pop\n      iszero\n      dup1\n      iszero\n      tag_137\n      jumpi\n      returndatasize\n      0x00\n      dup1\n      returndatacopy\n      revert(0x00, returndatasize)\n    tag_137:\n      pop\n        /* \"gmonad.sol\":1355:1505  function withdrawETH() external {... */\n      jump\t// out\n        /* \"gmonad.sol\":562:584  string public greeting */\n    tag_58:\n      0x00\n      dup1\n      sload\n      tag_138\n      swap1\n      tag_139\n      jump\t// in\n    tag_138:\n      dup1\n      0x1f\n      add\n      0x20\n      dup1\n      swap2\n      div\n      mul\n      0x20\n      add\n      mload(0x40)\n      swap1\n      dup2\n      add\n      0x40\n      mstore\n      dup1\n      swap3\n      swap2\n      swap1\n      dup2\n      dup2\n      mstore\n      0x20\n      add\n      dup3\n      dup1\n      sload\n      tag_140\n      swap1\n      tag_139\n      jump\t// in\n    tag_140:\n      dup1\n      iszero\n      tag_141\n      jumpi\n      dup1\n      0x1f\n      lt\n      tag_142\n      jumpi\n      0x0100\n      dup1\n      dup4\n      sload\n      div\n      mul\n      dup4\n      mstore\n      swap2\n      0x20\n      add\n      swap2\n      jump(tag_141)\n    tag_142:\n      dup3\n      add\n      swap2\n      swap1\n      0x00\n      mstore\n      keccak256(0x00, 0x20)\n      swap1\n    tag_143:\n      dup2\n      sload\n      dup2\n      mstore\n      swap1\n      0x01\n      add\n      swap1\n      0x20\n      add\n      dup1\n      dup4\n      gt\n      tag_143\n      jumpi\n      dup3\n      swap1\n      sub\n      0x1f\n      and\n      dup3\n      add\n      swap2\n    tag_141:\n      pop\n      pop\n      pop\n      pop\n      pop\n      dup2\n      jump\t// out\n        /* \"gmonad.sol\":3118:4010  function swap(address tokenA, address tokenB, uint amountA, uint rate) external payable {... */\n    tag_64:\n        /* \"gmonad.sol\":3238:3245  callFee */\n      sload(0x02)\n        /* \"gmonad.sol\":3225:3234  msg.value */\n      callvalue\n        /* \"gmonad.sol\":3225:3245  msg.value >= callFee */\n      lt\n      iszero\n        /* \"gmonad.sol\":3217:3271  require(msg.value >= callFee, \"Insufficient fee sent\") */\n      tag_145\n      jumpi\n      mload(0x40)\n      0x08c379a000000000000000000000000000000000000000000000000000000000\n      dup2\n      mstore\n      0x04\n      add\n      tag_146\n      swap1\n      tag_120\n      jump\t// in\n    tag_146:\n      mload(0x40)\n      dup1\n      swap2\n      sub\n      swap1\n      revert\n    tag_145:\n        /* \"gmonad.sol\":3300:3301  0 */\n      0x00\n        /* \"gmonad.sol\":3290:3297  amountA */\n      dup3\n        /* \"gmonad.sol\":3290:3301  amountA > 0 */\n      gt\n        /* \"gmonad.sol\":3282:3324  require(amountA > 0, \"Amount must be > 0\") */\n      tag_147\n      jumpi\n      mload(0x40)\n      0x08c379a000000000000000000000000000000000000000000000000000000000\n      dup2\n      mstore\n      0x04\n      add\n      tag_148\n      swap1\n      tag_149\n      jump\t// in\n    tag_148:\n      mload(0x40)\n      dup1\n      swap2\n      sub\n      swap1\n      revert\n    tag_147:\n        /* \"gmonad.sol\":3413:3426  bool successA */\n      0x00\n        /* \"gmonad.sol\":3436:3442  tokenA */\n      dup5\n        /* \"gmonad.sol\":3429:3456  IERC20(tokenA).transferFrom */\n      0xffffffffffffffffffffffffffffffffffffffff\n      and\n      0x23b872dd\n        /* \"gmonad.sol\":3457:3467  msg.sender */\n      caller\n        /* \"gmonad.sol\":3477:3481  this */\n      address\n        /* \"gmonad.sol\":3484:3491  amountA */\n      dup7\n        /* \"gmonad.sol\":3429:3492  IERC20(tokenA).transferFrom(msg.sender, address(this), amountA) */\n      mload(0x40)\n      dup5\n      0xffffffff\n      and\n      0xe0\n      shl\n      dup2\n      mstore\n      0x04\n      add\n      tag_150\n      swap4\n      swap3\n      swap2\n      swap1\n      tag_85\n      jump\t// in\n    tag_150:\n      0x20\n      mload(0x40)\n      dup1\n      dup4\n      sub\n      dup2\n      0x00\n      dup8\n      gas\n      call\n      iszero\n      dup1\n      iszero\n      tag_152\n      jumpi\n      returndatasize\n      0x00\n      dup1\n      returndatacopy\n      revert(0x00, returndatasize)\n    tag_152:\n      pop\n      pop\n      pop\n      pop\n      mload(0x40)\n      returndatasize\n      not(0x1f)\n      0x1f\n      dup3\n      add\n      and\n      dup3\n      add\n      dup1\n      0x40\n      mstore\n      pop\n      dup2\n      add\n      swap1\n      tag_153\n      swap2\n      swap1\n      tag_82\n      jump\t// in\n    tag_153:\n        /* \"gmonad.sol\":3413:3492  bool successA = IERC20(tokenA).transferFrom(msg.sender, address(this), amountA) */\n      swap1\n      pop\n        /* \"gmonad.sol\":3511:3519  successA */\n      dup1\n        /* \"gmonad.sol\":3503:3546  require(successA, \"TokenA transfer failed\") */\n      tag_154\n      jumpi\n      mload(0x40)\n      0x08c379a000000000000000000000000000000000000000000000000000000000\n      dup2\n      mstore\n      0x04\n      add\n      tag_155\n      swap1\n      tag_156\n      jump\t// in\n    tag_155:\n      mload(0x40)\n      dup1\n      swap2\n      sub\n      swap1\n      revert\n    tag_154:\n        /* \"gmonad.sol\":3605:3617  uint amountB */\n      0x00\n        /* \"gmonad.sol\":3639:3643  1e18 */\n      0x0de0b6b3a7640000\n        /* \"gmonad.sol\":3631:3635  rate */\n      dup4\n        /* \"gmonad.sol\":3621:3628  amountA */\n      dup6\n        /* \"gmonad.sol\":3621:3635  amountA * rate */\n      tag_157\n      swap2\n      swap1\n      tag_158\n      jump\t// in\n    tag_157:\n        /* \"gmonad.sol\":3620:3643  (amountA * rate) / 1e18 */\n      tag_159\n      swap2\n      swap1\n      tag_160\n      jump\t// in\n    tag_159:\n        /* \"gmonad.sol\":3605:3643  uint amountB = (amountA * rate) / 1e18 */\n      swap1\n      pop\n        /* \"gmonad.sol\":3735:3742  amountB */\n      dup1\n        /* \"gmonad.sol\":3699:3705  tokenB */\n      dup6\n        /* \"gmonad.sol\":3692:3716  IERC20(tokenB).balanceOf */\n      0xffffffffffffffffffffffffffffffffffffffff\n      and\n      0x70a08231\n        /* \"gmonad.sol\":3725:3729  this */\n      address\n        /* \"gmonad.sol\":3692:3731  IERC20(tokenB).balanceOf(address(this)) */\n      mload(0x40)\n      dup3\n      0xffffffff\n      and\n      0xe0\n      shl\n      dup2\n      mstore\n      0x04\n      add\n      tag_161\n      swap2\n      swap1\n      tag_36\n      jump\t// in\n    tag_161:\n      0x20\n      mload(0x40)\n      dup1\n      dup4\n      sub\n      dup2\n      dup7\n      gas\n      staticcall\n      iszero\n      dup1\n      iszero\n      tag_163\n      jumpi\n      returndatasize\n      0x00\n      dup1\n      returndatacopy\n      revert(0x00, returndatasize)\n    tag_163:\n      pop\n      pop\n      pop\n      pop\n      mload(0x40)\n      returndatasize\n      not(0x1f)\n      0x1f\n      dup3\n      add\n      and\n      dup3\n      add\n      dup1\n      0x40\n      mstore\n      pop\n      dup2\n      add\n      swap1\n      tag_164\n      swap2\n      swap1\n      tag_73\n      jump\t// in\n    tag_164:\n        /* \"gmonad.sol\":3692:3742  IERC20(tokenB).balanceOf(address(this)) >= amountB */\n      lt\n      iszero\n        /* \"gmonad.sol\":3684:3772  require(IERC20(tokenB).balanceOf(address(this)) >= amountB, \"Not enough tokenB in pool\") */\n      tag_165\n      jumpi\n      mload(0x40)\n      0x08c379a000000000000000000000000000000000000000000000000000000000\n      dup2\n      mstore\n      0x04\n      add\n      tag_166\n      swap1\n      tag_167\n      jump\t// in\n    tag_166:\n      mload(0x40)\n      dup1\n      swap2\n      sub\n      swap1\n      revert\n    tag_165:\n        /* \"gmonad.sol\":3817:3830  bool successB */\n      0x00\n        /* \"gmonad.sol\":3840:3846  tokenB */\n      dup6\n        /* \"gmonad.sol\":3833:3856  IERC20(tokenB).transfer */\n      0xffffffffffffffffffffffffffffffffffffffff\n      and\n      0xa9059cbb\n        /* \"gmonad.sol\":3857:3867  msg.sender */\n      caller\n        /* \"gmonad.sol\":3869:3876  amountB */\n      dup5\n        /* \"gmonad.sol\":3833:3877  IERC20(tokenB).transfer(msg.sender, amountB) */\n      mload(0x40)\n      dup4\n      0xffffffff\n      and\n      0xe0\n      shl\n      dup2\n      mstore\n      0x04\n      add\n      tag_168\n      swap3\n      swap2\n      swap1\n      tag_78\n      jump\t// in\n    tag_168:\n      0x20\n      mload(0x40)\n      dup1\n      dup4\n      sub\n      dup2\n      0x00\n      dup8\n      gas\n      call\n      iszero\n      dup1\n      iszero\n      tag_170\n      jumpi\n      returndatasize\n      0x00\n      dup1\n      returndatacopy\n      revert(0x00, returndatasize)\n    tag_170:\n      pop\n      pop\n      pop\n      pop\n      mload(0x40)\n      returndatasize\n      not(0x1f)\n      0x1f\n      dup3\n      add\n      and\n      dup3\n      add\n      dup1\n      0x40\n      mstore\n      pop\n      dup2\n      add\n      swap1\n      tag_171\n      swap2\n      swap1\n      tag_82\n      jump\t// in\n    tag_171:\n        /* \"gmonad.sol\":3817:3877  bool successB = IERC20(tokenB).transfer(msg.sender, amountB) */\n      swap1\n      pop\n        /* \"gmonad.sol\":3896:3904  successB */\n      dup1\n        /* \"gmonad.sol\":3888:3931  require(successB, \"TokenB transfer failed\") */\n      tag_172\n      jumpi\n      mload(0x40)\n      0x08c379a000000000000000000000000000000000000000000000000000000000\n      dup2\n      mstore\n      0x04\n      add\n      tag_173\n      swap1\n      tag_174\n      jump\t// in\n    tag_173:\n      mload(0x40)\n      dup1\n      swap2\n      sub\n      swap1\n      revert\n    tag_172:\n        /* \"gmonad.sol\":3957:3967  msg.sender */\n      caller\n        /* \"gmonad.sol\":3949:4002  Swapped(msg.sender, tokenA, tokenB, amountA, amountB) */\n      0xffffffffffffffffffffffffffffffffffffffff\n      and\n      0x6782190c91d4a7e8ad2a867deed6ec0a970cab8ff137ae2bd4abd92b3810f4d3\n        /* \"gmonad.sol\":3969:3975  tokenA */\n      dup9\n        /* \"gmonad.sol\":3977:3983  tokenB */\n      dup9\n        /* \"gmonad.sol\":3985:3992  amountA */\n      dup9\n        /* \"gmonad.sol\":3994:4001  amountB */\n      dup7\n        /* \"gmonad.sol\":3949:4002  Swapped(msg.sender, tokenA, tokenB, amountA, amountB) */\n      mload(0x40)\n      tag_175\n      swap5\n      swap4\n      swap3\n      swap2\n      swap1\n      tag_176\n      jump\t// in\n    tag_175:\n      mload(0x40)\n      dup1\n      swap2\n      sub\n      swap1\n      log2\n        /* \"gmonad.sol\":3206:4010  {... */\n      pop\n      pop\n      pop\n        /* \"gmonad.sol\":3118:4010  function swap(address tokenA, address tokenB, uint amountA, uint rate) external payable {... */\n      pop\n      pop\n      pop\n      pop\n      jump\t// out\n        /* \"#utility.yul\":88:205   */\n    tag_178:\n        /* \"#utility.yul\":197:198   */\n      0x00\n        /* \"#utility.yul\":194:195   */\n      dup1\n        /* \"#utility.yul\":187:199   */\n      revert\n        /* \"#utility.yul\":211:328   */\n    tag_179:\n        /* \"#utility.yul\":320:321   */\n      0x00\n        /* \"#utility.yul\":317:318   */\n      dup1\n        /* \"#utility.yul\":310:322   */\n      revert\n        /* \"#utility.yul\":334:460   */\n    tag_180:\n        /* \"#utility.yul\":371:378   */\n      0x00\n        /* \"#utility.yul\":411:453   */\n      0xffffffffffffffffffffffffffffffffffffffff\n        /* \"#utility.yul\":404:409   */\n      dup3\n        /* \"#utility.yul\":400:454   */\n      and\n        /* \"#utility.yul\":389:454   */\n      swap1\n      pop\n        /* \"#utility.yul\":334:460   */\n      swap2\n      swap1\n      pop\n      jump\t// out\n        /* \"#utility.yul\":466:562   */\n    tag_181:\n        /* \"#utility.yul\":503:510   */\n      0x00\n        /* \"#utility.yul\":532:556   */\n      tag_247\n        /* \"#utility.yul\":550:555   */\n      dup3\n        /* \"#utility.yul\":532:556   */\n      tag_180\n      jump\t// in\n    tag_247:\n        /* \"#utility.yul\":521:556   */\n      swap1\n      pop\n        /* \"#utility.yul\":466:562   */\n      swap2\n      swap1\n      pop\n      jump\t// out\n        /* \"#utility.yul\":568:690   */\n    tag_182:\n        /* \"#utility.yul\":641:665   */\n      tag_249\n        /* \"#utility.yul\":659:664   */\n      dup2\n        /* \"#utility.yul\":641:665   */\n      tag_181\n      jump\t// in\n    tag_249:\n        /* \"#utility.yul\":634:639   */\n      dup2\n        /* \"#utility.yul\":631:666   */\n      eq\n        /* \"#utility.yul\":621:684   */\n      tag_250\n      jumpi\n        /* \"#utility.yul\":680:681   */\n      0x00\n        /* \"#utility.yul\":677:678   */\n      dup1\n        /* \"#utility.yul\":670:682   */\n      revert\n        /* \"#utility.yul\":621:684   */\n    tag_250:\n        /* \"#utility.yul\":568:690   */\n      pop\n      jump\t// out\n        /* \"#utility.yul\":696:835   */\n    tag_183:\n        /* \"#utility.yul\":742:747   */\n      0x00\n        /* \"#utility.yul\":780:786   */\n      dup2\n        /* \"#utility.yul\":767:787   */\n      calldataload\n        /* \"#utility.yul\":758:787   */\n      swap1\n      pop\n        /* \"#utility.yul\":796:829   */\n      tag_252\n        /* \"#utility.yul\":823:828   */\n      dup2\n        /* \"#utility.yul\":796:829   */\n      tag_182\n      jump\t// in\n    tag_252:\n        /* \"#utility.yul\":696:835   */\n      swap3\n      swap2\n      pop\n      pop\n      jump\t// out\n        /* \"#utility.yul\":841:918   */\n    tag_184:\n        /* \"#utility.yul\":878:885   */\n      0x00\n        /* \"#utility.yul\":907:912   */\n      dup2\n        /* \"#utility.yul\":896:912   */\n      swap1\n      pop\n        /* \"#utility.yul\":841:918   */\n      swap2\n      swap1\n      pop\n      jump\t// out\n        /* \"#utility.yul\":924:1046   */\n    tag_185:\n        /* \"#utility.yul\":997:1021   */\n      tag_255\n        /* \"#utility.yul\":1015:1020   */\n      dup2\n        /* \"#utility.yul\":997:1021   */\n      tag_184\n      jump\t// in\n    tag_255:\n        /* \"#utility.yul\":990:995   */\n      dup2\n        /* \"#utility.yul\":987:1022   */\n      eq\n        /* \"#utility.yul\":977:1040   */\n      tag_256\n      jumpi\n        /* \"#utility.yul\":1036:1037   */\n      0x00\n        /* \"#utility.yul\":1033:1034   */\n      dup1\n        /* \"#utility.yul\":1026:1038   */\n      revert\n        /* \"#utility.yul\":977:1040   */\n    tag_256:\n        /* \"#utility.yul\":924:1046   */\n      pop\n      jump\t// out\n        /* \"#utility.yul\":1052:1191   */\n    tag_186:\n        /* \"#utility.yul\":1098:1103   */\n      0x00\n        /* \"#utility.yul\":1136:1142   */\n      dup2\n        /* \"#utility.yul\":1123:1143   */\n      calldataload\n        /* \"#utility.yul\":1114:1143   */\n      swap1\n      pop\n        /* \"#utility.yul\":1152:1185   */\n      tag_258\n        /* \"#utility.yul\":1179:1184   */\n      dup2\n        /* \"#utility.yul\":1152:1185   */\n      tag_185\n      jump\t// in\n    tag_258:\n        /* \"#utility.yul\":1052:1191   */\n      swap3\n      swap2\n      pop\n      pop\n      jump\t// out\n        /* \"#utility.yul\":1197:1671   */\n    tag_25:\n        /* \"#utility.yul\":1265:1271   */\n      0x00\n        /* \"#utility.yul\":1273:1279   */\n      dup1\n        /* \"#utility.yul\":1322:1324   */\n      0x40\n        /* \"#utility.yul\":1310:1319   */\n      dup4\n        /* \"#utility.yul\":1301:1308   */\n      dup6\n        /* \"#utility.yul\":1297:1320   */\n      sub\n        /* \"#utility.yul\":1293:1325   */\n      slt\n        /* \"#utility.yul\":1290:1409   */\n      iszero\n      tag_260\n      jumpi\n        /* \"#utility.yul\":1328:1407   */\n      tag_261\n      tag_178\n      jump\t// in\n    tag_261:\n        /* \"#utility.yul\":1290:1409   */\n    tag_260:\n        /* \"#utility.yul\":1448:1449   */\n      0x00\n        /* \"#utility.yul\":1473:1526   */\n      tag_262\n        /* \"#utility.yul\":1518:1525   */\n      dup6\n        /* \"#utility.yul\":1509:1515   */\n      dup3\n        /* \"#utility.yul\":1498:1507   */\n      dup7\n        /* \"#utility.yul\":1494:1516   */\n      add\n        /* \"#utility.yul\":1473:1526   */\n      tag_183\n      jump\t// in\n    tag_262:\n        /* \"#utility.yul\":1463:1526   */\n      swap3\n      pop\n        /* \"#utility.yul\":1419:1536   */\n      pop\n        /* \"#utility.yul\":1575:1577   */\n      0x20\n        /* \"#utility.yul\":1601:1654   */\n      tag_263\n        /* \"#utility.yul\":1646:1653   */\n      dup6\n        /* \"#utility.yul\":1637:1643   */\n      dup3\n        /* \"#utility.yul\":1626:1635   */\n      dup7\n        /* \"#utility.yul\":1622:1644   */\n      add\n        /* \"#utility.yul\":1601:1654   */\n      tag_186\n      jump\t// in\n    tag_263:\n        /* \"#utility.yul\":1591:1654   */\n      swap2\n      pop\n        /* \"#utility.yul\":1546:1664   */\n      pop\n        /* \"#utility.yul\":1197:1671   */\n      swap3\n      pop\n      swap3\n      swap1\n      pop\n      jump\t// out\n        /* \"#utility.yul\":1677:2006   */\n    tag_30:\n        /* \"#utility.yul\":1736:1742   */\n      0x00\n        /* \"#utility.yul\":1785:1787   */\n      0x20\n        /* \"#utility.yul\":1773:1782   */\n      dup3\n        /* \"#utility.yul\":1764:1771   */\n      dup5\n        /* \"#utility.yul\":1760:1783   */\n      sub\n        /* \"#utility.yul\":1756:1788   */\n      slt\n        /* \"#utility.yul\":1753:1872   */\n      iszero\n      tag_265\n      jumpi\n        /* \"#utility.yul\":1791:1870   */\n      tag_266\n      tag_178\n      jump\t// in\n    tag_266:\n        /* \"#utility.yul\":1753:1872   */\n    tag_265:\n        /* \"#utility.yul\":1911:1912   */\n      0x00\n        /* \"#utility.yul\":1936:1989   */\n      tag_267\n        /* \"#utility.yul\":1981:1988   */\n      dup5\n        /* \"#utility.yul\":1972:1978   */\n      dup3\n        /* \"#utility.yul\":1961:1970   */\n      dup6\n        /* \"#utility.yul\":1957:1979   */\n      add\n        /* \"#utility.yul\":1936:1989   */\n      tag_183\n      jump\t// in\n    tag_267:\n        /* \"#utility.yul\":1926:1989   */\n      swap2\n      pop\n        /* \"#utility.yul\":1882:1999   */\n      pop\n        /* \"#utility.yul\":1677:2006   */\n      swap3\n      swap2\n      pop\n      pop\n      jump\t// out\n        /* \"#utility.yul\":2012:2130   */\n    tag_187:\n        /* \"#utility.yul\":2099:2123   */\n      tag_269\n        /* \"#utility.yul\":2117:2122   */\n      dup2\n        /* \"#utility.yul\":2099:2123   */\n      tag_181\n      jump\t// in\n    tag_269:\n        /* \"#utility.yul\":2094:2097   */\n      dup3\n        /* \"#utility.yul\":2087:2124   */\n      mstore\n        /* \"#utility.yul\":2012:2130   */\n      pop\n      pop\n      jump\t// out\n        /* \"#utility.yul\":2136:2358   */\n    tag_36:\n        /* \"#utility.yul\":2229:2233   */\n      0x00\n        /* \"#utility.yul\":2267:2269   */\n      0x20\n        /* \"#utility.yul\":2256:2265   */\n      dup3\n        /* \"#utility.yul\":2252:2270   */\n      add\n        /* \"#utility.yul\":2244:2270   */\n      swap1\n      pop\n        /* \"#utility.yul\":2280:2351   */\n      tag_271\n        /* \"#utility.yul\":2348:2349   */\n      0x00\n        /* \"#utility.yul\":2337:2346   */\n      dup4\n        /* \"#utility.yul\":2333:2350   */\n      add\n        /* \"#utility.yul\":2324:2330   */\n      dup5\n        /* \"#utility.yul\":2280:2351   */\n      tag_187\n      jump\t// in\n    tag_271:\n        /* \"#utility.yul\":2136:2358   */\n      swap3\n      swap2\n      pop\n      pop\n      jump\t// out\n        /* \"#utility.yul\":2364:2482   */\n    tag_188:\n        /* \"#utility.yul\":2451:2475   */\n      tag_273\n        /* \"#utility.yul\":2469:2474   */\n      dup2\n        /* \"#utility.yul\":2451:2475   */\n      tag_184\n      jump\t// in\n    tag_273:\n        /* \"#utility.yul\":2446:2449   */\n      dup3\n        /* \"#utility.yul\":2439:2476   */\n      mstore\n        /* \"#utility.yul\":2364:2482   */\n      pop\n      pop\n      jump\t// out\n        /* \"#utility.yul\":2488:2710   */\n    tag_41:\n        /* \"#utility.yul\":2581:2585   */\n      0x00\n        /* \"#utility.yul\":2619:2621   */\n      0x20\n        /* \"#utility.yul\":2608:2617   */\n      dup3\n        /* \"#utility.yul\":2604:2622   */\n      add\n        /* \"#utility.yul\":2596:2622   */\n      swap1\n      pop\n        /* \"#utility.yul\":2632:2703   */\n      tag_275\n        /* \"#utility.yul\":2700:2701   */\n      0x00\n        /* \"#utility.yul\":2689:2698   */\n      dup4\n        /* \"#utility.yul\":2685:2702   */\n      add\n        /* \"#utility.yul\":2676:2682   */\n      dup5\n        /* \"#utility.yul\":2632:2703   */\n      tag_188\n      jump\t// in\n    tag_275:\n        /* \"#utility.yul\":2488:2710   */\n      swap3\n      swap2\n      pop\n      pop\n      jump\t// out\n        /* \"#utility.yul\":2716:2833   */\n    tag_189:\n        /* \"#utility.yul\":2825:2826   */\n      0x00\n        /* \"#utility.yul\":2822:2823   */\n      dup1\n        /* \"#utility.yul\":2815:2827   */\n      revert\n        /* \"#utility.yul\":2839:2956   */\n    tag_190:\n        /* \"#utility.yul\":2948:2949   */\n      0x00\n        /* \"#utility.yul\":2945:2946   */\n      dup1\n        /* \"#utility.yul\":2938:2950   */\n      revert\n        /* \"#utility.yul\":2962:3079   */\n    tag_191:\n        /* \"#utility.yul\":3071:3072   */\n      0x00\n        /* \"#utility.yul\":3068:3069   */\n      dup1\n        /* \"#utility.yul\":3061:3073   */\n      revert\n        /* \"#utility.yul\":3099:3652   */\n    tag_192:\n        /* \"#utility.yul\":3157:3165   */\n      0x00\n        /* \"#utility.yul\":3167:3173   */\n      dup1\n        /* \"#utility.yul\":3217:3220   */\n      dup4\n        /* \"#utility.yul\":3210:3214   */\n      0x1f\n        /* \"#utility.yul\":3202:3208   */\n      dup5\n        /* \"#utility.yul\":3198:3215   */\n      add\n        /* \"#utility.yul\":3194:3221   */\n      slt\n        /* \"#utility.yul\":3184:3306   */\n      tag_280\n      jumpi\n        /* \"#utility.yul\":3225:3304   */\n      tag_281\n      tag_189\n      jump\t// in\n    tag_281:\n        /* \"#utility.yul\":3184:3306   */\n    tag_280:\n        /* \"#utility.yul\":3338:3344   */\n      dup3\n        /* \"#utility.yul\":3325:3345   */\n      calldataload\n        /* \"#utility.yul\":3315:3345   */\n      swap1\n      pop\n        /* \"#utility.yul\":3368:3386   */\n      0xffffffffffffffff\n        /* \"#utility.yul\":3360:3366   */\n      dup2\n        /* \"#utility.yul\":3357:3387   */\n      gt\n        /* \"#utility.yul\":3354:3471   */\n      iszero\n      tag_282\n      jumpi\n        /* \"#utility.yul\":3390:3469   */\n      tag_283\n      tag_190\n      jump\t// in\n    tag_283:\n        /* \"#utility.yul\":3354:3471   */\n    tag_282:\n        /* \"#utility.yul\":3504:3508   */\n      0x20\n        /* \"#utility.yul\":3496:3502   */\n      dup4\n        /* \"#utility.yul\":3492:3509   */\n      add\n        /* \"#utility.yul\":3480:3509   */\n      swap2\n      pop\n        /* \"#utility.yul\":3558:3561   */\n      dup4\n        /* \"#utility.yul\":3550:3554   */\n      0x01\n        /* \"#utility.yul\":3542:3548   */\n      dup3\n        /* \"#utility.yul\":3538:3555   */\n      mul\n        /* \"#utility.yul\":3528:3536   */\n      dup4\n        /* \"#utility.yul\":3524:3556   */\n      add\n        /* \"#utility.yul\":3521:3562   */\n      gt\n        /* \"#utility.yul\":3518:3646   */\n      iszero\n      tag_284\n      jumpi\n        /* \"#utility.yul\":3565:3644   */\n      tag_285\n      tag_191\n      jump\t// in\n    tag_285:\n        /* \"#utility.yul\":3518:3646   */\n    tag_284:\n        /* \"#utility.yul\":3099:3652   */\n      swap3\n      pop\n      swap3\n      swap1\n      pop\n      jump\t// out\n        /* \"#utility.yul\":3658:4187   */\n    tag_48:\n        /* \"#utility.yul\":3729:3735   */\n      0x00\n        /* \"#utility.yul\":3737:3743   */\n      dup1\n        /* \"#utility.yul\":3786:3788   */\n      0x20\n        /* \"#utility.yul\":3774:3783   */\n      dup4\n        /* \"#utility.yul\":3765:3772   */\n      dup6\n        /* \"#utility.yul\":3761:3784   */\n      sub\n        /* \"#utility.yul\":3757:3789   */\n      slt\n        /* \"#utility.yul\":3754:3873   */\n      iszero\n      tag_287\n      jumpi\n        /* \"#utility.yul\":3792:3871   */\n      tag_288\n      tag_178\n      jump\t// in\n    tag_288:\n        /* \"#utility.yul\":3754:3873   */\n    tag_287:\n        /* \"#utility.yul\":3940:3941   */\n      0x00\n        /* \"#utility.yul\":3929:3938   */\n      dup4\n        /* \"#utility.yul\":3925:3942   */\n      add\n        /* \"#utility.yul\":3912:3943   */\n      calldataload\n        /* \"#utility.yul\":3970:3988   */\n      0xffffffffffffffff\n        /* \"#utility.yul\":3962:3968   */\n      dup2\n        /* \"#utility.yul\":3959:3989   */\n      gt\n        /* \"#utility.yul\":3956:4073   */\n      iszero\n      tag_289\n      jumpi\n        /* \"#utility.yul\":3992:4071   */\n      tag_290\n      tag_179\n      jump\t// in\n    tag_290:\n        /* \"#utility.yul\":3956:4073   */\n    tag_289:\n        /* \"#utility.yul\":4105:4170   */\n      tag_291\n        /* \"#utility.yul\":4162:4169   */\n      dup6\n        /* \"#utility.yul\":4153:4159   */\n      dup3\n        /* \"#utility.yul\":4142:4151   */\n      dup7\n        /* \"#utility.yul\":4138:4160   */\n      add\n        /* \"#utility.yul\":4105:4170   */\n      tag_192\n      jump\t// in\n    tag_291:\n        /* \"#utility.yul\":4087:4170   */\n      swap3\n      pop\n      swap3\n      pop\n        /* \"#utility.yul\":3883:4180   */\n      pop\n        /* \"#utility.yul\":3658:4187   */\n      swap3\n      pop\n      swap3\n      swap1\n      pop\n      jump\t// out\n        /* \"#utility.yul\":4193:4292   */\n    tag_193:\n        /* \"#utility.yul\":4245:4251   */\n      0x00\n        /* \"#utility.yul\":4279:4284   */\n      dup2\n        /* \"#utility.yul\":4273:4285   */\n      mload\n        /* \"#utility.yul\":4263:4285   */\n      swap1\n      pop\n        /* \"#utility.yul\":4193:4292   */\n      swap2\n      swap1\n      pop\n      jump\t// out\n        /* \"#utility.yul\":4298:4467   */\n    tag_194:\n        /* \"#utility.yul\":4382:4393   */\n      0x00\n        /* \"#utility.yul\":4416:4422   */\n      dup3\n        /* \"#utility.yul\":4411:4414   */\n      dup3\n        /* \"#utility.yul\":4404:4423   */\n      mstore\n        /* \"#utility.yul\":4456:4460   */\n      0x20\n        /* \"#utility.yul\":4451:4454   */\n      dup3\n        /* \"#utility.yul\":4447:4461   */\n      add\n        /* \"#utility.yul\":4432:4461   */\n      swap1\n      pop\n        /* \"#utility.yul\":4298:4467   */\n      swap3\n      swap2\n      pop\n      pop\n      jump\t// out\n        /* \"#utility.yul\":4473:4719   */\n    tag_195:\n        /* \"#utility.yul\":4554:4555   */\n      0x00\n        /* \"#utility.yul\":4564:4677   */\n    tag_295:\n        /* \"#utility.yul\":4578:4584   */\n      dup4\n        /* \"#utility.yul\":4575:4576   */\n      dup2\n        /* \"#utility.yul\":4572:4585   */\n      lt\n        /* \"#utility.yul\":4564:4677   */\n      iszero\n      tag_297\n      jumpi\n        /* \"#utility.yul\":4663:4664   */\n      dup1\n        /* \"#utility.yul\":4658:4661   */\n      dup3\n        /* \"#utility.yul\":4654:4665   */\n      add\n        /* \"#utility.yul\":4648:4666   */\n      mload\n        /* \"#utility.yul\":4644:4645   */\n      dup2\n        /* \"#utility.yul\":4639:4642   */\n      dup5\n        /* \"#utility.yul\":4635:4646   */\n      add\n        /* \"#utility.yul\":4628:4667   */\n      mstore\n        /* \"#utility.yul\":4600:4602   */\n      0x20\n        /* \"#utility.yul\":4597:4598   */\n      dup2\n        /* \"#utility.yul\":4593:4603   */\n      add\n        /* \"#utility.yul\":4588:4603   */\n      swap1\n      pop\n        /* \"#utility.yul\":4564:4677   */\n      jump(tag_295)\n    tag_297:\n        /* \"#utility.yul\":4711:4712   */\n      0x00\n        /* \"#utility.yul\":4702:4708   */\n      dup5\n        /* \"#utility.yul\":4697:4700   */\n      dup5\n        /* \"#utility.yul\":4693:4709   */\n      add\n        /* \"#utility.yul\":4686:4713   */\n      mstore\n        /* \"#utility.yul\":4535:4719   */\n      pop\n        /* \"#utility.yul\":4473:4719   */\n      pop\n      pop\n      pop\n      jump\t// out\n        /* \"#utility.yul\":4725:4827   */\n    tag_196:\n        /* \"#utility.yul\":4766:4772   */\n      0x00\n        /* \"#utility.yul\":4817:4819   */\n      0x1f\n        /* \"#utility.yul\":4813:4820   */\n      not\n        /* \"#utility.yul\":4808:4810   */\n      0x1f\n        /* \"#utility.yul\":4801:4806   */\n      dup4\n        /* \"#utility.yul\":4797:4811   */\n      add\n        /* \"#utility.yul\":4793:4821   */\n      and\n        /* \"#utility.yul\":4783:4821   */\n      swap1\n      pop\n        /* \"#utility.yul\":4725:4827   */\n      swap2\n      swap1\n      pop\n      jump\t// out\n        /* \"#utility.yul\":4833:5210   */\n    tag_197:\n        /* \"#utility.yul\":4921:4924   */\n      0x00\n        /* \"#utility.yul\":4949:4988   */\n      tag_300\n        /* \"#utility.yul\":4982:4987   */\n      dup3\n        /* \"#utility.yul\":4949:4988   */\n      tag_193\n      jump\t// in\n    tag_300:\n        /* \"#utility.yul\":5004:5075   */\n      tag_301\n        /* \"#utility.yul\":5068:5074   */\n      dup2\n        /* \"#utility.yul\":5063:5066   */\n      dup6\n        /* \"#utility.yul\":5004:5075   */\n      tag_194\n      jump\t// in\n    tag_301:\n        /* \"#utility.yul\":4997:5075   */\n      swap4\n      pop\n        /* \"#utility.yul\":5084:5149   */\n      tag_302\n        /* \"#utility.yul\":5142:5148   */\n      dup2\n        /* \"#utility.yul\":5137:5140   */\n      dup6\n        /* \"#utility.yul\":5130:5134   */\n      0x20\n        /* \"#utility.yul\":5123:5128   */\n      dup7\n        /* \"#utility.yul\":5119:5135   */\n      add\n        /* \"#utility.yul\":5084:5149   */\n      tag_195\n      jump\t// in\n    tag_302:\n        /* \"#utility.yul\":5174:5203   */\n      tag_303\n        /* \"#utility.yul\":5196:5202   */\n      dup2\n        /* \"#utility.yul\":5174:5203   */\n      tag_196\n      jump\t// in\n    tag_303:\n        /* \"#utility.yul\":5169:5172   */\n      dup5\n        /* \"#utility.yul\":5165:5204   */\n      add\n        /* \"#utility.yul\":5158:5204   */\n      swap2\n      pop\n        /* \"#utility.yul\":4925:5210   */\n      pop\n        /* \"#utility.yul\":4833:5210   */\n      swap3\n      swap2\n      pop\n      pop\n      jump\t// out\n        /* \"#utility.yul\":5216:5529   */\n    tag_60:\n        /* \"#utility.yul\":5329:5333   */\n      0x00\n        /* \"#utility.yul\":5367:5369   */\n      0x20\n        /* \"#utility.yul\":5356:5365   */\n      dup3\n        /* \"#utility.yul\":5352:5370   */\n      add\n        /* \"#utility.yul\":5344:5370   */\n      swap1\n      pop\n        /* \"#utility.yul\":5416:5425   */\n      dup2\n        /* \"#utility.yul\":5410:5414   */\n      dup2\n        /* \"#utility.yul\":5406:5426   */\n      sub\n        /* \"#utility.yul\":5402:5403   */\n      0x00\n        /* \"#utility.yul\":5391:5400   */\n      dup4\n        /* \"#utility.yul\":5387:5404   */\n      add\n        /* \"#utility.yul\":5380:5427   */\n      mstore\n        /* \"#utility.yul\":5444:5522   */\n      tag_305\n        /* \"#utility.yul\":5517:5521   */\n      dup2\n        /* \"#utility.yul\":5508:5514   */\n      dup5\n        /* \"#utility.yul\":5444:5522   */\n      tag_197\n      jump\t// in\n    tag_305:\n        /* \"#utility.yul\":5436:5522   */\n      swap1\n      pop\n        /* \"#utility.yul\":5216:5529   */\n      swap3\n      swap2\n      pop\n      pop\n      jump\t// out\n        /* \"#utility.yul\":5535:6300   */\n    tag_63:\n        /* \"#utility.yul\":5621:5627   */\n      0x00\n        /* \"#utility.yul\":5629:5635   */\n      dup1\n        /* \"#utility.yul\":5637:5643   */\n      0x00\n        /* \"#utility.yul\":5645:5651   */\n      dup1\n        /* \"#utility.yul\":5694:5697   */\n      0x80\n        /* \"#utility.yul\":5682:5691   */\n      dup6\n        /* \"#utility.yul\":5673:5680   */\n      dup8\n        /* \"#utility.yul\":5669:5692   */\n      sub\n        /* \"#utility.yul\":5665:5698   */\n      slt\n        /* \"#utility.yul\":5662:5782   */\n      iszero\n      tag_307\n      jumpi\n        /* \"#utility.yul\":5701:5780   */\n      tag_308\n      tag_178\n      jump\t// in\n    tag_308:\n        /* \"#utility.yul\":5662:5782   */\n    tag_307:\n        /* \"#utility.yul\":5821:5822   */\n      0x00\n        /* \"#utility.yul\":5846:5899   */\n      tag_309\n        /* \"#utility.yul\":5891:5898   */\n      dup8\n        /* \"#utility.yul\":5882:5888   */\n      dup3\n        /* \"#utility.yul\":5871:5880   */\n      dup9\n        /* \"#utility.yul\":5867:5889   */\n      add\n        /* \"#utility.yul\":5846:5899   */\n      tag_183\n      jump\t// in\n    tag_309:\n        /* \"#utility.yul\":5836:5899   */\n      swap5\n      pop\n        /* \"#utility.yul\":5792:5909   */\n      pop\n        /* \"#utility.yul\":5948:5950   */\n      0x20\n        /* \"#utility.yul\":5974:6027   */\n      tag_310\n        /* \"#utility.yul\":6019:6026   */\n      dup8\n        /* \"#utility.yul\":6010:6016   */\n      dup3\n        /* \"#utility.yul\":5999:6008   */\n      dup9\n        /* \"#utility.yul\":5995:6017   */\n      add\n        /* \"#utility.yul\":5974:6027   */\n      tag_183\n      jump\t// in\n    tag_310:\n        /* \"#utility.yul\":5964:6027   */\n      swap4\n      pop\n        /* \"#utility.yul\":5919:6037   */\n      pop\n        /* \"#utility.yul\":6076:6078   */\n      0x40\n        /* \"#utility.yul\":6102:6155   */\n      tag_311\n        /* \"#utility.yul\":6147:6154   */\n      dup8\n        /* \"#utility.yul\":6138:6144   */\n      dup3\n        /* \"#utility.yul\":6127:6136   */\n      dup9\n        /* \"#utility.yul\":6123:6145   */\n      add\n        /* \"#utility.yul\":6102:6155   */\n      tag_186\n      jump\t// in\n    tag_311:\n        /* \"#utility.yul\":6092:6155   */\n      swap3\n      pop\n        /* \"#utility.yul\":6047:6165   */\n      pop\n        /* \"#utility.yul\":6204:6206   */\n      0x60\n        /* \"#utility.yul\":6230:6283   */\n      tag_312\n        /* \"#utility.yul\":6275:6282   */\n      dup8\n        /* \"#utility.yul\":6266:6272   */\n      dup3\n        /* \"#utility.yul\":6255:6264   */\n      dup9\n        /* \"#utility.yul\":6251:6273   */\n      add\n        /* \"#utility.yul\":6230:6283   */\n      tag_186\n      jump\t// in\n    tag_312:\n        /* \"#utility.yul\":6220:6283   */\n      swap2\n      pop\n        /* \"#utility.yul\":6175:6293   */\n      pop\n        /* \"#utility.yul\":5535:6300   */\n      swap3\n      swap6\n      swap2\n      swap5\n      pop\n      swap3\n      pop\n      jump\t// out\n        /* \"#utility.yul\":6306:6466   */\n    tag_198:\n        /* \"#utility.yul\":6446:6458   */\n      0x4f6e6c79206f776e657200000000000000000000000000000000000000000000\n        /* \"#utility.yul\":6442:6443   */\n      0x00\n        /* \"#utility.yul\":6434:6440   */\n      dup3\n        /* \"#utility.yul\":6430:6444   */\n      add\n        /* \"#utility.yul\":6423:6459   */\n      mstore\n        /* \"#utility.yul\":6306:6466   */\n      pop\n      jump\t// out\n        /* \"#utility.yul\":6472:6838   */\n    tag_199:\n        /* \"#utility.yul\":6614:6617   */\n      0x00\n        /* \"#utility.yul\":6635:6702   */\n      tag_315\n        /* \"#utility.yul\":6699:6701   */\n      0x0a\n        /* \"#utility.yul\":6694:6697   */\n      dup4\n        /* \"#utility.yul\":6635:6702   */\n      tag_194\n      jump\t// in\n    tag_315:\n        /* \"#utility.yul\":6628:6702   */\n      swap2\n      pop\n        /* \"#utility.yul\":6711:6804   */\n      tag_316\n        /* \"#utility.yul\":6800:6803   */\n      dup3\n        /* \"#utility.yul\":6711:6804   */\n      tag_198\n      jump\t// in\n    tag_316:\n        /* \"#utility.yul\":6829:6831   */\n      0x20\n        /* \"#utility.yul\":6824:6827   */\n      dup3\n        /* \"#utility.yul\":6820:6832   */\n      add\n        /* \"#utility.yul\":6813:6832   */\n      swap1\n      pop\n        /* \"#utility.yul\":6472:6838   */\n      swap2\n      swap1\n      pop\n      jump\t// out\n        /* \"#utility.yul\":6844:7263   */\n    tag_68:\n        /* \"#utility.yul\":7010:7014   */\n      0x00\n        /* \"#utility.yul\":7048:7050   */\n      0x20\n        /* \"#utility.yul\":7037:7046   */\n      dup3\n        /* \"#utility.yul\":7033:7051   */\n      add\n        /* \"#utility.yul\":7025:7051   */\n      swap1\n      pop\n        /* \"#utility.yul\":7097:7106   */\n      dup2\n        /* \"#utility.yul\":7091:7095   */\n      dup2\n        /* \"#utility.yul\":7087:7107   */\n      sub\n        /* \"#utility.yul\":7083:7084   */\n      0x00\n        /* \"#utility.yul\":7072:7081   */\n      dup4\n        /* \"#utility.yul\":7068:7085   */\n      add\n        /* \"#utility.yul\":7061:7108   */\n      mstore\n        /* \"#utility.yul\":7125:7256   */\n      tag_318\n        /* \"#utility.yul\":7251:7255   */\n      dup2\n        /* \"#utility.yul\":7125:7256   */\n      tag_199\n      jump\t// in\n    tag_318:\n        /* \"#utility.yul\":7117:7256   */\n      swap1\n      pop\n        /* \"#utility.yul\":6844:7263   */\n      swap2\n      swap1\n      pop\n      jump\t// out\n        /* \"#utility.yul\":7269:7412   */\n    tag_200:\n        /* \"#utility.yul\":7326:7331   */\n      0x00\n        /* \"#utility.yul\":7357:7363   */\n      dup2\n        /* \"#utility.yul\":7351:7364   */\n      mload\n        /* \"#utility.yul\":7342:7364   */\n      swap1\n      pop\n        /* \"#utility.yul\":7373:7406   */\n      tag_320\n        /* \"#utility.yul\":7400:7405   */\n      dup2\n        /* \"#utility.yul\":7373:7406   */\n      tag_185\n      jump\t// in\n    tag_320:\n        /* \"#utility.yul\":7269:7412   */\n      swap3\n      swap2\n      pop\n      pop\n      jump\t// out\n        /* \"#utility.yul\":7418:7769   */\n    tag_73:\n        /* \"#utility.yul\":7488:7494   */\n      0x00\n        /* \"#utility.yul\":7537:7539   */\n      0x20\n        /* \"#utility.yul\":7525:7534   */\n      dup3\n        /* \"#utility.yul\":7516:7523   */\n      dup5\n        /* \"#utility.yul\":7512:7535   */\n      sub\n        /* \"#utility.yul\":7508:7540   */\n      slt\n        /* \"#utility.yul\":7505:7624   */\n      iszero\n      tag_322\n      jumpi\n        /* \"#utility.yul\":7543:7622   */\n      tag_323\n      tag_178\n      jump\t// in\n    tag_323:\n        /* \"#utility.yul\":7505:7624   */\n    tag_322:\n        /* \"#utility.yul\":7663:7664   */\n      0x00\n        /* \"#utility.yul\":7688:7752   */\n      tag_324\n        /* \"#utility.yul\":7744:7751   */\n      dup5\n        /* \"#utility.yul\":7735:7741   */\n      dup3\n        /* \"#utility.yul\":7724:7733   */\n      dup6\n        /* \"#utility.yul\":7720:7742   */\n      add\n        /* \"#utility.yul\":7688:7752   */\n      tag_200\n      jump\t// in\n    tag_324:\n        /* \"#utility.yul\":7678:7752   */\n      swap2\n      pop\n        /* \"#utility.yul\":7634:7762   */\n      pop\n        /* \"#utility.yul\":7418:7769   */\n      swap3\n      swap2\n      pop\n      pop\n      jump\t// out\n        /* \"#utility.yul\":7775:7941   */\n    tag_201:\n        /* \"#utility.yul\":7915:7933   */\n      0x4e6f20746f6b656e2062616c616e636500000000000000000000000000000000\n        /* \"#utility.yul\":7911:7912   */\n      0x00\n        /* \"#utility.yul\":7903:7909   */\n      dup3\n        /* \"#utility.yul\":7899:7913   */\n      add\n        /* \"#utility.yul\":7892:7934   */\n      mstore\n        /* \"#utility.yul\":7775:7941   */\n      pop\n      jump\t// out\n        /* \"#utility.yul\":7947:8313   */\n    tag_202:\n        /* \"#utility.yul\":8089:8092   */\n      0x00\n        /* \"#utility.yul\":8110:8177   */\n      tag_327\n        /* \"#utility.yul\":8174:8176   */\n      0x10\n        /* \"#utility.yul\":8169:8172   */\n      dup4\n        /* \"#utility.yul\":8110:8177   */\n      tag_194\n      jump\t// in\n    tag_327:\n        /* \"#utility.yul\":8103:8177   */\n      swap2\n      pop\n        /* \"#utility.yul\":8186:8279   */\n      tag_328\n        /* \"#utility.yul\":8275:8278   */\n      dup3\n        /* \"#utility.yul\":8186:8279   */\n      tag_201\n      jump\t// in\n    tag_328:\n        /* \"#utility.yul\":8304:8306   */\n      0x20\n        /* \"#utility.yul\":8299:8302   */\n      dup3\n        /* \"#utility.yul\":8295:8307   */\n      add\n        /* \"#utility.yul\":8288:8307   */\n      swap1\n      pop\n        /* \"#utility.yul\":7947:8313   */\n      swap2\n      swap1\n      pop\n      jump\t// out\n        /* \"#utility.yul\":8319:8738   */\n    tag_76:\n        /* \"#utility.yul\":8485:8489   */\n      0x00\n        /* \"#utility.yul\":8523:8525   */\n      0x20\n        /* \"#utility.yul\":8512:8521   */\n      dup3\n        /* \"#utility.yul\":8508:8526   */\n      add\n        /* \"#utility.yul\":8500:8526   */\n      swap1\n      pop\n        /* \"#utility.yul\":8572:8581   */\n      dup2\n        /* \"#utility.yul\":8566:8570   */\n      dup2\n        /* \"#utility.yul\":8562:8582   */\n      sub\n        /* \"#utility.yul\":8558:8559   */\n      0x00\n        /* \"#utility.yul\":8547:8556   */\n      dup4\n        /* \"#utility.yul\":8543:8560   */\n      add\n        /* \"#utility.yul\":8536:8583   */\n      mstore\n        /* \"#utility.yul\":8600:8731   */\n      tag_330\n        /* \"#utility.yul\":8726:8730   */\n      dup2\n        /* \"#utility.yul\":8600:8731   */\n      tag_202\n      jump\t// in\n    tag_330:\n        /* \"#utility.yul\":8592:8731   */\n      swap1\n      pop\n        /* \"#utility.yul\":8319:8738   */\n      swap2\n      swap1\n      pop\n      jump\t// out\n        /* \"#utility.yul\":8744:9076   */\n    tag_78:\n        /* \"#utility.yul\":8865:8869   */\n      0x00\n        /* \"#utility.yul\":8903:8905   */\n      0x40\n        /* \"#utility.yul\":8892:8901   */\n      dup3\n        /* \"#utility.yul\":8888:8906   */\n      add\n        /* \"#utility.yul\":8880:8906   */\n      swap1\n      pop\n        /* \"#utility.yul\":8916:8987   */\n      tag_332\n        /* \"#utility.yul\":8984:8985   */\n      0x00\n        /* \"#utility.yul\":8973:8982   */\n      dup4\n        /* \"#utility.yul\":8969:8986   */\n      add\n        /* \"#utility.yul\":8960:8966   */\n      dup6\n        /* \"#utility.yul\":8916:8987   */\n      tag_187\n      jump\t// in\n    tag_332:\n        /* \"#utility.yul\":8997:9069   */\n      tag_333\n        /* \"#utility.yul\":9065:9067   */\n      0x20\n        /* \"#utility.yul\":9054:9063   */\n      dup4\n        /* \"#utility.yul\":9050:9068   */\n      add\n        /* \"#utility.yul\":9041:9047   */\n      dup5\n        /* \"#utility.yul\":8997:9069   */\n      tag_188\n      jump\t// in\n    tag_333:\n        /* \"#utility.yul\":8744:9076   */\n      swap4\n      swap3\n      pop\n      pop\n      pop\n      jump\t// out\n        /* \"#utility.yul\":9082:9172   */\n    tag_203:\n        /* \"#utility.yul\":9116:9123   */\n      0x00\n        /* \"#utility.yul\":9159:9164   */\n      dup2\n        /* \"#utility.yul\":9152:9165   */\n      iszero\n        /* \"#utility.yul\":9145:9166   */\n      iszero\n        /* \"#utility.yul\":9134:9166   */\n      swap1\n      pop\n        /* \"#utility.yul\":9082:9172   */\n      swap2\n      swap1\n      pop\n      jump\t// out\n        /* \"#utility.yul\":9178:9294   */\n    tag_204:\n        /* \"#utility.yul\":9248:9269   */\n      tag_336\n        /* \"#utility.yul\":9263:9268   */\n      dup2\n        /* \"#utility.yul\":9248:9269   */\n      tag_203\n      jump\t// in\n    tag_336:\n        /* \"#utility.yul\":9241:9246   */\n      dup2\n        /* \"#utility.yul\":9238:9270   */\n      eq\n        /* \"#utility.yul\":9228:9288   */\n      tag_337\n      jumpi\n        /* \"#utility.yul\":9284:9285   */\n      0x00\n        /* \"#utility.yul\":9281:9282   */\n      dup1\n        /* \"#utility.yul\":9274:9286   */\n      revert\n        /* \"#utility.yul\":9228:9288   */\n    tag_337:\n        /* \"#utility.yul\":9178:9294   */\n      pop\n      jump\t// out\n        /* \"#utility.yul\":9300:9437   */\n    tag_205:\n        /* \"#utility.yul\":9354:9359   */\n      0x00\n        /* \"#utility.yul\":9385:9391   */\n      dup2\n        /* \"#utility.yul\":9379:9392   */\n      mload\n        /* \"#utility.yul\":9370:9392   */\n      swap1\n      pop\n        /* \"#utility.yul\":9401:9431   */\n      tag_339\n        /* \"#utility.yul\":9425:9430   */\n      dup2\n        /* \"#utility.yul\":9401:9431   */\n      tag_204\n      jump\t// in\n    tag_339:\n        /* \"#utility.yul\":9300:9437   */\n      swap3\n      swap2\n      pop\n      pop\n      jump\t// out\n        /* \"#utility.yul\":9443:9788   */\n    tag_82:\n        /* \"#utility.yul\":9510:9516   */\n      0x00\n        /* \"#utility.yul\":9559:9561   */\n      0x20\n        /* \"#utility.yul\":9547:9556   */\n      dup3\n        /* \"#utility.yul\":9538:9545   */\n      dup5\n        /* \"#utility.yul\":9534:9557   */\n      sub\n        /* \"#utility.yul\":9530:9562   */\n      slt\n        /* \"#utility.yul\":9527:9646   */\n      iszero\n      tag_341\n      jumpi\n        /* \"#utility.yul\":9565:9644   */\n      tag_342\n      tag_178\n      jump\t// in\n    tag_342:\n        /* \"#utility.yul\":9527:9646   */\n    tag_341:\n        /* \"#utility.yul\":9685:9686   */\n      0x00\n        /* \"#utility.yul\":9710:9771   */\n      tag_343\n        /* \"#utility.yul\":9763:9770   */\n      dup5\n        /* \"#utility.yul\":9754:9760   */\n      dup3\n        /* \"#utility.yul\":9743:9752   */\n      dup6\n        /* \"#utility.yul\":9739:9761   */\n      add\n        /* \"#utility.yul\":9710:9771   */\n      tag_205\n      jump\t// in\n    tag_343:\n        /* \"#utility.yul\":9700:9771   */\n      swap2\n      pop\n        /* \"#utility.yul\":9656:9781   */\n      pop\n        /* \"#utility.yul\":9443:9788   */\n      swap3\n      swap2\n      pop\n      pop\n      jump\t// out\n        /* \"#utility.yul\":9794:10236   */\n    tag_85:\n        /* \"#utility.yul\":9943:9947   */\n      0x00\n        /* \"#utility.yul\":9981:9983   */\n      0x60\n        /* \"#utility.yul\":9970:9979   */\n      dup3\n        /* \"#utility.yul\":9966:9984   */\n      add\n        /* \"#utility.yul\":9958:9984   */\n      swap1\n      pop\n        /* \"#utility.yul\":9994:10065   */\n      tag_345\n        /* \"#utility.yul\":10062:10063   */\n      0x00\n        /* \"#utility.yul\":10051:10060   */\n      dup4\n        /* \"#utility.yul\":10047:10064   */\n      add\n        /* \"#utility.yul\":10038:10044   */\n      dup7\n        /* \"#utility.yul\":9994:10065   */\n      tag_187\n      jump\t// in\n    tag_345:\n        /* \"#utility.yul\":10075:10147   */\n      tag_346\n        /* \"#utility.yul\":10143:10145   */\n      0x20\n        /* \"#utility.yul\":10132:10141   */\n      dup4\n        /* \"#utility.yul\":10128:10146   */\n      add\n        /* \"#utility.yul\":10119:10125   */\n      dup6\n        /* \"#utility.yul\":10075:10147   */\n      tag_187\n      jump\t// in\n    tag_346:\n        /* \"#utility.yul\":10157:10229   */\n      tag_347\n        /* \"#utility.yul\":10225:10227   */\n      0x40\n        /* \"#utility.yul\":10214:10223   */\n      dup4\n        /* \"#utility.yul\":10210:10228   */\n      add\n        /* \"#utility.yul\":10201:10207   */\n      dup5\n        /* \"#utility.yul\":10157:10229   */\n      tag_188\n      jump\t// in\n    tag_347:\n        /* \"#utility.yul\":9794:10236   */\n      swap5\n      swap4\n      pop\n      pop\n      pop\n      pop\n      jump\t// out\n        /* \"#utility.yul\":10242:10406   */\n    tag_206:\n        /* \"#utility.yul\":10382:10398   */\n      0x4465706f736974206661696c6564000000000000000000000000000000000000\n        /* \"#utility.yul\":10378:10379   */\n      0x00\n        /* \"#utility.yul\":10370:10376   */\n      dup3\n        /* \"#utility.yul\":10366:10380   */\n      add\n        /* \"#utility.yul\":10359:10399   */\n      mstore\n        /* \"#utility.yul\":10242:10406   */\n      pop\n      jump\t// out\n        /* \"#utility.yul\":10412:10778   */\n    tag_207:\n        /* \"#utility.yul\":10554:10557   */\n      0x00\n        /* \"#utility.yul\":10575:10642   */\n      tag_350\n        /* \"#utility.yul\":10639:10641   */\n      0x0e\n        /* \"#utility.yul\":10634:10637   */\n      dup4\n        /* \"#utility.yul\":10575:10642   */\n      tag_194\n      jump\t// in\n    tag_350:\n        /* \"#utility.yul\":10568:10642   */\n      swap2\n      pop\n        /* \"#utility.yul\":10651:10744   */\n      tag_351\n        /* \"#utility.yul\":10740:10743   */\n      dup3\n        /* \"#utility.yul\":10651:10744   */\n      tag_206\n      jump\t// in\n    tag_351:\n        /* \"#utility.yul\":10769:10771   */\n      0x20\n        /* \"#utility.yul\":10764:10767   */\n      dup3\n        /* \"#utility.yul\":10760:10772   */\n      add\n        /* \"#utility.yul\":10753:10772   */\n      swap1\n      pop\n        /* \"#utility.yul\":10412:10778   */\n      swap2\n      swap1\n      pop\n      jump\t// out\n        /* \"#utility.yul\":10784:11203   */\n    tag_91:\n        /* \"#utility.yul\":10950:10954   */\n      0x00\n        /* \"#utility.yul\":10988:10990   */\n      0x20\n        /* \"#utility.yul\":10977:10986   */\n      dup3\n        /* \"#utility.yul\":10973:10991   */\n      add\n        /* \"#utility.yul\":10965:10991   */\n      swap1\n      pop\n        /* \"#utility.yul\":11037:11046   */\n      dup2\n        /* \"#utility.yul\":11031:11035   */\n      dup2\n        /* \"#utility.yul\":11027:11047   */\n      sub\n        /* \"#utility.yul\":11023:11024   */\n      0x00\n        /* \"#utility.yul\":11012:11021   */\n      dup4\n        /* \"#utility.yul\":11008:11025   */\n      add\n        /* \"#utility.yul\":11001:11048   */\n      mstore\n        /* \"#utility.yul\":11065:11196   */\n      tag_353\n        /* \"#utility.yul\":11191:11195   */\n      dup2\n        /* \"#utility.yul\":11065:11196   */\n      tag_207\n      jump\t// in\n    tag_353:\n        /* \"#utility.yul\":11057:11196   */\n      swap1\n      pop\n        /* \"#utility.yul\":10784:11203   */\n      swap2\n      swap1\n      pop\n      jump\t// out\n        /* \"#utility.yul\":11209:11380   */\n    tag_208:\n        /* \"#utility.yul\":11349:11372   */\n      0x496e73756666696369656e74206665652073656e740000000000000000000000\n        /* \"#utility.yul\":11345:11346   */\n      0x00\n        /* \"#utility.yul\":11337:11343   */\n      dup3\n        /* \"#utility.yul\":11333:11347   */\n      add\n        /* \"#utility.yul\":11326:11373   */\n      mstore\n        /* \"#utility.yul\":11209:11380   */\n      pop\n      jump\t// out\n        /* \"#utility.yul\":11386:11752   */\n    tag_209:\n        /* \"#utility.yul\":11528:11531   */\n      0x00\n        /* \"#utility.yul\":11549:11616   */\n      tag_356\n        /* \"#utility.yul\":11613:11615   */\n      0x15\n        /* \"#utility.yul\":11608:11611   */\n      dup4\n        /* \"#utility.yul\":11549:11616   */\n      tag_194\n      jump\t// in\n    tag_356:\n        /* \"#utility.yul\":11542:11616   */\n      swap2\n      pop\n        /* \"#utility.yul\":11625:11718   */\n      tag_357\n        /* \"#utility.yul\":11714:11717   */\n      dup3\n        /* \"#utility.yul\":11625:11718   */\n      tag_208\n      jump\t// in\n    tag_357:\n        /* \"#utility.yul\":11743:11745   */\n      0x20\n        /* \"#utility.yul\":11738:11741   */\n      dup3\n        /* \"#utility.yul\":11734:11746   */\n      add\n        /* \"#utility.yul\":11727:11746   */\n      swap1\n      pop\n        /* \"#utility.yul\":11386:11752   */\n      swap2\n      swap1\n      pop\n      jump\t// out\n        /* \"#utility.yul\":11758:12177   */\n    tag_120:\n        /* \"#utility.yul\":11924:11928   */\n      0x00\n        /* \"#utility.yul\":11962:11964   */\n      0x20\n        /* \"#utility.yul\":11951:11960   */\n      dup3\n        /* \"#utility.yul\":11947:11965   */\n      add\n        /* \"#utility.yul\":11939:11965   */\n      swap1\n      pop\n        /* \"#utility.yul\":12011:12020   */\n      dup2\n        /* \"#utility.yul\":12005:12009   */\n      dup2\n        /* \"#utility.yul\":12001:12021   */\n      sub\n        /* \"#utility.yul\":11997:11998   */\n      0x00\n        /* \"#utility.yul\":11986:11995   */\n      dup4\n        /* \"#utility.yul\":11982:11999   */\n      add\n        /* \"#utility.yul\":11975:12022   */\n      mstore\n        /* \"#utility.yul\":12039:12170   */\n      tag_359\n        /* \"#utility.yul\":12165:12169   */\n      dup2\n        /* \"#utility.yul\":12039:12170   */\n      tag_209\n      jump\t// in\n    tag_359:\n        /* \"#utility.yul\":12031:12170   */\n      swap1\n      pop\n        /* \"#utility.yul\":11758:12177   */\n      swap2\n      swap1\n      pop\n      jump\t// out\n        /* \"#utility.yul\":12183:12280   */\n    tag_210:\n        /* \"#utility.yul\":12242:12248   */\n      0x00\n        /* \"#utility.yul\":12270:12273   */\n      dup3\n        /* \"#utility.yul\":12260:12273   */\n      swap1\n      pop\n        /* \"#utility.yul\":12183:12280   */\n      swap3\n      swap2\n      pop\n      pop\n      jump\t// out\n        /* \"#utility.yul\":12286:12466   */\n    tag_211:\n        /* \"#utility.yul\":12334:12411   */\n      0x4e487b7100000000000000000000000000000000000000000000000000000000\n        /* \"#utility.yul\":12331:12332   */\n      0x00\n        /* \"#utility.yul\":12324:12412   */\n      mstore\n        /* \"#utility.yul\":12431:12435   */\n      0x41\n        /* \"#utility.yul\":12428:12429   */\n      0x04\n        /* \"#utility.yul\":12421:12436   */\n      mstore\n        /* \"#utility.yul\":12455:12459   */\n      0x24\n        /* \"#utility.yul\":12452:12453   */\n      0x00\n        /* \"#utility.yul\":12445:12460   */\n      revert\n        /* \"#utility.yul\":12472:12652   */\n    tag_212:\n        /* \"#utility.yul\":12520:12597   */\n      0x4e487b7100000000000000000000000000000000000000000000000000000000\n        /* \"#utility.yul\":12517:12518   */\n      0x00\n        /* \"#utility.yul\":12510:12598   */\n      mstore\n        /* \"#utility.yul\":12617:12621   */\n      0x22\n        /* \"#utility.yul\":12614:12615   */\n      0x04\n        /* \"#utility.yul\":12607:12622   */\n      mstore\n        /* \"#utility.yul\":12641:12645   */\n      0x24\n        /* \"#utility.yul\":12638:12639   */\n      0x00\n        /* \"#utility.yul\":12631:12646   */\n      revert\n        /* \"#utility.yul\":12658:12978   */\n    tag_139:\n        /* \"#utility.yul\":12702:12708   */\n      0x00\n        /* \"#utility.yul\":12739:12740   */\n      0x02\n        /* \"#utility.yul\":12733:12737   */\n      dup3\n        /* \"#utility.yul\":12729:12741   */\n      div\n        /* \"#utility.yul\":12719:12741   */\n      swap1\n      pop\n        /* \"#utility.yul\":12786:12787   */\n      0x01\n        /* \"#utility.yul\":12780:12784   */\n      dup3\n        /* \"#utility.yul\":12776:12788   */\n      and\n        /* \"#utility.yul\":12807:12825   */\n      dup1\n        /* \"#utility.yul\":12797:12878   */\n      tag_364\n      jumpi\n        /* \"#utility.yul\":12863:12867   */\n      0x7f\n        /* \"#utility.yul\":12855:12861   */\n      dup3\n        /* \"#utility.yul\":12851:12868   */\n      and\n        /* \"#utility.yul\":12841:12868   */\n      swap2\n      pop\n        /* \"#utility.yul\":12797:12878   */\n    tag_364:\n        /* \"#utility.yul\":12925:12927   */\n      0x20\n        /* \"#utility.yul\":12917:12923   */\n      dup3\n        /* \"#utility.yul\":12914:12928   */\n      lt\n        /* \"#utility.yul\":12894:12912   */\n      dup2\n        /* \"#utility.yul\":12891:12929   */\n      sub\n        /* \"#utility.yul\":12888:12972   */\n      tag_365\n      jumpi\n        /* \"#utility.yul\":12944:12962   */\n      tag_366\n      tag_212\n      jump\t// in\n    tag_366:\n        /* \"#utility.yul\":12888:12972   */\n    tag_365:\n        /* \"#utility.yul\":12709:12978   */\n      pop\n        /* \"#utility.yul\":12658:12978   */\n      swap2\n      swap1\n      pop\n      jump\t// out\n        /* \"#utility.yul\":12984:13125   */\n    tag_213:\n        /* \"#utility.yul\":13033:13037   */\n      0x00\n        /* \"#utility.yul\":13056:13059   */\n      dup2\n        /* \"#utility.yul\":13048:13059   */\n      swap1\n      pop\n        /* \"#utility.yul\":13079:13082   */\n      dup2\n        /* \"#utility.yul\":13076:13077   */\n      0x00\n        /* \"#utility.yul\":13069:13083   */\n      mstore\n        /* \"#utility.yul\":13113:13117   */\n      0x20\n        /* \"#utility.yul\":13110:13111   */\n      0x00\n        /* \"#utility.yul\":13100:13118   */\n      keccak256\n        /* \"#utility.yul\":13092:13118   */\n      swap1\n      pop\n        /* \"#utility.yul\":12984:13125   */\n      swap2\n      swap1\n      pop\n      jump\t// out\n        /* \"#utility.yul\":13131:13224   */\n    tag_214:\n        /* \"#utility.yul\":13168:13174   */\n      0x00\n        /* \"#utility.yul\":13215:13217   */\n      0x20\n        /* \"#utility.yul\":13210:13212   */\n      0x1f\n        /* \"#utility.yul\":13203:13208   */\n      dup4\n        /* \"#utility.yul\":13199:13213   */\n      add\n        /* \"#utility.yul\":13195:13218   */\n      div\n        /* \"#utility.yul\":13185:13218   */\n      swap1\n      pop\n        /* \"#utility.yul\":13131:13224   */\n      swap2\n      swap1\n      pop\n      jump\t// out\n        /* \"#utility.yul\":13230:13337   */\n    tag_215:\n        /* \"#utility.yul\":13274:13282   */\n      0x00\n        /* \"#utility.yul\":13324:13329   */\n      dup3\n        /* \"#utility.yul\":13318:13322   */\n      dup3\n        /* \"#utility.yul\":13314:13330   */\n      shl\n        /* \"#utility.yul\":13293:13330   */\n      swap1\n      pop\n        /* \"#utility.yul\":13230:13337   */\n      swap3\n      swap2\n      pop\n      pop\n      jump\t// out\n        /* \"#utility.yul\":13343:13736   */\n    tag_216:\n        /* \"#utility.yul\":13412:13418   */\n      0x00\n        /* \"#utility.yul\":13462:13463   */\n      0x08\n        /* \"#utility.yul\":13450:13460   */\n      dup4\n        /* \"#utility.yul\":13446:13464   */\n      mul\n        /* \"#utility.yul\":13485:13582   */\n      tag_371\n        /* \"#utility.yul\":13515:13581   */\n      0xffffffffffffffffffffffffffffffffffffffffffffffffffffffffffffffff\n        /* \"#utility.yul\":13504:13513   */\n      dup3\n        /* \"#utility.yul\":13485:13582   */\n      tag_215\n      jump\t// in\n    tag_371:\n        /* \"#utility.yul\":13603:13642   */\n      tag_372\n        /* \"#utility.yul\":13633:13641   */\n      dup7\n        /* \"#utility.yul\":13622:13631   */\n      dup4\n        /* \"#utility.yul\":13603:13642   */\n      tag_215\n      jump\t// in\n    tag_372:\n        /* \"#utility.yul\":13591:13642   */\n      swap6\n      pop\n        /* \"#utility.yul\":13675:13679   */\n      dup1\n        /* \"#utility.yul\":13671:13680   */\n      not\n        /* \"#utility.yul\":13664:13669   */\n      dup5\n        /* \"#utility.yul\":13660:13681   */\n      and\n        /* \"#utility.yul\":13651:13681   */\n      swap4\n      pop\n        /* \"#utility.yul\":13724:13728   */\n      dup1\n        /* \"#utility.yul\":13714:13722   */\n      dup7\n        /* \"#utility.yul\":13710:13729   */\n      and\n        /* \"#utility.yul\":13703:13708   */\n      dup5\n        /* \"#utility.yul\":13700:13730   */\n      or\n        /* \"#utility.yul\":13690:13730   */\n      swap3\n      pop\n        /* \"#utility.yul\":13419:13736   */\n      pop\n      pop\n        /* \"#utility.yul\":13343:13736   */\n      swap4\n      swap3\n      pop\n      pop\n      pop\n      jump\t// out\n        /* \"#utility.yul\":13742:13802   */\n    tag_217:\n        /* \"#utility.yul\":13770:13773   */\n      0x00\n        /* \"#utility.yul\":13791:13796   */\n      dup2\n        /* \"#utility.yul\":13784:13796   */\n      swap1\n      pop\n        /* \"#utility.yul\":13742:13802   */\n      swap2\n      swap1\n      pop\n      jump\t// out\n        /* \"#utility.yul\":13808:13950   */\n    tag_218:\n        /* \"#utility.yul\":13858:13867   */\n      0x00\n        /* \"#utility.yul\":13891:13944   */\n      tag_375\n        /* \"#utility.yul\":13909:13943   */\n      tag_376\n        /* \"#utility.yul\":13918:13942   */\n      tag_377\n        /* \"#utility.yul\":13936:13941   */\n      dup5\n        /* \"#utility.yul\":13918:13942   */\n      tag_184\n      jump\t// in\n    tag_377:\n        /* \"#utility.yul\":13909:13943   */\n      tag_217\n      jump\t// in\n    tag_376:\n        /* \"#utility.yul\":13891:13944   */\n      tag_184\n      jump\t// in\n    tag_375:\n        /* \"#utility.yul\":13878:13944   */\n      swap1\n      pop\n        /* \"#utility.yul\":13808:13950   */\n      swap2\n      swap1\n      pop\n      jump\t// out\n        /* \"#utility.yul\":13956:14031   */\n    tag_219:\n        /* \"#utility.yul\":13999:14002   */\n      0x00\n        /* \"#utility.yul\":14020:14025   */\n      dup2\n        /* \"#utility.yul\":14013:14025   */\n      swap1\n      pop\n        /* \"#utility.yul\":13956:14031   */\n      swap2\n      swap1\n      pop\n      jump\t// out\n        /* \"#utility.yul\":14037:14306   */\n    tag_220:\n        /* \"#utility.yul\":14147:14186   */\n      tag_380\n        /* \"#utility.yul\":14178:14185   */\n      dup4\n        /* \"#utility.yul\":14147:14186   */\n      tag_218\n      jump\t// in\n    tag_380:\n        /* \"#utility.yul\":14208:14299   */\n      tag_381\n        /* \"#utility.yul\":14257:14298   */\n      tag_382\n        /* \"#utility.yul\":14281:14297   */\n      dup3\n        /* \"#utility.yul\":14257:14298   */\n      tag_219\n      jump\t// in\n    tag_382:\n        /* \"#utility.yul\":14249:14255   */\n      dup5\n        /* \"#utility.yul\":14242:14246   */\n      dup5\n        /* \"#utility.yul\":14236:14247   */\n      sload\n        /* \"#utility.yul\":14208:14299   */\n      tag_216\n      jump\t// in\n    tag_381:\n        /* \"#utility.yul\":14202:14206   */\n      dup3\n        /* \"#utility.yul\":14195:14300   */\n      sstore\n        /* \"#utility.yul\":14113:14306   */\n      pop\n        /* \"#utility.yul\":14037:14306   */\n      pop\n      pop\n      pop\n      jump\t// out\n        /* \"#utility.yul\":14312:14385   */\n    tag_221:\n        /* \"#utility.yul\":14357:14360   */\n      0x00\n        /* \"#utility.yul\":14312:14385   */\n      swap1\n      jump\t// out\n        /* \"#utility.yul\":14391:14580   */\n    tag_222:\n        /* \"#utility.yul\":14468:14500   */\n      tag_385\n      tag_221\n      jump\t// in\n    tag_385:\n        /* \"#utility.yul\":14509:14574   */\n      tag_386\n        /* \"#utility.yul\":14567:14573   */\n      dup2\n        /* \"#utility.yul\":14559:14565   */\n      dup5\n        /* \"#utility.yul\":14553:14557   */\n      dup5\n        /* \"#utility.yul\":14509:14574   */\n      tag_220\n      jump\t// in\n    tag_386:\n        /* \"#utility.yul\":14444:14580   */\n      pop\n        /* \"#utility.yul\":14391:14580   */\n      pop\n      pop\n      jump\t// out\n        /* \"#utility.yul\":14586:14772   */\n    tag_223:\n        /* \"#utility.yul\":14646:14766   */\n    tag_388:\n        /* \"#utility.yul\":14663:14666   */\n      dup2\n        /* \"#utility.yul\":14656:14661   */\n      dup2\n        /* \"#utility.yul\":14653:14667   */\n      lt\n        /* \"#utility.yul\":14646:14766   */\n      iszero\n      tag_390\n      jumpi\n        /* \"#utility.yul\":14717:14756   */\n      tag_391\n        /* \"#utility.yul\":14754:14755   */\n      0x00\n        /* \"#utility.yul\":14747:14752   */\n      dup3\n        /* \"#utility.yul\":14717:14756   */\n      tag_222\n      jump\t// in\n    tag_391:\n        /* \"#utility.yul\":14690:14691   */\n      0x01\n        /* \"#utility.yul\":14683:14688   */\n      dup2\n        /* \"#utility.yul\":14679:14692   */\n      add\n        /* \"#utility.yul\":14670:14692   */\n      swap1\n      pop\n        /* \"#utility.yul\":14646:14766   */\n      jump(tag_388)\n    tag_390:\n        /* \"#utility.yul\":14586:14772   */\n      pop\n      pop\n      jump\t// out\n        /* \"#utility.yul\":14778:15321   */\n    tag_224:\n        /* \"#utility.yul\":14879:14881   */\n      0x1f\n        /* \"#utility.yul\":14874:14877   */\n      dup3\n        /* \"#utility.yul\":14871:14882   */\n      gt\n        /* \"#utility.yul\":14868:15314   */\n      iszero\n      tag_393\n      jumpi\n        /* \"#utility.yul\":14913:14951   */\n      tag_394\n        /* \"#utility.yul\":14945:14950   */\n      dup2\n        /* \"#utility.yul\":14913:14951   */\n      tag_213\n      jump\t// in\n    tag_394:\n        /* \"#utility.yul\":14997:15026   */\n      tag_395\n        /* \"#utility.yul\":15015:15025   */\n      dup5\n        /* \"#utility.yul\":14997:15026   */\n      tag_214\n      jump\t// in\n    tag_395:\n        /* \"#utility.yul\":14987:14995   */\n      dup2\n        /* \"#utility.yul\":14983:15027   */\n      add\n        /* \"#utility.yul\":15180:15182   */\n      0x20\n        /* \"#utility.yul\":15168:15178   */\n      dup6\n        /* \"#utility.yul\":15165:15183   */\n      lt\n        /* \"#utility.yul\":15162:15211   */\n      iszero\n      tag_396\n      jumpi\n        /* \"#utility.yul\":15201:15209   */\n      dup2\n        /* \"#utility.yul\":15186:15209   */\n      swap1\n      pop\n        /* \"#utility.yul\":15162:15211   */\n    tag_396:\n        /* \"#utility.yul\":15224:15304   */\n      tag_397\n        /* \"#utility.yul\":15280:15302   */\n      tag_398\n        /* \"#utility.yul\":15298:15301   */\n      dup6\n        /* \"#utility.yul\":15280:15302   */\n      tag_214\n      jump\t// in\n    tag_398:\n        /* \"#utility.yul\":15270:15278   */\n      dup4\n        /* \"#utility.yul\":15266:15303   */\n      add\n        /* \"#utility.yul\":15253:15264   */\n      dup3\n        /* \"#utility.yul\":15224:15304   */\n      tag_223\n      jump\t// in\n    tag_397:\n        /* \"#utility.yul\":14883:15314   */\n      pop\n      pop\n        /* \"#utility.yul\":14868:15314   */\n    tag_393:\n        /* \"#utility.yul\":14778:15321   */\n      pop\n      pop\n      pop\n      jump\t// out\n        /* \"#utility.yul\":15327:15444   */\n    tag_225:\n        /* \"#utility.yul\":15381:15389   */\n      0x00\n        /* \"#utility.yul\":15431:15436   */\n      dup3\n        /* \"#utility.yul\":15425:15429   */\n      dup3\n        /* \"#utility.yul\":15421:15437   */\n      shr\n        /* \"#utility.yul\":15400:15437   */\n      swap1\n      pop\n        /* \"#utility.yul\":15327:15444   */\n      swap3\n      swap2\n      pop\n      pop\n      jump\t// out\n        /* \"#utility.yul\":15450:15619   */\n    tag_226:\n        /* \"#utility.yul\":15494:15500   */\n      0x00\n        /* \"#utility.yul\":15527:15578   */\n      tag_401\n        /* \"#utility.yul\":15575:15576   */\n      0x00\n        /* \"#utility.yul\":15571:15577   */\n      not\n        /* \"#utility.yul\":15563:15568   */\n      dup5\n        /* \"#utility.yul\":15560:15561   */\n      0x08\n        /* \"#utility.yul\":15556:15569   */\n      mul\n        /* \"#utility.yul\":15527:15578   */\n      tag_225\n      jump\t// in\n    tag_401:\n        /* \"#utility.yul\":15523:15579   */\n      not\n        /* \"#utility.yul\":15608:15612   */\n      dup1\n        /* \"#utility.yul\":15602:15606   */\n      dup4\n        /* \"#utility.yul\":15598:15613   */\n      and\n        /* \"#utility.yul\":15588:15613   */\n      swap2\n      pop\n        /* \"#utility.yul\":15501:15619   */\n      pop\n        /* \"#utility.yul\":15450:15619   */\n      swap3\n      swap2\n      pop\n      pop\n      jump\t// out\n        /* \"#utility.yul\":15624:15919   */\n    tag_227:\n        /* \"#utility.yul\":15700:15704   */\n      0x00\n        /* \"#utility.yul\":15846:15875   */\n      tag_403\n        /* \"#utility.yul\":15871:15874   */\n      dup4\n        /* \"#utility.yul\":15865:15869   */\n      dup4\n        /* \"#utility.yul\":15846:15875   */\n      tag_226\n      jump\t// in\n    tag_403:\n        /* \"#utility.yul\":15838:15875   */\n      swap2\n      pop\n        /* \"#utility.yul\":15908:15911   */\n      dup3\n        /* \"#utility.yul\":15905:15906   */\n      0x02\n        /* \"#utility.yul\":15901:15912   */\n      mul\n        /* \"#utility.yul\":15895:15899   */\n      dup3\n        /* \"#utility.yul\":15892:15913   */\n      or\n        /* \"#utility.yul\":15884:15913   */\n      swap1\n      pop\n        /* \"#utility.yul\":15624:15919   */\n      swap3\n      swap2\n      pop\n      pop\n      jump\t// out\n        /* \"#utility.yul\":15924:17327   */\n    tag_122:\n        /* \"#utility.yul\":16048:16092   */\n      tag_405\n        /* \"#utility.yul\":16088:16091   */\n      dup4\n        /* \"#utility.yul\":16083:16086   */\n      dup4\n        /* \"#utility.yul\":16048:16092   */\n      tag_210\n      jump\t// in\n    tag_405:\n        /* \"#utility.yul\":16157:16175   */\n      0xffffffffffffffff\n        /* \"#utility.yul\":16149:16155   */\n      dup2\n        /* \"#utility.yul\":16146:16176   */\n      gt\n        /* \"#utility.yul\":16143:16199   */\n      iszero\n      tag_406\n      jumpi\n        /* \"#utility.yul\":16179:16197   */\n      tag_407\n      tag_211\n      jump\t// in\n    tag_407:\n        /* \"#utility.yul\":16143:16199   */\n    tag_406:\n        /* \"#utility.yul\":16223:16261   */\n      tag_408\n        /* \"#utility.yul\":16255:16259   */\n      dup3\n        /* \"#utility.yul\":16249:16260   */\n      sload\n        /* \"#utility.yul\":16223:16261   */\n      tag_139\n      jump\t// in\n    tag_408:\n        /* \"#utility.yul\":16308:16375   */\n      tag_409\n        /* \"#utility.yul\":16368:16374   */\n      dup3\n        /* \"#utility.yul\":16360:16366   */\n      dup3\n        /* \"#utility.yul\":16354:16358   */\n      dup6\n        /* \"#utility.yul\":16308:16375   */\n      tag_224\n      jump\t// in\n    tag_409:\n        /* \"#utility.yul\":16402:16403   */\n      0x00\n        /* \"#utility.yul\":16431:16433   */\n      0x1f\n        /* \"#utility.yul\":16423:16429   */\n      dup4\n        /* \"#utility.yul\":16420:16434   */\n      gt\n        /* \"#utility.yul\":16448:16449   */\n      0x01\n        /* \"#utility.yul\":16443:17075   */\n      dup2\n      eq\n      tag_411\n      jumpi\n        /* \"#utility.yul\":17119:17120   */\n      0x00\n        /* \"#utility.yul\":17136:17142   */\n      dup5\n        /* \"#utility.yul\":17133:17217   */\n      iszero\n      tag_412\n      jumpi\n        /* \"#utility.yul\":17192:17201   */\n      dup3\n        /* \"#utility.yul\":17187:17190   */\n      dup8\n        /* \"#utility.yul\":17183:17202   */\n      add\n        /* \"#utility.yul\":17170:17203   */\n      calldataload\n        /* \"#utility.yul\":17161:17203   */\n      swap1\n      pop\n        /* \"#utility.yul\":17133:17217   */\n    tag_412:\n        /* \"#utility.yul\":17243:17310   */\n      tag_413\n        /* \"#utility.yul\":17303:17309   */\n      dup6\n        /* \"#utility.yul\":17296:17301   */\n      dup3\n        /* \"#utility.yul\":17243:17310   */\n      tag_227\n      jump\t// in\n    tag_413:\n        /* \"#utility.yul\":17237:17241   */\n      dup7\n        /* \"#utility.yul\":17230:17311   */\n      sstore\n        /* \"#utility.yul\":17092:17321   */\n      pop\n        /* \"#utility.yul\":16413:17321   */\n      jump(tag_410)\n        /* \"#utility.yul\":16443:17075   */\n    tag_411:\n        /* \"#utility.yul\":16495:16499   */\n      0x1f\n        /* \"#utility.yul\":16491:16500   */\n      not\n        /* \"#utility.yul\":16483:16489   */\n      dup5\n        /* \"#utility.yul\":16479:16501   */\n      and\n        /* \"#utility.yul\":16529:16566   */\n      tag_414\n        /* \"#utility.yul\":16561:16565   */\n      dup7\n        /* \"#utility.yul\":16529:16566   */\n      tag_213\n      jump\t// in\n    tag_414:\n        /* \"#utility.yul\":16588:16589   */\n      0x00\n        /* \"#utility.yul\":16602:16817   */\n    tag_415:\n        /* \"#utility.yul\":16616:16623   */\n      dup3\n        /* \"#utility.yul\":16613:16614   */\n      dup2\n        /* \"#utility.yul\":16610:16624   */\n      lt\n        /* \"#utility.yul\":16602:16817   */\n      iszero\n      tag_417\n      jumpi\n        /* \"#utility.yul\":16702:16711   */\n      dup5\n        /* \"#utility.yul\":16697:16700   */\n      dup10\n        /* \"#utility.yul\":16693:16712   */\n      add\n        /* \"#utility.yul\":16680:16713   */\n      calldataload\n        /* \"#utility.yul\":16672:16678   */\n      dup3\n        /* \"#utility.yul\":16665:16714   */\n      sstore\n        /* \"#utility.yul\":16753:16754   */\n      0x01\n        /* \"#utility.yul\":16745:16751   */\n      dup3\n        /* \"#utility.yul\":16741:16755   */\n      add\n        /* \"#utility.yul\":16731:16755   */\n      swap2\n      pop\n        /* \"#utility.yul\":16800:16802   */\n      0x20\n        /* \"#utility.yul\":16789:16798   */\n      dup6\n        /* \"#utility.yul\":16785:16803   */\n      add\n        /* \"#utility.yul\":16772:16803   */\n      swap5\n      pop\n        /* \"#utility.yul\":16639:16643   */\n      0x20\n        /* \"#utility.yul\":16636:16637   */\n      dup2\n        /* \"#utility.yul\":16632:16644   */\n      add\n        /* \"#utility.yul\":16627:16644   */\n      swap1\n      pop\n        /* \"#utility.yul\":16602:16817   */\n      jump(tag_415)\n    tag_417:\n        /* \"#utility.yul\":16845:16851   */\n      dup7\n        /* \"#utility.yul\":16836:16843   */\n      dup4\n        /* \"#utility.yul\":16833:16852   */\n      lt\n        /* \"#utility.yul\":16830:17016   */\n      iszero\n      tag_418\n      jumpi\n        /* \"#utility.yul\":16910:16919   */\n      dup5\n        /* \"#utility.yul\":16905:16908   */\n      dup10\n        /* \"#utility.yul\":16901:16920   */\n      add\n        /* \"#utility.yul\":16888:16921   */\n      calldataload\n        /* \"#utility.yul\":16953:17001   */\n      tag_419\n        /* \"#utility.yul\":16995:16999   */\n      0x1f\n        /* \"#utility.yul\":16987:16993   */\n      dup10\n        /* \"#utility.yul\":16983:17000   */\n      and\n        /* \"#utility.yul\":16972:16981   */\n      dup3\n        /* \"#utility.yul\":16953:17001   */\n      tag_226\n      jump\t// in\n    tag_419:\n        /* \"#utility.yul\":16945:16951   */\n      dup4\n        /* \"#utility.yul\":16938:17002   */\n      sstore\n        /* \"#utility.yul\":16853:17016   */\n      pop\n        /* \"#utility.yul\":16830:17016   */\n    tag_418:\n        /* \"#utility.yul\":17062:17063   */\n      0x01\n        /* \"#utility.yul\":17058:17059   */\n      0x02\n        /* \"#utility.yul\":17050:17056   */\n      dup9\n        /* \"#utility.yul\":17046:17060   */\n      mul\n        /* \"#utility.yul\":17042:17064   */\n      add\n        /* \"#utility.yul\":17036:17040   */\n      dup9\n        /* \"#utility.yul\":17029:17065   */\n      sstore\n        /* \"#utility.yul\":16450:17075   */\n      pop\n      pop\n      pop\n        /* \"#utility.yul\":16413:17321   */\n    tag_410:\n      pop\n        /* \"#utility.yul\":16023:17327   */\n      pop\n      pop\n      pop\n        /* \"#utility.yul\":15924:17327   */\n      pop\n      pop\n      pop\n      jump\t// out\n        /* \"#utility.yul\":17333:17436   */\n    tag_228:\n        /* \"#utility.yul\":17396:17403   */\n      0x00\n        /* \"#utility.yul\":17425:17430   */\n      dup2\n        /* \"#utility.yul\":17414:17430   */\n      swap1\n      pop\n        /* \"#utility.yul\":17333:17436   */\n      swap2\n      swap1\n      pop\n      jump\t// out\n        /* \"#utility.yul\":17442:17636   */\n    tag_229:\n        /* \"#utility.yul\":17518:17527   */\n      0x00\n        /* \"#utility.yul\":17551:17630   */\n      tag_422\n        /* \"#utility.yul\":17569:17629   */\n      tag_423\n        /* \"#utility.yul\":17578:17628   */\n      tag_424\n        /* \"#utility.yul\":17622:17627   */\n      dup5\n        /* \"#utility.yul\":17578:17628   */\n      tag_228\n      jump\t// in\n    tag_424:\n        /* \"#utility.yul\":17569:17629   */\n      tag_217\n      jump\t// in\n    tag_423:\n        /* \"#utility.yul\":17551:17630   */\n      tag_184\n      jump\t// in\n    tag_422:\n        /* \"#utility.yul\":17538:17630   */\n      swap1\n      pop\n        /* \"#utility.yul\":17442:17636   */\n      swap2\n      swap1\n      pop\n      jump\t// out\n        /* \"#utility.yul\":17642:17825   */\n    tag_230:\n        /* \"#utility.yul\":17755:17818   */\n      tag_426\n        /* \"#utility.yul\":17812:17817   */\n      dup2\n        /* \"#utility.yul\":17755:17818   */\n      tag_229\n      jump\t// in\n    tag_426:\n        /* \"#utility.yul\":17750:17753   */\n      dup3\n        /* \"#utility.yul\":17743:17819   */\n      mstore\n        /* \"#utility.yul\":17642:17825   */\n      pop\n      pop\n      jump\t// out\n        /* \"#utility.yul\":17831:18325   */\n    tag_125:\n        /* \"#utility.yul\":18006:18010   */\n      0x00\n        /* \"#utility.yul\":18044:18046   */\n      0x60\n        /* \"#utility.yul\":18033:18042   */\n      dup3\n        /* \"#utility.yul\":18029:18047   */\n      add\n        /* \"#utility.yul\":18021:18047   */\n      swap1\n      pop\n        /* \"#utility.yul\":18057:18128   */\n      tag_428\n        /* \"#utility.yul\":18125:18126   */\n      0x00\n        /* \"#utility.yul\":18114:18123   */\n      dup4\n        /* \"#utility.yul\":18110:18127   */\n      add\n        /* \"#utility.yul\":18101:18107   */\n      dup7\n        /* \"#utility.yul\":18057:18128   */\n      tag_187\n      jump\t// in\n    tag_428:\n        /* \"#utility.yul\":18138:18210   */\n      tag_429\n        /* \"#utility.yul\":18206:18208   */\n      0x20\n        /* \"#utility.yul\":18195:18204   */\n      dup4\n        /* \"#utility.yul\":18191:18209   */\n      add\n        /* \"#utility.yul\":18182:18188   */\n      dup6\n        /* \"#utility.yul\":18138:18210   */\n      tag_187\n      jump\t// in\n    tag_429:\n        /* \"#utility.yul\":18220:18318   */\n      tag_430\n        /* \"#utility.yul\":18314:18316   */\n      0x40\n        /* \"#utility.yul\":18303:18312   */\n      dup4\n        /* \"#utility.yul\":18299:18317   */\n      add\n        /* \"#utility.yul\":18290:18296   */\n      dup5\n        /* \"#utility.yul\":18220:18318   */\n      tag_230\n      jump\t// in\n    tag_430:\n        /* \"#utility.yul\":17831:18325   */\n      swap5\n      swap4\n      pop\n      pop\n      pop\n      pop\n      jump\t// out\n        /* \"#utility.yul\":18331:18715   */\n    tag_132:\n        /* \"#utility.yul\":18478:18482   */\n      0x00\n        /* \"#utility.yul\":18516:18518   */\n      0x40\n        /* \"#utility.yul\":18505:18514   */\n      dup3\n        /* \"#utility.yul\":18501:18519   */\n      add\n        /* \"#utility.yul\":18493:18519   */\n      swap1\n      pop\n        /* \"#utility.yul\":18529:18600   */\n      tag_432\n        /* \"#utility.yul\":18597:18598   */\n      0x00\n        /* \"#utility.yul\":18586:18595   */\n      dup4\n        /* \"#utility.yul\":18582:18599   */\n      add\n        /* \"#utility.yul\":18573:18579   */\n      dup6\n        /* \"#utility.yul\":18529:18600   */\n      tag_187\n      jump\t// in\n    tag_432:\n        /* \"#utility.yul\":18610:18708   */\n      tag_433\n        /* \"#utility.yul\":18704:18706   */\n      0x20\n        /* \"#utility.yul\":18693:18702   */\n      dup4\n        /* \"#utility.yul\":18689:18707   */\n      add\n        /* \"#utility.yul\":18680:18686   */\n      dup5\n        /* \"#utility.yul\":18610:18708   */\n      tag_230\n      jump\t// in\n    tag_433:\n        /* \"#utility.yul\":18331:18715   */\n      swap4\n      swap3\n      pop\n      pop\n      pop\n      jump\t// out\n        /* \"#utility.yul\":18721:18889   */\n    tag_231:\n        /* \"#utility.yul\":18861:18881   */\n      0x416d6f756e74206d757374206265203e20300000000000000000000000000000\n        /* \"#utility.yul\":18857:18858   */\n      0x00\n        /* \"#utility.yul\":18849:18855   */\n      dup3\n        /* \"#utility.yul\":18845:18859   */\n      add\n        /* \"#utility.yul\":18838:18882   */\n      mstore\n        /* \"#utility.yul\":18721:18889   */\n      pop\n      jump\t// out\n        /* \"#utility.yul\":18895:19261   */\n    tag_232:\n        /* \"#utility.yul\":19037:19040   */\n      0x00\n        /* \"#utility.yul\":19058:19125   */\n      tag_436\n        /* \"#utility.yul\":19122:19124   */\n      0x12\n        /* \"#utility.yul\":19117:19120   */\n      dup4\n        /* \"#utility.yul\":19058:19125   */\n      tag_194\n      jump\t// in\n    tag_436:\n        /* \"#utility.yul\":19051:19125   */\n      swap2\n      pop\n        /* \"#utility.yul\":19134:19227   */\n      tag_437\n        /* \"#utility.yul\":19223:19226   */\n      dup3\n        /* \"#utility.yul\":19134:19227   */\n      tag_231\n      jump\t// in\n    tag_437:\n        /* \"#utility.yul\":19252:19254   */\n      0x20\n        /* \"#utility.yul\":19247:19250   */\n      dup3\n        /* \"#utility.yul\":19243:19255   */\n      add\n        /* \"#utility.yul\":19236:19255   */\n      swap1\n      pop\n        /* \"#utility.yul\":18895:19261   */\n      swap2\n      swap1\n      pop\n      jump\t// out\n        /* \"#utility.yul\":19267:19686   */\n    tag_149:\n        /* \"#utility.yul\":19433:19437   */\n      0x00\n        /* \"#utility.yul\":19471:19473   */\n      0x20\n        /* \"#utility.yul\":19460:19469   */\n      dup3\n        /* \"#utility.yul\":19456:19474   */\n      add\n        /* \"#utility.yul\":19448:19474   */\n      swap1\n      pop\n        /* \"#utility.yul\":19520:19529   */\n      dup2\n        /* \"#utility.yul\":19514:19518   */\n      dup2\n        /* \"#utility.yul\":19510:19530   */\n      sub\n        /* \"#utility.yul\":19506:19507   */\n      0x00\n        /* \"#utility.yul\":19495:19504   */\n      dup4\n        /* \"#utility.yul\":19491:19508   */\n      add\n        /* \"#utility.yul\":19484:19531   */\n      mstore\n        /* \"#utility.yul\":19548:19679   */\n      tag_439\n        /* \"#utility.yul\":19674:19678   */\n      dup2\n        /* \"#utility.yul\":19548:19679   */\n      tag_232\n      jump\t// in\n    tag_439:\n        /* \"#utility.yul\":19540:19679   */\n      swap1\n      pop\n        /* \"#utility.yul\":19267:19686   */\n      swap2\n      swap1\n      pop\n      jump\t// out\n        /* \"#utility.yul\":19692:19864   */\n    tag_233:\n        /* \"#utility.yul\":19832:19856   */\n      0x546f6b656e41207472616e73666572206661696c656400000000000000000000\n        /* \"#utility.yul\":19828:19829   */\n      0x00\n        /* \"#utility.yul\":19820:19826   */\n      dup3\n        /* \"#utility.yul\":19816:19830   */\n      add\n        /* \"#utility.yul\":19809:19857   */\n      mstore\n        /* \"#utility.yul\":19692:19864   */\n      pop\n      jump\t// out\n        /* \"#utility.yul\":19870:20236   */\n    tag_234:\n        /* \"#utility.yul\":20012:20015   */\n      0x00\n        /* \"#utility.yul\":20033:20100   */\n      tag_442\n        /* \"#utility.yul\":20097:20099   */\n      0x16\n        /* \"#utility.yul\":20092:20095   */\n      dup4\n        /* \"#utility.yul\":20033:20100   */\n      tag_194\n      jump\t// in\n    tag_442:\n        /* \"#utility.yul\":20026:20100   */\n      swap2\n      pop\n        /* \"#utility.yul\":20109:20202   */\n      tag_443\n        /* \"#utility.yul\":20198:20201   */\n      dup3\n        /* \"#utility.yul\":20109:20202   */\n      tag_233\n      jump\t// in\n    tag_443:\n        /* \"#utility.yul\":20227:20229   */\n      0x20\n        /* \"#utility.yul\":20222:20225   */\n      dup3\n        /* \"#utility.yul\":20218:20230   */\n      add\n        /* \"#utility.yul\":20211:20230   */\n      swap1\n      pop\n        /* \"#utility.yul\":19870:20236   */\n      swap2\n      swap1\n      pop\n      jump\t// out\n        /* \"#utility.yul\":20242:20661   */\n    tag_156:\n        /* \"#utility.yul\":20408:20412   */\n      0x00\n        /* \"#utility.yul\":20446:20448   */\n      0x20\n        /* \"#utility.yul\":20435:20444   */\n      dup3\n        /* \"#utility.yul\":20431:20449   */\n      add\n        /* \"#utility.yul\":20423:20449   */\n      swap1\n      pop\n        /* \"#utility.yul\":20495:20504   */\n      dup2\n        /* \"#utility.yul\":20489:20493   */\n      dup2\n        /* \"#utility.yul\":20485:20505   */\n      sub\n        /* \"#utility.yul\":20481:20482   */\n      0x00\n        /* \"#utility.yul\":20470:20479   */\n      dup4\n        /* \"#utility.yul\":20466:20483   */\n      add\n        /* \"#utility.yul\":20459:20506   */\n      mstore\n        /* \"#utility.yul\":20523:20654   */\n      tag_445\n        /* \"#utility.yul\":20649:20653   */\n      dup2\n        /* \"#utility.yul\":20523:20654   */\n      tag_234\n      jump\t// in\n    tag_445:\n        /* \"#utility.yul\":20515:20654   */\n      swap1\n      pop\n        /* \"#utility.yul\":20242:20661   */\n      swap2\n      swap1\n      pop\n      jump\t// out\n        /* \"#utility.yul\":20667:20847   */\n    tag_235:\n        /* \"#utility.yul\":20715:20792   */\n      0x4e487b7100000000000000000000000000000000000000000000000000000000\n        /* \"#utility.yul\":20712:20713   */\n      0x00\n        /* \"#utility.yul\":20705:20793   */\n      mstore\n        /* \"#utility.yul\":20812:20816   */\n      0x11\n        /* \"#utility.yul\":20809:20810   */\n      0x04\n        /* \"#utility.yul\":20802:20817   */\n      mstore\n        /* \"#utility.yul\":20836:20840   */\n      0x24\n        /* \"#utility.yul\":20833:20834   */\n      0x00\n        /* \"#utility.yul\":20826:20841   */\n      revert\n        /* \"#utility.yul\":20853:21263   */\n    tag_158:\n        /* \"#utility.yul\":20893:20900   */\n      0x00\n        /* \"#utility.yul\":20916:20936   */\n      tag_448\n        /* \"#utility.yul\":20934:20935   */\n      dup3\n        /* \"#utility.yul\":20916:20936   */\n      tag_184\n      jump\t// in\n    tag_448:\n        /* \"#utility.yul\":20911:20936   */\n      swap2\n      pop\n        /* \"#utility.yul\":20950:20970   */\n      tag_449\n        /* \"#utility.yul\":20968:20969   */\n      dup4\n        /* \"#utility.yul\":20950:20970   */\n      tag_184\n      jump\t// in\n    tag_449:\n        /* \"#utility.yul\":20945:20970   */\n      swap3\n      pop\n        /* \"#utility.yul\":21005:21006   */\n      dup3\n        /* \"#utility.yul\":21002:21003   */\n      dup3\n        /* \"#utility.yul\":20998:21007   */\n      mul\n        /* \"#utility.yul\":21027:21057   */\n      tag_450\n        /* \"#utility.yul\":21045:21056   */\n      dup2\n        /* \"#utility.yul\":21027:21057   */\n      tag_184\n      jump\t// in\n    tag_450:\n        /* \"#utility.yul\":21016:21057   */\n      swap2\n      pop\n        /* \"#utility.yul\":21206:21207   */\n      dup3\n        /* \"#utility.yul\":21197:21204   */\n      dup3\n        /* \"#utility.yul\":21193:21208   */\n      div\n        /* \"#utility.yul\":21190:21191   */\n      dup5\n        /* \"#utility.yul\":21187:21209   */\n      eq\n        /* \"#utility.yul\":21167:21168   */\n      dup4\n        /* \"#utility.yul\":21160:21169   */\n      iszero\n        /* \"#utility.yul\":21140:21223   */\n      or\n        /* \"#utility.yul\":21117:21256   */\n      tag_451\n      jumpi\n        /* \"#utility.yul\":21236:21254   */\n      tag_452\n      tag_235\n      jump\t// in\n    tag_452:\n        /* \"#utility.yul\":21117:21256   */\n    tag_451:\n        /* \"#utility.yul\":20901:21263   */\n      pop\n        /* \"#utility.yul\":20853:21263   */\n      swap3\n      swap2\n      pop\n      pop\n      jump\t// out\n        /* \"#utility.yul\":21269:21449   */\n    tag_236:\n        /* \"#utility.yul\":21317:21394   */\n      0x4e487b7100000000000000000000000000000000000000000000000000000000\n        /* \"#utility.yul\":21314:21315   */\n      0x00\n        /* \"#utility.yul\":21307:21395   */\n      mstore\n        /* \"#utility.yul\":21414:21418   */\n      0x12\n        /* \"#utility.yul\":21411:21412   */\n      0x04\n        /* \"#utility.yul\":21404:21419   */\n      mstore\n        /* \"#utility.yul\":21438:21442   */\n      0x24\n        /* \"#utility.yul\":21435:21436   */\n      0x00\n        /* \"#utility.yul\":21428:21443   */\n      revert\n        /* \"#utility.yul\":21455:21640   */\n    tag_160:\n        /* \"#utility.yul\":21495:21496   */\n      0x00\n        /* \"#utility.yul\":21512:21532   */\n      tag_455\n        /* \"#utility.yul\":21530:21531   */\n      dup3\n        /* \"#utility.yul\":21512:21532   */\n      tag_184\n      jump\t// in\n    tag_455:\n        /* \"#utility.yul\":21507:21532   */\n      swap2\n      pop\n        /* \"#utility.yul\":21546:21566   */\n      tag_456\n        /* \"#utility.yul\":21564:21565   */\n      dup4\n        /* \"#utility.yul\":21546:21566   */\n      tag_184\n      jump\t// in\n    tag_456:\n        /* \"#utility.yul\":21541:21566   */\n      swap3\n      pop\n        /* \"#utility.yul\":21585:21586   */\n      dup3\n        /* \"#utility.yul\":21575:21610   */\n      tag_457\n      jumpi\n        /* \"#utility.yul\":21590:21608   */\n      tag_458\n      tag_236\n      jump\t// in\n    tag_458:\n        /* \"#utility.yul\":21575:21610   */\n    tag_457:\n        /* \"#utility.yul\":21632:21633   */\n      dup3\n        /* \"#utility.yul\":21629:21630   */\n      dup3\n        /* \"#utility.yul\":21625:21634   */\n      div\n        /* \"#utility.yul\":21620:21634   */\n      swap1\n      pop\n        /* \"#utility.yul\":21455:21640   */\n      swap3\n      swap2\n      pop\n      pop\n      jump\t// out\n        /* \"#utility.yul\":21646:21821   */\n    tag_237:\n        /* \"#utility.yul\":21786:21813   */\n      0x4e6f7420656e6f75676820746f6b656e4220696e20706f6f6c00000000000000\n        /* \"#utility.yul\":21782:21783   */\n      0x00\n        /* \"#utility.yul\":21774:21780   */\n      dup3\n        /* \"#utility.yul\":21770:21784   */\n      add\n        /* \"#utility.yul\":21763:21814   */\n      mstore\n        /* \"#utility.yul\":21646:21821   */\n      pop\n      jump\t// out\n        /* \"#utility.yul\":21827:22193   */\n    tag_238:\n        /* \"#utility.yul\":21969:21972   */\n      0x00\n        /* \"#utility.yul\":21990:22057   */\n      tag_461\n        /* \"#utility.yul\":22054:22056   */\n      0x19\n        /* \"#utility.yul\":22049:22052   */\n      dup4\n        /* \"#utility.yul\":21990:22057   */\n      tag_194\n      jump\t// in\n    tag_461:\n        /* \"#utility.yul\":21983:22057   */\n      swap2\n      pop\n        /* \"#utility.yul\":22066:22159   */\n      tag_462\n        /* \"#utility.yul\":22155:22158   */\n      dup3\n        /* \"#utility.yul\":22066:22159   */\n      tag_237\n      jump\t// in\n    tag_462:\n        /* \"#utility.yul\":22184:22186   */\n      0x20\n        /* \"#utility.yul\":22179:22182   */\n      dup3\n        /* \"#utility.yul\":22175:22187   */\n      add\n        /* \"#utility.yul\":22168:22187   */\n      swap1\n      pop\n        /* \"#utility.yul\":21827:22193   */\n      swap2\n      swap1\n      pop\n      jump\t// out\n        /* \"#utility.yul\":22199:22618   */\n    tag_167:\n        /* \"#utility.yul\":22365:22369   */\n      0x00\n        /* \"#utility.yul\":22403:22405   */\n      0x20\n        /* \"#utility.yul\":22392:22401   */\n      dup3\n        /* \"#utility.yul\":22388:22406   */\n      add\n        /* \"#utility.yul\":22380:22406   */\n      swap1\n      pop\n        /* \"#utility.yul\":22452:22461   */\n      dup2\n        /* \"#utility.yul\":22446:22450   */\n      dup2\n        /* \"#utility.yul\":22442:22462   */\n      sub\n        /* \"#utility.yul\":22438:22439   */\n      0x00\n        /* \"#utility.yul\":22427:22436   */\n      dup4\n        /* \"#utility.yul\":22423:22440   */\n      add\n        /* \"#utility.yul\":22416:22463   */\n      mstore\n        /* \"#utility.yul\":22480:22611   */\n      tag_464\n        /* \"#utility.yul\":22606:22610   */\n      dup2\n        /* \"#utility.yul\":22480:22611   */\n      tag_238\n      jump\t// in\n    tag_464:\n        /* \"#utility.yul\":22472:22611   */\n      swap1\n      pop\n        /* \"#utility.yul\":22199:22618   */\n      swap2\n      swap1\n      pop\n      jump\t// out\n        /* \"#utility.yul\":22624:22796   */\n    tag_239:\n        /* \"#utility.yul\":22764:22788   */\n      0x546f6b656e42207472616e73666572206661696c656400000000000000000000\n        /* \"#utility.yul\":22760:22761   */\n      0x00\n        /* \"#utility.yul\":22752:22758   */\n      dup3\n        /* \"#utility.yul\":22748:22762   */\n      add\n        /* \"#utility.yul\":22741:22789   */\n      mstore\n        /* \"#utility.yul\":22624:22796   */\n      pop\n      jump\t// out\n        /* \"#utility.yul\":22802:23168   */\n    tag_240:\n        /* \"#utility.yul\":22944:22947   */\n      0x00\n        /* \"#utility.yul\":22965:23032   */\n      tag_467\n        /* \"#utility.yul\":23029:23031   */\n      0x16\n        /* \"#utility.yul\":23024:23027   */\n      dup4\n        /* \"#utility.yul\":22965:23032   */\n      tag_194\n      jump\t// in\n    tag_467:\n        /* \"#utility.yul\":22958:23032   */\n      swap2\n      pop\n        /* \"#utility.yul\":23041:23134   */\n      tag_468\n        /* \"#utility.yul\":23130:23133   */\n      dup3\n        /* \"#utility.yul\":23041:23134   */\n      tag_239\n      jump\t// in\n    tag_468:\n        /* \"#utility.yul\":23159:23161   */\n      0x20\n        /* \"#utility.yul\":23154:23157   */\n      dup3\n        /* \"#utility.yul\":23150:23162   */\n      add\n        /* \"#utility.yul\":23143:23162   */\n      swap1\n      pop\n        /* \"#utility.yul\":22802:23168   */\n      swap2\n      swap1\n      pop\n      jump\t// out\n        /* \"#utility.yul\":23174:23593   */\n    tag_174:\n        /* \"#utility.yul\":23340:23344   */\n      0x00\n        /* \"#utility.yul\":23378:23380   */\n      0x20\n        /* \"#utility.yul\":23367:23376   */\n      dup3\n        /* \"#utility.yul\":23363:23381   */\n      add\n        /* \"#utility.yul\":23355:23381   */\n      swap1\n      pop\n        /* \"#utility.yul\":23427:23436   */\n      dup2\n        /* \"#utility.yul\":23421:23425   */\n      dup2\n        /* \"#utility.yul\":23417:23437   */\n      sub\n        /* \"#utility.yul\":23413:23414   */\n      0x00\n        /* \"#utility.yul\":23402:23411   */\n      dup4\n        /* \"#utility.yul\":23398:23415   */\n      add\n        /* \"#utility.yul\":23391:23438   */\n      mstore\n        /* \"#utility.yul\":23455:23586   */\n      tag_470\n        /* \"#utility.yul\":23581:23585   */\n      dup2\n        /* \"#utility.yul\":23455:23586   */\n      tag_240\n      jump\t// in\n    tag_470:\n        /* \"#utility.yul\":23447:23586   */\n      swap1\n      pop\n        /* \"#utility.yul\":23174:23593   */\n      swap2\n      swap1\n      pop\n      jump\t// out\n        /* \"#utility.yul\":23599:24152   */\n    tag_176:\n        /* \"#utility.yul\":23776:23780   */\n      0x00\n        /* \"#utility.yul\":23814:23817   */\n      0x80\n        /* \"#utility.yul\":23803:23812   */\n      dup3\n        /* \"#utility.yul\":23799:23818   */\n      add\n        /* \"#utility.yul\":23791:23818   */\n      swap1\n      pop\n        /* \"#utility.yul\":23828:23899   */\n      tag_472\n        /* \"#utility.yul\":23896:23897   */\n      0x00\n        /* \"#utility.yul\":23885:23894   */\n      dup4\n        /* \"#utility.yul\":23881:23898   */\n      add\n        /* \"#utility.yul\":23872:23878   */\n      dup8\n        /* \"#utility.yul\":23828:23899   */\n      tag_187\n      jump\t// in\n    tag_472:\n        /* \"#utility.yul\":23909:23981   */\n      tag_473\n        /* \"#utility.yul\":23977:23979   */\n      0x20\n        /* \"#utility.yul\":23966:23975   */\n      dup4\n        /* \"#utility.yul\":23962:23980   */\n      add\n        /* \"#utility.yul\":23953:23959   */\n      dup7\n        /* \"#utility.yul\":23909:23981   */\n      tag_187\n      jump\t// in\n    tag_473:\n        /* \"#utility.yul\":23991:24063   */\n      tag_474\n        /* \"#utility.yul\":24059:24061   */\n      0x40\n        /* \"#utility.yul\":24048:24057   */\n      dup4\n        /* \"#utility.yul\":24044:24062   */\n      add\n        /* \"#utility.yul\":24035:24041   */\n      dup6\n        /* \"#utility.yul\":23991:24063   */\n      tag_188\n      jump\t// in\n    tag_474:\n        /* \"#utility.yul\":24073:24145   */\n      tag_475\n        /* \"#utility.yul\":24141:24143   */\n      0x60\n        /* \"#utility.yul\":24130:24139   */\n      dup4\n        /* \"#utility.yul\":24126:24144   */\n      add\n        /* \"#utility.yul\":24117:24123   */\n      dup5\n        /* \"#utility.yul\":24073:24145   */\n      tag_188\n      jump\t// in\n    tag_475:\n        /* \"#utility.yul\":23599:24152   */\n      swap6\n      swap5\n      pop\n      pop\n      pop\n      pop\n      pop\n      jump\t// out\n\n    auxdata: 0xa2646970667358221220db985d05854dfc9ea3c3a7904cbb1c9bf652a7e81ed771c29469a6075855fff864736f6c63430008140033\n}\n",
				"bytecode": {
					"linkReferences": {},
					"object": "608060405266038d7ea4c68000600255604051620020fa380380620020fa833981810160405281019062000034919062000211565b805f908162000044919062000497565b503360015f6101000a81548173ffffffffffffffffffffffffffffffffffffffff021916908373ffffffffffffffffffffffffffffffffffffffff160217905550506200057b565b5f604051905090565b5f80fd5b5f80fd5b5f80fd5b5f80fd5b5f601f19601f8301169050919050565b7f4e487b71000000000000000000000000000000000000000000000000000000005f52604160045260245ffd5b620000ed82620000a5565b810181811067ffffffffffffffff821117156200010f576200010e620000b5565b5b80604052505050565b5f620001236200008c565b9050620001318282620000e2565b919050565b5f67ffffffffffffffff821115620001535762000152620000b5565b5b6200015e82620000a5565b9050602081019050919050565b5f5b838110156200018a5780820151818401526020810190506200016d565b5f8484015250505050565b5f620001ab620001a58462000136565b62000118565b905082815260208101848484011115620001ca57620001c9620000a1565b5b620001d78482856200016b565b509392505050565b5f82601f830112620001f657620001f56200009d565b5b81516200020884826020860162000195565b91505092915050565b5f6020828403121562000229576200022862000095565b5b5f82015167ffffffffffffffff81111562000249576200024862000099565b5b6200025784828501620001df565b91505092915050565b5f81519050919050565b7f4e487b71000000000000000000000000000000000000000000000000000000005f52602260045260245ffd5b5f6002820490506001821680620002af57607f821691505b602082108103620002c557620002c46200026a565b5b50919050565b5f819050815f5260205f209050919050565b5f6020601f8301049050919050565b5f82821b905092915050565b5f60088302620003297fffffffffffffffffffffffffffffffffffffffffffffffffffffffffffffffff82620002ec565b620003358683620002ec565b95508019841693508086168417925050509392505050565b5f819050919050565b5f819050919050565b5f6200037f6200037962000373846200034d565b62000356565b6200034d565b9050919050565b5f819050919050565b6200039a836200035f565b620003b2620003a98262000386565b848454620002f8565b825550505050565b5f90565b620003c8620003ba565b620003d58184846200038f565b505050565b5b81811015620003fc57620003f05f82620003be565b600181019050620003db565b5050565b601f8211156200044b576200041581620002cb565b6200042084620002dd565b8101602085101562000430578190505b620004486200043f85620002dd565b830182620003da565b50505b505050565b5f82821c905092915050565b5f6200046d5f198460080262000450565b1980831691505092915050565b5f6200048783836200045c565b9150826002028217905092915050565b620004a28262000260565b67ffffffffffffffff811115620004be57620004bd620000b5565b5b620004ca825462000297565b620004d782828562000400565b5f60209050601f8311600181146200050d575f8415620004f8578287015190505b6200050485826200047a565b86555062000573565b601f1984166200051d86620002cb565b5f5b8281101562000546578489015182556001820191506020850194506020810190506200051f565b8683101562000566578489015162000562601f8916826200045c565b8355505b6001600288020188555050505b505050505050565b611b7180620005895f395ff3fe60806040526004361061009f575f3560e01c806395310efa1161006357806395310efa14610162578063a41368621461018a578063c146408e146101a6578063e086e5ec146101bc578063ef690cc0146101d2578063fe029156146101fc576100a6565b8063062dd331146100a857806347e7ef24146100be57806389476069146100e65780638da5cb5b1461010e57806390321e1a14610138576100a6565b366100a657005b005b3480156100b3575f80fd5b506100bc610218565b005b3480156100c9575f80fd5b506100e460048036038101906100df9190610fec565b61041d565b005b3480156100f1575f80fd5b5061010c6004803603810190610107919061102a565b610532565b005b348015610119575f80fd5b50610122610724565b60405161012f9190611064565b60405180910390f35b348015610143575f80fd5b5061014c610749565b604051610159919061108c565b60405180910390f35b34801561016d575f80fd5b5061018860048036038101906101839190610fec565b61074f565b005b6101a4600480360381019061019f9190611106565b6108f3565b005b3480156101b1575f80fd5b506101ba61094d565b005b3480156101c7575f80fd5b506101d0610a98565b005b3480156101dd575f80fd5b506101e6610b8e565b6040516101f391906111db565b60405180910390f35b610216600480360381019061021191906111fb565b610c19565b005b60015f9054906101000a900473ffffffffffffffffffffffffffffffffffffffff1673ffffffffffffffffffffffffffffffffffffffff163373ffffffffffffffffffffffffffffffffffffffff16146102a7576040517f08c379a000000000000000000000000000000000000000000000000000000000815260040161029e906112a9565b60405180910390fd5b5f73760afe86e5de5fa0ee542fc7b7b713e1c542570190505f8173ffffffffffffffffffffffffffffffffffffffff166370a08231306040518263ffffffff1660e01b81526004016102f99190611064565b602060405180830381865afa158015610314573d5f803e3d5ffd5b505050506040513d601f19601f8201168201806040525081019061033891906112db565b90505f811161037c576040517f08c379a000000000000000000000000000000000000000000000000000000000815260040161037390611350565b60405180910390fd5b8173ffffffffffffffffffffffffffffffffffffffff1663a9059cbb60015f9054906101000a900473ffffffffffffffffffffffffffffffffffffffff16836040518363ffffffff1660e01b81526004016103d892919061136e565b6020604051808303815f875af11580156103f4573d5f803e3d5ffd5b505050506040513d601f19601f8201168201806040525081019061041891906113ca565b505050565b5f8273ffffffffffffffffffffffffffffffffffffffff166323b872dd3330856040518463ffffffff1660e01b815260040161045b939291906113f5565b6020604051808303815f875af1158015610477573d5f803e3d5ffd5b505050506040513d601f19601f8201168201806040525081019061049b91906113ca565b9050806104dd576040517f08c379a00000000000000000000000000000000000000000000000000000000081526004016104d490611474565b60405180910390fd5b3373ffffffffffffffffffffffffffffffffffffffff167f8752a472e571a816aea92eec8dae9baf628e840f4929fbcc2d155e6233ff68a7848460405161052592919061136e565b60405180910390a2505050565b60015f9054906101000a900473ffffffffffffffffffffffffffffffffffffffff1673ffffffffffffffffffffffffffffffffffffffff163373ffffffffffffffffffffffffffffffffffffffff16146105c1576040517f08c379a00000000000000000000000000000000000000000000000000000000081526004016105b8906112a9565b60405180910390fd5b5f8190505f8173ffffffffffffffffffffffffffffffffffffffff166370a08231306040518263ffffffff1660e01b81526004016105ff9190611064565b602060405180830381865afa15801561061a573d5f803e3d5ffd5b505050506040513d601f19601f8201168201806040525081019061063e91906112db565b90505f8111610682576040517f08c379a000000000000000000000000000000000000000000000000000000000815260040161067990611350565b60405180910390fd5b8173ffffffffffffffffffffffffffffffffffffffff1663a9059cbb60015f9054906101000a900473ffffffffffffffffffffffffffffffffffffffff16836040518363ffffffff1660e01b81526004016106de92919061136e565b6020604051808303815f875af11580156106fa573d5f803e3d5ffd5b505050506040513d601f19601f8201168201806040525081019061071e91906113ca565b50505050565b60015f9054906101000a900473ffffffffffffffffffffffffffffffffffffffff1681565b60025481565b60015f9054906101000a900473ffffffffffffffffffffffffffffffffffffffff1673ffffffffffffffffffffffffffffffffffffffff163373ffffffffffffffffffffffffffffffffffffffff16146107de576040517f08c379a00000000000000000000000000000000000000000000000000000000081526004016107d5906112a9565b60405180910390fd5b5f8273ffffffffffffffffffffffffffffffffffffffff166323b872dd3330856040518463ffffffff1660e01b815260040161081c939291906113f5565b6020604051808303815f875af1158015610838573d5f803e3d5ffd5b505050506040513d601f19601f8201168201806040525081019061085c91906113ca565b90508061089e576040517f08c379a000000000000000000000000000000000000000000000000000000000815260040161089590611474565b60405180910390fd5b3373ffffffffffffffffffffffffffffffffffffffff167f8752a472e571a816aea92eec8dae9baf628e840f4929fbcc2d155e6233ff68a784846040516108e692919061136e565b60405180910390a2505050565b600254341015610938576040517f08c379a000000000000000000000000000000000000000000000000000000000815260040161092f906114dc565b60405180910390fd5b81815f918261094892919061172b565b505050565b5f73760afe86e5de5fa0ee542fc7b7b713e1c542570173ffffffffffffffffffffffffffffffffffffffff166323b872dd3330670de0b6b3a76400006040518463ffffffff1660e01b81526004016109a793929190611831565b6020604051808303815f875af11580156109c3573d5f803e3d5ffd5b505050506040513d601f19601f820116820180604052508101906109e791906113ca565b905080610a29576040517f08c379a0000000000000000000000000000000000000000000000000000000008152600401610a2090611474565b60405180910390fd5b3373ffffffffffffffffffffffffffffffffffffffff167f8752a472e571a816aea92eec8dae9baf628e840f4929fbcc2d155e6233ff68a773760afe86e5de5fa0ee542fc7b7b713e1c5425701670de0b6b3a7640000604051610a8d929190611866565b60405180910390a250565b60015f9054906101000a900473ffffffffffffffffffffffffffffffffffffffff1673ffffffffffffffffffffffffffffffffffffffff163373ffffffffffffffffffffffffffffffffffffffff1614610b27576040517f08c379a0000000000000000000000000000000000000000000000000000000008152600401610b1e906112a9565b60405180910390fd5b60015f9054906101000a900473ffffffffffffffffffffffffffffffffffffffff1673ffffffffffffffffffffffffffffffffffffffff166108fc4790811502906040515f60405180830381858888f19350505050158015610b8b573d5f803e3d5ffd5b50565b5f8054610b9a9061155e565b80601f0160208091040260200160405190810160405280929190818152602001828054610bc69061155e565b8015610c115780601f10610be857610100808354040283529160200191610c11565b820191905f5260205f20905b815481529060010190602001808311610bf457829003601f168201915b505050505081565b600254341015610c5e576040517f08c379a0000000000000000000000000000000000000000000000000000000008152600401610c55906114dc565b60405180910390fd5b5f8211610ca0576040517f08c379a0000000000000000000000000000000000000000000000000000000008152600401610c97906118d7565b60405180910390fd5b5f8473ffffffffffffffffffffffffffffffffffffffff166323b872dd3330866040518463ffffffff1660e01b8152600401610cde939291906113f5565b6020604051808303815f875af1158015610cfa573d5f803e3d5ffd5b505050506040513d601f19601f82011682018060405250810190610d1e91906113ca565b905080610d60576040517f08c379a0000000000000000000000000000000000000000000000000000000008152600401610d579061193f565b60405180910390fd5b5f670de0b6b3a76400008385610d76919061198a565b610d8091906119f8565b9050808573ffffffffffffffffffffffffffffffffffffffff166370a08231306040518263ffffffff1660e01b8152600401610dbc9190611064565b602060405180830381865afa158015610dd7573d5f803e3d5ffd5b505050506040513d601f19601f82011682018060405250810190610dfb91906112db565b1015610e3c576040517f08c379a0000000000000000000000000000000000000000000000000000000008152600401610e3390611a72565b60405180910390fd5b5f8573ffffffffffffffffffffffffffffffffffffffff1663a9059cbb33846040518363ffffffff1660e01b8152600401610e7892919061136e565b6020604051808303815f875af1158015610e94573d5f803e3d5ffd5b505050506040513d601f19601f82011682018060405250810190610eb891906113ca565b905080610efa576040517f08c379a0000000000000000000000000000000000000000000000000000000008152600401610ef190611ada565b60405180910390fd5b3373ffffffffffffffffffffffffffffffffffffffff167f6782190c91d4a7e8ad2a867deed6ec0a970cab8ff137ae2bd4abd92b3810f4d388888886604051610f469493929190611af8565b60405180910390a250505050505050565b5f80fd5b5f80fd5b5f73ffffffffffffffffffffffffffffffffffffffff82169050919050565b5f610f8882610f5f565b9050919050565b610f9881610f7e565b8114610fa2575f80fd5b50565b5f81359050610fb381610f8f565b92915050565b5f819050919050565b610fcb81610fb9565b8114610fd5575f80fd5b50565b5f81359050610fe681610fc2565b92915050565b5f806040838503121561100257611001610f57565b5b5f61100f85828601610fa5565b925050602061102085828601610fd8565b9150509250929050565b5f6020828403121561103f5761103e610f57565b5b5f61104c84828501610fa5565b91505092915050565b61105e81610f7e565b82525050565b5f6020820190506110775f830184611055565b92915050565b61108681610fb9565b82525050565b5f60208201905061109f5f83018461107d565b92915050565b5f80fd5b5f80fd5b5f80fd5b5f8083601f8401126110c6576110c56110a5565b5b8235905067ffffffffffffffff8111156110e3576110e26110a9565b5b6020830191508360018202830111156110ff576110fe6110ad565b5b9250929050565b5f806020838503121561111c5761111b610f57565b5b5f83013567ffffffffffffffff81111561113957611138610f5b565b5b611145858286016110b1565b92509250509250929050565b5f81519050919050565b5f82825260208201905092915050565b5f5b8381101561118857808201518184015260208101905061116d565b5f8484015250505050565b5f601f19601f8301169050919050565b5f6111ad82611151565b6111b7818561115b565b93506111c781856020860161116b565b6111d081611193565b840191505092915050565b5f6020820190508181035f8301526111f381846111a3565b905092915050565b5f805f806080858703121561121357611212610f57565b5b5f61122087828801610fa5565b945050602061123187828801610fa5565b935050604061124287828801610fd8565b925050606061125387828801610fd8565b91505092959194509250565b7f4f6e6c79206f776e6572000000000000000000000000000000000000000000005f82015250565b5f611293600a8361115b565b915061129e8261125f565b602082019050919050565b5f6020820190508181035f8301526112c081611287565b9050919050565b5f815190506112d581610fc2565b92915050565b5f602082840312156112f0576112ef610f57565b5b5f6112fd848285016112c7565b91505092915050565b7f4e6f20746f6b656e2062616c616e6365000000000000000000000000000000005f82015250565b5f61133a60108361115b565b915061134582611306565b602082019050919050565b5f6020820190508181035f8301526113678161132e565b9050919050565b5f6040820190506113815f830185611055565b61138e602083018461107d565b9392505050565b5f8115159050919050565b6113a981611395565b81146113b3575f80fd5b50565b5f815190506113c4816113a0565b92915050565b5f602082840312156113df576113de610f57565b5b5f6113ec848285016113b6565b91505092915050565b5f6060820190506114085f830186611055565b6114156020830185611055565b611422604083018461107d565b949350505050565b7f4465706f736974206661696c65640000000000000000000000000000000000005f82015250565b5f61145e600e8361115b565b91506114698261142a565b602082019050919050565b5f6020820190508181035f83015261148b81611452565b9050919050565b7f496e73756666696369656e74206665652073656e7400000000000000000000005f82015250565b5f6114c660158361115b565b91506114d182611492565b602082019050919050565b5f6020820190508181035f8301526114f3816114ba565b9050919050565b5f82905092915050565b7f4e487b71000000000000000000000000000000000000000000000000000000005f52604160045260245ffd5b7f4e487b71000000000000000000000000000000000000000000000000000000005f52602260045260245ffd5b5f600282049050600182168061157557607f821691505b60208210810361158857611587611531565b5b50919050565b5f819050815f5260205f209050919050565b5f6020601f8301049050919050565b5f82821b905092915050565b5f600883026115ea7fffffffffffffffffffffffffffffffffffffffffffffffffffffffffffffffff826115af565b6115f486836115af565b95508019841693508086168417925050509392505050565b5f819050919050565b5f61162f61162a61162584610fb9565b61160c565b610fb9565b9050919050565b5f819050919050565b61164883611615565b61165c61165482611636565b8484546115bb565b825550505050565b5f90565b611670611664565b61167b81848461163f565b505050565b5b8181101561169e576116935f82611668565b600181019050611681565b5050565b601f8211156116e3576116b48161158e565b6116bd846115a0565b810160208510156116cc578190505b6116e06116d8856115a0565b830182611680565b50505b505050565b5f82821c905092915050565b5f6117035f19846008026116e8565b1980831691505092915050565b5f61171b83836116f4565b9150826002028217905092915050565b61173583836114fa565b67ffffffffffffffff81111561174e5761174d611504565b5b611758825461155e565b6117638282856116a2565b5f601f831160018114611790575f841561177e578287013590505b6117888582611710565b8655506117ef565b601f19841661179e8661158e565b5f5b828110156117c5578489013582556001820191506020850194506020810190506117a0565b868310156117e257848901356117de601f8916826116f4565b8355505b6001600288020188555050505b50505050505050565b5f819050919050565b5f61181b611816611811846117f8565b61160c565b610fb9565b9050919050565b61182b81611801565b82525050565b5f6060820190506118445f830186611055565b6118516020830185611055565b61185e6040830184611822565b949350505050565b5f6040820190506118795f830185611055565b6118866020830184611822565b9392505050565b7f416d6f756e74206d757374206265203e203000000000000000000000000000005f82015250565b5f6118c160128361115b565b91506118cc8261188d565b602082019050919050565b5f6020820190508181035f8301526118ee816118b5565b9050919050565b7f546f6b656e41207472616e73666572206661696c6564000000000000000000005f82015250565b5f61192960168361115b565b9150611934826118f5565b602082019050919050565b5f6020820190508181035f8301526119568161191d565b9050919050565b7f4e487b71000000000000000000000000000000000000000000000000000000005f52601160045260245ffd5b5f61199482610fb9565b915061199f83610fb9565b92508282026119ad81610fb9565b915082820484148315176119c4576119c361195d565b5b5092915050565b7f4e487b71000000000000000000000000000000000000000000000000000000005f52601260045260245ffd5b5f611a0282610fb9565b9150611a0d83610fb9565b925082611a1d57611a1c6119cb565b5b828204905092915050565b7f4e6f7420656e6f75676820746f6b656e4220696e20706f6f6c000000000000005f82015250565b5f611a5c60198361115b565b9150611a6782611a28565b602082019050919050565b5f6020820190508181035f830152611a8981611a50565b9050919050565b7f546f6b656e42207472616e73666572206661696c6564000000000000000000005f82015250565b5f611ac460168361115b565b9150611acf82611a90565b602082019050919050565b5f6020820190508181035f830152611af181611ab8565b9050919050565b5f608082019050611b0b5f830187611055565b611b186020830186611055565b611b25604083018561107d565b611b32606083018461107d565b9594505050505056fea2646970667358221220db985d05854dfc9ea3c3a7904cbb1c9bf652a7e81ed771c29469a6075855fff864736f6c63430008140033",
					"opcodes": "PUSH1 0x80 PUSH1 0x40 MSTORE PUSH7 0x38D7EA4C68000 PUSH1 0x2 SSTORE PUSH1 0x40 MLOAD PUSH3 0x20FA CODESIZE SUB DUP1 PUSH3 0x20FA DUP4 CODECOPY DUP2 DUP2 ADD PUSH1 0x40 MSTORE DUP2 ADD SWAP1 PUSH3 0x34 SWAP2 SWAP1 PUSH3 0x211 JUMP JUMPDEST DUP1 PUSH0 SWAP1 DUP2 PUSH3 0x44 SWAP2 SWAP1 PUSH3 0x497 JUMP JUMPDEST POP CALLER PUSH1 0x1 PUSH0 PUSH2 0x100 EXP DUP2 SLOAD DUP2 PUSH20 0xFFFFFFFFFFFFFFFFFFFFFFFFFFFFFFFFFFFFFFFF MUL NOT AND SWAP1 DUP4 PUSH20 0xFFFFFFFFFFFFFFFFFFFFFFFFFFFFFFFFFFFFFFFF AND MUL OR SWAP1 SSTORE POP POP PUSH3 0x57B JUMP JUMPDEST PUSH0 PUSH1 0x40 MLOAD SWAP1 POP SWAP1 JUMP JUMPDEST PUSH0 DUP1 REVERT JUMPDEST PUSH0 DUP1 REVERT JUMPDEST PUSH0 DUP1 REVERT JUMPDEST PUSH0 DUP1 REVERT JUMPDEST PUSH0 PUSH1 0x1F NOT PUSH1 0x1F DUP4 ADD AND SWAP1 POP SWAP2 SWAP1 POP JUMP JUMPDEST PUSH32 0x4E487B7100000000000000000000000000000000000000000000000000000000 PUSH0 MSTORE PUSH1 0x41 PUSH1 0x4 MSTORE PUSH1 0x24 PUSH0 REVERT JUMPDEST PUSH3 0xED DUP3 PUSH3 0xA5 JUMP JUMPDEST DUP2 ADD DUP2 DUP2 LT PUSH8 0xFFFFFFFFFFFFFFFF DUP3 GT OR ISZERO PUSH3 0x10F JUMPI PUSH3 0x10E PUSH3 0xB5 JUMP JUMPDEST JUMPDEST DUP1 PUSH1 0x40 MSTORE POP POP POP JUMP JUMPDEST PUSH0 PUSH3 0x123 PUSH3 0x8C JUMP JUMPDEST SWAP1 POP PUSH3 0x131 DUP3 DUP3 PUSH3 0xE2 JUMP JUMPDEST SWAP2 SWAP1 POP JUMP JUMPDEST PUSH0 PUSH8 0xFFFFFFFFFFFFFFFF DUP3 GT ISZERO PUSH3 0x153 JUMPI PUSH3 0x152 PUSH3 0xB5 JUMP JUMPDEST JUMPDEST PUSH3 0x15E DUP3 PUSH3 0xA5 JUMP JUMPDEST SWAP1 POP PUSH1 0x20 DUP2 ADD SWAP1 POP SWAP2 SWAP1 POP JUMP JUMPDEST PUSH0 JUMPDEST DUP4 DUP2 LT ISZERO PUSH3 0x18A JUMPI DUP1 DUP3 ADD MLOAD DUP2 DUP5 ADD MSTORE PUSH1 0x20 DUP2 ADD SWAP1 POP PUSH3 0x16D JUMP JUMPDEST PUSH0 DUP5 DUP5 ADD MSTORE POP POP POP POP JUMP JUMPDEST PUSH0 PUSH3 0x1AB PUSH3 0x1A5 DUP5 PUSH3 0x136 JUMP JUMPDEST PUSH3 0x118 JUMP JUMPDEST SWAP1 POP DUP3 DUP2 MSTORE PUSH1 0x20 DUP2 ADD DUP5 DUP5 DUP5 ADD GT ISZERO PUSH3 0x1CA JUMPI PUSH3 0x1C9 PUSH3 0xA1 JUMP JUMPDEST JUMPDEST PUSH3 0x1D7 DUP5 DUP3 DUP6 PUSH3 0x16B JUMP JUMPDEST POP SWAP4 SWAP3 POP POP POP JUMP JUMPDEST PUSH0 DUP3 PUSH1 0x1F DUP4 ADD SLT PUSH3 0x1F6 JUMPI PUSH3 0x1F5 PUSH3 0x9D JUMP JUMPDEST JUMPDEST DUP2 MLOAD PUSH3 0x208 DUP5 DUP3 PUSH1 0x20 DUP7 ADD PUSH3 0x195 JUMP JUMPDEST SWAP2 POP POP SWAP3 SWAP2 POP POP JUMP JUMPDEST PUSH0 PUSH1 0x20 DUP3 DUP5 SUB SLT ISZERO PUSH3 0x229 JUMPI PUSH3 0x228 PUSH3 0x95 JUMP JUMPDEST JUMPDEST PUSH0 DUP3 ADD MLOAD PUSH8 0xFFFFFFFFFFFFFFFF DUP2 GT ISZERO PUSH3 0x249 JUMPI PUSH3 0x248 PUSH3 0x99 JUMP JUMPDEST JUMPDEST PUSH3 0x257 DUP5 DUP3 DUP6 ADD PUSH3 0x1DF JUMP JUMPDEST SWAP2 POP POP SWAP3 SWAP2 POP POP JUMP JUMPDEST PUSH0 DUP2 MLOAD SWAP1 POP SWAP2 SWAP1 POP JUMP JUMPDEST PUSH32 0x4E487B7100000000000000000000000000000000000000000000000000000000 PUSH0 MSTORE PUSH1 0x22 PUSH1 0x4 MSTORE PUSH1 0x24 PUSH0 REVERT JUMPDEST PUSH0 PUSH1 0x2 DUP3 DIV SWAP1 POP PUSH1 0x1 DUP3 AND DUP1 PUSH3 0x2AF JUMPI PUSH1 0x7F DUP3 AND SWAP2 POP JUMPDEST PUSH1 0x20 DUP3 LT DUP2 SUB PUSH3 0x2C5 JUMPI PUSH3 0x2C4 PUSH3 0x26A JUMP JUMPDEST JUMPDEST POP SWAP2 SWAP1 POP JUMP JUMPDEST PUSH0 DUP2 SWAP1 POP DUP2 PUSH0 MSTORE PUSH1 0x20 PUSH0 KECCAK256 SWAP1 POP SWAP2 SWAP1 POP JUMP JUMPDEST PUSH0 PUSH1 0x20 PUSH1 0x1F DUP4 ADD DIV SWAP1 POP SWAP2 SWAP1 POP JUMP JUMPDEST PUSH0 DUP3 DUP3 SHL SWAP1 POP SWAP3 SWAP2 POP POP JUMP JUMPDEST PUSH0 PUSH1 0x8 DUP4 MUL PUSH3 0x329 PUSH32 0xFFFFFFFFFFFFFFFFFFFFFFFFFFFFFFFFFFFFFFFFFFFFFFFFFFFFFFFFFFFFFFFF DUP3 PUSH3 0x2EC JUMP JUMPDEST PUSH3 0x335 DUP7 DUP4 PUSH3 0x2EC JUMP JUMPDEST SWAP6 POP DUP1 NOT DUP5 AND SWAP4 POP DUP1 DUP7 AND DUP5 OR SWAP3 POP POP POP SWAP4 SWAP3 POP POP POP JUMP JUMPDEST PUSH0 DUP2 SWAP1 POP SWAP2 SWAP1 POP JUMP JUMPDEST PUSH0 DUP2 SWAP1 POP SWAP2 SWAP1 POP JUMP JUMPDEST PUSH0 PUSH3 0x37F PUSH3 0x379 PUSH3 0x373 DUP5 PUSH3 0x34D JUMP JUMPDEST PUSH3 0x356 JUMP JUMPDEST PUSH3 0x34D JUMP JUMPDEST SWAP1 POP SWAP2 SWAP1 POP JUMP JUMPDEST PUSH0 DUP2 SWAP1 POP SWAP2 SWAP1 POP JUMP JUMPDEST PUSH3 0x39A DUP4 PUSH3 0x35F JUMP JUMPDEST PUSH3 0x3B2 PUSH3 0x3A9 DUP3 PUSH3 0x386 JUMP JUMPDEST DUP5 DUP5 SLOAD PUSH3 0x2F8 JUMP JUMPDEST DUP3 SSTORE POP POP POP POP JUMP JUMPDEST PUSH0 SWAP1 JUMP JUMPDEST PUSH3 0x3C8 PUSH3 0x3BA JUMP JUMPDEST PUSH3 0x3D5 DUP2 DUP5 DUP5 PUSH3 0x38F JUMP JUMPDEST POP POP POP JUMP JUMPDEST JUMPDEST DUP2 DUP2 LT ISZERO PUSH3 0x3FC JUMPI PUSH3 0x3F0 PUSH0 DUP3 PUSH3 0x3BE JUMP JUMPDEST PUSH1 0x1 DUP2 ADD SWAP1 POP PUSH3 0x3DB JUMP JUMPDEST POP POP JUMP JUMPDEST PUSH1 0x1F DUP3 GT ISZERO PUSH3 0x44B JUMPI PUSH3 0x415 DUP2 PUSH3 0x2CB JUMP JUMPDEST PUSH3 0x420 DUP5 PUSH3 0x2DD JUMP JUMPDEST DUP2 ADD PUSH1 0x20 DUP6 LT ISZERO PUSH3 0x430 JUMPI DUP2 SWAP1 POP JUMPDEST PUSH3 0x448 PUSH3 0x43F DUP6 PUSH3 0x2DD JUMP JUMPDEST DUP4 ADD DUP3 PUSH3 0x3DA JUMP JUMPDEST POP POP JUMPDEST POP POP POP JUMP JUMPDEST PUSH0 DUP3 DUP3 SHR SWAP1 POP SWAP3 SWAP2 POP POP JUMP JUMPDEST PUSH0 PUSH3 0x46D PUSH0 NOT DUP5 PUSH1 0x8 MUL PUSH3 0x450 JUMP JUMPDEST NOT DUP1 DUP4 AND SWAP2 POP POP SWAP3 SWAP2 POP POP JUMP JUMPDEST PUSH0 PUSH3 0x487 DUP4 DUP4 PUSH3 0x45C JUMP JUMPDEST SWAP2 POP DUP3 PUSH1 0x2 MUL DUP3 OR SWAP1 POP SWAP3 SWAP2 POP POP JUMP JUMPDEST PUSH3 0x4A2 DUP3 PUSH3 0x260 JUMP JUMPDEST PUSH8 0xFFFFFFFFFFFFFFFF DUP2 GT ISZERO PUSH3 0x4BE JUMPI PUSH3 0x4BD PUSH3 0xB5 JUMP JUMPDEST JUMPDEST PUSH3 0x4CA DUP3 SLOAD PUSH3 0x297 JUMP JUMPDEST PUSH3 0x4D7 DUP3 DUP3 DUP6 PUSH3 0x400 JUMP JUMPDEST PUSH0 PUSH1 0x20 SWAP1 POP PUSH1 0x1F DUP4 GT PUSH1 0x1 DUP2 EQ PUSH3 0x50D JUMPI PUSH0 DUP5 ISZERO PUSH3 0x4F8 JUMPI DUP3 DUP8 ADD MLOAD SWAP1 POP JUMPDEST PUSH3 0x504 DUP6 DUP3 PUSH3 0x47A JUMP JUMPDEST DUP7 SSTORE POP PUSH3 0x573 JUMP JUMPDEST PUSH1 0x1F NOT DUP5 AND PUSH3 0x51D DUP7 PUSH3 0x2CB JUMP JUMPDEST PUSH0 JUMPDEST DUP3 DUP2 LT ISZERO PUSH3 0x546 JUMPI DUP5 DUP10 ADD MLOAD DUP3 SSTORE PUSH1 0x1 DUP3 ADD SWAP2 POP PUSH1 0x20 DUP6 ADD SWAP5 POP PUSH1 0x20 DUP2 ADD SWAP1 POP PUSH3 0x51F JUMP JUMPDEST DUP7 DUP4 LT ISZERO PUSH3 0x566 JUMPI DUP5 DUP10 ADD MLOAD PUSH3 0x562 PUSH1 0x1F DUP10 AND DUP3 PUSH3 0x45C JUMP JUMPDEST DUP4 SSTORE POP JUMPDEST PUSH1 0x1 PUSH1 0x2 DUP9 MUL ADD DUP9 SSTORE POP POP POP JUMPDEST POP POP POP POP POP POP JUMP JUMPDEST PUSH2 0x1B71 DUP1 PUSH3 0x589 PUSH0 CODECOPY PUSH0 RETURN INVALID PUSH1 0x80 PUSH1 0x40 MSTORE PUSH1 0x4 CALLDATASIZE LT PUSH2 0x9F JUMPI PUSH0 CALLDATALOAD PUSH1 0xE0 SHR DUP1 PUSH4 0x95310EFA GT PUSH2 0x63 JUMPI DUP1 PUSH4 0x95310EFA EQ PUSH2 0x162 JUMPI DUP1 PUSH4 0xA4136862 EQ PUSH2 0x18A JUMPI DUP1 PUSH4 0xC146408E EQ PUSH2 0x1A6 JUMPI DUP1 PUSH4 0xE086E5EC EQ PUSH2 0x1BC JUMPI DUP1 PUSH4 0xEF690CC0 EQ PUSH2 0x1D2 JUMPI DUP1 PUSH4 0xFE029156 EQ PUSH2 0x1FC JUMPI PUSH2 0xA6 JUMP JUMPDEST DUP1 PUSH4 0x62DD331 EQ PUSH2 0xA8 JUMPI DUP1 PUSH4 0x47E7EF24 EQ PUSH2 0xBE JUMPI DUP1 PUSH4 0x89476069 EQ PUSH2 0xE6 JUMPI DUP1 PUSH4 0x8DA5CB5B EQ PUSH2 0x10E JUMPI DUP1 PUSH4 0x90321E1A EQ PUSH2 0x138 JUMPI PUSH2 0xA6 JUMP JUMPDEST CALLDATASIZE PUSH2 0xA6 JUMPI STOP JUMPDEST STOP JUMPDEST CALLVALUE DUP1 ISZERO PUSH2 0xB3 JUMPI PUSH0 DUP1 REVERT JUMPDEST POP PUSH2 0xBC PUSH2 0x218 JUMP JUMPDEST STOP JUMPDEST CALLVALUE DUP1 ISZERO PUSH2 0xC9 JUMPI PUSH0 DUP1 REVERT JUMPDEST POP PUSH2 0xE4 PUSH1 0x4 DUP1 CALLDATASIZE SUB DUP2 ADD SWAP1 PUSH2 0xDF SWAP2 SWAP1 PUSH2 0xFEC JUMP JUMPDEST PUSH2 0x41D JUMP JUMPDEST STOP JUMPDEST CALLVALUE DUP1 ISZERO PUSH2 0xF1 JUMPI PUSH0 DUP1 REVERT JUMPDEST POP PUSH2 0x10C PUSH1 0x4 DUP1 CALLDATASIZE SUB DUP2 ADD SWAP1 PUSH2 0x107 SWAP2 SWAP1 PUSH2 0x102A JUMP JUMPDEST PUSH2 0x532 JUMP JUMPDEST STOP JUMPDEST CALLVALUE DUP1 ISZERO PUSH2 0x119 JUMPI PUSH0 DUP1 REVERT JUMPDEST POP PUSH2 0x122 PUSH2 0x724 JUMP JUMPDEST PUSH1 0x40 MLOAD PUSH2 0x12F SWAP2 SWAP1 PUSH2 0x1064 JUMP JUMPDEST PUSH1 0x40 MLOAD DUP1 SWAP2 SUB SWAP1 RETURN JUMPDEST CALLVALUE DUP1 ISZERO PUSH2 0x143 JUMPI PUSH0 DUP1 REVERT JUMPDEST POP PUSH2 0x14C PUSH2 0x749 JUMP JUMPDEST PUSH1 0x40 MLOAD PUSH2 0x159 SWAP2 SWAP1 PUSH2 0x108C JUMP JUMPDEST PUSH1 0x40 MLOAD DUP1 SWAP2 SUB SWAP1 RETURN JUMPDEST CALLVALUE DUP1 ISZERO PUSH2 0x16D JUMPI PUSH0 DUP1 REVERT JUMPDEST POP PUSH2 0x188 PUSH1 0x4 DUP1 CALLDATASIZE SUB DUP2 ADD SWAP1 PUSH2 0x183 SWAP2 SWAP1 PUSH2 0xFEC JUMP JUMPDEST PUSH2 0x74F JUMP JUMPDEST STOP JUMPDEST PUSH2 0x1A4 PUSH1 0x4 DUP1 CALLDATASIZE SUB DUP2 ADD SWAP1 PUSH2 0x19F SWAP2 SWAP1 PUSH2 0x1106 JUMP JUMPDEST PUSH2 0x8F3 JUMP JUMPDEST STOP JUMPDEST CALLVALUE DUP1 ISZERO PUSH2 0x1B1 JUMPI PUSH0 DUP1 REVERT JUMPDEST POP PUSH2 0x1BA PUSH2 0x94D JUMP JUMPDEST STOP JUMPDEST CALLVALUE DUP1 ISZERO PUSH2 0x1C7 JUMPI PUSH0 DUP1 REVERT JUMPDEST POP PUSH2 0x1D0 PUSH2 0xA98 JUMP JUMPDEST STOP JUMPDEST CALLVALUE DUP1 ISZERO PUSH2 0x1DD JUMPI PUSH0 DUP1 REVERT JUMPDEST POP PUSH2 0x1E6 PUSH2 0xB8E JUMP JUMPDEST PUSH1 0x40 MLOAD PUSH2 0x1F3 SWAP2 SWAP1 PUSH2 0x11DB JUMP JUMPDEST PUSH1 0x40 MLOAD DUP1 SWAP2 SUB SWAP1 RETURN JUMPDEST PUSH2 0x216 PUSH1 0x4 DUP1 CALLDATASIZE SUB DUP2 ADD SWAP1 PUSH2 0x211 SWAP2 SWAP1 PUSH2 0x11FB JUMP JUMPDEST PUSH2 0xC19 JUMP JUMPDEST STOP JUMPDEST PUSH1 0x1 PUSH0 SWAP1 SLOAD SWAP1 PUSH2 0x100 EXP SWAP1 DIV PUSH20 0xFFFFFFFFFFFFFFFFFFFFFFFFFFFFFFFFFFFFFFFF AND PUSH20 0xFFFFFFFFFFFFFFFFFFFFFFFFFFFFFFFFFFFFFFFF AND CALLER PUSH20 0xFFFFFFFFFFFFFFFFFFFFFFFFFFFFFFFFFFFFFFFF AND EQ PUSH2 0x2A7 JUMPI PUSH1 0x40 MLOAD PUSH32 0x8C379A000000000000000000000000000000000000000000000000000000000 DUP2 MSTORE PUSH1 0x4 ADD PUSH2 0x29E SWAP1 PUSH2 0x12A9 JUMP JUMPDEST PUSH1 0x40 MLOAD DUP1 SWAP2 SUB SWAP1 REVERT JUMPDEST PUSH0 PUSH20 0x760AFE86E5DE5FA0EE542FC7B7B713E1C5425701 SWAP1 POP PUSH0 DUP2 PUSH20 0xFFFFFFFFFFFFFFFFFFFFFFFFFFFFFFFFFFFFFFFF AND PUSH4 0x70A08231 ADDRESS PUSH1 0x40 MLOAD DUP3 PUSH4 0xFFFFFFFF AND PUSH1 0xE0 SHL DUP2 MSTORE PUSH1 0x4 ADD PUSH2 0x2F9 SWAP2 SWAP1 PUSH2 0x1064 JUMP JUMPDEST PUSH1 0x20 PUSH1 0x40 MLOAD DUP1 DUP4 SUB DUP2 DUP7 GAS STATICCALL ISZERO DUP1 ISZERO PUSH2 0x314 JUMPI RETURNDATASIZE PUSH0 DUP1 RETURNDATACOPY RETURNDATASIZE PUSH0 REVERT JUMPDEST POP POP POP POP PUSH1 0x40 MLOAD RETURNDATASIZE PUSH1 0x1F NOT PUSH1 0x1F DUP3 ADD AND DUP3 ADD DUP1 PUSH1 0x40 MSTORE POP DUP2 ADD SWAP1 PUSH2 0x338 SWAP2 SWAP1 PUSH2 0x12DB JUMP JUMPDEST SWAP1 POP PUSH0 DUP2 GT PUSH2 0x37C JUMPI PUSH1 0x40 MLOAD PUSH32 0x8C379A000000000000000000000000000000000000000000000000000000000 DUP2 MSTORE PUSH1 0x4 ADD PUSH2 0x373 SWAP1 PUSH2 0x1350 JUMP JUMPDEST PUSH1 0x40 MLOAD DUP1 SWAP2 SUB SWAP1 REVERT JUMPDEST DUP2 PUSH20 0xFFFFFFFFFFFFFFFFFFFFFFFFFFFFFFFFFFFFFFFF AND PUSH4 0xA9059CBB PUSH1 0x1 PUSH0 SWAP1 SLOAD SWAP1 PUSH2 0x100 EXP SWAP1 DIV PUSH20 0xFFFFFFFFFFFFFFFFFFFFFFFFFFFFFFFFFFFFFFFF AND DUP4 PUSH1 0x40 MLOAD DUP4 PUSH4 0xFFFFFFFF AND PUSH1 0xE0 SHL DUP2 MSTORE PUSH1 0x4 ADD PUSH2 0x3D8 SWAP3 SWAP2 SWAP1 PUSH2 0x136E JUMP JUMPDEST PUSH1 0x20 PUSH1 0x40 MLOAD DUP1 DUP4 SUB DUP2 PUSH0 DUP8 GAS CALL ISZERO DUP1 ISZERO PUSH2 0x3F4 JUMPI RETURNDATASIZE PUSH0 DUP1 RETURNDATACOPY RETURNDATASIZE PUSH0 REVERT JUMPDEST POP POP POP POP PUSH1 0x40 MLOAD RETURNDATASIZE PUSH1 0x1F NOT PUSH1 0x1F DUP3 ADD AND DUP3 ADD DUP1 PUSH1 0x40 MSTORE POP DUP2 ADD SWAP1 PUSH2 0x418 SWAP2 SWAP1 PUSH2 0x13CA JUMP JUMPDEST POP POP POP JUMP JUMPDEST PUSH0 DUP3 PUSH20 0xFFFFFFFFFFFFFFFFFFFFFFFFFFFFFFFFFFFFFFFF AND PUSH4 0x23B872DD CALLER ADDRESS DUP6 PUSH1 0x40 MLOAD DUP5 PUSH4 0xFFFFFFFF AND PUSH1 0xE0 SHL DUP2 MSTORE PUSH1 0x4 ADD PUSH2 0x45B SWAP4 SWAP3 SWAP2 SWAP1 PUSH2 0x13F5 JUMP JUMPDEST PUSH1 0x20 PUSH1 0x40 MLOAD DUP1 DUP4 SUB DUP2 PUSH0 DUP8 GAS CALL ISZERO DUP1 ISZERO PUSH2 0x477 JUMPI RETURNDATASIZE PUSH0 DUP1 RETURNDATACOPY RETURNDATASIZE PUSH0 REVERT JUMPDEST POP POP POP POP PUSH1 0x40 MLOAD RETURNDATASIZE PUSH1 0x1F NOT PUSH1 0x1F DUP3 ADD AND DUP3 ADD DUP1 PUSH1 0x40 MSTORE POP DUP2 ADD SWAP1 PUSH2 0x49B SWAP2 SWAP1 PUSH2 0x13CA JUMP JUMPDEST SWAP1 POP DUP1 PUSH2 0x4DD JUMPI PUSH1 0x40 MLOAD PUSH32 0x8C379A000000000000000000000000000000000000000000000000000000000 DUP2 MSTORE PUSH1 0x4 ADD PUSH2 0x4D4 SWAP1 PUSH2 0x1474 JUMP JUMPDEST PUSH1 0x40 MLOAD DUP1 SWAP2 SUB SWAP1 REVERT JUMPDEST CALLER PUSH20 0xFFFFFFFFFFFFFFFFFFFFFFFFFFFFFFFFFFFFFFFF AND PUSH32 0x8752A472E571A816AEA92EEC8DAE9BAF628E840F4929FBCC2D155E6233FF68A7 DUP5 DUP5 PUSH1 0x40 MLOAD PUSH2 0x525 SWAP3 SWAP2 SWAP1 PUSH2 0x136E JUMP JUMPDEST PUSH1 0x40 MLOAD DUP1 SWAP2 SUB SWAP1 LOG2 POP POP POP JUMP JUMPDEST PUSH1 0x1 PUSH0 SWAP1 SLOAD SWAP1 PUSH2 0x100 EXP SWAP1 DIV PUSH20 0xFFFFFFFFFFFFFFFFFFFFFFFFFFFFFFFFFFFFFFFF AND PUSH20 0xFFFFFFFFFFFFFFFFFFFFFFFFFFFFFFFFFFFFFFFF AND CALLER PUSH20 0xFFFFFFFFFFFFFFFFFFFFFFFFFFFFFFFFFFFFFFFF AND EQ PUSH2 0x5C1 JUMPI PUSH1 0x40 MLOAD PUSH32 0x8C379A000000000000000000000000000000000000000000000000000000000 DUP2 MSTORE PUSH1 0x4 ADD PUSH2 0x5B8 SWAP1 PUSH2 0x12A9 JUMP JUMPDEST PUSH1 0x40 MLOAD DUP1 SWAP2 SUB SWAP1 REVERT JUMPDEST PUSH0 DUP2 SWAP1 POP PUSH0 DUP2 PUSH20 0xFFFFFFFFFFFFFFFFFFFFFFFFFFFFFFFFFFFFFFFF AND PUSH4 0x70A08231 ADDRESS PUSH1 0x40 MLOAD DUP3 PUSH4 0xFFFFFFFF AND PUSH1 0xE0 SHL DUP2 MSTORE PUSH1 0x4 ADD PUSH2 0x5FF SWAP2 SWAP1 PUSH2 0x1064 JUMP JUMPDEST PUSH1 0x20 PUSH1 0x40 MLOAD DUP1 DUP4 SUB DUP2 DUP7 GAS STATICCALL ISZERO DUP1 ISZERO PUSH2 0x61A JUMPI RETURNDATASIZE PUSH0 DUP1 RETURNDATACOPY RETURNDATASIZE PUSH0 REVERT JUMPDEST POP POP POP POP PUSH1 0x40 MLOAD RETURNDATASIZE PUSH1 0x1F NOT PUSH1 0x1F DUP3 ADD AND DUP3 ADD DUP1 PUSH1 0x40 MSTORE POP DUP2 ADD SWAP1 PUSH2 0x63E SWAP2 SWAP1 PUSH2 0x12DB JUMP JUMPDEST SWAP1 POP PUSH0 DUP2 GT PUSH2 0x682 JUMPI PUSH1 0x40 MLOAD PUSH32 0x8C379A000000000000000000000000000000000000000000000000000000000 DUP2 MSTORE PUSH1 0x4 ADD PUSH2 0x679 SWAP1 PUSH2 0x1350 JUMP JUMPDEST PUSH1 0x40 MLOAD DUP1 SWAP2 SUB SWAP1 REVERT JUMPDEST DUP2 PUSH20 0xFFFFFFFFFFFFFFFFFFFFFFFFFFFFFFFFFFFFFFFF AND PUSH4 0xA9059CBB PUSH1 0x1 PUSH0 SWAP1 SLOAD SWAP1 PUSH2 0x100 EXP SWAP1 DIV PUSH20 0xFFFFFFFFFFFFFFFFFFFFFFFFFFFFFFFFFFFFFFFF AND DUP4 PUSH1 0x40 MLOAD DUP4 PUSH4 0xFFFFFFFF AND PUSH1 0xE0 SHL DUP2 MSTORE PUSH1 0x4 ADD PUSH2 0x6DE SWAP3 SWAP2 SWAP1 PUSH2 0x136E JUMP JUMPDEST PUSH1 0x20 PUSH1 0x40 MLOAD DUP1 DUP4 SUB DUP2 PUSH0 DUP8 GAS CALL ISZERO DUP1 ISZERO PUSH2 0x6FA JUMPI RETURNDATASIZE PUSH0 DUP1 RETURNDATACOPY RETURNDATASIZE PUSH0 REVERT JUMPDEST POP POP POP POP PUSH1 0x40 MLOAD RETURNDATASIZE PUSH1 0x1F NOT PUSH1 0x1F DUP3 ADD AND DUP3 ADD DUP1 PUSH1 0x40 MSTORE POP DUP2 ADD SWAP1 PUSH2 0x71E SWAP2 SWAP1 PUSH2 0x13CA JUMP JUMPDEST POP POP POP POP JUMP JUMPDEST PUSH1 0x1 PUSH0 SWAP1 SLOAD SWAP1 PUSH2 0x100 EXP SWAP1 DIV PUSH20 0xFFFFFFFFFFFFFFFFFFFFFFFFFFFFFFFFFFFFFFFF AND DUP2 JUMP JUMPDEST PUSH1 0x2 SLOAD DUP2 JUMP JUMPDEST PUSH1 0x1 PUSH0 SWAP1 SLOAD SWAP1 PUSH2 0x100 EXP SWAP1 DIV PUSH20 0xFFFFFFFFFFFFFFFFFFFFFFFFFFFFFFFFFFFFFFFF AND PUSH20 0xFFFFFFFFFFFFFFFFFFFFFFFFFFFFFFFFFFFFFFFF AND CALLER PUSH20 0xFFFFFFFFFFFFFFFFFFFFFFFFFFFFFFFFFFFFFFFF AND EQ PUSH2 0x7DE JUMPI PUSH1 0x40 MLOAD PUSH32 0x8C379A000000000000000000000000000000000000000000000000000000000 DUP2 MSTORE PUSH1 0x4 ADD PUSH2 0x7D5 SWAP1 PUSH2 0x12A9 JUMP JUMPDEST PUSH1 0x40 MLOAD DUP1 SWAP2 SUB SWAP1 REVERT JUMPDEST PUSH0 DUP3 PUSH20 0xFFFFFFFFFFFFFFFFFFFFFFFFFFFFFFFFFFFFFFFF AND PUSH4 0x23B872DD CALLER ADDRESS DUP6 PUSH1 0x40 MLOAD DUP5 PUSH4 0xFFFFFFFF AND PUSH1 0xE0 SHL DUP2 MSTORE PUSH1 0x4 ADD PUSH2 0x81C SWAP4 SWAP3 SWAP2 SWAP1 PUSH2 0x13F5 JUMP JUMPDEST PUSH1 0x20 PUSH1 0x40 MLOAD DUP1 DUP4 SUB DUP2 PUSH0 DUP8 GAS CALL ISZERO DUP1 ISZERO PUSH2 0x838 JUMPI RETURNDATASIZE PUSH0 DUP1 RETURNDATACOPY RETURNDATASIZE PUSH0 REVERT JUMPDEST POP POP POP POP PUSH1 0x40 MLOAD RETURNDATASIZE PUSH1 0x1F NOT PUSH1 0x1F DUP3 ADD AND DUP3 ADD DUP1 PUSH1 0x40 MSTORE POP DUP2 ADD SWAP1 PUSH2 0x85C SWAP2 SWAP1 PUSH2 0x13CA JUMP JUMPDEST SWAP1 POP DUP1 PUSH2 0x89E JUMPI PUSH1 0x40 MLOAD PUSH32 0x8C379A000000000000000000000000000000000000000000000000000000000 DUP2 MSTORE PUSH1 0x4 ADD PUSH2 0x895 SWAP1 PUSH2 0x1474 JUMP JUMPDEST PUSH1 0x40 MLOAD DUP1 SWAP2 SUB SWAP1 REVERT JUMPDEST CALLER PUSH20 0xFFFFFFFFFFFFFFFFFFFFFFFFFFFFFFFFFFFFFFFF AND PUSH32 0x8752A472E571A816AEA92EEC8DAE9BAF628E840F4929FBCC2D155E6233FF68A7 DUP5 DUP5 PUSH1 0x40 MLOAD PUSH2 0x8E6 SWAP3 SWAP2 SWAP1 PUSH2 0x136E JUMP JUMPDEST PUSH1 0x40 MLOAD DUP1 SWAP2 SUB SWAP1 LOG2 POP POP POP JUMP JUMPDEST PUSH1 0x2 SLOAD CALLVALUE LT ISZERO PUSH2 0x938 JUMPI PUSH1 0x40 MLOAD PUSH32 0x8C379A000000000000000000000000000000000000000000000000000000000 DUP2 MSTORE PUSH1 0x4 ADD PUSH2 0x92F SWAP1 PUSH2 0x14DC JUMP JUMPDEST PUSH1 0x40 MLOAD DUP1 SWAP2 SUB SWAP1 REVERT JUMPDEST DUP2 DUP2 PUSH0 SWAP2 DUP3 PUSH2 0x948 SWAP3 SWAP2 SWAP1 PUSH2 0x172B JUMP JUMPDEST POP POP POP JUMP JUMPDEST PUSH0 PUSH20 0x760AFE86E5DE5FA0EE542FC7B7B713E1C5425701 PUSH20 0xFFFFFFFFFFFFFFFFFFFFFFFFFFFFFFFFFFFFFFFF AND PUSH4 0x23B872DD CALLER ADDRESS PUSH8 0xDE0B6B3A7640000 PUSH1 0x40 MLOAD DUP5 PUSH4 0xFFFFFFFF AND PUSH1 0xE0 SHL DUP2 MSTORE PUSH1 0x4 ADD PUSH2 0x9A7 SWAP4 SWAP3 SWAP2 SWAP1 PUSH2 0x1831 JUMP JUMPDEST PUSH1 0x20 PUSH1 0x40 MLOAD DUP1 DUP4 SUB DUP2 PUSH0 DUP8 GAS CALL ISZERO DUP1 ISZERO PUSH2 0x9C3 JUMPI RETURNDATASIZE PUSH0 DUP1 RETURNDATACOPY RETURNDATASIZE PUSH0 REVERT JUMPDEST POP POP POP POP PUSH1 0x40 MLOAD RETURNDATASIZE PUSH1 0x1F NOT PUSH1 0x1F DUP3 ADD AND DUP3 ADD DUP1 PUSH1 0x40 MSTORE POP DUP2 ADD SWAP1 PUSH2 0x9E7 SWAP2 SWAP1 PUSH2 0x13CA JUMP JUMPDEST SWAP1 POP DUP1 PUSH2 0xA29 JUMPI PUSH1 0x40 MLOAD PUSH32 0x8C379A000000000000000000000000000000000000000000000000000000000 DUP2 MSTORE PUSH1 0x4 ADD PUSH2 0xA20 SWAP1 PUSH2 0x1474 JUMP JUMPDEST PUSH1 0x40 MLOAD DUP1 SWAP2 SUB SWAP1 REVERT JUMPDEST CALLER PUSH20 0xFFFFFFFFFFFFFFFFFFFFFFFFFFFFFFFFFFFFFFFF AND PUSH32 0x8752A472E571A816AEA92EEC8DAE9BAF628E840F4929FBCC2D155E6233FF68A7 PUSH20 0x760AFE86E5DE5FA0EE542FC7B7B713E1C5425701 PUSH8 0xDE0B6B3A7640000 PUSH1 0x40 MLOAD PUSH2 0xA8D SWAP3 SWAP2 SWAP1 PUSH2 0x1866 JUMP JUMPDEST PUSH1 0x40 MLOAD DUP1 SWAP2 SUB SWAP1 LOG2 POP JUMP JUMPDEST PUSH1 0x1 PUSH0 SWAP1 SLOAD SWAP1 PUSH2 0x100 EXP SWAP1 DIV PUSH20 0xFFFFFFFFFFFFFFFFFFFFFFFFFFFFFFFFFFFFFFFF AND PUSH20 0xFFFFFFFFFFFFFFFFFFFFFFFFFFFFFFFFFFFFFFFF AND CALLER PUSH20 0xFFFFFFFFFFFFFFFFFFFFFFFFFFFFFFFFFFFFFFFF AND EQ PUSH2 0xB27 JUMPI PUSH1 0x40 MLOAD PUSH32 0x8C379A000000000000000000000000000000000000000000000000000000000 DUP2 MSTORE PUSH1 0x4 ADD PUSH2 0xB1E SWAP1 PUSH2 0x12A9 JUMP JUMPDEST PUSH1 0x40 MLOAD DUP1 SWAP2 SUB SWAP1 REVERT JUMPDEST PUSH1 0x1 PUSH0 SWAP1 SLOAD SWAP1 PUSH2 0x100 EXP SWAP1 DIV PUSH20 0xFFFFFFFFFFFFFFFFFFFFFFFFFFFFFFFFFFFFFFFF AND PUSH20 0xFFFFFFFFFFFFFFFFFFFFFFFFFFFFFFFFFFFFFFFF AND PUSH2 0x8FC SELFBALANCE SWAP1 DUP2 ISZERO MUL SWAP1 PUSH1 0x40 MLOAD PUSH0 PUSH1 0x40 MLOAD DUP1 DUP4 SUB DUP2 DUP6 DUP9 DUP9 CALL SWAP4 POP POP POP POP ISZERO DUP1 ISZERO PUSH2 0xB8B JUMPI RETURNDATASIZE PUSH0 DUP1 RETURNDATACOPY RETURNDATASIZE PUSH0 REVERT JUMPDEST POP JUMP JUMPDEST PUSH0 DUP1 SLOAD PUSH2 0xB9A SWAP1 PUSH2 0x155E JUMP JUMPDEST DUP1 PUSH1 0x1F ADD PUSH1 0x20 DUP1 SWAP2 DIV MUL PUSH1 0x20 ADD PUSH1 0x40 MLOAD SWAP1 DUP2 ADD PUSH1 0x40 MSTORE DUP1 SWAP3 SWAP2 SWAP1 DUP2 DUP2 MSTORE PUSH1 0x20 ADD DUP3 DUP1 SLOAD PUSH2 0xBC6 SWAP1 PUSH2 0x155E JUMP JUMPDEST DUP1 ISZERO PUSH2 0xC11 JUMPI DUP1 PUSH1 0x1F LT PUSH2 0xBE8 JUMPI PUSH2 0x100 DUP1 DUP4 SLOAD DIV MUL DUP4 MSTORE SWAP2 PUSH1 0x20 ADD SWAP2 PUSH2 0xC11 JUMP JUMPDEST DUP3 ADD SWAP2 SWAP1 PUSH0 MSTORE PUSH1 0x20 PUSH0 KECCAK256 SWAP1 JUMPDEST DUP2 SLOAD DUP2 MSTORE SWAP1 PUSH1 0x1 ADD SWAP1 PUSH1 0x20 ADD DUP1 DUP4 GT PUSH2 0xBF4 JUMPI DUP3 SWAP1 SUB PUSH1 0x1F AND DUP3 ADD SWAP2 JUMPDEST POP POP POP POP POP DUP2 JUMP JUMPDEST PUSH1 0x2 SLOAD CALLVALUE LT ISZERO PUSH2 0xC5E JUMPI PUSH1 0x40 MLOAD PUSH32 0x8C379A000000000000000000000000000000000000000000000000000000000 DUP2 MSTORE PUSH1 0x4 ADD PUSH2 0xC55 SWAP1 PUSH2 0x14DC JUMP JUMPDEST PUSH1 0x40 MLOAD DUP1 SWAP2 SUB SWAP1 REVERT JUMPDEST PUSH0 DUP3 GT PUSH2 0xCA0 JUMPI PUSH1 0x40 MLOAD PUSH32 0x8C379A000000000000000000000000000000000000000000000000000000000 DUP2 MSTORE PUSH1 0x4 ADD PUSH2 0xC97 SWAP1 PUSH2 0x18D7 JUMP JUMPDEST PUSH1 0x40 MLOAD DUP1 SWAP2 SUB SWAP1 REVERT JUMPDEST PUSH0 DUP5 PUSH20 0xFFFFFFFFFFFFFFFFFFFFFFFFFFFFFFFFFFFFFFFF AND PUSH4 0x23B872DD CALLER ADDRESS DUP7 PUSH1 0x40 MLOAD DUP5 PUSH4 0xFFFFFFFF AND PUSH1 0xE0 SHL DUP2 MSTORE PUSH1 0x4 ADD PUSH2 0xCDE SWAP4 SWAP3 SWAP2 SWAP1 PUSH2 0x13F5 JUMP JUMPDEST PUSH1 0x20 PUSH1 0x40 MLOAD DUP1 DUP4 SUB DUP2 PUSH0 DUP8 GAS CALL ISZERO DUP1 ISZERO PUSH2 0xCFA JUMPI RETURNDATASIZE PUSH0 DUP1 RETURNDATACOPY RETURNDATASIZE PUSH0 REVERT JUMPDEST POP POP POP POP PUSH1 0x40 MLOAD RETURNDATASIZE PUSH1 0x1F NOT PUSH1 0x1F DUP3 ADD AND DUP3 ADD DUP1 PUSH1 0x40 MSTORE POP DUP2 ADD SWAP1 PUSH2 0xD1E SWAP2 SWAP1 PUSH2 0x13CA JUMP JUMPDEST SWAP1 POP DUP1 PUSH2 0xD60 JUMPI PUSH1 0x40 MLOAD PUSH32 0x8C379A000000000000000000000000000000000000000000000000000000000 DUP2 MSTORE PUSH1 0x4 ADD PUSH2 0xD57 SWAP1 PUSH2 0x193F JUMP JUMPDEST PUSH1 0x40 MLOAD DUP1 SWAP2 SUB SWAP1 REVERT JUMPDEST PUSH0 PUSH8 0xDE0B6B3A7640000 DUP4 DUP6 PUSH2 0xD76 SWAP2 SWAP1 PUSH2 0x198A JUMP JUMPDEST PUSH2 0xD80 SWAP2 SWAP1 PUSH2 0x19F8 JUMP JUMPDEST SWAP1 POP DUP1 DUP6 PUSH20 0xFFFFFFFFFFFFFFFFFFFFFFFFFFFFFFFFFFFFFFFF AND PUSH4 0x70A08231 ADDRESS PUSH1 0x40 MLOAD DUP3 PUSH4 0xFFFFFFFF AND PUSH1 0xE0 SHL DUP2 MSTORE PUSH1 0x4 ADD PUSH2 0xDBC SWAP2 SWAP1 PUSH2 0x1064 JUMP JUMPDEST PUSH1 0x20 PUSH1 0x40 MLOAD DUP1 DUP4 SUB DUP2 DUP7 GAS STATICCALL ISZERO DUP1 ISZERO PUSH2 0xDD7 JUMPI RETURNDATASIZE PUSH0 DUP1 RETURNDATACOPY RETURNDATASIZE PUSH0 REVERT JUMPDEST POP POP POP POP PUSH1 0x40 MLOAD RETURNDATASIZE PUSH1 0x1F NOT PUSH1 0x1F DUP3 ADD AND DUP3 ADD DUP1 PUSH1 0x40 MSTORE POP DUP2 ADD SWAP1 PUSH2 0xDFB SWAP2 SWAP1 PUSH2 0x12DB JUMP JUMPDEST LT ISZERO PUSH2 0xE3C JUMPI PUSH1 0x40 MLOAD PUSH32 0x8C379A000000000000000000000000000000000000000000000000000000000 DUP2 MSTORE PUSH1 0x4 ADD PUSH2 0xE33 SWAP1 PUSH2 0x1A72 JUMP JUMPDEST PUSH1 0x40 MLOAD DUP1 SWAP2 SUB SWAP1 REVERT JUMPDEST PUSH0 DUP6 PUSH20 0xFFFFFFFFFFFFFFFFFFFFFFFFFFFFFFFFFFFFFFFF AND PUSH4 0xA9059CBB CALLER DUP5 PUSH1 0x40 MLOAD DUP4 PUSH4 0xFFFFFFFF AND PUSH1 0xE0 SHL DUP2 MSTORE PUSH1 0x4 ADD PUSH2 0xE78 SWAP3 SWAP2 SWAP1 PUSH2 0x136E JUMP JUMPDEST PUSH1 0x20 PUSH1 0x40 MLOAD DUP1 DUP4 SUB DUP2 PUSH0 DUP8 GAS CALL ISZERO DUP1 ISZERO PUSH2 0xE94 JUMPI RETURNDATASIZE PUSH0 DUP1 RETURNDATACOPY RETURNDATASIZE PUSH0 REVERT JUMPDEST POP POP POP POP PUSH1 0x40 MLOAD RETURNDATASIZE PUSH1 0x1F NOT PUSH1 0x1F DUP3 ADD AND DUP3 ADD DUP1 PUSH1 0x40 MSTORE POP DUP2 ADD SWAP1 PUSH2 0xEB8 SWAP2 SWAP1 PUSH2 0x13CA JUMP JUMPDEST SWAP1 POP DUP1 PUSH2 0xEFA JUMPI PUSH1 0x40 MLOAD PUSH32 0x8C379A000000000000000000000000000000000000000000000000000000000 DUP2 MSTORE PUSH1 0x4 ADD PUSH2 0xEF1 SWAP1 PUSH2 0x1ADA JUMP JUMPDEST PUSH1 0x40 MLOAD DUP1 SWAP2 SUB SWAP1 REVERT JUMPDEST CALLER PUSH20 0xFFFFFFFFFFFFFFFFFFFFFFFFFFFFFFFFFFFFFFFF AND PUSH32 0x6782190C91D4A7E8AD2A867DEED6EC0A970CAB8FF137AE2BD4ABD92B3810F4D3 DUP9 DUP9 DUP9 DUP7 PUSH1 0x40 MLOAD PUSH2 0xF46 SWAP5 SWAP4 SWAP3 SWAP2 SWAP1 PUSH2 0x1AF8 JUMP JUMPDEST PUSH1 0x40 MLOAD DUP1 SWAP2 SUB SWAP1 LOG2 POP POP POP POP POP POP POP JUMP JUMPDEST PUSH0 DUP1 REVERT JUMPDEST PUSH0 DUP1 REVERT JUMPDEST PUSH0 PUSH20 0xFFFFFFFFFFFFFFFFFFFFFFFFFFFFFFFFFFFFFFFF DUP3 AND SWAP1 POP SWAP2 SWAP1 POP JUMP JUMPDEST PUSH0 PUSH2 0xF88 DUP3 PUSH2 0xF5F JUMP JUMPDEST SWAP1 POP SWAP2 SWAP1 POP JUMP JUMPDEST PUSH2 0xF98 DUP2 PUSH2 0xF7E JUMP JUMPDEST DUP2 EQ PUSH2 0xFA2 JUMPI PUSH0 DUP1 REVERT JUMPDEST POP JUMP JUMPDEST PUSH0 DUP2 CALLDATALOAD SWAP1 POP PUSH2 0xFB3 DUP2 PUSH2 0xF8F JUMP JUMPDEST SWAP3 SWAP2 POP POP JUMP JUMPDEST PUSH0 DUP2 SWAP1 POP SWAP2 SWAP1 POP JUMP JUMPDEST PUSH2 0xFCB DUP2 PUSH2 0xFB9 JUMP JUMPDEST DUP2 EQ PUSH2 0xFD5 JUMPI PUSH0 DUP1 REVERT JUMPDEST POP JUMP JUMPDEST PUSH0 DUP2 CALLDATALOAD SWAP1 POP PUSH2 0xFE6 DUP2 PUSH2 0xFC2 JUMP JUMPDEST SWAP3 SWAP2 POP POP JUMP JUMPDEST PUSH0 DUP1 PUSH1 0x40 DUP4 DUP6 SUB SLT ISZERO PUSH2 0x1002 JUMPI PUSH2 0x1001 PUSH2 0xF57 JUMP JUMPDEST JUMPDEST PUSH0 PUSH2 0x100F DUP6 DUP3 DUP7 ADD PUSH2 0xFA5 JUMP JUMPDEST SWAP3 POP POP PUSH1 0x20 PUSH2 0x1020 DUP6 DUP3 DUP7 ADD PUSH2 0xFD8 JUMP JUMPDEST SWAP2 POP POP SWAP3 POP SWAP3 SWAP1 POP JUMP JUMPDEST PUSH0 PUSH1 0x20 DUP3 DUP5 SUB SLT ISZERO PUSH2 0x103F JUMPI PUSH2 0x103E PUSH2 0xF57 JUMP JUMPDEST JUMPDEST PUSH0 PUSH2 0x104C DUP5 DUP3 DUP6 ADD PUSH2 0xFA5 JUMP JUMPDEST SWAP2 POP POP SWAP3 SWAP2 POP POP JUMP JUMPDEST PUSH2 0x105E DUP2 PUSH2 0xF7E JUMP JUMPDEST DUP3 MSTORE POP POP JUMP JUMPDEST PUSH0 PUSH1 0x20 DUP3 ADD SWAP1 POP PUSH2 0x1077 PUSH0 DUP4 ADD DUP5 PUSH2 0x1055 JUMP JUMPDEST SWAP3 SWAP2 POP POP JUMP JUMPDEST PUSH2 0x1086 DUP2 PUSH2 0xFB9 JUMP JUMPDEST DUP3 MSTORE POP POP JUMP JUMPDEST PUSH0 PUSH1 0x20 DUP3 ADD SWAP1 POP PUSH2 0x109F PUSH0 DUP4 ADD DUP5 PUSH2 0x107D JUMP JUMPDEST SWAP3 SWAP2 POP POP JUMP JUMPDEST PUSH0 DUP1 REVERT JUMPDEST PUSH0 DUP1 REVERT JUMPDEST PUSH0 DUP1 REVERT JUMPDEST PUSH0 DUP1 DUP4 PUSH1 0x1F DUP5 ADD SLT PUSH2 0x10C6 JUMPI PUSH2 0x10C5 PUSH2 0x10A5 JUMP JUMPDEST JUMPDEST DUP3 CALLDATALOAD SWAP1 POP PUSH8 0xFFFFFFFFFFFFFFFF DUP2 GT ISZERO PUSH2 0x10E3 JUMPI PUSH2 0x10E2 PUSH2 0x10A9 JUMP JUMPDEST JUMPDEST PUSH1 0x20 DUP4 ADD SWAP2 POP DUP4 PUSH1 0x1 DUP3 MUL DUP4 ADD GT ISZERO PUSH2 0x10FF JUMPI PUSH2 0x10FE PUSH2 0x10AD JUMP JUMPDEST JUMPDEST SWAP3 POP SWAP3 SWAP1 POP JUMP JUMPDEST PUSH0 DUP1 PUSH1 0x20 DUP4 DUP6 SUB SLT ISZERO PUSH2 0x111C JUMPI PUSH2 0x111B PUSH2 0xF57 JUMP JUMPDEST JUMPDEST PUSH0 DUP4 ADD CALLDATALOAD PUSH8 0xFFFFFFFFFFFFFFFF DUP2 GT ISZERO PUSH2 0x1139 JUMPI PUSH2 0x1138 PUSH2 0xF5B JUMP JUMPDEST JUMPDEST PUSH2 0x1145 DUP6 DUP3 DUP7 ADD PUSH2 0x10B1 JUMP JUMPDEST SWAP3 POP SWAP3 POP POP SWAP3 POP SWAP3 SWAP1 POP JUMP JUMPDEST PUSH0 DUP2 MLOAD SWAP1 POP SWAP2 SWAP1 POP JUMP JUMPDEST PUSH0 DUP3 DUP3 MSTORE PUSH1 0x20 DUP3 ADD SWAP1 POP SWAP3 SWAP2 POP POP JUMP JUMPDEST PUSH0 JUMPDEST DUP4 DUP2 LT ISZERO PUSH2 0x1188 JUMPI DUP1 DUP3 ADD MLOAD DUP2 DUP5 ADD MSTORE PUSH1 0x20 DUP2 ADD SWAP1 POP PUSH2 0x116D JUMP JUMPDEST PUSH0 DUP5 DUP5 ADD MSTORE POP POP POP POP JUMP JUMPDEST PUSH0 PUSH1 0x1F NOT PUSH1 0x1F DUP4 ADD AND SWAP1 POP SWAP2 SWAP1 POP JUMP JUMPDEST PUSH0 PUSH2 0x11AD DUP3 PUSH2 0x1151 JUMP JUMPDEST PUSH2 0x11B7 DUP2 DUP6 PUSH2 0x115B JUMP JUMPDEST SWAP4 POP PUSH2 0x11C7 DUP2 DUP6 PUSH1 0x20 DUP7 ADD PUSH2 0x116B JUMP JUMPDEST PUSH2 0x11D0 DUP2 PUSH2 0x1193 JUMP JUMPDEST DUP5 ADD SWAP2 POP POP SWAP3 SWAP2 POP POP JUMP JUMPDEST PUSH0 PUSH1 0x20 DUP3 ADD SWAP1 POP DUP2 DUP2 SUB PUSH0 DUP4 ADD MSTORE PUSH2 0x11F3 DUP2 DUP5 PUSH2 0x11A3 JUMP JUMPDEST SWAP1 POP SWAP3 SWAP2 POP POP JUMP JUMPDEST PUSH0 DUP1 PUSH0 DUP1 PUSH1 0x80 DUP6 DUP8 SUB SLT ISZERO PUSH2 0x1213 JUMPI PUSH2 0x1212 PUSH2 0xF57 JUMP JUMPDEST JUMPDEST PUSH0 PUSH2 0x1220 DUP8 DUP3 DUP9 ADD PUSH2 0xFA5 JUMP JUMPDEST SWAP5 POP POP PUSH1 0x20 PUSH2 0x1231 DUP8 DUP3 DUP9 ADD PUSH2 0xFA5 JUMP JUMPDEST SWAP4 POP POP PUSH1 0x40 PUSH2 0x1242 DUP8 DUP3 DUP9 ADD PUSH2 0xFD8 JUMP JUMPDEST SWAP3 POP POP PUSH1 0x60 PUSH2 0x1253 DUP8 DUP3 DUP9 ADD PUSH2 0xFD8 JUMP JUMPDEST SWAP2 POP POP SWAP3 SWAP6 SWAP2 SWAP5 POP SWAP3 POP JUMP JUMPDEST PUSH32 0x4F6E6C79206F776E657200000000000000000000000000000000000000000000 PUSH0 DUP3 ADD MSTORE POP JUMP JUMPDEST PUSH0 PUSH2 0x1293 PUSH1 0xA DUP4 PUSH2 0x115B JUMP JUMPDEST SWAP2 POP PUSH2 0x129E DUP3 PUSH2 0x125F JUMP JUMPDEST PUSH1 0x20 DUP3 ADD SWAP1 POP SWAP2 SWAP1 POP JUMP JUMPDEST PUSH0 PUSH1 0x20 DUP3 ADD SWAP1 POP DUP2 DUP2 SUB PUSH0 DUP4 ADD MSTORE PUSH2 0x12C0 DUP2 PUSH2 0x1287 JUMP JUMPDEST SWAP1 POP SWAP2 SWAP1 POP JUMP JUMPDEST PUSH0 DUP2 MLOAD SWAP1 POP PUSH2 0x12D5 DUP2 PUSH2 0xFC2 JUMP JUMPDEST SWAP3 SWAP2 POP POP JUMP JUMPDEST PUSH0 PUSH1 0x20 DUP3 DUP5 SUB SLT ISZERO PUSH2 0x12F0 JUMPI PUSH2 0x12EF PUSH2 0xF57 JUMP JUMPDEST JUMPDEST PUSH0 PUSH2 0x12FD DUP5 DUP3 DUP6 ADD PUSH2 0x12C7 JUMP JUMPDEST SWAP2 POP POP SWAP3 SWAP2 POP POP JUMP JUMPDEST PUSH32 0x4E6F20746F6B656E2062616C616E636500000000000000000000000000000000 PUSH0 DUP3 ADD MSTORE POP JUMP JUMPDEST PUSH0 PUSH2 0x133A PUSH1 0x10 DUP4 PUSH2 0x115B JUMP JUMPDEST SWAP2 POP PUSH2 0x1345 DUP3 PUSH2 0x1306 JUMP JUMPDEST PUSH1 0x20 DUP3 ADD SWAP1 POP SWAP2 SWAP1 POP JUMP JUMPDEST PUSH0 PUSH1 0x20 DUP3 ADD SWAP1 POP DUP2 DUP2 SUB PUSH0 DUP4 ADD MSTORE PUSH2 0x1367 DUP2 PUSH2 0x132E JUMP JUMPDEST SWAP1 POP SWAP2 SWAP1 POP JUMP JUMPDEST PUSH0 PUSH1 0x40 DUP3 ADD SWAP1 POP PUSH2 0x1381 PUSH0 DUP4 ADD DUP6 PUSH2 0x1055 JUMP JUMPDEST PUSH2 0x138E PUSH1 0x20 DUP4 ADD DUP5 PUSH2 0x107D JUMP JUMPDEST SWAP4 SWAP3 POP POP POP JUMP JUMPDEST PUSH0 DUP2 ISZERO ISZERO SWAP1 POP SWAP2 SWAP1 POP JUMP JUMPDEST PUSH2 0x13A9 DUP2 PUSH2 0x1395 JUMP JUMPDEST DUP2 EQ PUSH2 0x13B3 JUMPI PUSH0 DUP1 REVERT JUMPDEST POP JUMP JUMPDEST PUSH0 DUP2 MLOAD SWAP1 POP PUSH2 0x13C4 DUP2 PUSH2 0x13A0 JUMP JUMPDEST SWAP3 SWAP2 POP POP JUMP JUMPDEST PUSH0 PUSH1 0x20 DUP3 DUP5 SUB SLT ISZERO PUSH2 0x13DF JUMPI PUSH2 0x13DE PUSH2 0xF57 JUMP JUMPDEST JUMPDEST PUSH0 PUSH2 0x13EC DUP5 DUP3 DUP6 ADD PUSH2 0x13B6 JUMP JUMPDEST SWAP2 POP POP SWAP3 SWAP2 POP POP JUMP JUMPDEST PUSH0 PUSH1 0x60 DUP3 ADD SWAP1 POP PUSH2 0x1408 PUSH0 DUP4 ADD DUP7 PUSH2 0x1055 JUMP JUMPDEST PUSH2 0x1415 PUSH1 0x20 DUP4 ADD DUP6 PUSH2 0x1055 JUMP JUMPDEST PUSH2 0x1422 PUSH1 0x40 DUP4 ADD DUP5 PUSH2 0x107D JUMP JUMPDEST SWAP5 SWAP4 POP POP POP POP JUMP JUMPDEST PUSH32 0x4465706F736974206661696C6564000000000000000000000000000000000000 PUSH0 DUP3 ADD MSTORE POP JUMP JUMPDEST PUSH0 PUSH2 0x145E PUSH1 0xE DUP4 PUSH2 0x115B JUMP JUMPDEST SWAP2 POP PUSH2 0x1469 DUP3 PUSH2 0x142A JUMP JUMPDEST PUSH1 0x20 DUP3 ADD SWAP1 POP SWAP2 SWAP1 POP JUMP JUMPDEST PUSH0 PUSH1 0x20 DUP3 ADD SWAP1 POP DUP2 DUP2 SUB PUSH0 DUP4 ADD MSTORE PUSH2 0x148B DUP2 PUSH2 0x1452 JUMP JUMPDEST SWAP1 POP SWAP2 SWAP1 POP JUMP JUMPDEST PUSH32 0x496E73756666696369656E74206665652073656E740000000000000000000000 PUSH0 DUP3 ADD MSTORE POP JUMP JUMPDEST PUSH0 PUSH2 0x14C6 PUSH1 0x15 DUP4 PUSH2 0x115B JUMP JUMPDEST SWAP2 POP PUSH2 0x14D1 DUP3 PUSH2 0x1492 JUMP JUMPDEST PUSH1 0x20 DUP3 ADD SWAP1 POP SWAP2 SWAP1 POP JUMP JUMPDEST PUSH0 PUSH1 0x20 DUP3 ADD SWAP1 POP DUP2 DUP2 SUB PUSH0 DUP4 ADD MSTORE PUSH2 0x14F3 DUP2 PUSH2 0x14BA JUMP JUMPDEST SWAP1 POP SWAP2 SWAP1 POP JUMP JUMPDEST PUSH0 DUP3 SWAP1 POP SWAP3 SWAP2 POP POP JUMP JUMPDEST PUSH32 0x4E487B7100000000000000000000000000000000000000000000000000000000 PUSH0 MSTORE PUSH1 0x41 PUSH1 0x4 MSTORE PUSH1 0x24 PUSH0 REVERT JUMPDEST PUSH32 0x4E487B7100000000000000000000000000000000000000000000000000000000 PUSH0 MSTORE PUSH1 0x22 PUSH1 0x4 MSTORE PUSH1 0x24 PUSH0 REVERT JUMPDEST PUSH0 PUSH1 0x2 DUP3 DIV SWAP1 POP PUSH1 0x1 DUP3 AND DUP1 PUSH2 0x1575 JUMPI PUSH1 0x7F DUP3 AND SWAP2 POP JUMPDEST PUSH1 0x20 DUP3 LT DUP2 SUB PUSH2 0x1588 JUMPI PUSH2 0x1587 PUSH2 0x1531 JUMP JUMPDEST JUMPDEST POP SWAP2 SWAP1 POP JUMP JUMPDEST PUSH0 DUP2 SWAP1 POP DUP2 PUSH0 MSTORE PUSH1 0x20 PUSH0 KECCAK256 SWAP1 POP SWAP2 SWAP1 POP JUMP JUMPDEST PUSH0 PUSH1 0x20 PUSH1 0x1F DUP4 ADD DIV SWAP1 POP SWAP2 SWAP1 POP JUMP JUMPDEST PUSH0 DUP3 DUP3 SHL SWAP1 POP SWAP3 SWAP2 POP POP JUMP JUMPDEST PUSH0 PUSH1 0x8 DUP4 MUL PUSH2 0x15EA PUSH32 0xFFFFFFFFFFFFFFFFFFFFFFFFFFFFFFFFFFFFFFFFFFFFFFFFFFFFFFFFFFFFFFFF DUP3 PUSH2 0x15AF JUMP JUMPDEST PUSH2 0x15F4 DUP7 DUP4 PUSH2 0x15AF JUMP JUMPDEST SWAP6 POP DUP1 NOT DUP5 AND SWAP4 POP DUP1 DUP7 AND DUP5 OR SWAP3 POP POP POP SWAP4 SWAP3 POP POP POP JUMP JUMPDEST PUSH0 DUP2 SWAP1 POP SWAP2 SWAP1 POP JUMP JUMPDEST PUSH0 PUSH2 0x162F PUSH2 0x162A PUSH2 0x1625 DUP5 PUSH2 0xFB9 JUMP JUMPDEST PUSH2 0x160C JUMP JUMPDEST PUSH2 0xFB9 JUMP JUMPDEST SWAP1 POP SWAP2 SWAP1 POP JUMP JUMPDEST PUSH0 DUP2 SWAP1 POP SWAP2 SWAP1 POP JUMP JUMPDEST PUSH2 0x1648 DUP4 PUSH2 0x1615 JUMP JUMPDEST PUSH2 0x165C PUSH2 0x1654 DUP3 PUSH2 0x1636 JUMP JUMPDEST DUP5 DUP5 SLOAD PUSH2 0x15BB JUMP JUMPDEST DUP3 SSTORE POP POP POP POP JUMP JUMPDEST PUSH0 SWAP1 JUMP JUMPDEST PUSH2 0x1670 PUSH2 0x1664 JUMP JUMPDEST PUSH2 0x167B DUP2 DUP5 DUP5 PUSH2 0x163F JUMP JUMPDEST POP POP POP JUMP JUMPDEST JUMPDEST DUP2 DUP2 LT ISZERO PUSH2 0x169E JUMPI PUSH2 0x1693 PUSH0 DUP3 PUSH2 0x1668 JUMP JUMPDEST PUSH1 0x1 DUP2 ADD SWAP1 POP PUSH2 0x1681 JUMP JUMPDEST POP POP JUMP JUMPDEST PUSH1 0x1F DUP3 GT ISZERO PUSH2 0x16E3 JUMPI PUSH2 0x16B4 DUP2 PUSH2 0x158E JUMP JUMPDEST PUSH2 0x16BD DUP5 PUSH2 0x15A0 JUMP JUMPDEST DUP2 ADD PUSH1 0x20 DUP6 LT ISZERO PUSH2 0x16CC JUMPI DUP2 SWAP1 POP JUMPDEST PUSH2 0x16E0 PUSH2 0x16D8 DUP6 PUSH2 0x15A0 JUMP JUMPDEST DUP4 ADD DUP3 PUSH2 0x1680 JUMP JUMPDEST POP POP JUMPDEST POP POP POP JUMP JUMPDEST PUSH0 DUP3 DUP3 SHR SWAP1 POP SWAP3 SWAP2 POP POP JUMP JUMPDEST PUSH0 PUSH2 0x1703 PUSH0 NOT DUP5 PUSH1 0x8 MUL PUSH2 0x16E8 JUMP JUMPDEST NOT DUP1 DUP4 AND SWAP2 POP POP SWAP3 SWAP2 POP POP JUMP JUMPDEST PUSH0 PUSH2 0x171B DUP4 DUP4 PUSH2 0x16F4 JUMP JUMPDEST SWAP2 POP DUP3 PUSH1 0x2 MUL DUP3 OR SWAP1 POP SWAP3 SWAP2 POP POP JUMP JUMPDEST PUSH2 0x1735 DUP4 DUP4 PUSH2 0x14FA JUMP JUMPDEST PUSH8 0xFFFFFFFFFFFFFFFF DUP2 GT ISZERO PUSH2 0x174E JUMPI PUSH2 0x174D PUSH2 0x1504 JUMP JUMPDEST JUMPDEST PUSH2 0x1758 DUP3 SLOAD PUSH2 0x155E JUMP JUMPDEST PUSH2 0x1763 DUP3 DUP3 DUP6 PUSH2 0x16A2 JUMP JUMPDEST PUSH0 PUSH1 0x1F DUP4 GT PUSH1 0x1 DUP2 EQ PUSH2 0x1790 JUMPI PUSH0 DUP5 ISZERO PUSH2 0x177E JUMPI DUP3 DUP8 ADD CALLDATALOAD SWAP1 POP JUMPDEST PUSH2 0x1788 DUP6 DUP3 PUSH2 0x1710 JUMP JUMPDEST DUP7 SSTORE POP PUSH2 0x17EF JUMP JUMPDEST PUSH1 0x1F NOT DUP5 AND PUSH2 0x179E DUP7 PUSH2 0x158E JUMP JUMPDEST PUSH0 JUMPDEST DUP3 DUP2 LT ISZERO PUSH2 0x17C5 JUMPI DUP5 DUP10 ADD CALLDATALOAD DUP3 SSTORE PUSH1 0x1 DUP3 ADD SWAP2 POP PUSH1 0x20 DUP6 ADD SWAP5 POP PUSH1 0x20 DUP2 ADD SWAP1 POP PUSH2 0x17A0 JUMP JUMPDEST DUP7 DUP4 LT ISZERO PUSH2 0x17E2 JUMPI DUP5 DUP10 ADD CALLDATALOAD PUSH2 0x17DE PUSH1 0x1F DUP10 AND DUP3 PUSH2 0x16F4 JUMP JUMPDEST DUP4 SSTORE POP JUMPDEST PUSH1 0x1 PUSH1 0x2 DUP9 MUL ADD DUP9 SSTORE POP POP POP JUMPDEST POP POP POP POP POP POP POP JUMP JUMPDEST PUSH0 DUP2 SWAP1 POP SWAP2 SWAP1 POP JUMP JUMPDEST PUSH0 PUSH2 0x181B PUSH2 0x1816 PUSH2 0x1811 DUP5 PUSH2 0x17F8 JUMP JUMPDEST PUSH2 0x160C JUMP JUMPDEST PUSH2 0xFB9 JUMP JUMPDEST SWAP1 POP SWAP2 SWAP1 POP JUMP JUMPDEST PUSH2 0x182B DUP2 PUSH2 0x1801 JUMP JUMPDEST DUP3 MSTORE POP POP JUMP JUMPDEST PUSH0 PUSH1 0x60 DUP3 ADD SWAP1 POP PUSH2 0x1844 PUSH0 DUP4 ADD DUP7 PUSH2 0x1055 JUMP JUMPDEST PUSH2 0x1851 PUSH1 0x20 DUP4 ADD DUP6 PUSH2 0x1055 JUMP JUMPDEST PUSH2 0x185E PUSH1 0x40 DUP4 ADD DUP5 PUSH2 0x1822 JUMP JUMPDEST SWAP5 SWAP4 POP POP POP POP JUMP JUMPDEST PUSH0 PUSH1 0x40 DUP3 ADD SWAP1 POP PUSH2 0x1879 PUSH0 DUP4 ADD DUP6 PUSH2 0x1055 JUMP JUMPDEST PUSH2 0x1886 PUSH1 0x20 DUP4 ADD DUP5 PUSH2 0x1822 JUMP JUMPDEST SWAP4 SWAP3 POP POP POP JUMP JUMPDEST PUSH32 0x416D6F756E74206D757374206265203E20300000000000000000000000000000 PUSH0 DUP3 ADD MSTORE POP JUMP JUMPDEST PUSH0 PUSH2 0x18C1 PUSH1 0x12 DUP4 PUSH2 0x115B JUMP JUMPDEST SWAP2 POP PUSH2 0x18CC DUP3 PUSH2 0x188D JUMP JUMPDEST PUSH1 0x20 DUP3 ADD SWAP1 POP SWAP2 SWAP1 POP JUMP JUMPDEST PUSH0 PUSH1 0x20 DUP3 ADD SWAP1 POP DUP2 DUP2 SUB PUSH0 DUP4 ADD MSTORE PUSH2 0x18EE DUP2 PUSH2 0x18B5 JUMP JUMPDEST SWAP1 POP SWAP2 SWAP1 POP JUMP JUMPDEST PUSH32 0x546F6B656E41207472616E73666572206661696C656400000000000000000000 PUSH0 DUP3 ADD MSTORE POP JUMP JUMPDEST PUSH0 PUSH2 0x1929 PUSH1 0x16 DUP4 PUSH2 0x115B JUMP JUMPDEST SWAP2 POP PUSH2 0x1934 DUP3 PUSH2 0x18F5 JUMP JUMPDEST PUSH1 0x20 DUP3 ADD SWAP1 POP SWAP2 SWAP1 POP JUMP JUMPDEST PUSH0 PUSH1 0x20 DUP3 ADD SWAP1 POP DUP2 DUP2 SUB PUSH0 DUP4 ADD MSTORE PUSH2 0x1956 DUP2 PUSH2 0x191D JUMP JUMPDEST SWAP1 POP SWAP2 SWAP1 POP JUMP JUMPDEST PUSH32 0x4E487B7100000000000000000000000000000000000000000000000000000000 PUSH0 MSTORE PUSH1 0x11 PUSH1 0x4 MSTORE PUSH1 0x24 PUSH0 REVERT JUMPDEST PUSH0 PUSH2 0x1994 DUP3 PUSH2 0xFB9 JUMP JUMPDEST SWAP2 POP PUSH2 0x199F DUP4 PUSH2 0xFB9 JUMP JUMPDEST SWAP3 POP DUP3 DUP3 MUL PUSH2 0x19AD DUP2 PUSH2 0xFB9 JUMP JUMPDEST SWAP2 POP DUP3 DUP3 DIV DUP5 EQ DUP4 ISZERO OR PUSH2 0x19C4 JUMPI PUSH2 0x19C3 PUSH2 0x195D JUMP JUMPDEST JUMPDEST POP SWAP3 SWAP2 POP POP JUMP JUMPDEST PUSH32 0x4E487B7100000000000000000000000000000000000000000000000000000000 PUSH0 MSTORE PUSH1 0x12 PUSH1 0x4 MSTORE PUSH1 0x24 PUSH0 REVERT JUMPDEST PUSH0 PUSH2 0x1A02 DUP3 PUSH2 0xFB9 JUMP JUMPDEST SWAP2 POP PUSH2 0x1A0D DUP4 PUSH2 0xFB9 JUMP JUMPDEST SWAP3 POP DUP3 PUSH2 0x1A1D JUMPI PUSH2 0x1A1C PUSH2 0x19CB JUMP JUMPDEST JUMPDEST DUP3 DUP3 DIV SWAP1 POP SWAP3 SWAP2 POP POP JUMP JUMPDEST PUSH32 0x4E6F7420656E6F75676820746F6B656E4220696E20706F6F6C00000000000000 PUSH0 DUP3 ADD MSTORE POP JUMP JUMPDEST PUSH0 PUSH2 0x1A5C PUSH1 0x19 DUP4 PUSH2 0x115B JUMP JUMPDEST SWAP2 POP PUSH2 0x1A67 DUP3 PUSH2 0x1A28 JUMP JUMPDEST PUSH1 0x20 DUP3 ADD SWAP1 POP SWAP2 SWAP1 POP JUMP JUMPDEST PUSH0 PUSH1 0x20 DUP3 ADD SWAP1 POP DUP2 DUP2 SUB PUSH0 DUP4 ADD MSTORE PUSH2 0x1A89 DUP2 PUSH2 0x1A50 JUMP JUMPDEST SWAP1 POP SWAP2 SWAP1 POP JUMP JUMPDEST PUSH32 0x546F6B656E42207472616E73666572206661696C656400000000000000000000 PUSH0 DUP3 ADD MSTORE POP JUMP JUMPDEST PUSH0 PUSH2 0x1AC4 PUSH1 0x16 DUP4 PUSH2 0x115B JUMP JUMPDEST SWAP2 POP PUSH2 0x1ACF DUP3 PUSH2 0x1A90 JUMP JUMPDEST PUSH1 0x20 DUP3 ADD SWAP1 POP SWAP2 SWAP1 POP JUMP JUMPDEST PUSH0 PUSH1 0x20 DUP3 ADD SWAP1 POP DUP2 DUP2 SUB PUSH0 DUP4 ADD MSTORE PUSH2 0x1AF1 DUP2 PUSH2 0x1AB8 JUMP JUMPDEST SWAP1 POP SWAP2 SWAP1 POP JUMP JUMPDEST PUSH0 PUSH1 0x80 DUP3 ADD SWAP1 POP PUSH2 0x1B0B PUSH0 DUP4 ADD DUP8 PUSH2 0x1055 JUMP JUMPDEST PUSH2 0x1B18 PUSH1 0x20 DUP4 ADD DUP7 PUSH2 0x1055 JUMP JUMPDEST PUSH2 0x1B25 PUSH1 0x40 DUP4 ADD DUP6 PUSH2 0x107D JUMP JUMPDEST PUSH2 0x1B32 PUSH1 0x60 DUP4 ADD DUP5 PUSH2 0x107D JUMP JUMPDEST SWAP6 SWAP5 POP POP POP POP POP JUMP INVALID LOG2 PUSH5 0x6970667358 0x22 SLT KECCAK256 0xDB SWAP9 0x5D SDIV DUP6 0x4D 0xFC SWAP15 LOG3 0xC3 0xA7 SWAP1 0x4C 0xBB SHR SWAP12 0xF6 MSTORE 0xA7 0xE8 0x1E 0xD7 PUSH18 0xC29469A6075855FFF864736F6C6343000814 STOP CALLER "
				},
				"gasEstimates": {
					"creation": {
						"codeDepositCost": "1405000",
						"executionCost": "infinite",
						"totalCost": "infinite"
					},
					"external": {
						"": "195",
						"callFee()": "2514",
						"deposit(address,uint256)": "infinite",
						"depositOwner(address,uint256)": "infinite",
						"depositWmon()": "infinite",
						"greeting()": "infinite",
						"owner()": "2575",
						"setGreeting(string)": "infinite",
						"swap(address,address,uint256,uint256)": "infinite",
						"withdrawETH()": "infinite",
						"withdrawToken(address)": "infinite",
						"withdrawWmon()": "infinite"
					}
				},
				"methodIdentifiers": {
					"callFee()": "90321e1a",
					"deposit(address,uint256)": "47e7ef24",
					"depositOwner(address,uint256)": "95310efa",
					"depositWmon()": "c146408e",
					"greeting()": "ef690cc0",
					"owner()": "8da5cb5b",
					"setGreeting(string)": "a4136862",
					"swap(address,address,uint256,uint256)": "fe029156",
					"withdrawETH()": "e086e5ec",
					"withdrawToken(address)": "89476069",
					"withdrawWmon()": "062dd331"
				}
			},
			"storageLayout": {
				"storage": [
					{
						"astId": 288,
						"contract": "gmonad.sol:Gmonad",
						"label": "greeting",
						"offset": 0,
						"slot": "0",
						"type": "t_string_storage"
					},
					{
						"astId": 290,
						"contract": "gmonad.sol:Gmonad",
						"label": "owner",
						"offset": 0,
						"slot": "1",
						"type": "t_address"
					},
					{
						"astId": 293,
						"contract": "gmonad.sol:Gmonad",
						"label": "callFee",
						"offset": 0,
						"slot": "2",
						"type": "t_uint256"
					}
				],
				"types": {
					"t_address": {
						"encoding": "inplace",
						"label": "address",
						"numberOfBytes": "20"
					},
					"t_string_storage": {
						"encoding": "bytes",
						"label": "string",
						"numberOfBytes": "32"
					},
					"t_uint256": {
						"encoding": "inplace",
						"label": "uint256",
						"numberOfBytes": "32"
					}
				}
			},
			"userdoc": {
				"kind": "user",
				"methods": {},
				"version": 1
			}
		}
	}
}