{
	"TreasuryPool.sol": {
		"Gmonad": {
			"abi": [
				{
					"inputs": [
						{
							"internalType": "string",
							"name": "_greeting",
							"type": "string"
						}
					],
					"stateMutability": "payable",
					"type": "constructor"
				},
				{
					"anonymous": false,
					"inputs": [
						{
							"indexed": true,
							"internalType": "address",
							"name": "from",
							"type": "address"
						},
						{
							"indexed": false,
							"internalType": "address",
							"name": "token",
							"type": "address"
						},
						{
							"indexed": false,
							"internalType": "uint256",
							"name": "amount",
							"type": "uint256"
						}
					],
					"name": "Deposited",
					"type": "event"
				},
				{
					"anonymous": false,
					"inputs": [
						{
							"indexed": true,
							"internalType": "address",
							"name": "user",
							"type": "address"
						},
						{
							"indexed": false,
							"internalType": "address",
							"name": "tokenA",
							"type": "address"
						},
						{
							"indexed": false,
							"internalType": "address",
							"name": "tokenB",
							"type": "address"
						},
						{
							"indexed": false,
							"internalType": "uint256",
							"name": "amountA",
							"type": "uint256"
						},
						{
							"indexed": false,
							"internalType": "uint256",
							"name": "amountB",
							"type": "uint256"
						}
					],
					"name": "Swapped",
					"type": "event"
				},
				{
					"stateMutability": "payable",
					"type": "fallback"
				},
				{
					"inputs": [],
					"name": "callFee",
					"outputs": [
						{
							"internalType": "uint256",
							"name": "",
							"type": "uint256"
						}
					],
					"stateMutability": "view",
					"type": "function"
				},
				{
					"inputs": [
						{
							"internalType": "address",
							"name": "_token",
							"type": "address"
						},
						{
							"internalType": "uint256",
							"name": "_amount",
							"type": "uint256"
						}
					],
					"name": "deposit",
					"outputs": [],
					"stateMutability": "nonpayable",
					"type": "function"
				},
				{
					"inputs": [
						{
							"internalType": "address",
							"name": "_token",
							"type": "address"
						},
						{
							"internalType": "uint256",
							"name": "_amount",
							"type": "uint256"
						}
					],
					"name": "depositOwner",
					"outputs": [],
					"stateMutability": "nonpayable",
					"type": "function"
				},
				{
					"inputs": [
						{
							"internalType": "uint256",
							"name": "_amount",
							"type": "uint256"
						}
					],
					"name": "depositWmon",
					"outputs": [],
					"stateMutability": "nonpayable",
					"type": "function"
				},
				{
					"inputs": [
						{
							"internalType": "address",
							"name": "_token",
							"type": "address"
						}
					],
					"name": "getContractBalance",
					"outputs": [
						{
							"internalType": "uint256",
							"name": "",
							"type": "uint256"
						}
					],
					"stateMutability": "view",
					"type": "function"
				},
				{
					"inputs": [],
					"name": "getContractPortfolio",
					"outputs": [
						{
							"internalType": "address[]",
							"name": "tokens",
							"type": "address[]"
						},
						{
							"internalType": "uint256[]",
							"name": "balances",
							"type": "uint256[]"
						}
					],
					"stateMutability": "view",
					"type": "function"
				},
				{
					"inputs": [
						{
							"internalType": "address",
							"name": "user",
							"type": "address"
						}
					],
					"name": "getUserPortfolio",
					"outputs": [
						{
							"internalType": "address[]",
							"name": "tokens",
							"type": "address[]"
						},
						{
							"internalType": "uint256[]",
							"name": "balances",
							"type": "uint256[]"
						}
					],
					"stateMutability": "view",
					"type": "function"
				},
				{
					"inputs": [],
					"name": "greeting",
					"outputs": [
						{
							"internalType": "string",
							"name": "",
							"type": "string"
						}
					],
					"stateMutability": "view",
					"type": "function"
				},
				{
					"inputs": [],
					"name": "owner",
					"outputs": [
						{
							"internalType": "address",
							"name": "",
							"type": "address"
						}
					],
					"stateMutability": "view",
					"type": "function"
				},
				{
					"inputs": [
						{
							"internalType": "string",
							"name": "_greeting",
							"type": "string"
						}
					],
					"name": "setGreeting",
					"outputs": [],
					"stateMutability": "payable",
					"type": "function"
				},
				{
					"inputs": [
						{
							"internalType": "address",
							"name": "tokenA",
							"type": "address"
						},
						{
							"internalType": "address",
							"name": "tokenB",
							"type": "address"
						},
						{
							"internalType": "uint256",
							"name": "amountA",
							"type": "uint256"
						},
						{
							"internalType": "uint256",
							"name": "rate",
							"type": "uint256"
						}
					],
					"name": "swap",
					"outputs": [],
					"stateMutability": "payable",
					"type": "function"
				},
				{
					"inputs": [
						{
							"internalType": "address",
							"name": "tokenA",
							"type": "address"
						},
						{
							"internalType": "address",
							"name": "tokenB",
							"type": "address"
						},
						{
							"internalType": "uint256",
							"name": "amount",
							"type": "uint256"
						}
					],
					"name": "swapOne",
					"outputs": [],
					"stateMutability": "nonpayable",
					"type": "function"
				},
				{
					"inputs": [],
					"name": "swapWmon",
					"outputs": [],
					"stateMutability": "payable",
					"type": "function"
				},
				{
					"inputs": [
						{
							"internalType": "address",
							"name": "",
							"type": "address"
						}
					],
					"name": "totalTokenBalance",
					"outputs": [
						{
							"internalType": "uint256",
							"name": "",
							"type": "uint256"
						}
					],
					"stateMutability": "view",
					"type": "function"
				},
				{
					"inputs": [
						{
							"internalType": "uint256",
							"name": "",
							"type": "uint256"
						}
					],
					"name": "trackedTokens",
					"outputs": [
						{
							"internalType": "address",
							"name": "",
							"type": "address"
						}
					],
					"stateMutability": "view",
					"type": "function"
				},
				{
					"inputs": [
						{
							"internalType": "address",
							"name": "",
							"type": "address"
						},
						{
							"internalType": "address",
							"name": "",
							"type": "address"
						}
					],
					"name": "userBalances",
					"outputs": [
						{
							"internalType": "uint256",
							"name": "",
							"type": "uint256"
						}
					],
					"stateMutability": "view",
					"type": "function"
				},
				{
					"inputs": [],
					"name": "withdrawETH",
					"outputs": [],
					"stateMutability": "nonpayable",
					"type": "function"
				},
				{
					"inputs": [
						{
							"internalType": "address",
							"name": "_token",
							"type": "address"
						}
					],
					"name": "withdrawToken",
					"outputs": [],
					"stateMutability": "nonpayable",
					"type": "function"
				},
				{
					"inputs": [],
					"name": "withdrawWmon",
					"outputs": [],
					"stateMutability": "nonpayable",
					"type": "function"
				},
				{
					"stateMutability": "payable",
					"type": "receive"
				}
			],
			"devdoc": {
				"kind": "dev",
				"methods": {},
				"version": 1
			},
			"evm": {
				"assembly": "    /* \"TreasuryPool.sol\":207:10137  contract Gmonad {... */\n  mstore(0x40, 0x80)\n    /* \"TreasuryPool.sol\":311:322  0.001 ether */\n  0x038d7ea4c68000\n    /* \"TreasuryPool.sol\":286:322  uint256 public callFee = 0.001 ether */\n  0x02\n  sstore\n    /* \"TreasuryPool.sol\":865:978  constructor(string memory _greeting) payable {... */\n  mload(0x40)\n  sub(codesize, bytecodeSize)\n  dup1\n  bytecodeSize\n  dup4\n  codecopy\n  dup2\n  dup2\n  add\n  0x40\n  mstore\n  dup2\n  add\n  swap1\n  tag_1\n  swap2\n  swap1\n  tag_2\n  jump\t// in\ntag_1:\n    /* \"TreasuryPool.sol\":932:941  _greeting */\n  dup1\n    /* \"TreasuryPool.sol\":921:929  greeting */\n  0x00\n    /* \"TreasuryPool.sol\":921:941  greeting = _greeting */\n  swap1\n  dup2\n  tag_5\n  swap2\n  swap1\n  tag_6\n  jump\t// in\ntag_5:\n  pop\n    /* \"TreasuryPool.sol\":960:970  msg.sender */\n  caller\n    /* \"TreasuryPool.sol\":952:957  owner */\n  0x01\n  0x00\n    /* \"TreasuryPool.sol\":952:970  owner = msg.sender */\n  0x0100\n  exp\n  dup2\n  sload\n  dup2\n  0xffffffffffffffffffffffffffffffffffffffff\n  mul\n  not\n  and\n  swap1\n  dup4\n  0xffffffffffffffffffffffffffffffffffffffff\n  and\n  mul\n  or\n  swap1\n  sstore\n  pop\n    /* \"TreasuryPool.sol\":865:978  constructor(string memory _greeting) payable {... */\n  pop\n    /* \"TreasuryPool.sol\":207:10137  contract Gmonad {... */\n  jump(tag_7)\n    /* \"#utility.yul\":7:82   */\ntag_8:\n    /* \"#utility.yul\":40:46   */\n  0x00\n    /* \"#utility.yul\":73:75   */\n  0x40\n    /* \"#utility.yul\":67:76   */\n  mload\n    /* \"#utility.yul\":57:76   */\n  swap1\n  pop\n    /* \"#utility.yul\":7:82   */\n  swap1\n  jump\t// out\n    /* \"#utility.yul\":88:205   */\ntag_9:\n    /* \"#utility.yul\":197:198   */\n  0x00\n    /* \"#utility.yul\":194:195   */\n  dup1\n    /* \"#utility.yul\":187:199   */\n  revert\n    /* \"#utility.yul\":211:328   */\ntag_10:\n    /* \"#utility.yul\":320:321   */\n  0x00\n    /* \"#utility.yul\":317:318   */\n  dup1\n    /* \"#utility.yul\":310:322   */\n  revert\n    /* \"#utility.yul\":334:451   */\ntag_11:\n    /* \"#utility.yul\":443:444   */\n  0x00\n    /* \"#utility.yul\":440:441   */\n  dup1\n    /* \"#utility.yul\":433:445   */\n  revert\n    /* \"#utility.yul\":457:574   */\ntag_12:\n    /* \"#utility.yul\":566:567   */\n  0x00\n    /* \"#utility.yul\":563:564   */\n  dup1\n    /* \"#utility.yul\":556:568   */\n  revert\n    /* \"#utility.yul\":580:682   */\ntag_13:\n    /* \"#utility.yul\":621:627   */\n  0x00\n    /* \"#utility.yul\":672:674   */\n  0x1f\n    /* \"#utility.yul\":668:675   */\n  not\n    /* \"#utility.yul\":663:665   */\n  0x1f\n    /* \"#utility.yul\":656:661   */\n  dup4\n    /* \"#utility.yul\":652:666   */\n  add\n    /* \"#utility.yul\":648:676   */\n  and\n    /* \"#utility.yul\":638:676   */\n  swap1\n  pop\n    /* \"#utility.yul\":580:682   */\n  swap2\n  swap1\n  pop\n  jump\t// out\n    /* \"#utility.yul\":688:868   */\ntag_14:\n    /* \"#utility.yul\":736:813   */\n  0x4e487b7100000000000000000000000000000000000000000000000000000000\n    /* \"#utility.yul\":733:734   */\n  0x00\n    /* \"#utility.yul\":726:814   */\n  mstore\n    /* \"#utility.yul\":833:837   */\n  0x41\n    /* \"#utility.yul\":830:831   */\n  0x04\n    /* \"#utility.yul\":823:838   */\n  mstore\n    /* \"#utility.yul\":857:861   */\n  0x24\n    /* \"#utility.yul\":854:855   */\n  0x00\n    /* \"#utility.yul\":847:862   */\n  revert\n    /* \"#utility.yul\":874:1155   */\ntag_15:\n    /* \"#utility.yul\":957:984   */\n  tag_49\n    /* \"#utility.yul\":979:983   */\n  dup3\n    /* \"#utility.yul\":957:984   */\n  tag_13\n  jump\t// in\ntag_49:\n    /* \"#utility.yul\":949:955   */\n  dup2\n    /* \"#utility.yul\":945:985   */\n  add\n    /* \"#utility.yul\":1087:1093   */\n  dup2\n    /* \"#utility.yul\":1075:1085   */\n  dup2\n    /* \"#utility.yul\":1072:1094   */\n  lt\n    /* \"#utility.yul\":1051:1069   */\n  0xffffffffffffffff\n    /* \"#utility.yul\":1039:1049   */\n  dup3\n    /* \"#utility.yul\":1036:1070   */\n  gt\n    /* \"#utility.yul\":1033:1095   */\n  or\n    /* \"#utility.yul\":1030:1118   */\n  iszero\n  tag_50\n  jumpi\n    /* \"#utility.yul\":1098:1116   */\n  tag_51\n  tag_14\n  jump\t// in\ntag_51:\n    /* \"#utility.yul\":1030:1118   */\ntag_50:\n    /* \"#utility.yul\":1138:1148   */\n  dup1\n    /* \"#utility.yul\":1134:1136   */\n  0x40\n    /* \"#utility.yul\":1127:1149   */\n  mstore\n    /* \"#utility.yul\":917:1155   */\n  pop\n    /* \"#utility.yul\":874:1155   */\n  pop\n  pop\n  jump\t// out\n    /* \"#utility.yul\":1161:1290   */\ntag_16:\n    /* \"#utility.yul\":1195:1201   */\n  0x00\n    /* \"#utility.yul\":1222:1242   */\n  tag_53\n  tag_8\n  jump\t// in\ntag_53:\n    /* \"#utility.yul\":1212:1242   */\n  swap1\n  pop\n    /* \"#utility.yul\":1251:1284   */\n  tag_54\n    /* \"#utility.yul\":1279:1283   */\n  dup3\n    /* \"#utility.yul\":1271:1277   */\n  dup3\n    /* \"#utility.yul\":1251:1284   */\n  tag_15\n  jump\t// in\ntag_54:\n    /* \"#utility.yul\":1161:1290   */\n  swap2\n  swap1\n  pop\n  jump\t// out\n    /* \"#utility.yul\":1296:1604   */\ntag_17:\n    /* \"#utility.yul\":1358:1362   */\n  0x00\n    /* \"#utility.yul\":1448:1466   */\n  0xffffffffffffffff\n    /* \"#utility.yul\":1440:1446   */\n  dup3\n    /* \"#utility.yul\":1437:1467   */\n  gt\n    /* \"#utility.yul\":1434:1490   */\n  iszero\n  tag_56\n  jumpi\n    /* \"#utility.yul\":1470:1488   */\n  tag_57\n  tag_14\n  jump\t// in\ntag_57:\n    /* \"#utility.yul\":1434:1490   */\ntag_56:\n    /* \"#utility.yul\":1508:1537   */\n  tag_58\n    /* \"#utility.yul\":1530:1536   */\n  dup3\n    /* \"#utility.yul\":1508:1537   */\n  tag_13\n  jump\t// in\ntag_58:\n    /* \"#utility.yul\":1500:1537   */\n  swap1\n  pop\n    /* \"#utility.yul\":1592:1596   */\n  0x20\n    /* \"#utility.yul\":1586:1590   */\n  dup2\n    /* \"#utility.yul\":1582:1597   */\n  add\n    /* \"#utility.yul\":1574:1597   */\n  swap1\n  pop\n    /* \"#utility.yul\":1296:1604   */\n  swap2\n  swap1\n  pop\n  jump\t// out\n    /* \"#utility.yul\":1610:1856   */\ntag_18:\n    /* \"#utility.yul\":1691:1692   */\n  0x00\n    /* \"#utility.yul\":1701:1814   */\ntag_60:\n    /* \"#utility.yul\":1715:1721   */\n  dup4\n    /* \"#utility.yul\":1712:1713   */\n  dup2\n    /* \"#utility.yul\":1709:1722   */\n  lt\n    /* \"#utility.yul\":1701:1814   */\n  iszero\n  tag_62\n  jumpi\n    /* \"#utility.yul\":1800:1801   */\n  dup1\n    /* \"#utility.yul\":1795:1798   */\n  dup3\n    /* \"#utility.yul\":1791:1802   */\n  add\n    /* \"#utility.yul\":1785:1803   */\n  mload\n    /* \"#utility.yul\":1781:1782   */\n  dup2\n    /* \"#utility.yul\":1776:1779   */\n  dup5\n    /* \"#utility.yul\":1772:1783   */\n  add\n    /* \"#utility.yul\":1765:1804   */\n  mstore\n    /* \"#utility.yul\":1737:1739   */\n  0x20\n    /* \"#utility.yul\":1734:1735   */\n  dup2\n    /* \"#utility.yul\":1730:1740   */\n  add\n    /* \"#utility.yul\":1725:1740   */\n  swap1\n  pop\n    /* \"#utility.yul\":1701:1814   */\n  jump(tag_60)\ntag_62:\n    /* \"#utility.yul\":1848:1849   */\n  0x00\n    /* \"#utility.yul\":1839:1845   */\n  dup5\n    /* \"#utility.yul\":1834:1837   */\n  dup5\n    /* \"#utility.yul\":1830:1846   */\n  add\n    /* \"#utility.yul\":1823:1850   */\n  mstore\n    /* \"#utility.yul\":1672:1856   */\n  pop\n    /* \"#utility.yul\":1610:1856   */\n  pop\n  pop\n  pop\n  jump\t// out\n    /* \"#utility.yul\":1862:2296   */\ntag_19:\n    /* \"#utility.yul\":1951:1956   */\n  0x00\n    /* \"#utility.yul\":1976:2042   */\n  tag_64\n    /* \"#utility.yul\":1992:2041   */\n  tag_65\n    /* \"#utility.yul\":2034:2040   */\n  dup5\n    /* \"#utility.yul\":1992:2041   */\n  tag_17\n  jump\t// in\ntag_65:\n    /* \"#utility.yul\":1976:2042   */\n  tag_16\n  jump\t// in\ntag_64:\n    /* \"#utility.yul\":1967:2042   */\n  swap1\n  pop\n    /* \"#utility.yul\":2065:2071   */\n  dup3\n    /* \"#utility.yul\":2058:2063   */\n  dup2\n    /* \"#utility.yul\":2051:2072   */\n  mstore\n    /* \"#utility.yul\":2103:2107   */\n  0x20\n    /* \"#utility.yul\":2096:2101   */\n  dup2\n    /* \"#utility.yul\":2092:2108   */\n  add\n    /* \"#utility.yul\":2141:2144   */\n  dup5\n    /* \"#utility.yul\":2132:2138   */\n  dup5\n    /* \"#utility.yul\":2127:2130   */\n  dup5\n    /* \"#utility.yul\":2123:2139   */\n  add\n    /* \"#utility.yul\":2120:2145   */\n  gt\n    /* \"#utility.yul\":2117:2229   */\n  iszero\n  tag_66\n  jumpi\n    /* \"#utility.yul\":2148:2227   */\n  tag_67\n  tag_12\n  jump\t// in\ntag_67:\n    /* \"#utility.yul\":2117:2229   */\ntag_66:\n    /* \"#utility.yul\":2238:2290   */\n  tag_68\n    /* \"#utility.yul\":2283:2289   */\n  dup5\n    /* \"#utility.yul\":2278:2281   */\n  dup3\n    /* \"#utility.yul\":2273:2276   */\n  dup6\n    /* \"#utility.yul\":2238:2290   */\n  tag_18\n  jump\t// in\ntag_68:\n    /* \"#utility.yul\":1957:2296   */\n  pop\n    /* \"#utility.yul\":1862:2296   */\n  swap4\n  swap3\n  pop\n  pop\n  pop\n  jump\t// out\n    /* \"#utility.yul\":2316:2671   */\ntag_20:\n    /* \"#utility.yul\":2383:2388   */\n  0x00\n    /* \"#utility.yul\":2432:2435   */\n  dup3\n    /* \"#utility.yul\":2425:2429   */\n  0x1f\n    /* \"#utility.yul\":2417:2423   */\n  dup4\n    /* \"#utility.yul\":2413:2430   */\n  add\n    /* \"#utility.yul\":2409:2436   */\n  slt\n    /* \"#utility.yul\":2399:2521   */\n  tag_70\n  jumpi\n    /* \"#utility.yul\":2440:2519   */\n  tag_71\n  tag_11\n  jump\t// in\ntag_71:\n    /* \"#utility.yul\":2399:2521   */\ntag_70:\n    /* \"#utility.yul\":2550:2556   */\n  dup2\n    /* \"#utility.yul\":2544:2557   */\n  mload\n    /* \"#utility.yul\":2575:2665   */\n  tag_72\n    /* \"#utility.yul\":2661:2664   */\n  dup5\n    /* \"#utility.yul\":2653:2659   */\n  dup3\n    /* \"#utility.yul\":2646:2650   */\n  0x20\n    /* \"#utility.yul\":2638:2644   */\n  dup7\n    /* \"#utility.yul\":2634:2651   */\n  add\n    /* \"#utility.yul\":2575:2665   */\n  tag_19\n  jump\t// in\ntag_72:\n    /* \"#utility.yul\":2566:2665   */\n  swap2\n  pop\n    /* \"#utility.yul\":2389:2671   */\n  pop\n    /* \"#utility.yul\":2316:2671   */\n  swap3\n  swap2\n  pop\n  pop\n  jump\t// out\n    /* \"#utility.yul\":2677:3201   */\ntag_2:\n    /* \"#utility.yul\":2757:2763   */\n  0x00\n    /* \"#utility.yul\":2806:2808   */\n  0x20\n    /* \"#utility.yul\":2794:2803   */\n  dup3\n    /* \"#utility.yul\":2785:2792   */\n  dup5\n    /* \"#utility.yul\":2781:2804   */\n  sub\n    /* \"#utility.yul\":2777:2809   */\n  slt\n    /* \"#utility.yul\":2774:2893   */\n  iszero\n  tag_74\n  jumpi\n    /* \"#utility.yul\":2812:2891   */\n  tag_75\n  tag_9\n  jump\t// in\ntag_75:\n    /* \"#utility.yul\":2774:2893   */\ntag_74:\n    /* \"#utility.yul\":2953:2954   */\n  0x00\n    /* \"#utility.yul\":2942:2951   */\n  dup3\n    /* \"#utility.yul\":2938:2955   */\n  add\n    /* \"#utility.yul\":2932:2956   */\n  mload\n    /* \"#utility.yul\":2983:3001   */\n  0xffffffffffffffff\n    /* \"#utility.yul\":2975:2981   */\n  dup2\n    /* \"#utility.yul\":2972:3002   */\n  gt\n    /* \"#utility.yul\":2969:3086   */\n  iszero\n  tag_76\n  jumpi\n    /* \"#utility.yul\":3005:3084   */\n  tag_77\n  tag_10\n  jump\t// in\ntag_77:\n    /* \"#utility.yul\":2969:3086   */\ntag_76:\n    /* \"#utility.yul\":3110:3184   */\n  tag_78\n    /* \"#utility.yul\":3176:3183   */\n  dup5\n    /* \"#utility.yul\":3167:3173   */\n  dup3\n    /* \"#utility.yul\":3156:3165   */\n  dup6\n    /* \"#utility.yul\":3152:3174   */\n  add\n    /* \"#utility.yul\":3110:3184   */\n  tag_20\n  jump\t// in\ntag_78:\n    /* \"#utility.yul\":3100:3184   */\n  swap2\n  pop\n    /* \"#utility.yul\":2903:3194   */\n  pop\n    /* \"#utility.yul\":2677:3201   */\n  swap3\n  swap2\n  pop\n  pop\n  jump\t// out\n    /* \"#utility.yul\":3207:3306   */\ntag_21:\n    /* \"#utility.yul\":3259:3265   */\n  0x00\n    /* \"#utility.yul\":3293:3298   */\n  dup2\n    /* \"#utility.yul\":3287:3299   */\n  mload\n    /* \"#utility.yul\":3277:3299   */\n  swap1\n  pop\n    /* \"#utility.yul\":3207:3306   */\n  swap2\n  swap1\n  pop\n  jump\t// out\n    /* \"#utility.yul\":3312:3492   */\ntag_22:\n    /* \"#utility.yul\":3360:3437   */\n  0x4e487b7100000000000000000000000000000000000000000000000000000000\n    /* \"#utility.yul\":3357:3358   */\n  0x00\n    /* \"#utility.yul\":3350:3438   */\n  mstore\n    /* \"#utility.yul\":3457:3461   */\n  0x22\n    /* \"#utility.yul\":3454:3455   */\n  0x04\n    /* \"#utility.yul\":3447:3462   */\n  mstore\n    /* \"#utility.yul\":3481:3485   */\n  0x24\n    /* \"#utility.yul\":3478:3479   */\n  0x00\n    /* \"#utility.yul\":3471:3486   */\n  revert\n    /* \"#utility.yul\":3498:3818   */\ntag_23:\n    /* \"#utility.yul\":3542:3548   */\n  0x00\n    /* \"#utility.yul\":3579:3580   */\n  0x02\n    /* \"#utility.yul\":3573:3577   */\n  dup3\n    /* \"#utility.yul\":3569:3581   */\n  div\n    /* \"#utility.yul\":3559:3581   */\n  swap1\n  pop\n    /* \"#utility.yul\":3626:3627   */\n  0x01\n    /* \"#utility.yul\":3620:3624   */\n  dup3\n    /* \"#utility.yul\":3616:3628   */\n  and\n    /* \"#utility.yul\":3647:3665   */\n  dup1\n    /* \"#utility.yul\":3637:3718   */\n  tag_82\n  jumpi\n    /* \"#utility.yul\":3703:3707   */\n  0x7f\n    /* \"#utility.yul\":3695:3701   */\n  dup3\n    /* \"#utility.yul\":3691:3708   */\n  and\n    /* \"#utility.yul\":3681:3708   */\n  swap2\n  pop\n    /* \"#utility.yul\":3637:3718   */\ntag_82:\n    /* \"#utility.yul\":3765:3767   */\n  0x20\n    /* \"#utility.yul\":3757:3763   */\n  dup3\n    /* \"#utility.yul\":3754:3768   */\n  lt\n    /* \"#utility.yul\":3734:3752   */\n  dup2\n    /* \"#utility.yul\":3731:3769   */\n  sub\n    /* \"#utility.yul\":3728:3812   */\n  tag_83\n  jumpi\n    /* \"#utility.yul\":3784:3802   */\n  tag_84\n  tag_22\n  jump\t// in\ntag_84:\n    /* \"#utility.yul\":3728:3812   */\ntag_83:\n    /* \"#utility.yul\":3549:3818   */\n  pop\n    /* \"#utility.yul\":3498:3818   */\n  swap2\n  swap1\n  pop\n  jump\t// out\n    /* \"#utility.yul\":3824:3965   */\ntag_24:\n    /* \"#utility.yul\":3873:3877   */\n  0x00\n    /* \"#utility.yul\":3896:3899   */\n  dup2\n    /* \"#utility.yul\":3888:3899   */\n  swap1\n  pop\n    /* \"#utility.yul\":3919:3922   */\n  dup2\n    /* \"#utility.yul\":3916:3917   */\n  0x00\n    /* \"#utility.yul\":3909:3923   */\n  mstore\n    /* \"#utility.yul\":3953:3957   */\n  0x20\n    /* \"#utility.yul\":3950:3951   */\n  0x00\n    /* \"#utility.yul\":3940:3958   */\n  keccak256\n    /* \"#utility.yul\":3932:3958   */\n  swap1\n  pop\n    /* \"#utility.yul\":3824:3965   */\n  swap2\n  swap1\n  pop\n  jump\t// out\n    /* \"#utility.yul\":3971:4064   */\ntag_25:\n    /* \"#utility.yul\":4008:4014   */\n  0x00\n    /* \"#utility.yul\":4055:4057   */\n  0x20\n    /* \"#utility.yul\":4050:4052   */\n  0x1f\n    /* \"#utility.yul\":4043:4048   */\n  dup4\n    /* \"#utility.yul\":4039:4053   */\n  add\n    /* \"#utility.yul\":4035:4058   */\n  div\n    /* \"#utility.yul\":4025:4058   */\n  swap1\n  pop\n    /* \"#utility.yul\":3971:4064   */\n  swap2\n  swap1\n  pop\n  jump\t// out\n    /* \"#utility.yul\":4070:4177   */\ntag_26:\n    /* \"#utility.yul\":4114:4122   */\n  0x00\n    /* \"#utility.yul\":4164:4169   */\n  dup3\n    /* \"#utility.yul\":4158:4162   */\n  dup3\n    /* \"#utility.yul\":4154:4170   */\n  shl\n    /* \"#utility.yul\":4133:4170   */\n  swap1\n  pop\n    /* \"#utility.yul\":4070:4177   */\n  swap3\n  swap2\n  pop\n  pop\n  jump\t// out\n    /* \"#utility.yul\":4183:4576   */\ntag_27:\n    /* \"#utility.yul\":4252:4258   */\n  0x00\n    /* \"#utility.yul\":4302:4303   */\n  0x08\n    /* \"#utility.yul\":4290:4300   */\n  dup4\n    /* \"#utility.yul\":4286:4304   */\n  mul\n    /* \"#utility.yul\":4325:4422   */\n  tag_89\n    /* \"#utility.yul\":4355:4421   */\n  0xffffffffffffffffffffffffffffffffffffffffffffffffffffffffffffffff\n    /* \"#utility.yul\":4344:4353   */\n  dup3\n    /* \"#utility.yul\":4325:4422   */\n  tag_26\n  jump\t// in\ntag_89:\n    /* \"#utility.yul\":4443:4482   */\n  tag_90\n    /* \"#utility.yul\":4473:4481   */\n  dup7\n    /* \"#utility.yul\":4462:4471   */\n  dup4\n    /* \"#utility.yul\":4443:4482   */\n  tag_26\n  jump\t// in\ntag_90:\n    /* \"#utility.yul\":4431:4482   */\n  swap6\n  pop\n    /* \"#utility.yul\":4515:4519   */\n  dup1\n    /* \"#utility.yul\":4511:4520   */\n  not\n    /* \"#utility.yul\":4504:4509   */\n  dup5\n    /* \"#utility.yul\":4500:4521   */\n  and\n    /* \"#utility.yul\":4491:4521   */\n  swap4\n  pop\n    /* \"#utility.yul\":4564:4568   */\n  dup1\n    /* \"#utility.yul\":4554:4562   */\n  dup7\n    /* \"#utility.yul\":4550:4569   */\n  and\n    /* \"#utility.yul\":4543:4548   */\n  dup5\n    /* \"#utility.yul\":4540:4570   */\n  or\n    /* \"#utility.yul\":4530:4570   */\n  swap3\n  pop\n    /* \"#utility.yul\":4259:4576   */\n  pop\n  pop\n    /* \"#utility.yul\":4183:4576   */\n  swap4\n  swap3\n  pop\n  pop\n  pop\n  jump\t// out\n    /* \"#utility.yul\":4582:4659   */\ntag_28:\n    /* \"#utility.yul\":4619:4626   */\n  0x00\n    /* \"#utility.yul\":4648:4653   */\n  dup2\n    /* \"#utility.yul\":4637:4653   */\n  swap1\n  pop\n    /* \"#utility.yul\":4582:4659   */\n  swap2\n  swap1\n  pop\n  jump\t// out\n    /* \"#utility.yul\":4665:4725   */\ntag_29:\n    /* \"#utility.yul\":4693:4696   */\n  0x00\n    /* \"#utility.yul\":4714:4719   */\n  dup2\n    /* \"#utility.yul\":4707:4719   */\n  swap1\n  pop\n    /* \"#utility.yul\":4665:4725   */\n  swap2\n  swap1\n  pop\n  jump\t// out\n    /* \"#utility.yul\":4731:4873   */\ntag_30:\n    /* \"#utility.yul\":4781:4790   */\n  0x00\n    /* \"#utility.yul\":4814:4867   */\n  tag_94\n    /* \"#utility.yul\":4832:4866   */\n  tag_95\n    /* \"#utility.yul\":4841:4865   */\n  tag_96\n    /* \"#utility.yul\":4859:4864   */\n  dup5\n    /* \"#utility.yul\":4841:4865   */\n  tag_28\n  jump\t// in\ntag_96:\n    /* \"#utility.yul\":4832:4866   */\n  tag_29\n  jump\t// in\ntag_95:\n    /* \"#utility.yul\":4814:4867   */\n  tag_28\n  jump\t// in\ntag_94:\n    /* \"#utility.yul\":4801:4867   */\n  swap1\n  pop\n    /* \"#utility.yul\":4731:4873   */\n  swap2\n  swap1\n  pop\n  jump\t// out\n    /* \"#utility.yul\":4879:4954   */\ntag_31:\n    /* \"#utility.yul\":4922:4925   */\n  0x00\n    /* \"#utility.yul\":4943:4948   */\n  dup2\n    /* \"#utility.yul\":4936:4948   */\n  swap1\n  pop\n    /* \"#utility.yul\":4879:4954   */\n  swap2\n  swap1\n  pop\n  jump\t// out\n    /* \"#utility.yul\":4960:5229   */\ntag_32:\n    /* \"#utility.yul\":5070:5109   */\n  tag_99\n    /* \"#utility.yul\":5101:5108   */\n  dup4\n    /* \"#utility.yul\":5070:5109   */\n  tag_30\n  jump\t// in\ntag_99:\n    /* \"#utility.yul\":5131:5222   */\n  tag_100\n    /* \"#utility.yul\":5180:5221   */\n  tag_101\n    /* \"#utility.yul\":5204:5220   */\n  dup3\n    /* \"#utility.yul\":5180:5221   */\n  tag_31\n  jump\t// in\ntag_101:\n    /* \"#utility.yul\":5172:5178   */\n  dup5\n    /* \"#utility.yul\":5165:5169   */\n  dup5\n    /* \"#utility.yul\":5159:5170   */\n  sload\n    /* \"#utility.yul\":5131:5222   */\n  tag_27\n  jump\t// in\ntag_100:\n    /* \"#utility.yul\":5125:5129   */\n  dup3\n    /* \"#utility.yul\":5118:5223   */\n  sstore\n    /* \"#utility.yul\":5036:5229   */\n  pop\n    /* \"#utility.yul\":4960:5229   */\n  pop\n  pop\n  pop\n  jump\t// out\n    /* \"#utility.yul\":5235:5308   */\ntag_33:\n    /* \"#utility.yul\":5280:5283   */\n  0x00\n    /* \"#utility.yul\":5235:5308   */\n  swap1\n  jump\t// out\n    /* \"#utility.yul\":5314:5503   */\ntag_34:\n    /* \"#utility.yul\":5391:5423   */\n  tag_104\n  tag_33\n  jump\t// in\ntag_104:\n    /* \"#utility.yul\":5432:5497   */\n  tag_105\n    /* \"#utility.yul\":5490:5496   */\n  dup2\n    /* \"#utility.yul\":5482:5488   */\n  dup5\n    /* \"#utility.yul\":5476:5480   */\n  dup5\n    /* \"#utility.yul\":5432:5497   */\n  tag_32\n  jump\t// in\ntag_105:\n    /* \"#utility.yul\":5367:5503   */\n  pop\n    /* \"#utility.yul\":5314:5503   */\n  pop\n  pop\n  jump\t// out\n    /* \"#utility.yul\":5509:5695   */\ntag_35:\n    /* \"#utility.yul\":5569:5689   */\ntag_107:\n    /* \"#utility.yul\":5586:5589   */\n  dup2\n    /* \"#utility.yul\":5579:5584   */\n  dup2\n    /* \"#utility.yul\":5576:5590   */\n  lt\n    /* \"#utility.yul\":5569:5689   */\n  iszero\n  tag_109\n  jumpi\n    /* \"#utility.yul\":5640:5679   */\n  tag_110\n    /* \"#utility.yul\":5677:5678   */\n  0x00\n    /* \"#utility.yul\":5670:5675   */\n  dup3\n    /* \"#utility.yul\":5640:5679   */\n  tag_34\n  jump\t// in\ntag_110:\n    /* \"#utility.yul\":5613:5614   */\n  0x01\n    /* \"#utility.yul\":5606:5611   */\n  dup2\n    /* \"#utility.yul\":5602:5615   */\n  add\n    /* \"#utility.yul\":5593:5615   */\n  swap1\n  pop\n    /* \"#utility.yul\":5569:5689   */\n  jump(tag_107)\ntag_109:\n    /* \"#utility.yul\":5509:5695   */\n  pop\n  pop\n  jump\t// out\n    /* \"#utility.yul\":5701:6244   */\ntag_36:\n    /* \"#utility.yul\":5802:5804   */\n  0x1f\n    /* \"#utility.yul\":5797:5800   */\n  dup3\n    /* \"#utility.yul\":5794:5805   */\n  gt\n    /* \"#utility.yul\":5791:6237   */\n  iszero\n  tag_112\n  jumpi\n    /* \"#utility.yul\":5836:5874   */\n  tag_113\n    /* \"#utility.yul\":5868:5873   */\n  dup2\n    /* \"#utility.yul\":5836:5874   */\n  tag_24\n  jump\t// in\ntag_113:\n    /* \"#utility.yul\":5920:5949   */\n  tag_114\n    /* \"#utility.yul\":5938:5948   */\n  dup5\n    /* \"#utility.yul\":5920:5949   */\n  tag_25\n  jump\t// in\ntag_114:\n    /* \"#utility.yul\":5910:5918   */\n  dup2\n    /* \"#utility.yul\":5906:5950   */\n  add\n    /* \"#utility.yul\":6103:6105   */\n  0x20\n    /* \"#utility.yul\":6091:6101   */\n  dup6\n    /* \"#utility.yul\":6088:6106   */\n  lt\n    /* \"#utility.yul\":6085:6134   */\n  iszero\n  tag_115\n  jumpi\n    /* \"#utility.yul\":6124:6132   */\n  dup2\n    /* \"#utility.yul\":6109:6132   */\n  swap1\n  pop\n    /* \"#utility.yul\":6085:6134   */\ntag_115:\n    /* \"#utility.yul\":6147:6227   */\n  tag_116\n    /* \"#utility.yul\":6203:6225   */\n  tag_117\n    /* \"#utility.yul\":6221:6224   */\n  dup6\n    /* \"#utility.yul\":6203:6225   */\n  tag_25\n  jump\t// in\ntag_117:\n    /* \"#utility.yul\":6193:6201   */\n  dup4\n    /* \"#utility.yul\":6189:6226   */\n  add\n    /* \"#utility.yul\":6176:6187   */\n  dup3\n    /* \"#utility.yul\":6147:6227   */\n  tag_35\n  jump\t// in\ntag_116:\n    /* \"#utility.yul\":5806:6237   */\n  pop\n  pop\n    /* \"#utility.yul\":5791:6237   */\ntag_112:\n    /* \"#utility.yul\":5701:6244   */\n  pop\n  pop\n  pop\n  jump\t// out\n    /* \"#utility.yul\":6250:6367   */\ntag_37:\n    /* \"#utility.yul\":6304:6312   */\n  0x00\n    /* \"#utility.yul\":6354:6359   */\n  dup3\n    /* \"#utility.yul\":6348:6352   */\n  dup3\n    /* \"#utility.yul\":6344:6360   */\n  shr\n    /* \"#utility.yul\":6323:6360   */\n  swap1\n  pop\n    /* \"#utility.yul\":6250:6367   */\n  swap3\n  swap2\n  pop\n  pop\n  jump\t// out\n    /* \"#utility.yul\":6373:6542   */\ntag_38:\n    /* \"#utility.yul\":6417:6423   */\n  0x00\n    /* \"#utility.yul\":6450:6501   */\n  tag_120\n    /* \"#utility.yul\":6498:6499   */\n  0x00\n    /* \"#utility.yul\":6494:6500   */\n  not\n    /* \"#utility.yul\":6486:6491   */\n  dup5\n    /* \"#utility.yul\":6483:6484   */\n  0x08\n    /* \"#utility.yul\":6479:6492   */\n  mul\n    /* \"#utility.yul\":6450:6501   */\n  tag_37\n  jump\t// in\ntag_120:\n    /* \"#utility.yul\":6446:6502   */\n  not\n    /* \"#utility.yul\":6531:6535   */\n  dup1\n    /* \"#utility.yul\":6525:6529   */\n  dup4\n    /* \"#utility.yul\":6521:6536   */\n  and\n    /* \"#utility.yul\":6511:6536   */\n  swap2\n  pop\n    /* \"#utility.yul\":6424:6542   */\n  pop\n    /* \"#utility.yul\":6373:6542   */\n  swap3\n  swap2\n  pop\n  pop\n  jump\t// out\n    /* \"#utility.yul\":6547:6842   */\ntag_39:\n    /* \"#utility.yul\":6623:6627   */\n  0x00\n    /* \"#utility.yul\":6769:6798   */\n  tag_122\n    /* \"#utility.yul\":6794:6797   */\n  dup4\n    /* \"#utility.yul\":6788:6792   */\n  dup4\n    /* \"#utility.yul\":6769:6798   */\n  tag_38\n  jump\t// in\ntag_122:\n    /* \"#utility.yul\":6761:6798   */\n  swap2\n  pop\n    /* \"#utility.yul\":6831:6834   */\n  dup3\n    /* \"#utility.yul\":6828:6829   */\n  0x02\n    /* \"#utility.yul\":6824:6835   */\n  mul\n    /* \"#utility.yul\":6818:6822   */\n  dup3\n    /* \"#utility.yul\":6815:6836   */\n  or\n    /* \"#utility.yul\":6807:6836   */\n  swap1\n  pop\n    /* \"#utility.yul\":6547:6842   */\n  swap3\n  swap2\n  pop\n  pop\n  jump\t// out\n    /* \"#utility.yul\":6847:8242   */\ntag_6:\n    /* \"#utility.yul\":6964:7001   */\n  tag_124\n    /* \"#utility.yul\":6997:7000   */\n  dup3\n    /* \"#utility.yul\":6964:7001   */\n  tag_21\n  jump\t// in\ntag_124:\n    /* \"#utility.yul\":7066:7084   */\n  0xffffffffffffffff\n    /* \"#utility.yul\":7058:7064   */\n  dup2\n    /* \"#utility.yul\":7055:7085   */\n  gt\n    /* \"#utility.yul\":7052:7108   */\n  iszero\n  tag_125\n  jumpi\n    /* \"#utility.yul\":7088:7106   */\n  tag_126\n  tag_14\n  jump\t// in\ntag_126:\n    /* \"#utility.yul\":7052:7108   */\ntag_125:\n    /* \"#utility.yul\":7132:7170   */\n  tag_127\n    /* \"#utility.yul\":7164:7168   */\n  dup3\n    /* \"#utility.yul\":7158:7169   */\n  sload\n    /* \"#utility.yul\":7132:7170   */\n  tag_23\n  jump\t// in\ntag_127:\n    /* \"#utility.yul\":7217:7284   */\n  tag_128\n    /* \"#utility.yul\":7277:7283   */\n  dup3\n    /* \"#utility.yul\":7269:7275   */\n  dup3\n    /* \"#utility.yul\":7263:7267   */\n  dup6\n    /* \"#utility.yul\":7217:7284   */\n  tag_36\n  jump\t// in\ntag_128:\n    /* \"#utility.yul\":7311:7312   */\n  0x00\n    /* \"#utility.yul\":7335:7339   */\n  0x20\n    /* \"#utility.yul\":7322:7339   */\n  swap1\n  pop\n    /* \"#utility.yul\":7367:7369   */\n  0x1f\n    /* \"#utility.yul\":7359:7365   */\n  dup4\n    /* \"#utility.yul\":7356:7370   */\n  gt\n    /* \"#utility.yul\":7384:7385   */\n  0x01\n    /* \"#utility.yul\":7379:7997   */\n  dup2\n  eq\n  tag_130\n  jumpi\n    /* \"#utility.yul\":8041:8042   */\n  0x00\n    /* \"#utility.yul\":8058:8064   */\n  dup5\n    /* \"#utility.yul\":8055:8132   */\n  iszero\n  tag_131\n  jumpi\n    /* \"#utility.yul\":8107:8116   */\n  dup3\n    /* \"#utility.yul\":8102:8105   */\n  dup8\n    /* \"#utility.yul\":8098:8117   */\n  add\n    /* \"#utility.yul\":8092:8118   */\n  mload\n    /* \"#utility.yul\":8083:8118   */\n  swap1\n  pop\n    /* \"#utility.yul\":8055:8132   */\ntag_131:\n    /* \"#utility.yul\":8158:8225   */\n  tag_132\n    /* \"#utility.yul\":8218:8224   */\n  dup6\n    /* \"#utility.yul\":8211:8216   */\n  dup3\n    /* \"#utility.yul\":8158:8225   */\n  tag_39\n  jump\t// in\ntag_132:\n    /* \"#utility.yul\":8152:8156   */\n  dup7\n    /* \"#utility.yul\":8145:8226   */\n  sstore\n    /* \"#utility.yul\":8014:8236   */\n  pop\n    /* \"#utility.yul\":7349:8236   */\n  jump(tag_129)\n    /* \"#utility.yul\":7379:7997   */\ntag_130:\n    /* \"#utility.yul\":7431:7435   */\n  0x1f\n    /* \"#utility.yul\":7427:7436   */\n  not\n    /* \"#utility.yul\":7419:7425   */\n  dup5\n    /* \"#utility.yul\":7415:7437   */\n  and\n    /* \"#utility.yul\":7465:7502   */\n  tag_133\n    /* \"#utility.yul\":7497:7501   */\n  dup7\n    /* \"#utility.yul\":7465:7502   */\n  tag_24\n  jump\t// in\ntag_133:\n    /* \"#utility.yul\":7524:7525   */\n  0x00\n    /* \"#utility.yul\":7538:7746   */\ntag_134:\n    /* \"#utility.yul\":7552:7559   */\n  dup3\n    /* \"#utility.yul\":7549:7550   */\n  dup2\n    /* \"#utility.yul\":7546:7560   */\n  lt\n    /* \"#utility.yul\":7538:7746   */\n  iszero\n  tag_136\n  jumpi\n    /* \"#utility.yul\":7631:7640   */\n  dup5\n    /* \"#utility.yul\":7626:7629   */\n  dup10\n    /* \"#utility.yul\":7622:7641   */\n  add\n    /* \"#utility.yul\":7616:7642   */\n  mload\n    /* \"#utility.yul\":7608:7614   */\n  dup3\n    /* \"#utility.yul\":7601:7643   */\n  sstore\n    /* \"#utility.yul\":7682:7683   */\n  0x01\n    /* \"#utility.yul\":7674:7680   */\n  dup3\n    /* \"#utility.yul\":7670:7684   */\n  add\n    /* \"#utility.yul\":7660:7684   */\n  swap2\n  pop\n    /* \"#utility.yul\":7729:7731   */\n  0x20\n    /* \"#utility.yul\":7718:7727   */\n  dup6\n    /* \"#utility.yul\":7714:7732   */\n  add\n    /* \"#utility.yul\":7701:7732   */\n  swap5\n  pop\n    /* \"#utility.yul\":7575:7579   */\n  0x20\n    /* \"#utility.yul\":7572:7573   */\n  dup2\n    /* \"#utility.yul\":7568:7580   */\n  add\n    /* \"#utility.yul\":7563:7580   */\n  swap1\n  pop\n    /* \"#utility.yul\":7538:7746   */\n  jump(tag_134)\ntag_136:\n    /* \"#utility.yul\":7774:7780   */\n  dup7\n    /* \"#utility.yul\":7765:7772   */\n  dup4\n    /* \"#utility.yul\":7762:7781   */\n  lt\n    /* \"#utility.yul\":7759:7938   */\n  iszero\n  tag_137\n  jumpi\n    /* \"#utility.yul\":7832:7841   */\n  dup5\n    /* \"#utility.yul\":7827:7830   */\n  dup10\n    /* \"#utility.yul\":7823:7842   */\n  add\n    /* \"#utility.yul\":7817:7843   */\n  mload\n    /* \"#utility.yul\":7875:7923   */\n  tag_138\n    /* \"#utility.yul\":7917:7921   */\n  0x1f\n    /* \"#utility.yul\":7909:7915   */\n  dup10\n    /* \"#utility.yul\":7905:7922   */\n  and\n    /* \"#utility.yul\":7894:7903   */\n  dup3\n    /* \"#utility.yul\":7875:7923   */\n  tag_38\n  jump\t// in\ntag_138:\n    /* \"#utility.yul\":7867:7873   */\n  dup4\n    /* \"#utility.yul\":7860:7924   */\n  sstore\n    /* \"#utility.yul\":7782:7938   */\n  pop\n    /* \"#utility.yul\":7759:7938   */\ntag_137:\n    /* \"#utility.yul\":7984:7985   */\n  0x01\n    /* \"#utility.yul\":7980:7981   */\n  0x02\n    /* \"#utility.yul\":7972:7978   */\n  dup9\n    /* \"#utility.yul\":7968:7982   */\n  mul\n    /* \"#utility.yul\":7964:7986   */\n  add\n    /* \"#utility.yul\":7958:7962   */\n  dup9\n    /* \"#utility.yul\":7951:7987   */\n  sstore\n    /* \"#utility.yul\":7386:7997   */\n  pop\n  pop\n  pop\n    /* \"#utility.yul\":7349:8236   */\ntag_129:\n  pop\n    /* \"#utility.yul\":6939:8242   */\n  pop\n  pop\n  pop\n    /* \"#utility.yul\":6847:8242   */\n  pop\n  pop\n  jump\t// out\n    /* \"TreasuryPool.sol\":207:10137  contract Gmonad {... */\ntag_7:\n  dataSize(sub_0)\n  dup1\n  dataOffset(sub_0)\n  0x00\n  codecopy\n  0x00\n  return\nstop\n\nsub_0: assembly {\n        /* \"TreasuryPool.sol\":207:10137  contract Gmonad {... */\n      mstore(0x40, 0x80)\n      jumpi(tag_1, lt(calldatasize, 0x04))\n      shr(0xe0, calldataload(0x00))\n      dup1\n      0x90321e1a\n      gt\n      tag_22\n      jumpi\n      dup1\n      0xc8a34efe\n      gt\n      tag_23\n      jumpi\n      dup1\n      0xc8a34efe\n      eq\n      tag_17\n      jumpi\n      dup1\n      0xe086e5ec\n      eq\n      tag_18\n      jumpi\n      dup1\n      0xef690cc0\n      eq\n      tag_19\n      jumpi\n      dup1\n      0xf5465992\n      eq\n      tag_20\n      jumpi\n      dup1\n      0xfe029156\n      eq\n      tag_21\n      jumpi\n      jump(tag_2)\n    tag_23:\n      dup1\n      0x90321e1a\n      eq\n      tag_12\n      jumpi\n      dup1\n      0x95310efa\n      eq\n      tag_13\n      jumpi\n      dup1\n      0x97b8c3cb\n      eq\n      tag_14\n      jumpi\n      dup1\n      0xa4136862\n      eq\n      tag_15\n      jumpi\n      dup1\n      0xadb51980\n      eq\n      tag_16\n      jumpi\n      jump(tag_2)\n    tag_22:\n      dup1\n      0x47e7ef24\n      gt\n      tag_24\n      jumpi\n      dup1\n      0x47e7ef24\n      eq\n      tag_7\n      jumpi\n      dup1\n      0x6677b49b\n      eq\n      tag_8\n      jumpi\n      dup1\n      0x8305368a\n      eq\n      tag_9\n      jumpi\n      dup1\n      0x89476069\n      eq\n      tag_10\n      jumpi\n      dup1\n      0x8da5cb5b\n      eq\n      tag_11\n      jumpi\n      jump(tag_2)\n    tag_24:\n      dup1\n      0x062dd331\n      eq\n      tag_3\n      jumpi\n      dup1\n      0x087c3d4b\n      eq\n      tag_4\n      jumpi\n      dup1\n      0x1edb27e9\n      eq\n      tag_5\n      jumpi\n      dup1\n      0x43ab265f\n      eq\n      tag_6\n      jumpi\n      jump(tag_2)\n    tag_1:\n      jumpi(tag_2, calldatasize)\n      stop\n    tag_2:\n      stop\n        /* \"TreasuryPool.sol\":2302:2610  function withdrawWmon() external onlyOwner {... */\n    tag_3:\n      callvalue\n      dup1\n      iszero\n      tag_29\n      jumpi\n      0x00\n      dup1\n      revert\n    tag_29:\n      pop\n      tag_30\n      tag_31\n      jump\t// in\n    tag_30:\n      stop\n        /* \"TreasuryPool.sol\":6141:7093  function swapOne(address tokenA, address tokenB, uint256 amount) external {... */\n    tag_4:\n      callvalue\n      dup1\n      iszero\n      tag_32\n      jumpi\n      0x00\n      dup1\n      revert\n    tag_32:\n      pop\n      tag_33\n      0x04\n      dup1\n      calldatasize\n      sub\n      dup2\n      add\n      swap1\n      tag_34\n      swap2\n      swap1\n      tag_35\n      jump\t// in\n    tag_34:\n      tag_36\n      jump\t// in\n    tag_33:\n      stop\n        /* \"TreasuryPool.sol\":8438:8877  function getUserPortfolio(address user) external view returns (address[] memory tokens, uint256[] memory balances) {... */\n    tag_5:\n      callvalue\n      dup1\n      iszero\n      tag_37\n      jumpi\n      0x00\n      dup1\n      revert\n    tag_37:\n      pop\n      tag_38\n      0x04\n      dup1\n      calldatasize\n      sub\n      dup2\n      add\n      swap1\n      tag_39\n      swap2\n      swap1\n      tag_40\n      jump\t// in\n    tag_39:\n      tag_41\n      jump\t// in\n    tag_38:\n      mload(0x40)\n      tag_42\n      swap3\n      swap2\n      swap1\n      tag_43\n      jump\t// in\n    tag_42:\n      mload(0x40)\n      dup1\n      swap2\n      sub\n      swap1\n      return\n        /* \"TreasuryPool.sol\":9387:9594  function getContractBalance(address _token) external view returns (uint256) {... */\n    tag_6:\n      callvalue\n      dup1\n      iszero\n      tag_44\n      jumpi\n      0x00\n      dup1\n      revert\n    tag_44:\n      pop\n      tag_45\n      0x04\n      dup1\n      calldatasize\n      sub\n      dup2\n      add\n      swap1\n      tag_46\n      swap2\n      swap1\n      tag_40\n      jump\t// in\n    tag_46:\n      tag_47\n      jump\t// in\n    tag_45:\n      mload(0x40)\n      tag_48\n      swap2\n      swap1\n      tag_49\n      jump\t// in\n    tag_48:\n      mload(0x40)\n      dup1\n      swap2\n      sub\n      swap1\n      return\n        /* \"TreasuryPool.sol\":2766:3370  function deposit(address _token, uint256 _amount) external {... */\n    tag_7:\n      callvalue\n      dup1\n      iszero\n      tag_50\n      jumpi\n      0x00\n      dup1\n      revert\n    tag_50:\n      pop\n      tag_51\n      0x04\n      dup1\n      calldatasize\n      sub\n      dup2\n      add\n      swap1\n      tag_52\n      swap2\n      swap1\n      tag_53\n      jump\t// in\n    tag_52:\n      tag_54\n      jump\t// in\n    tag_51:\n      stop\n        /* \"TreasuryPool.sol\":8929:9373  function getContractPortfolio() external view returns (address[] memory tokens, uint256[] memory balances) {... */\n    tag_8:\n      callvalue\n      dup1\n      iszero\n      tag_55\n      jumpi\n      0x00\n      dup1\n      revert\n    tag_55:\n      pop\n      tag_56\n      tag_57\n      jump\t// in\n    tag_56:\n      mload(0x40)\n      tag_58\n      swap3\n      swap2\n      swap1\n      tag_43\n      jump\t// in\n    tag_58:\n      mload(0x40)\n      dup1\n      swap2\n      sub\n      swap1\n      return\n        /* \"TreasuryPool.sol\":826:856  address[] public trackedTokens */\n    tag_9:\n      callvalue\n      dup1\n      iszero\n      tag_59\n      jumpi\n      0x00\n      dup1\n      revert\n    tag_59:\n      pop\n      tag_60\n      0x04\n      dup1\n      calldatasize\n      sub\n      dup2\n      add\n      swap1\n      tag_61\n      swap2\n      swap1\n      tag_62\n      jump\t// in\n    tag_61:\n      tag_63\n      jump\t// in\n    tag_60:\n      mload(0x40)\n      tag_64\n      swap2\n      swap1\n      tag_65\n      jump\t// in\n    tag_64:\n      mload(0x40)\n      dup1\n      swap2\n      sub\n      swap1\n      return\n        /* \"TreasuryPool.sol\":2037:2294  function withdrawToken(address _token) external onlyOwner {... */\n    tag_10:\n      callvalue\n      dup1\n      iszero\n      tag_66\n      jumpi\n      0x00\n      dup1\n      revert\n    tag_66:\n      pop\n      tag_67\n      0x04\n      dup1\n      calldatasize\n      sub\n      dup2\n      add\n      swap1\n      tag_68\n      swap2\n      swap1\n      tag_40\n      jump\t// in\n    tag_68:\n      tag_69\n      jump\t// in\n    tag_67:\n      stop\n        /* \"TreasuryPool.sol\":259:279  address public owner */\n    tag_11:\n      callvalue\n      dup1\n      iszero\n      tag_70\n      jumpi\n      0x00\n      dup1\n      revert\n    tag_70:\n      pop\n      tag_71\n      tag_72\n      jump\t// in\n    tag_71:\n      mload(0x40)\n      tag_73\n      swap2\n      swap1\n      tag_65\n      jump\t// in\n    tag_73:\n      mload(0x40)\n      dup1\n      swap2\n      sub\n      swap1\n      return\n        /* \"TreasuryPool.sol\":286:322  uint256 public callFee = 0.001 ether */\n    tag_12:\n      callvalue\n      dup1\n      iszero\n      tag_74\n      jumpi\n      0x00\n      dup1\n      revert\n    tag_74:\n      pop\n      tag_75\n      tag_76\n      jump\t// in\n    tag_75:\n      mload(0x40)\n      tag_77\n      swap2\n      swap1\n      tag_49\n      jump\t// in\n    tag_77:\n      mload(0x40)\n      dup1\n      swap2\n      sub\n      swap1\n      return\n        /* \"TreasuryPool.sol\":3969:4519  function depositOwner(address _token, uint256 _amount) external onlyOwner {... */\n    tag_13:\n      callvalue\n      dup1\n      iszero\n      tag_78\n      jumpi\n      0x00\n      dup1\n      revert\n    tag_78:\n      pop\n      tag_79\n      0x04\n      dup1\n      calldatasize\n      sub\n      dup2\n      add\n      swap1\n      tag_80\n      swap2\n      swap1\n      tag_53\n      jump\t// in\n    tag_80:\n      tag_81\n      jump\t// in\n    tag_79:\n      stop\n        /* \"TreasuryPool.sol\":4672:6127  function swapWmon() external payable {... */\n    tag_14:\n      tag_82\n      tag_83\n      jump\t// in\n    tag_82:\n      stop\n        /* \"TreasuryPool.sol\":1596:1765  function setGreeting(string calldata _greeting) external payable {... */\n    tag_15:\n      tag_84\n      0x04\n      dup1\n      calldatasize\n      sub\n      dup2\n      add\n      swap1\n      tag_85\n      swap2\n      swap1\n      tag_86\n      jump\t// in\n    tag_85:\n      tag_87\n      jump\t// in\n    tag_84:\n      stop\n        /* \"TreasuryPool.sol\":683:750  mapping(address => mapping(address => uint256)) public userBalances */\n    tag_16:\n      callvalue\n      dup1\n      iszero\n      tag_88\n      jumpi\n      0x00\n      dup1\n      revert\n    tag_88:\n      pop\n      tag_89\n      0x04\n      dup1\n      calldatasize\n      sub\n      dup2\n      add\n      swap1\n      tag_90\n      swap2\n      swap1\n      tag_91\n      jump\t// in\n    tag_90:\n      tag_92\n      jump\t// in\n    tag_89:\n      mload(0x40)\n      tag_93\n      swap2\n      swap1\n      tag_49\n      jump\t// in\n    tag_93:\n      mload(0x40)\n      dup1\n      swap2\n      sub\n      swap1\n      return\n        /* \"TreasuryPool.sol\":3378:3961  function depositWmon(uint256 _amount) external {... */\n    tag_17:\n      callvalue\n      dup1\n      iszero\n      tag_94\n      jumpi\n      0x00\n      dup1\n      revert\n    tag_94:\n      pop\n      tag_95\n      0x04\n      dup1\n      calldatasize\n      sub\n      dup2\n      add\n      swap1\n      tag_96\n      swap2\n      swap1\n      tag_62\n      jump\t// in\n    tag_96:\n      tag_97\n      jump\t// in\n    tag_95:\n      stop\n        /* \"TreasuryPool.sol\":1922:2029  function withdrawETH() external onlyOwner {... */\n    tag_18:\n      callvalue\n      dup1\n      iszero\n      tag_98\n      jumpi\n      0x00\n      dup1\n      revert\n    tag_98:\n      pop\n      tag_99\n      tag_100\n      jump\t// in\n    tag_99:\n      stop\n        /* \"TreasuryPool.sol\":230:252  string public greeting */\n    tag_19:\n      callvalue\n      dup1\n      iszero\n      tag_101\n      jumpi\n      0x00\n      dup1\n      revert\n    tag_101:\n      pop\n      tag_102\n      tag_103\n      jump\t// in\n    tag_102:\n      mload(0x40)\n      tag_104\n      swap2\n      swap1\n      tag_105\n      jump\t// in\n    tag_104:\n      mload(0x40)\n      dup1\n      swap2\n      sub\n      swap1\n      return\n        /* \"TreasuryPool.sol\":380:432  mapping(address => uint256) public totalTokenBalance */\n    tag_20:\n      callvalue\n      dup1\n      iszero\n      tag_106\n      jumpi\n      0x00\n      dup1\n      revert\n    tag_106:\n      pop\n      tag_107\n      0x04\n      dup1\n      calldatasize\n      sub\n      dup2\n      add\n      swap1\n      tag_108\n      swap2\n      swap1\n      tag_40\n      jump\t// in\n    tag_108:\n      tag_109\n      jump\t// in\n    tag_107:\n      mload(0x40)\n      tag_110\n      swap2\n      swap1\n      tag_49\n      jump\t// in\n    tag_110:\n      mload(0x40)\n      dup1\n      swap2\n      sub\n      swap1\n      return\n        /* \"TreasuryPool.sol\":7101:8389  function swap(address tokenA, address tokenB, uint256 amountA, uint256 rate) external payable {... */\n    tag_21:\n      tag_111\n      0x04\n      dup1\n      calldatasize\n      sub\n      dup2\n      add\n      swap1\n      tag_112\n      swap2\n      swap1\n      tag_113\n      jump\t// in\n    tag_112:\n      tag_114\n      jump\t// in\n    tag_111:\n      stop\n        /* \"TreasuryPool.sol\":2302:2610  function withdrawWmon() external onlyOwner {... */\n    tag_31:\n        /* \"TreasuryPool.sol\":1040:1045  owner */\n      0x01\n      0x00\n      swap1\n      sload\n      swap1\n      0x0100\n      exp\n      swap1\n      div\n      0xffffffffffffffffffffffffffffffffffffffff\n      and\n        /* \"TreasuryPool.sol\":1026:1045  msg.sender == owner */\n      0xffffffffffffffffffffffffffffffffffffffff\n      and\n        /* \"TreasuryPool.sol\":1026:1036  msg.sender */\n      caller\n        /* \"TreasuryPool.sol\":1026:1045  msg.sender == owner */\n      0xffffffffffffffffffffffffffffffffffffffff\n      and\n      eq\n        /* \"TreasuryPool.sol\":1018:1060  require(msg.sender == owner, \"Only owner\") */\n      tag_116\n      jumpi\n      mload(0x40)\n      0x08c379a000000000000000000000000000000000000000000000000000000000\n      dup2\n      mstore\n      0x04\n      add\n      tag_117\n      swap1\n      tag_118\n      jump\t// in\n    tag_117:\n      mload(0x40)\n      dup1\n      swap2\n      sub\n      swap1\n      revert\n    tag_116:\n        /* \"TreasuryPool.sol\":2356:2368  address wmon */\n      0x00\n        /* \"TreasuryPool.sol\":2371:2413  0x760AfE86e5de5fa0Ee542fc7B7B713e1c5425701 */\n      0x760afe86e5de5fa0ee542fc7b7b713e1c5425701\n        /* \"TreasuryPool.sol\":2356:2413  address wmon = 0x760AfE86e5de5fa0Ee542fc7B7B713e1c5425701 */\n      swap1\n      pop\n        /* \"TreasuryPool.sol\":2424:2436  IERC20 erc20 */\n      0x00\n        /* \"TreasuryPool.sol\":2446:2450  wmon */\n      dup2\n        /* \"TreasuryPool.sol\":2424:2451  IERC20 erc20 = IERC20(wmon) */\n      swap1\n      pop\n        /* \"TreasuryPool.sol\":2462:2477  uint256 balance */\n      0x00\n        /* \"TreasuryPool.sol\":2480:2485  erc20 */\n      dup2\n        /* \"TreasuryPool.sol\":2480:2495  erc20.balanceOf */\n      0xffffffffffffffffffffffffffffffffffffffff\n      and\n      0x70a08231\n        /* \"TreasuryPool.sol\":2504:2508  this */\n      address\n        /* \"TreasuryPool.sol\":2480:2510  erc20.balanceOf(address(this)) */\n      mload(0x40)\n      dup3\n      0xffffffff\n      and\n      0xe0\n      shl\n      dup2\n      mstore\n      0x04\n      add\n      tag_120\n      swap2\n      swap1\n      tag_65\n      jump\t// in\n    tag_120:\n      0x20\n      mload(0x40)\n      dup1\n      dup4\n      sub\n      dup2\n      dup7\n      gas\n      staticcall\n      iszero\n      dup1\n      iszero\n      tag_122\n      jumpi\n      returndatasize\n      0x00\n      dup1\n      returndatacopy\n      revert(0x00, returndatasize)\n    tag_122:\n      pop\n      pop\n      pop\n      pop\n      mload(0x40)\n      returndatasize\n      not(0x1f)\n      0x1f\n      dup3\n      add\n      and\n      dup3\n      add\n      dup1\n      0x40\n      mstore\n      pop\n      dup2\n      add\n      swap1\n      tag_123\n      swap2\n      swap1\n      tag_124\n      jump\t// in\n    tag_123:\n        /* \"TreasuryPool.sol\":2462:2510  uint256 balance = erc20.balanceOf(address(this)) */\n      swap1\n      pop\n        /* \"TreasuryPool.sol\":2539:2540  0 */\n      0x00\n        /* \"TreasuryPool.sol\":2529:2536  balance */\n      dup2\n        /* \"TreasuryPool.sol\":2529:2540  balance > 0 */\n      gt\n        /* \"TreasuryPool.sol\":2521:2561  require(balance > 0, \"No token balance\") */\n      tag_125\n      jumpi\n      mload(0x40)\n      0x08c379a000000000000000000000000000000000000000000000000000000000\n      dup2\n      mstore\n      0x04\n      add\n      tag_126\n      swap1\n      tag_127\n      jump\t// in\n    tag_126:\n      mload(0x40)\n      dup1\n      swap2\n      sub\n      swap1\n      revert\n    tag_125:\n        /* \"TreasuryPool.sol\":2572:2577  erc20 */\n      dup2\n        /* \"TreasuryPool.sol\":2572:2586  erc20.transfer */\n      0xffffffffffffffffffffffffffffffffffffffff\n      and\n      0xa9059cbb\n        /* \"TreasuryPool.sol\":2587:2592  owner */\n      0x01\n      0x00\n      swap1\n      sload\n      swap1\n      0x0100\n      exp\n      swap1\n      div\n      0xffffffffffffffffffffffffffffffffffffffff\n      and\n        /* \"TreasuryPool.sol\":2594:2601  balance */\n      dup4\n        /* \"TreasuryPool.sol\":2572:2602  erc20.transfer(owner, balance) */\n      mload(0x40)\n      dup4\n      0xffffffff\n      and\n      0xe0\n      shl\n      dup2\n      mstore\n      0x04\n      add\n      tag_128\n      swap3\n      swap2\n      swap1\n      tag_129\n      jump\t// in\n    tag_128:\n      0x20\n      mload(0x40)\n      dup1\n      dup4\n      sub\n      dup2\n      0x00\n      dup8\n      gas\n      call\n      iszero\n      dup1\n      iszero\n      tag_131\n      jumpi\n      returndatasize\n      0x00\n      dup1\n      returndatacopy\n      revert(0x00, returndatasize)\n    tag_131:\n      pop\n      pop\n      pop\n      pop\n      mload(0x40)\n      returndatasize\n      not(0x1f)\n      0x1f\n      dup3\n      add\n      and\n      dup3\n      add\n      dup1\n      0x40\n      mstore\n      pop\n      dup2\n      add\n      swap1\n      tag_132\n      swap2\n      swap1\n      tag_133\n      jump\t// in\n    tag_132:\n      pop\n        /* \"TreasuryPool.sol\":2345:2610  {... */\n      pop\n      pop\n      pop\n        /* \"TreasuryPool.sol\":2302:2610  function withdrawWmon() external onlyOwner {... */\n      jump\t// out\n        /* \"TreasuryPool.sol\":6141:7093  function swapOne(address tokenA, address tokenB, uint256 amount) external {... */\n    tag_36:\n        /* \"TreasuryPool.sol\":6243:6244  0 */\n      0x00\n        /* \"TreasuryPool.sol\":6234:6240  amount */\n      dup2\n        /* \"TreasuryPool.sol\":6234:6244  amount > 0 */\n      gt\n        /* \"TreasuryPool.sol\":6226:6267  require(amount > 0, \"Amount must be > 0\") */\n      tag_135\n      jumpi\n      mload(0x40)\n      0x08c379a000000000000000000000000000000000000000000000000000000000\n      dup2\n      mstore\n      0x04\n      add\n      tag_136\n      swap1\n      tag_137\n      jump\t// in\n    tag_136:\n      mload(0x40)\n      dup1\n      swap2\n      sub\n      swap1\n      revert\n    tag_135:\n        /* \"TreasuryPool.sol\":6304:6305  0 */\n      0x00\n        /* \"TreasuryPool.sol\":6286:6306  tokenA != address(0) */\n      0xffffffffffffffffffffffffffffffffffffffff\n      and\n        /* \"TreasuryPool.sol\":6286:6292  tokenA */\n      dup4\n        /* \"TreasuryPool.sol\":6286:6306  tokenA != address(0) */\n      0xffffffffffffffffffffffffffffffffffffffff\n      and\n      eq\n      iszero\n        /* \"TreasuryPool.sol\":6286:6330  tokenA != address(0) && tokenB != address(0) */\n      dup1\n      iszero\n      tag_138\n      jumpi\n      pop\n        /* \"TreasuryPool.sol\":6328:6329  0 */\n      0x00\n        /* \"TreasuryPool.sol\":6310:6330  tokenB != address(0) */\n      0xffffffffffffffffffffffffffffffffffffffff\n      and\n        /* \"TreasuryPool.sol\":6310:6316  tokenB */\n      dup3\n        /* \"TreasuryPool.sol\":6310:6330  tokenB != address(0) */\n      0xffffffffffffffffffffffffffffffffffffffff\n      and\n      eq\n      iszero\n        /* \"TreasuryPool.sol\":6286:6330  tokenA != address(0) && tokenB != address(0) */\n    tag_138:\n        /* \"TreasuryPool.sol\":6278:6356  require(tokenA != address(0) && tokenB != address(0), \"Invalid token address\") */\n      tag_139\n      jumpi\n      mload(0x40)\n      0x08c379a000000000000000000000000000000000000000000000000000000000\n      dup2\n      mstore\n      0x04\n      add\n      tag_140\n      swap1\n      tag_141\n      jump\t// in\n    tag_140:\n      mload(0x40)\n      dup1\n      swap2\n      sub\n      swap1\n      revert\n    tag_139:\n        /* \"TreasuryPool.sol\":6369:6382  IERC20 TokenA */\n      0x00\n        /* \"TreasuryPool.sol\":6392:6398  tokenA */\n      dup4\n        /* \"TreasuryPool.sol\":6369:6399  IERC20 TokenA = IERC20(tokenA) */\n      swap1\n      pop\n        /* \"TreasuryPool.sol\":6410:6423  IERC20 TokenB */\n      0x00\n        /* \"TreasuryPool.sol\":6433:6439  tokenB */\n      dup4\n        /* \"TreasuryPool.sol\":6410:6440  IERC20 TokenB = IERC20(tokenB) */\n      swap1\n      pop\n        /* \"TreasuryPool.sol\":6512:6530  uint256 allowanceA */\n      0x00\n        /* \"TreasuryPool.sol\":6533:6539  TokenA */\n      dup3\n        /* \"TreasuryPool.sol\":6533:6549  TokenA.allowance */\n      0xffffffffffffffffffffffffffffffffffffffff\n      and\n      0xdd62ed3e\n        /* \"TreasuryPool.sol\":6550:6560  msg.sender */\n      caller\n        /* \"TreasuryPool.sol\":6570:6574  this */\n      address\n        /* \"TreasuryPool.sol\":6533:6576  TokenA.allowance(msg.sender, address(this)) */\n      mload(0x40)\n      dup4\n      0xffffffff\n      and\n      0xe0\n      shl\n      dup2\n      mstore\n      0x04\n      add\n      tag_142\n      swap3\n      swap2\n      swap1\n      tag_143\n      jump\t// in\n    tag_142:\n      0x20\n      mload(0x40)\n      dup1\n      dup4\n      sub\n      dup2\n      dup7\n      gas\n      staticcall\n      iszero\n      dup1\n      iszero\n      tag_145\n      jumpi\n      returndatasize\n      0x00\n      dup1\n      returndatacopy\n      revert(0x00, returndatasize)\n    tag_145:\n      pop\n      pop\n      pop\n      pop\n      mload(0x40)\n      returndatasize\n      not(0x1f)\n      0x1f\n      dup3\n      add\n      and\n      dup3\n      add\n      dup1\n      0x40\n      mstore\n      pop\n      dup2\n      add\n      swap1\n      tag_146\n      swap2\n      swap1\n      tag_124\n      jump\t// in\n    tag_146:\n        /* \"TreasuryPool.sol\":6512:6576  uint256 allowanceA = TokenA.allowance(msg.sender, address(this)) */\n      swap1\n      pop\n        /* \"TreasuryPool.sol\":6609:6615  amount */\n      dup4\n        /* \"TreasuryPool.sol\":6595:6605  allowanceA */\n      dup2\n        /* \"TreasuryPool.sol\":6595:6615  allowanceA >= amount */\n      lt\n      iszero\n        /* \"TreasuryPool.sol\":6587:6651  require(allowanceA >= amount, \"Not enough allowance for TokenA\") */\n      tag_147\n      jumpi\n      mload(0x40)\n      0x08c379a000000000000000000000000000000000000000000000000000000000\n      dup2\n      mstore\n      0x04\n      add\n      tag_148\n      swap1\n      tag_149\n      jump\t// in\n    tag_148:\n      mload(0x40)\n      dup1\n      swap2\n      sub\n      swap1\n      revert\n    tag_147:\n        /* \"TreasuryPool.sol\":6664:6677  bool received */\n      0x00\n        /* \"TreasuryPool.sol\":6680:6686  TokenA */\n      dup4\n        /* \"TreasuryPool.sol\":6680:6699  TokenA.transferFrom */\n      0xffffffffffffffffffffffffffffffffffffffff\n      and\n      0x23b872dd\n        /* \"TreasuryPool.sol\":6700:6710  msg.sender */\n      caller\n        /* \"TreasuryPool.sol\":6720:6724  this */\n      address\n        /* \"TreasuryPool.sol\":6727:6733  amount */\n      dup9\n        /* \"TreasuryPool.sol\":6680:6734  TokenA.transferFrom(msg.sender, address(this), amount) */\n      mload(0x40)\n      dup5\n      0xffffffff\n      and\n      0xe0\n      shl\n      dup2\n      mstore\n      0x04\n      add\n      tag_150\n      swap4\n      swap3\n      swap2\n      swap1\n      tag_151\n      jump\t// in\n    tag_150:\n      0x20\n      mload(0x40)\n      dup1\n      dup4\n      sub\n      dup2\n      0x00\n      dup8\n      gas\n      call\n      iszero\n      dup1\n      iszero\n      tag_153\n      jumpi\n      returndatasize\n      0x00\n      dup1\n      returndatacopy\n      revert(0x00, returndatasize)\n    tag_153:\n      pop\n      pop\n      pop\n      pop\n      mload(0x40)\n      returndatasize\n      not(0x1f)\n      0x1f\n      dup3\n      add\n      and\n      dup3\n      add\n      dup1\n      0x40\n      mstore\n      pop\n      dup2\n      add\n      swap1\n      tag_154\n      swap2\n      swap1\n      tag_133\n      jump\t// in\n    tag_154:\n        /* \"TreasuryPool.sol\":6664:6734  bool received = TokenA.transferFrom(msg.sender, address(this), amount) */\n      swap1\n      pop\n        /* \"TreasuryPool.sol\":6753:6761  received */\n      dup1\n        /* \"TreasuryPool.sol\":6745:6788  require(received, \"TokenA transfer failed\") */\n      tag_155\n      jumpi\n      mload(0x40)\n      0x08c379a000000000000000000000000000000000000000000000000000000000\n      dup2\n      mstore\n      0x04\n      add\n      tag_156\n      swap1\n      tag_157\n      jump\t// in\n    tag_156:\n      mload(0x40)\n      dup1\n      swap2\n      sub\n      swap1\n      revert\n    tag_155:\n        /* \"TreasuryPool.sol\":6856:6872  uint256 balanceB */\n      0x00\n        /* \"TreasuryPool.sol\":6875:6881  TokenB */\n      dup4\n        /* \"TreasuryPool.sol\":6875:6891  TokenB.balanceOf */\n      0xffffffffffffffffffffffffffffffffffffffff\n      and\n      0x70a08231\n        /* \"TreasuryPool.sol\":6900:6904  this */\n      address\n        /* \"TreasuryPool.sol\":6875:6906  TokenB.balanceOf(address(this)) */\n      mload(0x40)\n      dup3\n      0xffffffff\n      and\n      0xe0\n      shl\n      dup2\n      mstore\n      0x04\n      add\n      tag_158\n      swap2\n      swap1\n      tag_65\n      jump\t// in\n    tag_158:\n      0x20\n      mload(0x40)\n      dup1\n      dup4\n      sub\n      dup2\n      dup7\n      gas\n      staticcall\n      iszero\n      dup1\n      iszero\n      tag_160\n      jumpi\n      returndatasize\n      0x00\n      dup1\n      returndatacopy\n      revert(0x00, returndatasize)\n    tag_160:\n      pop\n      pop\n      pop\n      pop\n      mload(0x40)\n      returndatasize\n      not(0x1f)\n      0x1f\n      dup3\n      add\n      and\n      dup3\n      add\n      dup1\n      0x40\n      mstore\n      pop\n      dup2\n      add\n      swap1\n      tag_161\n      swap2\n      swap1\n      tag_124\n      jump\t// in\n    tag_161:\n        /* \"TreasuryPool.sol\":6856:6906  uint256 balanceB = TokenB.balanceOf(address(this)) */\n      swap1\n      pop\n        /* \"TreasuryPool.sol\":6937:6943  amount */\n      dup6\n        /* \"TreasuryPool.sol\":6925:6933  balanceB */\n      dup2\n        /* \"TreasuryPool.sol\":6925:6943  balanceB >= amount */\n      lt\n      iszero\n        /* \"TreasuryPool.sol\":6917:6975  require(balanceB >= amount, \"Not enough TokenB liquidity\") */\n      tag_162\n      jumpi\n      mload(0x40)\n      0x08c379a000000000000000000000000000000000000000000000000000000000\n      dup2\n      mstore\n      0x04\n      add\n      tag_163\n      swap1\n      tag_164\n      jump\t// in\n    tag_163:\n      mload(0x40)\n      dup1\n      swap2\n      sub\n      swap1\n      revert\n    tag_162:\n        /* \"TreasuryPool.sol\":6988:6997  bool sent */\n      0x00\n        /* \"TreasuryPool.sol\":7000:7006  TokenB */\n      dup5\n        /* \"TreasuryPool.sol\":7000:7015  TokenB.transfer */\n      0xffffffffffffffffffffffffffffffffffffffff\n      and\n      0xa9059cbb\n        /* \"TreasuryPool.sol\":7016:7026  msg.sender */\n      caller\n        /* \"TreasuryPool.sol\":7028:7034  amount */\n      dup10\n        /* \"TreasuryPool.sol\":7000:7035  TokenB.transfer(msg.sender, amount) */\n      mload(0x40)\n      dup4\n      0xffffffff\n      and\n      0xe0\n      shl\n      dup2\n      mstore\n      0x04\n      add\n      tag_165\n      swap3\n      swap2\n      swap1\n      tag_129\n      jump\t// in\n    tag_165:\n      0x20\n      mload(0x40)\n      dup1\n      dup4\n      sub\n      dup2\n      0x00\n      dup8\n      gas\n      call\n      iszero\n      dup1\n      iszero\n      tag_167\n      jumpi\n      returndatasize\n      0x00\n      dup1\n      returndatacopy\n      revert(0x00, returndatasize)\n    tag_167:\n      pop\n      pop\n      pop\n      pop\n      mload(0x40)\n      returndatasize\n      not(0x1f)\n      0x1f\n      dup3\n      add\n      and\n      dup3\n      add\n      dup1\n      0x40\n      mstore\n      pop\n      dup2\n      add\n      swap1\n      tag_168\n      swap2\n      swap1\n      tag_133\n      jump\t// in\n    tag_168:\n        /* \"TreasuryPool.sol\":6988:7035  bool sent = TokenB.transfer(msg.sender, amount) */\n      swap1\n      pop\n        /* \"TreasuryPool.sol\":7054:7058  sent */\n      dup1\n        /* \"TreasuryPool.sol\":7046:7085  require(sent, \"TokenB transfer failed\") */\n      tag_169\n      jumpi\n      mload(0x40)\n      0x08c379a000000000000000000000000000000000000000000000000000000000\n      dup2\n      mstore\n      0x04\n      add\n      tag_170\n      swap1\n      tag_171\n      jump\t// in\n    tag_170:\n      mload(0x40)\n      dup1\n      swap2\n      sub\n      swap1\n      revert\n    tag_169:\n        /* \"TreasuryPool.sol\":6215:7093  {... */\n      pop\n      pop\n      pop\n      pop\n      pop\n      pop\n        /* \"TreasuryPool.sol\":6141:7093  function swapOne(address tokenA, address tokenB, uint256 amount) external {... */\n      pop\n      pop\n      pop\n      jump\t// out\n        /* \"TreasuryPool.sol\":8438:8877  function getUserPortfolio(address user) external view returns (address[] memory tokens, uint256[] memory balances) {... */\n    tag_41:\n        /* \"TreasuryPool.sol\":8501:8524  address[] memory tokens */\n      0x60\n        /* \"TreasuryPool.sol\":8526:8551  uint256[] memory balances */\n      dup1\n        /* \"TreasuryPool.sol\":8564:8574  uint count */\n      0x00\n        /* \"TreasuryPool.sol\":8577:8590  trackedTokens */\n      0x05\n        /* \"TreasuryPool.sol\":8577:8597  trackedTokens.length */\n      dup1\n      sload\n      swap1\n      pop\n        /* \"TreasuryPool.sol\":8564:8597  uint count = trackedTokens.length */\n      swap1\n      pop\n        /* \"TreasuryPool.sol\":8631:8636  count */\n      dup1\n        /* \"TreasuryPool.sol\":8617:8637  new address[](count) */\n      0xffffffffffffffff\n      dup2\n      gt\n      iszero\n      tag_173\n      jumpi\n      tag_174\n      tag_175\n      jump\t// in\n    tag_174:\n    tag_173:\n      mload(0x40)\n      swap1\n      dup1\n      dup3\n      mstore\n      dup1\n      0x20\n      mul\n      0x20\n      add\n      dup3\n      add\n      0x40\n      mstore\n      dup1\n      iszero\n      tag_176\n      jumpi\n      dup2\n      0x20\n      add\n      0x20\n      dup3\n      mul\n      dup1\n      calldatasize\n      dup4\n      calldatacopy\n      dup1\n      dup3\n      add\n      swap2\n      pop\n      pop\n      swap1\n      pop\n    tag_176:\n      pop\n        /* \"TreasuryPool.sol\":8608:8637  tokens = new address[](count) */\n      swap3\n      pop\n        /* \"TreasuryPool.sol\":8673:8678  count */\n      dup1\n        /* \"TreasuryPool.sol\":8659:8679  new uint256[](count) */\n      0xffffffffffffffff\n      dup2\n      gt\n      iszero\n      tag_177\n      jumpi\n      tag_178\n      tag_175\n      jump\t// in\n    tag_178:\n    tag_177:\n      mload(0x40)\n      swap1\n      dup1\n      dup3\n      mstore\n      dup1\n      0x20\n      mul\n      0x20\n      add\n      dup3\n      add\n      0x40\n      mstore\n      dup1\n      iszero\n      tag_179\n      jumpi\n      dup2\n      0x20\n      add\n      0x20\n      dup3\n      mul\n      dup1\n      calldatasize\n      dup4\n      calldatacopy\n      dup1\n      dup3\n      add\n      swap2\n      pop\n      pop\n      swap1\n      pop\n    tag_179:\n      pop\n        /* \"TreasuryPool.sol\":8648:8679  balances = new uint256[](count) */\n      swap2\n      pop\n        /* \"TreasuryPool.sol\":8697:8703  uint i */\n      0x00\n        /* \"TreasuryPool.sol\":8692:8870  for (uint i = 0; i < count; i++) {... */\n    tag_180:\n        /* \"TreasuryPool.sol\":8713:8718  count */\n      dup2\n        /* \"TreasuryPool.sol\":8709:8710  i */\n      dup2\n        /* \"TreasuryPool.sol\":8709:8718  i < count */\n      lt\n        /* \"TreasuryPool.sol\":8692:8870  for (uint i = 0; i < count; i++) {... */\n      iszero\n      tag_181\n      jumpi\n        /* \"TreasuryPool.sol\":8740:8753  address token */\n      0x00\n        /* \"TreasuryPool.sol\":8756:8769  trackedTokens */\n      0x05\n        /* \"TreasuryPool.sol\":8770:8771  i */\n      dup3\n        /* \"TreasuryPool.sol\":8756:8772  trackedTokens[i] */\n      dup2\n      sload\n      dup2\n      lt\n      tag_183\n      jumpi\n      tag_184\n      tag_185\n      jump\t// in\n    tag_184:\n    tag_183:\n      swap1\n      0x00\n      mstore\n      keccak256(0x00, 0x20)\n      add\n      0x00\n      swap1\n      sload\n      swap1\n      0x0100\n      exp\n      swap1\n      div\n      0xffffffffffffffffffffffffffffffffffffffff\n      and\n        /* \"TreasuryPool.sol\":8740:8772  address token = trackedTokens[i] */\n      swap1\n      pop\n        /* \"TreasuryPool.sol\":8799:8804  token */\n      dup1\n        /* \"TreasuryPool.sol\":8787:8793  tokens */\n      dup6\n        /* \"TreasuryPool.sol\":8794:8795  i */\n      dup4\n        /* \"TreasuryPool.sol\":8787:8796  tokens[i] */\n      dup2\n      mload\n      dup2\n      lt\n      tag_187\n      jumpi\n      tag_188\n      tag_185\n      jump\t// in\n    tag_188:\n    tag_187:\n      0x20\n      mul\n      0x20\n      add\n      add\n        /* \"TreasuryPool.sol\":8787:8804  tokens[i] = token */\n      swap1\n      0xffffffffffffffffffffffffffffffffffffffff\n      and\n      swap1\n      dup2\n      0xffffffffffffffffffffffffffffffffffffffff\n      and\n      dup2\n      mstore\n      pop\n      pop\n        /* \"TreasuryPool.sol\":8833:8845  userBalances */\n      0x04\n        /* \"TreasuryPool.sol\":8833:8851  userBalances[user] */\n      0x00\n        /* \"TreasuryPool.sol\":8846:8850  user */\n      dup8\n        /* \"TreasuryPool.sol\":8833:8851  userBalances[user] */\n      0xffffffffffffffffffffffffffffffffffffffff\n      and\n      0xffffffffffffffffffffffffffffffffffffffff\n      and\n      dup2\n      mstore\n      0x20\n      add\n      swap1\n      dup2\n      mstore\n      0x20\n      add\n      0x00\n      keccak256\n        /* \"TreasuryPool.sol\":8833:8858  userBalances[user][token] */\n      0x00\n        /* \"TreasuryPool.sol\":8852:8857  token */\n      dup3\n        /* \"TreasuryPool.sol\":8833:8858  userBalances[user][token] */\n      0xffffffffffffffffffffffffffffffffffffffff\n      and\n      0xffffffffffffffffffffffffffffffffffffffff\n      and\n      dup2\n      mstore\n      0x20\n      add\n      swap1\n      dup2\n      mstore\n      0x20\n      add\n      0x00\n      keccak256\n      sload\n        /* \"TreasuryPool.sol\":8819:8827  balances */\n      dup5\n        /* \"TreasuryPool.sol\":8828:8829  i */\n      dup4\n        /* \"TreasuryPool.sol\":8819:8830  balances[i] */\n      dup2\n      mload\n      dup2\n      lt\n      tag_189\n      jumpi\n      tag_190\n      tag_185\n      jump\t// in\n    tag_190:\n    tag_189:\n      0x20\n      mul\n      0x20\n      add\n      add\n        /* \"TreasuryPool.sol\":8819:8858  balances[i] = userBalances[user][token] */\n      dup2\n      dup2\n      mstore\n      pop\n      pop\n        /* \"TreasuryPool.sol\":8725:8870  {... */\n      pop\n        /* \"TreasuryPool.sol\":8720:8723  i++ */\n      dup1\n      dup1\n      tag_191\n      swap1\n      tag_192\n      jump\t// in\n    tag_191:\n      swap2\n      pop\n      pop\n        /* \"TreasuryPool.sol\":8692:8870  for (uint i = 0; i < count; i++) {... */\n      jump(tag_180)\n    tag_181:\n      pop\n        /* \"TreasuryPool.sol\":8553:8877  {... */\n      pop\n        /* \"TreasuryPool.sol\":8438:8877  function getUserPortfolio(address user) external view returns (address[] memory tokens, uint256[] memory balances) {... */\n      swap2\n      pop\n      swap2\n      jump\t// out\n        /* \"TreasuryPool.sol\":9387:9594  function getContractBalance(address _token) external view returns (uint256) {... */\n    tag_47:\n        /* \"TreasuryPool.sol\":9454:9461  uint256 */\n      0x00\n        /* \"TreasuryPool.sol\":9474:9488  uint8 decimals */\n      dup1\n        /* \"TreasuryPool.sol\":9506:9512  _token */\n      dup3\n        /* \"TreasuryPool.sol\":9491:9522  IERC20Metadata(_token).decimals */\n      0xffffffffffffffffffffffffffffffffffffffff\n      and\n      0x313ce567\n        /* \"TreasuryPool.sol\":9491:9524  IERC20Metadata(_token).decimals() */\n      mload(0x40)\n      dup2\n      0xffffffff\n      and\n      0xe0\n      shl\n      dup2\n      mstore\n      0x04\n      add\n      0x20\n      mload(0x40)\n      dup1\n      dup4\n      sub\n      dup2\n      dup7\n      gas\n      staticcall\n      iszero\n      dup1\n      iszero\n      tag_195\n      jumpi\n      returndatasize\n      0x00\n      dup1\n      returndatacopy\n      revert(0x00, returndatasize)\n    tag_195:\n      pop\n      pop\n      pop\n      pop\n      mload(0x40)\n      returndatasize\n      not(0x1f)\n      0x1f\n      dup3\n      add\n      and\n      dup3\n      add\n      dup1\n      0x40\n      mstore\n      pop\n      dup2\n      add\n      swap1\n      tag_196\n      swap2\n      swap1\n      tag_197\n      jump\t// in\n    tag_196:\n        /* \"TreasuryPool.sol\":9474:9524  uint8 decimals = IERC20Metadata(_token).decimals() */\n      swap1\n      pop\n        /* \"TreasuryPool.sol\":9577:9585  decimals */\n      dup1\n        /* \"TreasuryPool.sol\":9571:9573  10 */\n      0x0a\n        /* \"TreasuryPool.sol\":9571:9585  10 ** decimals */\n      tag_198\n      swap2\n      swap1\n      tag_199\n      jump\t// in\n    tag_198:\n        /* \"TreasuryPool.sol\":9542:9559  totalTokenBalance */\n      0x03\n        /* \"TreasuryPool.sol\":9542:9567  totalTokenBalance[_token] */\n      0x00\n        /* \"TreasuryPool.sol\":9560:9566  _token */\n      dup6\n        /* \"TreasuryPool.sol\":9542:9567  totalTokenBalance[_token] */\n      0xffffffffffffffffffffffffffffffffffffffff\n      and\n      0xffffffffffffffffffffffffffffffffffffffff\n      and\n      dup2\n      mstore\n      0x20\n      add\n      swap1\n      dup2\n      mstore\n      0x20\n      add\n      0x00\n      keccak256\n      sload\n        /* \"TreasuryPool.sol\":9542:9586  totalTokenBalance[_token] / (10 ** decimals) */\n      tag_200\n      swap2\n      swap1\n      tag_201\n      jump\t// in\n    tag_200:\n        /* \"TreasuryPool.sol\":9535:9586  return totalTokenBalance[_token] / (10 ** decimals) */\n      swap2\n      pop\n      pop\n        /* \"TreasuryPool.sol\":9387:9594  function getContractBalance(address _token) external view returns (uint256) {... */\n      swap2\n      swap1\n      pop\n      jump\t// out\n        /* \"TreasuryPool.sol\":2766:3370  function deposit(address _token, uint256 _amount) external {... */\n    tag_54:\n        /* \"TreasuryPool.sol\":2854:2855  0 */\n      0x00\n        /* \"TreasuryPool.sol\":2844:2851  _amount */\n      dup2\n        /* \"TreasuryPool.sol\":2844:2855  _amount > 0 */\n      gt\n        /* \"TreasuryPool.sol\":2836:2892  require(_amount > 0, \"Amount must be greater than zero\") */\n      tag_203\n      jumpi\n      mload(0x40)\n      0x08c379a000000000000000000000000000000000000000000000000000000000\n      dup2\n      mstore\n      0x04\n      add\n      tag_204\n      swap1\n      tag_205\n      jump\t// in\n    tag_204:\n      mload(0x40)\n      dup1\n      swap2\n      sub\n      swap1\n      revert\n    tag_203:\n        /* \"TreasuryPool.sol\":2905:2917  IERC20 token */\n      0x00\n        /* \"TreasuryPool.sol\":2927:2933  _token */\n      dup3\n        /* \"TreasuryPool.sol\":2905:2934  IERC20 token = IERC20(_token) */\n      swap1\n      pop\n        /* \"TreasuryPool.sol\":2945:2962  uint256 weiAmount */\n      0x00\n        /* \"TreasuryPool.sol\":2965:2988  _toWei(_token, _amount) */\n      tag_206\n        /* \"TreasuryPool.sol\":2972:2978  _token */\n      dup5\n        /* \"TreasuryPool.sol\":2980:2987  _amount */\n      dup5\n        /* \"TreasuryPool.sol\":2965:2971  _toWei */\n      tag_207\n        /* \"TreasuryPool.sol\":2965:2988  _toWei(_token, _amount) */\n      jump\t// in\n    tag_206:\n        /* \"TreasuryPool.sol\":2945:2988  uint256 weiAmount = _toWei(_token, _amount) */\n      swap1\n      pop\n        /* \"TreasuryPool.sol\":3001:3016  uint256 allowed */\n      0x00\n        /* \"TreasuryPool.sol\":3019:3024  token */\n      dup3\n        /* \"TreasuryPool.sol\":3019:3034  token.allowance */\n      0xffffffffffffffffffffffffffffffffffffffff\n      and\n      0xdd62ed3e\n        /* \"TreasuryPool.sol\":3035:3045  msg.sender */\n      caller\n        /* \"TreasuryPool.sol\":3055:3059  this */\n      address\n        /* \"TreasuryPool.sol\":3019:3061  token.allowance(msg.sender, address(this)) */\n      mload(0x40)\n      dup4\n      0xffffffff\n      and\n      0xe0\n      shl\n      dup2\n      mstore\n      0x04\n      add\n      tag_208\n      swap3\n      swap2\n      swap1\n      tag_143\n      jump\t// in\n    tag_208:\n      0x20\n      mload(0x40)\n      dup1\n      dup4\n      sub\n      dup2\n      dup7\n      gas\n      staticcall\n      iszero\n      dup1\n      iszero\n      tag_210\n      jumpi\n      returndatasize\n      0x00\n      dup1\n      returndatacopy\n      revert(0x00, returndatasize)\n    tag_210:\n      pop\n      pop\n      pop\n      pop\n      mload(0x40)\n      returndatasize\n      not(0x1f)\n      0x1f\n      dup3\n      add\n      and\n      dup3\n      add\n      dup1\n      0x40\n      mstore\n      pop\n      dup2\n      add\n      swap1\n      tag_211\n      swap2\n      swap1\n      tag_124\n      jump\t// in\n    tag_211:\n        /* \"TreasuryPool.sol\":3001:3061  uint256 allowed = token.allowance(msg.sender, address(this)) */\n      swap1\n      pop\n        /* \"TreasuryPool.sol\":3091:3100  weiAmount */\n      dup2\n        /* \"TreasuryPool.sol\":3080:3087  allowed */\n      dup2\n        /* \"TreasuryPool.sol\":3080:3100  allowed >= weiAmount */\n      lt\n      iszero\n        /* \"TreasuryPool.sol\":3072:3125  require(allowed >= weiAmount, \"Not enough allowance\") */\n      tag_212\n      jumpi\n      mload(0x40)\n      0x08c379a000000000000000000000000000000000000000000000000000000000\n      dup2\n      mstore\n      0x04\n      add\n      tag_213\n      swap1\n      tag_214\n      jump\t// in\n    tag_213:\n      mload(0x40)\n      dup1\n      swap2\n      sub\n      swap1\n      revert\n    tag_212:\n        /* \"TreasuryPool.sol\":3138:3150  bool success */\n      0x00\n        /* \"TreasuryPool.sol\":3153:3158  token */\n      dup4\n        /* \"TreasuryPool.sol\":3153:3171  token.transferFrom */\n      0xffffffffffffffffffffffffffffffffffffffff\n      and\n      0x23b872dd\n        /* \"TreasuryPool.sol\":3172:3182  msg.sender */\n      caller\n        /* \"TreasuryPool.sol\":3192:3196  this */\n      address\n        /* \"TreasuryPool.sol\":3199:3208  weiAmount */\n      dup7\n        /* \"TreasuryPool.sol\":3153:3209  token.transferFrom(msg.sender, address(this), weiAmount) */\n      mload(0x40)\n      dup5\n      0xffffffff\n      and\n      0xe0\n      shl\n      dup2\n      mstore\n      0x04\n      add\n      tag_215\n      swap4\n      swap3\n      swap2\n      swap1\n      tag_151\n      jump\t// in\n    tag_215:\n      0x20\n      mload(0x40)\n      dup1\n      dup4\n      sub\n      dup2\n      0x00\n      dup8\n      gas\n      call\n      iszero\n      dup1\n      iszero\n      tag_217\n      jumpi\n      returndatasize\n      0x00\n      dup1\n      returndatacopy\n      revert(0x00, returndatasize)\n    tag_217:\n      pop\n      pop\n      pop\n      pop\n      mload(0x40)\n      returndatasize\n      not(0x1f)\n      0x1f\n      dup3\n      add\n      and\n      dup3\n      add\n      dup1\n      0x40\n      mstore\n      pop\n      dup2\n      add\n      swap1\n      tag_218\n      swap2\n      swap1\n      tag_133\n      jump\t// in\n    tag_218:\n        /* \"TreasuryPool.sol\":3138:3209  bool success = token.transferFrom(msg.sender, address(this), weiAmount) */\n      swap1\n      pop\n        /* \"TreasuryPool.sol\":3228:3235  success */\n      dup1\n        /* \"TreasuryPool.sol\":3220:3255  require(success, \"Transfer failed\") */\n      tag_219\n      jumpi\n      mload(0x40)\n      0x08c379a000000000000000000000000000000000000000000000000000000000\n      dup2\n      mstore\n      0x04\n      add\n      tag_220\n      swap1\n      tag_221\n      jump\t// in\n    tag_220:\n      mload(0x40)\n      dup1\n      swap2\n      sub\n      swap1\n      revert\n    tag_219:\n        /* \"TreasuryPool.sol\":3297:3306  weiAmount */\n      dup3\n        /* \"TreasuryPool.sol\":3268:3285  totalTokenBalance */\n      0x03\n        /* \"TreasuryPool.sol\":3268:3293  totalTokenBalance[_token] */\n      0x00\n        /* \"TreasuryPool.sol\":3286:3292  _token */\n      dup9\n        /* \"TreasuryPool.sol\":3268:3293  totalTokenBalance[_token] */\n      0xffffffffffffffffffffffffffffffffffffffff\n      and\n      0xffffffffffffffffffffffffffffffffffffffff\n      and\n      dup2\n      mstore\n      0x20\n      add\n      swap1\n      dup2\n      mstore\n      0x20\n      add\n      0x00\n      keccak256\n      0x00\n        /* \"TreasuryPool.sol\":3268:3306  totalTokenBalance[_token] += weiAmount */\n      dup3\n      dup3\n      sload\n      tag_222\n      swap2\n      swap1\n      tag_223\n      jump\t// in\n    tag_222:\n      swap3\n      pop\n      pop\n      dup2\n      swap1\n      sstore\n      pop\n        /* \"TreasuryPool.sol\":3332:3342  msg.sender */\n      caller\n        /* \"TreasuryPool.sol\":3322:3362  Deposited(msg.sender, _token, weiAmount) */\n      0xffffffffffffffffffffffffffffffffffffffff\n      and\n      0x8752a472e571a816aea92eec8dae9baf628e840f4929fbcc2d155e6233ff68a7\n        /* \"TreasuryPool.sol\":3344:3350  _token */\n      dup8\n        /* \"TreasuryPool.sol\":3352:3361  weiAmount */\n      dup6\n        /* \"TreasuryPool.sol\":3322:3362  Deposited(msg.sender, _token, weiAmount) */\n      mload(0x40)\n      tag_224\n      swap3\n      swap2\n      swap1\n      tag_129\n      jump\t// in\n    tag_224:\n      mload(0x40)\n      dup1\n      swap2\n      sub\n      swap1\n      log2\n        /* \"TreasuryPool.sol\":2825:3370  {... */\n      pop\n      pop\n      pop\n      pop\n        /* \"TreasuryPool.sol\":2766:3370  function deposit(address _token, uint256 _amount) external {... */\n      pop\n      pop\n      jump\t// out\n        /* \"TreasuryPool.sol\":8929:9373  function getContractPortfolio() external view returns (address[] memory tokens, uint256[] memory balances) {... */\n    tag_57:\n        /* \"TreasuryPool.sol\":8984:9007  address[] memory tokens */\n      0x60\n        /* \"TreasuryPool.sol\":9009:9034  uint256[] memory balances */\n      dup1\n        /* \"TreasuryPool.sol\":9047:9057  uint count */\n      0x00\n        /* \"TreasuryPool.sol\":9060:9073  trackedTokens */\n      0x05\n        /* \"TreasuryPool.sol\":9060:9080  trackedTokens.length */\n      dup1\n      sload\n      swap1\n      pop\n        /* \"TreasuryPool.sol\":9047:9080  uint count = trackedTokens.length */\n      swap1\n      pop\n        /* \"TreasuryPool.sol\":9114:9119  count */\n      dup1\n        /* \"TreasuryPool.sol\":9100:9120  new address[](count) */\n      0xffffffffffffffff\n      dup2\n      gt\n      iszero\n      tag_226\n      jumpi\n      tag_227\n      tag_175\n      jump\t// in\n    tag_227:\n    tag_226:\n      mload(0x40)\n      swap1\n      dup1\n      dup3\n      mstore\n      dup1\n      0x20\n      mul\n      0x20\n      add\n      dup3\n      add\n      0x40\n      mstore\n      dup1\n      iszero\n      tag_228\n      jumpi\n      dup2\n      0x20\n      add\n      0x20\n      dup3\n      mul\n      dup1\n      calldatasize\n      dup4\n      calldatacopy\n      dup1\n      dup3\n      add\n      swap2\n      pop\n      pop\n      swap1\n      pop\n    tag_228:\n      pop\n        /* \"TreasuryPool.sol\":9091:9120  tokens = new address[](count) */\n      swap3\n      pop\n        /* \"TreasuryPool.sol\":9156:9161  count */\n      dup1\n        /* \"TreasuryPool.sol\":9142:9162  new uint256[](count) */\n      0xffffffffffffffff\n      dup2\n      gt\n      iszero\n      tag_229\n      jumpi\n      tag_230\n      tag_175\n      jump\t// in\n    tag_230:\n    tag_229:\n      mload(0x40)\n      swap1\n      dup1\n      dup3\n      mstore\n      dup1\n      0x20\n      mul\n      0x20\n      add\n      dup3\n      add\n      0x40\n      mstore\n      dup1\n      iszero\n      tag_231\n      jumpi\n      dup2\n      0x20\n      add\n      0x20\n      dup3\n      mul\n      dup1\n      calldatasize\n      dup4\n      calldatacopy\n      dup1\n      dup3\n      add\n      swap2\n      pop\n      pop\n      swap1\n      pop\n    tag_231:\n      pop\n        /* \"TreasuryPool.sol\":9131:9162  balances = new uint256[](count) */\n      swap2\n      pop\n        /* \"TreasuryPool.sol\":9180:9186  uint i */\n      0x00\n        /* \"TreasuryPool.sol\":9175:9366  for (uint i = 0; i < count; i++) {... */\n    tag_232:\n        /* \"TreasuryPool.sol\":9196:9201  count */\n      dup2\n        /* \"TreasuryPool.sol\":9192:9193  i */\n      dup2\n        /* \"TreasuryPool.sol\":9192:9201  i < count */\n      lt\n        /* \"TreasuryPool.sol\":9175:9366  for (uint i = 0; i < count; i++) {... */\n      iszero\n      tag_233\n      jumpi\n        /* \"TreasuryPool.sol\":9223:9236  address token */\n      0x00\n        /* \"TreasuryPool.sol\":9239:9252  trackedTokens */\n      0x05\n        /* \"TreasuryPool.sol\":9253:9254  i */\n      dup3\n        /* \"TreasuryPool.sol\":9239:9255  trackedTokens[i] */\n      dup2\n      sload\n      dup2\n      lt\n      tag_235\n      jumpi\n      tag_236\n      tag_185\n      jump\t// in\n    tag_236:\n    tag_235:\n      swap1\n      0x00\n      mstore\n      keccak256(0x00, 0x20)\n      add\n      0x00\n      swap1\n      sload\n      swap1\n      0x0100\n      exp\n      swap1\n      div\n      0xffffffffffffffffffffffffffffffffffffffff\n      and\n        /* \"TreasuryPool.sol\":9223:9255  address token = trackedTokens[i] */\n      swap1\n      pop\n        /* \"TreasuryPool.sol\":9282:9287  token */\n      dup1\n        /* \"TreasuryPool.sol\":9270:9276  tokens */\n      dup6\n        /* \"TreasuryPool.sol\":9277:9278  i */\n      dup4\n        /* \"TreasuryPool.sol\":9270:9279  tokens[i] */\n      dup2\n      mload\n      dup2\n      lt\n      tag_238\n      jumpi\n      tag_239\n      tag_185\n      jump\t// in\n    tag_239:\n    tag_238:\n      0x20\n      mul\n      0x20\n      add\n      add\n        /* \"TreasuryPool.sol\":9270:9287  tokens[i] = token */\n      swap1\n      0xffffffffffffffffffffffffffffffffffffffff\n      and\n      swap1\n      dup2\n      0xffffffffffffffffffffffffffffffffffffffff\n      and\n      dup2\n      mstore\n      pop\n      pop\n        /* \"TreasuryPool.sol\":9323:9328  token */\n      dup1\n        /* \"TreasuryPool.sol\":9316:9339  IERC20(token).balanceOf */\n      0xffffffffffffffffffffffffffffffffffffffff\n      and\n      0x70a08231\n        /* \"TreasuryPool.sol\":9348:9352  this */\n      address\n        /* \"TreasuryPool.sol\":9316:9354  IERC20(token).balanceOf(address(this)) */\n      mload(0x40)\n      dup3\n      0xffffffff\n      and\n      0xe0\n      shl\n      dup2\n      mstore\n      0x04\n      add\n      tag_240\n      swap2\n      swap1\n      tag_65\n      jump\t// in\n    tag_240:\n      0x20\n      mload(0x40)\n      dup1\n      dup4\n      sub\n      dup2\n      dup7\n      gas\n      staticcall\n      iszero\n      dup1\n      iszero\n      tag_242\n      jumpi\n      returndatasize\n      0x00\n      dup1\n      returndatacopy\n      revert(0x00, returndatasize)\n    tag_242:\n      pop\n      pop\n      pop\n      pop\n      mload(0x40)\n      returndatasize\n      not(0x1f)\n      0x1f\n      dup3\n      add\n      and\n      dup3\n      add\n      dup1\n      0x40\n      mstore\n      pop\n      dup2\n      add\n      swap1\n      tag_243\n      swap2\n      swap1\n      tag_124\n      jump\t// in\n    tag_243:\n        /* \"TreasuryPool.sol\":9302:9310  balances */\n      dup5\n        /* \"TreasuryPool.sol\":9311:9312  i */\n      dup4\n        /* \"TreasuryPool.sol\":9302:9313  balances[i] */\n      dup2\n      mload\n      dup2\n      lt\n      tag_244\n      jumpi\n      tag_245\n      tag_185\n      jump\t// in\n    tag_245:\n    tag_244:\n      0x20\n      mul\n      0x20\n      add\n      add\n        /* \"TreasuryPool.sol\":9302:9354  balances[i] = IERC20(token).balanceOf(address(this)) */\n      dup2\n      dup2\n      mstore\n      pop\n      pop\n        /* \"TreasuryPool.sol\":9208:9366  {... */\n      pop\n        /* \"TreasuryPool.sol\":9203:9206  i++ */\n      dup1\n      dup1\n      tag_246\n      swap1\n      tag_192\n      jump\t// in\n    tag_246:\n      swap2\n      pop\n      pop\n        /* \"TreasuryPool.sol\":9175:9366  for (uint i = 0; i < count; i++) {... */\n      jump(tag_232)\n    tag_233:\n      pop\n        /* \"TreasuryPool.sol\":9036:9373  {... */\n      pop\n        /* \"TreasuryPool.sol\":8929:9373  function getContractPortfolio() external view returns (address[] memory tokens, uint256[] memory balances) {... */\n      swap1\n      swap2\n      jump\t// out\n        /* \"TreasuryPool.sol\":826:856  address[] public trackedTokens */\n    tag_63:\n      0x05\n      dup2\n      dup2\n      sload\n      dup2\n      lt\n      tag_247\n      jumpi\n      0x00\n      dup1\n      revert\n    tag_247:\n      swap1\n      0x00\n      mstore\n      keccak256(0x00, 0x20)\n      add\n      0x00\n      swap2\n      pop\n      sload\n      swap1\n      0x0100\n      exp\n      swap1\n      div\n      0xffffffffffffffffffffffffffffffffffffffff\n      and\n      dup2\n      jump\t// out\n        /* \"TreasuryPool.sol\":2037:2294  function withdrawToken(address _token) external onlyOwner {... */\n    tag_69:\n        /* \"TreasuryPool.sol\":1040:1045  owner */\n      0x01\n      0x00\n      swap1\n      sload\n      swap1\n      0x0100\n      exp\n      swap1\n      div\n      0xffffffffffffffffffffffffffffffffffffffff\n      and\n        /* \"TreasuryPool.sol\":1026:1045  msg.sender == owner */\n      0xffffffffffffffffffffffffffffffffffffffff\n      and\n        /* \"TreasuryPool.sol\":1026:1036  msg.sender */\n      caller\n        /* \"TreasuryPool.sol\":1026:1045  msg.sender == owner */\n      0xffffffffffffffffffffffffffffffffffffffff\n      and\n      eq\n        /* \"TreasuryPool.sol\":1018:1060  require(msg.sender == owner, \"Only owner\") */\n      tag_250\n      jumpi\n      mload(0x40)\n      0x08c379a000000000000000000000000000000000000000000000000000000000\n      dup2\n      mstore\n      0x04\n      add\n      tag_251\n      swap1\n      tag_118\n      jump\t// in\n    tag_251:\n      mload(0x40)\n      dup1\n      swap2\n      sub\n      swap1\n      revert\n    tag_250:\n        /* \"TreasuryPool.sol\":2106:2118  IERC20 erc20 */\n      0x00\n        /* \"TreasuryPool.sol\":2128:2134  _token */\n      dup2\n        /* \"TreasuryPool.sol\":2106:2135  IERC20 erc20 = IERC20(_token) */\n      swap1\n      pop\n        /* \"TreasuryPool.sol\":2146:2161  uint256 balance */\n      0x00\n        /* \"TreasuryPool.sol\":2164:2169  erc20 */\n      dup2\n        /* \"TreasuryPool.sol\":2164:2179  erc20.balanceOf */\n      0xffffffffffffffffffffffffffffffffffffffff\n      and\n      0x70a08231\n        /* \"TreasuryPool.sol\":2188:2192  this */\n      address\n        /* \"TreasuryPool.sol\":2164:2194  erc20.balanceOf(address(this)) */\n      mload(0x40)\n      dup3\n      0xffffffff\n      and\n      0xe0\n      shl\n      dup2\n      mstore\n      0x04\n      add\n      tag_253\n      swap2\n      swap1\n      tag_65\n      jump\t// in\n    tag_253:\n      0x20\n      mload(0x40)\n      dup1\n      dup4\n      sub\n      dup2\n      dup7\n      gas\n      staticcall\n      iszero\n      dup1\n      iszero\n      tag_255\n      jumpi\n      returndatasize\n      0x00\n      dup1\n      returndatacopy\n      revert(0x00, returndatasize)\n    tag_255:\n      pop\n      pop\n      pop\n      pop\n      mload(0x40)\n      returndatasize\n      not(0x1f)\n      0x1f\n      dup3\n      add\n      and\n      dup3\n      add\n      dup1\n      0x40\n      mstore\n      pop\n      dup2\n      add\n      swap1\n      tag_256\n      swap2\n      swap1\n      tag_124\n      jump\t// in\n    tag_256:\n        /* \"TreasuryPool.sol\":2146:2194  uint256 balance = erc20.balanceOf(address(this)) */\n      swap1\n      pop\n        /* \"TreasuryPool.sol\":2223:2224  0 */\n      0x00\n        /* \"TreasuryPool.sol\":2213:2220  balance */\n      dup2\n        /* \"TreasuryPool.sol\":2213:2224  balance > 0 */\n      gt\n        /* \"TreasuryPool.sol\":2205:2245  require(balance > 0, \"No token balance\") */\n      tag_257\n      jumpi\n      mload(0x40)\n      0x08c379a000000000000000000000000000000000000000000000000000000000\n      dup2\n      mstore\n      0x04\n      add\n      tag_258\n      swap1\n      tag_127\n      jump\t// in\n    tag_258:\n      mload(0x40)\n      dup1\n      swap2\n      sub\n      swap1\n      revert\n    tag_257:\n        /* \"TreasuryPool.sol\":2256:2261  erc20 */\n      dup2\n        /* \"TreasuryPool.sol\":2256:2270  erc20.transfer */\n      0xffffffffffffffffffffffffffffffffffffffff\n      and\n      0xa9059cbb\n        /* \"TreasuryPool.sol\":2271:2276  owner */\n      0x01\n      0x00\n      swap1\n      sload\n      swap1\n      0x0100\n      exp\n      swap1\n      div\n      0xffffffffffffffffffffffffffffffffffffffff\n      and\n        /* \"TreasuryPool.sol\":2278:2285  balance */\n      dup4\n        /* \"TreasuryPool.sol\":2256:2286  erc20.transfer(owner, balance) */\n      mload(0x40)\n      dup4\n      0xffffffff\n      and\n      0xe0\n      shl\n      dup2\n      mstore\n      0x04\n      add\n      tag_259\n      swap3\n      swap2\n      swap1\n      tag_129\n      jump\t// in\n    tag_259:\n      0x20\n      mload(0x40)\n      dup1\n      dup4\n      sub\n      dup2\n      0x00\n      dup8\n      gas\n      call\n      iszero\n      dup1\n      iszero\n      tag_261\n      jumpi\n      returndatasize\n      0x00\n      dup1\n      returndatacopy\n      revert(0x00, returndatasize)\n    tag_261:\n      pop\n      pop\n      pop\n      pop\n      mload(0x40)\n      returndatasize\n      not(0x1f)\n      0x1f\n      dup3\n      add\n      and\n      dup3\n      add\n      dup1\n      0x40\n      mstore\n      pop\n      dup2\n      add\n      swap1\n      tag_262\n      swap2\n      swap1\n      tag_133\n      jump\t// in\n    tag_262:\n      pop\n        /* \"TreasuryPool.sol\":2095:2294  {... */\n      pop\n      pop\n        /* \"TreasuryPool.sol\":2037:2294  function withdrawToken(address _token) external onlyOwner {... */\n      pop\n      jump\t// out\n        /* \"TreasuryPool.sol\":259:279  address public owner */\n    tag_72:\n      0x01\n      0x00\n      swap1\n      sload\n      swap1\n      0x0100\n      exp\n      swap1\n      div\n      0xffffffffffffffffffffffffffffffffffffffff\n      and\n      dup2\n      jump\t// out\n        /* \"TreasuryPool.sol\":286:322  uint256 public callFee = 0.001 ether */\n    tag_76:\n      sload(0x02)\n      dup2\n      jump\t// out\n        /* \"TreasuryPool.sol\":3969:4519  function depositOwner(address _token, uint256 _amount) external onlyOwner {... */\n    tag_81:\n        /* \"TreasuryPool.sol\":1040:1045  owner */\n      0x01\n      0x00\n      swap1\n      sload\n      swap1\n      0x0100\n      exp\n      swap1\n      div\n      0xffffffffffffffffffffffffffffffffffffffff\n      and\n        /* \"TreasuryPool.sol\":1026:1045  msg.sender == owner */\n      0xffffffffffffffffffffffffffffffffffffffff\n      and\n        /* \"TreasuryPool.sol\":1026:1036  msg.sender */\n      caller\n        /* \"TreasuryPool.sol\":1026:1045  msg.sender == owner */\n      0xffffffffffffffffffffffffffffffffffffffff\n      and\n      eq\n        /* \"TreasuryPool.sol\":1018:1060  require(msg.sender == owner, \"Only owner\") */\n      tag_264\n      jumpi\n      mload(0x40)\n      0x08c379a000000000000000000000000000000000000000000000000000000000\n      dup2\n      mstore\n      0x04\n      add\n      tag_265\n      swap1\n      tag_118\n      jump\t// in\n    tag_265:\n      mload(0x40)\n      dup1\n      swap2\n      sub\n      swap1\n      revert\n    tag_264:\n        /* \"TreasuryPool.sol\":4054:4066  IERC20 token */\n      0x00\n        /* \"TreasuryPool.sol\":4076:4082  _token */\n      dup3\n        /* \"TreasuryPool.sol\":4054:4083  IERC20 token = IERC20(_token) */\n      swap1\n      pop\n        /* \"TreasuryPool.sol\":4094:4111  uint256 weiAmount */\n      0x00\n        /* \"TreasuryPool.sol\":4114:4137  _toWei(_token, _amount) */\n      tag_267\n        /* \"TreasuryPool.sol\":4121:4127  _token */\n      dup5\n        /* \"TreasuryPool.sol\":4129:4136  _amount */\n      dup5\n        /* \"TreasuryPool.sol\":4114:4120  _toWei */\n      tag_207\n        /* \"TreasuryPool.sol\":4114:4137  _toWei(_token, _amount) */\n      jump\t// in\n    tag_267:\n        /* \"TreasuryPool.sol\":4094:4137  uint256 weiAmount = _toWei(_token, _amount) */\n      swap1\n      pop\n        /* \"TreasuryPool.sol\":4150:4165  uint256 allowed */\n      0x00\n        /* \"TreasuryPool.sol\":4168:4173  token */\n      dup3\n        /* \"TreasuryPool.sol\":4168:4183  token.allowance */\n      0xffffffffffffffffffffffffffffffffffffffff\n      and\n      0xdd62ed3e\n        /* \"TreasuryPool.sol\":4184:4194  msg.sender */\n      caller\n        /* \"TreasuryPool.sol\":4204:4208  this */\n      address\n        /* \"TreasuryPool.sol\":4168:4210  token.allowance(msg.sender, address(this)) */\n      mload(0x40)\n      dup4\n      0xffffffff\n      and\n      0xe0\n      shl\n      dup2\n      mstore\n      0x04\n      add\n      tag_268\n      swap3\n      swap2\n      swap1\n      tag_143\n      jump\t// in\n    tag_268:\n      0x20\n      mload(0x40)\n      dup1\n      dup4\n      sub\n      dup2\n      dup7\n      gas\n      staticcall\n      iszero\n      dup1\n      iszero\n      tag_270\n      jumpi\n      returndatasize\n      0x00\n      dup1\n      returndatacopy\n      revert(0x00, returndatasize)\n    tag_270:\n      pop\n      pop\n      pop\n      pop\n      mload(0x40)\n      returndatasize\n      not(0x1f)\n      0x1f\n      dup3\n      add\n      and\n      dup3\n      add\n      dup1\n      0x40\n      mstore\n      pop\n      dup2\n      add\n      swap1\n      tag_271\n      swap2\n      swap1\n      tag_124\n      jump\t// in\n    tag_271:\n        /* \"TreasuryPool.sol\":4150:4210  uint256 allowed = token.allowance(msg.sender, address(this)) */\n      swap1\n      pop\n        /* \"TreasuryPool.sol\":4240:4249  weiAmount */\n      dup2\n        /* \"TreasuryPool.sol\":4229:4236  allowed */\n      dup2\n        /* \"TreasuryPool.sol\":4229:4249  allowed >= weiAmount */\n      lt\n      iszero\n        /* \"TreasuryPool.sol\":4221:4274  require(allowed >= weiAmount, \"Not enough allowance\") */\n      tag_272\n      jumpi\n      mload(0x40)\n      0x08c379a000000000000000000000000000000000000000000000000000000000\n      dup2\n      mstore\n      0x04\n      add\n      tag_273\n      swap1\n      tag_214\n      jump\t// in\n    tag_273:\n      mload(0x40)\n      dup1\n      swap2\n      sub\n      swap1\n      revert\n    tag_272:\n        /* \"TreasuryPool.sol\":4287:4299  bool success */\n      0x00\n        /* \"TreasuryPool.sol\":4302:4307  token */\n      dup4\n        /* \"TreasuryPool.sol\":4302:4320  token.transferFrom */\n      0xffffffffffffffffffffffffffffffffffffffff\n      and\n      0x23b872dd\n        /* \"TreasuryPool.sol\":4321:4331  msg.sender */\n      caller\n        /* \"TreasuryPool.sol\":4341:4345  this */\n      address\n        /* \"TreasuryPool.sol\":4348:4357  weiAmount */\n      dup7\n        /* \"TreasuryPool.sol\":4302:4358  token.transferFrom(msg.sender, address(this), weiAmount) */\n      mload(0x40)\n      dup5\n      0xffffffff\n      and\n      0xe0\n      shl\n      dup2\n      mstore\n      0x04\n      add\n      tag_274\n      swap4\n      swap3\n      swap2\n      swap1\n      tag_151\n      jump\t// in\n    tag_274:\n      0x20\n      mload(0x40)\n      dup1\n      dup4\n      sub\n      dup2\n      0x00\n      dup8\n      gas\n      call\n      iszero\n      dup1\n      iszero\n      tag_276\n      jumpi\n      returndatasize\n      0x00\n      dup1\n      returndatacopy\n      revert(0x00, returndatasize)\n    tag_276:\n      pop\n      pop\n      pop\n      pop\n      mload(0x40)\n      returndatasize\n      not(0x1f)\n      0x1f\n      dup3\n      add\n      and\n      dup3\n      add\n      dup1\n      0x40\n      mstore\n      pop\n      dup2\n      add\n      swap1\n      tag_277\n      swap2\n      swap1\n      tag_133\n      jump\t// in\n    tag_277:\n        /* \"TreasuryPool.sol\":4287:4358  bool success = token.transferFrom(msg.sender, address(this), weiAmount) */\n      swap1\n      pop\n        /* \"TreasuryPool.sol\":4377:4384  success */\n      dup1\n        /* \"TreasuryPool.sol\":4369:4404  require(success, \"Transfer failed\") */\n      tag_278\n      jumpi\n      mload(0x40)\n      0x08c379a000000000000000000000000000000000000000000000000000000000\n      dup2\n      mstore\n      0x04\n      add\n      tag_279\n      swap1\n      tag_221\n      jump\t// in\n    tag_279:\n      mload(0x40)\n      dup1\n      swap2\n      sub\n      swap1\n      revert\n    tag_278:\n        /* \"TreasuryPool.sol\":4446:4455  weiAmount */\n      dup3\n        /* \"TreasuryPool.sol\":4417:4434  totalTokenBalance */\n      0x03\n        /* \"TreasuryPool.sol\":4417:4442  totalTokenBalance[_token] */\n      0x00\n        /* \"TreasuryPool.sol\":4435:4441  _token */\n      dup9\n        /* \"TreasuryPool.sol\":4417:4442  totalTokenBalance[_token] */\n      0xffffffffffffffffffffffffffffffffffffffff\n      and\n      0xffffffffffffffffffffffffffffffffffffffff\n      and\n      dup2\n      mstore\n      0x20\n      add\n      swap1\n      dup2\n      mstore\n      0x20\n      add\n      0x00\n      keccak256\n      0x00\n        /* \"TreasuryPool.sol\":4417:4455  totalTokenBalance[_token] += weiAmount */\n      dup3\n      dup3\n      sload\n      tag_280\n      swap2\n      swap1\n      tag_223\n      jump\t// in\n    tag_280:\n      swap3\n      pop\n      pop\n      dup2\n      swap1\n      sstore\n      pop\n        /* \"TreasuryPool.sol\":4481:4491  msg.sender */\n      caller\n        /* \"TreasuryPool.sol\":4471:4511  Deposited(msg.sender, _token, weiAmount) */\n      0xffffffffffffffffffffffffffffffffffffffff\n      and\n      0x8752a472e571a816aea92eec8dae9baf628e840f4929fbcc2d155e6233ff68a7\n        /* \"TreasuryPool.sol\":4493:4499  _token */\n      dup8\n        /* \"TreasuryPool.sol\":4501:4510  weiAmount */\n      dup6\n        /* \"TreasuryPool.sol\":4471:4511  Deposited(msg.sender, _token, weiAmount) */\n      mload(0x40)\n      tag_281\n      swap3\n      swap2\n      swap1\n      tag_129\n      jump\t// in\n    tag_281:\n      mload(0x40)\n      dup1\n      swap2\n      sub\n      swap1\n      log2\n        /* \"TreasuryPool.sol\":4043:4519  {... */\n      pop\n      pop\n      pop\n      pop\n        /* \"TreasuryPool.sol\":3969:4519  function depositOwner(address _token, uint256 _amount) external onlyOwner {... */\n      pop\n      pop\n      jump\t// out\n        /* \"TreasuryPool.sol\":4672:6127  function swapWmon() external payable {... */\n    tag_83:\n        /* \"TreasuryPool.sol\":4846:4855  IERC20 tA */\n      0x00\n        /* \"TreasuryPool.sol\":4865:4907  0x760AfE86e5de5fa0Ee542fc7B7B713e1c5425701 */\n      0x760afe86e5de5fa0ee542fc7b7b713e1c5425701\n        /* \"TreasuryPool.sol\":4846:4908  IERC20 tA = IERC20(0x760AfE86e5de5fa0Ee542fc7B7B713e1c5425701) */\n      swap1\n      pop\n        /* \"TreasuryPool.sol\":4919:4928  IERC20 tB */\n      0x00\n        /* \"TreasuryPool.sol\":5093:5095  tA */\n      dup2\n        /* \"TreasuryPool.sol\":5093:5105  tA.allowance */\n      0xffffffffffffffffffffffffffffffffffffffff\n      and\n      0xdd62ed3e\n        /* \"TreasuryPool.sol\":5106:5116  msg.sender */\n      caller\n        /* \"TreasuryPool.sol\":5126:5130  this */\n      address\n        /* \"TreasuryPool.sol\":5093:5132  tA.allowance(msg.sender, address(this)) */\n      mload(0x40)\n      dup4\n      0xffffffff\n      and\n      0xe0\n      shl\n      dup2\n      mstore\n      0x04\n      add\n      tag_283\n      swap3\n      swap2\n      swap1\n      tag_143\n      jump\t// in\n    tag_283:\n      0x20\n      mload(0x40)\n      dup1\n      dup4\n      sub\n      dup2\n      dup7\n      gas\n      staticcall\n      iszero\n      dup1\n      iszero\n      tag_285\n      jumpi\n      returndatasize\n      0x00\n      dup1\n      returndatacopy\n      revert(0x00, returndatasize)\n    tag_285:\n      pop\n      pop\n      pop\n      pop\n      mload(0x40)\n      returndatasize\n      not(0x1f)\n      0x1f\n      dup3\n      add\n      and\n      dup3\n      add\n      dup1\n      0x40\n      mstore\n      pop\n      dup2\n      add\n      swap1\n      tag_286\n      swap2\n      swap1\n      tag_124\n      jump\t// in\n    tag_286:\n      pop\n        /* \"TreasuryPool.sol\":5248:5250  tA */\n      dup2\n        /* \"TreasuryPool.sol\":5248:5263  tA.transferFrom */\n      0xffffffffffffffffffffffffffffffffffffffff\n      and\n      0x23b872dd\n        /* \"TreasuryPool.sol\":5264:5274  msg.sender */\n      caller\n        /* \"TreasuryPool.sol\":5284:5288  this */\n      address\n        /* \"TreasuryPool.sol\":5291:5309  100000000000000000 */\n      0x016345785d8a0000\n        /* \"TreasuryPool.sol\":5248:5310  tA.transferFrom(msg.sender, address(this), 100000000000000000) */\n      mload(0x40)\n      dup5\n      0xffffffff\n      and\n      0xe0\n      shl\n      dup2\n      mstore\n      0x04\n      add\n      tag_287\n      swap4\n      swap3\n      swap2\n      swap1\n      tag_288\n      jump\t// in\n    tag_287:\n      0x20\n      mload(0x40)\n      dup1\n      dup4\n      sub\n      dup2\n      0x00\n      dup8\n      gas\n      call\n      iszero\n      dup1\n      iszero\n      tag_290\n      jumpi\n      returndatasize\n      0x00\n      dup1\n      returndatacopy\n      revert(0x00, returndatasize)\n    tag_290:\n      pop\n      pop\n      pop\n      pop\n      mload(0x40)\n      returndatasize\n      not(0x1f)\n      0x1f\n      dup3\n      add\n      and\n      dup3\n      add\n      dup1\n      0x40\n      mstore\n      pop\n      dup2\n      add\n      swap1\n      tag_291\n      swap2\n      swap1\n      tag_133\n      jump\t// in\n    tag_291:\n      pop\n        /* \"TreasuryPool.sol\":5651:5664  bool successB */\n      0x00\n        /* \"TreasuryPool.sol\":5667:5669  tB */\n      dup2\n        /* \"TreasuryPool.sol\":5667:5678  tB.transfer */\n      0xffffffffffffffffffffffffffffffffffffffff\n      and\n      0xa9059cbb\n        /* \"TreasuryPool.sol\":5679:5689  msg.sender */\n      caller\n        /* \"TreasuryPool.sol\":5691:5709  100000000000000000 */\n      0x016345785d8a0000\n        /* \"TreasuryPool.sol\":5667:5710  tB.transfer(msg.sender, 100000000000000000) */\n      mload(0x40)\n      dup4\n      0xffffffff\n      and\n      0xe0\n      shl\n      dup2\n      mstore\n      0x04\n      add\n      tag_292\n      swap3\n      swap2\n      swap1\n      tag_293\n      jump\t// in\n    tag_292:\n      0x20\n      mload(0x40)\n      dup1\n      dup4\n      sub\n      dup2\n      0x00\n      dup8\n      gas\n      call\n      iszero\n      dup1\n      iszero\n      tag_295\n      jumpi\n      returndatasize\n      0x00\n      dup1\n      returndatacopy\n      revert(0x00, returndatasize)\n    tag_295:\n      pop\n      pop\n      pop\n      pop\n      mload(0x40)\n      returndatasize\n      not(0x1f)\n      0x1f\n      dup3\n      add\n      and\n      dup3\n      add\n      dup1\n      0x40\n      mstore\n      pop\n      dup2\n      add\n      swap1\n      tag_296\n      swap2\n      swap1\n      tag_133\n      jump\t// in\n    tag_296:\n        /* \"TreasuryPool.sol\":5651:5710  bool successB = tB.transfer(msg.sender, 100000000000000000) */\n      swap1\n      pop\n        /* \"TreasuryPool.sol\":5729:5737  successB */\n      dup1\n        /* \"TreasuryPool.sol\":5721:5764  require(successB, \"TokenB transfer failed\") */\n      tag_297\n      jumpi\n      mload(0x40)\n      0x08c379a000000000000000000000000000000000000000000000000000000000\n      dup2\n      mstore\n      0x04\n      add\n      tag_298\n      swap1\n      tag_171\n      jump\t// in\n    tag_298:\n      mload(0x40)\n      dup1\n      swap2\n      sub\n      swap1\n      revert\n    tag_297:\n        /* \"TreasuryPool.sol\":5842:5860  100000000000000000 */\n      0x016345785d8a0000\n        /* \"TreasuryPool.sol\":5777:5794  totalTokenBalance */\n      0x03\n        /* \"TreasuryPool.sol\":5777:5838  totalTokenBalance[0x760AfE86e5de5fa0Ee542fc7B7B713e1c5425701] */\n      0x00\n        /* \"TreasuryPool.sol\":5795:5837  0x760AfE86e5de5fa0Ee542fc7B7B713e1c5425701 */\n      0x760afe86e5de5fa0ee542fc7b7b713e1c5425701\n        /* \"TreasuryPool.sol\":5777:5838  totalTokenBalance[0x760AfE86e5de5fa0Ee542fc7B7B713e1c5425701] */\n      0xffffffffffffffffffffffffffffffffffffffff\n      and\n      0xffffffffffffffffffffffffffffffffffffffff\n      and\n      dup2\n      mstore\n      0x20\n      add\n      swap1\n      dup2\n      mstore\n      0x20\n      add\n      0x00\n      keccak256\n      0x00\n        /* \"TreasuryPool.sol\":5777:5860  totalTokenBalance[0x760AfE86e5de5fa0Ee542fc7B7B713e1c5425701] += 100000000000000000 */\n      dup3\n      dup3\n      sload\n      tag_299\n      swap2\n      swap1\n      tag_223\n      jump\t// in\n    tag_299:\n      swap3\n      pop\n      pop\n      dup2\n      swap1\n      sstore\n      pop\n        /* \"TreasuryPool.sol\":5936:5954  100000000000000000 */\n      0x016345785d8a0000\n        /* \"TreasuryPool.sol\":5871:5888  totalTokenBalance */\n      0x03\n        /* \"TreasuryPool.sol\":5871:5932  totalTokenBalance[0x0000000000000000000000000000000000000000] */\n      0x00\n        /* \"TreasuryPool.sol\":5889:5931  0x0000000000000000000000000000000000000000 */\n      dup1\n        /* \"TreasuryPool.sol\":5871:5932  totalTokenBalance[0x0000000000000000000000000000000000000000] */\n      0xffffffffffffffffffffffffffffffffffffffff\n      and\n      0xffffffffffffffffffffffffffffffffffffffff\n      and\n      dup2\n      mstore\n      0x20\n      add\n      swap1\n      dup2\n      mstore\n      0x20\n      add\n      0x00\n      keccak256\n      0x00\n        /* \"TreasuryPool.sol\":5871:5954  totalTokenBalance[0x0000000000000000000000000000000000000000] -= 100000000000000000 */\n      dup3\n      dup3\n      sload\n      tag_300\n      swap2\n      swap1\n      tag_301\n      jump\t// in\n    tag_300:\n      swap3\n      pop\n      pop\n      dup2\n      swap1\n      sstore\n      pop\n        /* \"TreasuryPool.sol\":5980:5990  msg.sender */\n      caller\n        /* \"TreasuryPool.sol\":5972:6119  Swapped(msg.sender, 0x760AfE86e5de5fa0Ee542fc7B7B713e1c5425701, 0x0000000000000000000000000000000000000000, 100000000000000000, 100000000000000000) */\n      0xffffffffffffffffffffffffffffffffffffffff\n      and\n      0x6782190c91d4a7e8ad2a867deed6ec0a970cab8ff137ae2bd4abd92b3810f4d3\n        /* \"TreasuryPool.sol\":5992:6034  0x760AfE86e5de5fa0Ee542fc7B7B713e1c5425701 */\n      0x760afe86e5de5fa0ee542fc7b7b713e1c5425701\n        /* \"TreasuryPool.sol\":6036:6078  0x0000000000000000000000000000000000000000 */\n      0x00\n        /* \"TreasuryPool.sol\":6080:6098  100000000000000000 */\n      0x016345785d8a0000\n        /* \"TreasuryPool.sol\":6100:6118  100000000000000000 */\n      dup1\n        /* \"TreasuryPool.sol\":5972:6119  Swapped(msg.sender, 0x760AfE86e5de5fa0Ee542fc7B7B713e1c5425701, 0x0000000000000000000000000000000000000000, 100000000000000000, 100000000000000000) */\n      mload(0x40)\n      tag_302\n      swap5\n      swap4\n      swap3\n      swap2\n      swap1\n      tag_303\n      jump\t// in\n    tag_302:\n      mload(0x40)\n      dup1\n      swap2\n      sub\n      swap1\n      log2\n        /* \"TreasuryPool.sol\":4709:6127  {... */\n      pop\n      pop\n      pop\n        /* \"TreasuryPool.sol\":4672:6127  function swapWmon() external payable {... */\n      jump\t// out\n        /* \"TreasuryPool.sol\":1596:1765  function setGreeting(string calldata _greeting) external payable {... */\n    tag_87:\n        /* \"TreasuryPool.sol\":1693:1700  callFee */\n      sload(0x02)\n        /* \"TreasuryPool.sol\":1680:1689  msg.value */\n      callvalue\n        /* \"TreasuryPool.sol\":1680:1700  msg.value >= callFee */\n      lt\n      iszero\n        /* \"TreasuryPool.sol\":1672:1726  require(msg.value >= callFee, \"Insufficient fee sent\") */\n      tag_305\n      jumpi\n      mload(0x40)\n      0x08c379a000000000000000000000000000000000000000000000000000000000\n      dup2\n      mstore\n      0x04\n      add\n      tag_306\n      swap1\n      tag_307\n      jump\t// in\n    tag_306:\n      mload(0x40)\n      dup1\n      swap2\n      sub\n      swap1\n      revert\n    tag_305:\n        /* \"TreasuryPool.sol\":1748:1757  _greeting */\n      dup2\n      dup2\n        /* \"TreasuryPool.sol\":1737:1745  greeting */\n      0x00\n        /* \"TreasuryPool.sol\":1737:1757  greeting = _greeting */\n      swap2\n      dup3\n      tag_308\n      swap3\n      swap2\n      swap1\n      tag_309\n      jump\t// in\n    tag_308:\n      pop\n        /* \"TreasuryPool.sol\":1596:1765  function setGreeting(string calldata _greeting) external payable {... */\n      pop\n      pop\n      jump\t// out\n        /* \"TreasuryPool.sol\":683:750  mapping(address => mapping(address => uint256)) public userBalances */\n    tag_92:\n      mstore(0x20, 0x04)\n      dup2\n      0x00\n      mstore\n      mstore(0x20, keccak256(0x00, 0x40))\n      dup1\n      0x00\n      mstore\n      keccak256(0x00, 0x40)\n      0x00\n      swap2\n      pop\n      swap2\n      pop\n      pop\n      sload\n      dup2\n      jump\t// out\n        /* \"TreasuryPool.sol\":3378:3961  function depositWmon(uint256 _amount) external {... */\n    tag_97:\n        /* \"TreasuryPool.sol\":3436:3448  address wmon */\n      0x00\n        /* \"TreasuryPool.sol\":3451:3493  0x760AfE86e5de5fa0Ee542fc7B7B713e1c5425701 */\n      0x760afe86e5de5fa0ee542fc7b7b713e1c5425701\n        /* \"TreasuryPool.sol\":3436:3493  address wmon = 0x760AfE86e5de5fa0Ee542fc7B7B713e1c5425701 */\n      swap1\n      pop\n        /* \"TreasuryPool.sol\":3504:3516  IERC20 token */\n      0x00\n        /* \"TreasuryPool.sol\":3526:3530  wmon */\n      dup2\n        /* \"TreasuryPool.sol\":3504:3531  IERC20 token = IERC20(wmon) */\n      swap1\n      pop\n        /* \"TreasuryPool.sol\":3544:3561  uint256 weiAmount */\n      0x00\n        /* \"TreasuryPool.sol\":3564:3585  _toWei(wmon, _amount) */\n      tag_311\n        /* \"TreasuryPool.sol\":3571:3575  wmon */\n      dup4\n        /* \"TreasuryPool.sol\":3577:3584  _amount */\n      dup6\n        /* \"TreasuryPool.sol\":3564:3570  _toWei */\n      tag_207\n        /* \"TreasuryPool.sol\":3564:3585  _toWei(wmon, _amount) */\n      jump\t// in\n    tag_311:\n        /* \"TreasuryPool.sol\":3544:3585  uint256 weiAmount = _toWei(wmon, _amount) */\n      swap1\n      pop\n        /* \"TreasuryPool.sol\":3596:3611  uint256 allowed */\n      0x00\n        /* \"TreasuryPool.sol\":3614:3619  token */\n      dup3\n        /* \"TreasuryPool.sol\":3614:3629  token.allowance */\n      0xffffffffffffffffffffffffffffffffffffffff\n      and\n      0xdd62ed3e\n        /* \"TreasuryPool.sol\":3630:3640  msg.sender */\n      caller\n        /* \"TreasuryPool.sol\":3650:3654  this */\n      address\n        /* \"TreasuryPool.sol\":3614:3656  token.allowance(msg.sender, address(this)) */\n      mload(0x40)\n      dup4\n      0xffffffff\n      and\n      0xe0\n      shl\n      dup2\n      mstore\n      0x04\n      add\n      tag_312\n      swap3\n      swap2\n      swap1\n      tag_143\n      jump\t// in\n    tag_312:\n      0x20\n      mload(0x40)\n      dup1\n      dup4\n      sub\n      dup2\n      dup7\n      gas\n      staticcall\n      iszero\n      dup1\n      iszero\n      tag_314\n      jumpi\n      returndatasize\n      0x00\n      dup1\n      returndatacopy\n      revert(0x00, returndatasize)\n    tag_314:\n      pop\n      pop\n      pop\n      pop\n      mload(0x40)\n      returndatasize\n      not(0x1f)\n      0x1f\n      dup3\n      add\n      and\n      dup3\n      add\n      dup1\n      0x40\n      mstore\n      pop\n      dup2\n      add\n      swap1\n      tag_315\n      swap2\n      swap1\n      tag_124\n      jump\t// in\n    tag_315:\n        /* \"TreasuryPool.sol\":3596:3656  uint256 allowed = token.allowance(msg.sender, address(this)) */\n      swap1\n      pop\n        /* \"TreasuryPool.sol\":3686:3695  weiAmount */\n      dup2\n        /* \"TreasuryPool.sol\":3675:3682  allowed */\n      dup2\n        /* \"TreasuryPool.sol\":3675:3695  allowed >= weiAmount */\n      lt\n      iszero\n        /* \"TreasuryPool.sol\":3667:3720  require(allowed >= weiAmount, \"Not enough allowance\") */\n      tag_316\n      jumpi\n      mload(0x40)\n      0x08c379a000000000000000000000000000000000000000000000000000000000\n      dup2\n      mstore\n      0x04\n      add\n      tag_317\n      swap1\n      tag_214\n      jump\t// in\n    tag_317:\n      mload(0x40)\n      dup1\n      swap2\n      sub\n      swap1\n      revert\n    tag_316:\n        /* \"TreasuryPool.sol\":3733:3745  bool success */\n      0x00\n        /* \"TreasuryPool.sol\":3748:3753  token */\n      dup4\n        /* \"TreasuryPool.sol\":3748:3766  token.transferFrom */\n      0xffffffffffffffffffffffffffffffffffffffff\n      and\n      0x23b872dd\n        /* \"TreasuryPool.sol\":3767:3777  msg.sender */\n      caller\n        /* \"TreasuryPool.sol\":3787:3791  this */\n      address\n        /* \"TreasuryPool.sol\":3794:3803  weiAmount */\n      dup7\n        /* \"TreasuryPool.sol\":3748:3804  token.transferFrom(msg.sender, address(this), weiAmount) */\n      mload(0x40)\n      dup5\n      0xffffffff\n      and\n      0xe0\n      shl\n      dup2\n      mstore\n      0x04\n      add\n      tag_318\n      swap4\n      swap3\n      swap2\n      swap1\n      tag_151\n      jump\t// in\n    tag_318:\n      0x20\n      mload(0x40)\n      dup1\n      dup4\n      sub\n      dup2\n      0x00\n      dup8\n      gas\n      call\n      iszero\n      dup1\n      iszero\n      tag_320\n      jumpi\n      returndatasize\n      0x00\n      dup1\n      returndatacopy\n      revert(0x00, returndatasize)\n    tag_320:\n      pop\n      pop\n      pop\n      pop\n      mload(0x40)\n      returndatasize\n      not(0x1f)\n      0x1f\n      dup3\n      add\n      and\n      dup3\n      add\n      dup1\n      0x40\n      mstore\n      pop\n      dup2\n      add\n      swap1\n      tag_321\n      swap2\n      swap1\n      tag_133\n      jump\t// in\n    tag_321:\n        /* \"TreasuryPool.sol\":3733:3804  bool success = token.transferFrom(msg.sender, address(this), weiAmount) */\n      swap1\n      pop\n        /* \"TreasuryPool.sol\":3823:3830  success */\n      dup1\n        /* \"TreasuryPool.sol\":3815:3850  require(success, \"Transfer failed\") */\n      tag_322\n      jumpi\n      mload(0x40)\n      0x08c379a000000000000000000000000000000000000000000000000000000000\n      dup2\n      mstore\n      0x04\n      add\n      tag_323\n      swap1\n      tag_221\n      jump\t// in\n    tag_323:\n      mload(0x40)\n      dup1\n      swap2\n      sub\n      swap1\n      revert\n    tag_322:\n        /* \"TreasuryPool.sol\":3890:3899  weiAmount */\n      dup3\n        /* \"TreasuryPool.sol\":3863:3880  totalTokenBalance */\n      0x03\n        /* \"TreasuryPool.sol\":3863:3886  totalTokenBalance[wmon] */\n      0x00\n        /* \"TreasuryPool.sol\":3881:3885  wmon */\n      dup8\n        /* \"TreasuryPool.sol\":3863:3886  totalTokenBalance[wmon] */\n      0xffffffffffffffffffffffffffffffffffffffff\n      and\n      0xffffffffffffffffffffffffffffffffffffffff\n      and\n      dup2\n      mstore\n      0x20\n      add\n      swap1\n      dup2\n      mstore\n      0x20\n      add\n      0x00\n      keccak256\n      0x00\n        /* \"TreasuryPool.sol\":3863:3899  totalTokenBalance[wmon] += weiAmount */\n      dup3\n      dup3\n      sload\n      tag_324\n      swap2\n      swap1\n      tag_223\n      jump\t// in\n    tag_324:\n      swap3\n      pop\n      pop\n      dup2\n      swap1\n      sstore\n      pop\n        /* \"TreasuryPool.sol\":3925:3935  msg.sender */\n      caller\n        /* \"TreasuryPool.sol\":3915:3953  Deposited(msg.sender, wmon, weiAmount) */\n      0xffffffffffffffffffffffffffffffffffffffff\n      and\n      0x8752a472e571a816aea92eec8dae9baf628e840f4929fbcc2d155e6233ff68a7\n        /* \"TreasuryPool.sol\":3937:3941  wmon */\n      dup7\n        /* \"TreasuryPool.sol\":3943:3952  weiAmount */\n      dup6\n        /* \"TreasuryPool.sol\":3915:3953  Deposited(msg.sender, wmon, weiAmount) */\n      mload(0x40)\n      tag_325\n      swap3\n      swap2\n      swap1\n      tag_129\n      jump\t// in\n    tag_325:\n      mload(0x40)\n      dup1\n      swap2\n      sub\n      swap1\n      log2\n        /* \"TreasuryPool.sol\":3425:3961  {... */\n      pop\n      pop\n      pop\n      pop\n      pop\n        /* \"TreasuryPool.sol\":3378:3961  function depositWmon(uint256 _amount) external {... */\n      pop\n      jump\t// out\n        /* \"TreasuryPool.sol\":1922:2029  function withdrawETH() external onlyOwner {... */\n    tag_100:\n        /* \"TreasuryPool.sol\":1040:1045  owner */\n      0x01\n      0x00\n      swap1\n      sload\n      swap1\n      0x0100\n      exp\n      swap1\n      div\n      0xffffffffffffffffffffffffffffffffffffffff\n      and\n        /* \"TreasuryPool.sol\":1026:1045  msg.sender == owner */\n      0xffffffffffffffffffffffffffffffffffffffff\n      and\n        /* \"TreasuryPool.sol\":1026:1036  msg.sender */\n      caller\n        /* \"TreasuryPool.sol\":1026:1045  msg.sender == owner */\n      0xffffffffffffffffffffffffffffffffffffffff\n      and\n      eq\n        /* \"TreasuryPool.sol\":1018:1060  require(msg.sender == owner, \"Only owner\") */\n      tag_327\n      jumpi\n      mload(0x40)\n      0x08c379a000000000000000000000000000000000000000000000000000000000\n      dup2\n      mstore\n      0x04\n      add\n      tag_328\n      swap1\n      tag_118\n      jump\t// in\n    tag_328:\n      mload(0x40)\n      dup1\n      swap2\n      sub\n      swap1\n      revert\n    tag_327:\n        /* \"TreasuryPool.sol\":1983:1988  owner */\n      0x01\n      0x00\n      swap1\n      sload\n      swap1\n      0x0100\n      exp\n      swap1\n      div\n      0xffffffffffffffffffffffffffffffffffffffff\n      and\n        /* \"TreasuryPool.sol\":1975:1998  payable(owner).transfer */\n      0xffffffffffffffffffffffffffffffffffffffff\n      and\n        /* \"TreasuryPool.sol\":1975:2021  payable(owner).transfer(address(this).balance) */\n      0x08fc\n        /* \"TreasuryPool.sol\":1999:2020  address(this).balance */\n      selfbalance\n        /* \"TreasuryPool.sol\":1975:2021  payable(owner).transfer(address(this).balance) */\n      swap1\n      dup2\n      iszero\n      mul\n      swap1\n      mload(0x40)\n      0x00\n      mload(0x40)\n      dup1\n      dup4\n      sub\n      dup2\n      dup6\n      dup9\n      dup9\n      call\n      swap4\n      pop\n      pop\n      pop\n      pop\n      iszero\n      dup1\n      iszero\n      tag_331\n      jumpi\n      returndatasize\n      0x00\n      dup1\n      returndatacopy\n      revert(0x00, returndatasize)\n    tag_331:\n      pop\n        /* \"TreasuryPool.sol\":1922:2029  function withdrawETH() external onlyOwner {... */\n      jump\t// out\n        /* \"TreasuryPool.sol\":230:252  string public greeting */\n    tag_103:\n      0x00\n      dup1\n      sload\n      tag_332\n      swap1\n      tag_333\n      jump\t// in\n    tag_332:\n      dup1\n      0x1f\n      add\n      0x20\n      dup1\n      swap2\n      div\n      mul\n      0x20\n      add\n      mload(0x40)\n      swap1\n      dup2\n      add\n      0x40\n      mstore\n      dup1\n      swap3\n      swap2\n      swap1\n      dup2\n      dup2\n      mstore\n      0x20\n      add\n      dup3\n      dup1\n      sload\n      tag_334\n      swap1\n      tag_333\n      jump\t// in\n    tag_334:\n      dup1\n      iszero\n      tag_335\n      jumpi\n      dup1\n      0x1f\n      lt\n      tag_336\n      jumpi\n      0x0100\n      dup1\n      dup4\n      sload\n      div\n      mul\n      dup4\n      mstore\n      swap2\n      0x20\n      add\n      swap2\n      jump(tag_335)\n    tag_336:\n      dup3\n      add\n      swap2\n      swap1\n      0x00\n      mstore\n      keccak256(0x00, 0x20)\n      swap1\n    tag_337:\n      dup2\n      sload\n      dup2\n      mstore\n      swap1\n      0x01\n      add\n      swap1\n      0x20\n      add\n      dup1\n      dup4\n      gt\n      tag_337\n      jumpi\n      dup3\n      swap1\n      sub\n      0x1f\n      and\n      dup3\n      add\n      swap2\n    tag_335:\n      pop\n      pop\n      pop\n      pop\n      pop\n      dup2\n      jump\t// out\n        /* \"TreasuryPool.sol\":380:432  mapping(address => uint256) public totalTokenBalance */\n    tag_109:\n      mstore(0x20, 0x03)\n      dup1\n      0x00\n      mstore\n      keccak256(0x00, 0x40)\n      0x00\n      swap2\n      pop\n      swap1\n      pop\n      sload\n      dup2\n      jump\t// out\n        /* \"TreasuryPool.sol\":7101:8389  function swap(address tokenA, address tokenB, uint256 amountA, uint256 rate) external payable {... */\n    tag_114:\n        /* \"TreasuryPool.sol\":7227:7234  callFee */\n      sload(0x02)\n        /* \"TreasuryPool.sol\":7214:7223  msg.value */\n      callvalue\n        /* \"TreasuryPool.sol\":7214:7234  msg.value >= callFee */\n      lt\n      iszero\n        /* \"TreasuryPool.sol\":7206:7260  require(msg.value >= callFee, \"Insufficient fee sent\") */\n      tag_339\n      jumpi\n      mload(0x40)\n      0x08c379a000000000000000000000000000000000000000000000000000000000\n      dup2\n      mstore\n      0x04\n      add\n      tag_340\n      swap1\n      tag_307\n      jump\t// in\n    tag_340:\n      mload(0x40)\n      dup1\n      swap2\n      sub\n      swap1\n      revert\n    tag_339:\n        /* \"TreasuryPool.sol\":7289:7290  0 */\n      0x00\n        /* \"TreasuryPool.sol\":7279:7286  amountA */\n      dup3\n        /* \"TreasuryPool.sol\":7279:7290  amountA > 0 */\n      gt\n        /* \"TreasuryPool.sol\":7271:7313  require(amountA > 0, \"Amount must be > 0\") */\n      tag_341\n      jumpi\n      mload(0x40)\n      0x08c379a000000000000000000000000000000000000000000000000000000000\n      dup2\n      mstore\n      0x04\n      add\n      tag_342\n      swap1\n      tag_137\n      jump\t// in\n    tag_342:\n      mload(0x40)\n      dup1\n      swap2\n      sub\n      swap1\n      revert\n    tag_341:\n        /* \"TreasuryPool.sol\":7326:7335  IERC20 tA */\n      0x00\n        /* \"TreasuryPool.sol\":7345:7351  tokenA */\n      dup5\n        /* \"TreasuryPool.sol\":7326:7352  IERC20 tA = IERC20(tokenA) */\n      swap1\n      pop\n        /* \"TreasuryPool.sol\":7363:7372  IERC20 tB */\n      0x00\n        /* \"TreasuryPool.sol\":7382:7388  tokenB */\n      dup5\n        /* \"TreasuryPool.sol\":7363:7389  IERC20 tB = IERC20(tokenB) */\n      swap1\n      pop\n        /* \"TreasuryPool.sol\":7402:7420  uint256 weiAmountA */\n      0x00\n        /* \"TreasuryPool.sol\":7423:7446  _toWei(tokenA, amountA) */\n      tag_343\n        /* \"TreasuryPool.sol\":7430:7436  tokenA */\n      dup8\n        /* \"TreasuryPool.sol\":7438:7445  amountA */\n      dup7\n        /* \"TreasuryPool.sol\":7423:7429  _toWei */\n      tag_207\n        /* \"TreasuryPool.sol\":7423:7446  _toWei(tokenA, amountA) */\n      jump\t// in\n    tag_343:\n        /* \"TreasuryPool.sol\":7402:7446  uint256 weiAmountA = _toWei(tokenA, amountA) */\n      swap1\n      pop\n        /* \"TreasuryPool.sol\":7498:7513  uint256 allowed */\n      0x00\n        /* \"TreasuryPool.sol\":7516:7518  tA */\n      dup4\n        /* \"TreasuryPool.sol\":7516:7528  tA.allowance */\n      0xffffffffffffffffffffffffffffffffffffffff\n      and\n      0xdd62ed3e\n        /* \"TreasuryPool.sol\":7529:7539  msg.sender */\n      caller\n        /* \"TreasuryPool.sol\":7549:7553  this */\n      address\n        /* \"TreasuryPool.sol\":7516:7555  tA.allowance(msg.sender, address(this)) */\n      mload(0x40)\n      dup4\n      0xffffffff\n      and\n      0xe0\n      shl\n      dup2\n      mstore\n      0x04\n      add\n      tag_344\n      swap3\n      swap2\n      swap1\n      tag_143\n      jump\t// in\n    tag_344:\n      0x20\n      mload(0x40)\n      dup1\n      dup4\n      sub\n      dup2\n      dup7\n      gas\n      staticcall\n      iszero\n      dup1\n      iszero\n      tag_346\n      jumpi\n      returndatasize\n      0x00\n      dup1\n      returndatacopy\n      revert(0x00, returndatasize)\n    tag_346:\n      pop\n      pop\n      pop\n      pop\n      mload(0x40)\n      returndatasize\n      not(0x1f)\n      0x1f\n      dup3\n      add\n      and\n      dup3\n      add\n      dup1\n      0x40\n      mstore\n      pop\n      dup2\n      add\n      swap1\n      tag_347\n      swap2\n      swap1\n      tag_124\n      jump\t// in\n    tag_347:\n        /* \"TreasuryPool.sol\":7498:7555  uint256 allowed = tA.allowance(msg.sender, address(this)) */\n      swap1\n      pop\n        /* \"TreasuryPool.sol\":7585:7595  weiAmountA */\n      dup2\n        /* \"TreasuryPool.sol\":7574:7581  allowed */\n      dup2\n        /* \"TreasuryPool.sol\":7574:7595  allowed >= weiAmountA */\n      lt\n      iszero\n        /* \"TreasuryPool.sol\":7566:7620  require(allowed >= weiAmountA, \"Not enough allowance\") */\n      tag_348\n      jumpi\n      mload(0x40)\n      0x08c379a000000000000000000000000000000000000000000000000000000000\n      dup2\n      mstore\n      0x04\n      add\n      tag_349\n      swap1\n      tag_214\n      jump\t// in\n    tag_349:\n      mload(0x40)\n      dup1\n      swap2\n      sub\n      swap1\n      revert\n    tag_348:\n        /* \"TreasuryPool.sol\":7671:7684  bool successA */\n      0x00\n        /* \"TreasuryPool.sol\":7687:7689  tA */\n      dup5\n        /* \"TreasuryPool.sol\":7687:7702  tA.transferFrom */\n      0xffffffffffffffffffffffffffffffffffffffff\n      and\n      0x23b872dd\n        /* \"TreasuryPool.sol\":7703:7713  msg.sender */\n      caller\n        /* \"TreasuryPool.sol\":7723:7727  this */\n      address\n        /* \"TreasuryPool.sol\":7730:7740  weiAmountA */\n      dup7\n        /* \"TreasuryPool.sol\":7687:7741  tA.transferFrom(msg.sender, address(this), weiAmountA) */\n      mload(0x40)\n      dup5\n      0xffffffff\n      and\n      0xe0\n      shl\n      dup2\n      mstore\n      0x04\n      add\n      tag_350\n      swap4\n      swap3\n      swap2\n      swap1\n      tag_151\n      jump\t// in\n    tag_350:\n      0x20\n      mload(0x40)\n      dup1\n      dup4\n      sub\n      dup2\n      0x00\n      dup8\n      gas\n      call\n      iszero\n      dup1\n      iszero\n      tag_352\n      jumpi\n      returndatasize\n      0x00\n      dup1\n      returndatacopy\n      revert(0x00, returndatasize)\n    tag_352:\n      pop\n      pop\n      pop\n      pop\n      mload(0x40)\n      returndatasize\n      not(0x1f)\n      0x1f\n      dup3\n      add\n      and\n      dup3\n      add\n      dup1\n      0x40\n      mstore\n      pop\n      dup2\n      add\n      swap1\n      tag_353\n      swap2\n      swap1\n      tag_133\n      jump\t// in\n    tag_353:\n        /* \"TreasuryPool.sol\":7671:7741  bool successA = tA.transferFrom(msg.sender, address(this), weiAmountA) */\n      swap1\n      pop\n        /* \"TreasuryPool.sol\":7760:7768  successA */\n      dup1\n        /* \"TreasuryPool.sol\":7752:7795  require(successA, \"TokenA transfer failed\") */\n      tag_354\n      jumpi\n      mload(0x40)\n      0x08c379a000000000000000000000000000000000000000000000000000000000\n      dup2\n      mstore\n      0x04\n      add\n      tag_355\n      swap1\n      tag_157\n      jump\t// in\n    tag_355:\n      mload(0x40)\n      dup1\n      swap2\n      sub\n      swap1\n      revert\n    tag_354:\n        /* \"TreasuryPool.sol\":7922:7926  1e18 */\n      0x0de0b6b3a7640000\n        /* \"TreasuryPool.sol\":7914:7918  rate */\n      dup7\n        /* \"TreasuryPool.sol\":7901:7911  weiAmountA */\n      dup5\n        /* \"TreasuryPool.sol\":7901:7918  weiAmountA * rate */\n      tag_356\n      swap2\n      swap1\n      tag_357\n      jump\t// in\n    tag_356:\n        /* \"TreasuryPool.sol\":7900:7926  (weiAmountA * rate) / 1e18 */\n      tag_358\n      swap2\n      swap1\n      tag_201\n      jump\t// in\n    tag_358:\n      pop\n        /* \"TreasuryPool.sol\":7976:7994  100000000000000000 */\n      0x016345785d8a0000\n        /* \"TreasuryPool.sol\":7945:7947  tB */\n      dup5\n        /* \"TreasuryPool.sol\":7945:7957  tB.balanceOf */\n      0xffffffffffffffffffffffffffffffffffffffff\n      and\n      0x70a08231\n        /* \"TreasuryPool.sol\":7966:7970  this */\n      address\n        /* \"TreasuryPool.sol\":7945:7972  tB.balanceOf(address(this)) */\n      mload(0x40)\n      dup3\n      0xffffffff\n      and\n      0xe0\n      shl\n      dup2\n      mstore\n      0x04\n      add\n      tag_359\n      swap2\n      swap1\n      tag_65\n      jump\t// in\n    tag_359:\n      0x20\n      mload(0x40)\n      dup1\n      dup4\n      sub\n      dup2\n      dup7\n      gas\n      staticcall\n      iszero\n      dup1\n      iszero\n      tag_361\n      jumpi\n      returndatasize\n      0x00\n      dup1\n      returndatacopy\n      revert(0x00, returndatasize)\n    tag_361:\n      pop\n      pop\n      pop\n      pop\n      mload(0x40)\n      returndatasize\n      not(0x1f)\n      0x1f\n      dup3\n      add\n      and\n      dup3\n      add\n      dup1\n      0x40\n      mstore\n      pop\n      dup2\n      add\n      swap1\n      tag_362\n      swap2\n      swap1\n      tag_124\n      jump\t// in\n    tag_362:\n        /* \"TreasuryPool.sol\":7945:7994  tB.balanceOf(address(this)) >= 100000000000000000 */\n      lt\n      iszero\n        /* \"TreasuryPool.sol\":7937:8024  require(tB.balanceOf(address(this)) >= 100000000000000000, \"Not enough tokenB in pool\") */\n      tag_363\n      jumpi\n      mload(0x40)\n      0x08c379a000000000000000000000000000000000000000000000000000000000\n      dup2\n      mstore\n      0x04\n      add\n      tag_364\n      swap1\n      tag_365\n      jump\t// in\n    tag_364:\n      mload(0x40)\n      dup1\n      swap2\n      sub\n      swap1\n      revert\n    tag_363:\n        /* \"TreasuryPool.sol\":8073:8086  bool successB */\n      0x00\n        /* \"TreasuryPool.sol\":8089:8091  tB */\n      dup5\n        /* \"TreasuryPool.sol\":8089:8100  tB.transfer */\n      0xffffffffffffffffffffffffffffffffffffffff\n      and\n      0xa9059cbb\n        /* \"TreasuryPool.sol\":8101:8111  msg.sender */\n      caller\n        /* \"TreasuryPool.sol\":8113:8131  100000000000000000 */\n      0x016345785d8a0000\n        /* \"TreasuryPool.sol\":8089:8132  tB.transfer(msg.sender, 100000000000000000) */\n      mload(0x40)\n      dup4\n      0xffffffff\n      and\n      0xe0\n      shl\n      dup2\n      mstore\n      0x04\n      add\n      tag_366\n      swap3\n      swap2\n      swap1\n      tag_293\n      jump\t// in\n    tag_366:\n      0x20\n      mload(0x40)\n      dup1\n      dup4\n      sub\n      dup2\n      0x00\n      dup8\n      gas\n      call\n      iszero\n      dup1\n      iszero\n      tag_368\n      jumpi\n      returndatasize\n      0x00\n      dup1\n      returndatacopy\n      revert(0x00, returndatasize)\n    tag_368:\n      pop\n      pop\n      pop\n      pop\n      mload(0x40)\n      returndatasize\n      not(0x1f)\n      0x1f\n      dup3\n      add\n      and\n      dup3\n      add\n      dup1\n      0x40\n      mstore\n      pop\n      dup2\n      add\n      swap1\n      tag_369\n      swap2\n      swap1\n      tag_133\n      jump\t// in\n    tag_369:\n        /* \"TreasuryPool.sol\":8073:8132  bool successB = tB.transfer(msg.sender, 100000000000000000) */\n      swap1\n      pop\n        /* \"TreasuryPool.sol\":8151:8159  successB */\n      dup1\n        /* \"TreasuryPool.sol\":8143:8186  require(successB, \"TokenB transfer failed\") */\n      tag_370\n      jumpi\n      mload(0x40)\n      0x08c379a000000000000000000000000000000000000000000000000000000000\n      dup2\n      mstore\n      0x04\n      add\n      tag_371\n      swap1\n      tag_171\n      jump\t// in\n    tag_371:\n      mload(0x40)\n      dup1\n      swap2\n      sub\n      swap1\n      revert\n    tag_370:\n        /* \"TreasuryPool.sol\":8228:8238  weiAmountA */\n      dup4\n        /* \"TreasuryPool.sol\":8199:8216  totalTokenBalance */\n      0x03\n        /* \"TreasuryPool.sol\":8199:8224  totalTokenBalance[tokenA] */\n      0x00\n        /* \"TreasuryPool.sol\":8217:8223  tokenA */\n      dup13\n        /* \"TreasuryPool.sol\":8199:8224  totalTokenBalance[tokenA] */\n      0xffffffffffffffffffffffffffffffffffffffff\n      and\n      0xffffffffffffffffffffffffffffffffffffffff\n      and\n      dup2\n      mstore\n      0x20\n      add\n      swap1\n      dup2\n      mstore\n      0x20\n      add\n      0x00\n      keccak256\n      0x00\n        /* \"TreasuryPool.sol\":8199:8238  totalTokenBalance[tokenA] += weiAmountA */\n      dup3\n      dup3\n      sload\n      tag_372\n      swap2\n      swap1\n      tag_223\n      jump\t// in\n    tag_372:\n      swap3\n      pop\n      pop\n      dup2\n      swap1\n      sstore\n      pop\n        /* \"TreasuryPool.sol\":8278:8296  100000000000000000 */\n      0x016345785d8a0000\n        /* \"TreasuryPool.sol\":8249:8266  totalTokenBalance */\n      0x03\n        /* \"TreasuryPool.sol\":8249:8274  totalTokenBalance[tokenB] */\n      0x00\n        /* \"TreasuryPool.sol\":8267:8273  tokenB */\n      dup12\n        /* \"TreasuryPool.sol\":8249:8274  totalTokenBalance[tokenB] */\n      0xffffffffffffffffffffffffffffffffffffffff\n      and\n      0xffffffffffffffffffffffffffffffffffffffff\n      and\n      dup2\n      mstore\n      0x20\n      add\n      swap1\n      dup2\n      mstore\n      0x20\n      add\n      0x00\n      keccak256\n      0x00\n        /* \"TreasuryPool.sol\":8249:8296  totalTokenBalance[tokenB] -= 100000000000000000 */\n      dup3\n      dup3\n      sload\n      tag_373\n      swap2\n      swap1\n      tag_301\n      jump\t// in\n    tag_373:\n      swap3\n      pop\n      pop\n      dup2\n      swap1\n      sstore\n      pop\n        /* \"TreasuryPool.sol\":8322:8332  msg.sender */\n      caller\n        /* \"TreasuryPool.sol\":8314:8381  Swapped(msg.sender, tokenA, tokenB, weiAmountA, 100000000000000000) */\n      0xffffffffffffffffffffffffffffffffffffffff\n      and\n      0x6782190c91d4a7e8ad2a867deed6ec0a970cab8ff137ae2bd4abd92b3810f4d3\n        /* \"TreasuryPool.sol\":8334:8340  tokenA */\n      dup12\n        /* \"TreasuryPool.sol\":8342:8348  tokenB */\n      dup12\n        /* \"TreasuryPool.sol\":8350:8360  weiAmountA */\n      dup8\n        /* \"TreasuryPool.sol\":8362:8380  100000000000000000 */\n      0x016345785d8a0000\n        /* \"TreasuryPool.sol\":8314:8381  Swapped(msg.sender, tokenA, tokenB, weiAmountA, 100000000000000000) */\n      mload(0x40)\n      tag_374\n      swap5\n      swap4\n      swap3\n      swap2\n      swap1\n      tag_375\n      jump\t// in\n    tag_374:\n      mload(0x40)\n      dup1\n      swap2\n      sub\n      swap1\n      log2\n        /* \"TreasuryPool.sol\":7195:8389  {... */\n      pop\n      pop\n      pop\n      pop\n      pop\n      pop\n        /* \"TreasuryPool.sol\":7101:8389  function swap(address tokenA, address tokenB, uint256 amountA, uint256 rate) external payable {... */\n      pop\n      pop\n      pop\n      pop\n      jump\t// out\n        /* \"TreasuryPool.sol\":1236:1439  function _toWei(address _token, uint256 _amount) internal view returns (uint256) {... */\n    tag_207:\n        /* \"TreasuryPool.sol\":1308:1315  uint256 */\n      0x00\n        /* \"TreasuryPool.sol\":1328:1342  uint8 decimals */\n      dup1\n        /* \"TreasuryPool.sol\":1360:1366  _token */\n      dup4\n        /* \"TreasuryPool.sol\":1345:1376  IERC20Metadata(_token).decimals */\n      0xffffffffffffffffffffffffffffffffffffffff\n      and\n      0x313ce567\n        /* \"TreasuryPool.sol\":1345:1378  IERC20Metadata(_token).decimals() */\n      mload(0x40)\n      dup2\n      0xffffffff\n      and\n      0xe0\n      shl\n      dup2\n      mstore\n      0x04\n      add\n      0x20\n      mload(0x40)\n      dup1\n      dup4\n      sub\n      dup2\n      dup7\n      gas\n      staticcall\n      iszero\n      dup1\n      iszero\n      tag_378\n      jumpi\n      returndatasize\n      0x00\n      dup1\n      returndatacopy\n      revert(0x00, returndatasize)\n    tag_378:\n      pop\n      pop\n      pop\n      pop\n      mload(0x40)\n      returndatasize\n      not(0x1f)\n      0x1f\n      dup3\n      add\n      and\n      dup3\n      add\n      dup1\n      0x40\n      mstore\n      pop\n      dup2\n      add\n      swap1\n      tag_379\n      swap2\n      swap1\n      tag_197\n      jump\t// in\n    tag_379:\n        /* \"TreasuryPool.sol\":1328:1378  uint8 decimals = IERC20Metadata(_token).decimals() */\n      swap1\n      pop\n        /* \"TreasuryPool.sol\":1421:1429  decimals */\n      dup1\n        /* \"TreasuryPool.sol\":1413:1430  uint256(decimals) */\n      0xff\n      and\n        /* \"TreasuryPool.sol\":1407:1409  10 */\n      0x0a\n        /* \"TreasuryPool.sol\":1407:1430  10 ** uint256(decimals) */\n      tag_380\n      swap2\n      swap1\n      tag_381\n      jump\t// in\n    tag_380:\n        /* \"TreasuryPool.sol\":1396:1403  _amount */\n      dup4\n        /* \"TreasuryPool.sol\":1396:1431  _amount * (10 ** uint256(decimals)) */\n      tag_382\n      swap2\n      swap1\n      tag_357\n      jump\t// in\n    tag_382:\n        /* \"TreasuryPool.sol\":1389:1431  return _amount * (10 ** uint256(decimals)) */\n      swap2\n      pop\n      pop\n        /* \"TreasuryPool.sol\":1236:1439  function _toWei(address _token, uint256 _amount) internal view returns (uint256) {... */\n      swap3\n      swap2\n      pop\n      pop\n      jump\t// out\n        /* \"#utility.yul\":88:205   */\n    tag_384:\n        /* \"#utility.yul\":197:198   */\n      0x00\n        /* \"#utility.yul\":194:195   */\n      dup1\n        /* \"#utility.yul\":187:199   */\n      revert\n        /* \"#utility.yul\":211:328   */\n    tag_385:\n        /* \"#utility.yul\":320:321   */\n      0x00\n        /* \"#utility.yul\":317:318   */\n      dup1\n        /* \"#utility.yul\":310:322   */\n      revert\n        /* \"#utility.yul\":334:460   */\n    tag_386:\n        /* \"#utility.yul\":371:378   */\n      0x00\n        /* \"#utility.yul\":411:453   */\n      0xffffffffffffffffffffffffffffffffffffffff\n        /* \"#utility.yul\":404:409   */\n      dup3\n        /* \"#utility.yul\":400:454   */\n      and\n        /* \"#utility.yul\":389:454   */\n      swap1\n      pop\n        /* \"#utility.yul\":334:460   */\n      swap2\n      swap1\n      pop\n      jump\t// out\n        /* \"#utility.yul\":466:562   */\n    tag_387:\n        /* \"#utility.yul\":503:510   */\n      0x00\n        /* \"#utility.yul\":532:556   */\n      tag_482\n        /* \"#utility.yul\":550:555   */\n      dup3\n        /* \"#utility.yul\":532:556   */\n      tag_386\n      jump\t// in\n    tag_482:\n        /* \"#utility.yul\":521:556   */\n      swap1\n      pop\n        /* \"#utility.yul\":466:562   */\n      swap2\n      swap1\n      pop\n      jump\t// out\n        /* \"#utility.yul\":568:690   */\n    tag_388:\n        /* \"#utility.yul\":641:665   */\n      tag_484\n        /* \"#utility.yul\":659:664   */\n      dup2\n        /* \"#utility.yul\":641:665   */\n      tag_387\n      jump\t// in\n    tag_484:\n        /* \"#utility.yul\":634:639   */\n      dup2\n        /* \"#utility.yul\":631:666   */\n      eq\n        /* \"#utility.yul\":621:684   */\n      tag_485\n      jumpi\n        /* \"#utility.yul\":680:681   */\n      0x00\n        /* \"#utility.yul\":677:678   */\n      dup1\n        /* \"#utility.yul\":670:682   */\n      revert\n        /* \"#utility.yul\":621:684   */\n    tag_485:\n        /* \"#utility.yul\":568:690   */\n      pop\n      jump\t// out\n        /* \"#utility.yul\":696:835   */\n    tag_389:\n        /* \"#utility.yul\":742:747   */\n      0x00\n        /* \"#utility.yul\":780:786   */\n      dup2\n        /* \"#utility.yul\":767:787   */\n      calldataload\n        /* \"#utility.yul\":758:787   */\n      swap1\n      pop\n        /* \"#utility.yul\":796:829   */\n      tag_487\n        /* \"#utility.yul\":823:828   */\n      dup2\n        /* \"#utility.yul\":796:829   */\n      tag_388\n      jump\t// in\n    tag_487:\n        /* \"#utility.yul\":696:835   */\n      swap3\n      swap2\n      pop\n      pop\n      jump\t// out\n        /* \"#utility.yul\":841:918   */\n    tag_390:\n        /* \"#utility.yul\":878:885   */\n      0x00\n        /* \"#utility.yul\":907:912   */\n      dup2\n        /* \"#utility.yul\":896:912   */\n      swap1\n      pop\n        /* \"#utility.yul\":841:918   */\n      swap2\n      swap1\n      pop\n      jump\t// out\n        /* \"#utility.yul\":924:1046   */\n    tag_391:\n        /* \"#utility.yul\":997:1021   */\n      tag_490\n        /* \"#utility.yul\":1015:1020   */\n      dup2\n        /* \"#utility.yul\":997:1021   */\n      tag_390\n      jump\t// in\n    tag_490:\n        /* \"#utility.yul\":990:995   */\n      dup2\n        /* \"#utility.yul\":987:1022   */\n      eq\n        /* \"#utility.yul\":977:1040   */\n      tag_491\n      jumpi\n        /* \"#utility.yul\":1036:1037   */\n      0x00\n        /* \"#utility.yul\":1033:1034   */\n      dup1\n        /* \"#utility.yul\":1026:1038   */\n      revert\n        /* \"#utility.yul\":977:1040   */\n    tag_491:\n        /* \"#utility.yul\":924:1046   */\n      pop\n      jump\t// out\n        /* \"#utility.yul\":1052:1191   */\n    tag_392:\n        /* \"#utility.yul\":1098:1103   */\n      0x00\n        /* \"#utility.yul\":1136:1142   */\n      dup2\n        /* \"#utility.yul\":1123:1143   */\n      calldataload\n        /* \"#utility.yul\":1114:1143   */\n      swap1\n      pop\n        /* \"#utility.yul\":1152:1185   */\n      tag_493\n        /* \"#utility.yul\":1179:1184   */\n      dup2\n        /* \"#utility.yul\":1152:1185   */\n      tag_391\n      jump\t// in\n    tag_493:\n        /* \"#utility.yul\":1052:1191   */\n      swap3\n      swap2\n      pop\n      pop\n      jump\t// out\n        /* \"#utility.yul\":1197:1816   */\n    tag_35:\n        /* \"#utility.yul\":1274:1280   */\n      0x00\n        /* \"#utility.yul\":1282:1288   */\n      dup1\n        /* \"#utility.yul\":1290:1296   */\n      0x00\n        /* \"#utility.yul\":1339:1341   */\n      0x60\n        /* \"#utility.yul\":1327:1336   */\n      dup5\n        /* \"#utility.yul\":1318:1325   */\n      dup7\n        /* \"#utility.yul\":1314:1337   */\n      sub\n        /* \"#utility.yul\":1310:1342   */\n      slt\n        /* \"#utility.yul\":1307:1426   */\n      iszero\n      tag_495\n      jumpi\n        /* \"#utility.yul\":1345:1424   */\n      tag_496\n      tag_384\n      jump\t// in\n    tag_496:\n        /* \"#utility.yul\":1307:1426   */\n    tag_495:\n        /* \"#utility.yul\":1465:1466   */\n      0x00\n        /* \"#utility.yul\":1490:1543   */\n      tag_497\n        /* \"#utility.yul\":1535:1542   */\n      dup7\n        /* \"#utility.yul\":1526:1532   */\n      dup3\n        /* \"#utility.yul\":1515:1524   */\n      dup8\n        /* \"#utility.yul\":1511:1533   */\n      add\n        /* \"#utility.yul\":1490:1543   */\n      tag_389\n      jump\t// in\n    tag_497:\n        /* \"#utility.yul\":1480:1543   */\n      swap4\n      pop\n        /* \"#utility.yul\":1436:1553   */\n      pop\n        /* \"#utility.yul\":1592:1594   */\n      0x20\n        /* \"#utility.yul\":1618:1671   */\n      tag_498\n        /* \"#utility.yul\":1663:1670   */\n      dup7\n        /* \"#utility.yul\":1654:1660   */\n      dup3\n        /* \"#utility.yul\":1643:1652   */\n      dup8\n        /* \"#utility.yul\":1639:1661   */\n      add\n        /* \"#utility.yul\":1618:1671   */\n      tag_389\n      jump\t// in\n    tag_498:\n        /* \"#utility.yul\":1608:1671   */\n      swap3\n      pop\n        /* \"#utility.yul\":1563:1681   */\n      pop\n        /* \"#utility.yul\":1720:1722   */\n      0x40\n        /* \"#utility.yul\":1746:1799   */\n      tag_499\n        /* \"#utility.yul\":1791:1798   */\n      dup7\n        /* \"#utility.yul\":1782:1788   */\n      dup3\n        /* \"#utility.yul\":1771:1780   */\n      dup8\n        /* \"#utility.yul\":1767:1789   */\n      add\n        /* \"#utility.yul\":1746:1799   */\n      tag_392\n      jump\t// in\n    tag_499:\n        /* \"#utility.yul\":1736:1799   */\n      swap2\n      pop\n        /* \"#utility.yul\":1691:1809   */\n      pop\n        /* \"#utility.yul\":1197:1816   */\n      swap3\n      pop\n      swap3\n      pop\n      swap3\n      jump\t// out\n        /* \"#utility.yul\":1822:2151   */\n    tag_40:\n        /* \"#utility.yul\":1881:1887   */\n      0x00\n        /* \"#utility.yul\":1930:1932   */\n      0x20\n        /* \"#utility.yul\":1918:1927   */\n      dup3\n        /* \"#utility.yul\":1909:1916   */\n      dup5\n        /* \"#utility.yul\":1905:1928   */\n      sub\n        /* \"#utility.yul\":1901:1933   */\n      slt\n        /* \"#utility.yul\":1898:2017   */\n      iszero\n      tag_501\n      jumpi\n        /* \"#utility.yul\":1936:2015   */\n      tag_502\n      tag_384\n      jump\t// in\n    tag_502:\n        /* \"#utility.yul\":1898:2017   */\n    tag_501:\n        /* \"#utility.yul\":2056:2057   */\n      0x00\n        /* \"#utility.yul\":2081:2134   */\n      tag_503\n        /* \"#utility.yul\":2126:2133   */\n      dup5\n        /* \"#utility.yul\":2117:2123   */\n      dup3\n        /* \"#utility.yul\":2106:2115   */\n      dup6\n        /* \"#utility.yul\":2102:2124   */\n      add\n        /* \"#utility.yul\":2081:2134   */\n      tag_389\n      jump\t// in\n    tag_503:\n        /* \"#utility.yul\":2071:2134   */\n      swap2\n      pop\n        /* \"#utility.yul\":2027:2144   */\n      pop\n        /* \"#utility.yul\":1822:2151   */\n      swap3\n      swap2\n      pop\n      pop\n      jump\t// out\n        /* \"#utility.yul\":2157:2271   */\n    tag_393:\n        /* \"#utility.yul\":2224:2230   */\n      0x00\n        /* \"#utility.yul\":2258:2263   */\n      dup2\n        /* \"#utility.yul\":2252:2264   */\n      mload\n        /* \"#utility.yul\":2242:2264   */\n      swap1\n      pop\n        /* \"#utility.yul\":2157:2271   */\n      swap2\n      swap1\n      pop\n      jump\t// out\n        /* \"#utility.yul\":2277:2461   */\n    tag_394:\n        /* \"#utility.yul\":2376:2387   */\n      0x00\n        /* \"#utility.yul\":2410:2416   */\n      dup3\n        /* \"#utility.yul\":2405:2408   */\n      dup3\n        /* \"#utility.yul\":2398:2417   */\n      mstore\n        /* \"#utility.yul\":2450:2454   */\n      0x20\n        /* \"#utility.yul\":2445:2448   */\n      dup3\n        /* \"#utility.yul\":2441:2455   */\n      add\n        /* \"#utility.yul\":2426:2455   */\n      swap1\n      pop\n        /* \"#utility.yul\":2277:2461   */\n      swap3\n      swap2\n      pop\n      pop\n      jump\t// out\n        /* \"#utility.yul\":2467:2599   */\n    tag_395:\n        /* \"#utility.yul\":2534:2538   */\n      0x00\n        /* \"#utility.yul\":2557:2560   */\n      dup2\n        /* \"#utility.yul\":2549:2560   */\n      swap1\n      pop\n        /* \"#utility.yul\":2587:2591   */\n      0x20\n        /* \"#utility.yul\":2582:2585   */\n      dup3\n        /* \"#utility.yul\":2578:2592   */\n      add\n        /* \"#utility.yul\":2570:2592   */\n      swap1\n      pop\n        /* \"#utility.yul\":2467:2599   */\n      swap2\n      swap1\n      pop\n      jump\t// out\n        /* \"#utility.yul\":2605:2713   */\n    tag_396:\n        /* \"#utility.yul\":2682:2706   */\n      tag_508\n        /* \"#utility.yul\":2700:2705   */\n      dup2\n        /* \"#utility.yul\":2682:2706   */\n      tag_387\n      jump\t// in\n    tag_508:\n        /* \"#utility.yul\":2677:2680   */\n      dup3\n        /* \"#utility.yul\":2670:2707   */\n      mstore\n        /* \"#utility.yul\":2605:2713   */\n      pop\n      pop\n      jump\t// out\n        /* \"#utility.yul\":2719:2898   */\n    tag_397:\n        /* \"#utility.yul\":2788:2798   */\n      0x00\n        /* \"#utility.yul\":2809:2855   */\n      tag_510\n        /* \"#utility.yul\":2851:2854   */\n      dup4\n        /* \"#utility.yul\":2843:2849   */\n      dup4\n        /* \"#utility.yul\":2809:2855   */\n      tag_396\n      jump\t// in\n    tag_510:\n        /* \"#utility.yul\":2887:2891   */\n      0x20\n        /* \"#utility.yul\":2882:2885   */\n      dup4\n        /* \"#utility.yul\":2878:2892   */\n      add\n        /* \"#utility.yul\":2864:2892   */\n      swap1\n      pop\n        /* \"#utility.yul\":2719:2898   */\n      swap3\n      swap2\n      pop\n      pop\n      jump\t// out\n        /* \"#utility.yul\":2904:3017   */\n    tag_398:\n        /* \"#utility.yul\":2974:2978   */\n      0x00\n        /* \"#utility.yul\":3006:3010   */\n      0x20\n        /* \"#utility.yul\":3001:3004   */\n      dup3\n        /* \"#utility.yul\":2997:3011   */\n      add\n        /* \"#utility.yul\":2989:3011   */\n      swap1\n      pop\n        /* \"#utility.yul\":2904:3017   */\n      swap2\n      swap1\n      pop\n      jump\t// out\n        /* \"#utility.yul\":3053:3785   */\n    tag_399:\n        /* \"#utility.yul\":3172:3175   */\n      0x00\n        /* \"#utility.yul\":3201:3255   */\n      tag_513\n        /* \"#utility.yul\":3249:3254   */\n      dup3\n        /* \"#utility.yul\":3201:3255   */\n      tag_393\n      jump\t// in\n    tag_513:\n        /* \"#utility.yul\":3271:3357   */\n      tag_514\n        /* \"#utility.yul\":3350:3356   */\n      dup2\n        /* \"#utility.yul\":3345:3348   */\n      dup6\n        /* \"#utility.yul\":3271:3357   */\n      tag_394\n      jump\t// in\n    tag_514:\n        /* \"#utility.yul\":3264:3357   */\n      swap4\n      pop\n        /* \"#utility.yul\":3381:3437   */\n      tag_515\n        /* \"#utility.yul\":3431:3436   */\n      dup4\n        /* \"#utility.yul\":3381:3437   */\n      tag_395\n      jump\t// in\n    tag_515:\n        /* \"#utility.yul\":3460:3467   */\n      dup1\n        /* \"#utility.yul\":3491:3492   */\n      0x00\n        /* \"#utility.yul\":3476:3760   */\n    tag_516:\n        /* \"#utility.yul\":3501:3507   */\n      dup4\n        /* \"#utility.yul\":3498:3499   */\n      dup2\n        /* \"#utility.yul\":3495:3508   */\n      lt\n        /* \"#utility.yul\":3476:3760   */\n      iszero\n      tag_518\n      jumpi\n        /* \"#utility.yul\":3577:3583   */\n      dup2\n        /* \"#utility.yul\":3571:3584   */\n      mload\n        /* \"#utility.yul\":3604:3667   */\n      tag_519\n        /* \"#utility.yul\":3663:3666   */\n      dup9\n        /* \"#utility.yul\":3648:3661   */\n      dup3\n        /* \"#utility.yul\":3604:3667   */\n      tag_397\n      jump\t// in\n    tag_519:\n        /* \"#utility.yul\":3597:3667   */\n      swap8\n      pop\n        /* \"#utility.yul\":3690:3750   */\n      tag_520\n        /* \"#utility.yul\":3743:3749   */\n      dup4\n        /* \"#utility.yul\":3690:3750   */\n      tag_398\n      jump\t// in\n    tag_520:\n        /* \"#utility.yul\":3680:3750   */\n      swap3\n      pop\n        /* \"#utility.yul\":3536:3760   */\n      pop\n        /* \"#utility.yul\":3523:3524   */\n      0x01\n        /* \"#utility.yul\":3520:3521   */\n      dup2\n        /* \"#utility.yul\":3516:3525   */\n      add\n        /* \"#utility.yul\":3511:3525   */\n      swap1\n      pop\n        /* \"#utility.yul\":3476:3760   */\n      jump(tag_516)\n    tag_518:\n        /* \"#utility.yul\":3480:3494   */\n      pop\n        /* \"#utility.yul\":3776:3779   */\n      dup6\n        /* \"#utility.yul\":3769:3779   */\n      swap4\n      pop\n        /* \"#utility.yul\":3177:3785   */\n      pop\n      pop\n      pop\n        /* \"#utility.yul\":3053:3785   */\n      swap3\n      swap2\n      pop\n      pop\n      jump\t// out\n        /* \"#utility.yul\":3791:3905   */\n    tag_400:\n        /* \"#utility.yul\":3858:3864   */\n      0x00\n        /* \"#utility.yul\":3892:3897   */\n      dup2\n        /* \"#utility.yul\":3886:3898   */\n      mload\n        /* \"#utility.yul\":3876:3898   */\n      swap1\n      pop\n        /* \"#utility.yul\":3791:3905   */\n      swap2\n      swap1\n      pop\n      jump\t// out\n        /* \"#utility.yul\":3911:4095   */\n    tag_401:\n        /* \"#utility.yul\":4010:4021   */\n      0x00\n        /* \"#utility.yul\":4044:4050   */\n      dup3\n        /* \"#utility.yul\":4039:4042   */\n      dup3\n        /* \"#utility.yul\":4032:4051   */\n      mstore\n        /* \"#utility.yul\":4084:4088   */\n      0x20\n        /* \"#utility.yul\":4079:4082   */\n      dup3\n        /* \"#utility.yul\":4075:4089   */\n      add\n        /* \"#utility.yul\":4060:4089   */\n      swap1\n      pop\n        /* \"#utility.yul\":3911:4095   */\n      swap3\n      swap2\n      pop\n      pop\n      jump\t// out\n        /* \"#utility.yul\":4101:4233   */\n    tag_402:\n        /* \"#utility.yul\":4168:4172   */\n      0x00\n        /* \"#utility.yul\":4191:4194   */\n      dup2\n        /* \"#utility.yul\":4183:4194   */\n      swap1\n      pop\n        /* \"#utility.yul\":4221:4225   */\n      0x20\n        /* \"#utility.yul\":4216:4219   */\n      dup3\n        /* \"#utility.yul\":4212:4226   */\n      add\n        /* \"#utility.yul\":4204:4226   */\n      swap1\n      pop\n        /* \"#utility.yul\":4101:4233   */\n      swap2\n      swap1\n      pop\n      jump\t// out\n        /* \"#utility.yul\":4239:4347   */\n    tag_403:\n        /* \"#utility.yul\":4316:4340   */\n      tag_525\n        /* \"#utility.yul\":4334:4339   */\n      dup2\n        /* \"#utility.yul\":4316:4340   */\n      tag_390\n      jump\t// in\n    tag_525:\n        /* \"#utility.yul\":4311:4314   */\n      dup3\n        /* \"#utility.yul\":4304:4341   */\n      mstore\n        /* \"#utility.yul\":4239:4347   */\n      pop\n      pop\n      jump\t// out\n        /* \"#utility.yul\":4353:4532   */\n    tag_404:\n        /* \"#utility.yul\":4422:4432   */\n      0x00\n        /* \"#utility.yul\":4443:4489   */\n      tag_527\n        /* \"#utility.yul\":4485:4488   */\n      dup4\n        /* \"#utility.yul\":4477:4483   */\n      dup4\n        /* \"#utility.yul\":4443:4489   */\n      tag_403\n      jump\t// in\n    tag_527:\n        /* \"#utility.yul\":4521:4525   */\n      0x20\n        /* \"#utility.yul\":4516:4519   */\n      dup4\n        /* \"#utility.yul\":4512:4526   */\n      add\n        /* \"#utility.yul\":4498:4526   */\n      swap1\n      pop\n        /* \"#utility.yul\":4353:4532   */\n      swap3\n      swap2\n      pop\n      pop\n      jump\t// out\n        /* \"#utility.yul\":4538:4651   */\n    tag_405:\n        /* \"#utility.yul\":4608:4612   */\n      0x00\n        /* \"#utility.yul\":4640:4644   */\n      0x20\n        /* \"#utility.yul\":4635:4638   */\n      dup3\n        /* \"#utility.yul\":4631:4645   */\n      add\n        /* \"#utility.yul\":4623:4645   */\n      swap1\n      pop\n        /* \"#utility.yul\":4538:4651   */\n      swap2\n      swap1\n      pop\n      jump\t// out\n        /* \"#utility.yul\":4687:5419   */\n    tag_406:\n        /* \"#utility.yul\":4806:4809   */\n      0x00\n        /* \"#utility.yul\":4835:4889   */\n      tag_530\n        /* \"#utility.yul\":4883:4888   */\n      dup3\n        /* \"#utility.yul\":4835:4889   */\n      tag_400\n      jump\t// in\n    tag_530:\n        /* \"#utility.yul\":4905:4991   */\n      tag_531\n        /* \"#utility.yul\":4984:4990   */\n      dup2\n        /* \"#utility.yul\":4979:4982   */\n      dup6\n        /* \"#utility.yul\":4905:4991   */\n      tag_401\n      jump\t// in\n    tag_531:\n        /* \"#utility.yul\":4898:4991   */\n      swap4\n      pop\n        /* \"#utility.yul\":5015:5071   */\n      tag_532\n        /* \"#utility.yul\":5065:5070   */\n      dup4\n        /* \"#utility.yul\":5015:5071   */\n      tag_402\n      jump\t// in\n    tag_532:\n        /* \"#utility.yul\":5094:5101   */\n      dup1\n        /* \"#utility.yul\":5125:5126   */\n      0x00\n        /* \"#utility.yul\":5110:5394   */\n    tag_533:\n        /* \"#utility.yul\":5135:5141   */\n      dup4\n        /* \"#utility.yul\":5132:5133   */\n      dup2\n        /* \"#utility.yul\":5129:5142   */\n      lt\n        /* \"#utility.yul\":5110:5394   */\n      iszero\n      tag_535\n      jumpi\n        /* \"#utility.yul\":5211:5217   */\n      dup2\n        /* \"#utility.yul\":5205:5218   */\n      mload\n        /* \"#utility.yul\":5238:5301   */\n      tag_536\n        /* \"#utility.yul\":5297:5300   */\n      dup9\n        /* \"#utility.yul\":5282:5295   */\n      dup3\n        /* \"#utility.yul\":5238:5301   */\n      tag_404\n      jump\t// in\n    tag_536:\n        /* \"#utility.yul\":5231:5301   */\n      swap8\n      pop\n        /* \"#utility.yul\":5324:5384   */\n      tag_537\n        /* \"#utility.yul\":5377:5383   */\n      dup4\n        /* \"#utility.yul\":5324:5384   */\n      tag_405\n      jump\t// in\n    tag_537:\n        /* \"#utility.yul\":5314:5384   */\n      swap3\n      pop\n        /* \"#utility.yul\":5170:5394   */\n      pop\n        /* \"#utility.yul\":5157:5158   */\n      0x01\n        /* \"#utility.yul\":5154:5155   */\n      dup2\n        /* \"#utility.yul\":5150:5159   */\n      add\n        /* \"#utility.yul\":5145:5159   */\n      swap1\n      pop\n        /* \"#utility.yul\":5110:5394   */\n      jump(tag_533)\n    tag_535:\n        /* \"#utility.yul\":5114:5128   */\n      pop\n        /* \"#utility.yul\":5410:5413   */\n      dup6\n        /* \"#utility.yul\":5403:5413   */\n      swap4\n      pop\n        /* \"#utility.yul\":4811:5419   */\n      pop\n      pop\n      pop\n        /* \"#utility.yul\":4687:5419   */\n      swap3\n      swap2\n      pop\n      pop\n      jump\t// out\n        /* \"#utility.yul\":5425:6059   */\n    tag_43:\n        /* \"#utility.yul\":5646:5650   */\n      0x00\n        /* \"#utility.yul\":5684:5686   */\n      0x40\n        /* \"#utility.yul\":5673:5682   */\n      dup3\n        /* \"#utility.yul\":5669:5687   */\n      add\n        /* \"#utility.yul\":5661:5687   */\n      swap1\n      pop\n        /* \"#utility.yul\":5733:5742   */\n      dup2\n        /* \"#utility.yul\":5727:5731   */\n      dup2\n        /* \"#utility.yul\":5723:5743   */\n      sub\n        /* \"#utility.yul\":5719:5720   */\n      0x00\n        /* \"#utility.yul\":5708:5717   */\n      dup4\n        /* \"#utility.yul\":5704:5721   */\n      add\n        /* \"#utility.yul\":5697:5744   */\n      mstore\n        /* \"#utility.yul\":5761:5869   */\n      tag_539\n        /* \"#utility.yul\":5864:5868   */\n      dup2\n        /* \"#utility.yul\":5855:5861   */\n      dup6\n        /* \"#utility.yul\":5761:5869   */\n      tag_399\n      jump\t// in\n    tag_539:\n        /* \"#utility.yul\":5753:5869   */\n      swap1\n      pop\n        /* \"#utility.yul\":5916:5925   */\n      dup2\n        /* \"#utility.yul\":5910:5914   */\n      dup2\n        /* \"#utility.yul\":5906:5926   */\n      sub\n        /* \"#utility.yul\":5901:5903   */\n      0x20\n        /* \"#utility.yul\":5890:5899   */\n      dup4\n        /* \"#utility.yul\":5886:5904   */\n      add\n        /* \"#utility.yul\":5879:5927   */\n      mstore\n        /* \"#utility.yul\":5944:6052   */\n      tag_540\n        /* \"#utility.yul\":6047:6051   */\n      dup2\n        /* \"#utility.yul\":6038:6044   */\n      dup5\n        /* \"#utility.yul\":5944:6052   */\n      tag_406\n      jump\t// in\n    tag_540:\n        /* \"#utility.yul\":5936:6052   */\n      swap1\n      pop\n        /* \"#utility.yul\":5425:6059   */\n      swap4\n      swap3\n      pop\n      pop\n      pop\n      jump\t// out\n        /* \"#utility.yul\":6065:6183   */\n    tag_407:\n        /* \"#utility.yul\":6152:6176   */\n      tag_542\n        /* \"#utility.yul\":6170:6175   */\n      dup2\n        /* \"#utility.yul\":6152:6176   */\n      tag_390\n      jump\t// in\n    tag_542:\n        /* \"#utility.yul\":6147:6150   */\n      dup3\n        /* \"#utility.yul\":6140:6177   */\n      mstore\n        /* \"#utility.yul\":6065:6183   */\n      pop\n      pop\n      jump\t// out\n        /* \"#utility.yul\":6189:6411   */\n    tag_49:\n        /* \"#utility.yul\":6282:6286   */\n      0x00\n        /* \"#utility.yul\":6320:6322   */\n      0x20\n        /* \"#utility.yul\":6309:6318   */\n      dup3\n        /* \"#utility.yul\":6305:6323   */\n      add\n        /* \"#utility.yul\":6297:6323   */\n      swap1\n      pop\n        /* \"#utility.yul\":6333:6404   */\n      tag_544\n        /* \"#utility.yul\":6401:6402   */\n      0x00\n        /* \"#utility.yul\":6390:6399   */\n      dup4\n        /* \"#utility.yul\":6386:6403   */\n      add\n        /* \"#utility.yul\":6377:6383   */\n      dup5\n        /* \"#utility.yul\":6333:6404   */\n      tag_407\n      jump\t// in\n    tag_544:\n        /* \"#utility.yul\":6189:6411   */\n      swap3\n      swap2\n      pop\n      pop\n      jump\t// out\n        /* \"#utility.yul\":6417:6891   */\n    tag_53:\n        /* \"#utility.yul\":6485:6491   */\n      0x00\n        /* \"#utility.yul\":6493:6499   */\n      dup1\n        /* \"#utility.yul\":6542:6544   */\n      0x40\n        /* \"#utility.yul\":6530:6539   */\n      dup4\n        /* \"#utility.yul\":6521:6528   */\n      dup6\n        /* \"#utility.yul\":6517:6540   */\n      sub\n        /* \"#utility.yul\":6513:6545   */\n      slt\n        /* \"#utility.yul\":6510:6629   */\n      iszero\n      tag_546\n      jumpi\n        /* \"#utility.yul\":6548:6627   */\n      tag_547\n      tag_384\n      jump\t// in\n    tag_547:\n        /* \"#utility.yul\":6510:6629   */\n    tag_546:\n        /* \"#utility.yul\":6668:6669   */\n      0x00\n        /* \"#utility.yul\":6693:6746   */\n      tag_548\n        /* \"#utility.yul\":6738:6745   */\n      dup6\n        /* \"#utility.yul\":6729:6735   */\n      dup3\n        /* \"#utility.yul\":6718:6727   */\n      dup7\n        /* \"#utility.yul\":6714:6736   */\n      add\n        /* \"#utility.yul\":6693:6746   */\n      tag_389\n      jump\t// in\n    tag_548:\n        /* \"#utility.yul\":6683:6746   */\n      swap3\n      pop\n        /* \"#utility.yul\":6639:6756   */\n      pop\n        /* \"#utility.yul\":6795:6797   */\n      0x20\n        /* \"#utility.yul\":6821:6874   */\n      tag_549\n        /* \"#utility.yul\":6866:6873   */\n      dup6\n        /* \"#utility.yul\":6857:6863   */\n      dup3\n        /* \"#utility.yul\":6846:6855   */\n      dup7\n        /* \"#utility.yul\":6842:6864   */\n      add\n        /* \"#utility.yul\":6821:6874   */\n      tag_392\n      jump\t// in\n    tag_549:\n        /* \"#utility.yul\":6811:6874   */\n      swap2\n      pop\n        /* \"#utility.yul\":6766:6884   */\n      pop\n        /* \"#utility.yul\":6417:6891   */\n      swap3\n      pop\n      swap3\n      swap1\n      pop\n      jump\t// out\n        /* \"#utility.yul\":6897:7226   */\n    tag_62:\n        /* \"#utility.yul\":6956:6962   */\n      0x00\n        /* \"#utility.yul\":7005:7007   */\n      0x20\n        /* \"#utility.yul\":6993:7002   */\n      dup3\n        /* \"#utility.yul\":6984:6991   */\n      dup5\n        /* \"#utility.yul\":6980:7003   */\n      sub\n        /* \"#utility.yul\":6976:7008   */\n      slt\n        /* \"#utility.yul\":6973:7092   */\n      iszero\n      tag_551\n      jumpi\n        /* \"#utility.yul\":7011:7090   */\n      tag_552\n      tag_384\n      jump\t// in\n    tag_552:\n        /* \"#utility.yul\":6973:7092   */\n    tag_551:\n        /* \"#utility.yul\":7131:7132   */\n      0x00\n        /* \"#utility.yul\":7156:7209   */\n      tag_553\n        /* \"#utility.yul\":7201:7208   */\n      dup5\n        /* \"#utility.yul\":7192:7198   */\n      dup3\n        /* \"#utility.yul\":7181:7190   */\n      dup6\n        /* \"#utility.yul\":7177:7199   */\n      add\n        /* \"#utility.yul\":7156:7209   */\n      tag_392\n      jump\t// in\n    tag_553:\n        /* \"#utility.yul\":7146:7209   */\n      swap2\n      pop\n        /* \"#utility.yul\":7102:7219   */\n      pop\n        /* \"#utility.yul\":6897:7226   */\n      swap3\n      swap2\n      pop\n      pop\n      jump\t// out\n        /* \"#utility.yul\":7232:7350   */\n    tag_408:\n        /* \"#utility.yul\":7319:7343   */\n      tag_555\n        /* \"#utility.yul\":7337:7342   */\n      dup2\n        /* \"#utility.yul\":7319:7343   */\n      tag_387\n      jump\t// in\n    tag_555:\n        /* \"#utility.yul\":7314:7317   */\n      dup3\n        /* \"#utility.yul\":7307:7344   */\n      mstore\n        /* \"#utility.yul\":7232:7350   */\n      pop\n      pop\n      jump\t// out\n        /* \"#utility.yul\":7356:7578   */\n    tag_65:\n        /* \"#utility.yul\":7449:7453   */\n      0x00\n        /* \"#utility.yul\":7487:7489   */\n      0x20\n        /* \"#utility.yul\":7476:7485   */\n      dup3\n        /* \"#utility.yul\":7472:7490   */\n      add\n        /* \"#utility.yul\":7464:7490   */\n      swap1\n      pop\n        /* \"#utility.yul\":7500:7571   */\n      tag_557\n        /* \"#utility.yul\":7568:7569   */\n      0x00\n        /* \"#utility.yul\":7557:7566   */\n      dup4\n        /* \"#utility.yul\":7553:7570   */\n      add\n        /* \"#utility.yul\":7544:7550   */\n      dup5\n        /* \"#utility.yul\":7500:7571   */\n      tag_408\n      jump\t// in\n    tag_557:\n        /* \"#utility.yul\":7356:7578   */\n      swap3\n      swap2\n      pop\n      pop\n      jump\t// out\n        /* \"#utility.yul\":7584:7701   */\n    tag_409:\n        /* \"#utility.yul\":7693:7694   */\n      0x00\n        /* \"#utility.yul\":7690:7691   */\n      dup1\n        /* \"#utility.yul\":7683:7695   */\n      revert\n        /* \"#utility.yul\":7707:7824   */\n    tag_410:\n        /* \"#utility.yul\":7816:7817   */\n      0x00\n        /* \"#utility.yul\":7813:7814   */\n      dup1\n        /* \"#utility.yul\":7806:7818   */\n      revert\n        /* \"#utility.yul\":7830:7947   */\n    tag_411:\n        /* \"#utility.yul\":7939:7940   */\n      0x00\n        /* \"#utility.yul\":7936:7937   */\n      dup1\n        /* \"#utility.yul\":7929:7941   */\n      revert\n        /* \"#utility.yul\":7967:8520   */\n    tag_412:\n        /* \"#utility.yul\":8025:8033   */\n      0x00\n        /* \"#utility.yul\":8035:8041   */\n      dup1\n        /* \"#utility.yul\":8085:8088   */\n      dup4\n        /* \"#utility.yul\":8078:8082   */\n      0x1f\n        /* \"#utility.yul\":8070:8076   */\n      dup5\n        /* \"#utility.yul\":8066:8083   */\n      add\n        /* \"#utility.yul\":8062:8089   */\n      slt\n        /* \"#utility.yul\":8052:8174   */\n      tag_562\n      jumpi\n        /* \"#utility.yul\":8093:8172   */\n      tag_563\n      tag_409\n      jump\t// in\n    tag_563:\n        /* \"#utility.yul\":8052:8174   */\n    tag_562:\n        /* \"#utility.yul\":8206:8212   */\n      dup3\n        /* \"#utility.yul\":8193:8213   */\n      calldataload\n        /* \"#utility.yul\":8183:8213   */\n      swap1\n      pop\n        /* \"#utility.yul\":8236:8254   */\n      0xffffffffffffffff\n        /* \"#utility.yul\":8228:8234   */\n      dup2\n        /* \"#utility.yul\":8225:8255   */\n      gt\n        /* \"#utility.yul\":8222:8339   */\n      iszero\n      tag_564\n      jumpi\n        /* \"#utility.yul\":8258:8337   */\n      tag_565\n      tag_410\n      jump\t// in\n    tag_565:\n        /* \"#utility.yul\":8222:8339   */\n    tag_564:\n        /* \"#utility.yul\":8372:8376   */\n      0x20\n        /* \"#utility.yul\":8364:8370   */\n      dup4\n        /* \"#utility.yul\":8360:8377   */\n      add\n        /* \"#utility.yul\":8348:8377   */\n      swap2\n      pop\n        /* \"#utility.yul\":8426:8429   */\n      dup4\n        /* \"#utility.yul\":8418:8422   */\n      0x01\n        /* \"#utility.yul\":8410:8416   */\n      dup3\n        /* \"#utility.yul\":8406:8423   */\n      mul\n        /* \"#utility.yul\":8396:8404   */\n      dup4\n        /* \"#utility.yul\":8392:8424   */\n      add\n        /* \"#utility.yul\":8389:8430   */\n      gt\n        /* \"#utility.yul\":8386:8514   */\n      iszero\n      tag_566\n      jumpi\n        /* \"#utility.yul\":8433:8512   */\n      tag_567\n      tag_411\n      jump\t// in\n    tag_567:\n        /* \"#utility.yul\":8386:8514   */\n    tag_566:\n        /* \"#utility.yul\":7967:8520   */\n      swap3\n      pop\n      swap3\n      swap1\n      pop\n      jump\t// out\n        /* \"#utility.yul\":8526:9055   */\n    tag_86:\n        /* \"#utility.yul\":8597:8603   */\n      0x00\n        /* \"#utility.yul\":8605:8611   */\n      dup1\n        /* \"#utility.yul\":8654:8656   */\n      0x20\n        /* \"#utility.yul\":8642:8651   */\n      dup4\n        /* \"#utility.yul\":8633:8640   */\n      dup6\n        /* \"#utility.yul\":8629:8652   */\n      sub\n        /* \"#utility.yul\":8625:8657   */\n      slt\n        /* \"#utility.yul\":8622:8741   */\n      iszero\n      tag_569\n      jumpi\n        /* \"#utility.yul\":8660:8739   */\n      tag_570\n      tag_384\n      jump\t// in\n    tag_570:\n        /* \"#utility.yul\":8622:8741   */\n    tag_569:\n        /* \"#utility.yul\":8808:8809   */\n      0x00\n        /* \"#utility.yul\":8797:8806   */\n      dup4\n        /* \"#utility.yul\":8793:8810   */\n      add\n        /* \"#utility.yul\":8780:8811   */\n      calldataload\n        /* \"#utility.yul\":8838:8856   */\n      0xffffffffffffffff\n        /* \"#utility.yul\":8830:8836   */\n      dup2\n        /* \"#utility.yul\":8827:8857   */\n      gt\n        /* \"#utility.yul\":8824:8941   */\n      iszero\n      tag_571\n      jumpi\n        /* \"#utility.yul\":8860:8939   */\n      tag_572\n      tag_385\n      jump\t// in\n    tag_572:\n        /* \"#utility.yul\":8824:8941   */\n    tag_571:\n        /* \"#utility.yul\":8973:9038   */\n      tag_573\n        /* \"#utility.yul\":9030:9037   */\n      dup6\n        /* \"#utility.yul\":9021:9027   */\n      dup3\n        /* \"#utility.yul\":9010:9019   */\n      dup7\n        /* \"#utility.yul\":9006:9028   */\n      add\n        /* \"#utility.yul\":8973:9038   */\n      tag_412\n      jump\t// in\n    tag_573:\n        /* \"#utility.yul\":8955:9038   */\n      swap3\n      pop\n      swap3\n      pop\n        /* \"#utility.yul\":8751:9048   */\n      pop\n        /* \"#utility.yul\":8526:9055   */\n      swap3\n      pop\n      swap3\n      swap1\n      pop\n      jump\t// out\n        /* \"#utility.yul\":9061:9535   */\n    tag_91:\n        /* \"#utility.yul\":9129:9135   */\n      0x00\n        /* \"#utility.yul\":9137:9143   */\n      dup1\n        /* \"#utility.yul\":9186:9188   */\n      0x40\n        /* \"#utility.yul\":9174:9183   */\n      dup4\n        /* \"#utility.yul\":9165:9172   */\n      dup6\n        /* \"#utility.yul\":9161:9184   */\n      sub\n        /* \"#utility.yul\":9157:9189   */\n      slt\n        /* \"#utility.yul\":9154:9273   */\n      iszero\n      tag_575\n      jumpi\n        /* \"#utility.yul\":9192:9271   */\n      tag_576\n      tag_384\n      jump\t// in\n    tag_576:\n        /* \"#utility.yul\":9154:9273   */\n    tag_575:\n        /* \"#utility.yul\":9312:9313   */\n      0x00\n        /* \"#utility.yul\":9337:9390   */\n      tag_577\n        /* \"#utility.yul\":9382:9389   */\n      dup6\n        /* \"#utility.yul\":9373:9379   */\n      dup3\n        /* \"#utility.yul\":9362:9371   */\n      dup7\n        /* \"#utility.yul\":9358:9380   */\n      add\n        /* \"#utility.yul\":9337:9390   */\n      tag_389\n      jump\t// in\n    tag_577:\n        /* \"#utility.yul\":9327:9390   */\n      swap3\n      pop\n        /* \"#utility.yul\":9283:9400   */\n      pop\n        /* \"#utility.yul\":9439:9441   */\n      0x20\n        /* \"#utility.yul\":9465:9518   */\n      tag_578\n        /* \"#utility.yul\":9510:9517   */\n      dup6\n        /* \"#utility.yul\":9501:9507   */\n      dup3\n        /* \"#utility.yul\":9490:9499   */\n      dup7\n        /* \"#utility.yul\":9486:9508   */\n      add\n        /* \"#utility.yul\":9465:9518   */\n      tag_389\n      jump\t// in\n    tag_578:\n        /* \"#utility.yul\":9455:9518   */\n      swap2\n      pop\n        /* \"#utility.yul\":9410:9528   */\n      pop\n        /* \"#utility.yul\":9061:9535   */\n      swap3\n      pop\n      swap3\n      swap1\n      pop\n      jump\t// out\n        /* \"#utility.yul\":9541:9640   */\n    tag_413:\n        /* \"#utility.yul\":9593:9599   */\n      0x00\n        /* \"#utility.yul\":9627:9632   */\n      dup2\n        /* \"#utility.yul\":9621:9633   */\n      mload\n        /* \"#utility.yul\":9611:9633   */\n      swap1\n      pop\n        /* \"#utility.yul\":9541:9640   */\n      swap2\n      swap1\n      pop\n      jump\t// out\n        /* \"#utility.yul\":9646:9815   */\n    tag_414:\n        /* \"#utility.yul\":9730:9741   */\n      0x00\n        /* \"#utility.yul\":9764:9770   */\n      dup3\n        /* \"#utility.yul\":9759:9762   */\n      dup3\n        /* \"#utility.yul\":9752:9771   */\n      mstore\n        /* \"#utility.yul\":9804:9808   */\n      0x20\n        /* \"#utility.yul\":9799:9802   */\n      dup3\n        /* \"#utility.yul\":9795:9809   */\n      add\n        /* \"#utility.yul\":9780:9809   */\n      swap1\n      pop\n        /* \"#utility.yul\":9646:9815   */\n      swap3\n      swap2\n      pop\n      pop\n      jump\t// out\n        /* \"#utility.yul\":9821:10067   */\n    tag_415:\n        /* \"#utility.yul\":9902:9903   */\n      0x00\n        /* \"#utility.yul\":9912:10025   */\n    tag_582:\n        /* \"#utility.yul\":9926:9932   */\n      dup4\n        /* \"#utility.yul\":9923:9924   */\n      dup2\n        /* \"#utility.yul\":9920:9933   */\n      lt\n        /* \"#utility.yul\":9912:10025   */\n      iszero\n      tag_584\n      jumpi\n        /* \"#utility.yul\":10011:10012   */\n      dup1\n        /* \"#utility.yul\":10006:10009   */\n      dup3\n        /* \"#utility.yul\":10002:10013   */\n      add\n        /* \"#utility.yul\":9996:10014   */\n      mload\n        /* \"#utility.yul\":9992:9993   */\n      dup2\n        /* \"#utility.yul\":9987:9990   */\n      dup5\n        /* \"#utility.yul\":9983:9994   */\n      add\n        /* \"#utility.yul\":9976:10015   */\n      mstore\n        /* \"#utility.yul\":9948:9950   */\n      0x20\n        /* \"#utility.yul\":9945:9946   */\n      dup2\n        /* \"#utility.yul\":9941:9951   */\n      add\n        /* \"#utility.yul\":9936:9951   */\n      swap1\n      pop\n        /* \"#utility.yul\":9912:10025   */\n      jump(tag_582)\n    tag_584:\n        /* \"#utility.yul\":10059:10060   */\n      0x00\n        /* \"#utility.yul\":10050:10056   */\n      dup5\n        /* \"#utility.yul\":10045:10048   */\n      dup5\n        /* \"#utility.yul\":10041:10057   */\n      add\n        /* \"#utility.yul\":10034:10061   */\n      mstore\n        /* \"#utility.yul\":9883:10067   */\n      pop\n        /* \"#utility.yul\":9821:10067   */\n      pop\n      pop\n      pop\n      jump\t// out\n        /* \"#utility.yul\":10073:10175   */\n    tag_416:\n        /* \"#utility.yul\":10114:10120   */\n      0x00\n        /* \"#utility.yul\":10165:10167   */\n      0x1f\n        /* \"#utility.yul\":10161:10168   */\n      not\n        /* \"#utility.yul\":10156:10158   */\n      0x1f\n        /* \"#utility.yul\":10149:10154   */\n      dup4\n        /* \"#utility.yul\":10145:10159   */\n      add\n        /* \"#utility.yul\":10141:10169   */\n      and\n        /* \"#utility.yul\":10131:10169   */\n      swap1\n      pop\n        /* \"#utility.yul\":10073:10175   */\n      swap2\n      swap1\n      pop\n      jump\t// out\n        /* \"#utility.yul\":10181:10558   */\n    tag_417:\n        /* \"#utility.yul\":10269:10272   */\n      0x00\n        /* \"#utility.yul\":10297:10336   */\n      tag_587\n        /* \"#utility.yul\":10330:10335   */\n      dup3\n        /* \"#utility.yul\":10297:10336   */\n      tag_413\n      jump\t// in\n    tag_587:\n        /* \"#utility.yul\":10352:10423   */\n      tag_588\n        /* \"#utility.yul\":10416:10422   */\n      dup2\n        /* \"#utility.yul\":10411:10414   */\n      dup6\n        /* \"#utility.yul\":10352:10423   */\n      tag_414\n      jump\t// in\n    tag_588:\n        /* \"#utility.yul\":10345:10423   */\n      swap4\n      pop\n        /* \"#utility.yul\":10432:10497   */\n      tag_589\n        /* \"#utility.yul\":10490:10496   */\n      dup2\n        /* \"#utility.yul\":10485:10488   */\n      dup6\n        /* \"#utility.yul\":10478:10482   */\n      0x20\n        /* \"#utility.yul\":10471:10476   */\n      dup7\n        /* \"#utility.yul\":10467:10483   */\n      add\n        /* \"#utility.yul\":10432:10497   */\n      tag_415\n      jump\t// in\n    tag_589:\n        /* \"#utility.yul\":10522:10551   */\n      tag_590\n        /* \"#utility.yul\":10544:10550   */\n      dup2\n        /* \"#utility.yul\":10522:10551   */\n      tag_416\n      jump\t// in\n    tag_590:\n        /* \"#utility.yul\":10517:10520   */\n      dup5\n        /* \"#utility.yul\":10513:10552   */\n      add\n        /* \"#utility.yul\":10506:10552   */\n      swap2\n      pop\n        /* \"#utility.yul\":10273:10558   */\n      pop\n        /* \"#utility.yul\":10181:10558   */\n      swap3\n      swap2\n      pop\n      pop\n      jump\t// out\n        /* \"#utility.yul\":10564:10877   */\n    tag_105:\n        /* \"#utility.yul\":10677:10681   */\n      0x00\n        /* \"#utility.yul\":10715:10717   */\n      0x20\n        /* \"#utility.yul\":10704:10713   */\n      dup3\n        /* \"#utility.yul\":10700:10718   */\n      add\n        /* \"#utility.yul\":10692:10718   */\n      swap1\n      pop\n        /* \"#utility.yul\":10764:10773   */\n      dup2\n        /* \"#utility.yul\":10758:10762   */\n      dup2\n        /* \"#utility.yul\":10754:10774   */\n      sub\n        /* \"#utility.yul\":10750:10751   */\n      0x00\n        /* \"#utility.yul\":10739:10748   */\n      dup4\n        /* \"#utility.yul\":10735:10752   */\n      add\n        /* \"#utility.yul\":10728:10775   */\n      mstore\n        /* \"#utility.yul\":10792:10870   */\n      tag_592\n        /* \"#utility.yul\":10865:10869   */\n      dup2\n        /* \"#utility.yul\":10856:10862   */\n      dup5\n        /* \"#utility.yul\":10792:10870   */\n      tag_417\n      jump\t// in\n    tag_592:\n        /* \"#utility.yul\":10784:10870   */\n      swap1\n      pop\n        /* \"#utility.yul\":10564:10877   */\n      swap3\n      swap2\n      pop\n      pop\n      jump\t// out\n        /* \"#utility.yul\":10883:11648   */\n    tag_113:\n        /* \"#utility.yul\":10969:10975   */\n      0x00\n        /* \"#utility.yul\":10977:10983   */\n      dup1\n        /* \"#utility.yul\":10985:10991   */\n      0x00\n        /* \"#utility.yul\":10993:10999   */\n      dup1\n        /* \"#utility.yul\":11042:11045   */\n      0x80\n        /* \"#utility.yul\":11030:11039   */\n      dup6\n        /* \"#utility.yul\":11021:11028   */\n      dup8\n        /* \"#utility.yul\":11017:11040   */\n      sub\n        /* \"#utility.yul\":11013:11046   */\n      slt\n        /* \"#utility.yul\":11010:11130   */\n      iszero\n      tag_594\n      jumpi\n        /* \"#utility.yul\":11049:11128   */\n      tag_595\n      tag_384\n      jump\t// in\n    tag_595:\n        /* \"#utility.yul\":11010:11130   */\n    tag_594:\n        /* \"#utility.yul\":11169:11170   */\n      0x00\n        /* \"#utility.yul\":11194:11247   */\n      tag_596\n        /* \"#utility.yul\":11239:11246   */\n      dup8\n        /* \"#utility.yul\":11230:11236   */\n      dup3\n        /* \"#utility.yul\":11219:11228   */\n      dup9\n        /* \"#utility.yul\":11215:11237   */\n      add\n        /* \"#utility.yul\":11194:11247   */\n      tag_389\n      jump\t// in\n    tag_596:\n        /* \"#utility.yul\":11184:11247   */\n      swap5\n      pop\n        /* \"#utility.yul\":11140:11257   */\n      pop\n        /* \"#utility.yul\":11296:11298   */\n      0x20\n        /* \"#utility.yul\":11322:11375   */\n      tag_597\n        /* \"#utility.yul\":11367:11374   */\n      dup8\n        /* \"#utility.yul\":11358:11364   */\n      dup3\n        /* \"#utility.yul\":11347:11356   */\n      dup9\n        /* \"#utility.yul\":11343:11365   */\n      add\n        /* \"#utility.yul\":11322:11375   */\n      tag_389\n      jump\t// in\n    tag_597:\n        /* \"#utility.yul\":11312:11375   */\n      swap4\n      pop\n        /* \"#utility.yul\":11267:11385   */\n      pop\n        /* \"#utility.yul\":11424:11426   */\n      0x40\n        /* \"#utility.yul\":11450:11503   */\n      tag_598\n        /* \"#utility.yul\":11495:11502   */\n      dup8\n        /* \"#utility.yul\":11486:11492   */\n      dup3\n        /* \"#utility.yul\":11475:11484   */\n      dup9\n        /* \"#utility.yul\":11471:11493   */\n      add\n        /* \"#utility.yul\":11450:11503   */\n      tag_392\n      jump\t// in\n    tag_598:\n        /* \"#utility.yul\":11440:11503   */\n      swap3\n      pop\n        /* \"#utility.yul\":11395:11513   */\n      pop\n        /* \"#utility.yul\":11552:11554   */\n      0x60\n        /* \"#utility.yul\":11578:11631   */\n      tag_599\n        /* \"#utility.yul\":11623:11630   */\n      dup8\n        /* \"#utility.yul\":11614:11620   */\n      dup3\n        /* \"#utility.yul\":11603:11612   */\n      dup9\n        /* \"#utility.yul\":11599:11621   */\n      add\n        /* \"#utility.yul\":11578:11631   */\n      tag_392\n      jump\t// in\n    tag_599:\n        /* \"#utility.yul\":11568:11631   */\n      swap2\n      pop\n        /* \"#utility.yul\":11523:11641   */\n      pop\n        /* \"#utility.yul\":10883:11648   */\n      swap3\n      swap6\n      swap2\n      swap5\n      pop\n      swap3\n      pop\n      jump\t// out\n        /* \"#utility.yul\":11654:11814   */\n    tag_418:\n        /* \"#utility.yul\":11794:11806   */\n      0x4f6e6c79206f776e657200000000000000000000000000000000000000000000\n        /* \"#utility.yul\":11790:11791   */\n      0x00\n        /* \"#utility.yul\":11782:11788   */\n      dup3\n        /* \"#utility.yul\":11778:11792   */\n      add\n        /* \"#utility.yul\":11771:11807   */\n      mstore\n        /* \"#utility.yul\":11654:11814   */\n      pop\n      jump\t// out\n        /* \"#utility.yul\":11820:12186   */\n    tag_419:\n        /* \"#utility.yul\":11962:11965   */\n      0x00\n        /* \"#utility.yul\":11983:12050   */\n      tag_602\n        /* \"#utility.yul\":12047:12049   */\n      0x0a\n        /* \"#utility.yul\":12042:12045   */\n      dup4\n        /* \"#utility.yul\":11983:12050   */\n      tag_414\n      jump\t// in\n    tag_602:\n        /* \"#utility.yul\":11976:12050   */\n      swap2\n      pop\n        /* \"#utility.yul\":12059:12152   */\n      tag_603\n        /* \"#utility.yul\":12148:12151   */\n      dup3\n        /* \"#utility.yul\":12059:12152   */\n      tag_418\n      jump\t// in\n    tag_603:\n        /* \"#utility.yul\":12177:12179   */\n      0x20\n        /* \"#utility.yul\":12172:12175   */\n      dup3\n        /* \"#utility.yul\":12168:12180   */\n      add\n        /* \"#utility.yul\":12161:12180   */\n      swap1\n      pop\n        /* \"#utility.yul\":11820:12186   */\n      swap2\n      swap1\n      pop\n      jump\t// out\n        /* \"#utility.yul\":12192:12611   */\n    tag_118:\n        /* \"#utility.yul\":12358:12362   */\n      0x00\n        /* \"#utility.yul\":12396:12398   */\n      0x20\n        /* \"#utility.yul\":12385:12394   */\n      dup3\n        /* \"#utility.yul\":12381:12399   */\n      add\n        /* \"#utility.yul\":12373:12399   */\n      swap1\n      pop\n        /* \"#utility.yul\":12445:12454   */\n      dup2\n        /* \"#utility.yul\":12439:12443   */\n      dup2\n        /* \"#utility.yul\":12435:12455   */\n      sub\n        /* \"#utility.yul\":12431:12432   */\n      0x00\n        /* \"#utility.yul\":12420:12429   */\n      dup4\n        /* \"#utility.yul\":12416:12433   */\n      add\n        /* \"#utility.yul\":12409:12456   */\n      mstore\n        /* \"#utility.yul\":12473:12604   */\n      tag_605\n        /* \"#utility.yul\":12599:12603   */\n      dup2\n        /* \"#utility.yul\":12473:12604   */\n      tag_419\n      jump\t// in\n    tag_605:\n        /* \"#utility.yul\":12465:12604   */\n      swap1\n      pop\n        /* \"#utility.yul\":12192:12611   */\n      swap2\n      swap1\n      pop\n      jump\t// out\n        /* \"#utility.yul\":12617:12760   */\n    tag_420:\n        /* \"#utility.yul\":12674:12679   */\n      0x00\n        /* \"#utility.yul\":12705:12711   */\n      dup2\n        /* \"#utility.yul\":12699:12712   */\n      mload\n        /* \"#utility.yul\":12690:12712   */\n      swap1\n      pop\n        /* \"#utility.yul\":12721:12754   */\n      tag_607\n        /* \"#utility.yul\":12748:12753   */\n      dup2\n        /* \"#utility.yul\":12721:12754   */\n      tag_391\n      jump\t// in\n    tag_607:\n        /* \"#utility.yul\":12617:12760   */\n      swap3\n      swap2\n      pop\n      pop\n      jump\t// out\n        /* \"#utility.yul\":12766:13117   */\n    tag_124:\n        /* \"#utility.yul\":12836:12842   */\n      0x00\n        /* \"#utility.yul\":12885:12887   */\n      0x20\n        /* \"#utility.yul\":12873:12882   */\n      dup3\n        /* \"#utility.yul\":12864:12871   */\n      dup5\n        /* \"#utility.yul\":12860:12883   */\n      sub\n        /* \"#utility.yul\":12856:12888   */\n      slt\n        /* \"#utility.yul\":12853:12972   */\n      iszero\n      tag_609\n      jumpi\n        /* \"#utility.yul\":12891:12970   */\n      tag_610\n      tag_384\n      jump\t// in\n    tag_610:\n        /* \"#utility.yul\":12853:12972   */\n    tag_609:\n        /* \"#utility.yul\":13011:13012   */\n      0x00\n        /* \"#utility.yul\":13036:13100   */\n      tag_611\n        /* \"#utility.yul\":13092:13099   */\n      dup5\n        /* \"#utility.yul\":13083:13089   */\n      dup3\n        /* \"#utility.yul\":13072:13081   */\n      dup6\n        /* \"#utility.yul\":13068:13090   */\n      add\n        /* \"#utility.yul\":13036:13100   */\n      tag_420\n      jump\t// in\n    tag_611:\n        /* \"#utility.yul\":13026:13100   */\n      swap2\n      pop\n        /* \"#utility.yul\":12982:13110   */\n      pop\n        /* \"#utility.yul\":12766:13117   */\n      swap3\n      swap2\n      pop\n      pop\n      jump\t// out\n        /* \"#utility.yul\":13123:13289   */\n    tag_421:\n        /* \"#utility.yul\":13263:13281   */\n      0x4e6f20746f6b656e2062616c616e636500000000000000000000000000000000\n        /* \"#utility.yul\":13259:13260   */\n      0x00\n        /* \"#utility.yul\":13251:13257   */\n      dup3\n        /* \"#utility.yul\":13247:13261   */\n      add\n        /* \"#utility.yul\":13240:13282   */\n      mstore\n        /* \"#utility.yul\":13123:13289   */\n      pop\n      jump\t// out\n        /* \"#utility.yul\":13295:13661   */\n    tag_422:\n        /* \"#utility.yul\":13437:13440   */\n      0x00\n        /* \"#utility.yul\":13458:13525   */\n      tag_614\n        /* \"#utility.yul\":13522:13524   */\n      0x10\n        /* \"#utility.yul\":13517:13520   */\n      dup4\n        /* \"#utility.yul\":13458:13525   */\n      tag_414\n      jump\t// in\n    tag_614:\n        /* \"#utility.yul\":13451:13525   */\n      swap2\n      pop\n        /* \"#utility.yul\":13534:13627   */\n      tag_615\n        /* \"#utility.yul\":13623:13626   */\n      dup3\n        /* \"#utility.yul\":13534:13627   */\n      tag_421\n      jump\t// in\n    tag_615:\n        /* \"#utility.yul\":13652:13654   */\n      0x20\n        /* \"#utility.yul\":13647:13650   */\n      dup3\n        /* \"#utility.yul\":13643:13655   */\n      add\n        /* \"#utility.yul\":13636:13655   */\n      swap1\n      pop\n        /* \"#utility.yul\":13295:13661   */\n      swap2\n      swap1\n      pop\n      jump\t// out\n        /* \"#utility.yul\":13667:14086   */\n    tag_127:\n        /* \"#utility.yul\":13833:13837   */\n      0x00\n        /* \"#utility.yul\":13871:13873   */\n      0x20\n        /* \"#utility.yul\":13860:13869   */\n      dup3\n        /* \"#utility.yul\":13856:13874   */\n      add\n        /* \"#utility.yul\":13848:13874   */\n      swap1\n      pop\n        /* \"#utility.yul\":13920:13929   */\n      dup2\n        /* \"#utility.yul\":13914:13918   */\n      dup2\n        /* \"#utility.yul\":13910:13930   */\n      sub\n        /* \"#utility.yul\":13906:13907   */\n      0x00\n        /* \"#utility.yul\":13895:13904   */\n      dup4\n        /* \"#utility.yul\":13891:13908   */\n      add\n        /* \"#utility.yul\":13884:13931   */\n      mstore\n        /* \"#utility.yul\":13948:14079   */\n      tag_617\n        /* \"#utility.yul\":14074:14078   */\n      dup2\n        /* \"#utility.yul\":13948:14079   */\n      tag_422\n      jump\t// in\n    tag_617:\n        /* \"#utility.yul\":13940:14079   */\n      swap1\n      pop\n        /* \"#utility.yul\":13667:14086   */\n      swap2\n      swap1\n      pop\n      jump\t// out\n        /* \"#utility.yul\":14092:14424   */\n    tag_129:\n        /* \"#utility.yul\":14213:14217   */\n      0x00\n        /* \"#utility.yul\":14251:14253   */\n      0x40\n        /* \"#utility.yul\":14240:14249   */\n      dup3\n        /* \"#utility.yul\":14236:14254   */\n      add\n        /* \"#utility.yul\":14228:14254   */\n      swap1\n      pop\n        /* \"#utility.yul\":14264:14335   */\n      tag_619\n        /* \"#utility.yul\":14332:14333   */\n      0x00\n        /* \"#utility.yul\":14321:14330   */\n      dup4\n        /* \"#utility.yul\":14317:14334   */\n      add\n        /* \"#utility.yul\":14308:14314   */\n      dup6\n        /* \"#utility.yul\":14264:14335   */\n      tag_408\n      jump\t// in\n    tag_619:\n        /* \"#utility.yul\":14345:14417   */\n      tag_620\n        /* \"#utility.yul\":14413:14415   */\n      0x20\n        /* \"#utility.yul\":14402:14411   */\n      dup4\n        /* \"#utility.yul\":14398:14416   */\n      add\n        /* \"#utility.yul\":14389:14395   */\n      dup5\n        /* \"#utility.yul\":14345:14417   */\n      tag_407\n      jump\t// in\n    tag_620:\n        /* \"#utility.yul\":14092:14424   */\n      swap4\n      swap3\n      pop\n      pop\n      pop\n      jump\t// out\n        /* \"#utility.yul\":14430:14520   */\n    tag_423:\n        /* \"#utility.yul\":14464:14471   */\n      0x00\n        /* \"#utility.yul\":14507:14512   */\n      dup2\n        /* \"#utility.yul\":14500:14513   */\n      iszero\n        /* \"#utility.yul\":14493:14514   */\n      iszero\n        /* \"#utility.yul\":14482:14514   */\n      swap1\n      pop\n        /* \"#utility.yul\":14430:14520   */\n      swap2\n      swap1\n      pop\n      jump\t// out\n        /* \"#utility.yul\":14526:14642   */\n    tag_424:\n        /* \"#utility.yul\":14596:14617   */\n      tag_623\n        /* \"#utility.yul\":14611:14616   */\n      dup2\n        /* \"#utility.yul\":14596:14617   */\n      tag_423\n      jump\t// in\n    tag_623:\n        /* \"#utility.yul\":14589:14594   */\n      dup2\n        /* \"#utility.yul\":14586:14618   */\n      eq\n        /* \"#utility.yul\":14576:14636   */\n      tag_624\n      jumpi\n        /* \"#utility.yul\":14632:14633   */\n      0x00\n        /* \"#utility.yul\":14629:14630   */\n      dup1\n        /* \"#utility.yul\":14622:14634   */\n      revert\n        /* \"#utility.yul\":14576:14636   */\n    tag_624:\n        /* \"#utility.yul\":14526:14642   */\n      pop\n      jump\t// out\n        /* \"#utility.yul\":14648:14785   */\n    tag_425:\n        /* \"#utility.yul\":14702:14707   */\n      0x00\n        /* \"#utility.yul\":14733:14739   */\n      dup2\n        /* \"#utility.yul\":14727:14740   */\n      mload\n        /* \"#utility.yul\":14718:14740   */\n      swap1\n      pop\n        /* \"#utility.yul\":14749:14779   */\n      tag_626\n        /* \"#utility.yul\":14773:14778   */\n      dup2\n        /* \"#utility.yul\":14749:14779   */\n      tag_424\n      jump\t// in\n    tag_626:\n        /* \"#utility.yul\":14648:14785   */\n      swap3\n      swap2\n      pop\n      pop\n      jump\t// out\n        /* \"#utility.yul\":14791:15136   */\n    tag_133:\n        /* \"#utility.yul\":14858:14864   */\n      0x00\n        /* \"#utility.yul\":14907:14909   */\n      0x20\n        /* \"#utility.yul\":14895:14904   */\n      dup3\n        /* \"#utility.yul\":14886:14893   */\n      dup5\n        /* \"#utility.yul\":14882:14905   */\n      sub\n        /* \"#utility.yul\":14878:14910   */\n      slt\n        /* \"#utility.yul\":14875:14994   */\n      iszero\n      tag_628\n      jumpi\n        /* \"#utility.yul\":14913:14992   */\n      tag_629\n      tag_384\n      jump\t// in\n    tag_629:\n        /* \"#utility.yul\":14875:14994   */\n    tag_628:\n        /* \"#utility.yul\":15033:15034   */\n      0x00\n        /* \"#utility.yul\":15058:15119   */\n      tag_630\n        /* \"#utility.yul\":15111:15118   */\n      dup5\n        /* \"#utility.yul\":15102:15108   */\n      dup3\n        /* \"#utility.yul\":15091:15100   */\n      dup6\n        /* \"#utility.yul\":15087:15109   */\n      add\n        /* \"#utility.yul\":15058:15119   */\n      tag_425\n      jump\t// in\n    tag_630:\n        /* \"#utility.yul\":15048:15119   */\n      swap2\n      pop\n        /* \"#utility.yul\":15004:15129   */\n      pop\n        /* \"#utility.yul\":14791:15136   */\n      swap3\n      swap2\n      pop\n      pop\n      jump\t// out\n        /* \"#utility.yul\":15142:15310   */\n    tag_426:\n        /* \"#utility.yul\":15282:15302   */\n      0x416d6f756e74206d757374206265203e20300000000000000000000000000000\n        /* \"#utility.yul\":15278:15279   */\n      0x00\n        /* \"#utility.yul\":15270:15276   */\n      dup3\n        /* \"#utility.yul\":15266:15280   */\n      add\n        /* \"#utility.yul\":15259:15303   */\n      mstore\n        /* \"#utility.yul\":15142:15310   */\n      pop\n      jump\t// out\n        /* \"#utility.yul\":15316:15682   */\n    tag_427:\n        /* \"#utility.yul\":15458:15461   */\n      0x00\n        /* \"#utility.yul\":15479:15546   */\n      tag_633\n        /* \"#utility.yul\":15543:15545   */\n      0x12\n        /* \"#utility.yul\":15538:15541   */\n      dup4\n        /* \"#utility.yul\":15479:15546   */\n      tag_414\n      jump\t// in\n    tag_633:\n        /* \"#utility.yul\":15472:15546   */\n      swap2\n      pop\n        /* \"#utility.yul\":15555:15648   */\n      tag_634\n        /* \"#utility.yul\":15644:15647   */\n      dup3\n        /* \"#utility.yul\":15555:15648   */\n      tag_426\n      jump\t// in\n    tag_634:\n        /* \"#utility.yul\":15673:15675   */\n      0x20\n        /* \"#utility.yul\":15668:15671   */\n      dup3\n        /* \"#utility.yul\":15664:15676   */\n      add\n        /* \"#utility.yul\":15657:15676   */\n      swap1\n      pop\n        /* \"#utility.yul\":15316:15682   */\n      swap2\n      swap1\n      pop\n      jump\t// out\n        /* \"#utility.yul\":15688:16107   */\n    tag_137:\n        /* \"#utility.yul\":15854:15858   */\n      0x00\n        /* \"#utility.yul\":15892:15894   */\n      0x20\n        /* \"#utility.yul\":15881:15890   */\n      dup3\n        /* \"#utility.yul\":15877:15895   */\n      add\n        /* \"#utility.yul\":15869:15895   */\n      swap1\n      pop\n        /* \"#utility.yul\":15941:15950   */\n      dup2\n        /* \"#utility.yul\":15935:15939   */\n      dup2\n        /* \"#utility.yul\":15931:15951   */\n      sub\n        /* \"#utility.yul\":15927:15928   */\n      0x00\n        /* \"#utility.yul\":15916:15925   */\n      dup4\n        /* \"#utility.yul\":15912:15929   */\n      add\n        /* \"#utility.yul\":15905:15952   */\n      mstore\n        /* \"#utility.yul\":15969:16100   */\n      tag_636\n        /* \"#utility.yul\":16095:16099   */\n      dup2\n        /* \"#utility.yul\":15969:16100   */\n      tag_427\n      jump\t// in\n    tag_636:\n        /* \"#utility.yul\":15961:16100   */\n      swap1\n      pop\n        /* \"#utility.yul\":15688:16107   */\n      swap2\n      swap1\n      pop\n      jump\t// out\n        /* \"#utility.yul\":16113:16284   */\n    tag_428:\n        /* \"#utility.yul\":16253:16276   */\n      0x496e76616c696420746f6b656e20616464726573730000000000000000000000\n        /* \"#utility.yul\":16249:16250   */\n      0x00\n        /* \"#utility.yul\":16241:16247   */\n      dup3\n        /* \"#utility.yul\":16237:16251   */\n      add\n        /* \"#utility.yul\":16230:16277   */\n      mstore\n        /* \"#utility.yul\":16113:16284   */\n      pop\n      jump\t// out\n        /* \"#utility.yul\":16290:16656   */\n    tag_429:\n        /* \"#utility.yul\":16432:16435   */\n      0x00\n        /* \"#utility.yul\":16453:16520   */\n      tag_639\n        /* \"#utility.yul\":16517:16519   */\n      0x15\n        /* \"#utility.yul\":16512:16515   */\n      dup4\n        /* \"#utility.yul\":16453:16520   */\n      tag_414\n      jump\t// in\n    tag_639:\n        /* \"#utility.yul\":16446:16520   */\n      swap2\n      pop\n        /* \"#utility.yul\":16529:16622   */\n      tag_640\n        /* \"#utility.yul\":16618:16621   */\n      dup3\n        /* \"#utility.yul\":16529:16622   */\n      tag_428\n      jump\t// in\n    tag_640:\n        /* \"#utility.yul\":16647:16649   */\n      0x20\n        /* \"#utility.yul\":16642:16645   */\n      dup3\n        /* \"#utility.yul\":16638:16650   */\n      add\n        /* \"#utility.yul\":16631:16650   */\n      swap1\n      pop\n        /* \"#utility.yul\":16290:16656   */\n      swap2\n      swap1\n      pop\n      jump\t// out\n        /* \"#utility.yul\":16662:17081   */\n    tag_141:\n        /* \"#utility.yul\":16828:16832   */\n      0x00\n        /* \"#utility.yul\":16866:16868   */\n      0x20\n        /* \"#utility.yul\":16855:16864   */\n      dup3\n        /* \"#utility.yul\":16851:16869   */\n      add\n        /* \"#utility.yul\":16843:16869   */\n      swap1\n      pop\n        /* \"#utility.yul\":16915:16924   */\n      dup2\n        /* \"#utility.yul\":16909:16913   */\n      dup2\n        /* \"#utility.yul\":16905:16925   */\n      sub\n        /* \"#utility.yul\":16901:16902   */\n      0x00\n        /* \"#utility.yul\":16890:16899   */\n      dup4\n        /* \"#utility.yul\":16886:16903   */\n      add\n        /* \"#utility.yul\":16879:16926   */\n      mstore\n        /* \"#utility.yul\":16943:17074   */\n      tag_642\n        /* \"#utility.yul\":17069:17073   */\n      dup2\n        /* \"#utility.yul\":16943:17074   */\n      tag_429\n      jump\t// in\n    tag_642:\n        /* \"#utility.yul\":16935:17074   */\n      swap1\n      pop\n        /* \"#utility.yul\":16662:17081   */\n      swap2\n      swap1\n      pop\n      jump\t// out\n        /* \"#utility.yul\":17087:17419   */\n    tag_143:\n        /* \"#utility.yul\":17208:17212   */\n      0x00\n        /* \"#utility.yul\":17246:17248   */\n      0x40\n        /* \"#utility.yul\":17235:17244   */\n      dup3\n        /* \"#utility.yul\":17231:17249   */\n      add\n        /* \"#utility.yul\":17223:17249   */\n      swap1\n      pop\n        /* \"#utility.yul\":17259:17330   */\n      tag_644\n        /* \"#utility.yul\":17327:17328   */\n      0x00\n        /* \"#utility.yul\":17316:17325   */\n      dup4\n        /* \"#utility.yul\":17312:17329   */\n      add\n        /* \"#utility.yul\":17303:17309   */\n      dup6\n        /* \"#utility.yul\":17259:17330   */\n      tag_408\n      jump\t// in\n    tag_644:\n        /* \"#utility.yul\":17340:17412   */\n      tag_645\n        /* \"#utility.yul\":17408:17410   */\n      0x20\n        /* \"#utility.yul\":17397:17406   */\n      dup4\n        /* \"#utility.yul\":17393:17411   */\n      add\n        /* \"#utility.yul\":17384:17390   */\n      dup5\n        /* \"#utility.yul\":17340:17412   */\n      tag_408\n      jump\t// in\n    tag_645:\n        /* \"#utility.yul\":17087:17419   */\n      swap4\n      swap3\n      pop\n      pop\n      pop\n      jump\t// out\n        /* \"#utility.yul\":17425:17606   */\n    tag_430:\n        /* \"#utility.yul\":17565:17598   */\n      0x4e6f7420656e6f75676820616c6c6f77616e636520666f7220546f6b656e4100\n        /* \"#utility.yul\":17561:17562   */\n      0x00\n        /* \"#utility.yul\":17553:17559   */\n      dup3\n        /* \"#utility.yul\":17549:17563   */\n      add\n        /* \"#utility.yul\":17542:17599   */\n      mstore\n        /* \"#utility.yul\":17425:17606   */\n      pop\n      jump\t// out\n        /* \"#utility.yul\":17612:17978   */\n    tag_431:\n        /* \"#utility.yul\":17754:17757   */\n      0x00\n        /* \"#utility.yul\":17775:17842   */\n      tag_648\n        /* \"#utility.yul\":17839:17841   */\n      0x1f\n        /* \"#utility.yul\":17834:17837   */\n      dup4\n        /* \"#utility.yul\":17775:17842   */\n      tag_414\n      jump\t// in\n    tag_648:\n        /* \"#utility.yul\":17768:17842   */\n      swap2\n      pop\n        /* \"#utility.yul\":17851:17944   */\n      tag_649\n        /* \"#utility.yul\":17940:17943   */\n      dup3\n        /* \"#utility.yul\":17851:17944   */\n      tag_430\n      jump\t// in\n    tag_649:\n        /* \"#utility.yul\":17969:17971   */\n      0x20\n        /* \"#utility.yul\":17964:17967   */\n      dup3\n        /* \"#utility.yul\":17960:17972   */\n      add\n        /* \"#utility.yul\":17953:17972   */\n      swap1\n      pop\n        /* \"#utility.yul\":17612:17978   */\n      swap2\n      swap1\n      pop\n      jump\t// out\n        /* \"#utility.yul\":17984:18403   */\n    tag_149:\n        /* \"#utility.yul\":18150:18154   */\n      0x00\n        /* \"#utility.yul\":18188:18190   */\n      0x20\n        /* \"#utility.yul\":18177:18186   */\n      dup3\n        /* \"#utility.yul\":18173:18191   */\n      add\n        /* \"#utility.yul\":18165:18191   */\n      swap1\n      pop\n        /* \"#utility.yul\":18237:18246   */\n      dup2\n        /* \"#utility.yul\":18231:18235   */\n      dup2\n        /* \"#utility.yul\":18227:18247   */\n      sub\n        /* \"#utility.yul\":18223:18224   */\n      0x00\n        /* \"#utility.yul\":18212:18221   */\n      dup4\n        /* \"#utility.yul\":18208:18225   */\n      add\n        /* \"#utility.yul\":18201:18248   */\n      mstore\n        /* \"#utility.yul\":18265:18396   */\n      tag_651\n        /* \"#utility.yul\":18391:18395   */\n      dup2\n        /* \"#utility.yul\":18265:18396   */\n      tag_431\n      jump\t// in\n    tag_651:\n        /* \"#utility.yul\":18257:18396   */\n      swap1\n      pop\n        /* \"#utility.yul\":17984:18403   */\n      swap2\n      swap1\n      pop\n      jump\t// out\n        /* \"#utility.yul\":18409:18851   */\n    tag_151:\n        /* \"#utility.yul\":18558:18562   */\n      0x00\n        /* \"#utility.yul\":18596:18598   */\n      0x60\n        /* \"#utility.yul\":18585:18594   */\n      dup3\n        /* \"#utility.yul\":18581:18599   */\n      add\n        /* \"#utility.yul\":18573:18599   */\n      swap1\n      pop\n        /* \"#utility.yul\":18609:18680   */\n      tag_653\n        /* \"#utility.yul\":18677:18678   */\n      0x00\n        /* \"#utility.yul\":18666:18675   */\n      dup4\n        /* \"#utility.yul\":18662:18679   */\n      add\n        /* \"#utility.yul\":18653:18659   */\n      dup7\n        /* \"#utility.yul\":18609:18680   */\n      tag_408\n      jump\t// in\n    tag_653:\n        /* \"#utility.yul\":18690:18762   */\n      tag_654\n        /* \"#utility.yul\":18758:18760   */\n      0x20\n        /* \"#utility.yul\":18747:18756   */\n      dup4\n        /* \"#utility.yul\":18743:18761   */\n      add\n        /* \"#utility.yul\":18734:18740   */\n      dup6\n        /* \"#utility.yul\":18690:18762   */\n      tag_408\n      jump\t// in\n    tag_654:\n        /* \"#utility.yul\":18772:18844   */\n      tag_655\n        /* \"#utility.yul\":18840:18842   */\n      0x40\n        /* \"#utility.yul\":18829:18838   */\n      dup4\n        /* \"#utility.yul\":18825:18843   */\n      add\n        /* \"#utility.yul\":18816:18822   */\n      dup5\n        /* \"#utility.yul\":18772:18844   */\n      tag_407\n      jump\t// in\n    tag_655:\n        /* \"#utility.yul\":18409:18851   */\n      swap5\n      swap4\n      pop\n      pop\n      pop\n      pop\n      jump\t// out\n        /* \"#utility.yul\":18857:19029   */\n    tag_432:\n        /* \"#utility.yul\":18997:19021   */\n      0x546f6b656e41207472616e73666572206661696c656400000000000000000000\n        /* \"#utility.yul\":18993:18994   */\n      0x00\n        /* \"#utility.yul\":18985:18991   */\n      dup3\n        /* \"#utility.yul\":18981:18995   */\n      add\n        /* \"#utility.yul\":18974:19022   */\n      mstore\n        /* \"#utility.yul\":18857:19029   */\n      pop\n      jump\t// out\n        /* \"#utility.yul\":19035:19401   */\n    tag_433:\n        /* \"#utility.yul\":19177:19180   */\n      0x00\n        /* \"#utility.yul\":19198:19265   */\n      tag_658\n        /* \"#utility.yul\":19262:19264   */\n      0x16\n        /* \"#utility.yul\":19257:19260   */\n      dup4\n        /* \"#utility.yul\":19198:19265   */\n      tag_414\n      jump\t// in\n    tag_658:\n        /* \"#utility.yul\":19191:19265   */\n      swap2\n      pop\n        /* \"#utility.yul\":19274:19367   */\n      tag_659\n        /* \"#utility.yul\":19363:19366   */\n      dup3\n        /* \"#utility.yul\":19274:19367   */\n      tag_432\n      jump\t// in\n    tag_659:\n        /* \"#utility.yul\":19392:19394   */\n      0x20\n        /* \"#utility.yul\":19387:19390   */\n      dup3\n        /* \"#utility.yul\":19383:19395   */\n      add\n        /* \"#utility.yul\":19376:19395   */\n      swap1\n      pop\n        /* \"#utility.yul\":19035:19401   */\n      swap2\n      swap1\n      pop\n      jump\t// out\n        /* \"#utility.yul\":19407:19826   */\n    tag_157:\n        /* \"#utility.yul\":19573:19577   */\n      0x00\n        /* \"#utility.yul\":19611:19613   */\n      0x20\n        /* \"#utility.yul\":19600:19609   */\n      dup3\n        /* \"#utility.yul\":19596:19614   */\n      add\n        /* \"#utility.yul\":19588:19614   */\n      swap1\n      pop\n        /* \"#utility.yul\":19660:19669   */\n      dup2\n        /* \"#utility.yul\":19654:19658   */\n      dup2\n        /* \"#utility.yul\":19650:19670   */\n      sub\n        /* \"#utility.yul\":19646:19647   */\n      0x00\n        /* \"#utility.yul\":19635:19644   */\n      dup4\n        /* \"#utility.yul\":19631:19648   */\n      add\n        /* \"#utility.yul\":19624:19671   */\n      mstore\n        /* \"#utility.yul\":19688:19819   */\n      tag_661\n        /* \"#utility.yul\":19814:19818   */\n      dup2\n        /* \"#utility.yul\":19688:19819   */\n      tag_433\n      jump\t// in\n    tag_661:\n        /* \"#utility.yul\":19680:19819   */\n      swap1\n      pop\n        /* \"#utility.yul\":19407:19826   */\n      swap2\n      swap1\n      pop\n      jump\t// out\n        /* \"#utility.yul\":19832:20009   */\n    tag_434:\n        /* \"#utility.yul\":19972:20001   */\n      0x4e6f7420656e6f75676820546f6b656e42206c69717569646974790000000000\n        /* \"#utility.yul\":19968:19969   */\n      0x00\n        /* \"#utility.yul\":19960:19966   */\n      dup3\n        /* \"#utility.yul\":19956:19970   */\n      add\n        /* \"#utility.yul\":19949:20002   */\n      mstore\n        /* \"#utility.yul\":19832:20009   */\n      pop\n      jump\t// out\n        /* \"#utility.yul\":20015:20381   */\n    tag_435:\n        /* \"#utility.yul\":20157:20160   */\n      0x00\n        /* \"#utility.yul\":20178:20245   */\n      tag_664\n        /* \"#utility.yul\":20242:20244   */\n      0x1b\n        /* \"#utility.yul\":20237:20240   */\n      dup4\n        /* \"#utility.yul\":20178:20245   */\n      tag_414\n      jump\t// in\n    tag_664:\n        /* \"#utility.yul\":20171:20245   */\n      swap2\n      pop\n        /* \"#utility.yul\":20254:20347   */\n      tag_665\n        /* \"#utility.yul\":20343:20346   */\n      dup3\n        /* \"#utility.yul\":20254:20347   */\n      tag_434\n      jump\t// in\n    tag_665:\n        /* \"#utility.yul\":20372:20374   */\n      0x20\n        /* \"#utility.yul\":20367:20370   */\n      dup3\n        /* \"#utility.yul\":20363:20375   */\n      add\n        /* \"#utility.yul\":20356:20375   */\n      swap1\n      pop\n        /* \"#utility.yul\":20015:20381   */\n      swap2\n      swap1\n      pop\n      jump\t// out\n        /* \"#utility.yul\":20387:20806   */\n    tag_164:\n        /* \"#utility.yul\":20553:20557   */\n      0x00\n        /* \"#utility.yul\":20591:20593   */\n      0x20\n        /* \"#utility.yul\":20580:20589   */\n      dup3\n        /* \"#utility.yul\":20576:20594   */\n      add\n        /* \"#utility.yul\":20568:20594   */\n      swap1\n      pop\n        /* \"#utility.yul\":20640:20649   */\n      dup2\n        /* \"#utility.yul\":20634:20638   */\n      dup2\n        /* \"#utility.yul\":20630:20650   */\n      sub\n        /* \"#utility.yul\":20626:20627   */\n      0x00\n        /* \"#utility.yul\":20615:20624   */\n      dup4\n        /* \"#utility.yul\":20611:20628   */\n      add\n        /* \"#utility.yul\":20604:20651   */\n      mstore\n        /* \"#utility.yul\":20668:20799   */\n      tag_667\n        /* \"#utility.yul\":20794:20798   */\n      dup2\n        /* \"#utility.yul\":20668:20799   */\n      tag_435\n      jump\t// in\n    tag_667:\n        /* \"#utility.yul\":20660:20799   */\n      swap1\n      pop\n        /* \"#utility.yul\":20387:20806   */\n      swap2\n      swap1\n      pop\n      jump\t// out\n        /* \"#utility.yul\":20812:20984   */\n    tag_436:\n        /* \"#utility.yul\":20952:20976   */\n      0x546f6b656e42207472616e73666572206661696c656400000000000000000000\n        /* \"#utility.yul\":20948:20949   */\n      0x00\n        /* \"#utility.yul\":20940:20946   */\n      dup3\n        /* \"#utility.yul\":20936:20950   */\n      add\n        /* \"#utility.yul\":20929:20977   */\n      mstore\n        /* \"#utility.yul\":20812:20984   */\n      pop\n      jump\t// out\n        /* \"#utility.yul\":20990:21356   */\n    tag_437:\n        /* \"#utility.yul\":21132:21135   */\n      0x00\n        /* \"#utility.yul\":21153:21220   */\n      tag_670\n        /* \"#utility.yul\":21217:21219   */\n      0x16\n        /* \"#utility.yul\":21212:21215   */\n      dup4\n        /* \"#utility.yul\":21153:21220   */\n      tag_414\n      jump\t// in\n    tag_670:\n        /* \"#utility.yul\":21146:21220   */\n      swap2\n      pop\n        /* \"#utility.yul\":21229:21322   */\n      tag_671\n        /* \"#utility.yul\":21318:21321   */\n      dup3\n        /* \"#utility.yul\":21229:21322   */\n      tag_436\n      jump\t// in\n    tag_671:\n        /* \"#utility.yul\":21347:21349   */\n      0x20\n        /* \"#utility.yul\":21342:21345   */\n      dup3\n        /* \"#utility.yul\":21338:21350   */\n      add\n        /* \"#utility.yul\":21331:21350   */\n      swap1\n      pop\n        /* \"#utility.yul\":20990:21356   */\n      swap2\n      swap1\n      pop\n      jump\t// out\n        /* \"#utility.yul\":21362:21781   */\n    tag_171:\n        /* \"#utility.yul\":21528:21532   */\n      0x00\n        /* \"#utility.yul\":21566:21568   */\n      0x20\n        /* \"#utility.yul\":21555:21564   */\n      dup3\n        /* \"#utility.yul\":21551:21569   */\n      add\n        /* \"#utility.yul\":21543:21569   */\n      swap1\n      pop\n        /* \"#utility.yul\":21615:21624   */\n      dup2\n        /* \"#utility.yul\":21609:21613   */\n      dup2\n        /* \"#utility.yul\":21605:21625   */\n      sub\n        /* \"#utility.yul\":21601:21602   */\n      0x00\n        /* \"#utility.yul\":21590:21599   */\n      dup4\n        /* \"#utility.yul\":21586:21603   */\n      add\n        /* \"#utility.yul\":21579:21626   */\n      mstore\n        /* \"#utility.yul\":21643:21774   */\n      tag_673\n        /* \"#utility.yul\":21769:21773   */\n      dup2\n        /* \"#utility.yul\":21643:21774   */\n      tag_437\n      jump\t// in\n    tag_673:\n        /* \"#utility.yul\":21635:21774   */\n      swap1\n      pop\n        /* \"#utility.yul\":21362:21781   */\n      swap2\n      swap1\n      pop\n      jump\t// out\n        /* \"#utility.yul\":21787:21967   */\n    tag_175:\n        /* \"#utility.yul\":21835:21912   */\n      0x4e487b7100000000000000000000000000000000000000000000000000000000\n        /* \"#utility.yul\":21832:21833   */\n      0x00\n        /* \"#utility.yul\":21825:21913   */\n      mstore\n        /* \"#utility.yul\":21932:21936   */\n      0x41\n        /* \"#utility.yul\":21929:21930   */\n      0x04\n        /* \"#utility.yul\":21922:21937   */\n      mstore\n        /* \"#utility.yul\":21956:21960   */\n      0x24\n        /* \"#utility.yul\":21953:21954   */\n      0x00\n        /* \"#utility.yul\":21946:21961   */\n      revert\n        /* \"#utility.yul\":21973:22153   */\n    tag_185:\n        /* \"#utility.yul\":22021:22098   */\n      0x4e487b7100000000000000000000000000000000000000000000000000000000\n        /* \"#utility.yul\":22018:22019   */\n      0x00\n        /* \"#utility.yul\":22011:22099   */\n      mstore\n        /* \"#utility.yul\":22118:22122   */\n      0x32\n        /* \"#utility.yul\":22115:22116   */\n      0x04\n        /* \"#utility.yul\":22108:22123   */\n      mstore\n        /* \"#utility.yul\":22142:22146   */\n      0x24\n        /* \"#utility.yul\":22139:22140   */\n      0x00\n        /* \"#utility.yul\":22132:22147   */\n      revert\n        /* \"#utility.yul\":22159:22339   */\n    tag_438:\n        /* \"#utility.yul\":22207:22284   */\n      0x4e487b7100000000000000000000000000000000000000000000000000000000\n        /* \"#utility.yul\":22204:22205   */\n      0x00\n        /* \"#utility.yul\":22197:22285   */\n      mstore\n        /* \"#utility.yul\":22304:22308   */\n      0x11\n        /* \"#utility.yul\":22301:22302   */\n      0x04\n        /* \"#utility.yul\":22294:22309   */\n      mstore\n        /* \"#utility.yul\":22328:22332   */\n      0x24\n        /* \"#utility.yul\":22325:22326   */\n      0x00\n        /* \"#utility.yul\":22318:22333   */\n      revert\n        /* \"#utility.yul\":22345:22578   */\n    tag_192:\n        /* \"#utility.yul\":22384:22387   */\n      0x00\n        /* \"#utility.yul\":22407:22431   */\n      tag_678\n        /* \"#utility.yul\":22425:22430   */\n      dup3\n        /* \"#utility.yul\":22407:22431   */\n      tag_390\n      jump\t// in\n    tag_678:\n        /* \"#utility.yul\":22398:22431   */\n      swap2\n      pop\n        /* \"#utility.yul\":22453:22519   */\n      0xffffffffffffffffffffffffffffffffffffffffffffffffffffffffffffffff\n        /* \"#utility.yul\":22446:22451   */\n      dup3\n        /* \"#utility.yul\":22443:22520   */\n      sub\n        /* \"#utility.yul\":22440:22543   */\n      tag_679\n      jumpi\n        /* \"#utility.yul\":22523:22541   */\n      tag_680\n      tag_438\n      jump\t// in\n    tag_680:\n        /* \"#utility.yul\":22440:22543   */\n    tag_679:\n        /* \"#utility.yul\":22570:22571   */\n      0x01\n        /* \"#utility.yul\":22563:22568   */\n      dup3\n        /* \"#utility.yul\":22559:22572   */\n      add\n        /* \"#utility.yul\":22552:22572   */\n      swap1\n      pop\n        /* \"#utility.yul\":22345:22578   */\n      swap2\n      swap1\n      pop\n      jump\t// out\n        /* \"#utility.yul\":22584:22670   */\n    tag_439:\n        /* \"#utility.yul\":22619:22626   */\n      0x00\n        /* \"#utility.yul\":22659:22663   */\n      0xff\n        /* \"#utility.yul\":22652:22657   */\n      dup3\n        /* \"#utility.yul\":22648:22664   */\n      and\n        /* \"#utility.yul\":22637:22664   */\n      swap1\n      pop\n        /* \"#utility.yul\":22584:22670   */\n      swap2\n      swap1\n      pop\n      jump\t// out\n        /* \"#utility.yul\":22676:22794   */\n    tag_440:\n        /* \"#utility.yul\":22747:22769   */\n      tag_683\n        /* \"#utility.yul\":22763:22768   */\n      dup2\n        /* \"#utility.yul\":22747:22769   */\n      tag_439\n      jump\t// in\n    tag_683:\n        /* \"#utility.yul\":22740:22745   */\n      dup2\n        /* \"#utility.yul\":22737:22770   */\n      eq\n        /* \"#utility.yul\":22727:22788   */\n      tag_684\n      jumpi\n        /* \"#utility.yul\":22784:22785   */\n      0x00\n        /* \"#utility.yul\":22781:22782   */\n      dup1\n        /* \"#utility.yul\":22774:22786   */\n      revert\n        /* \"#utility.yul\":22727:22788   */\n    tag_684:\n        /* \"#utility.yul\":22676:22794   */\n      pop\n      jump\t// out\n        /* \"#utility.yul\":22800:22939   */\n    tag_441:\n        /* \"#utility.yul\":22855:22860   */\n      0x00\n        /* \"#utility.yul\":22886:22892   */\n      dup2\n        /* \"#utility.yul\":22880:22893   */\n      mload\n        /* \"#utility.yul\":22871:22893   */\n      swap1\n      pop\n        /* \"#utility.yul\":22902:22933   */\n      tag_686\n        /* \"#utility.yul\":22927:22932   */\n      dup2\n        /* \"#utility.yul\":22902:22933   */\n      tag_440\n      jump\t// in\n    tag_686:\n        /* \"#utility.yul\":22800:22939   */\n      swap3\n      swap2\n      pop\n      pop\n      jump\t// out\n        /* \"#utility.yul\":22945:23292   */\n    tag_197:\n        /* \"#utility.yul\":23013:23019   */\n      0x00\n        /* \"#utility.yul\":23062:23064   */\n      0x20\n        /* \"#utility.yul\":23050:23059   */\n      dup3\n        /* \"#utility.yul\":23041:23048   */\n      dup5\n        /* \"#utility.yul\":23037:23060   */\n      sub\n        /* \"#utility.yul\":23033:23065   */\n      slt\n        /* \"#utility.yul\":23030:23149   */\n      iszero\n      tag_688\n      jumpi\n        /* \"#utility.yul\":23068:23147   */\n      tag_689\n      tag_384\n      jump\t// in\n    tag_689:\n        /* \"#utility.yul\":23030:23149   */\n    tag_688:\n        /* \"#utility.yul\":23188:23189   */\n      0x00\n        /* \"#utility.yul\":23213:23275   */\n      tag_690\n        /* \"#utility.yul\":23267:23274   */\n      dup5\n        /* \"#utility.yul\":23258:23264   */\n      dup3\n        /* \"#utility.yul\":23247:23256   */\n      dup6\n        /* \"#utility.yul\":23243:23265   */\n      add\n        /* \"#utility.yul\":23213:23275   */\n      tag_441\n      jump\t// in\n    tag_690:\n        /* \"#utility.yul\":23203:23275   */\n      swap2\n      pop\n        /* \"#utility.yul\":23159:23285   */\n      pop\n        /* \"#utility.yul\":22945:23292   */\n      swap3\n      swap2\n      pop\n      pop\n      jump\t// out\n        /* \"#utility.yul\":23298:23400   */\n    tag_442:\n        /* \"#utility.yul\":23340:23348   */\n      0x00\n        /* \"#utility.yul\":23387:23392   */\n      dup2\n        /* \"#utility.yul\":23384:23385   */\n      0x01\n        /* \"#utility.yul\":23380:23393   */\n      shr\n        /* \"#utility.yul\":23359:23393   */\n      swap1\n      pop\n        /* \"#utility.yul\":23298:23400   */\n      swap2\n      swap1\n      pop\n      jump\t// out\n        /* \"#utility.yul\":23406:24254   */\n    tag_443:\n        /* \"#utility.yul\":23467:23472   */\n      0x00\n        /* \"#utility.yul\":23474:23478   */\n      dup1\n        /* \"#utility.yul\":23498:23504   */\n      dup3\n        /* \"#utility.yul\":23489:23504   */\n      swap2\n      pop\n        /* \"#utility.yul\":23522:23527   */\n      dup4\n        /* \"#utility.yul\":23513:23527   */\n      swap1\n      pop\n        /* \"#utility.yul\":23536:24248   */\n    tag_693:\n        /* \"#utility.yul\":23557:23558   */\n      0x01\n        /* \"#utility.yul\":23547:23555   */\n      dup6\n        /* \"#utility.yul\":23544:23559   */\n      gt\n        /* \"#utility.yul\":23536:24248   */\n      iszero\n      tag_695\n      jumpi\n        /* \"#utility.yul\":23652:23656   */\n      dup1\n        /* \"#utility.yul\":23647:23650   */\n      dup7\n        /* \"#utility.yul\":23643:23657   */\n      div\n        /* \"#utility.yul\":23637:23641   */\n      dup2\n        /* \"#utility.yul\":23634:23658   */\n      gt\n        /* \"#utility.yul\":23631:23681   */\n      iszero\n      tag_696\n      jumpi\n        /* \"#utility.yul\":23661:23679   */\n      tag_697\n      tag_438\n      jump\t// in\n    tag_697:\n        /* \"#utility.yul\":23631:23681   */\n    tag_696:\n        /* \"#utility.yul\":23711:23712   */\n      0x01\n        /* \"#utility.yul\":23701:23709   */\n      dup6\n        /* \"#utility.yul\":23697:23713   */\n      and\n        /* \"#utility.yul\":23694:24145   */\n      iszero\n      tag_698\n      jumpi\n        /* \"#utility.yul\":24126:24130   */\n      dup1\n        /* \"#utility.yul\":24119:24124   */\n      dup3\n        /* \"#utility.yul\":24115:24131   */\n      mul\n        /* \"#utility.yul\":24106:24131   */\n      swap2\n      pop\n        /* \"#utility.yul\":23694:24145   */\n    tag_698:\n        /* \"#utility.yul\":24176:24180   */\n      dup1\n        /* \"#utility.yul\":24170:24174   */\n      dup2\n        /* \"#utility.yul\":24166:24181   */\n      mul\n        /* \"#utility.yul\":24158:24181   */\n      swap1\n      pop\n        /* \"#utility.yul\":24206:24238   */\n      tag_699\n        /* \"#utility.yul\":24229:24237   */\n      dup6\n        /* \"#utility.yul\":24206:24238   */\n      tag_442\n      jump\t// in\n    tag_699:\n        /* \"#utility.yul\":24194:24238   */\n      swap5\n      pop\n        /* \"#utility.yul\":23536:24248   */\n      jump(tag_693)\n    tag_695:\n        /* \"#utility.yul\":23406:24254   */\n      swap5\n      pop\n      swap5\n      swap3\n      pop\n      pop\n      pop\n      jump\t// out\n        /* \"#utility.yul\":24260:25333   */\n    tag_444:\n        /* \"#utility.yul\":24314:24319   */\n      0x00\n        /* \"#utility.yul\":24505:24513   */\n      dup3\n        /* \"#utility.yul\":24495:24535   */\n      tag_701\n      jumpi\n        /* \"#utility.yul\":24526:24527   */\n      0x01\n        /* \"#utility.yul\":24517:24527   */\n      swap1\n      pop\n        /* \"#utility.yul\":24528:24533   */\n      jump(tag_700)\n        /* \"#utility.yul\":24495:24535   */\n    tag_701:\n        /* \"#utility.yul\":24554:24558   */\n      dup2\n        /* \"#utility.yul\":24544:24580   */\n      tag_702\n      jumpi\n        /* \"#utility.yul\":24571:24572   */\n      0x00\n        /* \"#utility.yul\":24562:24572   */\n      swap1\n      pop\n        /* \"#utility.yul\":24573:24578   */\n      jump(tag_700)\n        /* \"#utility.yul\":24544:24580   */\n    tag_702:\n        /* \"#utility.yul\":24640:24644   */\n      dup2\n        /* \"#utility.yul\":24688:24689   */\n      0x01\n        /* \"#utility.yul\":24683:24710   */\n      dup2\n      eq\n      tag_704\n      jumpi\n        /* \"#utility.yul\":24724:24725   */\n      0x02\n        /* \"#utility.yul\":24719:24910   */\n      dup2\n      eq\n      tag_705\n      jumpi\n        /* \"#utility.yul\":24633:24910   */\n      jump(tag_703)\n        /* \"#utility.yul\":24683:24710   */\n    tag_704:\n        /* \"#utility.yul\":24701:24702   */\n      0x01\n        /* \"#utility.yul\":24692:24702   */\n      swap2\n      pop\n        /* \"#utility.yul\":24703:24708   */\n      pop\n      jump(tag_700)\n        /* \"#utility.yul\":24719:24910   */\n    tag_705:\n        /* \"#utility.yul\":24764:24767   */\n      0xff\n        /* \"#utility.yul\":24754:24762   */\n      dup5\n        /* \"#utility.yul\":24751:24768   */\n      gt\n        /* \"#utility.yul\":24748:24791   */\n      iszero\n      tag_706\n      jumpi\n        /* \"#utility.yul\":24771:24789   */\n      tag_707\n      tag_438\n      jump\t// in\n    tag_707:\n        /* \"#utility.yul\":24748:24791   */\n    tag_706:\n        /* \"#utility.yul\":24820:24828   */\n      dup4\n        /* \"#utility.yul\":24817:24818   */\n      0x02\n        /* \"#utility.yul\":24813:24829   */\n      exp\n        /* \"#utility.yul\":24804:24829   */\n      swap2\n      pop\n        /* \"#utility.yul\":24855:24858   */\n      dup5\n        /* \"#utility.yul\":24848:24853   */\n      dup3\n        /* \"#utility.yul\":24845:24859   */\n      gt\n        /* \"#utility.yul\":24842:24882   */\n      iszero\n      tag_708\n      jumpi\n        /* \"#utility.yul\":24862:24880   */\n      tag_709\n      tag_438\n      jump\t// in\n    tag_709:\n        /* \"#utility.yul\":24842:24882   */\n    tag_708:\n        /* \"#utility.yul\":24895:24900   */\n      pop\n      jump(tag_700)\n        /* \"#utility.yul\":24633:24910   */\n    tag_703:\n      pop\n        /* \"#utility.yul\":25019:25021   */\n      0x20\n        /* \"#utility.yul\":25009:25017   */\n      dup4\n        /* \"#utility.yul\":25006:25022   */\n      lt\n        /* \"#utility.yul\":25000:25003   */\n      0x0133\n        /* \"#utility.yul\":24994:24998   */\n      dup4\n        /* \"#utility.yul\":24991:25004   */\n      lt\n        /* \"#utility.yul\":24987:25023   */\n      and\n        /* \"#utility.yul\":24969:24971   */\n      0x4e\n        /* \"#utility.yul\":24959:24967   */\n      dup5\n        /* \"#utility.yul\":24956:24972   */\n      lt\n        /* \"#utility.yul\":24951:24953   */\n      0x0b\n        /* \"#utility.yul\":24945:24949   */\n      dup5\n        /* \"#utility.yul\":24942:24954   */\n      lt\n        /* \"#utility.yul\":24938:24973   */\n      and\n        /* \"#utility.yul\":24922:25033   */\n      or\n        /* \"#utility.yul\":24919:25165   */\n      iszero\n      tag_710\n      jumpi\n        /* \"#utility.yul\":25075:25083   */\n      dup3\n        /* \"#utility.yul\":25069:25073   */\n      dup3\n        /* \"#utility.yul\":25065:25084   */\n      exp\n        /* \"#utility.yul\":25056:25084   */\n      swap1\n      pop\n        /* \"#utility.yul\":25110:25113   */\n      dup4\n        /* \"#utility.yul\":25103:25108   */\n      dup2\n        /* \"#utility.yul\":25100:25114   */\n      gt\n        /* \"#utility.yul\":25097:25137   */\n      iszero\n      tag_711\n      jumpi\n        /* \"#utility.yul\":25117:25135   */\n      tag_712\n      tag_438\n      jump\t// in\n    tag_712:\n        /* \"#utility.yul\":25097:25137   */\n    tag_711:\n        /* \"#utility.yul\":25150:25155   */\n      jump(tag_700)\n        /* \"#utility.yul\":24919:25165   */\n    tag_710:\n        /* \"#utility.yul\":25190:25232   */\n      tag_713\n        /* \"#utility.yul\":25228:25231   */\n      dup5\n        /* \"#utility.yul\":25218:25226   */\n      dup5\n        /* \"#utility.yul\":25212:25216   */\n      dup5\n        /* \"#utility.yul\":25209:25210   */\n      0x01\n        /* \"#utility.yul\":25190:25232   */\n      tag_443\n      jump\t// in\n    tag_713:\n        /* \"#utility.yul\":25175:25232   */\n      swap3\n      pop\n      swap1\n      pop\n        /* \"#utility.yul\":25264:25268   */\n      dup2\n        /* \"#utility.yul\":25259:25262   */\n      dup5\n        /* \"#utility.yul\":25255:25269   */\n      div\n        /* \"#utility.yul\":25248:25253   */\n      dup2\n        /* \"#utility.yul\":25245:25270   */\n      gt\n        /* \"#utility.yul\":25242:25293   */\n      iszero\n      tag_714\n      jumpi\n        /* \"#utility.yul\":25273:25291   */\n      tag_715\n      tag_438\n      jump\t// in\n    tag_715:\n        /* \"#utility.yul\":25242:25293   */\n    tag_714:\n        /* \"#utility.yul\":25322:25326   */\n      dup2\n        /* \"#utility.yul\":25315:25320   */\n      dup2\n        /* \"#utility.yul\":25311:25327   */\n      mul\n        /* \"#utility.yul\":25302:25327   */\n      swap1\n      pop\n        /* \"#utility.yul\":24260:25333   */\n    tag_700:\n      swap4\n      swap3\n      pop\n      pop\n      pop\n      jump\t// out\n        /* \"#utility.yul\":25339:25620   */\n    tag_199:\n        /* \"#utility.yul\":25397:25402   */\n      0x00\n        /* \"#utility.yul\":25421:25444   */\n      tag_717\n        /* \"#utility.yul\":25439:25443   */\n      dup3\n        /* \"#utility.yul\":25421:25444   */\n      tag_390\n      jump\t// in\n    tag_717:\n        /* \"#utility.yul\":25413:25444   */\n      swap2\n      pop\n        /* \"#utility.yul\":25465:25490   */\n      tag_718\n        /* \"#utility.yul\":25481:25489   */\n      dup4\n        /* \"#utility.yul\":25465:25490   */\n      tag_439\n      jump\t// in\n    tag_718:\n        /* \"#utility.yul\":25453:25490   */\n      swap3\n      pop\n        /* \"#utility.yul\":25509:25613   */\n      tag_719\n        /* \"#utility.yul\":25546:25612   */\n      0xffffffffffffffffffffffffffffffffffffffffffffffffffffffffffffffff\n        /* \"#utility.yul\":25536:25544   */\n      dup5\n        /* \"#utility.yul\":25530:25534   */\n      dup5\n        /* \"#utility.yul\":25509:25613   */\n      tag_444\n      jump\t// in\n    tag_719:\n        /* \"#utility.yul\":25500:25613   */\n      swap1\n      pop\n        /* \"#utility.yul\":25339:25620   */\n      swap3\n      swap2\n      pop\n      pop\n      jump\t// out\n        /* \"#utility.yul\":25626:25806   */\n    tag_445:\n        /* \"#utility.yul\":25674:25751   */\n      0x4e487b7100000000000000000000000000000000000000000000000000000000\n        /* \"#utility.yul\":25671:25672   */\n      0x00\n        /* \"#utility.yul\":25664:25752   */\n      mstore\n        /* \"#utility.yul\":25771:25775   */\n      0x12\n        /* \"#utility.yul\":25768:25769   */\n      0x04\n        /* \"#utility.yul\":25761:25776   */\n      mstore\n        /* \"#utility.yul\":25795:25799   */\n      0x24\n        /* \"#utility.yul\":25792:25793   */\n      0x00\n        /* \"#utility.yul\":25785:25800   */\n      revert\n        /* \"#utility.yul\":25812:25997   */\n    tag_201:\n        /* \"#utility.yul\":25852:25853   */\n      0x00\n        /* \"#utility.yul\":25869:25889   */\n      tag_722\n        /* \"#utility.yul\":25887:25888   */\n      dup3\n        /* \"#utility.yul\":25869:25889   */\n      tag_390\n      jump\t// in\n    tag_722:\n        /* \"#utility.yul\":25864:25889   */\n      swap2\n      pop\n        /* \"#utility.yul\":25903:25923   */\n      tag_723\n        /* \"#utility.yul\":25921:25922   */\n      dup4\n        /* \"#utility.yul\":25903:25923   */\n      tag_390\n      jump\t// in\n    tag_723:\n        /* \"#utility.yul\":25898:25923   */\n      swap3\n      pop\n        /* \"#utility.yul\":25942:25943   */\n      dup3\n        /* \"#utility.yul\":25932:25967   */\n      tag_724\n      jumpi\n        /* \"#utility.yul\":25947:25965   */\n      tag_725\n      tag_445\n      jump\t// in\n    tag_725:\n        /* \"#utility.yul\":25932:25967   */\n    tag_724:\n        /* \"#utility.yul\":25989:25990   */\n      dup3\n        /* \"#utility.yul\":25986:25987   */\n      dup3\n        /* \"#utility.yul\":25982:25991   */\n      div\n        /* \"#utility.yul\":25977:25991   */\n      swap1\n      pop\n        /* \"#utility.yul\":25812:25997   */\n      swap3\n      swap2\n      pop\n      pop\n      jump\t// out\n        /* \"#utility.yul\":26003:26185   */\n    tag_446:\n        /* \"#utility.yul\":26143:26177   */\n      0x416d6f756e74206d7573742062652067726561746572207468616e207a65726f\n        /* \"#utility.yul\":26139:26140   */\n      0x00\n        /* \"#utility.yul\":26131:26137   */\n      dup3\n        /* \"#utility.yul\":26127:26141   */\n      add\n        /* \"#utility.yul\":26120:26178   */\n      mstore\n        /* \"#utility.yul\":26003:26185   */\n      pop\n      jump\t// out\n        /* \"#utility.yul\":26191:26557   */\n    tag_447:\n        /* \"#utility.yul\":26333:26336   */\n      0x00\n        /* \"#utility.yul\":26354:26421   */\n      tag_728\n        /* \"#utility.yul\":26418:26420   */\n      0x20\n        /* \"#utility.yul\":26413:26416   */\n      dup4\n        /* \"#utility.yul\":26354:26421   */\n      tag_414\n      jump\t// in\n    tag_728:\n        /* \"#utility.yul\":26347:26421   */\n      swap2\n      pop\n        /* \"#utility.yul\":26430:26523   */\n      tag_729\n        /* \"#utility.yul\":26519:26522   */\n      dup3\n        /* \"#utility.yul\":26430:26523   */\n      tag_446\n      jump\t// in\n    tag_729:\n        /* \"#utility.yul\":26548:26550   */\n      0x20\n        /* \"#utility.yul\":26543:26546   */\n      dup3\n        /* \"#utility.yul\":26539:26551   */\n      add\n        /* \"#utility.yul\":26532:26551   */\n      swap1\n      pop\n        /* \"#utility.yul\":26191:26557   */\n      swap2\n      swap1\n      pop\n      jump\t// out\n        /* \"#utility.yul\":26563:26982   */\n    tag_205:\n        /* \"#utility.yul\":26729:26733   */\n      0x00\n        /* \"#utility.yul\":26767:26769   */\n      0x20\n        /* \"#utility.yul\":26756:26765   */\n      dup3\n        /* \"#utility.yul\":26752:26770   */\n      add\n        /* \"#utility.yul\":26744:26770   */\n      swap1\n      pop\n        /* \"#utility.yul\":26816:26825   */\n      dup2\n        /* \"#utility.yul\":26810:26814   */\n      dup2\n        /* \"#utility.yul\":26806:26826   */\n      sub\n        /* \"#utility.yul\":26802:26803   */\n      0x00\n        /* \"#utility.yul\":26791:26800   */\n      dup4\n        /* \"#utility.yul\":26787:26804   */\n      add\n        /* \"#utility.yul\":26780:26827   */\n      mstore\n        /* \"#utility.yul\":26844:26975   */\n      tag_731\n        /* \"#utility.yul\":26970:26974   */\n      dup2\n        /* \"#utility.yul\":26844:26975   */\n      tag_447\n      jump\t// in\n    tag_731:\n        /* \"#utility.yul\":26836:26975   */\n      swap1\n      pop\n        /* \"#utility.yul\":26563:26982   */\n      swap2\n      swap1\n      pop\n      jump\t// out\n        /* \"#utility.yul\":26988:27158   */\n    tag_448:\n        /* \"#utility.yul\":27128:27150   */\n      0x4e6f7420656e6f75676820616c6c6f77616e6365000000000000000000000000\n        /* \"#utility.yul\":27124:27125   */\n      0x00\n        /* \"#utility.yul\":27116:27122   */\n      dup3\n        /* \"#utility.yul\":27112:27126   */\n      add\n        /* \"#utility.yul\":27105:27151   */\n      mstore\n        /* \"#utility.yul\":26988:27158   */\n      pop\n      jump\t// out\n        /* \"#utility.yul\":27164:27530   */\n    tag_449:\n        /* \"#utility.yul\":27306:27309   */\n      0x00\n        /* \"#utility.yul\":27327:27394   */\n      tag_734\n        /* \"#utility.yul\":27391:27393   */\n      0x14\n        /* \"#utility.yul\":27386:27389   */\n      dup4\n        /* \"#utility.yul\":27327:27394   */\n      tag_414\n      jump\t// in\n    tag_734:\n        /* \"#utility.yul\":27320:27394   */\n      swap2\n      pop\n        /* \"#utility.yul\":27403:27496   */\n      tag_735\n        /* \"#utility.yul\":27492:27495   */\n      dup3\n        /* \"#utility.yul\":27403:27496   */\n      tag_448\n      jump\t// in\n    tag_735:\n        /* \"#utility.yul\":27521:27523   */\n      0x20\n        /* \"#utility.yul\":27516:27519   */\n      dup3\n        /* \"#utility.yul\":27512:27524   */\n      add\n        /* \"#utility.yul\":27505:27524   */\n      swap1\n      pop\n        /* \"#utility.yul\":27164:27530   */\n      swap2\n      swap1\n      pop\n      jump\t// out\n        /* \"#utility.yul\":27536:27955   */\n    tag_214:\n        /* \"#utility.yul\":27702:27706   */\n      0x00\n        /* \"#utility.yul\":27740:27742   */\n      0x20\n        /* \"#utility.yul\":27729:27738   */\n      dup3\n        /* \"#utility.yul\":27725:27743   */\n      add\n        /* \"#utility.yul\":27717:27743   */\n      swap1\n      pop\n        /* \"#utility.yul\":27789:27798   */\n      dup2\n        /* \"#utility.yul\":27783:27787   */\n      dup2\n        /* \"#utility.yul\":27779:27799   */\n      sub\n        /* \"#utility.yul\":27775:27776   */\n      0x00\n        /* \"#utility.yul\":27764:27773   */\n      dup4\n        /* \"#utility.yul\":27760:27777   */\n      add\n        /* \"#utility.yul\":27753:27800   */\n      mstore\n        /* \"#utility.yul\":27817:27948   */\n      tag_737\n        /* \"#utility.yul\":27943:27947   */\n      dup2\n        /* \"#utility.yul\":27817:27948   */\n      tag_449\n      jump\t// in\n    tag_737:\n        /* \"#utility.yul\":27809:27948   */\n      swap1\n      pop\n        /* \"#utility.yul\":27536:27955   */\n      swap2\n      swap1\n      pop\n      jump\t// out\n        /* \"#utility.yul\":27961:28126   */\n    tag_450:\n        /* \"#utility.yul\":28101:28118   */\n      0x5472616e73666572206661696c65640000000000000000000000000000000000\n        /* \"#utility.yul\":28097:28098   */\n      0x00\n        /* \"#utility.yul\":28089:28095   */\n      dup3\n        /* \"#utility.yul\":28085:28099   */\n      add\n        /* \"#utility.yul\":28078:28119   */\n      mstore\n        /* \"#utility.yul\":27961:28126   */\n      pop\n      jump\t// out\n        /* \"#utility.yul\":28132:28498   */\n    tag_451:\n        /* \"#utility.yul\":28274:28277   */\n      0x00\n        /* \"#utility.yul\":28295:28362   */\n      tag_740\n        /* \"#utility.yul\":28359:28361   */\n      0x0f\n        /* \"#utility.yul\":28354:28357   */\n      dup4\n        /* \"#utility.yul\":28295:28362   */\n      tag_414\n      jump\t// in\n    tag_740:\n        /* \"#utility.yul\":28288:28362   */\n      swap2\n      pop\n        /* \"#utility.yul\":28371:28464   */\n      tag_741\n        /* \"#utility.yul\":28460:28463   */\n      dup3\n        /* \"#utility.yul\":28371:28464   */\n      tag_450\n      jump\t// in\n    tag_741:\n        /* \"#utility.yul\":28489:28491   */\n      0x20\n        /* \"#utility.yul\":28484:28487   */\n      dup3\n        /* \"#utility.yul\":28480:28492   */\n      add\n        /* \"#utility.yul\":28473:28492   */\n      swap1\n      pop\n        /* \"#utility.yul\":28132:28498   */\n      swap2\n      swap1\n      pop\n      jump\t// out\n        /* \"#utility.yul\":28504:28923   */\n    tag_221:\n        /* \"#utility.yul\":28670:28674   */\n      0x00\n        /* \"#utility.yul\":28708:28710   */\n      0x20\n        /* \"#utility.yul\":28697:28706   */\n      dup3\n        /* \"#utility.yul\":28693:28711   */\n      add\n        /* \"#utility.yul\":28685:28711   */\n      swap1\n      pop\n        /* \"#utility.yul\":28757:28766   */\n      dup2\n        /* \"#utility.yul\":28751:28755   */\n      dup2\n        /* \"#utility.yul\":28747:28767   */\n      sub\n        /* \"#utility.yul\":28743:28744   */\n      0x00\n        /* \"#utility.yul\":28732:28741   */\n      dup4\n        /* \"#utility.yul\":28728:28745   */\n      add\n        /* \"#utility.yul\":28721:28768   */\n      mstore\n        /* \"#utility.yul\":28785:28916   */\n      tag_743\n        /* \"#utility.yul\":28911:28915   */\n      dup2\n        /* \"#utility.yul\":28785:28916   */\n      tag_451\n      jump\t// in\n    tag_743:\n        /* \"#utility.yul\":28777:28916   */\n      swap1\n      pop\n        /* \"#utility.yul\":28504:28923   */\n      swap2\n      swap1\n      pop\n      jump\t// out\n        /* \"#utility.yul\":28929:29120   */\n    tag_223:\n        /* \"#utility.yul\":28969:28972   */\n      0x00\n        /* \"#utility.yul\":28988:29008   */\n      tag_745\n        /* \"#utility.yul\":29006:29007   */\n      dup3\n        /* \"#utility.yul\":28988:29008   */\n      tag_390\n      jump\t// in\n    tag_745:\n        /* \"#utility.yul\":28983:29008   */\n      swap2\n      pop\n        /* \"#utility.yul\":29022:29042   */\n      tag_746\n        /* \"#utility.yul\":29040:29041   */\n      dup4\n        /* \"#utility.yul\":29022:29042   */\n      tag_390\n      jump\t// in\n    tag_746:\n        /* \"#utility.yul\":29017:29042   */\n      swap3\n      pop\n        /* \"#utility.yul\":29065:29066   */\n      dup3\n        /* \"#utility.yul\":29062:29063   */\n      dup3\n        /* \"#utility.yul\":29058:29067   */\n      add\n        /* \"#utility.yul\":29051:29067   */\n      swap1\n      pop\n        /* \"#utility.yul\":29086:29089   */\n      dup1\n        /* \"#utility.yul\":29083:29084   */\n      dup3\n        /* \"#utility.yul\":29080:29090   */\n      gt\n        /* \"#utility.yul\":29077:29113   */\n      iszero\n      tag_747\n      jumpi\n        /* \"#utility.yul\":29093:29111   */\n      tag_748\n      tag_438\n      jump\t// in\n    tag_748:\n        /* \"#utility.yul\":29077:29113   */\n    tag_747:\n        /* \"#utility.yul\":28929:29120   */\n      swap3\n      swap2\n      pop\n      pop\n      jump\t// out\n        /* \"#utility.yul\":29126:29228   */\n    tag_452:\n        /* \"#utility.yul\":29188:29195   */\n      0x00\n        /* \"#utility.yul\":29217:29222   */\n      dup2\n        /* \"#utility.yul\":29206:29222   */\n      swap1\n      pop\n        /* \"#utility.yul\":29126:29228   */\n      swap2\n      swap1\n      pop\n      jump\t// out\n        /* \"#utility.yul\":29234:29294   */\n    tag_453:\n        /* \"#utility.yul\":29262:29265   */\n      0x00\n        /* \"#utility.yul\":29283:29288   */\n      dup2\n        /* \"#utility.yul\":29276:29288   */\n      swap1\n      pop\n        /* \"#utility.yul\":29234:29294   */\n      swap2\n      swap1\n      pop\n      jump\t// out\n        /* \"#utility.yul\":29300:29492   */\n    tag_454:\n        /* \"#utility.yul\":29375:29384   */\n      0x00\n        /* \"#utility.yul\":29408:29486   */\n      tag_752\n        /* \"#utility.yul\":29426:29485   */\n      tag_753\n        /* \"#utility.yul\":29435:29484   */\n      tag_754\n        /* \"#utility.yul\":29478:29483   */\n      dup5\n        /* \"#utility.yul\":29435:29484   */\n      tag_452\n      jump\t// in\n    tag_754:\n        /* \"#utility.yul\":29426:29485   */\n      tag_453\n      jump\t// in\n    tag_753:\n        /* \"#utility.yul\":29408:29486   */\n      tag_390\n      jump\t// in\n    tag_752:\n        /* \"#utility.yul\":29395:29486   */\n      swap1\n      pop\n        /* \"#utility.yul\":29300:29492   */\n      swap2\n      swap1\n      pop\n      jump\t// out\n        /* \"#utility.yul\":29498:29679   */\n    tag_455:\n        /* \"#utility.yul\":29610:29672   */\n      tag_756\n        /* \"#utility.yul\":29666:29671   */\n      dup2\n        /* \"#utility.yul\":29610:29672   */\n      tag_454\n      jump\t// in\n    tag_756:\n        /* \"#utility.yul\":29605:29608   */\n      dup3\n        /* \"#utility.yul\":29598:29673   */\n      mstore\n        /* \"#utility.yul\":29498:29679   */\n      pop\n      pop\n      jump\t// out\n        /* \"#utility.yul\":29685:30177   */\n    tag_288:\n        /* \"#utility.yul\":29859:29863   */\n      0x00\n        /* \"#utility.yul\":29897:29899   */\n      0x60\n        /* \"#utility.yul\":29886:29895   */\n      dup3\n        /* \"#utility.yul\":29882:29900   */\n      add\n        /* \"#utility.yul\":29874:29900   */\n      swap1\n      pop\n        /* \"#utility.yul\":29910:29981   */\n      tag_758\n        /* \"#utility.yul\":29978:29979   */\n      0x00\n        /* \"#utility.yul\":29967:29976   */\n      dup4\n        /* \"#utility.yul\":29963:29980   */\n      add\n        /* \"#utility.yul\":29954:29960   */\n      dup7\n        /* \"#utility.yul\":29910:29981   */\n      tag_408\n      jump\t// in\n    tag_758:\n        /* \"#utility.yul\":29991:30063   */\n      tag_759\n        /* \"#utility.yul\":30059:30061   */\n      0x20\n        /* \"#utility.yul\":30048:30057   */\n      dup4\n        /* \"#utility.yul\":30044:30062   */\n      add\n        /* \"#utility.yul\":30035:30041   */\n      dup6\n        /* \"#utility.yul\":29991:30063   */\n      tag_408\n      jump\t// in\n    tag_759:\n        /* \"#utility.yul\":30073:30170   */\n      tag_760\n        /* \"#utility.yul\":30166:30168   */\n      0x40\n        /* \"#utility.yul\":30155:30164   */\n      dup4\n        /* \"#utility.yul\":30151:30169   */\n      add\n        /* \"#utility.yul\":30142:30148   */\n      dup5\n        /* \"#utility.yul\":30073:30170   */\n      tag_455\n      jump\t// in\n    tag_760:\n        /* \"#utility.yul\":29685:30177   */\n      swap5\n      swap4\n      pop\n      pop\n      pop\n      pop\n      jump\t// out\n        /* \"#utility.yul\":30183:30565   */\n    tag_293:\n        /* \"#utility.yul\":30329:30333   */\n      0x00\n        /* \"#utility.yul\":30367:30369   */\n      0x40\n        /* \"#utility.yul\":30356:30365   */\n      dup3\n        /* \"#utility.yul\":30352:30370   */\n      add\n        /* \"#utility.yul\":30344:30370   */\n      swap1\n      pop\n        /* \"#utility.yul\":30380:30451   */\n      tag_762\n        /* \"#utility.yul\":30448:30449   */\n      0x00\n        /* \"#utility.yul\":30437:30446   */\n      dup4\n        /* \"#utility.yul\":30433:30450   */\n      add\n        /* \"#utility.yul\":30424:30430   */\n      dup6\n        /* \"#utility.yul\":30380:30451   */\n      tag_408\n      jump\t// in\n    tag_762:\n        /* \"#utility.yul\":30461:30558   */\n      tag_763\n        /* \"#utility.yul\":30554:30556   */\n      0x20\n        /* \"#utility.yul\":30543:30552   */\n      dup4\n        /* \"#utility.yul\":30539:30557   */\n      add\n        /* \"#utility.yul\":30530:30536   */\n      dup5\n        /* \"#utility.yul\":30461:30558   */\n      tag_455\n      jump\t// in\n    tag_763:\n        /* \"#utility.yul\":30183:30565   */\n      swap4\n      swap3\n      pop\n      pop\n      pop\n      jump\t// out\n        /* \"#utility.yul\":30571:30765   */\n    tag_301:\n        /* \"#utility.yul\":30611:30615   */\n      0x00\n        /* \"#utility.yul\":30631:30651   */\n      tag_765\n        /* \"#utility.yul\":30649:30650   */\n      dup3\n        /* \"#utility.yul\":30631:30651   */\n      tag_390\n      jump\t// in\n    tag_765:\n        /* \"#utility.yul\":30626:30651   */\n      swap2\n      pop\n        /* \"#utility.yul\":30665:30685   */\n      tag_766\n        /* \"#utility.yul\":30683:30684   */\n      dup4\n        /* \"#utility.yul\":30665:30685   */\n      tag_390\n      jump\t// in\n    tag_766:\n        /* \"#utility.yul\":30660:30685   */\n      swap3\n      pop\n        /* \"#utility.yul\":30709:30710   */\n      dup3\n        /* \"#utility.yul\":30706:30707   */\n      dup3\n        /* \"#utility.yul\":30702:30711   */\n      sub\n        /* \"#utility.yul\":30694:30711   */\n      swap1\n      pop\n        /* \"#utility.yul\":30733:30734   */\n      dup2\n        /* \"#utility.yul\":30727:30731   */\n      dup2\n        /* \"#utility.yul\":30724:30735   */\n      gt\n        /* \"#utility.yul\":30721:30758   */\n      iszero\n      tag_767\n      jumpi\n        /* \"#utility.yul\":30738:30756   */\n      tag_768\n      tag_438\n      jump\t// in\n    tag_768:\n        /* \"#utility.yul\":30721:30758   */\n    tag_767:\n        /* \"#utility.yul\":30571:30765   */\n      swap3\n      swap2\n      pop\n      pop\n      jump\t// out\n        /* \"#utility.yul\":30771:31424   */\n    tag_303:\n        /* \"#utility.yul\":30998:31002   */\n      0x00\n        /* \"#utility.yul\":31036:31039   */\n      0x80\n        /* \"#utility.yul\":31025:31034   */\n      dup3\n        /* \"#utility.yul\":31021:31040   */\n      add\n        /* \"#utility.yul\":31013:31040   */\n      swap1\n      pop\n        /* \"#utility.yul\":31050:31121   */\n      tag_770\n        /* \"#utility.yul\":31118:31119   */\n      0x00\n        /* \"#utility.yul\":31107:31116   */\n      dup4\n        /* \"#utility.yul\":31103:31120   */\n      add\n        /* \"#utility.yul\":31094:31100   */\n      dup8\n        /* \"#utility.yul\":31050:31121   */\n      tag_408\n      jump\t// in\n    tag_770:\n        /* \"#utility.yul\":31131:31203   */\n      tag_771\n        /* \"#utility.yul\":31199:31201   */\n      0x20\n        /* \"#utility.yul\":31188:31197   */\n      dup4\n        /* \"#utility.yul\":31184:31202   */\n      add\n        /* \"#utility.yul\":31175:31181   */\n      dup7\n        /* \"#utility.yul\":31131:31203   */\n      tag_408\n      jump\t// in\n    tag_771:\n        /* \"#utility.yul\":31213:31310   */\n      tag_772\n        /* \"#utility.yul\":31306:31308   */\n      0x40\n        /* \"#utility.yul\":31295:31304   */\n      dup4\n        /* \"#utility.yul\":31291:31309   */\n      add\n        /* \"#utility.yul\":31282:31288   */\n      dup6\n        /* \"#utility.yul\":31213:31310   */\n      tag_455\n      jump\t// in\n    tag_772:\n        /* \"#utility.yul\":31320:31417   */\n      tag_773\n        /* \"#utility.yul\":31413:31415   */\n      0x60\n        /* \"#utility.yul\":31402:31411   */\n      dup4\n        /* \"#utility.yul\":31398:31416   */\n      add\n        /* \"#utility.yul\":31389:31395   */\n      dup5\n        /* \"#utility.yul\":31320:31417   */\n      tag_455\n      jump\t// in\n    tag_773:\n        /* \"#utility.yul\":30771:31424   */\n      swap6\n      swap5\n      pop\n      pop\n      pop\n      pop\n      pop\n      jump\t// out\n        /* \"#utility.yul\":31430:31601   */\n    tag_456:\n        /* \"#utility.yul\":31570:31593   */\n      0x496e73756666696369656e74206665652073656e740000000000000000000000\n        /* \"#utility.yul\":31566:31567   */\n      0x00\n        /* \"#utility.yul\":31558:31564   */\n      dup3\n        /* \"#utility.yul\":31554:31568   */\n      add\n        /* \"#utility.yul\":31547:31594   */\n      mstore\n        /* \"#utility.yul\":31430:31601   */\n      pop\n      jump\t// out\n        /* \"#utility.yul\":31607:31973   */\n    tag_457:\n        /* \"#utility.yul\":31749:31752   */\n      0x00\n        /* \"#utility.yul\":31770:31837   */\n      tag_776\n        /* \"#utility.yul\":31834:31836   */\n      0x15\n        /* \"#utility.yul\":31829:31832   */\n      dup4\n        /* \"#utility.yul\":31770:31837   */\n      tag_414\n      jump\t// in\n    tag_776:\n        /* \"#utility.yul\":31763:31837   */\n      swap2\n      pop\n        /* \"#utility.yul\":31846:31939   */\n      tag_777\n        /* \"#utility.yul\":31935:31938   */\n      dup3\n        /* \"#utility.yul\":31846:31939   */\n      tag_456\n      jump\t// in\n    tag_777:\n        /* \"#utility.yul\":31964:31966   */\n      0x20\n        /* \"#utility.yul\":31959:31962   */\n      dup3\n        /* \"#utility.yul\":31955:31967   */\n      add\n        /* \"#utility.yul\":31948:31967   */\n      swap1\n      pop\n        /* \"#utility.yul\":31607:31973   */\n      swap2\n      swap1\n      pop\n      jump\t// out\n        /* \"#utility.yul\":31979:32398   */\n    tag_307:\n        /* \"#utility.yul\":32145:32149   */\n      0x00\n        /* \"#utility.yul\":32183:32185   */\n      0x20\n        /* \"#utility.yul\":32172:32181   */\n      dup3\n        /* \"#utility.yul\":32168:32186   */\n      add\n        /* \"#utility.yul\":32160:32186   */\n      swap1\n      pop\n        /* \"#utility.yul\":32232:32241   */\n      dup2\n        /* \"#utility.yul\":32226:32230   */\n      dup2\n        /* \"#utility.yul\":32222:32242   */\n      sub\n        /* \"#utility.yul\":32218:32219   */\n      0x00\n        /* \"#utility.yul\":32207:32216   */\n      dup4\n        /* \"#utility.yul\":32203:32220   */\n      add\n        /* \"#utility.yul\":32196:32243   */\n      mstore\n        /* \"#utility.yul\":32260:32391   */\n      tag_779\n        /* \"#utility.yul\":32386:32390   */\n      dup2\n        /* \"#utility.yul\":32260:32391   */\n      tag_457\n      jump\t// in\n    tag_779:\n        /* \"#utility.yul\":32252:32391   */\n      swap1\n      pop\n        /* \"#utility.yul\":31979:32398   */\n      swap2\n      swap1\n      pop\n      jump\t// out\n        /* \"#utility.yul\":32404:32501   */\n    tag_458:\n        /* \"#utility.yul\":32463:32469   */\n      0x00\n        /* \"#utility.yul\":32491:32494   */\n      dup3\n        /* \"#utility.yul\":32481:32494   */\n      swap1\n      pop\n        /* \"#utility.yul\":32404:32501   */\n      swap3\n      swap2\n      pop\n      pop\n      jump\t// out\n        /* \"#utility.yul\":32507:32687   */\n    tag_459:\n        /* \"#utility.yul\":32555:32632   */\n      0x4e487b7100000000000000000000000000000000000000000000000000000000\n        /* \"#utility.yul\":32552:32553   */\n      0x00\n        /* \"#utility.yul\":32545:32633   */\n      mstore\n        /* \"#utility.yul\":32652:32656   */\n      0x22\n        /* \"#utility.yul\":32649:32650   */\n      0x04\n        /* \"#utility.yul\":32642:32657   */\n      mstore\n        /* \"#utility.yul\":32676:32680   */\n      0x24\n        /* \"#utility.yul\":32673:32674   */\n      0x00\n        /* \"#utility.yul\":32666:32681   */\n      revert\n        /* \"#utility.yul\":32693:33013   */\n    tag_333:\n        /* \"#utility.yul\":32737:32743   */\n      0x00\n        /* \"#utility.yul\":32774:32775   */\n      0x02\n        /* \"#utility.yul\":32768:32772   */\n      dup3\n        /* \"#utility.yul\":32764:32776   */\n      div\n        /* \"#utility.yul\":32754:32776   */\n      swap1\n      pop\n        /* \"#utility.yul\":32821:32822   */\n      0x01\n        /* \"#utility.yul\":32815:32819   */\n      dup3\n        /* \"#utility.yul\":32811:32823   */\n      and\n        /* \"#utility.yul\":32842:32860   */\n      dup1\n        /* \"#utility.yul\":32832:32913   */\n      tag_783\n      jumpi\n        /* \"#utility.yul\":32898:32902   */\n      0x7f\n        /* \"#utility.yul\":32890:32896   */\n      dup3\n        /* \"#utility.yul\":32886:32903   */\n      and\n        /* \"#utility.yul\":32876:32903   */\n      swap2\n      pop\n        /* \"#utility.yul\":32832:32913   */\n    tag_783:\n        /* \"#utility.yul\":32960:32962   */\n      0x20\n        /* \"#utility.yul\":32952:32958   */\n      dup3\n        /* \"#utility.yul\":32949:32963   */\n      lt\n        /* \"#utility.yul\":32929:32947   */\n      dup2\n        /* \"#utility.yul\":32926:32964   */\n      sub\n        /* \"#utility.yul\":32923:33007   */\n      tag_784\n      jumpi\n        /* \"#utility.yul\":32979:32997   */\n      tag_785\n      tag_459\n      jump\t// in\n    tag_785:\n        /* \"#utility.yul\":32923:33007   */\n    tag_784:\n        /* \"#utility.yul\":32744:33013   */\n      pop\n        /* \"#utility.yul\":32693:33013   */\n      swap2\n      swap1\n      pop\n      jump\t// out\n        /* \"#utility.yul\":33019:33160   */\n    tag_460:\n        /* \"#utility.yul\":33068:33072   */\n      0x00\n        /* \"#utility.yul\":33091:33094   */\n      dup2\n        /* \"#utility.yul\":33083:33094   */\n      swap1\n      pop\n        /* \"#utility.yul\":33114:33117   */\n      dup2\n        /* \"#utility.yul\":33111:33112   */\n      0x00\n        /* \"#utility.yul\":33104:33118   */\n      mstore\n        /* \"#utility.yul\":33148:33152   */\n      0x20\n        /* \"#utility.yul\":33145:33146   */\n      0x00\n        /* \"#utility.yul\":33135:33153   */\n      keccak256\n        /* \"#utility.yul\":33127:33153   */\n      swap1\n      pop\n        /* \"#utility.yul\":33019:33160   */\n      swap2\n      swap1\n      pop\n      jump\t// out\n        /* \"#utility.yul\":33166:33259   */\n    tag_461:\n        /* \"#utility.yul\":33203:33209   */\n      0x00\n        /* \"#utility.yul\":33250:33252   */\n      0x20\n        /* \"#utility.yul\":33245:33247   */\n      0x1f\n        /* \"#utility.yul\":33238:33243   */\n      dup4\n        /* \"#utility.yul\":33234:33248   */\n      add\n        /* \"#utility.yul\":33230:33253   */\n      div\n        /* \"#utility.yul\":33220:33253   */\n      swap1\n      pop\n        /* \"#utility.yul\":33166:33259   */\n      swap2\n      swap1\n      pop\n      jump\t// out\n        /* \"#utility.yul\":33265:33372   */\n    tag_462:\n        /* \"#utility.yul\":33309:33317   */\n      0x00\n        /* \"#utility.yul\":33359:33364   */\n      dup3\n        /* \"#utility.yul\":33353:33357   */\n      dup3\n        /* \"#utility.yul\":33349:33365   */\n      shl\n        /* \"#utility.yul\":33328:33365   */\n      swap1\n      pop\n        /* \"#utility.yul\":33265:33372   */\n      swap3\n      swap2\n      pop\n      pop\n      jump\t// out\n        /* \"#utility.yul\":33378:33771   */\n    tag_463:\n        /* \"#utility.yul\":33447:33453   */\n      0x00\n        /* \"#utility.yul\":33497:33498   */\n      0x08\n        /* \"#utility.yul\":33485:33495   */\n      dup4\n        /* \"#utility.yul\":33481:33499   */\n      mul\n        /* \"#utility.yul\":33520:33617   */\n      tag_790\n        /* \"#utility.yul\":33550:33616   */\n      0xffffffffffffffffffffffffffffffffffffffffffffffffffffffffffffffff\n        /* \"#utility.yul\":33539:33548   */\n      dup3\n        /* \"#utility.yul\":33520:33617   */\n      tag_462\n      jump\t// in\n    tag_790:\n        /* \"#utility.yul\":33638:33677   */\n      tag_791\n        /* \"#utility.yul\":33668:33676   */\n      dup7\n        /* \"#utility.yul\":33657:33666   */\n      dup4\n        /* \"#utility.yul\":33638:33677   */\n      tag_462\n      jump\t// in\n    tag_791:\n        /* \"#utility.yul\":33626:33677   */\n      swap6\n      pop\n        /* \"#utility.yul\":33710:33714   */\n      dup1\n        /* \"#utility.yul\":33706:33715   */\n      not\n        /* \"#utility.yul\":33699:33704   */\n      dup5\n        /* \"#utility.yul\":33695:33716   */\n      and\n        /* \"#utility.yul\":33686:33716   */\n      swap4\n      pop\n        /* \"#utility.yul\":33759:33763   */\n      dup1\n        /* \"#utility.yul\":33749:33757   */\n      dup7\n        /* \"#utility.yul\":33745:33764   */\n      and\n        /* \"#utility.yul\":33738:33743   */\n      dup5\n        /* \"#utility.yul\":33735:33765   */\n      or\n        /* \"#utility.yul\":33725:33765   */\n      swap3\n      pop\n        /* \"#utility.yul\":33454:33771   */\n      pop\n      pop\n        /* \"#utility.yul\":33378:33771   */\n      swap4\n      swap3\n      pop\n      pop\n      pop\n      jump\t// out\n        /* \"#utility.yul\":33777:33919   */\n    tag_464:\n        /* \"#utility.yul\":33827:33836   */\n      0x00\n        /* \"#utility.yul\":33860:33913   */\n      tag_793\n        /* \"#utility.yul\":33878:33912   */\n      tag_794\n        /* \"#utility.yul\":33887:33911   */\n      tag_795\n        /* \"#utility.yul\":33905:33910   */\n      dup5\n        /* \"#utility.yul\":33887:33911   */\n      tag_390\n      jump\t// in\n    tag_795:\n        /* \"#utility.yul\":33878:33912   */\n      tag_453\n      jump\t// in\n    tag_794:\n        /* \"#utility.yul\":33860:33913   */\n      tag_390\n      jump\t// in\n    tag_793:\n        /* \"#utility.yul\":33847:33913   */\n      swap1\n      pop\n        /* \"#utility.yul\":33777:33919   */\n      swap2\n      swap1\n      pop\n      jump\t// out\n        /* \"#utility.yul\":33925:34000   */\n    tag_465:\n        /* \"#utility.yul\":33968:33971   */\n      0x00\n        /* \"#utility.yul\":33989:33994   */\n      dup2\n        /* \"#utility.yul\":33982:33994   */\n      swap1\n      pop\n        /* \"#utility.yul\":33925:34000   */\n      swap2\n      swap1\n      pop\n      jump\t// out\n        /* \"#utility.yul\":34006:34275   */\n    tag_466:\n        /* \"#utility.yul\":34116:34155   */\n      tag_798\n        /* \"#utility.yul\":34147:34154   */\n      dup4\n        /* \"#utility.yul\":34116:34155   */\n      tag_464\n      jump\t// in\n    tag_798:\n        /* \"#utility.yul\":34177:34268   */\n      tag_799\n        /* \"#utility.yul\":34226:34267   */\n      tag_800\n        /* \"#utility.yul\":34250:34266   */\n      dup3\n        /* \"#utility.yul\":34226:34267   */\n      tag_465\n      jump\t// in\n    tag_800:\n        /* \"#utility.yul\":34218:34224   */\n      dup5\n        /* \"#utility.yul\":34211:34215   */\n      dup5\n        /* \"#utility.yul\":34205:34216   */\n      sload\n        /* \"#utility.yul\":34177:34268   */\n      tag_463\n      jump\t// in\n    tag_799:\n        /* \"#utility.yul\":34171:34175   */\n      dup3\n        /* \"#utility.yul\":34164:34269   */\n      sstore\n        /* \"#utility.yul\":34082:34275   */\n      pop\n        /* \"#utility.yul\":34006:34275   */\n      pop\n      pop\n      pop\n      jump\t// out\n        /* \"#utility.yul\":34281:34354   */\n    tag_467:\n        /* \"#utility.yul\":34326:34329   */\n      0x00\n        /* \"#utility.yul\":34281:34354   */\n      swap1\n      jump\t// out\n        /* \"#utility.yul\":34360:34549   */\n    tag_468:\n        /* \"#utility.yul\":34437:34469   */\n      tag_803\n      tag_467\n      jump\t// in\n    tag_803:\n        /* \"#utility.yul\":34478:34543   */\n      tag_804\n        /* \"#utility.yul\":34536:34542   */\n      dup2\n        /* \"#utility.yul\":34528:34534   */\n      dup5\n        /* \"#utility.yul\":34522:34526   */\n      dup5\n        /* \"#utility.yul\":34478:34543   */\n      tag_466\n      jump\t// in\n    tag_804:\n        /* \"#utility.yul\":34413:34549   */\n      pop\n        /* \"#utility.yul\":34360:34549   */\n      pop\n      pop\n      jump\t// out\n        /* \"#utility.yul\":34555:34741   */\n    tag_469:\n        /* \"#utility.yul\":34615:34735   */\n    tag_806:\n        /* \"#utility.yul\":34632:34635   */\n      dup2\n        /* \"#utility.yul\":34625:34630   */\n      dup2\n        /* \"#utility.yul\":34622:34636   */\n      lt\n        /* \"#utility.yul\":34615:34735   */\n      iszero\n      tag_808\n      jumpi\n        /* \"#utility.yul\":34686:34725   */\n      tag_809\n        /* \"#utility.yul\":34723:34724   */\n      0x00\n        /* \"#utility.yul\":34716:34721   */\n      dup3\n        /* \"#utility.yul\":34686:34725   */\n      tag_468\n      jump\t// in\n    tag_809:\n        /* \"#utility.yul\":34659:34660   */\n      0x01\n        /* \"#utility.yul\":34652:34657   */\n      dup2\n        /* \"#utility.yul\":34648:34661   */\n      add\n        /* \"#utility.yul\":34639:34661   */\n      swap1\n      pop\n        /* \"#utility.yul\":34615:34735   */\n      jump(tag_806)\n    tag_808:\n        /* \"#utility.yul\":34555:34741   */\n      pop\n      pop\n      jump\t// out\n        /* \"#utility.yul\":34747:35290   */\n    tag_470:\n        /* \"#utility.yul\":34848:34850   */\n      0x1f\n        /* \"#utility.yul\":34843:34846   */\n      dup3\n        /* \"#utility.yul\":34840:34851   */\n      gt\n        /* \"#utility.yul\":34837:35283   */\n      iszero\n      tag_811\n      jumpi\n        /* \"#utility.yul\":34882:34920   */\n      tag_812\n        /* \"#utility.yul\":34914:34919   */\n      dup2\n        /* \"#utility.yul\":34882:34920   */\n      tag_460\n      jump\t// in\n    tag_812:\n        /* \"#utility.yul\":34966:34995   */\n      tag_813\n        /* \"#utility.yul\":34984:34994   */\n      dup5\n        /* \"#utility.yul\":34966:34995   */\n      tag_461\n      jump\t// in\n    tag_813:\n        /* \"#utility.yul\":34956:34964   */\n      dup2\n        /* \"#utility.yul\":34952:34996   */\n      add\n        /* \"#utility.yul\":35149:35151   */\n      0x20\n        /* \"#utility.yul\":35137:35147   */\n      dup6\n        /* \"#utility.yul\":35134:35152   */\n      lt\n        /* \"#utility.yul\":35131:35180   */\n      iszero\n      tag_814\n      jumpi\n        /* \"#utility.yul\":35170:35178   */\n      dup2\n        /* \"#utility.yul\":35155:35178   */\n      swap1\n      pop\n        /* \"#utility.yul\":35131:35180   */\n    tag_814:\n        /* \"#utility.yul\":35193:35273   */\n      tag_815\n        /* \"#utility.yul\":35249:35271   */\n      tag_816\n        /* \"#utility.yul\":35267:35270   */\n      dup6\n        /* \"#utility.yul\":35249:35271   */\n      tag_461\n      jump\t// in\n    tag_816:\n        /* \"#utility.yul\":35239:35247   */\n      dup4\n        /* \"#utility.yul\":35235:35272   */\n      add\n        /* \"#utility.yul\":35222:35233   */\n      dup3\n        /* \"#utility.yul\":35193:35273   */\n      tag_469\n      jump\t// in\n    tag_815:\n        /* \"#utility.yul\":34852:35283   */\n      pop\n      pop\n        /* \"#utility.yul\":34837:35283   */\n    tag_811:\n        /* \"#utility.yul\":34747:35290   */\n      pop\n      pop\n      pop\n      jump\t// out\n        /* \"#utility.yul\":35296:35413   */\n    tag_471:\n        /* \"#utility.yul\":35350:35358   */\n      0x00\n        /* \"#utility.yul\":35400:35405   */\n      dup3\n        /* \"#utility.yul\":35394:35398   */\n      dup3\n        /* \"#utility.yul\":35390:35406   */\n      shr\n        /* \"#utility.yul\":35369:35406   */\n      swap1\n      pop\n        /* \"#utility.yul\":35296:35413   */\n      swap3\n      swap2\n      pop\n      pop\n      jump\t// out\n        /* \"#utility.yul\":35419:35588   */\n    tag_472:\n        /* \"#utility.yul\":35463:35469   */\n      0x00\n        /* \"#utility.yul\":35496:35547   */\n      tag_819\n        /* \"#utility.yul\":35544:35545   */\n      0x00\n        /* \"#utility.yul\":35540:35546   */\n      not\n        /* \"#utility.yul\":35532:35537   */\n      dup5\n        /* \"#utility.yul\":35529:35530   */\n      0x08\n        /* \"#utility.yul\":35525:35538   */\n      mul\n        /* \"#utility.yul\":35496:35547   */\n      tag_471\n      jump\t// in\n    tag_819:\n        /* \"#utility.yul\":35492:35548   */\n      not\n        /* \"#utility.yul\":35577:35581   */\n      dup1\n        /* \"#utility.yul\":35571:35575   */\n      dup4\n        /* \"#utility.yul\":35567:35582   */\n      and\n        /* \"#utility.yul\":35557:35582   */\n      swap2\n      pop\n        /* \"#utility.yul\":35470:35588   */\n      pop\n        /* \"#utility.yul\":35419:35588   */\n      swap3\n      swap2\n      pop\n      pop\n      jump\t// out\n        /* \"#utility.yul\":35593:35888   */\n    tag_473:\n        /* \"#utility.yul\":35669:35673   */\n      0x00\n        /* \"#utility.yul\":35815:35844   */\n      tag_821\n        /* \"#utility.yul\":35840:35843   */\n      dup4\n        /* \"#utility.yul\":35834:35838   */\n      dup4\n        /* \"#utility.yul\":35815:35844   */\n      tag_472\n      jump\t// in\n    tag_821:\n        /* \"#utility.yul\":35807:35844   */\n      swap2\n      pop\n        /* \"#utility.yul\":35877:35880   */\n      dup3\n        /* \"#utility.yul\":35874:35875   */\n      0x02\n        /* \"#utility.yul\":35870:35881   */\n      mul\n        /* \"#utility.yul\":35864:35868   */\n      dup3\n        /* \"#utility.yul\":35861:35882   */\n      or\n        /* \"#utility.yul\":35853:35882   */\n      swap1\n      pop\n        /* \"#utility.yul\":35593:35888   */\n      swap3\n      swap2\n      pop\n      pop\n      jump\t// out\n        /* \"#utility.yul\":35893:37296   */\n    tag_309:\n        /* \"#utility.yul\":36017:36061   */\n      tag_823\n        /* \"#utility.yul\":36057:36060   */\n      dup4\n        /* \"#utility.yul\":36052:36055   */\n      dup4\n        /* \"#utility.yul\":36017:36061   */\n      tag_458\n      jump\t// in\n    tag_823:\n        /* \"#utility.yul\":36126:36144   */\n      0xffffffffffffffff\n        /* \"#utility.yul\":36118:36124   */\n      dup2\n        /* \"#utility.yul\":36115:36145   */\n      gt\n        /* \"#utility.yul\":36112:36168   */\n      iszero\n      tag_824\n      jumpi\n        /* \"#utility.yul\":36148:36166   */\n      tag_825\n      tag_175\n      jump\t// in\n    tag_825:\n        /* \"#utility.yul\":36112:36168   */\n    tag_824:\n        /* \"#utility.yul\":36192:36230   */\n      tag_826\n        /* \"#utility.yul\":36224:36228   */\n      dup3\n        /* \"#utility.yul\":36218:36229   */\n      sload\n        /* \"#utility.yul\":36192:36230   */\n      tag_333\n      jump\t// in\n    tag_826:\n        /* \"#utility.yul\":36277:36344   */\n      tag_827\n        /* \"#utility.yul\":36337:36343   */\n      dup3\n        /* \"#utility.yul\":36329:36335   */\n      dup3\n        /* \"#utility.yul\":36323:36327   */\n      dup6\n        /* \"#utility.yul\":36277:36344   */\n      tag_470\n      jump\t// in\n    tag_827:\n        /* \"#utility.yul\":36371:36372   */\n      0x00\n        /* \"#utility.yul\":36400:36402   */\n      0x1f\n        /* \"#utility.yul\":36392:36398   */\n      dup4\n        /* \"#utility.yul\":36389:36403   */\n      gt\n        /* \"#utility.yul\":36417:36418   */\n      0x01\n        /* \"#utility.yul\":36412:37044   */\n      dup2\n      eq\n      tag_829\n      jumpi\n        /* \"#utility.yul\":37088:37089   */\n      0x00\n        /* \"#utility.yul\":37105:37111   */\n      dup5\n        /* \"#utility.yul\":37102:37186   */\n      iszero\n      tag_830\n      jumpi\n        /* \"#utility.yul\":37161:37170   */\n      dup3\n        /* \"#utility.yul\":37156:37159   */\n      dup8\n        /* \"#utility.yul\":37152:37171   */\n      add\n        /* \"#utility.yul\":37139:37172   */\n      calldataload\n        /* \"#utility.yul\":37130:37172   */\n      swap1\n      pop\n        /* \"#utility.yul\":37102:37186   */\n    tag_830:\n        /* \"#utility.yul\":37212:37279   */\n      tag_831\n        /* \"#utility.yul\":37272:37278   */\n      dup6\n        /* \"#utility.yul\":37265:37270   */\n      dup3\n        /* \"#utility.yul\":37212:37279   */\n      tag_473\n      jump\t// in\n    tag_831:\n        /* \"#utility.yul\":37206:37210   */\n      dup7\n        /* \"#utility.yul\":37199:37280   */\n      sstore\n        /* \"#utility.yul\":37061:37290   */\n      pop\n        /* \"#utility.yul\":36382:37290   */\n      jump(tag_828)\n        /* \"#utility.yul\":36412:37044   */\n    tag_829:\n        /* \"#utility.yul\":36464:36468   */\n      0x1f\n        /* \"#utility.yul\":36460:36469   */\n      not\n        /* \"#utility.yul\":36452:36458   */\n      dup5\n        /* \"#utility.yul\":36448:36470   */\n      and\n        /* \"#utility.yul\":36498:36535   */\n      tag_832\n        /* \"#utility.yul\":36530:36534   */\n      dup7\n        /* \"#utility.yul\":36498:36535   */\n      tag_460\n      jump\t// in\n    tag_832:\n        /* \"#utility.yul\":36557:36558   */\n      0x00\n        /* \"#utility.yul\":36571:36786   */\n    tag_833:\n        /* \"#utility.yul\":36585:36592   */\n      dup3\n        /* \"#utility.yul\":36582:36583   */\n      dup2\n        /* \"#utility.yul\":36579:36593   */\n      lt\n        /* \"#utility.yul\":36571:36786   */\n      iszero\n      tag_835\n      jumpi\n        /* \"#utility.yul\":36671:36680   */\n      dup5\n        /* \"#utility.yul\":36666:36669   */\n      dup10\n        /* \"#utility.yul\":36662:36681   */\n      add\n        /* \"#utility.yul\":36649:36682   */\n      calldataload\n        /* \"#utility.yul\":36641:36647   */\n      dup3\n        /* \"#utility.yul\":36634:36683   */\n      sstore\n        /* \"#utility.yul\":36722:36723   */\n      0x01\n        /* \"#utility.yul\":36714:36720   */\n      dup3\n        /* \"#utility.yul\":36710:36724   */\n      add\n        /* \"#utility.yul\":36700:36724   */\n      swap2\n      pop\n        /* \"#utility.yul\":36769:36771   */\n      0x20\n        /* \"#utility.yul\":36758:36767   */\n      dup6\n        /* \"#utility.yul\":36754:36772   */\n      add\n        /* \"#utility.yul\":36741:36772   */\n      swap5\n      pop\n        /* \"#utility.yul\":36608:36612   */\n      0x20\n        /* \"#utility.yul\":36605:36606   */\n      dup2\n        /* \"#utility.yul\":36601:36613   */\n      add\n        /* \"#utility.yul\":36596:36613   */\n      swap1\n      pop\n        /* \"#utility.yul\":36571:36786   */\n      jump(tag_833)\n    tag_835:\n        /* \"#utility.yul\":36814:36820   */\n      dup7\n        /* \"#utility.yul\":36805:36812   */\n      dup4\n        /* \"#utility.yul\":36802:36821   */\n      lt\n        /* \"#utility.yul\":36799:36985   */\n      iszero\n      tag_836\n      jumpi\n        /* \"#utility.yul\":36879:36888   */\n      dup5\n        /* \"#utility.yul\":36874:36877   */\n      dup10\n        /* \"#utility.yul\":36870:36889   */\n      add\n        /* \"#utility.yul\":36857:36890   */\n      calldataload\n        /* \"#utility.yul\":36922:36970   */\n      tag_837\n        /* \"#utility.yul\":36964:36968   */\n      0x1f\n        /* \"#utility.yul\":36956:36962   */\n      dup10\n        /* \"#utility.yul\":36952:36969   */\n      and\n        /* \"#utility.yul\":36941:36950   */\n      dup3\n        /* \"#utility.yul\":36922:36970   */\n      tag_472\n      jump\t// in\n    tag_837:\n        /* \"#utility.yul\":36914:36920   */\n      dup4\n        /* \"#utility.yul\":36907:36971   */\n      sstore\n        /* \"#utility.yul\":36822:36985   */\n      pop\n        /* \"#utility.yul\":36799:36985   */\n    tag_836:\n        /* \"#utility.yul\":37031:37032   */\n      0x01\n        /* \"#utility.yul\":37027:37028   */\n      0x02\n        /* \"#utility.yul\":37019:37025   */\n      dup9\n        /* \"#utility.yul\":37015:37029   */\n      mul\n        /* \"#utility.yul\":37011:37033   */\n      add\n        /* \"#utility.yul\":37005:37009   */\n      dup9\n        /* \"#utility.yul\":36998:37034   */\n      sstore\n        /* \"#utility.yul\":36419:37044   */\n      pop\n      pop\n      pop\n        /* \"#utility.yul\":36382:37290   */\n    tag_828:\n      pop\n        /* \"#utility.yul\":35992:37296   */\n      pop\n      pop\n      pop\n        /* \"#utility.yul\":35893:37296   */\n      pop\n      pop\n      pop\n      jump\t// out\n        /* \"#utility.yul\":37302:37712   */\n    tag_357:\n        /* \"#utility.yul\":37342:37349   */\n      0x00\n        /* \"#utility.yul\":37365:37385   */\n      tag_839\n        /* \"#utility.yul\":37383:37384   */\n      dup3\n        /* \"#utility.yul\":37365:37385   */\n      tag_390\n      jump\t// in\n    tag_839:\n        /* \"#utility.yul\":37360:37385   */\n      swap2\n      pop\n        /* \"#utility.yul\":37399:37419   */\n      tag_840\n        /* \"#utility.yul\":37417:37418   */\n      dup4\n        /* \"#utility.yul\":37399:37419   */\n      tag_390\n      jump\t// in\n    tag_840:\n        /* \"#utility.yul\":37394:37419   */\n      swap3\n      pop\n        /* \"#utility.yul\":37454:37455   */\n      dup3\n        /* \"#utility.yul\":37451:37452   */\n      dup3\n        /* \"#utility.yul\":37447:37456   */\n      mul\n        /* \"#utility.yul\":37476:37506   */\n      tag_841\n        /* \"#utility.yul\":37494:37505   */\n      dup2\n        /* \"#utility.yul\":37476:37506   */\n      tag_390\n      jump\t// in\n    tag_841:\n        /* \"#utility.yul\":37465:37506   */\n      swap2\n      pop\n        /* \"#utility.yul\":37655:37656   */\n      dup3\n        /* \"#utility.yul\":37646:37653   */\n      dup3\n        /* \"#utility.yul\":37642:37657   */\n      div\n        /* \"#utility.yul\":37639:37640   */\n      dup5\n        /* \"#utility.yul\":37636:37658   */\n      eq\n        /* \"#utility.yul\":37616:37617   */\n      dup4\n        /* \"#utility.yul\":37609:37618   */\n      iszero\n        /* \"#utility.yul\":37589:37672   */\n      or\n        /* \"#utility.yul\":37566:37705   */\n      tag_842\n      jumpi\n        /* \"#utility.yul\":37685:37703   */\n      tag_843\n      tag_438\n      jump\t// in\n    tag_843:\n        /* \"#utility.yul\":37566:37705   */\n    tag_842:\n        /* \"#utility.yul\":37350:37712   */\n      pop\n        /* \"#utility.yul\":37302:37712   */\n      swap3\n      swap2\n      pop\n      pop\n      jump\t// out\n        /* \"#utility.yul\":37718:37893   */\n    tag_474:\n        /* \"#utility.yul\":37858:37885   */\n      0x4e6f7420656e6f75676820746f6b656e4220696e20706f6f6c00000000000000\n        /* \"#utility.yul\":37854:37855   */\n      0x00\n        /* \"#utility.yul\":37846:37852   */\n      dup3\n        /* \"#utility.yul\":37842:37856   */\n      add\n        /* \"#utility.yul\":37835:37886   */\n      mstore\n        /* \"#utility.yul\":37718:37893   */\n      pop\n      jump\t// out\n        /* \"#utility.yul\":37899:38265   */\n    tag_475:\n        /* \"#utility.yul\":38041:38044   */\n      0x00\n        /* \"#utility.yul\":38062:38129   */\n      tag_846\n        /* \"#utility.yul\":38126:38128   */\n      0x19\n        /* \"#utility.yul\":38121:38124   */\n      dup4\n        /* \"#utility.yul\":38062:38129   */\n      tag_414\n      jump\t// in\n    tag_846:\n        /* \"#utility.yul\":38055:38129   */\n      swap2\n      pop\n        /* \"#utility.yul\":38138:38231   */\n      tag_847\n        /* \"#utility.yul\":38227:38230   */\n      dup3\n        /* \"#utility.yul\":38138:38231   */\n      tag_474\n      jump\t// in\n    tag_847:\n        /* \"#utility.yul\":38256:38258   */\n      0x20\n        /* \"#utility.yul\":38251:38254   */\n      dup3\n        /* \"#utility.yul\":38247:38259   */\n      add\n        /* \"#utility.yul\":38240:38259   */\n      swap1\n      pop\n        /* \"#utility.yul\":37899:38265   */\n      swap2\n      swap1\n      pop\n      jump\t// out\n        /* \"#utility.yul\":38271:38690   */\n    tag_365:\n        /* \"#utility.yul\":38437:38441   */\n      0x00\n        /* \"#utility.yul\":38475:38477   */\n      0x20\n        /* \"#utility.yul\":38464:38473   */\n      dup3\n        /* \"#utility.yul\":38460:38478   */\n      add\n        /* \"#utility.yul\":38452:38478   */\n      swap1\n      pop\n        /* \"#utility.yul\":38524:38533   */\n      dup2\n        /* \"#utility.yul\":38518:38522   */\n      dup2\n        /* \"#utility.yul\":38514:38534   */\n      sub\n        /* \"#utility.yul\":38510:38511   */\n      0x00\n        /* \"#utility.yul\":38499:38508   */\n      dup4\n        /* \"#utility.yul\":38495:38512   */\n      add\n        /* \"#utility.yul\":38488:38535   */\n      mstore\n        /* \"#utility.yul\":38552:38683   */\n      tag_849\n        /* \"#utility.yul\":38678:38682   */\n      dup2\n        /* \"#utility.yul\":38552:38683   */\n      tag_475\n      jump\t// in\n    tag_849:\n        /* \"#utility.yul\":38544:38683   */\n      swap1\n      pop\n        /* \"#utility.yul\":38271:38690   */\n      swap2\n      swap1\n      pop\n      jump\t// out\n        /* \"#utility.yul\":38696:39299   */\n    tag_375:\n        /* \"#utility.yul\":38898:38902   */\n      0x00\n        /* \"#utility.yul\":38936:38939   */\n      0x80\n        /* \"#utility.yul\":38925:38934   */\n      dup3\n        /* \"#utility.yul\":38921:38940   */\n      add\n        /* \"#utility.yul\":38913:38940   */\n      swap1\n      pop\n        /* \"#utility.yul\":38950:39021   */\n      tag_851\n        /* \"#utility.yul\":39018:39019   */\n      0x00\n        /* \"#utility.yul\":39007:39016   */\n      dup4\n        /* \"#utility.yul\":39003:39020   */\n      add\n        /* \"#utility.yul\":38994:39000   */\n      dup8\n        /* \"#utility.yul\":38950:39021   */\n      tag_408\n      jump\t// in\n    tag_851:\n        /* \"#utility.yul\":39031:39103   */\n      tag_852\n        /* \"#utility.yul\":39099:39101   */\n      0x20\n        /* \"#utility.yul\":39088:39097   */\n      dup4\n        /* \"#utility.yul\":39084:39102   */\n      add\n        /* \"#utility.yul\":39075:39081   */\n      dup7\n        /* \"#utility.yul\":39031:39103   */\n      tag_408\n      jump\t// in\n    tag_852:\n        /* \"#utility.yul\":39113:39185   */\n      tag_853\n        /* \"#utility.yul\":39181:39183   */\n      0x40\n        /* \"#utility.yul\":39170:39179   */\n      dup4\n        /* \"#utility.yul\":39166:39184   */\n      add\n        /* \"#utility.yul\":39157:39163   */\n      dup6\n        /* \"#utility.yul\":39113:39185   */\n      tag_407\n      jump\t// in\n    tag_853:\n        /* \"#utility.yul\":39195:39292   */\n      tag_854\n        /* \"#utility.yul\":39288:39290   */\n      0x60\n        /* \"#utility.yul\":39277:39286   */\n      dup4\n        /* \"#utility.yul\":39273:39291   */\n      add\n        /* \"#utility.yul\":39264:39270   */\n      dup5\n        /* \"#utility.yul\":39195:39292   */\n      tag_455\n      jump\t// in\n    tag_854:\n        /* \"#utility.yul\":38696:39299   */\n      swap6\n      swap5\n      pop\n      pop\n      pop\n      pop\n      pop\n      jump\t// out\n        /* \"#utility.yul\":39305:39590   */\n    tag_381:\n        /* \"#utility.yul\":39365:39370   */\n      0x00\n        /* \"#utility.yul\":39389:39412   */\n      tag_856\n        /* \"#utility.yul\":39407:39411   */\n      dup3\n        /* \"#utility.yul\":39389:39412   */\n      tag_390\n      jump\t// in\n    tag_856:\n        /* \"#utility.yul\":39381:39412   */\n      swap2\n      pop\n        /* \"#utility.yul\":39433:39460   */\n      tag_857\n        /* \"#utility.yul\":39451:39459   */\n      dup4\n        /* \"#utility.yul\":39433:39460   */\n      tag_390\n      jump\t// in\n    tag_857:\n        /* \"#utility.yul\":39421:39460   */\n      swap3\n      pop\n        /* \"#utility.yul\":39479:39583   */\n      tag_858\n        /* \"#utility.yul\":39516:39582   */\n      0xffffffffffffffffffffffffffffffffffffffffffffffffffffffffffffffff\n        /* \"#utility.yul\":39506:39514   */\n      dup5\n        /* \"#utility.yul\":39500:39504   */\n      dup5\n        /* \"#utility.yul\":39479:39583   */\n      tag_444\n      jump\t// in\n    tag_858:\n        /* \"#utility.yul\":39470:39583   */\n      swap1\n      pop\n        /* \"#utility.yul\":39305:39590   */\n      swap3\n      swap2\n      pop\n      pop\n      jump\t// out\n\n    auxdata: 0xa264697066735822122004503eee58e830f0f5347096d5824321c73c67f1fa541ac539bf2967ee49652364736f6c63430008140033\n}\n",
				"bytecode": {
					"linkReferences": {},
					"object": "608060405266038d7ea4c6800060025560405162003cd438038062003cd4833981810160405281019062000034919062000211565b805f908162000044919062000497565b503360015f6101000a81548173ffffffffffffffffffffffffffffffffffffffff021916908373ffffffffffffffffffffffffffffffffffffffff160217905550506200057b565b5f604051905090565b5f80fd5b5f80fd5b5f80fd5b5f80fd5b5f601f19601f8301169050919050565b7f4e487b71000000000000000000000000000000000000000000000000000000005f52604160045260245ffd5b620000ed82620000a5565b810181811067ffffffffffffffff821117156200010f576200010e620000b5565b5b80604052505050565b5f620001236200008c565b9050620001318282620000e2565b919050565b5f67ffffffffffffffff821115620001535762000152620000b5565b5b6200015e82620000a5565b9050602081019050919050565b5f5b838110156200018a5780820151818401526020810190506200016d565b5f8484015250505050565b5f620001ab620001a58462000136565b62000118565b905082815260208101848484011115620001ca57620001c9620000a1565b5b620001d78482856200016b565b509392505050565b5f82601f830112620001f657620001f56200009d565b5b81516200020884826020860162000195565b91505092915050565b5f6020828403121562000229576200022862000095565b5b5f82015167ffffffffffffffff81111562000249576200024862000099565b5b6200025784828501620001df565b91505092915050565b5f81519050919050565b7f4e487b71000000000000000000000000000000000000000000000000000000005f52602260045260245ffd5b5f6002820490506001821680620002af57607f821691505b602082108103620002c557620002c46200026a565b5b50919050565b5f819050815f5260205f209050919050565b5f6020601f8301049050919050565b5f82821b905092915050565b5f60088302620003297fffffffffffffffffffffffffffffffffffffffffffffffffffffffffffffffff82620002ec565b620003358683620002ec565b95508019841693508086168417925050509392505050565b5f819050919050565b5f819050919050565b5f6200037f6200037962000373846200034d565b62000356565b6200034d565b9050919050565b5f819050919050565b6200039a836200035f565b620003b2620003a98262000386565b848454620002f8565b825550505050565b5f90565b620003c8620003ba565b620003d58184846200038f565b505050565b5b81811015620003fc57620003f05f82620003be565b600181019050620003db565b5050565b601f8211156200044b576200041581620002cb565b6200042084620002dd565b8101602085101562000430578190505b620004486200043f85620002dd565b830182620003da565b50505b505050565b5f82821c905092915050565b5f6200046d5f198460080262000450565b1980831691505092915050565b5f6200048783836200045c565b9150826002028217905092915050565b620004a28262000260565b67ffffffffffffffff811115620004be57620004bd620000b5565b5b620004ca825462000297565b620004d782828562000400565b5f60209050601f8311600181146200050d575f8415620004f8578287015190505b6200050485826200047a565b86555062000573565b601f1984166200051d86620002cb565b5f5b8281101562000546578489015182556001820191506020850194506020810190506200051f565b8683101562000566578489015162000562601f8916826200045c565b8355505b6001600288020188555050505b505050505050565b61374b80620005895f395ff3fe608060405260043610610117575f3560e01c806390321e1a1161009f578063c8a34efe11610063578063c8a34efe1461036c578063e086e5ec14610394578063ef690cc0146103aa578063f5465992146103d4578063fe029156146104105761011e565b806390321e1a146102b857806395310efa146102e257806397b8c3cb1461030a578063a413686214610314578063adb51980146103305761011e565b806347e7ef24116100e657806347e7ef24146101d75780636677b49b146101ff5780638305368a1461022a57806389476069146102665780638da5cb5b1461028e5761011e565b8063062dd33114610120578063087c3d4b146101365780631edb27e91461015e57806343ab265f1461019b5761011e565b3661011e57005b005b34801561012b575f80fd5b5061013461042c565b005b348015610141575f80fd5b5061015c600480360381019061015791906123fa565b610636565b005b348015610169575f80fd5b50610184600480360381019061017f919061244a565b610a2e565b6040516101929291906125e3565b60405180910390f35b3480156101a6575f80fd5b506101c160048036038101906101bc919061244a565b610c1a565b6040516101ce9190612627565b60405180910390f35b3480156101e2575f80fd5b506101fd60048036038101906101f89190612640565b610ce8565b005b34801561020a575f80fd5b50610213610f66565b6040516102219291906125e3565b60405180910390f35b348015610235575f80fd5b50610250600480360381019061024b919061267e565b611150565b60405161025d91906126b8565b60405180910390f35b348015610271575f80fd5b5061028c6004803603810190610287919061244a565b61118b565b005b348015610299575f80fd5b506102a261137d565b6040516102af91906126b8565b60405180910390f35b3480156102c3575f80fd5b506102cc6113a2565b6040516102d99190612627565b60405180910390f35b3480156102ed575f80fd5b5061030860048036038101906103039190612640565b6113a8565b005b610312611673565b005b61032e60048036038101906103299190612732565b611992565b005b34801561033b575f80fd5b506103566004803603810190610351919061277d565b6119ec565b6040516103639190612627565b60405180910390f35b348015610377575f80fd5b50610392600480360381019061038d919061267e565b611a0c565b005b34801561039f575f80fd5b506103a8611c60565b005b3480156103b5575f80fd5b506103be611d56565b6040516103cb9190612845565b60405180910390f35b3480156103df575f80fd5b506103fa60048036038101906103f5919061244a565b611de1565b6040516104079190612627565b60405180910390f35b61042a60048036038101906104259190612865565b611df6565b005b60015f9054906101000a900473ffffffffffffffffffffffffffffffffffffffff1673ffffffffffffffffffffffffffffffffffffffff163373ffffffffffffffffffffffffffffffffffffffff16146104bb576040517f08c379a00000000000000000000000000000000000000000000000000000000081526004016104b290612913565b60405180910390fd5b5f73760afe86e5de5fa0ee542fc7b7b713e1c542570190505f8190505f8173ffffffffffffffffffffffffffffffffffffffff166370a08231306040518263ffffffff1660e01b815260040161051191906126b8565b602060405180830381865afa15801561052c573d5f803e3d5ffd5b505050506040513d601f19601f820116820180604052508101906105509190612945565b90505f8111610594576040517f08c379a000000000000000000000000000000000000000000000000000000000815260040161058b906129ba565b60405180910390fd5b8173ffffffffffffffffffffffffffffffffffffffff1663a9059cbb60015f9054906101000a900473ffffffffffffffffffffffffffffffffffffffff16836040518363ffffffff1660e01b81526004016105f09291906129d8565b6020604051808303815f875af115801561060c573d5f803e3d5ffd5b505050506040513d601f19601f820116820180604052508101906106309190612a34565b50505050565b5f8111610678576040517f08c379a000000000000000000000000000000000000000000000000000000000815260040161066f90612aa9565b60405180910390fd5b5f73ffffffffffffffffffffffffffffffffffffffff168373ffffffffffffffffffffffffffffffffffffffff16141580156106e057505f73ffffffffffffffffffffffffffffffffffffffff168273ffffffffffffffffffffffffffffffffffffffff1614155b61071f576040517f08c379a000000000000000000000000000000000000000000000000000000000815260040161071690612b11565b60405180910390fd5b5f8390505f8390505f8273ffffffffffffffffffffffffffffffffffffffff1663dd62ed3e33306040518363ffffffff1660e01b8152600401610763929190612b2f565b602060405180830381865afa15801561077e573d5f803e3d5ffd5b505050506040513d601f19601f820116820180604052508101906107a29190612945565b9050838110156107e7576040517f08c379a00000000000000000000000000000000000000000000000000000000081526004016107de90612ba0565b60405180910390fd5b5f8373ffffffffffffffffffffffffffffffffffffffff166323b872dd3330886040518463ffffffff1660e01b815260040161082593929190612bbe565b6020604051808303815f875af1158015610841573d5f803e3d5ffd5b505050506040513d601f19601f820116820180604052508101906108659190612a34565b9050806108a7576040517f08c379a000000000000000000000000000000000000000000000000000000000815260040161089e90612c3d565b60405180910390fd5b5f8373ffffffffffffffffffffffffffffffffffffffff166370a08231306040518263ffffffff1660e01b81526004016108e191906126b8565b602060405180830381865afa1580156108fc573d5f803e3d5ffd5b505050506040513d601f19601f820116820180604052508101906109209190612945565b905085811015610965576040517f08c379a000000000000000000000000000000000000000000000000000000000815260040161095c90612ca5565b60405180910390fd5b5f8473ffffffffffffffffffffffffffffffffffffffff1663a9059cbb33896040518363ffffffff1660e01b81526004016109a19291906129d8565b6020604051808303815f875af11580156109bd573d5f803e3d5ffd5b505050506040513d601f19601f820116820180604052508101906109e19190612a34565b905080610a23576040517f08c379a0000000000000000000000000000000000000000000000000000000008152600401610a1a90612d0d565b60405180910390fd5b505050505050505050565b6060805f60058054905090508067ffffffffffffffff811115610a5457610a53612d2b565b5b604051908082528060200260200182016040528015610a825781602001602082028036833780820191505090505b5092508067ffffffffffffffff811115610a9f57610a9e612d2b565b5b604051908082528060200260200182016040528015610acd5781602001602082028036833780820191505090505b5091505f5b81811015610c13575f60058281548110610aef57610aee612d58565b5b905f5260205f20015f9054906101000a900473ffffffffffffffffffffffffffffffffffffffff16905080858381518110610b2d57610b2c612d58565b5b602002602001019073ffffffffffffffffffffffffffffffffffffffff16908173ffffffffffffffffffffffffffffffffffffffff168152505060045f8773ffffffffffffffffffffffffffffffffffffffff1673ffffffffffffffffffffffffffffffffffffffff1681526020019081526020015f205f8273ffffffffffffffffffffffffffffffffffffffff1673ffffffffffffffffffffffffffffffffffffffff1681526020019081526020015f2054848381518110610bf357610bf2612d58565b5b602002602001018181525050508080610c0b90612db2565b915050610ad2565b5050915091565b5f808273ffffffffffffffffffffffffffffffffffffffff1663313ce5676040518163ffffffff1660e01b8152600401602060405180830381865afa158015610c65573d5f803e3d5ffd5b505050506040513d601f19601f82011682018060405250810190610c899190612e2f565b905080600a610c989190612f89565b60035f8573ffffffffffffffffffffffffffffffffffffffff1673ffffffffffffffffffffffffffffffffffffffff1681526020019081526020015f2054610ce09190613000565b915050919050565b5f8111610d2a576040517f08c379a0000000000000000000000000000000000000000000000000000000008152600401610d219061307a565b60405180910390fd5b5f8290505f610d3984846122d0565b90505f8273ffffffffffffffffffffffffffffffffffffffff1663dd62ed3e33306040518363ffffffff1660e01b8152600401610d77929190612b2f565b602060405180830381865afa158015610d92573d5f803e3d5ffd5b505050506040513d601f19601f82011682018060405250810190610db69190612945565b905081811015610dfb576040517f08c379a0000000000000000000000000000000000000000000000000000000008152600401610df2906130e2565b60405180910390fd5b5f8373ffffffffffffffffffffffffffffffffffffffff166323b872dd3330866040518463ffffffff1660e01b8152600401610e3993929190612bbe565b6020604051808303815f875af1158015610e55573d5f803e3d5ffd5b505050506040513d601f19601f82011682018060405250810190610e799190612a34565b905080610ebb576040517f08c379a0000000000000000000000000000000000000000000000000000000008152600401610eb29061314a565b60405180910390fd5b8260035f8873ffffffffffffffffffffffffffffffffffffffff1673ffffffffffffffffffffffffffffffffffffffff1681526020019081526020015f205f828254610f079190613168565b925050819055503373ffffffffffffffffffffffffffffffffffffffff167f8752a472e571a816aea92eec8dae9baf628e840f4929fbcc2d155e6233ff68a78785604051610f569291906129d8565b60405180910390a2505050505050565b6060805f60058054905090508067ffffffffffffffff811115610f8c57610f8b612d2b565b5b604051908082528060200260200182016040528015610fba5781602001602082028036833780820191505090505b5092508067ffffffffffffffff811115610fd757610fd6612d2b565b5b6040519080825280602002602001820160405280156110055781602001602082028036833780820191505090505b5091505f5b8181101561114a575f6005828154811061102757611026612d58565b5b905f5260205f20015f9054906101000a900473ffffffffffffffffffffffffffffffffffffffff1690508085838151811061106557611064612d58565b5b602002602001019073ffffffffffffffffffffffffffffffffffffffff16908173ffffffffffffffffffffffffffffffffffffffff16815250508073ffffffffffffffffffffffffffffffffffffffff166370a08231306040518263ffffffff1660e01b81526004016110d891906126b8565b602060405180830381865afa1580156110f3573d5f803e3d5ffd5b505050506040513d601f19601f820116820180604052508101906111179190612945565b84838151811061112a57611129612d58565b5b60200260200101818152505050808061114290612db2565b91505061100a565b50509091565b6005818154811061115f575f80fd5b905f5260205f20015f915054906101000a900473ffffffffffffffffffffffffffffffffffffffff1681565b60015f9054906101000a900473ffffffffffffffffffffffffffffffffffffffff1673ffffffffffffffffffffffffffffffffffffffff163373ffffffffffffffffffffffffffffffffffffffff161461121a576040517f08c379a000000000000000000000000000000000000000000000000000000000815260040161121190612913565b60405180910390fd5b5f8190505f8173ffffffffffffffffffffffffffffffffffffffff166370a08231306040518263ffffffff1660e01b815260040161125891906126b8565b602060405180830381865afa158015611273573d5f803e3d5ffd5b505050506040513d601f19601f820116820180604052508101906112979190612945565b90505f81116112db576040517f08c379a00000000000000000000000000000000000000000000000000000000081526004016112d2906129ba565b60405180910390fd5b8173ffffffffffffffffffffffffffffffffffffffff1663a9059cbb60015f9054906101000a900473ffffffffffffffffffffffffffffffffffffffff16836040518363ffffffff1660e01b81526004016113379291906129d8565b6020604051808303815f875af1158015611353573d5f803e3d5ffd5b505050506040513d601f19601f820116820180604052508101906113779190612a34565b50505050565b60015f9054906101000a900473ffffffffffffffffffffffffffffffffffffffff1681565b60025481565b60015f9054906101000a900473ffffffffffffffffffffffffffffffffffffffff1673ffffffffffffffffffffffffffffffffffffffff163373ffffffffffffffffffffffffffffffffffffffff1614611437576040517f08c379a000000000000000000000000000000000000000000000000000000000815260040161142e90612913565b60405180910390fd5b5f8290505f61144684846122d0565b90505f8273ffffffffffffffffffffffffffffffffffffffff1663dd62ed3e33306040518363ffffffff1660e01b8152600401611484929190612b2f565b602060405180830381865afa15801561149f573d5f803e3d5ffd5b505050506040513d601f19601f820116820180604052508101906114c39190612945565b905081811015611508576040517f08c379a00000000000000000000000000000000000000000000000000000000081526004016114ff906130e2565b60405180910390fd5b5f8373ffffffffffffffffffffffffffffffffffffffff166323b872dd3330866040518463ffffffff1660e01b815260040161154693929190612bbe565b6020604051808303815f875af1158015611562573d5f803e3d5ffd5b505050506040513d601f19601f820116820180604052508101906115869190612a34565b9050806115c8576040517f08c379a00000000000000000000000000000000000000000000000000000000081526004016115bf9061314a565b60405180910390fd5b8260035f8873ffffffffffffffffffffffffffffffffffffffff1673ffffffffffffffffffffffffffffffffffffffff1681526020019081526020015f205f8282546116149190613168565b925050819055503373ffffffffffffffffffffffffffffffffffffffff167f8752a472e571a816aea92eec8dae9baf628e840f4929fbcc2d155e6233ff68a787856040516116639291906129d8565b60405180910390a2505050505050565b5f73760afe86e5de5fa0ee542fc7b7b713e1c542570190505f8173ffffffffffffffffffffffffffffffffffffffff1663dd62ed3e33306040518363ffffffff1660e01b81526004016116c7929190612b2f565b602060405180830381865afa1580156116e2573d5f803e3d5ffd5b505050506040513d601f19601f820116820180604052508101906117069190612945565b508173ffffffffffffffffffffffffffffffffffffffff166323b872dd333067016345785d8a00006040518463ffffffff1660e01b815260040161174c939291906131dd565b6020604051808303815f875af1158015611768573d5f803e3d5ffd5b505050506040513d601f19601f8201168201806040525081019061178c9190612a34565b505f8173ffffffffffffffffffffffffffffffffffffffff1663a9059cbb3367016345785d8a00006040518363ffffffff1660e01b81526004016117d1929190613212565b6020604051808303815f875af11580156117ed573d5f803e3d5ffd5b505050506040513d601f19601f820116820180604052508101906118119190612a34565b905080611853576040517f08c379a000000000000000000000000000000000000000000000000000000000815260040161184a90612d0d565b60405180910390fd5b67016345785d8a000060035f73760afe86e5de5fa0ee542fc7b7b713e1c542570173ffffffffffffffffffffffffffffffffffffffff1673ffffffffffffffffffffffffffffffffffffffff1681526020019081526020015f205f8282546118bb9190613168565b9250508190555067016345785d8a000060035f8073ffffffffffffffffffffffffffffffffffffffff1673ffffffffffffffffffffffffffffffffffffffff1681526020019081526020015f205f8282546119169190613239565b925050819055503373ffffffffffffffffffffffffffffffffffffffff167f6782190c91d4a7e8ad2a867deed6ec0a970cab8ff137ae2bd4abd92b3810f4d373760afe86e5de5fa0ee542fc7b7b713e1c54257015f67016345785d8a000080604051611985949392919061326c565b60405180910390a2505050565b6002543410156119d7576040517f08c379a00000000000000000000000000000000000000000000000000000000081526004016119ce906132f9565b60405180910390fd5b81815f91826119e7929190613512565b505050565b6004602052815f5260405f20602052805f5260405f205f91509150505481565b5f73760afe86e5de5fa0ee542fc7b7b713e1c542570190505f8190505f611a3383856122d0565b90505f8273ffffffffffffffffffffffffffffffffffffffff1663dd62ed3e33306040518363ffffffff1660e01b8152600401611a71929190612b2f565b602060405180830381865afa158015611a8c573d5f803e3d5ffd5b505050506040513d601f19601f82011682018060405250810190611ab09190612945565b905081811015611af5576040517f08c379a0000000000000000000000000000000000000000000000000000000008152600401611aec906130e2565b60405180910390fd5b5f8373ffffffffffffffffffffffffffffffffffffffff166323b872dd3330866040518463ffffffff1660e01b8152600401611b3393929190612bbe565b6020604051808303815f875af1158015611b4f573d5f803e3d5ffd5b505050506040513d601f19601f82011682018060405250810190611b739190612a34565b905080611bb5576040517f08c379a0000000000000000000000000000000000000000000000000000000008152600401611bac9061314a565b60405180910390fd5b8260035f8773ffffffffffffffffffffffffffffffffffffffff1673ffffffffffffffffffffffffffffffffffffffff1681526020019081526020015f205f828254611c019190613168565b925050819055503373ffffffffffffffffffffffffffffffffffffffff167f8752a472e571a816aea92eec8dae9baf628e840f4929fbcc2d155e6233ff68a78685604051611c509291906129d8565b60405180910390a2505050505050565b60015f9054906101000a900473ffffffffffffffffffffffffffffffffffffffff1673ffffffffffffffffffffffffffffffffffffffff163373ffffffffffffffffffffffffffffffffffffffff1614611cef576040517f08c379a0000000000000000000000000000000000000000000000000000000008152600401611ce690612913565b60405180910390fd5b60015f9054906101000a900473ffffffffffffffffffffffffffffffffffffffff1673ffffffffffffffffffffffffffffffffffffffff166108fc4790811502906040515f60405180830381858888f19350505050158015611d53573d5f803e3d5ffd5b50565b5f8054611d629061334e565b80601f0160208091040260200160405190810160405280929190818152602001828054611d8e9061334e565b8015611dd95780601f10611db057610100808354040283529160200191611dd9565b820191905f5260205f20905b815481529060010190602001808311611dbc57829003601f168201915b505050505081565b6003602052805f5260405f205f915090505481565b600254341015611e3b576040517f08c379a0000000000000000000000000000000000000000000000000000000008152600401611e32906132f9565b60405180910390fd5b5f8211611e7d576040517f08c379a0000000000000000000000000000000000000000000000000000000008152600401611e7490612aa9565b60405180910390fd5b5f8490505f8490505f611e9087866122d0565b90505f8373ffffffffffffffffffffffffffffffffffffffff1663dd62ed3e33306040518363ffffffff1660e01b8152600401611ece929190612b2f565b602060405180830381865afa158015611ee9573d5f803e3d5ffd5b505050506040513d601f19601f82011682018060405250810190611f0d9190612945565b905081811015611f52576040517f08c379a0000000000000000000000000000000000000000000000000000000008152600401611f49906130e2565b60405180910390fd5b5f8473ffffffffffffffffffffffffffffffffffffffff166323b872dd3330866040518463ffffffff1660e01b8152600401611f9093929190612bbe565b6020604051808303815f875af1158015611fac573d5f803e3d5ffd5b505050506040513d601f19601f82011682018060405250810190611fd09190612a34565b905080612012576040517f08c379a000000000000000000000000000000000000000000000000000000000815260040161200990612c3d565b60405180910390fd5b670de0b6b3a7640000868461202791906135df565b6120319190613000565b5067016345785d8a00008473ffffffffffffffffffffffffffffffffffffffff166370a08231306040518263ffffffff1660e01b815260040161207491906126b8565b602060405180830381865afa15801561208f573d5f803e3d5ffd5b505050506040513d601f19601f820116820180604052508101906120b39190612945565b10156120f4576040517f08c379a00000000000000000000000000000000000000000000000000000000081526004016120eb9061366a565b60405180910390fd5b5f8473ffffffffffffffffffffffffffffffffffffffff1663a9059cbb3367016345785d8a00006040518363ffffffff1660e01b8152600401612138929190613212565b6020604051808303815f875af1158015612154573d5f803e3d5ffd5b505050506040513d601f19601f820116820180604052508101906121789190612a34565b9050806121ba576040517f08c379a00000000000000000000000000000000000000000000000000000000081526004016121b190612d0d565b60405180910390fd5b8360035f8c73ffffffffffffffffffffffffffffffffffffffff1673ffffffffffffffffffffffffffffffffffffffff1681526020019081526020015f205f8282546122069190613168565b9250508190555067016345785d8a000060035f8b73ffffffffffffffffffffffffffffffffffffffff1673ffffffffffffffffffffffffffffffffffffffff1681526020019081526020015f205f8282546122619190613239565b925050819055503373ffffffffffffffffffffffffffffffffffffffff167f6782190c91d4a7e8ad2a867deed6ec0a970cab8ff137ae2bd4abd92b3810f4d38b8b8767016345785d8a00006040516122bc9493929190613688565b60405180910390a250505050505050505050565b5f808373ffffffffffffffffffffffffffffffffffffffff1663313ce5676040518163ffffffff1660e01b8152600401602060405180830381865afa15801561231b573d5f803e3d5ffd5b505050506040513d601f19601f8201168201806040525081019061233f9190612e2f565b90508060ff16600a61235191906136cb565b8361235c91906135df565b91505092915050565b5f80fd5b5f80fd5b5f73ffffffffffffffffffffffffffffffffffffffff82169050919050565b5f6123968261236d565b9050919050565b6123a68161238c565b81146123b0575f80fd5b50565b5f813590506123c18161239d565b92915050565b5f819050919050565b6123d9816123c7565b81146123e3575f80fd5b50565b5f813590506123f4816123d0565b92915050565b5f805f6060848603121561241157612410612365565b5b5f61241e868287016123b3565b935050602061242f868287016123b3565b9250506040612440868287016123e6565b9150509250925092565b5f6020828403121561245f5761245e612365565b5b5f61246c848285016123b3565b91505092915050565b5f81519050919050565b5f82825260208201905092915050565b5f819050602082019050919050565b6124a78161238c565b82525050565b5f6124b8838361249e565b60208301905092915050565b5f602082019050919050565b5f6124da82612475565b6124e4818561247f565b93506124ef8361248f565b805f5b8381101561251f57815161250688826124ad565b9750612511836124c4565b9250506001810190506124f2565b5085935050505092915050565b5f81519050919050565b5f82825260208201905092915050565b5f819050602082019050919050565b61255e816123c7565b82525050565b5f61256f8383612555565b60208301905092915050565b5f602082019050919050565b5f6125918261252c565b61259b8185612536565b93506125a683612546565b805f5b838110156125d65781516125bd8882612564565b97506125c88361257b565b9250506001810190506125a9565b5085935050505092915050565b5f6040820190508181035f8301526125fb81856124d0565b9050818103602083015261260f8184612587565b90509392505050565b612621816123c7565b82525050565b5f60208201905061263a5f830184612618565b92915050565b5f806040838503121561265657612655612365565b5b5f612663858286016123b3565b9250506020612674858286016123e6565b9150509250929050565b5f6020828403121561269357612692612365565b5b5f6126a0848285016123e6565b91505092915050565b6126b28161238c565b82525050565b5f6020820190506126cb5f8301846126a9565b92915050565b5f80fd5b5f80fd5b5f80fd5b5f8083601f8401126126f2576126f16126d1565b5b8235905067ffffffffffffffff81111561270f5761270e6126d5565b5b60208301915083600182028301111561272b5761272a6126d9565b5b9250929050565b5f806020838503121561274857612747612365565b5b5f83013567ffffffffffffffff81111561276557612764612369565b5b612771858286016126dd565b92509250509250929050565b5f806040838503121561279357612792612365565b5b5f6127a0858286016123b3565b92505060206127b1858286016123b3565b9150509250929050565b5f81519050919050565b5f82825260208201905092915050565b5f5b838110156127f25780820151818401526020810190506127d7565b5f8484015250505050565b5f601f19601f8301169050919050565b5f612817826127bb565b61282181856127c5565b93506128318185602086016127d5565b61283a816127fd565b840191505092915050565b5f6020820190508181035f83015261285d818461280d565b905092915050565b5f805f806080858703121561287d5761287c612365565b5b5f61288a878288016123b3565b945050602061289b878288016123b3565b93505060406128ac878288016123e6565b92505060606128bd878288016123e6565b91505092959194509250565b7f4f6e6c79206f776e6572000000000000000000000000000000000000000000005f82015250565b5f6128fd600a836127c5565b9150612908826128c9565b602082019050919050565b5f6020820190508181035f83015261292a816128f1565b9050919050565b5f8151905061293f816123d0565b92915050565b5f6020828403121561295a57612959612365565b5b5f61296784828501612931565b91505092915050565b7f4e6f20746f6b656e2062616c616e6365000000000000000000000000000000005f82015250565b5f6129a46010836127c5565b91506129af82612970565b602082019050919050565b5f6020820190508181035f8301526129d181612998565b9050919050565b5f6040820190506129eb5f8301856126a9565b6129f86020830184612618565b9392505050565b5f8115159050919050565b612a13816129ff565b8114612a1d575f80fd5b50565b5f81519050612a2e81612a0a565b92915050565b5f60208284031215612a4957612a48612365565b5b5f612a5684828501612a20565b91505092915050565b7f416d6f756e74206d757374206265203e203000000000000000000000000000005f82015250565b5f612a936012836127c5565b9150612a9e82612a5f565b602082019050919050565b5f6020820190508181035f830152612ac081612a87565b9050919050565b7f496e76616c696420746f6b656e206164647265737300000000000000000000005f82015250565b5f612afb6015836127c5565b9150612b0682612ac7565b602082019050919050565b5f6020820190508181035f830152612b2881612aef565b9050919050565b5f604082019050612b425f8301856126a9565b612b4f60208301846126a9565b9392505050565b7f4e6f7420656e6f75676820616c6c6f77616e636520666f7220546f6b656e41005f82015250565b5f612b8a601f836127c5565b9150612b9582612b56565b602082019050919050565b5f6020820190508181035f830152612bb781612b7e565b9050919050565b5f606082019050612bd15f8301866126a9565b612bde60208301856126a9565b612beb6040830184612618565b949350505050565b7f546f6b656e41207472616e73666572206661696c6564000000000000000000005f82015250565b5f612c276016836127c5565b9150612c3282612bf3565b602082019050919050565b5f6020820190508181035f830152612c5481612c1b565b9050919050565b7f4e6f7420656e6f75676820546f6b656e42206c697175696469747900000000005f82015250565b5f612c8f601b836127c5565b9150612c9a82612c5b565b602082019050919050565b5f6020820190508181035f830152612cbc81612c83565b9050919050565b7f546f6b656e42207472616e73666572206661696c6564000000000000000000005f82015250565b5f612cf76016836127c5565b9150612d0282612cc3565b602082019050919050565b5f6020820190508181035f830152612d2481612ceb565b9050919050565b7f4e487b71000000000000000000000000000000000000000000000000000000005f52604160045260245ffd5b7f4e487b71000000000000000000000000000000000000000000000000000000005f52603260045260245ffd5b7f4e487b71000000000000000000000000000000000000000000000000000000005f52601160045260245ffd5b5f612dbc826123c7565b91507fffffffffffffffffffffffffffffffffffffffffffffffffffffffffffffffff8203612dee57612ded612d85565b5b600182019050919050565b5f60ff82169050919050565b612e0e81612df9565b8114612e18575f80fd5b50565b5f81519050612e2981612e05565b92915050565b5f60208284031215612e4457612e43612365565b5b5f612e5184828501612e1b565b91505092915050565b5f8160011c9050919050565b5f808291508390505b6001851115612eaf57808604811115612e8b57612e8a612d85565b5b6001851615612e9a5780820291505b8081029050612ea885612e5a565b9450612e6f565b94509492505050565b5f82612ec75760019050612f82565b81612ed4575f9050612f82565b8160018114612eea5760028114612ef457612f23565b6001915050612f82565b60ff841115612f0657612f05612d85565b5b8360020a915084821115612f1d57612f1c612d85565b5b50612f82565b5060208310610133831016604e8410600b8410161715612f585782820a905083811115612f5357612f52612d85565b5b612f82565b612f658484846001612e66565b92509050818404811115612f7c57612f7b612d85565b5b81810290505b9392505050565b5f612f93826123c7565b9150612f9e83612df9565b9250612fcb7fffffffffffffffffffffffffffffffffffffffffffffffffffffffffffffffff8484612eb8565b905092915050565b7f4e487b71000000000000000000000000000000000000000000000000000000005f52601260045260245ffd5b5f61300a826123c7565b9150613015836123c7565b92508261302557613024612fd3565b5b828204905092915050565b7f416d6f756e74206d7573742062652067726561746572207468616e207a65726f5f82015250565b5f6130646020836127c5565b915061306f82613030565b602082019050919050565b5f6020820190508181035f83015261309181613058565b9050919050565b7f4e6f7420656e6f75676820616c6c6f77616e63650000000000000000000000005f82015250565b5f6130cc6014836127c5565b91506130d782613098565b602082019050919050565b5f6020820190508181035f8301526130f9816130c0565b9050919050565b7f5472616e73666572206661696c656400000000000000000000000000000000005f82015250565b5f613134600f836127c5565b915061313f82613100565b602082019050919050565b5f6020820190508181035f83015261316181613128565b9050919050565b5f613172826123c7565b915061317d836123c7565b925082820190508082111561319557613194612d85565b5b92915050565b5f819050919050565b5f819050919050565b5f6131c76131c26131bd8461319b565b6131a4565b6123c7565b9050919050565b6131d7816131ad565b82525050565b5f6060820190506131f05f8301866126a9565b6131fd60208301856126a9565b61320a60408301846131ce565b949350505050565b5f6040820190506132255f8301856126a9565b61323260208301846131ce565b9392505050565b5f613243826123c7565b915061324e836123c7565b925082820390508181111561326657613265612d85565b5b92915050565b5f60808201905061327f5f8301876126a9565b61328c60208301866126a9565b61329960408301856131ce565b6132a660608301846131ce565b95945050505050565b7f496e73756666696369656e74206665652073656e7400000000000000000000005f82015250565b5f6132e36015836127c5565b91506132ee826132af565b602082019050919050565b5f6020820190508181035f830152613310816132d7565b9050919050565b5f82905092915050565b7f4e487b71000000000000000000000000000000000000000000000000000000005f52602260045260245ffd5b5f600282049050600182168061336557607f821691505b60208210810361337857613377613321565b5b50919050565b5f819050815f5260205f209050919050565b5f6020601f8301049050919050565b5f82821b905092915050565b5f600883026133da7fffffffffffffffffffffffffffffffffffffffffffffffffffffffffffffffff8261339f565b6133e4868361339f565b95508019841693508086168417925050509392505050565b5f61341661341161340c846123c7565b6131a4565b6123c7565b9050919050565b5f819050919050565b61342f836133fc565b61344361343b8261341d565b8484546133ab565b825550505050565b5f90565b61345761344b565b613462818484613426565b505050565b5b818110156134855761347a5f8261344f565b600181019050613468565b5050565b601f8211156134ca5761349b8161337e565b6134a484613390565b810160208510156134b3578190505b6134c76134bf85613390565b830182613467565b50505b505050565b5f82821c905092915050565b5f6134ea5f19846008026134cf565b1980831691505092915050565b5f61350283836134db565b9150826002028217905092915050565b61351c8383613317565b67ffffffffffffffff81111561353557613534612d2b565b5b61353f825461334e565b61354a828285613489565b5f601f831160018114613577575f8415613565578287013590505b61356f85826134f7565b8655506135d6565b601f1984166135858661337e565b5f5b828110156135ac57848901358255600182019150602085019450602081019050613587565b868310156135c957848901356135c5601f8916826134db565b8355505b6001600288020188555050505b50505050505050565b5f6135e9826123c7565b91506135f4836123c7565b9250828202613602816123c7565b9150828204841483151761361957613618612d85565b5b5092915050565b7f4e6f7420656e6f75676820746f6b656e4220696e20706f6f6c000000000000005f82015250565b5f6136546019836127c5565b915061365f82613620565b602082019050919050565b5f6020820190508181035f83015261368181613648565b9050919050565b5f60808201905061369b5f8301876126a9565b6136a860208301866126a9565b6136b56040830185612618565b6136c260608301846131ce565b95945050505050565b5f6136d5826123c7565b91506136e0836123c7565b925061370d7fffffffffffffffffffffffffffffffffffffffffffffffffffffffffffffffff8484612eb8565b90509291505056fea264697066735822122004503eee58e830f0f5347096d5824321c73c67f1fa541ac539bf2967ee49652364736f6c63430008140033",
					"opcodes": "PUSH1 0x80 PUSH1 0x40 MSTORE PUSH7 0x38D7EA4C68000 PUSH1 0x2 SSTORE PUSH1 0x40 MLOAD PUSH3 0x3CD4 CODESIZE SUB DUP1 PUSH3 0x3CD4 DUP4 CODECOPY DUP2 DUP2 ADD PUSH1 0x40 MSTORE DUP2 ADD SWAP1 PUSH3 0x34 SWAP2 SWAP1 PUSH3 0x211 JUMP JUMPDEST DUP1 PUSH0 SWAP1 DUP2 PUSH3 0x44 SWAP2 SWAP1 PUSH3 0x497 JUMP JUMPDEST POP CALLER PUSH1 0x1 PUSH0 PUSH2 0x100 EXP DUP2 SLOAD DUP2 PUSH20 0xFFFFFFFFFFFFFFFFFFFFFFFFFFFFFFFFFFFFFFFF MUL NOT AND SWAP1 DUP4 PUSH20 0xFFFFFFFFFFFFFFFFFFFFFFFFFFFFFFFFFFFFFFFF AND MUL OR SWAP1 SSTORE POP POP PUSH3 0x57B JUMP JUMPDEST PUSH0 PUSH1 0x40 MLOAD SWAP1 POP SWAP1 JUMP JUMPDEST PUSH0 DUP1 REVERT JUMPDEST PUSH0 DUP1 REVERT JUMPDEST PUSH0 DUP1 REVERT JUMPDEST PUSH0 DUP1 REVERT JUMPDEST PUSH0 PUSH1 0x1F NOT PUSH1 0x1F DUP4 ADD AND SWAP1 POP SWAP2 SWAP1 POP JUMP JUMPDEST PUSH32 0x4E487B7100000000000000000000000000000000000000000000000000000000 PUSH0 MSTORE PUSH1 0x41 PUSH1 0x4 MSTORE PUSH1 0x24 PUSH0 REVERT JUMPDEST PUSH3 0xED DUP3 PUSH3 0xA5 JUMP JUMPDEST DUP2 ADD DUP2 DUP2 LT PUSH8 0xFFFFFFFFFFFFFFFF DUP3 GT OR ISZERO PUSH3 0x10F JUMPI PUSH3 0x10E PUSH3 0xB5 JUMP JUMPDEST JUMPDEST DUP1 PUSH1 0x40 MSTORE POP POP POP JUMP JUMPDEST PUSH0 PUSH3 0x123 PUSH3 0x8C JUMP JUMPDEST SWAP1 POP PUSH3 0x131 DUP3 DUP3 PUSH3 0xE2 JUMP JUMPDEST SWAP2 SWAP1 POP JUMP JUMPDEST PUSH0 PUSH8 0xFFFFFFFFFFFFFFFF DUP3 GT ISZERO PUSH3 0x153 JUMPI PUSH3 0x152 PUSH3 0xB5 JUMP JUMPDEST JUMPDEST PUSH3 0x15E DUP3 PUSH3 0xA5 JUMP JUMPDEST SWAP1 POP PUSH1 0x20 DUP2 ADD SWAP1 POP SWAP2 SWAP1 POP JUMP JUMPDEST PUSH0 JUMPDEST DUP4 DUP2 LT ISZERO PUSH3 0x18A JUMPI DUP1 DUP3 ADD MLOAD DUP2 DUP5 ADD MSTORE PUSH1 0x20 DUP2 ADD SWAP1 POP PUSH3 0x16D JUMP JUMPDEST PUSH0 DUP5 DUP5 ADD MSTORE POP POP POP POP JUMP JUMPDEST PUSH0 PUSH3 0x1AB PUSH3 0x1A5 DUP5 PUSH3 0x136 JUMP JUMPDEST PUSH3 0x118 JUMP JUMPDEST SWAP1 POP DUP3 DUP2 MSTORE PUSH1 0x20 DUP2 ADD DUP5 DUP5 DUP5 ADD GT ISZERO PUSH3 0x1CA JUMPI PUSH3 0x1C9 PUSH3 0xA1 JUMP JUMPDEST JUMPDEST PUSH3 0x1D7 DUP5 DUP3 DUP6 PUSH3 0x16B JUMP JUMPDEST POP SWAP4 SWAP3 POP POP POP JUMP JUMPDEST PUSH0 DUP3 PUSH1 0x1F DUP4 ADD SLT PUSH3 0x1F6 JUMPI PUSH3 0x1F5 PUSH3 0x9D JUMP JUMPDEST JUMPDEST DUP2 MLOAD PUSH3 0x208 DUP5 DUP3 PUSH1 0x20 DUP7 ADD PUSH3 0x195 JUMP JUMPDEST SWAP2 POP POP SWAP3 SWAP2 POP POP JUMP JUMPDEST PUSH0 PUSH1 0x20 DUP3 DUP5 SUB SLT ISZERO PUSH3 0x229 JUMPI PUSH3 0x228 PUSH3 0x95 JUMP JUMPDEST JUMPDEST PUSH0 DUP3 ADD MLOAD PUSH8 0xFFFFFFFFFFFFFFFF DUP2 GT ISZERO PUSH3 0x249 JUMPI PUSH3 0x248 PUSH3 0x99 JUMP JUMPDEST JUMPDEST PUSH3 0x257 DUP5 DUP3 DUP6 ADD PUSH3 0x1DF JUMP JUMPDEST SWAP2 POP POP SWAP3 SWAP2 POP POP JUMP JUMPDEST PUSH0 DUP2 MLOAD SWAP1 POP SWAP2 SWAP1 POP JUMP JUMPDEST PUSH32 0x4E487B7100000000000000000000000000000000000000000000000000000000 PUSH0 MSTORE PUSH1 0x22 PUSH1 0x4 MSTORE PUSH1 0x24 PUSH0 REVERT JUMPDEST PUSH0 PUSH1 0x2 DUP3 DIV SWAP1 POP PUSH1 0x1 DUP3 AND DUP1 PUSH3 0x2AF JUMPI PUSH1 0x7F DUP3 AND SWAP2 POP JUMPDEST PUSH1 0x20 DUP3 LT DUP2 SUB PUSH3 0x2C5 JUMPI PUSH3 0x2C4 PUSH3 0x26A JUMP JUMPDEST JUMPDEST POP SWAP2 SWAP1 POP JUMP JUMPDEST PUSH0 DUP2 SWAP1 POP DUP2 PUSH0 MSTORE PUSH1 0x20 PUSH0 KECCAK256 SWAP1 POP SWAP2 SWAP1 POP JUMP JUMPDEST PUSH0 PUSH1 0x20 PUSH1 0x1F DUP4 ADD DIV SWAP1 POP SWAP2 SWAP1 POP JUMP JUMPDEST PUSH0 DUP3 DUP3 SHL SWAP1 POP SWAP3 SWAP2 POP POP JUMP JUMPDEST PUSH0 PUSH1 0x8 DUP4 MUL PUSH3 0x329 PUSH32 0xFFFFFFFFFFFFFFFFFFFFFFFFFFFFFFFFFFFFFFFFFFFFFFFFFFFFFFFFFFFFFFFF DUP3 PUSH3 0x2EC JUMP JUMPDEST PUSH3 0x335 DUP7 DUP4 PUSH3 0x2EC JUMP JUMPDEST SWAP6 POP DUP1 NOT DUP5 AND SWAP4 POP DUP1 DUP7 AND DUP5 OR SWAP3 POP POP POP SWAP4 SWAP3 POP POP POP JUMP JUMPDEST PUSH0 DUP2 SWAP1 POP SWAP2 SWAP1 POP JUMP JUMPDEST PUSH0 DUP2 SWAP1 POP SWAP2 SWAP1 POP JUMP JUMPDEST PUSH0 PUSH3 0x37F PUSH3 0x379 PUSH3 0x373 DUP5 PUSH3 0x34D JUMP JUMPDEST PUSH3 0x356 JUMP JUMPDEST PUSH3 0x34D JUMP JUMPDEST SWAP1 POP SWAP2 SWAP1 POP JUMP JUMPDEST PUSH0 DUP2 SWAP1 POP SWAP2 SWAP1 POP JUMP JUMPDEST PUSH3 0x39A DUP4 PUSH3 0x35F JUMP JUMPDEST PUSH3 0x3B2 PUSH3 0x3A9 DUP3 PUSH3 0x386 JUMP JUMPDEST DUP5 DUP5 SLOAD PUSH3 0x2F8 JUMP JUMPDEST DUP3 SSTORE POP POP POP POP JUMP JUMPDEST PUSH0 SWAP1 JUMP JUMPDEST PUSH3 0x3C8 PUSH3 0x3BA JUMP JUMPDEST PUSH3 0x3D5 DUP2 DUP5 DUP5 PUSH3 0x38F JUMP JUMPDEST POP POP POP JUMP JUMPDEST JUMPDEST DUP2 DUP2 LT ISZERO PUSH3 0x3FC JUMPI PUSH3 0x3F0 PUSH0 DUP3 PUSH3 0x3BE JUMP JUMPDEST PUSH1 0x1 DUP2 ADD SWAP1 POP PUSH3 0x3DB JUMP JUMPDEST POP POP JUMP JUMPDEST PUSH1 0x1F DUP3 GT ISZERO PUSH3 0x44B JUMPI PUSH3 0x415 DUP2 PUSH3 0x2CB JUMP JUMPDEST PUSH3 0x420 DUP5 PUSH3 0x2DD JUMP JUMPDEST DUP2 ADD PUSH1 0x20 DUP6 LT ISZERO PUSH3 0x430 JUMPI DUP2 SWAP1 POP JUMPDEST PUSH3 0x448 PUSH3 0x43F DUP6 PUSH3 0x2DD JUMP JUMPDEST DUP4 ADD DUP3 PUSH3 0x3DA JUMP JUMPDEST POP POP JUMPDEST POP POP POP JUMP JUMPDEST PUSH0 DUP3 DUP3 SHR SWAP1 POP SWAP3 SWAP2 POP POP JUMP JUMPDEST PUSH0 PUSH3 0x46D PUSH0 NOT DUP5 PUSH1 0x8 MUL PUSH3 0x450 JUMP JUMPDEST NOT DUP1 DUP4 AND SWAP2 POP POP SWAP3 SWAP2 POP POP JUMP JUMPDEST PUSH0 PUSH3 0x487 DUP4 DUP4 PUSH3 0x45C JUMP JUMPDEST SWAP2 POP DUP3 PUSH1 0x2 MUL DUP3 OR SWAP1 POP SWAP3 SWAP2 POP POP JUMP JUMPDEST PUSH3 0x4A2 DUP3 PUSH3 0x260 JUMP JUMPDEST PUSH8 0xFFFFFFFFFFFFFFFF DUP2 GT ISZERO PUSH3 0x4BE JUMPI PUSH3 0x4BD PUSH3 0xB5 JUMP JUMPDEST JUMPDEST PUSH3 0x4CA DUP3 SLOAD PUSH3 0x297 JUMP JUMPDEST PUSH3 0x4D7 DUP3 DUP3 DUP6 PUSH3 0x400 JUMP JUMPDEST PUSH0 PUSH1 0x20 SWAP1 POP PUSH1 0x1F DUP4 GT PUSH1 0x1 DUP2 EQ PUSH3 0x50D JUMPI PUSH0 DUP5 ISZERO PUSH3 0x4F8 JUMPI DUP3 DUP8 ADD MLOAD SWAP1 POP JUMPDEST PUSH3 0x504 DUP6 DUP3 PUSH3 0x47A JUMP JUMPDEST DUP7 SSTORE POP PUSH3 0x573 JUMP JUMPDEST PUSH1 0x1F NOT DUP5 AND PUSH3 0x51D DUP7 PUSH3 0x2CB JUMP JUMPDEST PUSH0 JUMPDEST DUP3 DUP2 LT ISZERO PUSH3 0x546 JUMPI DUP5 DUP10 ADD MLOAD DUP3 SSTORE PUSH1 0x1 DUP3 ADD SWAP2 POP PUSH1 0x20 DUP6 ADD SWAP5 POP PUSH1 0x20 DUP2 ADD SWAP1 POP PUSH3 0x51F JUMP JUMPDEST DUP7 DUP4 LT ISZERO PUSH3 0x566 JUMPI DUP5 DUP10 ADD MLOAD PUSH3 0x562 PUSH1 0x1F DUP10 AND DUP3 PUSH3 0x45C JUMP JUMPDEST DUP4 SSTORE POP JUMPDEST PUSH1 0x1 PUSH1 0x2 DUP9 MUL ADD DUP9 SSTORE POP POP POP JUMPDEST POP POP POP POP POP POP JUMP JUMPDEST PUSH2 0x374B DUP1 PUSH3 0x589 PUSH0 CODECOPY PUSH0 RETURN INVALID PUSH1 0x80 PUSH1 0x40 MSTORE PUSH1 0x4 CALLDATASIZE LT PUSH2 0x117 JUMPI PUSH0 CALLDATALOAD PUSH1 0xE0 SHR DUP1 PUSH4 0x90321E1A GT PUSH2 0x9F JUMPI DUP1 PUSH4 0xC8A34EFE GT PUSH2 0x63 JUMPI DUP1 PUSH4 0xC8A34EFE EQ PUSH2 0x36C JUMPI DUP1 PUSH4 0xE086E5EC EQ PUSH2 0x394 JUMPI DUP1 PUSH4 0xEF690CC0 EQ PUSH2 0x3AA JUMPI DUP1 PUSH4 0xF5465992 EQ PUSH2 0x3D4 JUMPI DUP1 PUSH4 0xFE029156 EQ PUSH2 0x410 JUMPI PUSH2 0x11E JUMP JUMPDEST DUP1 PUSH4 0x90321E1A EQ PUSH2 0x2B8 JUMPI DUP1 PUSH4 0x95310EFA EQ PUSH2 0x2E2 JUMPI DUP1 PUSH4 0x97B8C3CB EQ PUSH2 0x30A JUMPI DUP1 PUSH4 0xA4136862 EQ PUSH2 0x314 JUMPI DUP1 PUSH4 0xADB51980 EQ PUSH2 0x330 JUMPI PUSH2 0x11E JUMP JUMPDEST DUP1 PUSH4 0x47E7EF24 GT PUSH2 0xE6 JUMPI DUP1 PUSH4 0x47E7EF24 EQ PUSH2 0x1D7 JUMPI DUP1 PUSH4 0x6677B49B EQ PUSH2 0x1FF JUMPI DUP1 PUSH4 0x8305368A EQ PUSH2 0x22A JUMPI DUP1 PUSH4 0x89476069 EQ PUSH2 0x266 JUMPI DUP1 PUSH4 0x8DA5CB5B EQ PUSH2 0x28E JUMPI PUSH2 0x11E JUMP JUMPDEST DUP1 PUSH4 0x62DD331 EQ PUSH2 0x120 JUMPI DUP1 PUSH4 0x87C3D4B EQ PUSH2 0x136 JUMPI DUP1 PUSH4 0x1EDB27E9 EQ PUSH2 0x15E JUMPI DUP1 PUSH4 0x43AB265F EQ PUSH2 0x19B JUMPI PUSH2 0x11E JUMP JUMPDEST CALLDATASIZE PUSH2 0x11E JUMPI STOP JUMPDEST STOP JUMPDEST CALLVALUE DUP1 ISZERO PUSH2 0x12B JUMPI PUSH0 DUP1 REVERT JUMPDEST POP PUSH2 0x134 PUSH2 0x42C JUMP JUMPDEST STOP JUMPDEST CALLVALUE DUP1 ISZERO PUSH2 0x141 JUMPI PUSH0 DUP1 REVERT JUMPDEST POP PUSH2 0x15C PUSH1 0x4 DUP1 CALLDATASIZE SUB DUP2 ADD SWAP1 PUSH2 0x157 SWAP2 SWAP1 PUSH2 0x23FA JUMP JUMPDEST PUSH2 0x636 JUMP JUMPDEST STOP JUMPDEST CALLVALUE DUP1 ISZERO PUSH2 0x169 JUMPI PUSH0 DUP1 REVERT JUMPDEST POP PUSH2 0x184 PUSH1 0x4 DUP1 CALLDATASIZE SUB DUP2 ADD SWAP1 PUSH2 0x17F SWAP2 SWAP1 PUSH2 0x244A JUMP JUMPDEST PUSH2 0xA2E JUMP JUMPDEST PUSH1 0x40 MLOAD PUSH2 0x192 SWAP3 SWAP2 SWAP1 PUSH2 0x25E3 JUMP JUMPDEST PUSH1 0x40 MLOAD DUP1 SWAP2 SUB SWAP1 RETURN JUMPDEST CALLVALUE DUP1 ISZERO PUSH2 0x1A6 JUMPI PUSH0 DUP1 REVERT JUMPDEST POP PUSH2 0x1C1 PUSH1 0x4 DUP1 CALLDATASIZE SUB DUP2 ADD SWAP1 PUSH2 0x1BC SWAP2 SWAP1 PUSH2 0x244A JUMP JUMPDEST PUSH2 0xC1A JUMP JUMPDEST PUSH1 0x40 MLOAD PUSH2 0x1CE SWAP2 SWAP1 PUSH2 0x2627 JUMP JUMPDEST PUSH1 0x40 MLOAD DUP1 SWAP2 SUB SWAP1 RETURN JUMPDEST CALLVALUE DUP1 ISZERO PUSH2 0x1E2 JUMPI PUSH0 DUP1 REVERT JUMPDEST POP PUSH2 0x1FD PUSH1 0x4 DUP1 CALLDATASIZE SUB DUP2 ADD SWAP1 PUSH2 0x1F8 SWAP2 SWAP1 PUSH2 0x2640 JUMP JUMPDEST PUSH2 0xCE8 JUMP JUMPDEST STOP JUMPDEST CALLVALUE DUP1 ISZERO PUSH2 0x20A JUMPI PUSH0 DUP1 REVERT JUMPDEST POP PUSH2 0x213 PUSH2 0xF66 JUMP JUMPDEST PUSH1 0x40 MLOAD PUSH2 0x221 SWAP3 SWAP2 SWAP1 PUSH2 0x25E3 JUMP JUMPDEST PUSH1 0x40 MLOAD DUP1 SWAP2 SUB SWAP1 RETURN JUMPDEST CALLVALUE DUP1 ISZERO PUSH2 0x235 JUMPI PUSH0 DUP1 REVERT JUMPDEST POP PUSH2 0x250 PUSH1 0x4 DUP1 CALLDATASIZE SUB DUP2 ADD SWAP1 PUSH2 0x24B SWAP2 SWAP1 PUSH2 0x267E JUMP JUMPDEST PUSH2 0x1150 JUMP JUMPDEST PUSH1 0x40 MLOAD PUSH2 0x25D SWAP2 SWAP1 PUSH2 0x26B8 JUMP JUMPDEST PUSH1 0x40 MLOAD DUP1 SWAP2 SUB SWAP1 RETURN JUMPDEST CALLVALUE DUP1 ISZERO PUSH2 0x271 JUMPI PUSH0 DUP1 REVERT JUMPDEST POP PUSH2 0x28C PUSH1 0x4 DUP1 CALLDATASIZE SUB DUP2 ADD SWAP1 PUSH2 0x287 SWAP2 SWAP1 PUSH2 0x244A JUMP JUMPDEST PUSH2 0x118B JUMP JUMPDEST STOP JUMPDEST CALLVALUE DUP1 ISZERO PUSH2 0x299 JUMPI PUSH0 DUP1 REVERT JUMPDEST POP PUSH2 0x2A2 PUSH2 0x137D JUMP JUMPDEST PUSH1 0x40 MLOAD PUSH2 0x2AF SWAP2 SWAP1 PUSH2 0x26B8 JUMP JUMPDEST PUSH1 0x40 MLOAD DUP1 SWAP2 SUB SWAP1 RETURN JUMPDEST CALLVALUE DUP1 ISZERO PUSH2 0x2C3 JUMPI PUSH0 DUP1 REVERT JUMPDEST POP PUSH2 0x2CC PUSH2 0x13A2 JUMP JUMPDEST PUSH1 0x40 MLOAD PUSH2 0x2D9 SWAP2 SWAP1 PUSH2 0x2627 JUMP JUMPDEST PUSH1 0x40 MLOAD DUP1 SWAP2 SUB SWAP1 RETURN JUMPDEST CALLVALUE DUP1 ISZERO PUSH2 0x2ED JUMPI PUSH0 DUP1 REVERT JUMPDEST POP PUSH2 0x308 PUSH1 0x4 DUP1 CALLDATASIZE SUB DUP2 ADD SWAP1 PUSH2 0x303 SWAP2 SWAP1 PUSH2 0x2640 JUMP JUMPDEST PUSH2 0x13A8 JUMP JUMPDEST STOP JUMPDEST PUSH2 0x312 PUSH2 0x1673 JUMP JUMPDEST STOP JUMPDEST PUSH2 0x32E PUSH1 0x4 DUP1 CALLDATASIZE SUB DUP2 ADD SWAP1 PUSH2 0x329 SWAP2 SWAP1 PUSH2 0x2732 JUMP JUMPDEST PUSH2 0x1992 JUMP JUMPDEST STOP JUMPDEST CALLVALUE DUP1 ISZERO PUSH2 0x33B JUMPI PUSH0 DUP1 REVERT JUMPDEST POP PUSH2 0x356 PUSH1 0x4 DUP1 CALLDATASIZE SUB DUP2 ADD SWAP1 PUSH2 0x351 SWAP2 SWAP1 PUSH2 0x277D JUMP JUMPDEST PUSH2 0x19EC JUMP JUMPDEST PUSH1 0x40 MLOAD PUSH2 0x363 SWAP2 SWAP1 PUSH2 0x2627 JUMP JUMPDEST PUSH1 0x40 MLOAD DUP1 SWAP2 SUB SWAP1 RETURN JUMPDEST CALLVALUE DUP1 ISZERO PUSH2 0x377 JUMPI PUSH0 DUP1 REVERT JUMPDEST POP PUSH2 0x392 PUSH1 0x4 DUP1 CALLDATASIZE SUB DUP2 ADD SWAP1 PUSH2 0x38D SWAP2 SWAP1 PUSH2 0x267E JUMP JUMPDEST PUSH2 0x1A0C JUMP JUMPDEST STOP JUMPDEST CALLVALUE DUP1 ISZERO PUSH2 0x39F JUMPI PUSH0 DUP1 REVERT JUMPDEST POP PUSH2 0x3A8 PUSH2 0x1C60 JUMP JUMPDEST STOP JUMPDEST CALLVALUE DUP1 ISZERO PUSH2 0x3B5 JUMPI PUSH0 DUP1 REVERT JUMPDEST POP PUSH2 0x3BE PUSH2 0x1D56 JUMP JUMPDEST PUSH1 0x40 MLOAD PUSH2 0x3CB SWAP2 SWAP1 PUSH2 0x2845 JUMP JUMPDEST PUSH1 0x40 MLOAD DUP1 SWAP2 SUB SWAP1 RETURN JUMPDEST CALLVALUE DUP1 ISZERO PUSH2 0x3DF JUMPI PUSH0 DUP1 REVERT JUMPDEST POP PUSH2 0x3FA PUSH1 0x4 DUP1 CALLDATASIZE SUB DUP2 ADD SWAP1 PUSH2 0x3F5 SWAP2 SWAP1 PUSH2 0x244A JUMP JUMPDEST PUSH2 0x1DE1 JUMP JUMPDEST PUSH1 0x40 MLOAD PUSH2 0x407 SWAP2 SWAP1 PUSH2 0x2627 JUMP JUMPDEST PUSH1 0x40 MLOAD DUP1 SWAP2 SUB SWAP1 RETURN JUMPDEST PUSH2 0x42A PUSH1 0x4 DUP1 CALLDATASIZE SUB DUP2 ADD SWAP1 PUSH2 0x425 SWAP2 SWAP1 PUSH2 0x2865 JUMP JUMPDEST PUSH2 0x1DF6 JUMP JUMPDEST STOP JUMPDEST PUSH1 0x1 PUSH0 SWAP1 SLOAD SWAP1 PUSH2 0x100 EXP SWAP1 DIV PUSH20 0xFFFFFFFFFFFFFFFFFFFFFFFFFFFFFFFFFFFFFFFF AND PUSH20 0xFFFFFFFFFFFFFFFFFFFFFFFFFFFFFFFFFFFFFFFF AND CALLER PUSH20 0xFFFFFFFFFFFFFFFFFFFFFFFFFFFFFFFFFFFFFFFF AND EQ PUSH2 0x4BB JUMPI PUSH1 0x40 MLOAD PUSH32 0x8C379A000000000000000000000000000000000000000000000000000000000 DUP2 MSTORE PUSH1 0x4 ADD PUSH2 0x4B2 SWAP1 PUSH2 0x2913 JUMP JUMPDEST PUSH1 0x40 MLOAD DUP1 SWAP2 SUB SWAP1 REVERT JUMPDEST PUSH0 PUSH20 0x760AFE86E5DE5FA0EE542FC7B7B713E1C5425701 SWAP1 POP PUSH0 DUP2 SWAP1 POP PUSH0 DUP2 PUSH20 0xFFFFFFFFFFFFFFFFFFFFFFFFFFFFFFFFFFFFFFFF AND PUSH4 0x70A08231 ADDRESS PUSH1 0x40 MLOAD DUP3 PUSH4 0xFFFFFFFF AND PUSH1 0xE0 SHL DUP2 MSTORE PUSH1 0x4 ADD PUSH2 0x511 SWAP2 SWAP1 PUSH2 0x26B8 JUMP JUMPDEST PUSH1 0x20 PUSH1 0x40 MLOAD DUP1 DUP4 SUB DUP2 DUP7 GAS STATICCALL ISZERO DUP1 ISZERO PUSH2 0x52C JUMPI RETURNDATASIZE PUSH0 DUP1 RETURNDATACOPY RETURNDATASIZE PUSH0 REVERT JUMPDEST POP POP POP POP PUSH1 0x40 MLOAD RETURNDATASIZE PUSH1 0x1F NOT PUSH1 0x1F DUP3 ADD AND DUP3 ADD DUP1 PUSH1 0x40 MSTORE POP DUP2 ADD SWAP1 PUSH2 0x550 SWAP2 SWAP1 PUSH2 0x2945 JUMP JUMPDEST SWAP1 POP PUSH0 DUP2 GT PUSH2 0x594 JUMPI PUSH1 0x40 MLOAD PUSH32 0x8C379A000000000000000000000000000000000000000000000000000000000 DUP2 MSTORE PUSH1 0x4 ADD PUSH2 0x58B SWAP1 PUSH2 0x29BA JUMP JUMPDEST PUSH1 0x40 MLOAD DUP1 SWAP2 SUB SWAP1 REVERT JUMPDEST DUP2 PUSH20 0xFFFFFFFFFFFFFFFFFFFFFFFFFFFFFFFFFFFFFFFF AND PUSH4 0xA9059CBB PUSH1 0x1 PUSH0 SWAP1 SLOAD SWAP1 PUSH2 0x100 EXP SWAP1 DIV PUSH20 0xFFFFFFFFFFFFFFFFFFFFFFFFFFFFFFFFFFFFFFFF AND DUP4 PUSH1 0x40 MLOAD DUP4 PUSH4 0xFFFFFFFF AND PUSH1 0xE0 SHL DUP2 MSTORE PUSH1 0x4 ADD PUSH2 0x5F0 SWAP3 SWAP2 SWAP1 PUSH2 0x29D8 JUMP JUMPDEST PUSH1 0x20 PUSH1 0x40 MLOAD DUP1 DUP4 SUB DUP2 PUSH0 DUP8 GAS CALL ISZERO DUP1 ISZERO PUSH2 0x60C JUMPI RETURNDATASIZE PUSH0 DUP1 RETURNDATACOPY RETURNDATASIZE PUSH0 REVERT JUMPDEST POP POP POP POP PUSH1 0x40 MLOAD RETURNDATASIZE PUSH1 0x1F NOT PUSH1 0x1F DUP3 ADD AND DUP3 ADD DUP1 PUSH1 0x40 MSTORE POP DUP2 ADD SWAP1 PUSH2 0x630 SWAP2 SWAP1 PUSH2 0x2A34 JUMP JUMPDEST POP POP POP POP JUMP JUMPDEST PUSH0 DUP2 GT PUSH2 0x678 JUMPI PUSH1 0x40 MLOAD PUSH32 0x8C379A000000000000000000000000000000000000000000000000000000000 DUP2 MSTORE PUSH1 0x4 ADD PUSH2 0x66F SWAP1 PUSH2 0x2AA9 JUMP JUMPDEST PUSH1 0x40 MLOAD DUP1 SWAP2 SUB SWAP1 REVERT JUMPDEST PUSH0 PUSH20 0xFFFFFFFFFFFFFFFFFFFFFFFFFFFFFFFFFFFFFFFF AND DUP4 PUSH20 0xFFFFFFFFFFFFFFFFFFFFFFFFFFFFFFFFFFFFFFFF AND EQ ISZERO DUP1 ISZERO PUSH2 0x6E0 JUMPI POP PUSH0 PUSH20 0xFFFFFFFFFFFFFFFFFFFFFFFFFFFFFFFFFFFFFFFF AND DUP3 PUSH20 0xFFFFFFFFFFFFFFFFFFFFFFFFFFFFFFFFFFFFFFFF AND EQ ISZERO JUMPDEST PUSH2 0x71F JUMPI PUSH1 0x40 MLOAD PUSH32 0x8C379A000000000000000000000000000000000000000000000000000000000 DUP2 MSTORE PUSH1 0x4 ADD PUSH2 0x716 SWAP1 PUSH2 0x2B11 JUMP JUMPDEST PUSH1 0x40 MLOAD DUP1 SWAP2 SUB SWAP1 REVERT JUMPDEST PUSH0 DUP4 SWAP1 POP PUSH0 DUP4 SWAP1 POP PUSH0 DUP3 PUSH20 0xFFFFFFFFFFFFFFFFFFFFFFFFFFFFFFFFFFFFFFFF AND PUSH4 0xDD62ED3E CALLER ADDRESS PUSH1 0x40 MLOAD DUP4 PUSH4 0xFFFFFFFF AND PUSH1 0xE0 SHL DUP2 MSTORE PUSH1 0x4 ADD PUSH2 0x763 SWAP3 SWAP2 SWAP1 PUSH2 0x2B2F JUMP JUMPDEST PUSH1 0x20 PUSH1 0x40 MLOAD DUP1 DUP4 SUB DUP2 DUP7 GAS STATICCALL ISZERO DUP1 ISZERO PUSH2 0x77E JUMPI RETURNDATASIZE PUSH0 DUP1 RETURNDATACOPY RETURNDATASIZE PUSH0 REVERT JUMPDEST POP POP POP POP PUSH1 0x40 MLOAD RETURNDATASIZE PUSH1 0x1F NOT PUSH1 0x1F DUP3 ADD AND DUP3 ADD DUP1 PUSH1 0x40 MSTORE POP DUP2 ADD SWAP1 PUSH2 0x7A2 SWAP2 SWAP1 PUSH2 0x2945 JUMP JUMPDEST SWAP1 POP DUP4 DUP2 LT ISZERO PUSH2 0x7E7 JUMPI PUSH1 0x40 MLOAD PUSH32 0x8C379A000000000000000000000000000000000000000000000000000000000 DUP2 MSTORE PUSH1 0x4 ADD PUSH2 0x7DE SWAP1 PUSH2 0x2BA0 JUMP JUMPDEST PUSH1 0x40 MLOAD DUP1 SWAP2 SUB SWAP1 REVERT JUMPDEST PUSH0 DUP4 PUSH20 0xFFFFFFFFFFFFFFFFFFFFFFFFFFFFFFFFFFFFFFFF AND PUSH4 0x23B872DD CALLER ADDRESS DUP9 PUSH1 0x40 MLOAD DUP5 PUSH4 0xFFFFFFFF AND PUSH1 0xE0 SHL DUP2 MSTORE PUSH1 0x4 ADD PUSH2 0x825 SWAP4 SWAP3 SWAP2 SWAP1 PUSH2 0x2BBE JUMP JUMPDEST PUSH1 0x20 PUSH1 0x40 MLOAD DUP1 DUP4 SUB DUP2 PUSH0 DUP8 GAS CALL ISZERO DUP1 ISZERO PUSH2 0x841 JUMPI RETURNDATASIZE PUSH0 DUP1 RETURNDATACOPY RETURNDATASIZE PUSH0 REVERT JUMPDEST POP POP POP POP PUSH1 0x40 MLOAD RETURNDATASIZE PUSH1 0x1F NOT PUSH1 0x1F DUP3 ADD AND DUP3 ADD DUP1 PUSH1 0x40 MSTORE POP DUP2 ADD SWAP1 PUSH2 0x865 SWAP2 SWAP1 PUSH2 0x2A34 JUMP JUMPDEST SWAP1 POP DUP1 PUSH2 0x8A7 JUMPI PUSH1 0x40 MLOAD PUSH32 0x8C379A000000000000000000000000000000000000000000000000000000000 DUP2 MSTORE PUSH1 0x4 ADD PUSH2 0x89E SWAP1 PUSH2 0x2C3D JUMP JUMPDEST PUSH1 0x40 MLOAD DUP1 SWAP2 SUB SWAP1 REVERT JUMPDEST PUSH0 DUP4 PUSH20 0xFFFFFFFFFFFFFFFFFFFFFFFFFFFFFFFFFFFFFFFF AND PUSH4 0x70A08231 ADDRESS PUSH1 0x40 MLOAD DUP3 PUSH4 0xFFFFFFFF AND PUSH1 0xE0 SHL DUP2 MSTORE PUSH1 0x4 ADD PUSH2 0x8E1 SWAP2 SWAP1 PUSH2 0x26B8 JUMP JUMPDEST PUSH1 0x20 PUSH1 0x40 MLOAD DUP1 DUP4 SUB DUP2 DUP7 GAS STATICCALL ISZERO DUP1 ISZERO PUSH2 0x8FC JUMPI RETURNDATASIZE PUSH0 DUP1 RETURNDATACOPY RETURNDATASIZE PUSH0 REVERT JUMPDEST POP POP POP POP PUSH1 0x40 MLOAD RETURNDATASIZE PUSH1 0x1F NOT PUSH1 0x1F DUP3 ADD AND DUP3 ADD DUP1 PUSH1 0x40 MSTORE POP DUP2 ADD SWAP1 PUSH2 0x920 SWAP2 SWAP1 PUSH2 0x2945 JUMP JUMPDEST SWAP1 POP DUP6 DUP2 LT ISZERO PUSH2 0x965 JUMPI PUSH1 0x40 MLOAD PUSH32 0x8C379A000000000000000000000000000000000000000000000000000000000 DUP2 MSTORE PUSH1 0x4 ADD PUSH2 0x95C SWAP1 PUSH2 0x2CA5 JUMP JUMPDEST PUSH1 0x40 MLOAD DUP1 SWAP2 SUB SWAP1 REVERT JUMPDEST PUSH0 DUP5 PUSH20 0xFFFFFFFFFFFFFFFFFFFFFFFFFFFFFFFFFFFFFFFF AND PUSH4 0xA9059CBB CALLER DUP10 PUSH1 0x40 MLOAD DUP4 PUSH4 0xFFFFFFFF AND PUSH1 0xE0 SHL DUP2 MSTORE PUSH1 0x4 ADD PUSH2 0x9A1 SWAP3 SWAP2 SWAP1 PUSH2 0x29D8 JUMP JUMPDEST PUSH1 0x20 PUSH1 0x40 MLOAD DUP1 DUP4 SUB DUP2 PUSH0 DUP8 GAS CALL ISZERO DUP1 ISZERO PUSH2 0x9BD JUMPI RETURNDATASIZE PUSH0 DUP1 RETURNDATACOPY RETURNDATASIZE PUSH0 REVERT JUMPDEST POP POP POP POP PUSH1 0x40 MLOAD RETURNDATASIZE PUSH1 0x1F NOT PUSH1 0x1F DUP3 ADD AND DUP3 ADD DUP1 PUSH1 0x40 MSTORE POP DUP2 ADD SWAP1 PUSH2 0x9E1 SWAP2 SWAP1 PUSH2 0x2A34 JUMP JUMPDEST SWAP1 POP DUP1 PUSH2 0xA23 JUMPI PUSH1 0x40 MLOAD PUSH32 0x8C379A000000000000000000000000000000000000000000000000000000000 DUP2 MSTORE PUSH1 0x4 ADD PUSH2 0xA1A SWAP1 PUSH2 0x2D0D JUMP JUMPDEST PUSH1 0x40 MLOAD DUP1 SWAP2 SUB SWAP1 REVERT JUMPDEST POP POP POP POP POP POP POP POP POP JUMP JUMPDEST PUSH1 0x60 DUP1 PUSH0 PUSH1 0x5 DUP1 SLOAD SWAP1 POP SWAP1 POP DUP1 PUSH8 0xFFFFFFFFFFFFFFFF DUP2 GT ISZERO PUSH2 0xA54 JUMPI PUSH2 0xA53 PUSH2 0x2D2B JUMP JUMPDEST JUMPDEST PUSH1 0x40 MLOAD SWAP1 DUP1 DUP3 MSTORE DUP1 PUSH1 0x20 MUL PUSH1 0x20 ADD DUP3 ADD PUSH1 0x40 MSTORE DUP1 ISZERO PUSH2 0xA82 JUMPI DUP2 PUSH1 0x20 ADD PUSH1 0x20 DUP3 MUL DUP1 CALLDATASIZE DUP4 CALLDATACOPY DUP1 DUP3 ADD SWAP2 POP POP SWAP1 POP JUMPDEST POP SWAP3 POP DUP1 PUSH8 0xFFFFFFFFFFFFFFFF DUP2 GT ISZERO PUSH2 0xA9F JUMPI PUSH2 0xA9E PUSH2 0x2D2B JUMP JUMPDEST JUMPDEST PUSH1 0x40 MLOAD SWAP1 DUP1 DUP3 MSTORE DUP1 PUSH1 0x20 MUL PUSH1 0x20 ADD DUP3 ADD PUSH1 0x40 MSTORE DUP1 ISZERO PUSH2 0xACD JUMPI DUP2 PUSH1 0x20 ADD PUSH1 0x20 DUP3 MUL DUP1 CALLDATASIZE DUP4 CALLDATACOPY DUP1 DUP3 ADD SWAP2 POP POP SWAP1 POP JUMPDEST POP SWAP2 POP PUSH0 JUMPDEST DUP2 DUP2 LT ISZERO PUSH2 0xC13 JUMPI PUSH0 PUSH1 0x5 DUP3 DUP2 SLOAD DUP2 LT PUSH2 0xAEF JUMPI PUSH2 0xAEE PUSH2 0x2D58 JUMP JUMPDEST JUMPDEST SWAP1 PUSH0 MSTORE PUSH1 0x20 PUSH0 KECCAK256 ADD PUSH0 SWAP1 SLOAD SWAP1 PUSH2 0x100 EXP SWAP1 DIV PUSH20 0xFFFFFFFFFFFFFFFFFFFFFFFFFFFFFFFFFFFFFFFF AND SWAP1 POP DUP1 DUP6 DUP4 DUP2 MLOAD DUP2 LT PUSH2 0xB2D JUMPI PUSH2 0xB2C PUSH2 0x2D58 JUMP JUMPDEST JUMPDEST PUSH1 0x20 MUL PUSH1 0x20 ADD ADD SWAP1 PUSH20 0xFFFFFFFFFFFFFFFFFFFFFFFFFFFFFFFFFFFFFFFF AND SWAP1 DUP2 PUSH20 0xFFFFFFFFFFFFFFFFFFFFFFFFFFFFFFFFFFFFFFFF AND DUP2 MSTORE POP POP PUSH1 0x4 PUSH0 DUP8 PUSH20 0xFFFFFFFFFFFFFFFFFFFFFFFFFFFFFFFFFFFFFFFF AND PUSH20 0xFFFFFFFFFFFFFFFFFFFFFFFFFFFFFFFFFFFFFFFF AND DUP2 MSTORE PUSH1 0x20 ADD SWAP1 DUP2 MSTORE PUSH1 0x20 ADD PUSH0 KECCAK256 PUSH0 DUP3 PUSH20 0xFFFFFFFFFFFFFFFFFFFFFFFFFFFFFFFFFFFFFFFF AND PUSH20 0xFFFFFFFFFFFFFFFFFFFFFFFFFFFFFFFFFFFFFFFF AND DUP2 MSTORE PUSH1 0x20 ADD SWAP1 DUP2 MSTORE PUSH1 0x20 ADD PUSH0 KECCAK256 SLOAD DUP5 DUP4 DUP2 MLOAD DUP2 LT PUSH2 0xBF3 JUMPI PUSH2 0xBF2 PUSH2 0x2D58 JUMP JUMPDEST JUMPDEST PUSH1 0x20 MUL PUSH1 0x20 ADD ADD DUP2 DUP2 MSTORE POP POP POP DUP1 DUP1 PUSH2 0xC0B SWAP1 PUSH2 0x2DB2 JUMP JUMPDEST SWAP2 POP POP PUSH2 0xAD2 JUMP JUMPDEST POP POP SWAP2 POP SWAP2 JUMP JUMPDEST PUSH0 DUP1 DUP3 PUSH20 0xFFFFFFFFFFFFFFFFFFFFFFFFFFFFFFFFFFFFFFFF AND PUSH4 0x313CE567 PUSH1 0x40 MLOAD DUP2 PUSH4 0xFFFFFFFF AND PUSH1 0xE0 SHL DUP2 MSTORE PUSH1 0x4 ADD PUSH1 0x20 PUSH1 0x40 MLOAD DUP1 DUP4 SUB DUP2 DUP7 GAS STATICCALL ISZERO DUP1 ISZERO PUSH2 0xC65 JUMPI RETURNDATASIZE PUSH0 DUP1 RETURNDATACOPY RETURNDATASIZE PUSH0 REVERT JUMPDEST POP POP POP POP PUSH1 0x40 MLOAD RETURNDATASIZE PUSH1 0x1F NOT PUSH1 0x1F DUP3 ADD AND DUP3 ADD DUP1 PUSH1 0x40 MSTORE POP DUP2 ADD SWAP1 PUSH2 0xC89 SWAP2 SWAP1 PUSH2 0x2E2F JUMP JUMPDEST SWAP1 POP DUP1 PUSH1 0xA PUSH2 0xC98 SWAP2 SWAP1 PUSH2 0x2F89 JUMP JUMPDEST PUSH1 0x3 PUSH0 DUP6 PUSH20 0xFFFFFFFFFFFFFFFFFFFFFFFFFFFFFFFFFFFFFFFF AND PUSH20 0xFFFFFFFFFFFFFFFFFFFFFFFFFFFFFFFFFFFFFFFF AND DUP2 MSTORE PUSH1 0x20 ADD SWAP1 DUP2 MSTORE PUSH1 0x20 ADD PUSH0 KECCAK256 SLOAD PUSH2 0xCE0 SWAP2 SWAP1 PUSH2 0x3000 JUMP JUMPDEST SWAP2 POP POP SWAP2 SWAP1 POP JUMP JUMPDEST PUSH0 DUP2 GT PUSH2 0xD2A JUMPI PUSH1 0x40 MLOAD PUSH32 0x8C379A000000000000000000000000000000000000000000000000000000000 DUP2 MSTORE PUSH1 0x4 ADD PUSH2 0xD21 SWAP1 PUSH2 0x307A JUMP JUMPDEST PUSH1 0x40 MLOAD DUP1 SWAP2 SUB SWAP1 REVERT JUMPDEST PUSH0 DUP3 SWAP1 POP PUSH0 PUSH2 0xD39 DUP5 DUP5 PUSH2 0x22D0 JUMP JUMPDEST SWAP1 POP PUSH0 DUP3 PUSH20 0xFFFFFFFFFFFFFFFFFFFFFFFFFFFFFFFFFFFFFFFF AND PUSH4 0xDD62ED3E CALLER ADDRESS PUSH1 0x40 MLOAD DUP4 PUSH4 0xFFFFFFFF AND PUSH1 0xE0 SHL DUP2 MSTORE PUSH1 0x4 ADD PUSH2 0xD77 SWAP3 SWAP2 SWAP1 PUSH2 0x2B2F JUMP JUMPDEST PUSH1 0x20 PUSH1 0x40 MLOAD DUP1 DUP4 SUB DUP2 DUP7 GAS STATICCALL ISZERO DUP1 ISZERO PUSH2 0xD92 JUMPI RETURNDATASIZE PUSH0 DUP1 RETURNDATACOPY RETURNDATASIZE PUSH0 REVERT JUMPDEST POP POP POP POP PUSH1 0x40 MLOAD RETURNDATASIZE PUSH1 0x1F NOT PUSH1 0x1F DUP3 ADD AND DUP3 ADD DUP1 PUSH1 0x40 MSTORE POP DUP2 ADD SWAP1 PUSH2 0xDB6 SWAP2 SWAP1 PUSH2 0x2945 JUMP JUMPDEST SWAP1 POP DUP2 DUP2 LT ISZERO PUSH2 0xDFB JUMPI PUSH1 0x40 MLOAD PUSH32 0x8C379A000000000000000000000000000000000000000000000000000000000 DUP2 MSTORE PUSH1 0x4 ADD PUSH2 0xDF2 SWAP1 PUSH2 0x30E2 JUMP JUMPDEST PUSH1 0x40 MLOAD DUP1 SWAP2 SUB SWAP1 REVERT JUMPDEST PUSH0 DUP4 PUSH20 0xFFFFFFFFFFFFFFFFFFFFFFFFFFFFFFFFFFFFFFFF AND PUSH4 0x23B872DD CALLER ADDRESS DUP7 PUSH1 0x40 MLOAD DUP5 PUSH4 0xFFFFFFFF AND PUSH1 0xE0 SHL DUP2 MSTORE PUSH1 0x4 ADD PUSH2 0xE39 SWAP4 SWAP3 SWAP2 SWAP1 PUSH2 0x2BBE JUMP JUMPDEST PUSH1 0x20 PUSH1 0x40 MLOAD DUP1 DUP4 SUB DUP2 PUSH0 DUP8 GAS CALL ISZERO DUP1 ISZERO PUSH2 0xE55 JUMPI RETURNDATASIZE PUSH0 DUP1 RETURNDATACOPY RETURNDATASIZE PUSH0 REVERT JUMPDEST POP POP POP POP PUSH1 0x40 MLOAD RETURNDATASIZE PUSH1 0x1F NOT PUSH1 0x1F DUP3 ADD AND DUP3 ADD DUP1 PUSH1 0x40 MSTORE POP DUP2 ADD SWAP1 PUSH2 0xE79 SWAP2 SWAP1 PUSH2 0x2A34 JUMP JUMPDEST SWAP1 POP DUP1 PUSH2 0xEBB JUMPI PUSH1 0x40 MLOAD PUSH32 0x8C379A000000000000000000000000000000000000000000000000000000000 DUP2 MSTORE PUSH1 0x4 ADD PUSH2 0xEB2 SWAP1 PUSH2 0x314A JUMP JUMPDEST PUSH1 0x40 MLOAD DUP1 SWAP2 SUB SWAP1 REVERT JUMPDEST DUP3 PUSH1 0x3 PUSH0 DUP9 PUSH20 0xFFFFFFFFFFFFFFFFFFFFFFFFFFFFFFFFFFFFFFFF AND PUSH20 0xFFFFFFFFFFFFFFFFFFFFFFFFFFFFFFFFFFFFFFFF AND DUP2 MSTORE PUSH1 0x20 ADD SWAP1 DUP2 MSTORE PUSH1 0x20 ADD PUSH0 KECCAK256 PUSH0 DUP3 DUP3 SLOAD PUSH2 0xF07 SWAP2 SWAP1 PUSH2 0x3168 JUMP JUMPDEST SWAP3 POP POP DUP2 SWAP1 SSTORE POP CALLER PUSH20 0xFFFFFFFFFFFFFFFFFFFFFFFFFFFFFFFFFFFFFFFF AND PUSH32 0x8752A472E571A816AEA92EEC8DAE9BAF628E840F4929FBCC2D155E6233FF68A7 DUP8 DUP6 PUSH1 0x40 MLOAD PUSH2 0xF56 SWAP3 SWAP2 SWAP1 PUSH2 0x29D8 JUMP JUMPDEST PUSH1 0x40 MLOAD DUP1 SWAP2 SUB SWAP1 LOG2 POP POP POP POP POP POP JUMP JUMPDEST PUSH1 0x60 DUP1 PUSH0 PUSH1 0x5 DUP1 SLOAD SWAP1 POP SWAP1 POP DUP1 PUSH8 0xFFFFFFFFFFFFFFFF DUP2 GT ISZERO PUSH2 0xF8C JUMPI PUSH2 0xF8B PUSH2 0x2D2B JUMP JUMPDEST JUMPDEST PUSH1 0x40 MLOAD SWAP1 DUP1 DUP3 MSTORE DUP1 PUSH1 0x20 MUL PUSH1 0x20 ADD DUP3 ADD PUSH1 0x40 MSTORE DUP1 ISZERO PUSH2 0xFBA JUMPI DUP2 PUSH1 0x20 ADD PUSH1 0x20 DUP3 MUL DUP1 CALLDATASIZE DUP4 CALLDATACOPY DUP1 DUP3 ADD SWAP2 POP POP SWAP1 POP JUMPDEST POP SWAP3 POP DUP1 PUSH8 0xFFFFFFFFFFFFFFFF DUP2 GT ISZERO PUSH2 0xFD7 JUMPI PUSH2 0xFD6 PUSH2 0x2D2B JUMP JUMPDEST JUMPDEST PUSH1 0x40 MLOAD SWAP1 DUP1 DUP3 MSTORE DUP1 PUSH1 0x20 MUL PUSH1 0x20 ADD DUP3 ADD PUSH1 0x40 MSTORE DUP1 ISZERO PUSH2 0x1005 JUMPI DUP2 PUSH1 0x20 ADD PUSH1 0x20 DUP3 MUL DUP1 CALLDATASIZE DUP4 CALLDATACOPY DUP1 DUP3 ADD SWAP2 POP POP SWAP1 POP JUMPDEST POP SWAP2 POP PUSH0 JUMPDEST DUP2 DUP2 LT ISZERO PUSH2 0x114A JUMPI PUSH0 PUSH1 0x5 DUP3 DUP2 SLOAD DUP2 LT PUSH2 0x1027 JUMPI PUSH2 0x1026 PUSH2 0x2D58 JUMP JUMPDEST JUMPDEST SWAP1 PUSH0 MSTORE PUSH1 0x20 PUSH0 KECCAK256 ADD PUSH0 SWAP1 SLOAD SWAP1 PUSH2 0x100 EXP SWAP1 DIV PUSH20 0xFFFFFFFFFFFFFFFFFFFFFFFFFFFFFFFFFFFFFFFF AND SWAP1 POP DUP1 DUP6 DUP4 DUP2 MLOAD DUP2 LT PUSH2 0x1065 JUMPI PUSH2 0x1064 PUSH2 0x2D58 JUMP JUMPDEST JUMPDEST PUSH1 0x20 MUL PUSH1 0x20 ADD ADD SWAP1 PUSH20 0xFFFFFFFFFFFFFFFFFFFFFFFFFFFFFFFFFFFFFFFF AND SWAP1 DUP2 PUSH20 0xFFFFFFFFFFFFFFFFFFFFFFFFFFFFFFFFFFFFFFFF AND DUP2 MSTORE POP POP DUP1 PUSH20 0xFFFFFFFFFFFFFFFFFFFFFFFFFFFFFFFFFFFFFFFF AND PUSH4 0x70A08231 ADDRESS PUSH1 0x40 MLOAD DUP3 PUSH4 0xFFFFFFFF AND PUSH1 0xE0 SHL DUP2 MSTORE PUSH1 0x4 ADD PUSH2 0x10D8 SWAP2 SWAP1 PUSH2 0x26B8 JUMP JUMPDEST PUSH1 0x20 PUSH1 0x40 MLOAD DUP1 DUP4 SUB DUP2 DUP7 GAS STATICCALL ISZERO DUP1 ISZERO PUSH2 0x10F3 JUMPI RETURNDATASIZE PUSH0 DUP1 RETURNDATACOPY RETURNDATASIZE PUSH0 REVERT JUMPDEST POP POP POP POP PUSH1 0x40 MLOAD RETURNDATASIZE PUSH1 0x1F NOT PUSH1 0x1F DUP3 ADD AND DUP3 ADD DUP1 PUSH1 0x40 MSTORE POP DUP2 ADD SWAP1 PUSH2 0x1117 SWAP2 SWAP1 PUSH2 0x2945 JUMP JUMPDEST DUP5 DUP4 DUP2 MLOAD DUP2 LT PUSH2 0x112A JUMPI PUSH2 0x1129 PUSH2 0x2D58 JUMP JUMPDEST JUMPDEST PUSH1 0x20 MUL PUSH1 0x20 ADD ADD DUP2 DUP2 MSTORE POP POP POP DUP1 DUP1 PUSH2 0x1142 SWAP1 PUSH2 0x2DB2 JUMP JUMPDEST SWAP2 POP POP PUSH2 0x100A JUMP JUMPDEST POP POP SWAP1 SWAP2 JUMP JUMPDEST PUSH1 0x5 DUP2 DUP2 SLOAD DUP2 LT PUSH2 0x115F JUMPI PUSH0 DUP1 REVERT JUMPDEST SWAP1 PUSH0 MSTORE PUSH1 0x20 PUSH0 KECCAK256 ADD PUSH0 SWAP2 POP SLOAD SWAP1 PUSH2 0x100 EXP SWAP1 DIV PUSH20 0xFFFFFFFFFFFFFFFFFFFFFFFFFFFFFFFFFFFFFFFF AND DUP2 JUMP JUMPDEST PUSH1 0x1 PUSH0 SWAP1 SLOAD SWAP1 PUSH2 0x100 EXP SWAP1 DIV PUSH20 0xFFFFFFFFFFFFFFFFFFFFFFFFFFFFFFFFFFFFFFFF AND PUSH20 0xFFFFFFFFFFFFFFFFFFFFFFFFFFFFFFFFFFFFFFFF AND CALLER PUSH20 0xFFFFFFFFFFFFFFFFFFFFFFFFFFFFFFFFFFFFFFFF AND EQ PUSH2 0x121A JUMPI PUSH1 0x40 MLOAD PUSH32 0x8C379A000000000000000000000000000000000000000000000000000000000 DUP2 MSTORE PUSH1 0x4 ADD PUSH2 0x1211 SWAP1 PUSH2 0x2913 JUMP JUMPDEST PUSH1 0x40 MLOAD DUP1 SWAP2 SUB SWAP1 REVERT JUMPDEST PUSH0 DUP2 SWAP1 POP PUSH0 DUP2 PUSH20 0xFFFFFFFFFFFFFFFFFFFFFFFFFFFFFFFFFFFFFFFF AND PUSH4 0x70A08231 ADDRESS PUSH1 0x40 MLOAD DUP3 PUSH4 0xFFFFFFFF AND PUSH1 0xE0 SHL DUP2 MSTORE PUSH1 0x4 ADD PUSH2 0x1258 SWAP2 SWAP1 PUSH2 0x26B8 JUMP JUMPDEST PUSH1 0x20 PUSH1 0x40 MLOAD DUP1 DUP4 SUB DUP2 DUP7 GAS STATICCALL ISZERO DUP1 ISZERO PUSH2 0x1273 JUMPI RETURNDATASIZE PUSH0 DUP1 RETURNDATACOPY RETURNDATASIZE PUSH0 REVERT JUMPDEST POP POP POP POP PUSH1 0x40 MLOAD RETURNDATASIZE PUSH1 0x1F NOT PUSH1 0x1F DUP3 ADD AND DUP3 ADD DUP1 PUSH1 0x40 MSTORE POP DUP2 ADD SWAP1 PUSH2 0x1297 SWAP2 SWAP1 PUSH2 0x2945 JUMP JUMPDEST SWAP1 POP PUSH0 DUP2 GT PUSH2 0x12DB JUMPI PUSH1 0x40 MLOAD PUSH32 0x8C379A000000000000000000000000000000000000000000000000000000000 DUP2 MSTORE PUSH1 0x4 ADD PUSH2 0x12D2 SWAP1 PUSH2 0x29BA JUMP JUMPDEST PUSH1 0x40 MLOAD DUP1 SWAP2 SUB SWAP1 REVERT JUMPDEST DUP2 PUSH20 0xFFFFFFFFFFFFFFFFFFFFFFFFFFFFFFFFFFFFFFFF AND PUSH4 0xA9059CBB PUSH1 0x1 PUSH0 SWAP1 SLOAD SWAP1 PUSH2 0x100 EXP SWAP1 DIV PUSH20 0xFFFFFFFFFFFFFFFFFFFFFFFFFFFFFFFFFFFFFFFF AND DUP4 PUSH1 0x40 MLOAD DUP4 PUSH4 0xFFFFFFFF AND PUSH1 0xE0 SHL DUP2 MSTORE PUSH1 0x4 ADD PUSH2 0x1337 SWAP3 SWAP2 SWAP1 PUSH2 0x29D8 JUMP JUMPDEST PUSH1 0x20 PUSH1 0x40 MLOAD DUP1 DUP4 SUB DUP2 PUSH0 DUP8 GAS CALL ISZERO DUP1 ISZERO PUSH2 0x1353 JUMPI RETURNDATASIZE PUSH0 DUP1 RETURNDATACOPY RETURNDATASIZE PUSH0 REVERT JUMPDEST POP POP POP POP PUSH1 0x40 MLOAD RETURNDATASIZE PUSH1 0x1F NOT PUSH1 0x1F DUP3 ADD AND DUP3 ADD DUP1 PUSH1 0x40 MSTORE POP DUP2 ADD SWAP1 PUSH2 0x1377 SWAP2 SWAP1 PUSH2 0x2A34 JUMP JUMPDEST POP POP POP POP JUMP JUMPDEST PUSH1 0x1 PUSH0 SWAP1 SLOAD SWAP1 PUSH2 0x100 EXP SWAP1 DIV PUSH20 0xFFFFFFFFFFFFFFFFFFFFFFFFFFFFFFFFFFFFFFFF AND DUP2 JUMP JUMPDEST PUSH1 0x2 SLOAD DUP2 JUMP JUMPDEST PUSH1 0x1 PUSH0 SWAP1 SLOAD SWAP1 PUSH2 0x100 EXP SWAP1 DIV PUSH20 0xFFFFFFFFFFFFFFFFFFFFFFFFFFFFFFFFFFFFFFFF AND PUSH20 0xFFFFFFFFFFFFFFFFFFFFFFFFFFFFFFFFFFFFFFFF AND CALLER PUSH20 0xFFFFFFFFFFFFFFFFFFFFFFFFFFFFFFFFFFFFFFFF AND EQ PUSH2 0x1437 JUMPI PUSH1 0x40 MLOAD PUSH32 0x8C379A000000000000000000000000000000000000000000000000000000000 DUP2 MSTORE PUSH1 0x4 ADD PUSH2 0x142E SWAP1 PUSH2 0x2913 JUMP JUMPDEST PUSH1 0x40 MLOAD DUP1 SWAP2 SUB SWAP1 REVERT JUMPDEST PUSH0 DUP3 SWAP1 POP PUSH0 PUSH2 0x1446 DUP5 DUP5 PUSH2 0x22D0 JUMP JUMPDEST SWAP1 POP PUSH0 DUP3 PUSH20 0xFFFFFFFFFFFFFFFFFFFFFFFFFFFFFFFFFFFFFFFF AND PUSH4 0xDD62ED3E CALLER ADDRESS PUSH1 0x40 MLOAD DUP4 PUSH4 0xFFFFFFFF AND PUSH1 0xE0 SHL DUP2 MSTORE PUSH1 0x4 ADD PUSH2 0x1484 SWAP3 SWAP2 SWAP1 PUSH2 0x2B2F JUMP JUMPDEST PUSH1 0x20 PUSH1 0x40 MLOAD DUP1 DUP4 SUB DUP2 DUP7 GAS STATICCALL ISZERO DUP1 ISZERO PUSH2 0x149F JUMPI RETURNDATASIZE PUSH0 DUP1 RETURNDATACOPY RETURNDATASIZE PUSH0 REVERT JUMPDEST POP POP POP POP PUSH1 0x40 MLOAD RETURNDATASIZE PUSH1 0x1F NOT PUSH1 0x1F DUP3 ADD AND DUP3 ADD DUP1 PUSH1 0x40 MSTORE POP DUP2 ADD SWAP1 PUSH2 0x14C3 SWAP2 SWAP1 PUSH2 0x2945 JUMP JUMPDEST SWAP1 POP DUP2 DUP2 LT ISZERO PUSH2 0x1508 JUMPI PUSH1 0x40 MLOAD PUSH32 0x8C379A000000000000000000000000000000000000000000000000000000000 DUP2 MSTORE PUSH1 0x4 ADD PUSH2 0x14FF SWAP1 PUSH2 0x30E2 JUMP JUMPDEST PUSH1 0x40 MLOAD DUP1 SWAP2 SUB SWAP1 REVERT JUMPDEST PUSH0 DUP4 PUSH20 0xFFFFFFFFFFFFFFFFFFFFFFFFFFFFFFFFFFFFFFFF AND PUSH4 0x23B872DD CALLER ADDRESS DUP7 PUSH1 0x40 MLOAD DUP5 PUSH4 0xFFFFFFFF AND PUSH1 0xE0 SHL DUP2 MSTORE PUSH1 0x4 ADD PUSH2 0x1546 SWAP4 SWAP3 SWAP2 SWAP1 PUSH2 0x2BBE JUMP JUMPDEST PUSH1 0x20 PUSH1 0x40 MLOAD DUP1 DUP4 SUB DUP2 PUSH0 DUP8 GAS CALL ISZERO DUP1 ISZERO PUSH2 0x1562 JUMPI RETURNDATASIZE PUSH0 DUP1 RETURNDATACOPY RETURNDATASIZE PUSH0 REVERT JUMPDEST POP POP POP POP PUSH1 0x40 MLOAD RETURNDATASIZE PUSH1 0x1F NOT PUSH1 0x1F DUP3 ADD AND DUP3 ADD DUP1 PUSH1 0x40 MSTORE POP DUP2 ADD SWAP1 PUSH2 0x1586 SWAP2 SWAP1 PUSH2 0x2A34 JUMP JUMPDEST SWAP1 POP DUP1 PUSH2 0x15C8 JUMPI PUSH1 0x40 MLOAD PUSH32 0x8C379A000000000000000000000000000000000000000000000000000000000 DUP2 MSTORE PUSH1 0x4 ADD PUSH2 0x15BF SWAP1 PUSH2 0x314A JUMP JUMPDEST PUSH1 0x40 MLOAD DUP1 SWAP2 SUB SWAP1 REVERT JUMPDEST DUP3 PUSH1 0x3 PUSH0 DUP9 PUSH20 0xFFFFFFFFFFFFFFFFFFFFFFFFFFFFFFFFFFFFFFFF AND PUSH20 0xFFFFFFFFFFFFFFFFFFFFFFFFFFFFFFFFFFFFFFFF AND DUP2 MSTORE PUSH1 0x20 ADD SWAP1 DUP2 MSTORE PUSH1 0x20 ADD PUSH0 KECCAK256 PUSH0 DUP3 DUP3 SLOAD PUSH2 0x1614 SWAP2 SWAP1 PUSH2 0x3168 JUMP JUMPDEST SWAP3 POP POP DUP2 SWAP1 SSTORE POP CALLER PUSH20 0xFFFFFFFFFFFFFFFFFFFFFFFFFFFFFFFFFFFFFFFF AND PUSH32 0x8752A472E571A816AEA92EEC8DAE9BAF628E840F4929FBCC2D155E6233FF68A7 DUP8 DUP6 PUSH1 0x40 MLOAD PUSH2 0x1663 SWAP3 SWAP2 SWAP1 PUSH2 0x29D8 JUMP JUMPDEST PUSH1 0x40 MLOAD DUP1 SWAP2 SUB SWAP1 LOG2 POP POP POP POP POP POP JUMP JUMPDEST PUSH0 PUSH20 0x760AFE86E5DE5FA0EE542FC7B7B713E1C5425701 SWAP1 POP PUSH0 DUP2 PUSH20 0xFFFFFFFFFFFFFFFFFFFFFFFFFFFFFFFFFFFFFFFF AND PUSH4 0xDD62ED3E CALLER ADDRESS PUSH1 0x40 MLOAD DUP4 PUSH4 0xFFFFFFFF AND PUSH1 0xE0 SHL DUP2 MSTORE PUSH1 0x4 ADD PUSH2 0x16C7 SWAP3 SWAP2 SWAP1 PUSH2 0x2B2F JUMP JUMPDEST PUSH1 0x20 PUSH1 0x40 MLOAD DUP1 DUP4 SUB DUP2 DUP7 GAS STATICCALL ISZERO DUP1 ISZERO PUSH2 0x16E2 JUMPI RETURNDATASIZE PUSH0 DUP1 RETURNDATACOPY RETURNDATASIZE PUSH0 REVERT JUMPDEST POP POP POP POP PUSH1 0x40 MLOAD RETURNDATASIZE PUSH1 0x1F NOT PUSH1 0x1F DUP3 ADD AND DUP3 ADD DUP1 PUSH1 0x40 MSTORE POP DUP2 ADD SWAP1 PUSH2 0x1706 SWAP2 SWAP1 PUSH2 0x2945 JUMP JUMPDEST POP DUP2 PUSH20 0xFFFFFFFFFFFFFFFFFFFFFFFFFFFFFFFFFFFFFFFF AND PUSH4 0x23B872DD CALLER ADDRESS PUSH8 0x16345785D8A0000 PUSH1 0x40 MLOAD DUP5 PUSH4 0xFFFFFFFF AND PUSH1 0xE0 SHL DUP2 MSTORE PUSH1 0x4 ADD PUSH2 0x174C SWAP4 SWAP3 SWAP2 SWAP1 PUSH2 0x31DD JUMP JUMPDEST PUSH1 0x20 PUSH1 0x40 MLOAD DUP1 DUP4 SUB DUP2 PUSH0 DUP8 GAS CALL ISZERO DUP1 ISZERO PUSH2 0x1768 JUMPI RETURNDATASIZE PUSH0 DUP1 RETURNDATACOPY RETURNDATASIZE PUSH0 REVERT JUMPDEST POP POP POP POP PUSH1 0x40 MLOAD RETURNDATASIZE PUSH1 0x1F NOT PUSH1 0x1F DUP3 ADD AND DUP3 ADD DUP1 PUSH1 0x40 MSTORE POP DUP2 ADD SWAP1 PUSH2 0x178C SWAP2 SWAP1 PUSH2 0x2A34 JUMP JUMPDEST POP PUSH0 DUP2 PUSH20 0xFFFFFFFFFFFFFFFFFFFFFFFFFFFFFFFFFFFFFFFF AND PUSH4 0xA9059CBB CALLER PUSH8 0x16345785D8A0000 PUSH1 0x40 MLOAD DUP4 PUSH4 0xFFFFFFFF AND PUSH1 0xE0 SHL DUP2 MSTORE PUSH1 0x4 ADD PUSH2 0x17D1 SWAP3 SWAP2 SWAP1 PUSH2 0x3212 JUMP JUMPDEST PUSH1 0x20 PUSH1 0x40 MLOAD DUP1 DUP4 SUB DUP2 PUSH0 DUP8 GAS CALL ISZERO DUP1 ISZERO PUSH2 0x17ED JUMPI RETURNDATASIZE PUSH0 DUP1 RETURNDATACOPY RETURNDATASIZE PUSH0 REVERT JUMPDEST POP POP POP POP PUSH1 0x40 MLOAD RETURNDATASIZE PUSH1 0x1F NOT PUSH1 0x1F DUP3 ADD AND DUP3 ADD DUP1 PUSH1 0x40 MSTORE POP DUP2 ADD SWAP1 PUSH2 0x1811 SWAP2 SWAP1 PUSH2 0x2A34 JUMP JUMPDEST SWAP1 POP DUP1 PUSH2 0x1853 JUMPI PUSH1 0x40 MLOAD PUSH32 0x8C379A000000000000000000000000000000000000000000000000000000000 DUP2 MSTORE PUSH1 0x4 ADD PUSH2 0x184A SWAP1 PUSH2 0x2D0D JUMP JUMPDEST PUSH1 0x40 MLOAD DUP1 SWAP2 SUB SWAP1 REVERT JUMPDEST PUSH8 0x16345785D8A0000 PUSH1 0x3 PUSH0 PUSH20 0x760AFE86E5DE5FA0EE542FC7B7B713E1C5425701 PUSH20 0xFFFFFFFFFFFFFFFFFFFFFFFFFFFFFFFFFFFFFFFF AND PUSH20 0xFFFFFFFFFFFFFFFFFFFFFFFFFFFFFFFFFFFFFFFF AND DUP2 MSTORE PUSH1 0x20 ADD SWAP1 DUP2 MSTORE PUSH1 0x20 ADD PUSH0 KECCAK256 PUSH0 DUP3 DUP3 SLOAD PUSH2 0x18BB SWAP2 SWAP1 PUSH2 0x3168 JUMP JUMPDEST SWAP3 POP POP DUP2 SWAP1 SSTORE POP PUSH8 0x16345785D8A0000 PUSH1 0x3 PUSH0 DUP1 PUSH20 0xFFFFFFFFFFFFFFFFFFFFFFFFFFFFFFFFFFFFFFFF AND PUSH20 0xFFFFFFFFFFFFFFFFFFFFFFFFFFFFFFFFFFFFFFFF AND DUP2 MSTORE PUSH1 0x20 ADD SWAP1 DUP2 MSTORE PUSH1 0x20 ADD PUSH0 KECCAK256 PUSH0 DUP3 DUP3 SLOAD PUSH2 0x1916 SWAP2 SWAP1 PUSH2 0x3239 JUMP JUMPDEST SWAP3 POP POP DUP2 SWAP1 SSTORE POP CALLER PUSH20 0xFFFFFFFFFFFFFFFFFFFFFFFFFFFFFFFFFFFFFFFF AND PUSH32 0x6782190C91D4A7E8AD2A867DEED6EC0A970CAB8FF137AE2BD4ABD92B3810F4D3 PUSH20 0x760AFE86E5DE5FA0EE542FC7B7B713E1C5425701 PUSH0 PUSH8 0x16345785D8A0000 DUP1 PUSH1 0x40 MLOAD PUSH2 0x1985 SWAP5 SWAP4 SWAP3 SWAP2 SWAP1 PUSH2 0x326C JUMP JUMPDEST PUSH1 0x40 MLOAD DUP1 SWAP2 SUB SWAP1 LOG2 POP POP POP JUMP JUMPDEST PUSH1 0x2 SLOAD CALLVALUE LT ISZERO PUSH2 0x19D7 JUMPI PUSH1 0x40 MLOAD PUSH32 0x8C379A000000000000000000000000000000000000000000000000000000000 DUP2 MSTORE PUSH1 0x4 ADD PUSH2 0x19CE SWAP1 PUSH2 0x32F9 JUMP JUMPDEST PUSH1 0x40 MLOAD DUP1 SWAP2 SUB SWAP1 REVERT JUMPDEST DUP2 DUP2 PUSH0 SWAP2 DUP3 PUSH2 0x19E7 SWAP3 SWAP2 SWAP1 PUSH2 0x3512 JUMP JUMPDEST POP POP POP JUMP JUMPDEST PUSH1 0x4 PUSH1 0x20 MSTORE DUP2 PUSH0 MSTORE PUSH1 0x40 PUSH0 KECCAK256 PUSH1 0x20 MSTORE DUP1 PUSH0 MSTORE PUSH1 0x40 PUSH0 KECCAK256 PUSH0 SWAP2 POP SWAP2 POP POP SLOAD DUP2 JUMP JUMPDEST PUSH0 PUSH20 0x760AFE86E5DE5FA0EE542FC7B7B713E1C5425701 SWAP1 POP PUSH0 DUP2 SWAP1 POP PUSH0 PUSH2 0x1A33 DUP4 DUP6 PUSH2 0x22D0 JUMP JUMPDEST SWAP1 POP PUSH0 DUP3 PUSH20 0xFFFFFFFFFFFFFFFFFFFFFFFFFFFFFFFFFFFFFFFF AND PUSH4 0xDD62ED3E CALLER ADDRESS PUSH1 0x40 MLOAD DUP4 PUSH4 0xFFFFFFFF AND PUSH1 0xE0 SHL DUP2 MSTORE PUSH1 0x4 ADD PUSH2 0x1A71 SWAP3 SWAP2 SWAP1 PUSH2 0x2B2F JUMP JUMPDEST PUSH1 0x20 PUSH1 0x40 MLOAD DUP1 DUP4 SUB DUP2 DUP7 GAS STATICCALL ISZERO DUP1 ISZERO PUSH2 0x1A8C JUMPI RETURNDATASIZE PUSH0 DUP1 RETURNDATACOPY RETURNDATASIZE PUSH0 REVERT JUMPDEST POP POP POP POP PUSH1 0x40 MLOAD RETURNDATASIZE PUSH1 0x1F NOT PUSH1 0x1F DUP3 ADD AND DUP3 ADD DUP1 PUSH1 0x40 MSTORE POP DUP2 ADD SWAP1 PUSH2 0x1AB0 SWAP2 SWAP1 PUSH2 0x2945 JUMP JUMPDEST SWAP1 POP DUP2 DUP2 LT ISZERO PUSH2 0x1AF5 JUMPI PUSH1 0x40 MLOAD PUSH32 0x8C379A000000000000000000000000000000000000000000000000000000000 DUP2 MSTORE PUSH1 0x4 ADD PUSH2 0x1AEC SWAP1 PUSH2 0x30E2 JUMP JUMPDEST PUSH1 0x40 MLOAD DUP1 SWAP2 SUB SWAP1 REVERT JUMPDEST PUSH0 DUP4 PUSH20 0xFFFFFFFFFFFFFFFFFFFFFFFFFFFFFFFFFFFFFFFF AND PUSH4 0x23B872DD CALLER ADDRESS DUP7 PUSH1 0x40 MLOAD DUP5 PUSH4 0xFFFFFFFF AND PUSH1 0xE0 SHL DUP2 MSTORE PUSH1 0x4 ADD PUSH2 0x1B33 SWAP4 SWAP3 SWAP2 SWAP1 PUSH2 0x2BBE JUMP JUMPDEST PUSH1 0x20 PUSH1 0x40 MLOAD DUP1 DUP4 SUB DUP2 PUSH0 DUP8 GAS CALL ISZERO DUP1 ISZERO PUSH2 0x1B4F JUMPI RETURNDATASIZE PUSH0 DUP1 RETURNDATACOPY RETURNDATASIZE PUSH0 REVERT JUMPDEST POP POP POP POP PUSH1 0x40 MLOAD RETURNDATASIZE PUSH1 0x1F NOT PUSH1 0x1F DUP3 ADD AND DUP3 ADD DUP1 PUSH1 0x40 MSTORE POP DUP2 ADD SWAP1 PUSH2 0x1B73 SWAP2 SWAP1 PUSH2 0x2A34 JUMP JUMPDEST SWAP1 POP DUP1 PUSH2 0x1BB5 JUMPI PUSH1 0x40 MLOAD PUSH32 0x8C379A000000000000000000000000000000000000000000000000000000000 DUP2 MSTORE PUSH1 0x4 ADD PUSH2 0x1BAC SWAP1 PUSH2 0x314A JUMP JUMPDEST PUSH1 0x40 MLOAD DUP1 SWAP2 SUB SWAP1 REVERT JUMPDEST DUP3 PUSH1 0x3 PUSH0 DUP8 PUSH20 0xFFFFFFFFFFFFFFFFFFFFFFFFFFFFFFFFFFFFFFFF AND PUSH20 0xFFFFFFFFFFFFFFFFFFFFFFFFFFFFFFFFFFFFFFFF AND DUP2 MSTORE PUSH1 0x20 ADD SWAP1 DUP2 MSTORE PUSH1 0x20 ADD PUSH0 KECCAK256 PUSH0 DUP3 DUP3 SLOAD PUSH2 0x1C01 SWAP2 SWAP1 PUSH2 0x3168 JUMP JUMPDEST SWAP3 POP POP DUP2 SWAP1 SSTORE POP CALLER PUSH20 0xFFFFFFFFFFFFFFFFFFFFFFFFFFFFFFFFFFFFFFFF AND PUSH32 0x8752A472E571A816AEA92EEC8DAE9BAF628E840F4929FBCC2D155E6233FF68A7 DUP7 DUP6 PUSH1 0x40 MLOAD PUSH2 0x1C50 SWAP3 SWAP2 SWAP1 PUSH2 0x29D8 JUMP JUMPDEST PUSH1 0x40 MLOAD DUP1 SWAP2 SUB SWAP1 LOG2 POP POP POP POP POP POP JUMP JUMPDEST PUSH1 0x1 PUSH0 SWAP1 SLOAD SWAP1 PUSH2 0x100 EXP SWAP1 DIV PUSH20 0xFFFFFFFFFFFFFFFFFFFFFFFFFFFFFFFFFFFFFFFF AND PUSH20 0xFFFFFFFFFFFFFFFFFFFFFFFFFFFFFFFFFFFFFFFF AND CALLER PUSH20 0xFFFFFFFFFFFFFFFFFFFFFFFFFFFFFFFFFFFFFFFF AND EQ PUSH2 0x1CEF JUMPI PUSH1 0x40 MLOAD PUSH32 0x8C379A000000000000000000000000000000000000000000000000000000000 DUP2 MSTORE PUSH1 0x4 ADD PUSH2 0x1CE6 SWAP1 PUSH2 0x2913 JUMP JUMPDEST PUSH1 0x40 MLOAD DUP1 SWAP2 SUB SWAP1 REVERT JUMPDEST PUSH1 0x1 PUSH0 SWAP1 SLOAD SWAP1 PUSH2 0x100 EXP SWAP1 DIV PUSH20 0xFFFFFFFFFFFFFFFFFFFFFFFFFFFFFFFFFFFFFFFF AND PUSH20 0xFFFFFFFFFFFFFFFFFFFFFFFFFFFFFFFFFFFFFFFF AND PUSH2 0x8FC SELFBALANCE SWAP1 DUP2 ISZERO MUL SWAP1 PUSH1 0x40 MLOAD PUSH0 PUSH1 0x40 MLOAD DUP1 DUP4 SUB DUP2 DUP6 DUP9 DUP9 CALL SWAP4 POP POP POP POP ISZERO DUP1 ISZERO PUSH2 0x1D53 JUMPI RETURNDATASIZE PUSH0 DUP1 RETURNDATACOPY RETURNDATASIZE PUSH0 REVERT JUMPDEST POP JUMP JUMPDEST PUSH0 DUP1 SLOAD PUSH2 0x1D62 SWAP1 PUSH2 0x334E JUMP JUMPDEST DUP1 PUSH1 0x1F ADD PUSH1 0x20 DUP1 SWAP2 DIV MUL PUSH1 0x20 ADD PUSH1 0x40 MLOAD SWAP1 DUP2 ADD PUSH1 0x40 MSTORE DUP1 SWAP3 SWAP2 SWAP1 DUP2 DUP2 MSTORE PUSH1 0x20 ADD DUP3 DUP1 SLOAD PUSH2 0x1D8E SWAP1 PUSH2 0x334E JUMP JUMPDEST DUP1 ISZERO PUSH2 0x1DD9 JUMPI DUP1 PUSH1 0x1F LT PUSH2 0x1DB0 JUMPI PUSH2 0x100 DUP1 DUP4 SLOAD DIV MUL DUP4 MSTORE SWAP2 PUSH1 0x20 ADD SWAP2 PUSH2 0x1DD9 JUMP JUMPDEST DUP3 ADD SWAP2 SWAP1 PUSH0 MSTORE PUSH1 0x20 PUSH0 KECCAK256 SWAP1 JUMPDEST DUP2 SLOAD DUP2 MSTORE SWAP1 PUSH1 0x1 ADD SWAP1 PUSH1 0x20 ADD DUP1 DUP4 GT PUSH2 0x1DBC JUMPI DUP3 SWAP1 SUB PUSH1 0x1F AND DUP3 ADD SWAP2 JUMPDEST POP POP POP POP POP DUP2 JUMP JUMPDEST PUSH1 0x3 PUSH1 0x20 MSTORE DUP1 PUSH0 MSTORE PUSH1 0x40 PUSH0 KECCAK256 PUSH0 SWAP2 POP SWAP1 POP SLOAD DUP2 JUMP JUMPDEST PUSH1 0x2 SLOAD CALLVALUE LT ISZERO PUSH2 0x1E3B JUMPI PUSH1 0x40 MLOAD PUSH32 0x8C379A000000000000000000000000000000000000000000000000000000000 DUP2 MSTORE PUSH1 0x4 ADD PUSH2 0x1E32 SWAP1 PUSH2 0x32F9 JUMP JUMPDEST PUSH1 0x40 MLOAD DUP1 SWAP2 SUB SWAP1 REVERT JUMPDEST PUSH0 DUP3 GT PUSH2 0x1E7D JUMPI PUSH1 0x40 MLOAD PUSH32 0x8C379A000000000000000000000000000000000000000000000000000000000 DUP2 MSTORE PUSH1 0x4 ADD PUSH2 0x1E74 SWAP1 PUSH2 0x2AA9 JUMP JUMPDEST PUSH1 0x40 MLOAD DUP1 SWAP2 SUB SWAP1 REVERT JUMPDEST PUSH0 DUP5 SWAP1 POP PUSH0 DUP5 SWAP1 POP PUSH0 PUSH2 0x1E90 DUP8 DUP7 PUSH2 0x22D0 JUMP JUMPDEST SWAP1 POP PUSH0 DUP4 PUSH20 0xFFFFFFFFFFFFFFFFFFFFFFFFFFFFFFFFFFFFFFFF AND PUSH4 0xDD62ED3E CALLER ADDRESS PUSH1 0x40 MLOAD DUP4 PUSH4 0xFFFFFFFF AND PUSH1 0xE0 SHL DUP2 MSTORE PUSH1 0x4 ADD PUSH2 0x1ECE SWAP3 SWAP2 SWAP1 PUSH2 0x2B2F JUMP JUMPDEST PUSH1 0x20 PUSH1 0x40 MLOAD DUP1 DUP4 SUB DUP2 DUP7 GAS STATICCALL ISZERO DUP1 ISZERO PUSH2 0x1EE9 JUMPI RETURNDATASIZE PUSH0 DUP1 RETURNDATACOPY RETURNDATASIZE PUSH0 REVERT JUMPDEST POP POP POP POP PUSH1 0x40 MLOAD RETURNDATASIZE PUSH1 0x1F NOT PUSH1 0x1F DUP3 ADD AND DUP3 ADD DUP1 PUSH1 0x40 MSTORE POP DUP2 ADD SWAP1 PUSH2 0x1F0D SWAP2 SWAP1 PUSH2 0x2945 JUMP JUMPDEST SWAP1 POP DUP2 DUP2 LT ISZERO PUSH2 0x1F52 JUMPI PUSH1 0x40 MLOAD PUSH32 0x8C379A000000000000000000000000000000000000000000000000000000000 DUP2 MSTORE PUSH1 0x4 ADD PUSH2 0x1F49 SWAP1 PUSH2 0x30E2 JUMP JUMPDEST PUSH1 0x40 MLOAD DUP1 SWAP2 SUB SWAP1 REVERT JUMPDEST PUSH0 DUP5 PUSH20 0xFFFFFFFFFFFFFFFFFFFFFFFFFFFFFFFFFFFFFFFF AND PUSH4 0x23B872DD CALLER ADDRESS DUP7 PUSH1 0x40 MLOAD DUP5 PUSH4 0xFFFFFFFF AND PUSH1 0xE0 SHL DUP2 MSTORE PUSH1 0x4 ADD PUSH2 0x1F90 SWAP4 SWAP3 SWAP2 SWAP1 PUSH2 0x2BBE JUMP JUMPDEST PUSH1 0x20 PUSH1 0x40 MLOAD DUP1 DUP4 SUB DUP2 PUSH0 DUP8 GAS CALL ISZERO DUP1 ISZERO PUSH2 0x1FAC JUMPI RETURNDATASIZE PUSH0 DUP1 RETURNDATACOPY RETURNDATASIZE PUSH0 REVERT JUMPDEST POP POP POP POP PUSH1 0x40 MLOAD RETURNDATASIZE PUSH1 0x1F NOT PUSH1 0x1F DUP3 ADD AND DUP3 ADD DUP1 PUSH1 0x40 MSTORE POP DUP2 ADD SWAP1 PUSH2 0x1FD0 SWAP2 SWAP1 PUSH2 0x2A34 JUMP JUMPDEST SWAP1 POP DUP1 PUSH2 0x2012 JUMPI PUSH1 0x40 MLOAD PUSH32 0x8C379A000000000000000000000000000000000000000000000000000000000 DUP2 MSTORE PUSH1 0x4 ADD PUSH2 0x2009 SWAP1 PUSH2 0x2C3D JUMP JUMPDEST PUSH1 0x40 MLOAD DUP1 SWAP2 SUB SWAP1 REVERT JUMPDEST PUSH8 0xDE0B6B3A7640000 DUP7 DUP5 PUSH2 0x2027 SWAP2 SWAP1 PUSH2 0x35DF JUMP JUMPDEST PUSH2 0x2031 SWAP2 SWAP1 PUSH2 0x3000 JUMP JUMPDEST POP PUSH8 0x16345785D8A0000 DUP5 PUSH20 0xFFFFFFFFFFFFFFFFFFFFFFFFFFFFFFFFFFFFFFFF AND PUSH4 0x70A08231 ADDRESS PUSH1 0x40 MLOAD DUP3 PUSH4 0xFFFFFFFF AND PUSH1 0xE0 SHL DUP2 MSTORE PUSH1 0x4 ADD PUSH2 0x2074 SWAP2 SWAP1 PUSH2 0x26B8 JUMP JUMPDEST PUSH1 0x20 PUSH1 0x40 MLOAD DUP1 DUP4 SUB DUP2 DUP7 GAS STATICCALL ISZERO DUP1 ISZERO PUSH2 0x208F JUMPI RETURNDATASIZE PUSH0 DUP1 RETURNDATACOPY RETURNDATASIZE PUSH0 REVERT JUMPDEST POP POP POP POP PUSH1 0x40 MLOAD RETURNDATASIZE PUSH1 0x1F NOT PUSH1 0x1F DUP3 ADD AND DUP3 ADD DUP1 PUSH1 0x40 MSTORE POP DUP2 ADD SWAP1 PUSH2 0x20B3 SWAP2 SWAP1 PUSH2 0x2945 JUMP JUMPDEST LT ISZERO PUSH2 0x20F4 JUMPI PUSH1 0x40 MLOAD PUSH32 0x8C379A000000000000000000000000000000000000000000000000000000000 DUP2 MSTORE PUSH1 0x4 ADD PUSH2 0x20EB SWAP1 PUSH2 0x366A JUMP JUMPDEST PUSH1 0x40 MLOAD DUP1 SWAP2 SUB SWAP1 REVERT JUMPDEST PUSH0 DUP5 PUSH20 0xFFFFFFFFFFFFFFFFFFFFFFFFFFFFFFFFFFFFFFFF AND PUSH4 0xA9059CBB CALLER PUSH8 0x16345785D8A0000 PUSH1 0x40 MLOAD DUP4 PUSH4 0xFFFFFFFF AND PUSH1 0xE0 SHL DUP2 MSTORE PUSH1 0x4 ADD PUSH2 0x2138 SWAP3 SWAP2 SWAP1 PUSH2 0x3212 JUMP JUMPDEST PUSH1 0x20 PUSH1 0x40 MLOAD DUP1 DUP4 SUB DUP2 PUSH0 DUP8 GAS CALL ISZERO DUP1 ISZERO PUSH2 0x2154 JUMPI RETURNDATASIZE PUSH0 DUP1 RETURNDATACOPY RETURNDATASIZE PUSH0 REVERT JUMPDEST POP POP POP POP PUSH1 0x40 MLOAD RETURNDATASIZE PUSH1 0x1F NOT PUSH1 0x1F DUP3 ADD AND DUP3 ADD DUP1 PUSH1 0x40 MSTORE POP DUP2 ADD SWAP1 PUSH2 0x2178 SWAP2 SWAP1 PUSH2 0x2A34 JUMP JUMPDEST SWAP1 POP DUP1 PUSH2 0x21BA JUMPI PUSH1 0x40 MLOAD PUSH32 0x8C379A000000000000000000000000000000000000000000000000000000000 DUP2 MSTORE PUSH1 0x4 ADD PUSH2 0x21B1 SWAP1 PUSH2 0x2D0D JUMP JUMPDEST PUSH1 0x40 MLOAD DUP1 SWAP2 SUB SWAP1 REVERT JUMPDEST DUP4 PUSH1 0x3 PUSH0 DUP13 PUSH20 0xFFFFFFFFFFFFFFFFFFFFFFFFFFFFFFFFFFFFFFFF AND PUSH20 0xFFFFFFFFFFFFFFFFFFFFFFFFFFFFFFFFFFFFFFFF AND DUP2 MSTORE PUSH1 0x20 ADD SWAP1 DUP2 MSTORE PUSH1 0x20 ADD PUSH0 KECCAK256 PUSH0 DUP3 DUP3 SLOAD PUSH2 0x2206 SWAP2 SWAP1 PUSH2 0x3168 JUMP JUMPDEST SWAP3 POP POP DUP2 SWAP1 SSTORE POP PUSH8 0x16345785D8A0000 PUSH1 0x3 PUSH0 DUP12 PUSH20 0xFFFFFFFFFFFFFFFFFFFFFFFFFFFFFFFFFFFFFFFF AND PUSH20 0xFFFFFFFFFFFFFFFFFFFFFFFFFFFFFFFFFFFFFFFF AND DUP2 MSTORE PUSH1 0x20 ADD SWAP1 DUP2 MSTORE PUSH1 0x20 ADD PUSH0 KECCAK256 PUSH0 DUP3 DUP3 SLOAD PUSH2 0x2261 SWAP2 SWAP1 PUSH2 0x3239 JUMP JUMPDEST SWAP3 POP POP DUP2 SWAP1 SSTORE POP CALLER PUSH20 0xFFFFFFFFFFFFFFFFFFFFFFFFFFFFFFFFFFFFFFFF AND PUSH32 0x6782190C91D4A7E8AD2A867DEED6EC0A970CAB8FF137AE2BD4ABD92B3810F4D3 DUP12 DUP12 DUP8 PUSH8 0x16345785D8A0000 PUSH1 0x40 MLOAD PUSH2 0x22BC SWAP5 SWAP4 SWAP3 SWAP2 SWAP1 PUSH2 0x3688 JUMP JUMPDEST PUSH1 0x40 MLOAD DUP1 SWAP2 SUB SWAP1 LOG2 POP POP POP POP POP POP POP POP POP POP JUMP JUMPDEST PUSH0 DUP1 DUP4 PUSH20 0xFFFFFFFFFFFFFFFFFFFFFFFFFFFFFFFFFFFFFFFF AND PUSH4 0x313CE567 PUSH1 0x40 MLOAD DUP2 PUSH4 0xFFFFFFFF AND PUSH1 0xE0 SHL DUP2 MSTORE PUSH1 0x4 ADD PUSH1 0x20 PUSH1 0x40 MLOAD DUP1 DUP4 SUB DUP2 DUP7 GAS STATICCALL ISZERO DUP1 ISZERO PUSH2 0x231B JUMPI RETURNDATASIZE PUSH0 DUP1 RETURNDATACOPY RETURNDATASIZE PUSH0 REVERT JUMPDEST POP POP POP POP PUSH1 0x40 MLOAD RETURNDATASIZE PUSH1 0x1F NOT PUSH1 0x1F DUP3 ADD AND DUP3 ADD DUP1 PUSH1 0x40 MSTORE POP DUP2 ADD SWAP1 PUSH2 0x233F SWAP2 SWAP1 PUSH2 0x2E2F JUMP JUMPDEST SWAP1 POP DUP1 PUSH1 0xFF AND PUSH1 0xA PUSH2 0x2351 SWAP2 SWAP1 PUSH2 0x36CB JUMP JUMPDEST DUP4 PUSH2 0x235C SWAP2 SWAP1 PUSH2 0x35DF JUMP JUMPDEST SWAP2 POP POP SWAP3 SWAP2 POP POP JUMP JUMPDEST PUSH0 DUP1 REVERT JUMPDEST PUSH0 DUP1 REVERT JUMPDEST PUSH0 PUSH20 0xFFFFFFFFFFFFFFFFFFFFFFFFFFFFFFFFFFFFFFFF DUP3 AND SWAP1 POP SWAP2 SWAP1 POP JUMP JUMPDEST PUSH0 PUSH2 0x2396 DUP3 PUSH2 0x236D JUMP JUMPDEST SWAP1 POP SWAP2 SWAP1 POP JUMP JUMPDEST PUSH2 0x23A6 DUP2 PUSH2 0x238C JUMP JUMPDEST DUP2 EQ PUSH2 0x23B0 JUMPI PUSH0 DUP1 REVERT JUMPDEST POP JUMP JUMPDEST PUSH0 DUP2 CALLDATALOAD SWAP1 POP PUSH2 0x23C1 DUP2 PUSH2 0x239D JUMP JUMPDEST SWAP3 SWAP2 POP POP JUMP JUMPDEST PUSH0 DUP2 SWAP1 POP SWAP2 SWAP1 POP JUMP JUMPDEST PUSH2 0x23D9 DUP2 PUSH2 0x23C7 JUMP JUMPDEST DUP2 EQ PUSH2 0x23E3 JUMPI PUSH0 DUP1 REVERT JUMPDEST POP JUMP JUMPDEST PUSH0 DUP2 CALLDATALOAD SWAP1 POP PUSH2 0x23F4 DUP2 PUSH2 0x23D0 JUMP JUMPDEST SWAP3 SWAP2 POP POP JUMP JUMPDEST PUSH0 DUP1 PUSH0 PUSH1 0x60 DUP5 DUP7 SUB SLT ISZERO PUSH2 0x2411 JUMPI PUSH2 0x2410 PUSH2 0x2365 JUMP JUMPDEST JUMPDEST PUSH0 PUSH2 0x241E DUP7 DUP3 DUP8 ADD PUSH2 0x23B3 JUMP JUMPDEST SWAP4 POP POP PUSH1 0x20 PUSH2 0x242F DUP7 DUP3 DUP8 ADD PUSH2 0x23B3 JUMP JUMPDEST SWAP3 POP POP PUSH1 0x40 PUSH2 0x2440 DUP7 DUP3 DUP8 ADD PUSH2 0x23E6 JUMP JUMPDEST SWAP2 POP POP SWAP3 POP SWAP3 POP SWAP3 JUMP JUMPDEST PUSH0 PUSH1 0x20 DUP3 DUP5 SUB SLT ISZERO PUSH2 0x245F JUMPI PUSH2 0x245E PUSH2 0x2365 JUMP JUMPDEST JUMPDEST PUSH0 PUSH2 0x246C DUP5 DUP3 DUP6 ADD PUSH2 0x23B3 JUMP JUMPDEST SWAP2 POP POP SWAP3 SWAP2 POP POP JUMP JUMPDEST PUSH0 DUP2 MLOAD SWAP1 POP SWAP2 SWAP1 POP JUMP JUMPDEST PUSH0 DUP3 DUP3 MSTORE PUSH1 0x20 DUP3 ADD SWAP1 POP SWAP3 SWAP2 POP POP JUMP JUMPDEST PUSH0 DUP2 SWAP1 POP PUSH1 0x20 DUP3 ADD SWAP1 POP SWAP2 SWAP1 POP JUMP JUMPDEST PUSH2 0x24A7 DUP2 PUSH2 0x238C JUMP JUMPDEST DUP3 MSTORE POP POP JUMP JUMPDEST PUSH0 PUSH2 0x24B8 DUP4 DUP4 PUSH2 0x249E JUMP JUMPDEST PUSH1 0x20 DUP4 ADD SWAP1 POP SWAP3 SWAP2 POP POP JUMP JUMPDEST PUSH0 PUSH1 0x20 DUP3 ADD SWAP1 POP SWAP2 SWAP1 POP JUMP JUMPDEST PUSH0 PUSH2 0x24DA DUP3 PUSH2 0x2475 JUMP JUMPDEST PUSH2 0x24E4 DUP2 DUP6 PUSH2 0x247F JUMP JUMPDEST SWAP4 POP PUSH2 0x24EF DUP4 PUSH2 0x248F JUMP JUMPDEST DUP1 PUSH0 JUMPDEST DUP4 DUP2 LT ISZERO PUSH2 0x251F JUMPI DUP2 MLOAD PUSH2 0x2506 DUP9 DUP3 PUSH2 0x24AD JUMP JUMPDEST SWAP8 POP PUSH2 0x2511 DUP4 PUSH2 0x24C4 JUMP JUMPDEST SWAP3 POP POP PUSH1 0x1 DUP2 ADD SWAP1 POP PUSH2 0x24F2 JUMP JUMPDEST POP DUP6 SWAP4 POP POP POP POP SWAP3 SWAP2 POP POP JUMP JUMPDEST PUSH0 DUP2 MLOAD SWAP1 POP SWAP2 SWAP1 POP JUMP JUMPDEST PUSH0 DUP3 DUP3 MSTORE PUSH1 0x20 DUP3 ADD SWAP1 POP SWAP3 SWAP2 POP POP JUMP JUMPDEST PUSH0 DUP2 SWAP1 POP PUSH1 0x20 DUP3 ADD SWAP1 POP SWAP2 SWAP1 POP JUMP JUMPDEST PUSH2 0x255E DUP2 PUSH2 0x23C7 JUMP JUMPDEST DUP3 MSTORE POP POP JUMP JUMPDEST PUSH0 PUSH2 0x256F DUP4 DUP4 PUSH2 0x2555 JUMP JUMPDEST PUSH1 0x20 DUP4 ADD SWAP1 POP SWAP3 SWAP2 POP POP JUMP JUMPDEST PUSH0 PUSH1 0x20 DUP3 ADD SWAP1 POP SWAP2 SWAP1 POP JUMP JUMPDEST PUSH0 PUSH2 0x2591 DUP3 PUSH2 0x252C JUMP JUMPDEST PUSH2 0x259B DUP2 DUP6 PUSH2 0x2536 JUMP JUMPDEST SWAP4 POP PUSH2 0x25A6 DUP4 PUSH2 0x2546 JUMP JUMPDEST DUP1 PUSH0 JUMPDEST DUP4 DUP2 LT ISZERO PUSH2 0x25D6 JUMPI DUP2 MLOAD PUSH2 0x25BD DUP9 DUP3 PUSH2 0x2564 JUMP JUMPDEST SWAP8 POP PUSH2 0x25C8 DUP4 PUSH2 0x257B JUMP JUMPDEST SWAP3 POP POP PUSH1 0x1 DUP2 ADD SWAP1 POP PUSH2 0x25A9 JUMP JUMPDEST POP DUP6 SWAP4 POP POP POP POP SWAP3 SWAP2 POP POP JUMP JUMPDEST PUSH0 PUSH1 0x40 DUP3 ADD SWAP1 POP DUP2 DUP2 SUB PUSH0 DUP4 ADD MSTORE PUSH2 0x25FB DUP2 DUP6 PUSH2 0x24D0 JUMP JUMPDEST SWAP1 POP DUP2 DUP2 SUB PUSH1 0x20 DUP4 ADD MSTORE PUSH2 0x260F DUP2 DUP5 PUSH2 0x2587 JUMP JUMPDEST SWAP1 POP SWAP4 SWAP3 POP POP POP JUMP JUMPDEST PUSH2 0x2621 DUP2 PUSH2 0x23C7 JUMP JUMPDEST DUP3 MSTORE POP POP JUMP JUMPDEST PUSH0 PUSH1 0x20 DUP3 ADD SWAP1 POP PUSH2 0x263A PUSH0 DUP4 ADD DUP5 PUSH2 0x2618 JUMP JUMPDEST SWAP3 SWAP2 POP POP JUMP JUMPDEST PUSH0 DUP1 PUSH1 0x40 DUP4 DUP6 SUB SLT ISZERO PUSH2 0x2656 JUMPI PUSH2 0x2655 PUSH2 0x2365 JUMP JUMPDEST JUMPDEST PUSH0 PUSH2 0x2663 DUP6 DUP3 DUP7 ADD PUSH2 0x23B3 JUMP JUMPDEST SWAP3 POP POP PUSH1 0x20 PUSH2 0x2674 DUP6 DUP3 DUP7 ADD PUSH2 0x23E6 JUMP JUMPDEST SWAP2 POP POP SWAP3 POP SWAP3 SWAP1 POP JUMP JUMPDEST PUSH0 PUSH1 0x20 DUP3 DUP5 SUB SLT ISZERO PUSH2 0x2693 JUMPI PUSH2 0x2692 PUSH2 0x2365 JUMP JUMPDEST JUMPDEST PUSH0 PUSH2 0x26A0 DUP5 DUP3 DUP6 ADD PUSH2 0x23E6 JUMP JUMPDEST SWAP2 POP POP SWAP3 SWAP2 POP POP JUMP JUMPDEST PUSH2 0x26B2 DUP2 PUSH2 0x238C JUMP JUMPDEST DUP3 MSTORE POP POP JUMP JUMPDEST PUSH0 PUSH1 0x20 DUP3 ADD SWAP1 POP PUSH2 0x26CB PUSH0 DUP4 ADD DUP5 PUSH2 0x26A9 JUMP JUMPDEST SWAP3 SWAP2 POP POP JUMP JUMPDEST PUSH0 DUP1 REVERT JUMPDEST PUSH0 DUP1 REVERT JUMPDEST PUSH0 DUP1 REVERT JUMPDEST PUSH0 DUP1 DUP4 PUSH1 0x1F DUP5 ADD SLT PUSH2 0x26F2 JUMPI PUSH2 0x26F1 PUSH2 0x26D1 JUMP JUMPDEST JUMPDEST DUP3 CALLDATALOAD SWAP1 POP PUSH8 0xFFFFFFFFFFFFFFFF DUP2 GT ISZERO PUSH2 0x270F JUMPI PUSH2 0x270E PUSH2 0x26D5 JUMP JUMPDEST JUMPDEST PUSH1 0x20 DUP4 ADD SWAP2 POP DUP4 PUSH1 0x1 DUP3 MUL DUP4 ADD GT ISZERO PUSH2 0x272B JUMPI PUSH2 0x272A PUSH2 0x26D9 JUMP JUMPDEST JUMPDEST SWAP3 POP SWAP3 SWAP1 POP JUMP JUMPDEST PUSH0 DUP1 PUSH1 0x20 DUP4 DUP6 SUB SLT ISZERO PUSH2 0x2748 JUMPI PUSH2 0x2747 PUSH2 0x2365 JUMP JUMPDEST JUMPDEST PUSH0 DUP4 ADD CALLDATALOAD PUSH8 0xFFFFFFFFFFFFFFFF DUP2 GT ISZERO PUSH2 0x2765 JUMPI PUSH2 0x2764 PUSH2 0x2369 JUMP JUMPDEST JUMPDEST PUSH2 0x2771 DUP6 DUP3 DUP7 ADD PUSH2 0x26DD JUMP JUMPDEST SWAP3 POP SWAP3 POP POP SWAP3 POP SWAP3 SWAP1 POP JUMP JUMPDEST PUSH0 DUP1 PUSH1 0x40 DUP4 DUP6 SUB SLT ISZERO PUSH2 0x2793 JUMPI PUSH2 0x2792 PUSH2 0x2365 JUMP JUMPDEST JUMPDEST PUSH0 PUSH2 0x27A0 DUP6 DUP3 DUP7 ADD PUSH2 0x23B3 JUMP JUMPDEST SWAP3 POP POP PUSH1 0x20 PUSH2 0x27B1 DUP6 DUP3 DUP7 ADD PUSH2 0x23B3 JUMP JUMPDEST SWAP2 POP POP SWAP3 POP SWAP3 SWAP1 POP JUMP JUMPDEST PUSH0 DUP2 MLOAD SWAP1 POP SWAP2 SWAP1 POP JUMP JUMPDEST PUSH0 DUP3 DUP3 MSTORE PUSH1 0x20 DUP3 ADD SWAP1 POP SWAP3 SWAP2 POP POP JUMP JUMPDEST PUSH0 JUMPDEST DUP4 DUP2 LT ISZERO PUSH2 0x27F2 JUMPI DUP1 DUP3 ADD MLOAD DUP2 DUP5 ADD MSTORE PUSH1 0x20 DUP2 ADD SWAP1 POP PUSH2 0x27D7 JUMP JUMPDEST PUSH0 DUP5 DUP5 ADD MSTORE POP POP POP POP JUMP JUMPDEST PUSH0 PUSH1 0x1F NOT PUSH1 0x1F DUP4 ADD AND SWAP1 POP SWAP2 SWAP1 POP JUMP JUMPDEST PUSH0 PUSH2 0x2817 DUP3 PUSH2 0x27BB JUMP JUMPDEST PUSH2 0x2821 DUP2 DUP6 PUSH2 0x27C5 JUMP JUMPDEST SWAP4 POP PUSH2 0x2831 DUP2 DUP6 PUSH1 0x20 DUP7 ADD PUSH2 0x27D5 JUMP JUMPDEST PUSH2 0x283A DUP2 PUSH2 0x27FD JUMP JUMPDEST DUP5 ADD SWAP2 POP POP SWAP3 SWAP2 POP POP JUMP JUMPDEST PUSH0 PUSH1 0x20 DUP3 ADD SWAP1 POP DUP2 DUP2 SUB PUSH0 DUP4 ADD MSTORE PUSH2 0x285D DUP2 DUP5 PUSH2 0x280D JUMP JUMPDEST SWAP1 POP SWAP3 SWAP2 POP POP JUMP JUMPDEST PUSH0 DUP1 PUSH0 DUP1 PUSH1 0x80 DUP6 DUP8 SUB SLT ISZERO PUSH2 0x287D JUMPI PUSH2 0x287C PUSH2 0x2365 JUMP JUMPDEST JUMPDEST PUSH0 PUSH2 0x288A DUP8 DUP3 DUP9 ADD PUSH2 0x23B3 JUMP JUMPDEST SWAP5 POP POP PUSH1 0x20 PUSH2 0x289B DUP8 DUP3 DUP9 ADD PUSH2 0x23B3 JUMP JUMPDEST SWAP4 POP POP PUSH1 0x40 PUSH2 0x28AC DUP8 DUP3 DUP9 ADD PUSH2 0x23E6 JUMP JUMPDEST SWAP3 POP POP PUSH1 0x60 PUSH2 0x28BD DUP8 DUP3 DUP9 ADD PUSH2 0x23E6 JUMP JUMPDEST SWAP2 POP POP SWAP3 SWAP6 SWAP2 SWAP5 POP SWAP3 POP JUMP JUMPDEST PUSH32 0x4F6E6C79206F776E657200000000000000000000000000000000000000000000 PUSH0 DUP3 ADD MSTORE POP JUMP JUMPDEST PUSH0 PUSH2 0x28FD PUSH1 0xA DUP4 PUSH2 0x27C5 JUMP JUMPDEST SWAP2 POP PUSH2 0x2908 DUP3 PUSH2 0x28C9 JUMP JUMPDEST PUSH1 0x20 DUP3 ADD SWAP1 POP SWAP2 SWAP1 POP JUMP JUMPDEST PUSH0 PUSH1 0x20 DUP3 ADD SWAP1 POP DUP2 DUP2 SUB PUSH0 DUP4 ADD MSTORE PUSH2 0x292A DUP2 PUSH2 0x28F1 JUMP JUMPDEST SWAP1 POP SWAP2 SWAP1 POP JUMP JUMPDEST PUSH0 DUP2 MLOAD SWAP1 POP PUSH2 0x293F DUP2 PUSH2 0x23D0 JUMP JUMPDEST SWAP3 SWAP2 POP POP JUMP JUMPDEST PUSH0 PUSH1 0x20 DUP3 DUP5 SUB SLT ISZERO PUSH2 0x295A JUMPI PUSH2 0x2959 PUSH2 0x2365 JUMP JUMPDEST JUMPDEST PUSH0 PUSH2 0x2967 DUP5 DUP3 DUP6 ADD PUSH2 0x2931 JUMP JUMPDEST SWAP2 POP POP SWAP3 SWAP2 POP POP JUMP JUMPDEST PUSH32 0x4E6F20746F6B656E2062616C616E636500000000000000000000000000000000 PUSH0 DUP3 ADD MSTORE POP JUMP JUMPDEST PUSH0 PUSH2 0x29A4 PUSH1 0x10 DUP4 PUSH2 0x27C5 JUMP JUMPDEST SWAP2 POP PUSH2 0x29AF DUP3 PUSH2 0x2970 JUMP JUMPDEST PUSH1 0x20 DUP3 ADD SWAP1 POP SWAP2 SWAP1 POP JUMP JUMPDEST PUSH0 PUSH1 0x20 DUP3 ADD SWAP1 POP DUP2 DUP2 SUB PUSH0 DUP4 ADD MSTORE PUSH2 0x29D1 DUP2 PUSH2 0x2998 JUMP JUMPDEST SWAP1 POP SWAP2 SWAP1 POP JUMP JUMPDEST PUSH0 PUSH1 0x40 DUP3 ADD SWAP1 POP PUSH2 0x29EB PUSH0 DUP4 ADD DUP6 PUSH2 0x26A9 JUMP JUMPDEST PUSH2 0x29F8 PUSH1 0x20 DUP4 ADD DUP5 PUSH2 0x2618 JUMP JUMPDEST SWAP4 SWAP3 POP POP POP JUMP JUMPDEST PUSH0 DUP2 ISZERO ISZERO SWAP1 POP SWAP2 SWAP1 POP JUMP JUMPDEST PUSH2 0x2A13 DUP2 PUSH2 0x29FF JUMP JUMPDEST DUP2 EQ PUSH2 0x2A1D JUMPI PUSH0 DUP1 REVERT JUMPDEST POP JUMP JUMPDEST PUSH0 DUP2 MLOAD SWAP1 POP PUSH2 0x2A2E DUP2 PUSH2 0x2A0A JUMP JUMPDEST SWAP3 SWAP2 POP POP JUMP JUMPDEST PUSH0 PUSH1 0x20 DUP3 DUP5 SUB SLT ISZERO PUSH2 0x2A49 JUMPI PUSH2 0x2A48 PUSH2 0x2365 JUMP JUMPDEST JUMPDEST PUSH0 PUSH2 0x2A56 DUP5 DUP3 DUP6 ADD PUSH2 0x2A20 JUMP JUMPDEST SWAP2 POP POP SWAP3 SWAP2 POP POP JUMP JUMPDEST PUSH32 0x416D6F756E74206D757374206265203E20300000000000000000000000000000 PUSH0 DUP3 ADD MSTORE POP JUMP JUMPDEST PUSH0 PUSH2 0x2A93 PUSH1 0x12 DUP4 PUSH2 0x27C5 JUMP JUMPDEST SWAP2 POP PUSH2 0x2A9E DUP3 PUSH2 0x2A5F JUMP JUMPDEST PUSH1 0x20 DUP3 ADD SWAP1 POP SWAP2 SWAP1 POP JUMP JUMPDEST PUSH0 PUSH1 0x20 DUP3 ADD SWAP1 POP DUP2 DUP2 SUB PUSH0 DUP4 ADD MSTORE PUSH2 0x2AC0 DUP2 PUSH2 0x2A87 JUMP JUMPDEST SWAP1 POP SWAP2 SWAP1 POP JUMP JUMPDEST PUSH32 0x496E76616C696420746F6B656E20616464726573730000000000000000000000 PUSH0 DUP3 ADD MSTORE POP JUMP JUMPDEST PUSH0 PUSH2 0x2AFB PUSH1 0x15 DUP4 PUSH2 0x27C5 JUMP JUMPDEST SWAP2 POP PUSH2 0x2B06 DUP3 PUSH2 0x2AC7 JUMP JUMPDEST PUSH1 0x20 DUP3 ADD SWAP1 POP SWAP2 SWAP1 POP JUMP JUMPDEST PUSH0 PUSH1 0x20 DUP3 ADD SWAP1 POP DUP2 DUP2 SUB PUSH0 DUP4 ADD MSTORE PUSH2 0x2B28 DUP2 PUSH2 0x2AEF JUMP JUMPDEST SWAP1 POP SWAP2 SWAP1 POP JUMP JUMPDEST PUSH0 PUSH1 0x40 DUP3 ADD SWAP1 POP PUSH2 0x2B42 PUSH0 DUP4 ADD DUP6 PUSH2 0x26A9 JUMP JUMPDEST PUSH2 0x2B4F PUSH1 0x20 DUP4 ADD DUP5 PUSH2 0x26A9 JUMP JUMPDEST SWAP4 SWAP3 POP POP POP JUMP JUMPDEST PUSH32 0x4E6F7420656E6F75676820616C6C6F77616E636520666F7220546F6B656E4100 PUSH0 DUP3 ADD MSTORE POP JUMP JUMPDEST PUSH0 PUSH2 0x2B8A PUSH1 0x1F DUP4 PUSH2 0x27C5 JUMP JUMPDEST SWAP2 POP PUSH2 0x2B95 DUP3 PUSH2 0x2B56 JUMP JUMPDEST PUSH1 0x20 DUP3 ADD SWAP1 POP SWAP2 SWAP1 POP JUMP JUMPDEST PUSH0 PUSH1 0x20 DUP3 ADD SWAP1 POP DUP2 DUP2 SUB PUSH0 DUP4 ADD MSTORE PUSH2 0x2BB7 DUP2 PUSH2 0x2B7E JUMP JUMPDEST SWAP1 POP SWAP2 SWAP1 POP JUMP JUMPDEST PUSH0 PUSH1 0x60 DUP3 ADD SWAP1 POP PUSH2 0x2BD1 PUSH0 DUP4 ADD DUP7 PUSH2 0x26A9 JUMP JUMPDEST PUSH2 0x2BDE PUSH1 0x20 DUP4 ADD DUP6 PUSH2 0x26A9 JUMP JUMPDEST PUSH2 0x2BEB PUSH1 0x40 DUP4 ADD DUP5 PUSH2 0x2618 JUMP JUMPDEST SWAP5 SWAP4 POP POP POP POP JUMP JUMPDEST PUSH32 0x546F6B656E41207472616E73666572206661696C656400000000000000000000 PUSH0 DUP3 ADD MSTORE POP JUMP JUMPDEST PUSH0 PUSH2 0x2C27 PUSH1 0x16 DUP4 PUSH2 0x27C5 JUMP JUMPDEST SWAP2 POP PUSH2 0x2C32 DUP3 PUSH2 0x2BF3 JUMP JUMPDEST PUSH1 0x20 DUP3 ADD SWAP1 POP SWAP2 SWAP1 POP JUMP JUMPDEST PUSH0 PUSH1 0x20 DUP3 ADD SWAP1 POP DUP2 DUP2 SUB PUSH0 DUP4 ADD MSTORE PUSH2 0x2C54 DUP2 PUSH2 0x2C1B JUMP JUMPDEST SWAP1 POP SWAP2 SWAP1 POP JUMP JUMPDEST PUSH32 0x4E6F7420656E6F75676820546F6B656E42206C69717569646974790000000000 PUSH0 DUP3 ADD MSTORE POP JUMP JUMPDEST PUSH0 PUSH2 0x2C8F PUSH1 0x1B DUP4 PUSH2 0x27C5 JUMP JUMPDEST SWAP2 POP PUSH2 0x2C9A DUP3 PUSH2 0x2C5B JUMP JUMPDEST PUSH1 0x20 DUP3 ADD SWAP1 POP SWAP2 SWAP1 POP JUMP JUMPDEST PUSH0 PUSH1 0x20 DUP3 ADD SWAP1 POP DUP2 DUP2 SUB PUSH0 DUP4 ADD MSTORE PUSH2 0x2CBC DUP2 PUSH2 0x2C83 JUMP JUMPDEST SWAP1 POP SWAP2 SWAP1 POP JUMP JUMPDEST PUSH32 0x546F6B656E42207472616E73666572206661696C656400000000000000000000 PUSH0 DUP3 ADD MSTORE POP JUMP JUMPDEST PUSH0 PUSH2 0x2CF7 PUSH1 0x16 DUP4 PUSH2 0x27C5 JUMP JUMPDEST SWAP2 POP PUSH2 0x2D02 DUP3 PUSH2 0x2CC3 JUMP JUMPDEST PUSH1 0x20 DUP3 ADD SWAP1 POP SWAP2 SWAP1 POP JUMP JUMPDEST PUSH0 PUSH1 0x20 DUP3 ADD SWAP1 POP DUP2 DUP2 SUB PUSH0 DUP4 ADD MSTORE PUSH2 0x2D24 DUP2 PUSH2 0x2CEB JUMP JUMPDEST SWAP1 POP SWAP2 SWAP1 POP JUMP JUMPDEST PUSH32 0x4E487B7100000000000000000000000000000000000000000000000000000000 PUSH0 MSTORE PUSH1 0x41 PUSH1 0x4 MSTORE PUSH1 0x24 PUSH0 REVERT JUMPDEST PUSH32 0x4E487B7100000000000000000000000000000000000000000000000000000000 PUSH0 MSTORE PUSH1 0x32 PUSH1 0x4 MSTORE PUSH1 0x24 PUSH0 REVERT JUMPDEST PUSH32 0x4E487B7100000000000000000000000000000000000000000000000000000000 PUSH0 MSTORE PUSH1 0x11 PUSH1 0x4 MSTORE PUSH1 0x24 PUSH0 REVERT JUMPDEST PUSH0 PUSH2 0x2DBC DUP3 PUSH2 0x23C7 JUMP JUMPDEST SWAP2 POP PUSH32 0xFFFFFFFFFFFFFFFFFFFFFFFFFFFFFFFFFFFFFFFFFFFFFFFFFFFFFFFFFFFFFFFF DUP3 SUB PUSH2 0x2DEE JUMPI PUSH2 0x2DED PUSH2 0x2D85 JUMP JUMPDEST JUMPDEST PUSH1 0x1 DUP3 ADD SWAP1 POP SWAP2 SWAP1 POP JUMP JUMPDEST PUSH0 PUSH1 0xFF DUP3 AND SWAP1 POP SWAP2 SWAP1 POP JUMP JUMPDEST PUSH2 0x2E0E DUP2 PUSH2 0x2DF9 JUMP JUMPDEST DUP2 EQ PUSH2 0x2E18 JUMPI PUSH0 DUP1 REVERT JUMPDEST POP JUMP JUMPDEST PUSH0 DUP2 MLOAD SWAP1 POP PUSH2 0x2E29 DUP2 PUSH2 0x2E05 JUMP JUMPDEST SWAP3 SWAP2 POP POP JUMP JUMPDEST PUSH0 PUSH1 0x20 DUP3 DUP5 SUB SLT ISZERO PUSH2 0x2E44 JUMPI PUSH2 0x2E43 PUSH2 0x2365 JUMP JUMPDEST JUMPDEST PUSH0 PUSH2 0x2E51 DUP5 DUP3 DUP6 ADD PUSH2 0x2E1B JUMP JUMPDEST SWAP2 POP POP SWAP3 SWAP2 POP POP JUMP JUMPDEST PUSH0 DUP2 PUSH1 0x1 SHR SWAP1 POP SWAP2 SWAP1 POP JUMP JUMPDEST PUSH0 DUP1 DUP3 SWAP2 POP DUP4 SWAP1 POP JUMPDEST PUSH1 0x1 DUP6 GT ISZERO PUSH2 0x2EAF JUMPI DUP1 DUP7 DIV DUP2 GT ISZERO PUSH2 0x2E8B JUMPI PUSH2 0x2E8A PUSH2 0x2D85 JUMP JUMPDEST JUMPDEST PUSH1 0x1 DUP6 AND ISZERO PUSH2 0x2E9A JUMPI DUP1 DUP3 MUL SWAP2 POP JUMPDEST DUP1 DUP2 MUL SWAP1 POP PUSH2 0x2EA8 DUP6 PUSH2 0x2E5A JUMP JUMPDEST SWAP5 POP PUSH2 0x2E6F JUMP JUMPDEST SWAP5 POP SWAP5 SWAP3 POP POP POP JUMP JUMPDEST PUSH0 DUP3 PUSH2 0x2EC7 JUMPI PUSH1 0x1 SWAP1 POP PUSH2 0x2F82 JUMP JUMPDEST DUP2 PUSH2 0x2ED4 JUMPI PUSH0 SWAP1 POP PUSH2 0x2F82 JUMP JUMPDEST DUP2 PUSH1 0x1 DUP2 EQ PUSH2 0x2EEA JUMPI PUSH1 0x2 DUP2 EQ PUSH2 0x2EF4 JUMPI PUSH2 0x2F23 JUMP JUMPDEST PUSH1 0x1 SWAP2 POP POP PUSH2 0x2F82 JUMP JUMPDEST PUSH1 0xFF DUP5 GT ISZERO PUSH2 0x2F06 JUMPI PUSH2 0x2F05 PUSH2 0x2D85 JUMP JUMPDEST JUMPDEST DUP4 PUSH1 0x2 EXP SWAP2 POP DUP5 DUP3 GT ISZERO PUSH2 0x2F1D JUMPI PUSH2 0x2F1C PUSH2 0x2D85 JUMP JUMPDEST JUMPDEST POP PUSH2 0x2F82 JUMP JUMPDEST POP PUSH1 0x20 DUP4 LT PUSH2 0x133 DUP4 LT AND PUSH1 0x4E DUP5 LT PUSH1 0xB DUP5 LT AND OR ISZERO PUSH2 0x2F58 JUMPI DUP3 DUP3 EXP SWAP1 POP DUP4 DUP2 GT ISZERO PUSH2 0x2F53 JUMPI PUSH2 0x2F52 PUSH2 0x2D85 JUMP JUMPDEST JUMPDEST PUSH2 0x2F82 JUMP JUMPDEST PUSH2 0x2F65 DUP5 DUP5 DUP5 PUSH1 0x1 PUSH2 0x2E66 JUMP JUMPDEST SWAP3 POP SWAP1 POP DUP2 DUP5 DIV DUP2 GT ISZERO PUSH2 0x2F7C JUMPI PUSH2 0x2F7B PUSH2 0x2D85 JUMP JUMPDEST JUMPDEST DUP2 DUP2 MUL SWAP1 POP JUMPDEST SWAP4 SWAP3 POP POP POP JUMP JUMPDEST PUSH0 PUSH2 0x2F93 DUP3 PUSH2 0x23C7 JUMP JUMPDEST SWAP2 POP PUSH2 0x2F9E DUP4 PUSH2 0x2DF9 JUMP JUMPDEST SWAP3 POP PUSH2 0x2FCB PUSH32 0xFFFFFFFFFFFFFFFFFFFFFFFFFFFFFFFFFFFFFFFFFFFFFFFFFFFFFFFFFFFFFFFF DUP5 DUP5 PUSH2 0x2EB8 JUMP JUMPDEST SWAP1 POP SWAP3 SWAP2 POP POP JUMP JUMPDEST PUSH32 0x4E487B7100000000000000000000000000000000000000000000000000000000 PUSH0 MSTORE PUSH1 0x12 PUSH1 0x4 MSTORE PUSH1 0x24 PUSH0 REVERT JUMPDEST PUSH0 PUSH2 0x300A DUP3 PUSH2 0x23C7 JUMP JUMPDEST SWAP2 POP PUSH2 0x3015 DUP4 PUSH2 0x23C7 JUMP JUMPDEST SWAP3 POP DUP3 PUSH2 0x3025 JUMPI PUSH2 0x3024 PUSH2 0x2FD3 JUMP JUMPDEST JUMPDEST DUP3 DUP3 DIV SWAP1 POP SWAP3 SWAP2 POP POP JUMP JUMPDEST PUSH32 0x416D6F756E74206D7573742062652067726561746572207468616E207A65726F PUSH0 DUP3 ADD MSTORE POP JUMP JUMPDEST PUSH0 PUSH2 0x3064 PUSH1 0x20 DUP4 PUSH2 0x27C5 JUMP JUMPDEST SWAP2 POP PUSH2 0x306F DUP3 PUSH2 0x3030 JUMP JUMPDEST PUSH1 0x20 DUP3 ADD SWAP1 POP SWAP2 SWAP1 POP JUMP JUMPDEST PUSH0 PUSH1 0x20 DUP3 ADD SWAP1 POP DUP2 DUP2 SUB PUSH0 DUP4 ADD MSTORE PUSH2 0x3091 DUP2 PUSH2 0x3058 JUMP JUMPDEST SWAP1 POP SWAP2 SWAP1 POP JUMP JUMPDEST PUSH32 0x4E6F7420656E6F75676820616C6C6F77616E6365000000000000000000000000 PUSH0 DUP3 ADD MSTORE POP JUMP JUMPDEST PUSH0 PUSH2 0x30CC PUSH1 0x14 DUP4 PUSH2 0x27C5 JUMP JUMPDEST SWAP2 POP PUSH2 0x30D7 DUP3 PUSH2 0x3098 JUMP JUMPDEST PUSH1 0x20 DUP3 ADD SWAP1 POP SWAP2 SWAP1 POP JUMP JUMPDEST PUSH0 PUSH1 0x20 DUP3 ADD SWAP1 POP DUP2 DUP2 SUB PUSH0 DUP4 ADD MSTORE PUSH2 0x30F9 DUP2 PUSH2 0x30C0 JUMP JUMPDEST SWAP1 POP SWAP2 SWAP1 POP JUMP JUMPDEST PUSH32 0x5472616E73666572206661696C65640000000000000000000000000000000000 PUSH0 DUP3 ADD MSTORE POP JUMP JUMPDEST PUSH0 PUSH2 0x3134 PUSH1 0xF DUP4 PUSH2 0x27C5 JUMP JUMPDEST SWAP2 POP PUSH2 0x313F DUP3 PUSH2 0x3100 JUMP JUMPDEST PUSH1 0x20 DUP3 ADD SWAP1 POP SWAP2 SWAP1 POP JUMP JUMPDEST PUSH0 PUSH1 0x20 DUP3 ADD SWAP1 POP DUP2 DUP2 SUB PUSH0 DUP4 ADD MSTORE PUSH2 0x3161 DUP2 PUSH2 0x3128 JUMP JUMPDEST SWAP1 POP SWAP2 SWAP1 POP JUMP JUMPDEST PUSH0 PUSH2 0x3172 DUP3 PUSH2 0x23C7 JUMP JUMPDEST SWAP2 POP PUSH2 0x317D DUP4 PUSH2 0x23C7 JUMP JUMPDEST SWAP3 POP DUP3 DUP3 ADD SWAP1 POP DUP1 DUP3 GT ISZERO PUSH2 0x3195 JUMPI PUSH2 0x3194 PUSH2 0x2D85 JUMP JUMPDEST JUMPDEST SWAP3 SWAP2 POP POP JUMP JUMPDEST PUSH0 DUP2 SWAP1 POP SWAP2 SWAP1 POP JUMP JUMPDEST PUSH0 DUP2 SWAP1 POP SWAP2 SWAP1 POP JUMP JUMPDEST PUSH0 PUSH2 0x31C7 PUSH2 0x31C2 PUSH2 0x31BD DUP5 PUSH2 0x319B JUMP JUMPDEST PUSH2 0x31A4 JUMP JUMPDEST PUSH2 0x23C7 JUMP JUMPDEST SWAP1 POP SWAP2 SWAP1 POP JUMP JUMPDEST PUSH2 0x31D7 DUP2 PUSH2 0x31AD JUMP JUMPDEST DUP3 MSTORE POP POP JUMP JUMPDEST PUSH0 PUSH1 0x60 DUP3 ADD SWAP1 POP PUSH2 0x31F0 PUSH0 DUP4 ADD DUP7 PUSH2 0x26A9 JUMP JUMPDEST PUSH2 0x31FD PUSH1 0x20 DUP4 ADD DUP6 PUSH2 0x26A9 JUMP JUMPDEST PUSH2 0x320A PUSH1 0x40 DUP4 ADD DUP5 PUSH2 0x31CE JUMP JUMPDEST SWAP5 SWAP4 POP POP POP POP JUMP JUMPDEST PUSH0 PUSH1 0x40 DUP3 ADD SWAP1 POP PUSH2 0x3225 PUSH0 DUP4 ADD DUP6 PUSH2 0x26A9 JUMP JUMPDEST PUSH2 0x3232 PUSH1 0x20 DUP4 ADD DUP5 PUSH2 0x31CE JUMP JUMPDEST SWAP4 SWAP3 POP POP POP JUMP JUMPDEST PUSH0 PUSH2 0x3243 DUP3 PUSH2 0x23C7 JUMP JUMPDEST SWAP2 POP PUSH2 0x324E DUP4 PUSH2 0x23C7 JUMP JUMPDEST SWAP3 POP DUP3 DUP3 SUB SWAP1 POP DUP2 DUP2 GT ISZERO PUSH2 0x3266 JUMPI PUSH2 0x3265 PUSH2 0x2D85 JUMP JUMPDEST JUMPDEST SWAP3 SWAP2 POP POP JUMP JUMPDEST PUSH0 PUSH1 0x80 DUP3 ADD SWAP1 POP PUSH2 0x327F PUSH0 DUP4 ADD DUP8 PUSH2 0x26A9 JUMP JUMPDEST PUSH2 0x328C PUSH1 0x20 DUP4 ADD DUP7 PUSH2 0x26A9 JUMP JUMPDEST PUSH2 0x3299 PUSH1 0x40 DUP4 ADD DUP6 PUSH2 0x31CE JUMP JUMPDEST PUSH2 0x32A6 PUSH1 0x60 DUP4 ADD DUP5 PUSH2 0x31CE JUMP JUMPDEST SWAP6 SWAP5 POP POP POP POP POP JUMP JUMPDEST PUSH32 0x496E73756666696369656E74206665652073656E740000000000000000000000 PUSH0 DUP3 ADD MSTORE POP JUMP JUMPDEST PUSH0 PUSH2 0x32E3 PUSH1 0x15 DUP4 PUSH2 0x27C5 JUMP JUMPDEST SWAP2 POP PUSH2 0x32EE DUP3 PUSH2 0x32AF JUMP JUMPDEST PUSH1 0x20 DUP3 ADD SWAP1 POP SWAP2 SWAP1 POP JUMP JUMPDEST PUSH0 PUSH1 0x20 DUP3 ADD SWAP1 POP DUP2 DUP2 SUB PUSH0 DUP4 ADD MSTORE PUSH2 0x3310 DUP2 PUSH2 0x32D7 JUMP JUMPDEST SWAP1 POP SWAP2 SWAP1 POP JUMP JUMPDEST PUSH0 DUP3 SWAP1 POP SWAP3 SWAP2 POP POP JUMP JUMPDEST PUSH32 0x4E487B7100000000000000000000000000000000000000000000000000000000 PUSH0 MSTORE PUSH1 0x22 PUSH1 0x4 MSTORE PUSH1 0x24 PUSH0 REVERT JUMPDEST PUSH0 PUSH1 0x2 DUP3 DIV SWAP1 POP PUSH1 0x1 DUP3 AND DUP1 PUSH2 0x3365 JUMPI PUSH1 0x7F DUP3 AND SWAP2 POP JUMPDEST PUSH1 0x20 DUP3 LT DUP2 SUB PUSH2 0x3378 JUMPI PUSH2 0x3377 PUSH2 0x3321 JUMP JUMPDEST JUMPDEST POP SWAP2 SWAP1 POP JUMP JUMPDEST PUSH0 DUP2 SWAP1 POP DUP2 PUSH0 MSTORE PUSH1 0x20 PUSH0 KECCAK256 SWAP1 POP SWAP2 SWAP1 POP JUMP JUMPDEST PUSH0 PUSH1 0x20 PUSH1 0x1F DUP4 ADD DIV SWAP1 POP SWAP2 SWAP1 POP JUMP JUMPDEST PUSH0 DUP3 DUP3 SHL SWAP1 POP SWAP3 SWAP2 POP POP JUMP JUMPDEST PUSH0 PUSH1 0x8 DUP4 MUL PUSH2 0x33DA PUSH32 0xFFFFFFFFFFFFFFFFFFFFFFFFFFFFFFFFFFFFFFFFFFFFFFFFFFFFFFFFFFFFFFFF DUP3 PUSH2 0x339F JUMP JUMPDEST PUSH2 0x33E4 DUP7 DUP4 PUSH2 0x339F JUMP JUMPDEST SWAP6 POP DUP1 NOT DUP5 AND SWAP4 POP DUP1 DUP7 AND DUP5 OR SWAP3 POP POP POP SWAP4 SWAP3 POP POP POP JUMP JUMPDEST PUSH0 PUSH2 0x3416 PUSH2 0x3411 PUSH2 0x340C DUP5 PUSH2 0x23C7 JUMP JUMPDEST PUSH2 0x31A4 JUMP JUMPDEST PUSH2 0x23C7 JUMP JUMPDEST SWAP1 POP SWAP2 SWAP1 POP JUMP JUMPDEST PUSH0 DUP2 SWAP1 POP SWAP2 SWAP1 POP JUMP JUMPDEST PUSH2 0x342F DUP4 PUSH2 0x33FC JUMP JUMPDEST PUSH2 0x3443 PUSH2 0x343B DUP3 PUSH2 0x341D JUMP JUMPDEST DUP5 DUP5 SLOAD PUSH2 0x33AB JUMP JUMPDEST DUP3 SSTORE POP POP POP POP JUMP JUMPDEST PUSH0 SWAP1 JUMP JUMPDEST PUSH2 0x3457 PUSH2 0x344B JUMP JUMPDEST PUSH2 0x3462 DUP2 DUP5 DUP5 PUSH2 0x3426 JUMP JUMPDEST POP POP POP JUMP JUMPDEST JUMPDEST DUP2 DUP2 LT ISZERO PUSH2 0x3485 JUMPI PUSH2 0x347A PUSH0 DUP3 PUSH2 0x344F JUMP JUMPDEST PUSH1 0x1 DUP2 ADD SWAP1 POP PUSH2 0x3468 JUMP JUMPDEST POP POP JUMP JUMPDEST PUSH1 0x1F DUP3 GT ISZERO PUSH2 0x34CA JUMPI PUSH2 0x349B DUP2 PUSH2 0x337E JUMP JUMPDEST PUSH2 0x34A4 DUP5 PUSH2 0x3390 JUMP JUMPDEST DUP2 ADD PUSH1 0x20 DUP6 LT ISZERO PUSH2 0x34B3 JUMPI DUP2 SWAP1 POP JUMPDEST PUSH2 0x34C7 PUSH2 0x34BF DUP6 PUSH2 0x3390 JUMP JUMPDEST DUP4 ADD DUP3 PUSH2 0x3467 JUMP JUMPDEST POP POP JUMPDEST POP POP POP JUMP JUMPDEST PUSH0 DUP3 DUP3 SHR SWAP1 POP SWAP3 SWAP2 POP POP JUMP JUMPDEST PUSH0 PUSH2 0x34EA PUSH0 NOT DUP5 PUSH1 0x8 MUL PUSH2 0x34CF JUMP JUMPDEST NOT DUP1 DUP4 AND SWAP2 POP POP SWAP3 SWAP2 POP POP JUMP JUMPDEST PUSH0 PUSH2 0x3502 DUP4 DUP4 PUSH2 0x34DB JUMP JUMPDEST SWAP2 POP DUP3 PUSH1 0x2 MUL DUP3 OR SWAP1 POP SWAP3 SWAP2 POP POP JUMP JUMPDEST PUSH2 0x351C DUP4 DUP4 PUSH2 0x3317 JUMP JUMPDEST PUSH8 0xFFFFFFFFFFFFFFFF DUP2 GT ISZERO PUSH2 0x3535 JUMPI PUSH2 0x3534 PUSH2 0x2D2B JUMP JUMPDEST JUMPDEST PUSH2 0x353F DUP3 SLOAD PUSH2 0x334E JUMP JUMPDEST PUSH2 0x354A DUP3 DUP3 DUP6 PUSH2 0x3489 JUMP JUMPDEST PUSH0 PUSH1 0x1F DUP4 GT PUSH1 0x1 DUP2 EQ PUSH2 0x3577 JUMPI PUSH0 DUP5 ISZERO PUSH2 0x3565 JUMPI DUP3 DUP8 ADD CALLDATALOAD SWAP1 POP JUMPDEST PUSH2 0x356F DUP6 DUP3 PUSH2 0x34F7 JUMP JUMPDEST DUP7 SSTORE POP PUSH2 0x35D6 JUMP JUMPDEST PUSH1 0x1F NOT DUP5 AND PUSH2 0x3585 DUP7 PUSH2 0x337E JUMP JUMPDEST PUSH0 JUMPDEST DUP3 DUP2 LT ISZERO PUSH2 0x35AC JUMPI DUP5 DUP10 ADD CALLDATALOAD DUP3 SSTORE PUSH1 0x1 DUP3 ADD SWAP2 POP PUSH1 0x20 DUP6 ADD SWAP5 POP PUSH1 0x20 DUP2 ADD SWAP1 POP PUSH2 0x3587 JUMP JUMPDEST DUP7 DUP4 LT ISZERO PUSH2 0x35C9 JUMPI DUP5 DUP10 ADD CALLDATALOAD PUSH2 0x35C5 PUSH1 0x1F DUP10 AND DUP3 PUSH2 0x34DB JUMP JUMPDEST DUP4 SSTORE POP JUMPDEST PUSH1 0x1 PUSH1 0x2 DUP9 MUL ADD DUP9 SSTORE POP POP POP JUMPDEST POP POP POP POP POP POP POP JUMP JUMPDEST PUSH0 PUSH2 0x35E9 DUP3 PUSH2 0x23C7 JUMP JUMPDEST SWAP2 POP PUSH2 0x35F4 DUP4 PUSH2 0x23C7 JUMP JUMPDEST SWAP3 POP DUP3 DUP3 MUL PUSH2 0x3602 DUP2 PUSH2 0x23C7 JUMP JUMPDEST SWAP2 POP DUP3 DUP3 DIV DUP5 EQ DUP4 ISZERO OR PUSH2 0x3619 JUMPI PUSH2 0x3618 PUSH2 0x2D85 JUMP JUMPDEST JUMPDEST POP SWAP3 SWAP2 POP POP JUMP JUMPDEST PUSH32 0x4E6F7420656E6F75676820746F6B656E4220696E20706F6F6C00000000000000 PUSH0 DUP3 ADD MSTORE POP JUMP JUMPDEST PUSH0 PUSH2 0x3654 PUSH1 0x19 DUP4 PUSH2 0x27C5 JUMP JUMPDEST SWAP2 POP PUSH2 0x365F DUP3 PUSH2 0x3620 JUMP JUMPDEST PUSH1 0x20 DUP3 ADD SWAP1 POP SWAP2 SWAP1 POP JUMP JUMPDEST PUSH0 PUSH1 0x20 DUP3 ADD SWAP1 POP DUP2 DUP2 SUB PUSH0 DUP4 ADD MSTORE PUSH2 0x3681 DUP2 PUSH2 0x3648 JUMP JUMPDEST SWAP1 POP SWAP2 SWAP1 POP JUMP JUMPDEST PUSH0 PUSH1 0x80 DUP3 ADD SWAP1 POP PUSH2 0x369B PUSH0 DUP4 ADD DUP8 PUSH2 0x26A9 JUMP JUMPDEST PUSH2 0x36A8 PUSH1 0x20 DUP4 ADD DUP7 PUSH2 0x26A9 JUMP JUMPDEST PUSH2 0x36B5 PUSH1 0x40 DUP4 ADD DUP6 PUSH2 0x2618 JUMP JUMPDEST PUSH2 0x36C2 PUSH1 0x60 DUP4 ADD DUP5 PUSH2 0x31CE JUMP JUMPDEST SWAP6 SWAP5 POP POP POP POP POP JUMP JUMPDEST PUSH0 PUSH2 0x36D5 DUP3 PUSH2 0x23C7 JUMP JUMPDEST SWAP2 POP PUSH2 0x36E0 DUP4 PUSH2 0x23C7 JUMP JUMPDEST SWAP3 POP PUSH2 0x370D PUSH32 0xFFFFFFFFFFFFFFFFFFFFFFFFFFFFFFFFFFFFFFFFFFFFFFFFFFFFFFFFFFFFFFFF DUP5 DUP5 PUSH2 0x2EB8 JUMP JUMPDEST SWAP1 POP SWAP3 SWAP2 POP POP JUMP INVALID LOG2 PUSH5 0x6970667358 0x22 SLT KECCAK256 DIV POP RETURNDATACOPY 0xEE PC 0xE8 ADDRESS CREATE CREATE2 CALLVALUE PUSH17 0x96D5824321C73C67F1FA541AC539BF2967 0xEE 0x49 PUSH6 0x2364736F6C63 NUMBER STOP ADDMOD EQ STOP CALLER "
				},
				"gasEstimates": {
					"creation": {
						"codeDepositCost": "2831000",
						"executionCost": "infinite",
						"totalCost": "infinite"
					},
					"external": {
						"": "196",
						"callFee()": "2448",
						"deposit(address,uint256)": "infinite",
						"depositOwner(address,uint256)": "infinite",
						"depositWmon(uint256)": "infinite",
						"getContractBalance(address)": "infinite",
						"getContractPortfolio()": "infinite",
						"getUserPortfolio(address)": "infinite",
						"greeting()": "infinite",
						"owner()": "2619",
						"setGreeting(string)": "infinite",
						"swap(address,address,uint256,uint256)": "infinite",
						"swapOne(address,address,uint256)": "infinite",
						"swapWmon()": "infinite",
						"totalTokenBalance(address)": "2890",
						"trackedTokens(uint256)": "5011",
						"userBalances(address,address)": "infinite",
						"withdrawETH()": "infinite",
						"withdrawToken(address)": "infinite",
						"withdrawWmon()": "infinite"
					},
					"internal": {
						"_isTracked(address)": "infinite",
						"_toWei(address,uint256)": "infinite"
					}
				},
				"methodIdentifiers": {
					"callFee()": "90321e1a",
					"deposit(address,uint256)": "47e7ef24",
					"depositOwner(address,uint256)": "95310efa",
					"depositWmon(uint256)": "c8a34efe",
					"getContractBalance(address)": "43ab265f",
					"getContractPortfolio()": "6677b49b",
					"getUserPortfolio(address)": "1edb27e9",
					"greeting()": "ef690cc0",
					"owner()": "8da5cb5b",
					"setGreeting(string)": "a4136862",
					"swap(address,address,uint256,uint256)": "fe029156",
					"swapOne(address,address,uint256)": "087c3d4b",
					"swapWmon()": "97b8c3cb",
					"totalTokenBalance(address)": "f5465992",
					"trackedTokens(uint256)": "8305368a",
					"userBalances(address,address)": "adb51980",
					"withdrawETH()": "e086e5ec",
					"withdrawToken(address)": "89476069",
					"withdrawWmon()": "062dd331"
				}
			},
			"storageLayout": {
				"storage": [
					{
						"astId": 109,
						"contract": "TreasuryPool.sol:Gmonad",
						"label": "greeting",
						"offset": 0,
						"slot": "0",
						"type": "t_string_storage"
					},
					{
						"astId": 111,
						"contract": "TreasuryPool.sol:Gmonad",
						"label": "owner",
						"offset": 0,
						"slot": "1",
						"type": "t_address"
					},
					{
						"astId": 114,
						"contract": "TreasuryPool.sol:Gmonad",
						"label": "callFee",
						"offset": 0,
						"slot": "2",
						"type": "t_uint256"
					},
					{
						"astId": 118,
						"contract": "TreasuryPool.sol:Gmonad",
						"label": "totalTokenBalance",
						"offset": 0,
						"slot": "3",
						"type": "t_mapping(t_address,t_uint256)"
					},
					{
						"astId": 144,
						"contract": "TreasuryPool.sol:Gmonad",
						"label": "userBalances",
						"offset": 0,
						"slot": "4",
						"type": "t_mapping(t_address,t_mapping(t_address,t_uint256))"
					},
					{
						"astId": 147,
						"contract": "TreasuryPool.sol:Gmonad",
						"label": "trackedTokens",
						"offset": 0,
						"slot": "5",
						"type": "t_array(t_address)dyn_storage"
					}
				],
				"types": {
					"t_address": {
						"encoding": "inplace",
						"label": "address",
						"numberOfBytes": "20"
					},
					"t_array(t_address)dyn_storage": {
						"base": "t_address",
						"encoding": "dynamic_array",
						"label": "address[]",
						"numberOfBytes": "32"
					},
					"t_mapping(t_address,t_mapping(t_address,t_uint256))": {
						"encoding": "mapping",
						"key": "t_address",
						"label": "mapping(address => mapping(address => uint256))",
						"numberOfBytes": "32",
						"value": "t_mapping(t_address,t_uint256)"
					},
					"t_mapping(t_address,t_uint256)": {
						"encoding": "mapping",
						"key": "t_address",
						"label": "mapping(address => uint256)",
						"numberOfBytes": "32",
						"value": "t_uint256"
					},
					"t_string_storage": {
						"encoding": "bytes",
						"label": "string",
						"numberOfBytes": "32"
					},
					"t_uint256": {
						"encoding": "inplace",
						"label": "uint256",
						"numberOfBytes": "32"
					}
				}
			},
			"userdoc": {
				"kind": "user",
				"methods": {},
				"version": 1
			}
		}
	}
}