{
	"swap.sol": {
		"SimpleSwap": {
			"abi": [
				{
					"inputs": [],
					"stateMutability": "nonpayable",
					"type": "constructor"
				},
				{
					"anonymous": false,
					"inputs": [
						{
							"indexed": true,
							"internalType": "address",
							"name": "owner",
							"type": "address"
						},
						{
							"indexed": false,
							"internalType": "address",
							"name": "token",
							"type": "address"
						},
						{
							"indexed": false,
							"internalType": "uint256",
							"name": "amount",
							"type": "uint256"
						}
					],
					"name": "Deposited",
					"type": "event"
				},
				{
					"anonymous": false,
					"inputs": [
						{
							"indexed": true,
							"internalType": "address",
							"name": "owner",
							"type": "address"
						},
						{
							"indexed": false,
							"internalType": "uint256",
							"name": "amount",
							"type": "uint256"
						}
					],
					"name": "FeesWithdrawn",
					"type": "event"
				},
				{
					"anonymous": false,
					"inputs": [
						{
							"indexed": true,
							"internalType": "address",
							"name": "user",
							"type": "address"
						},
						{
							"indexed": false,
							"internalType": "address",
							"name": "tokenA",
							"type": "address"
						},
						{
							"indexed": false,
							"internalType": "address",
							"name": "tokenB",
							"type": "address"
						},
						{
							"indexed": false,
							"internalType": "uint256",
							"name": "amountA",
							"type": "uint256"
						},
						{
							"indexed": false,
							"internalType": "uint256",
							"name": "amountB",
							"type": "uint256"
						}
					],
					"name": "Swapped",
					"type": "event"
				},
				{
					"anonymous": false,
					"inputs": [
						{
							"indexed": true,
							"internalType": "address",
							"name": "owner",
							"type": "address"
						},
						{
							"indexed": false,
							"internalType": "address",
							"name": "token",
							"type": "address"
						},
						{
							"indexed": false,
							"internalType": "uint256",
							"name": "amount",
							"type": "uint256"
						}
					],
					"name": "Withdrawn",
					"type": "event"
				},
				{
					"stateMutability": "payable",
					"type": "fallback"
				},
				{
					"inputs": [
						{
							"internalType": "address",
							"name": "token",
							"type": "address"
						},
						{
							"internalType": "uint256",
							"name": "amount",
							"type": "uint256"
						}
					],
					"name": "deposit",
					"outputs": [],
					"stateMutability": "nonpayable",
					"type": "function"
				},
				{
					"inputs": [],
					"name": "owner",
					"outputs": [
						{
							"internalType": "address",
							"name": "",
							"type": "address"
						}
					],
					"stateMutability": "view",
					"type": "function"
				},
				{
					"inputs": [
						{
							"internalType": "address",
							"name": "tokenA",
							"type": "address"
						},
						{
							"internalType": "address",
							"name": "tokenB",
							"type": "address"
						},
						{
							"internalType": "uint256",
							"name": "amountA",
							"type": "uint256"
						},
						{
							"internalType": "uint256",
							"name": "rate",
							"type": "uint256"
						}
					],
					"name": "swap",
					"outputs": [],
					"stateMutability": "payable",
					"type": "function"
				},
				{
					"inputs": [],
					"name": "swapFee",
					"outputs": [
						{
							"internalType": "uint256",
							"name": "",
							"type": "uint256"
						}
					],
					"stateMutability": "view",
					"type": "function"
				},
				{
					"inputs": [
						{
							"internalType": "address",
							"name": "token",
							"type": "address"
						},
						{
							"internalType": "uint256",
							"name": "amount",
							"type": "uint256"
						}
					],
					"name": "withdraw",
					"outputs": [],
					"stateMutability": "nonpayable",
					"type": "function"
				},
				{
					"inputs": [],
					"name": "withdrawFees",
					"outputs": [],
					"stateMutability": "nonpayable",
					"type": "function"
				},
				{
					"stateMutability": "payable",
					"type": "receive"
				}
			],
			"devdoc": {
				"kind": "dev",
				"methods": {},
				"version": 1
			},
			"evm": {
				"assembly": "    /* \"swap.sol\":321:2824  contract SimpleSwap {... */\n  mstore(0x40, 0x80)\n    /* \"swap.sol\":752:803  constructor() {... */\n  callvalue\n  dup1\n  iszero\n  tag_1\n  jumpi\n  0x00\n  dup1\n  revert\ntag_1:\n  pop\n    /* \"swap.sol\":785:795  msg.sender */\n  caller\n    /* \"swap.sol\":777:782  owner */\n  0x00\n  dup1\n    /* \"swap.sol\":777:795  owner = msg.sender */\n  0x0100\n  exp\n  dup2\n  sload\n  dup2\n  0xffffffffffffffffffffffffffffffffffffffff\n  mul\n  not\n  and\n  swap1\n  dup4\n  0xffffffffffffffffffffffffffffffffffffffff\n  and\n  mul\n  or\n  swap1\n  sstore\n  pop\n    /* \"swap.sol\":321:2824  contract SimpleSwap {... */\n  dataSize(sub_0)\n  dup1\n  dataOffset(sub_0)\n  0x00\n  codecopy\n  0x00\n  return\nstop\n\nsub_0: assembly {\n        /* \"swap.sol\":321:2824  contract SimpleSwap {... */\n      mstore(0x40, 0x80)\n      jumpi(tag_1, lt(calldatasize, 0x04))\n      shr(0xe0, calldataload(0x00))\n      dup1\n      0x476343ee\n      eq\n      tag_3\n      jumpi\n      dup1\n      0x47e7ef24\n      eq\n      tag_4\n      jumpi\n      dup1\n      0x54cf2aeb\n      eq\n      tag_5\n      jumpi\n      dup1\n      0x8da5cb5b\n      eq\n      tag_6\n      jumpi\n      dup1\n      0xf3fef3a3\n      eq\n      tag_7\n      jumpi\n      dup1\n      0xfe029156\n      eq\n      tag_8\n      jumpi\n      jump(tag_2)\n    tag_1:\n      jumpi(tag_2, calldatasize)\n      stop\n    tag_2:\n      stop\n        /* \"swap.sol\":2486:2710  function withdrawFees() external onlyOwner {... */\n    tag_3:\n      callvalue\n      dup1\n      iszero\n      tag_13\n      jumpi\n      0x00\n      dup1\n      revert\n    tag_13:\n      pop\n      tag_14\n      tag_15\n      jump\t// in\n    tag_14:\n      stop\n        /* \"swap.sol\":1901:2157  function deposit(address token, uint amount) external onlyOwner {... */\n    tag_4:\n      callvalue\n      dup1\n      iszero\n      tag_16\n      jumpi\n      0x00\n      dup1\n      revert\n    tag_16:\n      pop\n      tag_17\n      0x04\n      dup1\n      calldatasize\n      sub\n      dup2\n      add\n      swap1\n      tag_18\n      swap2\n      swap1\n      tag_19\n      jump\t// in\n    tag_18:\n      tag_20\n      jump\t// in\n    tag_17:\n      stop\n        /* \"swap.sol\":375:418  uint256 public constant swapFee = 0.1 ether */\n    tag_5:\n      callvalue\n      dup1\n      iszero\n      tag_21\n      jumpi\n      0x00\n      dup1\n      revert\n    tag_21:\n      pop\n      tag_22\n      tag_23\n      jump\t// in\n    tag_22:\n      mload(0x40)\n      tag_24\n      swap2\n      swap1\n      tag_25\n      jump\t// in\n    tag_24:\n      mload(0x40)\n      dup1\n      swap2\n      sub\n      swap1\n      return\n        /* \"swap.sol\":348:368  address public owner */\n    tag_6:\n      callvalue\n      dup1\n      iszero\n      tag_26\n      jumpi\n      0x00\n      dup1\n      revert\n    tag_26:\n      pop\n      tag_27\n      tag_28\n      jump\t// in\n    tag_27:\n      mload(0x40)\n      tag_29\n      swap2\n      swap1\n      tag_30\n      jump\t// in\n    tag_29:\n      mload(0x40)\n      dup1\n      swap2\n      sub\n      swap1\n      return\n        /* \"swap.sol\":2196:2435  function withdraw(address token, uint amount) external onlyOwner {... */\n    tag_7:\n      callvalue\n      dup1\n      iszero\n      tag_31\n      jumpi\n      0x00\n      dup1\n      revert\n    tag_31:\n      pop\n      tag_32\n      0x04\n      dup1\n      calldatasize\n      sub\n      dup2\n      add\n      swap1\n      tag_33\n      swap2\n      swap1\n      tag_19\n      jump\t// in\n    tag_33:\n      tag_34\n      jump\t// in\n    tag_32:\n      stop\n        /* \"swap.sol\":957:1849  function swap(address tokenA, address tokenB, uint amountA, uint rate) external payable {... */\n    tag_8:\n      tag_35\n      0x04\n      dup1\n      calldatasize\n      sub\n      dup2\n      add\n      swap1\n      tag_36\n      swap2\n      swap1\n      tag_37\n      jump\t// in\n    tag_36:\n      tag_38\n      jump\t// in\n    tag_35:\n      stop\n        /* \"swap.sol\":2486:2710  function withdrawFees() external onlyOwner {... */\n    tag_15:\n        /* \"swap.sol\":865:870  owner */\n      0x00\n      dup1\n      sload\n      swap1\n      0x0100\n      exp\n      swap1\n      div\n      0xffffffffffffffffffffffffffffffffffffffff\n      and\n        /* \"swap.sol\":851:870  msg.sender == owner */\n      0xffffffffffffffffffffffffffffffffffffffff\n      and\n        /* \"swap.sol\":851:861  msg.sender */\n      caller\n        /* \"swap.sol\":851:870  msg.sender == owner */\n      0xffffffffffffffffffffffffffffffffffffffff\n      and\n      eq\n        /* \"swap.sol\":843:885  require(msg.sender == owner, \"Only owner\") */\n      tag_40\n      jumpi\n      mload(0x40)\n      0x08c379a000000000000000000000000000000000000000000000000000000000\n      dup2\n      mstore\n      0x04\n      add\n      tag_41\n      swap1\n      tag_42\n      jump\t// in\n    tag_41:\n      mload(0x40)\n      dup1\n      swap2\n      sub\n      swap1\n      revert\n    tag_40:\n        /* \"swap.sol\":2540:2548  uint bal */\n      0x00\n        /* \"swap.sol\":2551:2572  address(this).balance */\n      selfbalance\n        /* \"swap.sol\":2540:2572  uint bal = address(this).balance */\n      swap1\n      pop\n        /* \"swap.sol\":2597:2598  0 */\n      0x00\n        /* \"swap.sol\":2591:2594  bal */\n      dup2\n        /* \"swap.sol\":2591:2598  bal > 0 */\n      gt\n        /* \"swap.sol\":2583:2622  require(bal > 0, \"No fees to withdraw\") */\n      tag_44\n      jumpi\n      mload(0x40)\n      0x08c379a000000000000000000000000000000000000000000000000000000000\n      dup2\n      mstore\n      0x04\n      add\n      tag_45\n      swap1\n      tag_46\n      jump\t// in\n    tag_45:\n      mload(0x40)\n      dup1\n      swap2\n      sub\n      swap1\n      revert\n    tag_44:\n        /* \"swap.sol\":2641:2646  owner */\n      0x00\n      dup1\n      sload\n      swap1\n      0x0100\n      exp\n      swap1\n      div\n      0xffffffffffffffffffffffffffffffffffffffff\n      and\n        /* \"swap.sol\":2633:2656  payable(owner).transfer */\n      0xffffffffffffffffffffffffffffffffffffffff\n      and\n        /* \"swap.sol\":2633:2661  payable(owner).transfer(bal) */\n      0x08fc\n        /* \"swap.sol\":2657:2660  bal */\n      dup3\n        /* \"swap.sol\":2633:2661  payable(owner).transfer(bal) */\n      swap1\n      dup2\n      iszero\n      mul\n      swap1\n      mload(0x40)\n      0x00\n      mload(0x40)\n      dup1\n      dup4\n      sub\n      dup2\n      dup6\n      dup9\n      dup9\n      call\n      swap4\n      pop\n      pop\n      pop\n      pop\n      iszero\n      dup1\n      iszero\n      tag_48\n      jumpi\n      returndatasize\n      0x00\n      dup1\n      returndatacopy\n      revert(0x00, returndatasize)\n    tag_48:\n      pop\n        /* \"swap.sol\":2691:2696  owner */\n      0x00\n      dup1\n      sload\n      swap1\n      0x0100\n      exp\n      swap1\n      div\n      0xffffffffffffffffffffffffffffffffffffffff\n      and\n        /* \"swap.sol\":2677:2702  FeesWithdrawn(owner, bal) */\n      0xffffffffffffffffffffffffffffffffffffffff\n      and\n      0xc0819c13be868895eb93e40eaceb96de976442fa1d404e5c55f14bb65a8c489a\n        /* \"swap.sol\":2698:2701  bal */\n      dup3\n        /* \"swap.sol\":2677:2702  FeesWithdrawn(owner, bal) */\n      mload(0x40)\n      tag_49\n      swap2\n      swap1\n      tag_25\n      jump\t// in\n    tag_49:\n      mload(0x40)\n      dup1\n      swap2\n      sub\n      swap1\n      log2\n        /* \"swap.sol\":2529:2710  {... */\n      pop\n        /* \"swap.sol\":2486:2710  function withdrawFees() external onlyOwner {... */\n      jump\t// out\n        /* \"swap.sol\":1901:2157  function deposit(address token, uint amount) external onlyOwner {... */\n    tag_20:\n        /* \"swap.sol\":865:870  owner */\n      0x00\n      dup1\n      sload\n      swap1\n      0x0100\n      exp\n      swap1\n      div\n      0xffffffffffffffffffffffffffffffffffffffff\n      and\n        /* \"swap.sol\":851:870  msg.sender == owner */\n      0xffffffffffffffffffffffffffffffffffffffff\n      and\n        /* \"swap.sol\":851:861  msg.sender */\n      caller\n        /* \"swap.sol\":851:870  msg.sender == owner */\n      0xffffffffffffffffffffffffffffffffffffffff\n      and\n      eq\n        /* \"swap.sol\":843:885  require(msg.sender == owner, \"Only owner\") */\n      tag_51\n      jumpi\n      mload(0x40)\n      0x08c379a000000000000000000000000000000000000000000000000000000000\n      dup2\n      mstore\n      0x04\n      add\n      tag_52\n      swap1\n      tag_42\n      jump\t// in\n    tag_52:\n      mload(0x40)\n      dup1\n      swap2\n      sub\n      swap1\n      revert\n    tag_51:\n        /* \"swap.sol\":1976:1988  bool success */\n      0x00\n        /* \"swap.sol\":1998:2003  token */\n      dup3\n        /* \"swap.sol\":1991:2017  IERC20(token).transferFrom */\n      0xffffffffffffffffffffffffffffffffffffffff\n      and\n      0x23b872dd\n        /* \"swap.sol\":2018:2028  msg.sender */\n      caller\n        /* \"swap.sol\":2038:2042  this */\n      address\n        /* \"swap.sol\":2045:2051  amount */\n      dup6\n        /* \"swap.sol\":1991:2052  IERC20(token).transferFrom(msg.sender, address(this), amount) */\n      mload(0x40)\n      dup5\n      0xffffffff\n      and\n      0xe0\n      shl\n      dup2\n      mstore\n      0x04\n      add\n      tag_54\n      swap4\n      swap3\n      swap2\n      swap1\n      tag_55\n      jump\t// in\n    tag_54:\n      0x20\n      mload(0x40)\n      dup1\n      dup4\n      sub\n      dup2\n      0x00\n      dup8\n      gas\n      call\n      iszero\n      dup1\n      iszero\n      tag_57\n      jumpi\n      returndatasize\n      0x00\n      dup1\n      returndatacopy\n      revert(0x00, returndatasize)\n    tag_57:\n      pop\n      pop\n      pop\n      pop\n      mload(0x40)\n      returndatasize\n      not(0x1f)\n      0x1f\n      dup3\n      add\n      and\n      dup3\n      add\n      dup1\n      0x40\n      mstore\n      pop\n      dup2\n      add\n      swap1\n      tag_58\n      swap2\n      swap1\n      tag_59\n      jump\t// in\n    tag_58:\n        /* \"swap.sol\":1976:2052  bool success = IERC20(token).transferFrom(msg.sender, address(this), amount) */\n      swap1\n      pop\n        /* \"swap.sol\":2071:2078  success */\n      dup1\n        /* \"swap.sol\":2063:2097  require(success, \"Deposit failed\") */\n      tag_60\n      jumpi\n      mload(0x40)\n      0x08c379a000000000000000000000000000000000000000000000000000000000\n      dup2\n      mstore\n      0x04\n      add\n      tag_61\n      swap1\n      tag_62\n      jump\t// in\n    tag_61:\n      mload(0x40)\n      dup1\n      swap2\n      sub\n      swap1\n      revert\n    tag_60:\n        /* \"swap.sol\":2123:2133  msg.sender */\n      caller\n        /* \"swap.sol\":2113:2149  Deposited(msg.sender, token, amount) */\n      0xffffffffffffffffffffffffffffffffffffffff\n      and\n      0x8752a472e571a816aea92eec8dae9baf628e840f4929fbcc2d155e6233ff68a7\n        /* \"swap.sol\":2135:2140  token */\n      dup5\n        /* \"swap.sol\":2142:2148  amount */\n      dup5\n        /* \"swap.sol\":2113:2149  Deposited(msg.sender, token, amount) */\n      mload(0x40)\n      tag_63\n      swap3\n      swap2\n      swap1\n      tag_64\n      jump\t// in\n    tag_63:\n      mload(0x40)\n      dup1\n      swap2\n      sub\n      swap1\n      log2\n        /* \"swap.sol\":1965:2157  {... */\n      pop\n        /* \"swap.sol\":1901:2157  function deposit(address token, uint amount) external onlyOwner {... */\n      pop\n      pop\n      jump\t// out\n        /* \"swap.sol\":375:418  uint256 public constant swapFee = 0.1 ether */\n    tag_23:\n        /* \"swap.sol\":409:418  0.1 ether */\n      0x016345785d8a0000\n        /* \"swap.sol\":375:418  uint256 public constant swapFee = 0.1 ether */\n      dup2\n      jump\t// out\n        /* \"swap.sol\":348:368  address public owner */\n    tag_28:\n      0x00\n      dup1\n      sload\n      swap1\n      0x0100\n      exp\n      swap1\n      div\n      0xffffffffffffffffffffffffffffffffffffffff\n      and\n      dup2\n      jump\t// out\n        /* \"swap.sol\":2196:2435  function withdraw(address token, uint amount) external onlyOwner {... */\n    tag_34:\n        /* \"swap.sol\":865:870  owner */\n      0x00\n      dup1\n      sload\n      swap1\n      0x0100\n      exp\n      swap1\n      div\n      0xffffffffffffffffffffffffffffffffffffffff\n      and\n        /* \"swap.sol\":851:870  msg.sender == owner */\n      0xffffffffffffffffffffffffffffffffffffffff\n      and\n        /* \"swap.sol\":851:861  msg.sender */\n      caller\n        /* \"swap.sol\":851:870  msg.sender == owner */\n      0xffffffffffffffffffffffffffffffffffffffff\n      and\n      eq\n        /* \"swap.sol\":843:885  require(msg.sender == owner, \"Only owner\") */\n      tag_66\n      jumpi\n      mload(0x40)\n      0x08c379a000000000000000000000000000000000000000000000000000000000\n      dup2\n      mstore\n      0x04\n      add\n      tag_67\n      swap1\n      tag_42\n      jump\t// in\n    tag_67:\n      mload(0x40)\n      dup1\n      swap2\n      sub\n      swap1\n      revert\n    tag_66:\n        /* \"swap.sol\":2272:2284  bool success */\n      0x00\n        /* \"swap.sol\":2294:2299  token */\n      dup3\n        /* \"swap.sol\":2287:2309  IERC20(token).transfer */\n      0xffffffffffffffffffffffffffffffffffffffff\n      and\n      0xa9059cbb\n        /* \"swap.sol\":2310:2320  msg.sender */\n      caller\n        /* \"swap.sol\":2322:2328  amount */\n      dup5\n        /* \"swap.sol\":2287:2329  IERC20(token).transfer(msg.sender, amount) */\n      mload(0x40)\n      dup4\n      0xffffffff\n      and\n      0xe0\n      shl\n      dup2\n      mstore\n      0x04\n      add\n      tag_69\n      swap3\n      swap2\n      swap1\n      tag_64\n      jump\t// in\n    tag_69:\n      0x20\n      mload(0x40)\n      dup1\n      dup4\n      sub\n      dup2\n      0x00\n      dup8\n      gas\n      call\n      iszero\n      dup1\n      iszero\n      tag_71\n      jumpi\n      returndatasize\n      0x00\n      dup1\n      returndatacopy\n      revert(0x00, returndatasize)\n    tag_71:\n      pop\n      pop\n      pop\n      pop\n      mload(0x40)\n      returndatasize\n      not(0x1f)\n      0x1f\n      dup3\n      add\n      and\n      dup3\n      add\n      dup1\n      0x40\n      mstore\n      pop\n      dup2\n      add\n      swap1\n      tag_72\n      swap2\n      swap1\n      tag_59\n      jump\t// in\n    tag_72:\n        /* \"swap.sol\":2272:2329  bool success = IERC20(token).transfer(msg.sender, amount) */\n      swap1\n      pop\n        /* \"swap.sol\":2348:2355  success */\n      dup1\n        /* \"swap.sol\":2340:2375  require(success, \"Withdraw failed\") */\n      tag_73\n      jumpi\n      mload(0x40)\n      0x08c379a000000000000000000000000000000000000000000000000000000000\n      dup2\n      mstore\n      0x04\n      add\n      tag_74\n      swap1\n      tag_75\n      jump\t// in\n    tag_74:\n      mload(0x40)\n      dup1\n      swap2\n      sub\n      swap1\n      revert\n    tag_73:\n        /* \"swap.sol\":2401:2411  msg.sender */\n      caller\n        /* \"swap.sol\":2391:2427  Withdrawn(msg.sender, token, amount) */\n      0xffffffffffffffffffffffffffffffffffffffff\n      and\n      0xd1c19fbcd4551a5edfb66d43d2e337c04837afda3482b42bdf569a8fccdae5fb\n        /* \"swap.sol\":2413:2418  token */\n      dup5\n        /* \"swap.sol\":2420:2426  amount */\n      dup5\n        /* \"swap.sol\":2391:2427  Withdrawn(msg.sender, token, amount) */\n      mload(0x40)\n      tag_76\n      swap3\n      swap2\n      swap1\n      tag_64\n      jump\t// in\n    tag_76:\n      mload(0x40)\n      dup1\n      swap2\n      sub\n      swap1\n      log2\n        /* \"swap.sol\":2261:2435  {... */\n      pop\n        /* \"swap.sol\":2196:2435  function withdraw(address token, uint amount) external onlyOwner {... */\n      pop\n      pop\n      jump\t// out\n        /* \"swap.sol\":957:1849  function swap(address tokenA, address tokenB, uint amountA, uint rate) external payable {... */\n    tag_38:\n        /* \"swap.sol\":409:418  0.1 ether */\n      0x016345785d8a0000\n        /* \"swap.sol\":1064:1073  msg.value */\n      callvalue\n        /* \"swap.sol\":1064:1084  msg.value >= swapFee */\n      lt\n      iszero\n        /* \"swap.sol\":1056:1110  require(msg.value >= swapFee, \"Insufficient fee sent\") */\n      tag_78\n      jumpi\n      mload(0x40)\n      0x08c379a000000000000000000000000000000000000000000000000000000000\n      dup2\n      mstore\n      0x04\n      add\n      tag_79\n      swap1\n      tag_80\n      jump\t// in\n    tag_79:\n      mload(0x40)\n      dup1\n      swap2\n      sub\n      swap1\n      revert\n    tag_78:\n        /* \"swap.sol\":1139:1140  0 */\n      0x00\n        /* \"swap.sol\":1129:1136  amountA */\n      dup3\n        /* \"swap.sol\":1129:1140  amountA > 0 */\n      gt\n        /* \"swap.sol\":1121:1163  require(amountA > 0, \"Amount must be > 0\") */\n      tag_81\n      jumpi\n      mload(0x40)\n      0x08c379a000000000000000000000000000000000000000000000000000000000\n      dup2\n      mstore\n      0x04\n      add\n      tag_82\n      swap1\n      tag_83\n      jump\t// in\n    tag_82:\n      mload(0x40)\n      dup1\n      swap2\n      sub\n      swap1\n      revert\n    tag_81:\n        /* \"swap.sol\":1252:1265  bool successA */\n      0x00\n        /* \"swap.sol\":1275:1281  tokenA */\n      dup5\n        /* \"swap.sol\":1268:1295  IERC20(tokenA).transferFrom */\n      0xffffffffffffffffffffffffffffffffffffffff\n      and\n      0x23b872dd\n        /* \"swap.sol\":1296:1306  msg.sender */\n      caller\n        /* \"swap.sol\":1316:1320  this */\n      address\n        /* \"swap.sol\":1323:1330  amountA */\n      dup7\n        /* \"swap.sol\":1268:1331  IERC20(tokenA).transferFrom(msg.sender, address(this), amountA) */\n      mload(0x40)\n      dup5\n      0xffffffff\n      and\n      0xe0\n      shl\n      dup2\n      mstore\n      0x04\n      add\n      tag_84\n      swap4\n      swap3\n      swap2\n      swap1\n      tag_55\n      jump\t// in\n    tag_84:\n      0x20\n      mload(0x40)\n      dup1\n      dup4\n      sub\n      dup2\n      0x00\n      dup8\n      gas\n      call\n      iszero\n      dup1\n      iszero\n      tag_86\n      jumpi\n      returndatasize\n      0x00\n      dup1\n      returndatacopy\n      revert(0x00, returndatasize)\n    tag_86:\n      pop\n      pop\n      pop\n      pop\n      mload(0x40)\n      returndatasize\n      not(0x1f)\n      0x1f\n      dup3\n      add\n      and\n      dup3\n      add\n      dup1\n      0x40\n      mstore\n      pop\n      dup2\n      add\n      swap1\n      tag_87\n      swap2\n      swap1\n      tag_59\n      jump\t// in\n    tag_87:\n        /* \"swap.sol\":1252:1331  bool successA = IERC20(tokenA).transferFrom(msg.sender, address(this), amountA) */\n      swap1\n      pop\n        /* \"swap.sol\":1350:1358  successA */\n      dup1\n        /* \"swap.sol\":1342:1385  require(successA, \"TokenA transfer failed\") */\n      tag_88\n      jumpi\n      mload(0x40)\n      0x08c379a000000000000000000000000000000000000000000000000000000000\n      dup2\n      mstore\n      0x04\n      add\n      tag_89\n      swap1\n      tag_90\n      jump\t// in\n    tag_89:\n      mload(0x40)\n      dup1\n      swap2\n      sub\n      swap1\n      revert\n    tag_88:\n        /* \"swap.sol\":1444:1456  uint amountB */\n      0x00\n        /* \"swap.sol\":1478:1482  1e18 */\n      0x0de0b6b3a7640000\n        /* \"swap.sol\":1470:1474  rate */\n      dup4\n        /* \"swap.sol\":1460:1467  amountA */\n      dup6\n        /* \"swap.sol\":1460:1474  amountA * rate */\n      tag_91\n      swap2\n      swap1\n      tag_92\n      jump\t// in\n    tag_91:\n        /* \"swap.sol\":1459:1482  (amountA * rate) / 1e18 */\n      tag_93\n      swap2\n      swap1\n      tag_94\n      jump\t// in\n    tag_93:\n        /* \"swap.sol\":1444:1482  uint amountB = (amountA * rate) / 1e18 */\n      swap1\n      pop\n        /* \"swap.sol\":1574:1581  amountB */\n      dup1\n        /* \"swap.sol\":1538:1544  tokenB */\n      dup6\n        /* \"swap.sol\":1531:1555  IERC20(tokenB).balanceOf */\n      0xffffffffffffffffffffffffffffffffffffffff\n      and\n      0x70a08231\n        /* \"swap.sol\":1564:1568  this */\n      address\n        /* \"swap.sol\":1531:1570  IERC20(tokenB).balanceOf(address(this)) */\n      mload(0x40)\n      dup3\n      0xffffffff\n      and\n      0xe0\n      shl\n      dup2\n      mstore\n      0x04\n      add\n      tag_95\n      swap2\n      swap1\n      tag_30\n      jump\t// in\n    tag_95:\n      0x20\n      mload(0x40)\n      dup1\n      dup4\n      sub\n      dup2\n      dup7\n      gas\n      staticcall\n      iszero\n      dup1\n      iszero\n      tag_97\n      jumpi\n      returndatasize\n      0x00\n      dup1\n      returndatacopy\n      revert(0x00, returndatasize)\n    tag_97:\n      pop\n      pop\n      pop\n      pop\n      mload(0x40)\n      returndatasize\n      not(0x1f)\n      0x1f\n      dup3\n      add\n      and\n      dup3\n      add\n      dup1\n      0x40\n      mstore\n      pop\n      dup2\n      add\n      swap1\n      tag_98\n      swap2\n      swap1\n      tag_99\n      jump\t// in\n    tag_98:\n        /* \"swap.sol\":1531:1581  IERC20(tokenB).balanceOf(address(this)) >= amountB */\n      lt\n      iszero\n        /* \"swap.sol\":1523:1611  require(IERC20(tokenB).balanceOf(address(this)) >= amountB, \"Not enough tokenB in pool\") */\n      tag_100\n      jumpi\n      mload(0x40)\n      0x08c379a000000000000000000000000000000000000000000000000000000000\n      dup2\n      mstore\n      0x04\n      add\n      tag_101\n      swap1\n      tag_102\n      jump\t// in\n    tag_101:\n      mload(0x40)\n      dup1\n      swap2\n      sub\n      swap1\n      revert\n    tag_100:\n        /* \"swap.sol\":1656:1669  bool successB */\n      0x00\n        /* \"swap.sol\":1679:1685  tokenB */\n      dup6\n        /* \"swap.sol\":1672:1695  IERC20(tokenB).transfer */\n      0xffffffffffffffffffffffffffffffffffffffff\n      and\n      0xa9059cbb\n        /* \"swap.sol\":1696:1706  msg.sender */\n      caller\n        /* \"swap.sol\":1708:1715  amountB */\n      dup5\n        /* \"swap.sol\":1672:1716  IERC20(tokenB).transfer(msg.sender, amountB) */\n      mload(0x40)\n      dup4\n      0xffffffff\n      and\n      0xe0\n      shl\n      dup2\n      mstore\n      0x04\n      add\n      tag_103\n      swap3\n      swap2\n      swap1\n      tag_64\n      jump\t// in\n    tag_103:\n      0x20\n      mload(0x40)\n      dup1\n      dup4\n      sub\n      dup2\n      0x00\n      dup8\n      gas\n      call\n      iszero\n      dup1\n      iszero\n      tag_105\n      jumpi\n      returndatasize\n      0x00\n      dup1\n      returndatacopy\n      revert(0x00, returndatasize)\n    tag_105:\n      pop\n      pop\n      pop\n      pop\n      mload(0x40)\n      returndatasize\n      not(0x1f)\n      0x1f\n      dup3\n      add\n      and\n      dup3\n      add\n      dup1\n      0x40\n      mstore\n      pop\n      dup2\n      add\n      swap1\n      tag_106\n      swap2\n      swap1\n      tag_59\n      jump\t// in\n    tag_106:\n        /* \"swap.sol\":1656:1716  bool successB = IERC20(tokenB).transfer(msg.sender, amountB) */\n      swap1\n      pop\n        /* \"swap.sol\":1735:1743  successB */\n      dup1\n        /* \"swap.sol\":1727:1770  require(successB, \"TokenB transfer failed\") */\n      tag_107\n      jumpi\n      mload(0x40)\n      0x08c379a000000000000000000000000000000000000000000000000000000000\n      dup2\n      mstore\n      0x04\n      add\n      tag_108\n      swap1\n      tag_109\n      jump\t// in\n    tag_108:\n      mload(0x40)\n      dup1\n      swap2\n      sub\n      swap1\n      revert\n    tag_107:\n        /* \"swap.sol\":1796:1806  msg.sender */\n      caller\n        /* \"swap.sol\":1788:1841  Swapped(msg.sender, tokenA, tokenB, amountA, amountB) */\n      0xffffffffffffffffffffffffffffffffffffffff\n      and\n      0x6782190c91d4a7e8ad2a867deed6ec0a970cab8ff137ae2bd4abd92b3810f4d3\n        /* \"swap.sol\":1808:1814  tokenA */\n      dup9\n        /* \"swap.sol\":1816:1822  tokenB */\n      dup9\n        /* \"swap.sol\":1824:1831  amountA */\n      dup9\n        /* \"swap.sol\":1833:1840  amountB */\n      dup7\n        /* \"swap.sol\":1788:1841  Swapped(msg.sender, tokenA, tokenB, amountA, amountB) */\n      mload(0x40)\n      tag_110\n      swap5\n      swap4\n      swap3\n      swap2\n      swap1\n      tag_111\n      jump\t// in\n    tag_110:\n      mload(0x40)\n      dup1\n      swap2\n      sub\n      swap1\n      log2\n        /* \"swap.sol\":1045:1849  {... */\n      pop\n      pop\n      pop\n        /* \"swap.sol\":957:1849  function swap(address tokenA, address tokenB, uint amountA, uint rate) external payable {... */\n      pop\n      pop\n      pop\n      pop\n      jump\t// out\n        /* \"#utility.yul\":88:205   */\n    tag_113:\n        /* \"#utility.yul\":197:198   */\n      0x00\n        /* \"#utility.yul\":194:195   */\n      dup1\n        /* \"#utility.yul\":187:199   */\n      revert\n        /* \"#utility.yul\":334:460   */\n    tag_115:\n        /* \"#utility.yul\":371:378   */\n      0x00\n        /* \"#utility.yul\":411:453   */\n      0xffffffffffffffffffffffffffffffffffffffff\n        /* \"#utility.yul\":404:409   */\n      dup3\n        /* \"#utility.yul\":400:454   */\n      and\n        /* \"#utility.yul\":389:454   */\n      swap1\n      pop\n        /* \"#utility.yul\":334:460   */\n      swap2\n      swap1\n      pop\n      jump\t// out\n        /* \"#utility.yul\":466:562   */\n    tag_116:\n        /* \"#utility.yul\":503:510   */\n      0x00\n        /* \"#utility.yul\":532:556   */\n      tag_155\n        /* \"#utility.yul\":550:555   */\n      dup3\n        /* \"#utility.yul\":532:556   */\n      tag_115\n      jump\t// in\n    tag_155:\n        /* \"#utility.yul\":521:556   */\n      swap1\n      pop\n        /* \"#utility.yul\":466:562   */\n      swap2\n      swap1\n      pop\n      jump\t// out\n        /* \"#utility.yul\":568:690   */\n    tag_117:\n        /* \"#utility.yul\":641:665   */\n      tag_157\n        /* \"#utility.yul\":659:664   */\n      dup2\n        /* \"#utility.yul\":641:665   */\n      tag_116\n      jump\t// in\n    tag_157:\n        /* \"#utility.yul\":634:639   */\n      dup2\n        /* \"#utility.yul\":631:666   */\n      eq\n        /* \"#utility.yul\":621:684   */\n      tag_158\n      jumpi\n        /* \"#utility.yul\":680:681   */\n      0x00\n        /* \"#utility.yul\":677:678   */\n      dup1\n        /* \"#utility.yul\":670:682   */\n      revert\n        /* \"#utility.yul\":621:684   */\n    tag_158:\n        /* \"#utility.yul\":568:690   */\n      pop\n      jump\t// out\n        /* \"#utility.yul\":696:835   */\n    tag_118:\n        /* \"#utility.yul\":742:747   */\n      0x00\n        /* \"#utility.yul\":780:786   */\n      dup2\n        /* \"#utility.yul\":767:787   */\n      calldataload\n        /* \"#utility.yul\":758:787   */\n      swap1\n      pop\n        /* \"#utility.yul\":796:829   */\n      tag_160\n        /* \"#utility.yul\":823:828   */\n      dup2\n        /* \"#utility.yul\":796:829   */\n      tag_117\n      jump\t// in\n    tag_160:\n        /* \"#utility.yul\":696:835   */\n      swap3\n      swap2\n      pop\n      pop\n      jump\t// out\n        /* \"#utility.yul\":841:918   */\n    tag_119:\n        /* \"#utility.yul\":878:885   */\n      0x00\n        /* \"#utility.yul\":907:912   */\n      dup2\n        /* \"#utility.yul\":896:912   */\n      swap1\n      pop\n        /* \"#utility.yul\":841:918   */\n      swap2\n      swap1\n      pop\n      jump\t// out\n        /* \"#utility.yul\":924:1046   */\n    tag_120:\n        /* \"#utility.yul\":997:1021   */\n      tag_163\n        /* \"#utility.yul\":1015:1020   */\n      dup2\n        /* \"#utility.yul\":997:1021   */\n      tag_119\n      jump\t// in\n    tag_163:\n        /* \"#utility.yul\":990:995   */\n      dup2\n        /* \"#utility.yul\":987:1022   */\n      eq\n        /* \"#utility.yul\":977:1040   */\n      tag_164\n      jumpi\n        /* \"#utility.yul\":1036:1037   */\n      0x00\n        /* \"#utility.yul\":1033:1034   */\n      dup1\n        /* \"#utility.yul\":1026:1038   */\n      revert\n        /* \"#utility.yul\":977:1040   */\n    tag_164:\n        /* \"#utility.yul\":924:1046   */\n      pop\n      jump\t// out\n        /* \"#utility.yul\":1052:1191   */\n    tag_121:\n        /* \"#utility.yul\":1098:1103   */\n      0x00\n        /* \"#utility.yul\":1136:1142   */\n      dup2\n        /* \"#utility.yul\":1123:1143   */\n      calldataload\n        /* \"#utility.yul\":1114:1143   */\n      swap1\n      pop\n        /* \"#utility.yul\":1152:1185   */\n      tag_166\n        /* \"#utility.yul\":1179:1184   */\n      dup2\n        /* \"#utility.yul\":1152:1185   */\n      tag_120\n      jump\t// in\n    tag_166:\n        /* \"#utility.yul\":1052:1191   */\n      swap3\n      swap2\n      pop\n      pop\n      jump\t// out\n        /* \"#utility.yul\":1197:1671   */\n    tag_19:\n        /* \"#utility.yul\":1265:1271   */\n      0x00\n        /* \"#utility.yul\":1273:1279   */\n      dup1\n        /* \"#utility.yul\":1322:1324   */\n      0x40\n        /* \"#utility.yul\":1310:1319   */\n      dup4\n        /* \"#utility.yul\":1301:1308   */\n      dup6\n        /* \"#utility.yul\":1297:1320   */\n      sub\n        /* \"#utility.yul\":1293:1325   */\n      slt\n        /* \"#utility.yul\":1290:1409   */\n      iszero\n      tag_168\n      jumpi\n        /* \"#utility.yul\":1328:1407   */\n      tag_169\n      tag_113\n      jump\t// in\n    tag_169:\n        /* \"#utility.yul\":1290:1409   */\n    tag_168:\n        /* \"#utility.yul\":1448:1449   */\n      0x00\n        /* \"#utility.yul\":1473:1526   */\n      tag_170\n        /* \"#utility.yul\":1518:1525   */\n      dup6\n        /* \"#utility.yul\":1509:1515   */\n      dup3\n        /* \"#utility.yul\":1498:1507   */\n      dup7\n        /* \"#utility.yul\":1494:1516   */\n      add\n        /* \"#utility.yul\":1473:1526   */\n      tag_118\n      jump\t// in\n    tag_170:\n        /* \"#utility.yul\":1463:1526   */\n      swap3\n      pop\n        /* \"#utility.yul\":1419:1536   */\n      pop\n        /* \"#utility.yul\":1575:1577   */\n      0x20\n        /* \"#utility.yul\":1601:1654   */\n      tag_171\n        /* \"#utility.yul\":1646:1653   */\n      dup6\n        /* \"#utility.yul\":1637:1643   */\n      dup3\n        /* \"#utility.yul\":1626:1635   */\n      dup7\n        /* \"#utility.yul\":1622:1644   */\n      add\n        /* \"#utility.yul\":1601:1654   */\n      tag_121\n      jump\t// in\n    tag_171:\n        /* \"#utility.yul\":1591:1654   */\n      swap2\n      pop\n        /* \"#utility.yul\":1546:1664   */\n      pop\n        /* \"#utility.yul\":1197:1671   */\n      swap3\n      pop\n      swap3\n      swap1\n      pop\n      jump\t// out\n        /* \"#utility.yul\":1677:1795   */\n    tag_122:\n        /* \"#utility.yul\":1764:1788   */\n      tag_173\n        /* \"#utility.yul\":1782:1787   */\n      dup2\n        /* \"#utility.yul\":1764:1788   */\n      tag_119\n      jump\t// in\n    tag_173:\n        /* \"#utility.yul\":1759:1762   */\n      dup3\n        /* \"#utility.yul\":1752:1789   */\n      mstore\n        /* \"#utility.yul\":1677:1795   */\n      pop\n      pop\n      jump\t// out\n        /* \"#utility.yul\":1801:2023   */\n    tag_25:\n        /* \"#utility.yul\":1894:1898   */\n      0x00\n        /* \"#utility.yul\":1932:1934   */\n      0x20\n        /* \"#utility.yul\":1921:1930   */\n      dup3\n        /* \"#utility.yul\":1917:1935   */\n      add\n        /* \"#utility.yul\":1909:1935   */\n      swap1\n      pop\n        /* \"#utility.yul\":1945:2016   */\n      tag_175\n        /* \"#utility.yul\":2013:2014   */\n      0x00\n        /* \"#utility.yul\":2002:2011   */\n      dup4\n        /* \"#utility.yul\":1998:2015   */\n      add\n        /* \"#utility.yul\":1989:1995   */\n      dup5\n        /* \"#utility.yul\":1945:2016   */\n      tag_122\n      jump\t// in\n    tag_175:\n        /* \"#utility.yul\":1801:2023   */\n      swap3\n      swap2\n      pop\n      pop\n      jump\t// out\n        /* \"#utility.yul\":2029:2147   */\n    tag_123:\n        /* \"#utility.yul\":2116:2140   */\n      tag_177\n        /* \"#utility.yul\":2134:2139   */\n      dup2\n        /* \"#utility.yul\":2116:2140   */\n      tag_116\n      jump\t// in\n    tag_177:\n        /* \"#utility.yul\":2111:2114   */\n      dup3\n        /* \"#utility.yul\":2104:2141   */\n      mstore\n        /* \"#utility.yul\":2029:2147   */\n      pop\n      pop\n      jump\t// out\n        /* \"#utility.yul\":2153:2375   */\n    tag_30:\n        /* \"#utility.yul\":2246:2250   */\n      0x00\n        /* \"#utility.yul\":2284:2286   */\n      0x20\n        /* \"#utility.yul\":2273:2282   */\n      dup3\n        /* \"#utility.yul\":2269:2287   */\n      add\n        /* \"#utility.yul\":2261:2287   */\n      swap1\n      pop\n        /* \"#utility.yul\":2297:2368   */\n      tag_179\n        /* \"#utility.yul\":2365:2366   */\n      0x00\n        /* \"#utility.yul\":2354:2363   */\n      dup4\n        /* \"#utility.yul\":2350:2367   */\n      add\n        /* \"#utility.yul\":2341:2347   */\n      dup5\n        /* \"#utility.yul\":2297:2368   */\n      tag_123\n      jump\t// in\n    tag_179:\n        /* \"#utility.yul\":2153:2375   */\n      swap3\n      swap2\n      pop\n      pop\n      jump\t// out\n        /* \"#utility.yul\":2381:3146   */\n    tag_37:\n        /* \"#utility.yul\":2467:2473   */\n      0x00\n        /* \"#utility.yul\":2475:2481   */\n      dup1\n        /* \"#utility.yul\":2483:2489   */\n      0x00\n        /* \"#utility.yul\":2491:2497   */\n      dup1\n        /* \"#utility.yul\":2540:2543   */\n      0x80\n        /* \"#utility.yul\":2528:2537   */\n      dup6\n        /* \"#utility.yul\":2519:2526   */\n      dup8\n        /* \"#utility.yul\":2515:2538   */\n      sub\n        /* \"#utility.yul\":2511:2544   */\n      slt\n        /* \"#utility.yul\":2508:2628   */\n      iszero\n      tag_181\n      jumpi\n        /* \"#utility.yul\":2547:2626   */\n      tag_182\n      tag_113\n      jump\t// in\n    tag_182:\n        /* \"#utility.yul\":2508:2628   */\n    tag_181:\n        /* \"#utility.yul\":2667:2668   */\n      0x00\n        /* \"#utility.yul\":2692:2745   */\n      tag_183\n        /* \"#utility.yul\":2737:2744   */\n      dup8\n        /* \"#utility.yul\":2728:2734   */\n      dup3\n        /* \"#utility.yul\":2717:2726   */\n      dup9\n        /* \"#utility.yul\":2713:2735   */\n      add\n        /* \"#utility.yul\":2692:2745   */\n      tag_118\n      jump\t// in\n    tag_183:\n        /* \"#utility.yul\":2682:2745   */\n      swap5\n      pop\n        /* \"#utility.yul\":2638:2755   */\n      pop\n        /* \"#utility.yul\":2794:2796   */\n      0x20\n        /* \"#utility.yul\":2820:2873   */\n      tag_184\n        /* \"#utility.yul\":2865:2872   */\n      dup8\n        /* \"#utility.yul\":2856:2862   */\n      dup3\n        /* \"#utility.yul\":2845:2854   */\n      dup9\n        /* \"#utility.yul\":2841:2863   */\n      add\n        /* \"#utility.yul\":2820:2873   */\n      tag_118\n      jump\t// in\n    tag_184:\n        /* \"#utility.yul\":2810:2873   */\n      swap4\n      pop\n        /* \"#utility.yul\":2765:2883   */\n      pop\n        /* \"#utility.yul\":2922:2924   */\n      0x40\n        /* \"#utility.yul\":2948:3001   */\n      tag_185\n        /* \"#utility.yul\":2993:3000   */\n      dup8\n        /* \"#utility.yul\":2984:2990   */\n      dup3\n        /* \"#utility.yul\":2973:2982   */\n      dup9\n        /* \"#utility.yul\":2969:2991   */\n      add\n        /* \"#utility.yul\":2948:3001   */\n      tag_121\n      jump\t// in\n    tag_185:\n        /* \"#utility.yul\":2938:3001   */\n      swap3\n      pop\n        /* \"#utility.yul\":2893:3011   */\n      pop\n        /* \"#utility.yul\":3050:3052   */\n      0x60\n        /* \"#utility.yul\":3076:3129   */\n      tag_186\n        /* \"#utility.yul\":3121:3128   */\n      dup8\n        /* \"#utility.yul\":3112:3118   */\n      dup3\n        /* \"#utility.yul\":3101:3110   */\n      dup9\n        /* \"#utility.yul\":3097:3119   */\n      add\n        /* \"#utility.yul\":3076:3129   */\n      tag_121\n      jump\t// in\n    tag_186:\n        /* \"#utility.yul\":3066:3129   */\n      swap2\n      pop\n        /* \"#utility.yul\":3021:3139   */\n      pop\n        /* \"#utility.yul\":2381:3146   */\n      swap3\n      swap6\n      swap2\n      swap5\n      pop\n      swap3\n      pop\n      jump\t// out\n        /* \"#utility.yul\":3152:3321   */\n    tag_124:\n        /* \"#utility.yul\":3236:3247   */\n      0x00\n        /* \"#utility.yul\":3270:3276   */\n      dup3\n        /* \"#utility.yul\":3265:3268   */\n      dup3\n        /* \"#utility.yul\":3258:3277   */\n      mstore\n        /* \"#utility.yul\":3310:3314   */\n      0x20\n        /* \"#utility.yul\":3305:3308   */\n      dup3\n        /* \"#utility.yul\":3301:3315   */\n      add\n        /* \"#utility.yul\":3286:3315   */\n      swap1\n      pop\n        /* \"#utility.yul\":3152:3321   */\n      swap3\n      swap2\n      pop\n      pop\n      jump\t// out\n        /* \"#utility.yul\":3327:3487   */\n    tag_125:\n        /* \"#utility.yul\":3467:3479   */\n      0x4f6e6c79206f776e657200000000000000000000000000000000000000000000\n        /* \"#utility.yul\":3463:3464   */\n      0x00\n        /* \"#utility.yul\":3455:3461   */\n      dup3\n        /* \"#utility.yul\":3451:3465   */\n      add\n        /* \"#utility.yul\":3444:3480   */\n      mstore\n        /* \"#utility.yul\":3327:3487   */\n      pop\n      jump\t// out\n        /* \"#utility.yul\":3493:3859   */\n    tag_126:\n        /* \"#utility.yul\":3635:3638   */\n      0x00\n        /* \"#utility.yul\":3656:3723   */\n      tag_190\n        /* \"#utility.yul\":3720:3722   */\n      0x0a\n        /* \"#utility.yul\":3715:3718   */\n      dup4\n        /* \"#utility.yul\":3656:3723   */\n      tag_124\n      jump\t// in\n    tag_190:\n        /* \"#utility.yul\":3649:3723   */\n      swap2\n      pop\n        /* \"#utility.yul\":3732:3825   */\n      tag_191\n        /* \"#utility.yul\":3821:3824   */\n      dup3\n        /* \"#utility.yul\":3732:3825   */\n      tag_125\n      jump\t// in\n    tag_191:\n        /* \"#utility.yul\":3850:3852   */\n      0x20\n        /* \"#utility.yul\":3845:3848   */\n      dup3\n        /* \"#utility.yul\":3841:3853   */\n      add\n        /* \"#utility.yul\":3834:3853   */\n      swap1\n      pop\n        /* \"#utility.yul\":3493:3859   */\n      swap2\n      swap1\n      pop\n      jump\t// out\n        /* \"#utility.yul\":3865:4284   */\n    tag_42:\n        /* \"#utility.yul\":4031:4035   */\n      0x00\n        /* \"#utility.yul\":4069:4071   */\n      0x20\n        /* \"#utility.yul\":4058:4067   */\n      dup3\n        /* \"#utility.yul\":4054:4072   */\n      add\n        /* \"#utility.yul\":4046:4072   */\n      swap1\n      pop\n        /* \"#utility.yul\":4118:4127   */\n      dup2\n        /* \"#utility.yul\":4112:4116   */\n      dup2\n        /* \"#utility.yul\":4108:4128   */\n      sub\n        /* \"#utility.yul\":4104:4105   */\n      0x00\n        /* \"#utility.yul\":4093:4102   */\n      dup4\n        /* \"#utility.yul\":4089:4106   */\n      add\n        /* \"#utility.yul\":4082:4129   */\n      mstore\n        /* \"#utility.yul\":4146:4277   */\n      tag_193\n        /* \"#utility.yul\":4272:4276   */\n      dup2\n        /* \"#utility.yul\":4146:4277   */\n      tag_126\n      jump\t// in\n    tag_193:\n        /* \"#utility.yul\":4138:4277   */\n      swap1\n      pop\n        /* \"#utility.yul\":3865:4284   */\n      swap2\n      swap1\n      pop\n      jump\t// out\n        /* \"#utility.yul\":4290:4459   */\n    tag_127:\n        /* \"#utility.yul\":4430:4451   */\n      0x4e6f206665657320746f20776974686472617700000000000000000000000000\n        /* \"#utility.yul\":4426:4427   */\n      0x00\n        /* \"#utility.yul\":4418:4424   */\n      dup3\n        /* \"#utility.yul\":4414:4428   */\n      add\n        /* \"#utility.yul\":4407:4452   */\n      mstore\n        /* \"#utility.yul\":4290:4459   */\n      pop\n      jump\t// out\n        /* \"#utility.yul\":4465:4831   */\n    tag_128:\n        /* \"#utility.yul\":4607:4610   */\n      0x00\n        /* \"#utility.yul\":4628:4695   */\n      tag_196\n        /* \"#utility.yul\":4692:4694   */\n      0x13\n        /* \"#utility.yul\":4687:4690   */\n      dup4\n        /* \"#utility.yul\":4628:4695   */\n      tag_124\n      jump\t// in\n    tag_196:\n        /* \"#utility.yul\":4621:4695   */\n      swap2\n      pop\n        /* \"#utility.yul\":4704:4797   */\n      tag_197\n        /* \"#utility.yul\":4793:4796   */\n      dup3\n        /* \"#utility.yul\":4704:4797   */\n      tag_127\n      jump\t// in\n    tag_197:\n        /* \"#utility.yul\":4822:4824   */\n      0x20\n        /* \"#utility.yul\":4817:4820   */\n      dup3\n        /* \"#utility.yul\":4813:4825   */\n      add\n        /* \"#utility.yul\":4806:4825   */\n      swap1\n      pop\n        /* \"#utility.yul\":4465:4831   */\n      swap2\n      swap1\n      pop\n      jump\t// out\n        /* \"#utility.yul\":4837:5256   */\n    tag_46:\n        /* \"#utility.yul\":5003:5007   */\n      0x00\n        /* \"#utility.yul\":5041:5043   */\n      0x20\n        /* \"#utility.yul\":5030:5039   */\n      dup3\n        /* \"#utility.yul\":5026:5044   */\n      add\n        /* \"#utility.yul\":5018:5044   */\n      swap1\n      pop\n        /* \"#utility.yul\":5090:5099   */\n      dup2\n        /* \"#utility.yul\":5084:5088   */\n      dup2\n        /* \"#utility.yul\":5080:5100   */\n      sub\n        /* \"#utility.yul\":5076:5077   */\n      0x00\n        /* \"#utility.yul\":5065:5074   */\n      dup4\n        /* \"#utility.yul\":5061:5078   */\n      add\n        /* \"#utility.yul\":5054:5101   */\n      mstore\n        /* \"#utility.yul\":5118:5249   */\n      tag_199\n        /* \"#utility.yul\":5244:5248   */\n      dup2\n        /* \"#utility.yul\":5118:5249   */\n      tag_128\n      jump\t// in\n    tag_199:\n        /* \"#utility.yul\":5110:5249   */\n      swap1\n      pop\n        /* \"#utility.yul\":4837:5256   */\n      swap2\n      swap1\n      pop\n      jump\t// out\n        /* \"#utility.yul\":5262:5704   */\n    tag_55:\n        /* \"#utility.yul\":5411:5415   */\n      0x00\n        /* \"#utility.yul\":5449:5451   */\n      0x60\n        /* \"#utility.yul\":5438:5447   */\n      dup3\n        /* \"#utility.yul\":5434:5452   */\n      add\n        /* \"#utility.yul\":5426:5452   */\n      swap1\n      pop\n        /* \"#utility.yul\":5462:5533   */\n      tag_201\n        /* \"#utility.yul\":5530:5531   */\n      0x00\n        /* \"#utility.yul\":5519:5528   */\n      dup4\n        /* \"#utility.yul\":5515:5532   */\n      add\n        /* \"#utility.yul\":5506:5512   */\n      dup7\n        /* \"#utility.yul\":5462:5533   */\n      tag_123\n      jump\t// in\n    tag_201:\n        /* \"#utility.yul\":5543:5615   */\n      tag_202\n        /* \"#utility.yul\":5611:5613   */\n      0x20\n        /* \"#utility.yul\":5600:5609   */\n      dup4\n        /* \"#utility.yul\":5596:5614   */\n      add\n        /* \"#utility.yul\":5587:5593   */\n      dup6\n        /* \"#utility.yul\":5543:5615   */\n      tag_123\n      jump\t// in\n    tag_202:\n        /* \"#utility.yul\":5625:5697   */\n      tag_203\n        /* \"#utility.yul\":5693:5695   */\n      0x40\n        /* \"#utility.yul\":5682:5691   */\n      dup4\n        /* \"#utility.yul\":5678:5696   */\n      add\n        /* \"#utility.yul\":5669:5675   */\n      dup5\n        /* \"#utility.yul\":5625:5697   */\n      tag_122\n      jump\t// in\n    tag_203:\n        /* \"#utility.yul\":5262:5704   */\n      swap5\n      swap4\n      pop\n      pop\n      pop\n      pop\n      jump\t// out\n        /* \"#utility.yul\":5710:5800   */\n    tag_129:\n        /* \"#utility.yul\":5744:5751   */\n      0x00\n        /* \"#utility.yul\":5787:5792   */\n      dup2\n        /* \"#utility.yul\":5780:5793   */\n      iszero\n        /* \"#utility.yul\":5773:5794   */\n      iszero\n        /* \"#utility.yul\":5762:5794   */\n      swap1\n      pop\n        /* \"#utility.yul\":5710:5800   */\n      swap2\n      swap1\n      pop\n      jump\t// out\n        /* \"#utility.yul\":5806:5922   */\n    tag_130:\n        /* \"#utility.yul\":5876:5897   */\n      tag_206\n        /* \"#utility.yul\":5891:5896   */\n      dup2\n        /* \"#utility.yul\":5876:5897   */\n      tag_129\n      jump\t// in\n    tag_206:\n        /* \"#utility.yul\":5869:5874   */\n      dup2\n        /* \"#utility.yul\":5866:5898   */\n      eq\n        /* \"#utility.yul\":5856:5916   */\n      tag_207\n      jumpi\n        /* \"#utility.yul\":5912:5913   */\n      0x00\n        /* \"#utility.yul\":5909:5910   */\n      dup1\n        /* \"#utility.yul\":5902:5914   */\n      revert\n        /* \"#utility.yul\":5856:5916   */\n    tag_207:\n        /* \"#utility.yul\":5806:5922   */\n      pop\n      jump\t// out\n        /* \"#utility.yul\":5928:6065   */\n    tag_131:\n        /* \"#utility.yul\":5982:5987   */\n      0x00\n        /* \"#utility.yul\":6013:6019   */\n      dup2\n        /* \"#utility.yul\":6007:6020   */\n      mload\n        /* \"#utility.yul\":5998:6020   */\n      swap1\n      pop\n        /* \"#utility.yul\":6029:6059   */\n      tag_209\n        /* \"#utility.yul\":6053:6058   */\n      dup2\n        /* \"#utility.yul\":6029:6059   */\n      tag_130\n      jump\t// in\n    tag_209:\n        /* \"#utility.yul\":5928:6065   */\n      swap3\n      swap2\n      pop\n      pop\n      jump\t// out\n        /* \"#utility.yul\":6071:6416   */\n    tag_59:\n        /* \"#utility.yul\":6138:6144   */\n      0x00\n        /* \"#utility.yul\":6187:6189   */\n      0x20\n        /* \"#utility.yul\":6175:6184   */\n      dup3\n        /* \"#utility.yul\":6166:6173   */\n      dup5\n        /* \"#utility.yul\":6162:6185   */\n      sub\n        /* \"#utility.yul\":6158:6190   */\n      slt\n        /* \"#utility.yul\":6155:6274   */\n      iszero\n      tag_211\n      jumpi\n        /* \"#utility.yul\":6193:6272   */\n      tag_212\n      tag_113\n      jump\t// in\n    tag_212:\n        /* \"#utility.yul\":6155:6274   */\n    tag_211:\n        /* \"#utility.yul\":6313:6314   */\n      0x00\n        /* \"#utility.yul\":6338:6399   */\n      tag_213\n        /* \"#utility.yul\":6391:6398   */\n      dup5\n        /* \"#utility.yul\":6382:6388   */\n      dup3\n        /* \"#utility.yul\":6371:6380   */\n      dup6\n        /* \"#utility.yul\":6367:6389   */\n      add\n        /* \"#utility.yul\":6338:6399   */\n      tag_131\n      jump\t// in\n    tag_213:\n        /* \"#utility.yul\":6328:6399   */\n      swap2\n      pop\n        /* \"#utility.yul\":6284:6409   */\n      pop\n        /* \"#utility.yul\":6071:6416   */\n      swap3\n      swap2\n      pop\n      pop\n      jump\t// out\n        /* \"#utility.yul\":6422:6586   */\n    tag_132:\n        /* \"#utility.yul\":6562:6578   */\n      0x4465706f736974206661696c6564000000000000000000000000000000000000\n        /* \"#utility.yul\":6558:6559   */\n      0x00\n        /* \"#utility.yul\":6550:6556   */\n      dup3\n        /* \"#utility.yul\":6546:6560   */\n      add\n        /* \"#utility.yul\":6539:6579   */\n      mstore\n        /* \"#utility.yul\":6422:6586   */\n      pop\n      jump\t// out\n        /* \"#utility.yul\":6592:6958   */\n    tag_133:\n        /* \"#utility.yul\":6734:6737   */\n      0x00\n        /* \"#utility.yul\":6755:6822   */\n      tag_216\n        /* \"#utility.yul\":6819:6821   */\n      0x0e\n        /* \"#utility.yul\":6814:6817   */\n      dup4\n        /* \"#utility.yul\":6755:6822   */\n      tag_124\n      jump\t// in\n    tag_216:\n        /* \"#utility.yul\":6748:6822   */\n      swap2\n      pop\n        /* \"#utility.yul\":6831:6924   */\n      tag_217\n        /* \"#utility.yul\":6920:6923   */\n      dup3\n        /* \"#utility.yul\":6831:6924   */\n      tag_132\n      jump\t// in\n    tag_217:\n        /* \"#utility.yul\":6949:6951   */\n      0x20\n        /* \"#utility.yul\":6944:6947   */\n      dup3\n        /* \"#utility.yul\":6940:6952   */\n      add\n        /* \"#utility.yul\":6933:6952   */\n      swap1\n      pop\n        /* \"#utility.yul\":6592:6958   */\n      swap2\n      swap1\n      pop\n      jump\t// out\n        /* \"#utility.yul\":6964:7383   */\n    tag_62:\n        /* \"#utility.yul\":7130:7134   */\n      0x00\n        /* \"#utility.yul\":7168:7170   */\n      0x20\n        /* \"#utility.yul\":7157:7166   */\n      dup3\n        /* \"#utility.yul\":7153:7171   */\n      add\n        /* \"#utility.yul\":7145:7171   */\n      swap1\n      pop\n        /* \"#utility.yul\":7217:7226   */\n      dup2\n        /* \"#utility.yul\":7211:7215   */\n      dup2\n        /* \"#utility.yul\":7207:7227   */\n      sub\n        /* \"#utility.yul\":7203:7204   */\n      0x00\n        /* \"#utility.yul\":7192:7201   */\n      dup4\n        /* \"#utility.yul\":7188:7205   */\n      add\n        /* \"#utility.yul\":7181:7228   */\n      mstore\n        /* \"#utility.yul\":7245:7376   */\n      tag_219\n        /* \"#utility.yul\":7371:7375   */\n      dup2\n        /* \"#utility.yul\":7245:7376   */\n      tag_133\n      jump\t// in\n    tag_219:\n        /* \"#utility.yul\":7237:7376   */\n      swap1\n      pop\n        /* \"#utility.yul\":6964:7383   */\n      swap2\n      swap1\n      pop\n      jump\t// out\n        /* \"#utility.yul\":7389:7721   */\n    tag_64:\n        /* \"#utility.yul\":7510:7514   */\n      0x00\n        /* \"#utility.yul\":7548:7550   */\n      0x40\n        /* \"#utility.yul\":7537:7546   */\n      dup3\n        /* \"#utility.yul\":7533:7551   */\n      add\n        /* \"#utility.yul\":7525:7551   */\n      swap1\n      pop\n        /* \"#utility.yul\":7561:7632   */\n      tag_221\n        /* \"#utility.yul\":7629:7630   */\n      0x00\n        /* \"#utility.yul\":7618:7627   */\n      dup4\n        /* \"#utility.yul\":7614:7631   */\n      add\n        /* \"#utility.yul\":7605:7611   */\n      dup6\n        /* \"#utility.yul\":7561:7632   */\n      tag_123\n      jump\t// in\n    tag_221:\n        /* \"#utility.yul\":7642:7714   */\n      tag_222\n        /* \"#utility.yul\":7710:7712   */\n      0x20\n        /* \"#utility.yul\":7699:7708   */\n      dup4\n        /* \"#utility.yul\":7695:7713   */\n      add\n        /* \"#utility.yul\":7686:7692   */\n      dup5\n        /* \"#utility.yul\":7642:7714   */\n      tag_122\n      jump\t// in\n    tag_222:\n        /* \"#utility.yul\":7389:7721   */\n      swap4\n      swap3\n      pop\n      pop\n      pop\n      jump\t// out\n        /* \"#utility.yul\":7727:7892   */\n    tag_134:\n        /* \"#utility.yul\":7867:7884   */\n      0x5769746864726177206661696c65640000000000000000000000000000000000\n        /* \"#utility.yul\":7863:7864   */\n      0x00\n        /* \"#utility.yul\":7855:7861   */\n      dup3\n        /* \"#utility.yul\":7851:7865   */\n      add\n        /* \"#utility.yul\":7844:7885   */\n      mstore\n        /* \"#utility.yul\":7727:7892   */\n      pop\n      jump\t// out\n        /* \"#utility.yul\":7898:8264   */\n    tag_135:\n        /* \"#utility.yul\":8040:8043   */\n      0x00\n        /* \"#utility.yul\":8061:8128   */\n      tag_225\n        /* \"#utility.yul\":8125:8127   */\n      0x0f\n        /* \"#utility.yul\":8120:8123   */\n      dup4\n        /* \"#utility.yul\":8061:8128   */\n      tag_124\n      jump\t// in\n    tag_225:\n        /* \"#utility.yul\":8054:8128   */\n      swap2\n      pop\n        /* \"#utility.yul\":8137:8230   */\n      tag_226\n        /* \"#utility.yul\":8226:8229   */\n      dup3\n        /* \"#utility.yul\":8137:8230   */\n      tag_134\n      jump\t// in\n    tag_226:\n        /* \"#utility.yul\":8255:8257   */\n      0x20\n        /* \"#utility.yul\":8250:8253   */\n      dup3\n        /* \"#utility.yul\":8246:8258   */\n      add\n        /* \"#utility.yul\":8239:8258   */\n      swap1\n      pop\n        /* \"#utility.yul\":7898:8264   */\n      swap2\n      swap1\n      pop\n      jump\t// out\n        /* \"#utility.yul\":8270:8689   */\n    tag_75:\n        /* \"#utility.yul\":8436:8440   */\n      0x00\n        /* \"#utility.yul\":8474:8476   */\n      0x20\n        /* \"#utility.yul\":8463:8472   */\n      dup3\n        /* \"#utility.yul\":8459:8477   */\n      add\n        /* \"#utility.yul\":8451:8477   */\n      swap1\n      pop\n        /* \"#utility.yul\":8523:8532   */\n      dup2\n        /* \"#utility.yul\":8517:8521   */\n      dup2\n        /* \"#utility.yul\":8513:8533   */\n      sub\n        /* \"#utility.yul\":8509:8510   */\n      0x00\n        /* \"#utility.yul\":8498:8507   */\n      dup4\n        /* \"#utility.yul\":8494:8511   */\n      add\n        /* \"#utility.yul\":8487:8534   */\n      mstore\n        /* \"#utility.yul\":8551:8682   */\n      tag_228\n        /* \"#utility.yul\":8677:8681   */\n      dup2\n        /* \"#utility.yul\":8551:8682   */\n      tag_135\n      jump\t// in\n    tag_228:\n        /* \"#utility.yul\":8543:8682   */\n      swap1\n      pop\n        /* \"#utility.yul\":8270:8689   */\n      swap2\n      swap1\n      pop\n      jump\t// out\n        /* \"#utility.yul\":8695:8866   */\n    tag_136:\n        /* \"#utility.yul\":8835:8858   */\n      0x496e73756666696369656e74206665652073656e740000000000000000000000\n        /* \"#utility.yul\":8831:8832   */\n      0x00\n        /* \"#utility.yul\":8823:8829   */\n      dup3\n        /* \"#utility.yul\":8819:8833   */\n      add\n        /* \"#utility.yul\":8812:8859   */\n      mstore\n        /* \"#utility.yul\":8695:8866   */\n      pop\n      jump\t// out\n        /* \"#utility.yul\":8872:9238   */\n    tag_137:\n        /* \"#utility.yul\":9014:9017   */\n      0x00\n        /* \"#utility.yul\":9035:9102   */\n      tag_231\n        /* \"#utility.yul\":9099:9101   */\n      0x15\n        /* \"#utility.yul\":9094:9097   */\n      dup4\n        /* \"#utility.yul\":9035:9102   */\n      tag_124\n      jump\t// in\n    tag_231:\n        /* \"#utility.yul\":9028:9102   */\n      swap2\n      pop\n        /* \"#utility.yul\":9111:9204   */\n      tag_232\n        /* \"#utility.yul\":9200:9203   */\n      dup3\n        /* \"#utility.yul\":9111:9204   */\n      tag_136\n      jump\t// in\n    tag_232:\n        /* \"#utility.yul\":9229:9231   */\n      0x20\n        /* \"#utility.yul\":9224:9227   */\n      dup3\n        /* \"#utility.yul\":9220:9232   */\n      add\n        /* \"#utility.yul\":9213:9232   */\n      swap1\n      pop\n        /* \"#utility.yul\":8872:9238   */\n      swap2\n      swap1\n      pop\n      jump\t// out\n        /* \"#utility.yul\":9244:9663   */\n    tag_80:\n        /* \"#utility.yul\":9410:9414   */\n      0x00\n        /* \"#utility.yul\":9448:9450   */\n      0x20\n        /* \"#utility.yul\":9437:9446   */\n      dup3\n        /* \"#utility.yul\":9433:9451   */\n      add\n        /* \"#utility.yul\":9425:9451   */\n      swap1\n      pop\n        /* \"#utility.yul\":9497:9506   */\n      dup2\n        /* \"#utility.yul\":9491:9495   */\n      dup2\n        /* \"#utility.yul\":9487:9507   */\n      sub\n        /* \"#utility.yul\":9483:9484   */\n      0x00\n        /* \"#utility.yul\":9472:9481   */\n      dup4\n        /* \"#utility.yul\":9468:9485   */\n      add\n        /* \"#utility.yul\":9461:9508   */\n      mstore\n        /* \"#utility.yul\":9525:9656   */\n      tag_234\n        /* \"#utility.yul\":9651:9655   */\n      dup2\n        /* \"#utility.yul\":9525:9656   */\n      tag_137\n      jump\t// in\n    tag_234:\n        /* \"#utility.yul\":9517:9656   */\n      swap1\n      pop\n        /* \"#utility.yul\":9244:9663   */\n      swap2\n      swap1\n      pop\n      jump\t// out\n        /* \"#utility.yul\":9669:9837   */\n    tag_138:\n        /* \"#utility.yul\":9809:9829   */\n      0x416d6f756e74206d757374206265203e20300000000000000000000000000000\n        /* \"#utility.yul\":9805:9806   */\n      0x00\n        /* \"#utility.yul\":9797:9803   */\n      dup3\n        /* \"#utility.yul\":9793:9807   */\n      add\n        /* \"#utility.yul\":9786:9830   */\n      mstore\n        /* \"#utility.yul\":9669:9837   */\n      pop\n      jump\t// out\n        /* \"#utility.yul\":9843:10209   */\n    tag_139:\n        /* \"#utility.yul\":9985:9988   */\n      0x00\n        /* \"#utility.yul\":10006:10073   */\n      tag_237\n        /* \"#utility.yul\":10070:10072   */\n      0x12\n        /* \"#utility.yul\":10065:10068   */\n      dup4\n        /* \"#utility.yul\":10006:10073   */\n      tag_124\n      jump\t// in\n    tag_237:\n        /* \"#utility.yul\":9999:10073   */\n      swap2\n      pop\n        /* \"#utility.yul\":10082:10175   */\n      tag_238\n        /* \"#utility.yul\":10171:10174   */\n      dup3\n        /* \"#utility.yul\":10082:10175   */\n      tag_138\n      jump\t// in\n    tag_238:\n        /* \"#utility.yul\":10200:10202   */\n      0x20\n        /* \"#utility.yul\":10195:10198   */\n      dup3\n        /* \"#utility.yul\":10191:10203   */\n      add\n        /* \"#utility.yul\":10184:10203   */\n      swap1\n      pop\n        /* \"#utility.yul\":9843:10209   */\n      swap2\n      swap1\n      pop\n      jump\t// out\n        /* \"#utility.yul\":10215:10634   */\n    tag_83:\n        /* \"#utility.yul\":10381:10385   */\n      0x00\n        /* \"#utility.yul\":10419:10421   */\n      0x20\n        /* \"#utility.yul\":10408:10417   */\n      dup3\n        /* \"#utility.yul\":10404:10422   */\n      add\n        /* \"#utility.yul\":10396:10422   */\n      swap1\n      pop\n        /* \"#utility.yul\":10468:10477   */\n      dup2\n        /* \"#utility.yul\":10462:10466   */\n      dup2\n        /* \"#utility.yul\":10458:10478   */\n      sub\n        /* \"#utility.yul\":10454:10455   */\n      0x00\n        /* \"#utility.yul\":10443:10452   */\n      dup4\n        /* \"#utility.yul\":10439:10456   */\n      add\n        /* \"#utility.yul\":10432:10479   */\n      mstore\n        /* \"#utility.yul\":10496:10627   */\n      tag_240\n        /* \"#utility.yul\":10622:10626   */\n      dup2\n        /* \"#utility.yul\":10496:10627   */\n      tag_139\n      jump\t// in\n    tag_240:\n        /* \"#utility.yul\":10488:10627   */\n      swap1\n      pop\n        /* \"#utility.yul\":10215:10634   */\n      swap2\n      swap1\n      pop\n      jump\t// out\n        /* \"#utility.yul\":10640:10812   */\n    tag_140:\n        /* \"#utility.yul\":10780:10804   */\n      0x546f6b656e41207472616e73666572206661696c656400000000000000000000\n        /* \"#utility.yul\":10776:10777   */\n      0x00\n        /* \"#utility.yul\":10768:10774   */\n      dup3\n        /* \"#utility.yul\":10764:10778   */\n      add\n        /* \"#utility.yul\":10757:10805   */\n      mstore\n        /* \"#utility.yul\":10640:10812   */\n      pop\n      jump\t// out\n        /* \"#utility.yul\":10818:11184   */\n    tag_141:\n        /* \"#utility.yul\":10960:10963   */\n      0x00\n        /* \"#utility.yul\":10981:11048   */\n      tag_243\n        /* \"#utility.yul\":11045:11047   */\n      0x16\n        /* \"#utility.yul\":11040:11043   */\n      dup4\n        /* \"#utility.yul\":10981:11048   */\n      tag_124\n      jump\t// in\n    tag_243:\n        /* \"#utility.yul\":10974:11048   */\n      swap2\n      pop\n        /* \"#utility.yul\":11057:11150   */\n      tag_244\n        /* \"#utility.yul\":11146:11149   */\n      dup3\n        /* \"#utility.yul\":11057:11150   */\n      tag_140\n      jump\t// in\n    tag_244:\n        /* \"#utility.yul\":11175:11177   */\n      0x20\n        /* \"#utility.yul\":11170:11173   */\n      dup3\n        /* \"#utility.yul\":11166:11178   */\n      add\n        /* \"#utility.yul\":11159:11178   */\n      swap1\n      pop\n        /* \"#utility.yul\":10818:11184   */\n      swap2\n      swap1\n      pop\n      jump\t// out\n        /* \"#utility.yul\":11190:11609   */\n    tag_90:\n        /* \"#utility.yul\":11356:11360   */\n      0x00\n        /* \"#utility.yul\":11394:11396   */\n      0x20\n        /* \"#utility.yul\":11383:11392   */\n      dup3\n        /* \"#utility.yul\":11379:11397   */\n      add\n        /* \"#utility.yul\":11371:11397   */\n      swap1\n      pop\n        /* \"#utility.yul\":11443:11452   */\n      dup2\n        /* \"#utility.yul\":11437:11441   */\n      dup2\n        /* \"#utility.yul\":11433:11453   */\n      sub\n        /* \"#utility.yul\":11429:11430   */\n      0x00\n        /* \"#utility.yul\":11418:11427   */\n      dup4\n        /* \"#utility.yul\":11414:11431   */\n      add\n        /* \"#utility.yul\":11407:11454   */\n      mstore\n        /* \"#utility.yul\":11471:11602   */\n      tag_246\n        /* \"#utility.yul\":11597:11601   */\n      dup2\n        /* \"#utility.yul\":11471:11602   */\n      tag_141\n      jump\t// in\n    tag_246:\n        /* \"#utility.yul\":11463:11602   */\n      swap1\n      pop\n        /* \"#utility.yul\":11190:11609   */\n      swap2\n      swap1\n      pop\n      jump\t// out\n        /* \"#utility.yul\":11615:11795   */\n    tag_142:\n        /* \"#utility.yul\":11663:11740   */\n      0x4e487b7100000000000000000000000000000000000000000000000000000000\n        /* \"#utility.yul\":11660:11661   */\n      0x00\n        /* \"#utility.yul\":11653:11741   */\n      mstore\n        /* \"#utility.yul\":11760:11764   */\n      0x11\n        /* \"#utility.yul\":11757:11758   */\n      0x04\n        /* \"#utility.yul\":11750:11765   */\n      mstore\n        /* \"#utility.yul\":11784:11788   */\n      0x24\n        /* \"#utility.yul\":11781:11782   */\n      0x00\n        /* \"#utility.yul\":11774:11789   */\n      revert\n        /* \"#utility.yul\":11801:12211   */\n    tag_92:\n        /* \"#utility.yul\":11841:11848   */\n      0x00\n        /* \"#utility.yul\":11864:11884   */\n      tag_249\n        /* \"#utility.yul\":11882:11883   */\n      dup3\n        /* \"#utility.yul\":11864:11884   */\n      tag_119\n      jump\t// in\n    tag_249:\n        /* \"#utility.yul\":11859:11884   */\n      swap2\n      pop\n        /* \"#utility.yul\":11898:11918   */\n      tag_250\n        /* \"#utility.yul\":11916:11917   */\n      dup4\n        /* \"#utility.yul\":11898:11918   */\n      tag_119\n      jump\t// in\n    tag_250:\n        /* \"#utility.yul\":11893:11918   */\n      swap3\n      pop\n        /* \"#utility.yul\":11953:11954   */\n      dup3\n        /* \"#utility.yul\":11950:11951   */\n      dup3\n        /* \"#utility.yul\":11946:11955   */\n      mul\n        /* \"#utility.yul\":11975:12005   */\n      tag_251\n        /* \"#utility.yul\":11993:12004   */\n      dup2\n        /* \"#utility.yul\":11975:12005   */\n      tag_119\n      jump\t// in\n    tag_251:\n        /* \"#utility.yul\":11964:12005   */\n      swap2\n      pop\n        /* \"#utility.yul\":12154:12155   */\n      dup3\n        /* \"#utility.yul\":12145:12152   */\n      dup3\n        /* \"#utility.yul\":12141:12156   */\n      div\n        /* \"#utility.yul\":12138:12139   */\n      dup5\n        /* \"#utility.yul\":12135:12157   */\n      eq\n        /* \"#utility.yul\":12115:12116   */\n      dup4\n        /* \"#utility.yul\":12108:12117   */\n      iszero\n        /* \"#utility.yul\":12088:12171   */\n      or\n        /* \"#utility.yul\":12065:12204   */\n      tag_252\n      jumpi\n        /* \"#utility.yul\":12184:12202   */\n      tag_253\n      tag_142\n      jump\t// in\n    tag_253:\n        /* \"#utility.yul\":12065:12204   */\n    tag_252:\n        /* \"#utility.yul\":11849:12211   */\n      pop\n        /* \"#utility.yul\":11801:12211   */\n      swap3\n      swap2\n      pop\n      pop\n      jump\t// out\n        /* \"#utility.yul\":12217:12397   */\n    tag_143:\n        /* \"#utility.yul\":12265:12342   */\n      0x4e487b7100000000000000000000000000000000000000000000000000000000\n        /* \"#utility.yul\":12262:12263   */\n      0x00\n        /* \"#utility.yul\":12255:12343   */\n      mstore\n        /* \"#utility.yul\":12362:12366   */\n      0x12\n        /* \"#utility.yul\":12359:12360   */\n      0x04\n        /* \"#utility.yul\":12352:12367   */\n      mstore\n        /* \"#utility.yul\":12386:12390   */\n      0x24\n        /* \"#utility.yul\":12383:12384   */\n      0x00\n        /* \"#utility.yul\":12376:12391   */\n      revert\n        /* \"#utility.yul\":12403:12588   */\n    tag_94:\n        /* \"#utility.yul\":12443:12444   */\n      0x00\n        /* \"#utility.yul\":12460:12480   */\n      tag_256\n        /* \"#utility.yul\":12478:12479   */\n      dup3\n        /* \"#utility.yul\":12460:12480   */\n      tag_119\n      jump\t// in\n    tag_256:\n        /* \"#utility.yul\":12455:12480   */\n      swap2\n      pop\n        /* \"#utility.yul\":12494:12514   */\n      tag_257\n        /* \"#utility.yul\":12512:12513   */\n      dup4\n        /* \"#utility.yul\":12494:12514   */\n      tag_119\n      jump\t// in\n    tag_257:\n        /* \"#utility.yul\":12489:12514   */\n      swap3\n      pop\n        /* \"#utility.yul\":12533:12534   */\n      dup3\n        /* \"#utility.yul\":12523:12558   */\n      tag_258\n      jumpi\n        /* \"#utility.yul\":12538:12556   */\n      tag_259\n      tag_143\n      jump\t// in\n    tag_259:\n        /* \"#utility.yul\":12523:12558   */\n    tag_258:\n        /* \"#utility.yul\":12580:12581   */\n      dup3\n        /* \"#utility.yul\":12577:12578   */\n      dup3\n        /* \"#utility.yul\":12573:12582   */\n      div\n        /* \"#utility.yul\":12568:12582   */\n      swap1\n      pop\n        /* \"#utility.yul\":12403:12588   */\n      swap3\n      swap2\n      pop\n      pop\n      jump\t// out\n        /* \"#utility.yul\":12594:12737   */\n    tag_144:\n        /* \"#utility.yul\":12651:12656   */\n      0x00\n        /* \"#utility.yul\":12682:12688   */\n      dup2\n        /* \"#utility.yul\":12676:12689   */\n      mload\n        /* \"#utility.yul\":12667:12689   */\n      swap1\n      pop\n        /* \"#utility.yul\":12698:12731   */\n      tag_261\n        /* \"#utility.yul\":12725:12730   */\n      dup2\n        /* \"#utility.yul\":12698:12731   */\n      tag_120\n      jump\t// in\n    tag_261:\n        /* \"#utility.yul\":12594:12737   */\n      swap3\n      swap2\n      pop\n      pop\n      jump\t// out\n        /* \"#utility.yul\":12743:13094   */\n    tag_99:\n        /* \"#utility.yul\":12813:12819   */\n      0x00\n        /* \"#utility.yul\":12862:12864   */\n      0x20\n        /* \"#utility.yul\":12850:12859   */\n      dup3\n        /* \"#utility.yul\":12841:12848   */\n      dup5\n        /* \"#utility.yul\":12837:12860   */\n      sub\n        /* \"#utility.yul\":12833:12865   */\n      slt\n        /* \"#utility.yul\":12830:12949   */\n      iszero\n      tag_263\n      jumpi\n        /* \"#utility.yul\":12868:12947   */\n      tag_264\n      tag_113\n      jump\t// in\n    tag_264:\n        /* \"#utility.yul\":12830:12949   */\n    tag_263:\n        /* \"#utility.yul\":12988:12989   */\n      0x00\n        /* \"#utility.yul\":13013:13077   */\n      tag_265\n        /* \"#utility.yul\":13069:13076   */\n      dup5\n        /* \"#utility.yul\":13060:13066   */\n      dup3\n        /* \"#utility.yul\":13049:13058   */\n      dup6\n        /* \"#utility.yul\":13045:13067   */\n      add\n        /* \"#utility.yul\":13013:13077   */\n      tag_144\n      jump\t// in\n    tag_265:\n        /* \"#utility.yul\":13003:13077   */\n      swap2\n      pop\n        /* \"#utility.yul\":12959:13087   */\n      pop\n        /* \"#utility.yul\":12743:13094   */\n      swap3\n      swap2\n      pop\n      pop\n      jump\t// out\n        /* \"#utility.yul\":13100:13275   */\n    tag_145:\n        /* \"#utility.yul\":13240:13267   */\n      0x4e6f7420656e6f75676820746f6b656e4220696e20706f6f6c00000000000000\n        /* \"#utility.yul\":13236:13237   */\n      0x00\n        /* \"#utility.yul\":13228:13234   */\n      dup3\n        /* \"#utility.yul\":13224:13238   */\n      add\n        /* \"#utility.yul\":13217:13268   */\n      mstore\n        /* \"#utility.yul\":13100:13275   */\n      pop\n      jump\t// out\n        /* \"#utility.yul\":13281:13647   */\n    tag_146:\n        /* \"#utility.yul\":13423:13426   */\n      0x00\n        /* \"#utility.yul\":13444:13511   */\n      tag_268\n        /* \"#utility.yul\":13508:13510   */\n      0x19\n        /* \"#utility.yul\":13503:13506   */\n      dup4\n        /* \"#utility.yul\":13444:13511   */\n      tag_124\n      jump\t// in\n    tag_268:\n        /* \"#utility.yul\":13437:13511   */\n      swap2\n      pop\n        /* \"#utility.yul\":13520:13613   */\n      tag_269\n        /* \"#utility.yul\":13609:13612   */\n      dup3\n        /* \"#utility.yul\":13520:13613   */\n      tag_145\n      jump\t// in\n    tag_269:\n        /* \"#utility.yul\":13638:13640   */\n      0x20\n        /* \"#utility.yul\":13633:13636   */\n      dup3\n        /* \"#utility.yul\":13629:13641   */\n      add\n        /* \"#utility.yul\":13622:13641   */\n      swap1\n      pop\n        /* \"#utility.yul\":13281:13647   */\n      swap2\n      swap1\n      pop\n      jump\t// out\n        /* \"#utility.yul\":13653:14072   */\n    tag_102:\n        /* \"#utility.yul\":13819:13823   */\n      0x00\n        /* \"#utility.yul\":13857:13859   */\n      0x20\n        /* \"#utility.yul\":13846:13855   */\n      dup3\n        /* \"#utility.yul\":13842:13860   */\n      add\n        /* \"#utility.yul\":13834:13860   */\n      swap1\n      pop\n        /* \"#utility.yul\":13906:13915   */\n      dup2\n        /* \"#utility.yul\":13900:13904   */\n      dup2\n        /* \"#utility.yul\":13896:13916   */\n      sub\n        /* \"#utility.yul\":13892:13893   */\n      0x00\n        /* \"#utility.yul\":13881:13890   */\n      dup4\n        /* \"#utility.yul\":13877:13894   */\n      add\n        /* \"#utility.yul\":13870:13917   */\n      mstore\n        /* \"#utility.yul\":13934:14065   */\n      tag_271\n        /* \"#utility.yul\":14060:14064   */\n      dup2\n        /* \"#utility.yul\":13934:14065   */\n      tag_146\n      jump\t// in\n    tag_271:\n        /* \"#utility.yul\":13926:14065   */\n      swap1\n      pop\n        /* \"#utility.yul\":13653:14072   */\n      swap2\n      swap1\n      pop\n      jump\t// out\n        /* \"#utility.yul\":14078:14250   */\n    tag_147:\n        /* \"#utility.yul\":14218:14242   */\n      0x546f6b656e42207472616e73666572206661696c656400000000000000000000\n        /* \"#utility.yul\":14214:14215   */\n      0x00\n        /* \"#utility.yul\":14206:14212   */\n      dup3\n        /* \"#utility.yul\":14202:14216   */\n      add\n        /* \"#utility.yul\":14195:14243   */\n      mstore\n        /* \"#utility.yul\":14078:14250   */\n      pop\n      jump\t// out\n        /* \"#utility.yul\":14256:14622   */\n    tag_148:\n        /* \"#utility.yul\":14398:14401   */\n      0x00\n        /* \"#utility.yul\":14419:14486   */\n      tag_274\n        /* \"#utility.yul\":14483:14485   */\n      0x16\n        /* \"#utility.yul\":14478:14481   */\n      dup4\n        /* \"#utility.yul\":14419:14486   */\n      tag_124\n      jump\t// in\n    tag_274:\n        /* \"#utility.yul\":14412:14486   */\n      swap2\n      pop\n        /* \"#utility.yul\":14495:14588   */\n      tag_275\n        /* \"#utility.yul\":14584:14587   */\n      dup3\n        /* \"#utility.yul\":14495:14588   */\n      tag_147\n      jump\t// in\n    tag_275:\n        /* \"#utility.yul\":14613:14615   */\n      0x20\n        /* \"#utility.yul\":14608:14611   */\n      dup3\n        /* \"#utility.yul\":14604:14616   */\n      add\n        /* \"#utility.yul\":14597:14616   */\n      swap1\n      pop\n        /* \"#utility.yul\":14256:14622   */\n      swap2\n      swap1\n      pop\n      jump\t// out\n        /* \"#utility.yul\":14628:15047   */\n    tag_109:\n        /* \"#utility.yul\":14794:14798   */\n      0x00\n        /* \"#utility.yul\":14832:14834   */\n      0x20\n        /* \"#utility.yul\":14821:14830   */\n      dup3\n        /* \"#utility.yul\":14817:14835   */\n      add\n        /* \"#utility.yul\":14809:14835   */\n      swap1\n      pop\n        /* \"#utility.yul\":14881:14890   */\n      dup2\n        /* \"#utility.yul\":14875:14879   */\n      dup2\n        /* \"#utility.yul\":14871:14891   */\n      sub\n        /* \"#utility.yul\":14867:14868   */\n      0x00\n        /* \"#utility.yul\":14856:14865   */\n      dup4\n        /* \"#utility.yul\":14852:14869   */\n      add\n        /* \"#utility.yul\":14845:14892   */\n      mstore\n        /* \"#utility.yul\":14909:15040   */\n      tag_277\n        /* \"#utility.yul\":15035:15039   */\n      dup2\n        /* \"#utility.yul\":14909:15040   */\n      tag_148\n      jump\t// in\n    tag_277:\n        /* \"#utility.yul\":14901:15040   */\n      swap1\n      pop\n        /* \"#utility.yul\":14628:15047   */\n      swap2\n      swap1\n      pop\n      jump\t// out\n        /* \"#utility.yul\":15053:15606   */\n    tag_111:\n        /* \"#utility.yul\":15230:15234   */\n      0x00\n        /* \"#utility.yul\":15268:15271   */\n      0x80\n        /* \"#utility.yul\":15257:15266   */\n      dup3\n        /* \"#utility.yul\":15253:15272   */\n      add\n        /* \"#utility.yul\":15245:15272   */\n      swap1\n      pop\n        /* \"#utility.yul\":15282:15353   */\n      tag_279\n        /* \"#utility.yul\":15350:15351   */\n      0x00\n        /* \"#utility.yul\":15339:15348   */\n      dup4\n        /* \"#utility.yul\":15335:15352   */\n      add\n        /* \"#utility.yul\":15326:15332   */\n      dup8\n        /* \"#utility.yul\":15282:15353   */\n      tag_123\n      jump\t// in\n    tag_279:\n        /* \"#utility.yul\":15363:15435   */\n      tag_280\n        /* \"#utility.yul\":15431:15433   */\n      0x20\n        /* \"#utility.yul\":15420:15429   */\n      dup4\n        /* \"#utility.yul\":15416:15434   */\n      add\n        /* \"#utility.yul\":15407:15413   */\n      dup7\n        /* \"#utility.yul\":15363:15435   */\n      tag_123\n      jump\t// in\n    tag_280:\n        /* \"#utility.yul\":15445:15517   */\n      tag_281\n        /* \"#utility.yul\":15513:15515   */\n      0x40\n        /* \"#utility.yul\":15502:15511   */\n      dup4\n        /* \"#utility.yul\":15498:15516   */\n      add\n        /* \"#utility.yul\":15489:15495   */\n      dup6\n        /* \"#utility.yul\":15445:15517   */\n      tag_122\n      jump\t// in\n    tag_281:\n        /* \"#utility.yul\":15527:15599   */\n      tag_282\n        /* \"#utility.yul\":15595:15597   */\n      0x60\n        /* \"#utility.yul\":15584:15593   */\n      dup4\n        /* \"#utility.yul\":15580:15598   */\n      add\n        /* \"#utility.yul\":15571:15577   */\n      dup5\n        /* \"#utility.yul\":15527:15599   */\n      tag_122\n      jump\t// in\n    tag_282:\n        /* \"#utility.yul\":15053:15606   */\n      swap6\n      swap5\n      pop\n      pop\n      pop\n      pop\n      pop\n      jump\t// out\n\n    auxdata: 0xa2646970667358221220ba5147ff0916faba5003cd03569adaffb915f586595b9097a2e36827de3a519664736f6c63430008140033\n}\n",
				"bytecode": {
					"linkReferences": {},
					"object": "608060405234801561000f575f80fd5b50335f806101000a81548173ffffffffffffffffffffffffffffffffffffffff021916908373ffffffffffffffffffffffffffffffffffffffff16021790555061110c8061005c5f395ff3fe608060405260043610610058575f3560e01c8063476343ee1461006157806347e7ef241461007757806354cf2aeb1461009f5780638da5cb5b146100c9578063f3fef3a3146100f3578063fe0291561461011b5761005f565b3661005f57005b005b34801561006c575f80fd5b50610075610137565b005b348015610082575f80fd5b5061009d60048036038101906100989190610a23565b6102dd565b005b3480156100aa575f80fd5b506100b361047f565b6040516100c09190610a70565b60405180910390f35b3480156100d4575f80fd5b506100dd61048b565b6040516100ea9190610a98565b60405180910390f35b3480156100fe575f80fd5b5061011960048036038101906101149190610a23565b6104ae565b005b61013560048036038101906101309190610ab1565b61064e565b005b5f8054906101000a900473ffffffffffffffffffffffffffffffffffffffff1673ffffffffffffffffffffffffffffffffffffffff163373ffffffffffffffffffffffffffffffffffffffff16146101c4576040517f08c379a00000000000000000000000000000000000000000000000000000000081526004016101bb90610b6f565b60405180910390fd5b5f4790505f811161020a576040517f08c379a000000000000000000000000000000000000000000000000000000000815260040161020190610bd7565b60405180910390fd5b5f8054906101000a900473ffffffffffffffffffffffffffffffffffffffff1673ffffffffffffffffffffffffffffffffffffffff166108fc8290811502906040515f60405180830381858888f1935050505015801561026c573d5f803e3d5ffd5b505f8054906101000a900473ffffffffffffffffffffffffffffffffffffffff1673ffffffffffffffffffffffffffffffffffffffff167fc0819c13be868895eb93e40eaceb96de976442fa1d404e5c55f14bb65a8c489a826040516102d29190610a70565b60405180910390a250565b5f8054906101000a900473ffffffffffffffffffffffffffffffffffffffff1673ffffffffffffffffffffffffffffffffffffffff163373ffffffffffffffffffffffffffffffffffffffff161461036a576040517f08c379a000000000000000000000000000000000000000000000000000000000815260040161036190610b6f565b60405180910390fd5b5f8273ffffffffffffffffffffffffffffffffffffffff166323b872dd3330856040518463ffffffff1660e01b81526004016103a893929190610bf5565b6020604051808303815f875af11580156103c4573d5f803e3d5ffd5b505050506040513d601f19601f820116820180604052508101906103e89190610c5f565b90508061042a576040517f08c379a000000000000000000000000000000000000000000000000000000000815260040161042190610cd4565b60405180910390fd5b3373ffffffffffffffffffffffffffffffffffffffff167f8752a472e571a816aea92eec8dae9baf628e840f4929fbcc2d155e6233ff68a78484604051610472929190610cf2565b60405180910390a2505050565b67016345785d8a000081565b5f8054906101000a900473ffffffffffffffffffffffffffffffffffffffff1681565b5f8054906101000a900473ffffffffffffffffffffffffffffffffffffffff1673ffffffffffffffffffffffffffffffffffffffff163373ffffffffffffffffffffffffffffffffffffffff161461053b576040517f08c379a000000000000000000000000000000000000000000000000000000000815260040161053290610b6f565b60405180910390fd5b5f8273ffffffffffffffffffffffffffffffffffffffff1663a9059cbb33846040518363ffffffff1660e01b8152600401610577929190610cf2565b6020604051808303815f875af1158015610593573d5f803e3d5ffd5b505050506040513d601f19601f820116820180604052508101906105b79190610c5f565b9050806105f9576040517f08c379a00000000000000000000000000000000000000000000000000000000081526004016105f090610d63565b60405180910390fd5b3373ffffffffffffffffffffffffffffffffffffffff167fd1c19fbcd4551a5edfb66d43d2e337c04837afda3482b42bdf569a8fccdae5fb8484604051610641929190610cf2565b60405180910390a2505050565b67016345785d8a0000341015610699576040517f08c379a000000000000000000000000000000000000000000000000000000000815260040161069090610dcb565b60405180910390fd5b5f82116106db576040517f08c379a00000000000000000000000000000000000000000000000000000000081526004016106d290610e33565b60405180910390fd5b5f8473ffffffffffffffffffffffffffffffffffffffff166323b872dd3330866040518463ffffffff1660e01b815260040161071993929190610bf5565b6020604051808303815f875af1158015610735573d5f803e3d5ffd5b505050506040513d601f19601f820116820180604052508101906107599190610c5f565b90508061079b576040517f08c379a000000000000000000000000000000000000000000000000000000000815260040161079290610e9b565b60405180910390fd5b5f670de0b6b3a764000083856107b19190610ee6565b6107bb9190610f54565b9050808573ffffffffffffffffffffffffffffffffffffffff166370a08231306040518263ffffffff1660e01b81526004016107f79190610a98565b602060405180830381865afa158015610812573d5f803e3d5ffd5b505050506040513d601f19601f820116820180604052508101906108369190610f98565b1015610877576040517f08c379a000000000000000000000000000000000000000000000000000000000815260040161086e9061100d565b60405180910390fd5b5f8573ffffffffffffffffffffffffffffffffffffffff1663a9059cbb33846040518363ffffffff1660e01b81526004016108b3929190610cf2565b6020604051808303815f875af11580156108cf573d5f803e3d5ffd5b505050506040513d601f19601f820116820180604052508101906108f39190610c5f565b905080610935576040517f08c379a000000000000000000000000000000000000000000000000000000000815260040161092c90611075565b60405180910390fd5b3373ffffffffffffffffffffffffffffffffffffffff167f6782190c91d4a7e8ad2a867deed6ec0a970cab8ff137ae2bd4abd92b3810f4d3888888866040516109819493929190611093565b60405180910390a250505050505050565b5f80fd5b5f73ffffffffffffffffffffffffffffffffffffffff82169050919050565b5f6109bf82610996565b9050919050565b6109cf816109b5565b81146109d9575f80fd5b50565b5f813590506109ea816109c6565b92915050565b5f819050919050565b610a02816109f0565b8114610a0c575f80fd5b50565b5f81359050610a1d816109f9565b92915050565b5f8060408385031215610a3957610a38610992565b5b5f610a46858286016109dc565b9250506020610a5785828601610a0f565b9150509250929050565b610a6a816109f0565b82525050565b5f602082019050610a835f830184610a61565b92915050565b610a92816109b5565b82525050565b5f602082019050610aab5f830184610a89565b92915050565b5f805f8060808587031215610ac957610ac8610992565b5b5f610ad6878288016109dc565b9450506020610ae7878288016109dc565b9350506040610af887828801610a0f565b9250506060610b0987828801610a0f565b91505092959194509250565b5f82825260208201905092915050565b7f4f6e6c79206f776e6572000000000000000000000000000000000000000000005f82015250565b5f610b59600a83610b15565b9150610b6482610b25565b602082019050919050565b5f6020820190508181035f830152610b8681610b4d565b9050919050565b7f4e6f206665657320746f207769746864726177000000000000000000000000005f82015250565b5f610bc1601383610b15565b9150610bcc82610b8d565b602082019050919050565b5f6020820190508181035f830152610bee81610bb5565b9050919050565b5f606082019050610c085f830186610a89565b610c156020830185610a89565b610c226040830184610a61565b949350505050565b5f8115159050919050565b610c3e81610c2a565b8114610c48575f80fd5b50565b5f81519050610c5981610c35565b92915050565b5f60208284031215610c7457610c73610992565b5b5f610c8184828501610c4b565b91505092915050565b7f4465706f736974206661696c65640000000000000000000000000000000000005f82015250565b5f610cbe600e83610b15565b9150610cc982610c8a565b602082019050919050565b5f6020820190508181035f830152610ceb81610cb2565b9050919050565b5f604082019050610d055f830185610a89565b610d126020830184610a61565b9392505050565b7f5769746864726177206661696c656400000000000000000000000000000000005f82015250565b5f610d4d600f83610b15565b9150610d5882610d19565b602082019050919050565b5f6020820190508181035f830152610d7a81610d41565b9050919050565b7f496e73756666696369656e74206665652073656e7400000000000000000000005f82015250565b5f610db5601583610b15565b9150610dc082610d81565b602082019050919050565b5f6020820190508181035f830152610de281610da9565b9050919050565b7f416d6f756e74206d757374206265203e203000000000000000000000000000005f82015250565b5f610e1d601283610b15565b9150610e2882610de9565b602082019050919050565b5f6020820190508181035f830152610e4a81610e11565b9050919050565b7f546f6b656e41207472616e73666572206661696c6564000000000000000000005f82015250565b5f610e85601683610b15565b9150610e9082610e51565b602082019050919050565b5f6020820190508181035f830152610eb281610e79565b9050919050565b7f4e487b71000000000000000000000000000000000000000000000000000000005f52601160045260245ffd5b5f610ef0826109f0565b9150610efb836109f0565b9250828202610f09816109f0565b91508282048414831517610f2057610f1f610eb9565b5b5092915050565b7f4e487b71000000000000000000000000000000000000000000000000000000005f52601260045260245ffd5b5f610f5e826109f0565b9150610f69836109f0565b925082610f7957610f78610f27565b5b828204905092915050565b5f81519050610f92816109f9565b92915050565b5f60208284031215610fad57610fac610992565b5b5f610fba84828501610f84565b91505092915050565b7f4e6f7420656e6f75676820746f6b656e4220696e20706f6f6c000000000000005f82015250565b5f610ff7601983610b15565b915061100282610fc3565b602082019050919050565b5f6020820190508181035f83015261102481610feb565b9050919050565b7f546f6b656e42207472616e73666572206661696c6564000000000000000000005f82015250565b5f61105f601683610b15565b915061106a8261102b565b602082019050919050565b5f6020820190508181035f83015261108c81611053565b9050919050565b5f6080820190506110a65f830187610a89565b6110b36020830186610a89565b6110c06040830185610a61565b6110cd6060830184610a61565b9594505050505056fea2646970667358221220ba5147ff0916faba5003cd03569adaffb915f586595b9097a2e36827de3a519664736f6c63430008140033",
					"opcodes": "PUSH1 0x80 PUSH1 0x40 MSTORE CALLVALUE DUP1 ISZERO PUSH2 0xF JUMPI PUSH0 DUP1 REVERT JUMPDEST POP CALLER PUSH0 DUP1 PUSH2 0x100 EXP DUP2 SLOAD DUP2 PUSH20 0xFFFFFFFFFFFFFFFFFFFFFFFFFFFFFFFFFFFFFFFF MUL NOT AND SWAP1 DUP4 PUSH20 0xFFFFFFFFFFFFFFFFFFFFFFFFFFFFFFFFFFFFFFFF AND MUL OR SWAP1 SSTORE POP PUSH2 0x110C DUP1 PUSH2 0x5C PUSH0 CODECOPY PUSH0 RETURN INVALID PUSH1 0x80 PUSH1 0x40 MSTORE PUSH1 0x4 CALLDATASIZE LT PUSH2 0x58 JUMPI PUSH0 CALLDATALOAD PUSH1 0xE0 SHR DUP1 PUSH4 0x476343EE EQ PUSH2 0x61 JUMPI DUP1 PUSH4 0x47E7EF24 EQ PUSH2 0x77 JUMPI DUP1 PUSH4 0x54CF2AEB EQ PUSH2 0x9F JUMPI DUP1 PUSH4 0x8DA5CB5B EQ PUSH2 0xC9 JUMPI DUP1 PUSH4 0xF3FEF3A3 EQ PUSH2 0xF3 JUMPI DUP1 PUSH4 0xFE029156 EQ PUSH2 0x11B JUMPI PUSH2 0x5F JUMP JUMPDEST CALLDATASIZE PUSH2 0x5F JUMPI STOP JUMPDEST STOP JUMPDEST CALLVALUE DUP1 ISZERO PUSH2 0x6C JUMPI PUSH0 DUP1 REVERT JUMPDEST POP PUSH2 0x75 PUSH2 0x137 JUMP JUMPDEST STOP JUMPDEST CALLVALUE DUP1 ISZERO PUSH2 0x82 JUMPI PUSH0 DUP1 REVERT JUMPDEST POP PUSH2 0x9D PUSH1 0x4 DUP1 CALLDATASIZE SUB DUP2 ADD SWAP1 PUSH2 0x98 SWAP2 SWAP1 PUSH2 0xA23 JUMP JUMPDEST PUSH2 0x2DD JUMP JUMPDEST STOP JUMPDEST CALLVALUE DUP1 ISZERO PUSH2 0xAA JUMPI PUSH0 DUP1 REVERT JUMPDEST POP PUSH2 0xB3 PUSH2 0x47F JUMP JUMPDEST PUSH1 0x40 MLOAD PUSH2 0xC0 SWAP2 SWAP1 PUSH2 0xA70 JUMP JUMPDEST PUSH1 0x40 MLOAD DUP1 SWAP2 SUB SWAP1 RETURN JUMPDEST CALLVALUE DUP1 ISZERO PUSH2 0xD4 JUMPI PUSH0 DUP1 REVERT JUMPDEST POP PUSH2 0xDD PUSH2 0x48B JUMP JUMPDEST PUSH1 0x40 MLOAD PUSH2 0xEA SWAP2 SWAP1 PUSH2 0xA98 JUMP JUMPDEST PUSH1 0x40 MLOAD DUP1 SWAP2 SUB SWAP1 RETURN JUMPDEST CALLVALUE DUP1 ISZERO PUSH2 0xFE JUMPI PUSH0 DUP1 REVERT JUMPDEST POP PUSH2 0x119 PUSH1 0x4 DUP1 CALLDATASIZE SUB DUP2 ADD SWAP1 PUSH2 0x114 SWAP2 SWAP1 PUSH2 0xA23 JUMP JUMPDEST PUSH2 0x4AE JUMP JUMPDEST STOP JUMPDEST PUSH2 0x135 PUSH1 0x4 DUP1 CALLDATASIZE SUB DUP2 ADD SWAP1 PUSH2 0x130 SWAP2 SWAP1 PUSH2 0xAB1 JUMP JUMPDEST PUSH2 0x64E JUMP JUMPDEST STOP JUMPDEST PUSH0 DUP1 SLOAD SWAP1 PUSH2 0x100 EXP SWAP1 DIV PUSH20 0xFFFFFFFFFFFFFFFFFFFFFFFFFFFFFFFFFFFFFFFF AND PUSH20 0xFFFFFFFFFFFFFFFFFFFFFFFFFFFFFFFFFFFFFFFF AND CALLER PUSH20 0xFFFFFFFFFFFFFFFFFFFFFFFFFFFFFFFFFFFFFFFF AND EQ PUSH2 0x1C4 JUMPI PUSH1 0x40 MLOAD PUSH32 0x8C379A000000000000000000000000000000000000000000000000000000000 DUP2 MSTORE PUSH1 0x4 ADD PUSH2 0x1BB SWAP1 PUSH2 0xB6F JUMP JUMPDEST PUSH1 0x40 MLOAD DUP1 SWAP2 SUB SWAP1 REVERT JUMPDEST PUSH0 SELFBALANCE SWAP1 POP PUSH0 DUP2 GT PUSH2 0x20A JUMPI PUSH1 0x40 MLOAD PUSH32 0x8C379A000000000000000000000000000000000000000000000000000000000 DUP2 MSTORE PUSH1 0x4 ADD PUSH2 0x201 SWAP1 PUSH2 0xBD7 JUMP JUMPDEST PUSH1 0x40 MLOAD DUP1 SWAP2 SUB SWAP1 REVERT JUMPDEST PUSH0 DUP1 SLOAD SWAP1 PUSH2 0x100 EXP SWAP1 DIV PUSH20 0xFFFFFFFFFFFFFFFFFFFFFFFFFFFFFFFFFFFFFFFF AND PUSH20 0xFFFFFFFFFFFFFFFFFFFFFFFFFFFFFFFFFFFFFFFF AND PUSH2 0x8FC DUP3 SWAP1 DUP2 ISZERO MUL SWAP1 PUSH1 0x40 MLOAD PUSH0 PUSH1 0x40 MLOAD DUP1 DUP4 SUB DUP2 DUP6 DUP9 DUP9 CALL SWAP4 POP POP POP POP ISZERO DUP1 ISZERO PUSH2 0x26C JUMPI RETURNDATASIZE PUSH0 DUP1 RETURNDATACOPY RETURNDATASIZE PUSH0 REVERT JUMPDEST POP PUSH0 DUP1 SLOAD SWAP1 PUSH2 0x100 EXP SWAP1 DIV PUSH20 0xFFFFFFFFFFFFFFFFFFFFFFFFFFFFFFFFFFFFFFFF AND PUSH20 0xFFFFFFFFFFFFFFFFFFFFFFFFFFFFFFFFFFFFFFFF AND PUSH32 0xC0819C13BE868895EB93E40EACEB96DE976442FA1D404E5C55F14BB65A8C489A DUP3 PUSH1 0x40 MLOAD PUSH2 0x2D2 SWAP2 SWAP1 PUSH2 0xA70 JUMP JUMPDEST PUSH1 0x40 MLOAD DUP1 SWAP2 SUB SWAP1 LOG2 POP JUMP JUMPDEST PUSH0 DUP1 SLOAD SWAP1 PUSH2 0x100 EXP SWAP1 DIV PUSH20 0xFFFFFFFFFFFFFFFFFFFFFFFFFFFFFFFFFFFFFFFF AND PUSH20 0xFFFFFFFFFFFFFFFFFFFFFFFFFFFFFFFFFFFFFFFF AND CALLER PUSH20 0xFFFFFFFFFFFFFFFFFFFFFFFFFFFFFFFFFFFFFFFF AND EQ PUSH2 0x36A JUMPI PUSH1 0x40 MLOAD PUSH32 0x8C379A000000000000000000000000000000000000000000000000000000000 DUP2 MSTORE PUSH1 0x4 ADD PUSH2 0x361 SWAP1 PUSH2 0xB6F JUMP JUMPDEST PUSH1 0x40 MLOAD DUP1 SWAP2 SUB SWAP1 REVERT JUMPDEST PUSH0 DUP3 PUSH20 0xFFFFFFFFFFFFFFFFFFFFFFFFFFFFFFFFFFFFFFFF AND PUSH4 0x23B872DD CALLER ADDRESS DUP6 PUSH1 0x40 MLOAD DUP5 PUSH4 0xFFFFFFFF AND PUSH1 0xE0 SHL DUP2 MSTORE PUSH1 0x4 ADD PUSH2 0x3A8 SWAP4 SWAP3 SWAP2 SWAP1 PUSH2 0xBF5 JUMP JUMPDEST PUSH1 0x20 PUSH1 0x40 MLOAD DUP1 DUP4 SUB DUP2 PUSH0 DUP8 GAS CALL ISZERO DUP1 ISZERO PUSH2 0x3C4 JUMPI RETURNDATASIZE PUSH0 DUP1 RETURNDATACOPY RETURNDATASIZE PUSH0 REVERT JUMPDEST POP POP POP POP PUSH1 0x40 MLOAD RETURNDATASIZE PUSH1 0x1F NOT PUSH1 0x1F DUP3 ADD AND DUP3 ADD DUP1 PUSH1 0x40 MSTORE POP DUP2 ADD SWAP1 PUSH2 0x3E8 SWAP2 SWAP1 PUSH2 0xC5F JUMP JUMPDEST SWAP1 POP DUP1 PUSH2 0x42A JUMPI PUSH1 0x40 MLOAD PUSH32 0x8C379A000000000000000000000000000000000000000000000000000000000 DUP2 MSTORE PUSH1 0x4 ADD PUSH2 0x421 SWAP1 PUSH2 0xCD4 JUMP JUMPDEST PUSH1 0x40 MLOAD DUP1 SWAP2 SUB SWAP1 REVERT JUMPDEST CALLER PUSH20 0xFFFFFFFFFFFFFFFFFFFFFFFFFFFFFFFFFFFFFFFF AND PUSH32 0x8752A472E571A816AEA92EEC8DAE9BAF628E840F4929FBCC2D155E6233FF68A7 DUP5 DUP5 PUSH1 0x40 MLOAD PUSH2 0x472 SWAP3 SWAP2 SWAP1 PUSH2 0xCF2 JUMP JUMPDEST PUSH1 0x40 MLOAD DUP1 SWAP2 SUB SWAP1 LOG2 POP POP POP JUMP JUMPDEST PUSH8 0x16345785D8A0000 DUP2 JUMP JUMPDEST PUSH0 DUP1 SLOAD SWAP1 PUSH2 0x100 EXP SWAP1 DIV PUSH20 0xFFFFFFFFFFFFFFFFFFFFFFFFFFFFFFFFFFFFFFFF AND DUP2 JUMP JUMPDEST PUSH0 DUP1 SLOAD SWAP1 PUSH2 0x100 EXP SWAP1 DIV PUSH20 0xFFFFFFFFFFFFFFFFFFFFFFFFFFFFFFFFFFFFFFFF AND PUSH20 0xFFFFFFFFFFFFFFFFFFFFFFFFFFFFFFFFFFFFFFFF AND CALLER PUSH20 0xFFFFFFFFFFFFFFFFFFFFFFFFFFFFFFFFFFFFFFFF AND EQ PUSH2 0x53B JUMPI PUSH1 0x40 MLOAD PUSH32 0x8C379A000000000000000000000000000000000000000000000000000000000 DUP2 MSTORE PUSH1 0x4 ADD PUSH2 0x532 SWAP1 PUSH2 0xB6F JUMP JUMPDEST PUSH1 0x40 MLOAD DUP1 SWAP2 SUB SWAP1 REVERT JUMPDEST PUSH0 DUP3 PUSH20 0xFFFFFFFFFFFFFFFFFFFFFFFFFFFFFFFFFFFFFFFF AND PUSH4 0xA9059CBB CALLER DUP5 PUSH1 0x40 MLOAD DUP4 PUSH4 0xFFFFFFFF AND PUSH1 0xE0 SHL DUP2 MSTORE PUSH1 0x4 ADD PUSH2 0x577 SWAP3 SWAP2 SWAP1 PUSH2 0xCF2 JUMP JUMPDEST PUSH1 0x20 PUSH1 0x40 MLOAD DUP1 DUP4 SUB DUP2 PUSH0 DUP8 GAS CALL ISZERO DUP1 ISZERO PUSH2 0x593 JUMPI RETURNDATASIZE PUSH0 DUP1 RETURNDATACOPY RETURNDATASIZE PUSH0 REVERT JUMPDEST POP POP POP POP PUSH1 0x40 MLOAD RETURNDATASIZE PUSH1 0x1F NOT PUSH1 0x1F DUP3 ADD AND DUP3 ADD DUP1 PUSH1 0x40 MSTORE POP DUP2 ADD SWAP1 PUSH2 0x5B7 SWAP2 SWAP1 PUSH2 0xC5F JUMP JUMPDEST SWAP1 POP DUP1 PUSH2 0x5F9 JUMPI PUSH1 0x40 MLOAD PUSH32 0x8C379A000000000000000000000000000000000000000000000000000000000 DUP2 MSTORE PUSH1 0x4 ADD PUSH2 0x5F0 SWAP1 PUSH2 0xD63 JUMP JUMPDEST PUSH1 0x40 MLOAD DUP1 SWAP2 SUB SWAP1 REVERT JUMPDEST CALLER PUSH20 0xFFFFFFFFFFFFFFFFFFFFFFFFFFFFFFFFFFFFFFFF AND PUSH32 0xD1C19FBCD4551A5EDFB66D43D2E337C04837AFDA3482B42BDF569A8FCCDAE5FB DUP5 DUP5 PUSH1 0x40 MLOAD PUSH2 0x641 SWAP3 SWAP2 SWAP1 PUSH2 0xCF2 JUMP JUMPDEST PUSH1 0x40 MLOAD DUP1 SWAP2 SUB SWAP1 LOG2 POP POP POP JUMP JUMPDEST PUSH8 0x16345785D8A0000 CALLVALUE LT ISZERO PUSH2 0x699 JUMPI PUSH1 0x40 MLOAD PUSH32 0x8C379A000000000000000000000000000000000000000000000000000000000 DUP2 MSTORE PUSH1 0x4 ADD PUSH2 0x690 SWAP1 PUSH2 0xDCB JUMP JUMPDEST PUSH1 0x40 MLOAD DUP1 SWAP2 SUB SWAP1 REVERT JUMPDEST PUSH0 DUP3 GT PUSH2 0x6DB JUMPI PUSH1 0x40 MLOAD PUSH32 0x8C379A000000000000000000000000000000000000000000000000000000000 DUP2 MSTORE PUSH1 0x4 ADD PUSH2 0x6D2 SWAP1 PUSH2 0xE33 JUMP JUMPDEST PUSH1 0x40 MLOAD DUP1 SWAP2 SUB SWAP1 REVERT JUMPDEST PUSH0 DUP5 PUSH20 0xFFFFFFFFFFFFFFFFFFFFFFFFFFFFFFFFFFFFFFFF AND PUSH4 0x23B872DD CALLER ADDRESS DUP7 PUSH1 0x40 MLOAD DUP5 PUSH4 0xFFFFFFFF AND PUSH1 0xE0 SHL DUP2 MSTORE PUSH1 0x4 ADD PUSH2 0x719 SWAP4 SWAP3 SWAP2 SWAP1 PUSH2 0xBF5 JUMP JUMPDEST PUSH1 0x20 PUSH1 0x40 MLOAD DUP1 DUP4 SUB DUP2 PUSH0 DUP8 GAS CALL ISZERO DUP1 ISZERO PUSH2 0x735 JUMPI RETURNDATASIZE PUSH0 DUP1 RETURNDATACOPY RETURNDATASIZE PUSH0 REVERT JUMPDEST POP POP POP POP PUSH1 0x40 MLOAD RETURNDATASIZE PUSH1 0x1F NOT PUSH1 0x1F DUP3 ADD AND DUP3 ADD DUP1 PUSH1 0x40 MSTORE POP DUP2 ADD SWAP1 PUSH2 0x759 SWAP2 SWAP1 PUSH2 0xC5F JUMP JUMPDEST SWAP1 POP DUP1 PUSH2 0x79B JUMPI PUSH1 0x40 MLOAD PUSH32 0x8C379A000000000000000000000000000000000000000000000000000000000 DUP2 MSTORE PUSH1 0x4 ADD PUSH2 0x792 SWAP1 PUSH2 0xE9B JUMP JUMPDEST PUSH1 0x40 MLOAD DUP1 SWAP2 SUB SWAP1 REVERT JUMPDEST PUSH0 PUSH8 0xDE0B6B3A7640000 DUP4 DUP6 PUSH2 0x7B1 SWAP2 SWAP1 PUSH2 0xEE6 JUMP JUMPDEST PUSH2 0x7BB SWAP2 SWAP1 PUSH2 0xF54 JUMP JUMPDEST SWAP1 POP DUP1 DUP6 PUSH20 0xFFFFFFFFFFFFFFFFFFFFFFFFFFFFFFFFFFFFFFFF AND PUSH4 0x70A08231 ADDRESS PUSH1 0x40 MLOAD DUP3 PUSH4 0xFFFFFFFF AND PUSH1 0xE0 SHL DUP2 MSTORE PUSH1 0x4 ADD PUSH2 0x7F7 SWAP2 SWAP1 PUSH2 0xA98 JUMP JUMPDEST PUSH1 0x20 PUSH1 0x40 MLOAD DUP1 DUP4 SUB DUP2 DUP7 GAS STATICCALL ISZERO DUP1 ISZERO PUSH2 0x812 JUMPI RETURNDATASIZE PUSH0 DUP1 RETURNDATACOPY RETURNDATASIZE PUSH0 REVERT JUMPDEST POP POP POP POP PUSH1 0x40 MLOAD RETURNDATASIZE PUSH1 0x1F NOT PUSH1 0x1F DUP3 ADD AND DUP3 ADD DUP1 PUSH1 0x40 MSTORE POP DUP2 ADD SWAP1 PUSH2 0x836 SWAP2 SWAP1 PUSH2 0xF98 JUMP JUMPDEST LT ISZERO PUSH2 0x877 JUMPI PUSH1 0x40 MLOAD PUSH32 0x8C379A000000000000000000000000000000000000000000000000000000000 DUP2 MSTORE PUSH1 0x4 ADD PUSH2 0x86E SWAP1 PUSH2 0x100D JUMP JUMPDEST PUSH1 0x40 MLOAD DUP1 SWAP2 SUB SWAP1 REVERT JUMPDEST PUSH0 DUP6 PUSH20 0xFFFFFFFFFFFFFFFFFFFFFFFFFFFFFFFFFFFFFFFF AND PUSH4 0xA9059CBB CALLER DUP5 PUSH1 0x40 MLOAD DUP4 PUSH4 0xFFFFFFFF AND PUSH1 0xE0 SHL DUP2 MSTORE PUSH1 0x4 ADD PUSH2 0x8B3 SWAP3 SWAP2 SWAP1 PUSH2 0xCF2 JUMP JUMPDEST PUSH1 0x20 PUSH1 0x40 MLOAD DUP1 DUP4 SUB DUP2 PUSH0 DUP8 GAS CALL ISZERO DUP1 ISZERO PUSH2 0x8CF JUMPI RETURNDATASIZE PUSH0 DUP1 RETURNDATACOPY RETURNDATASIZE PUSH0 REVERT JUMPDEST POP POP POP POP PUSH1 0x40 MLOAD RETURNDATASIZE PUSH1 0x1F NOT PUSH1 0x1F DUP3 ADD AND DUP3 ADD DUP1 PUSH1 0x40 MSTORE POP DUP2 ADD SWAP1 PUSH2 0x8F3 SWAP2 SWAP1 PUSH2 0xC5F JUMP JUMPDEST SWAP1 POP DUP1 PUSH2 0x935 JUMPI PUSH1 0x40 MLOAD PUSH32 0x8C379A000000000000000000000000000000000000000000000000000000000 DUP2 MSTORE PUSH1 0x4 ADD PUSH2 0x92C SWAP1 PUSH2 0x1075 JUMP JUMPDEST PUSH1 0x40 MLOAD DUP1 SWAP2 SUB SWAP1 REVERT JUMPDEST CALLER PUSH20 0xFFFFFFFFFFFFFFFFFFFFFFFFFFFFFFFFFFFFFFFF AND PUSH32 0x6782190C91D4A7E8AD2A867DEED6EC0A970CAB8FF137AE2BD4ABD92B3810F4D3 DUP9 DUP9 DUP9 DUP7 PUSH1 0x40 MLOAD PUSH2 0x981 SWAP5 SWAP4 SWAP3 SWAP2 SWAP1 PUSH2 0x1093 JUMP JUMPDEST PUSH1 0x40 MLOAD DUP1 SWAP2 SUB SWAP1 LOG2 POP POP POP POP POP POP POP JUMP JUMPDEST PUSH0 DUP1 REVERT JUMPDEST PUSH0 PUSH20 0xFFFFFFFFFFFFFFFFFFFFFFFFFFFFFFFFFFFFFFFF DUP3 AND SWAP1 POP SWAP2 SWAP1 POP JUMP JUMPDEST PUSH0 PUSH2 0x9BF DUP3 PUSH2 0x996 JUMP JUMPDEST SWAP1 POP SWAP2 SWAP1 POP JUMP JUMPDEST PUSH2 0x9CF DUP2 PUSH2 0x9B5 JUMP JUMPDEST DUP2 EQ PUSH2 0x9D9 JUMPI PUSH0 DUP1 REVERT JUMPDEST POP JUMP JUMPDEST PUSH0 DUP2 CALLDATALOAD SWAP1 POP PUSH2 0x9EA DUP2 PUSH2 0x9C6 JUMP JUMPDEST SWAP3 SWAP2 POP POP JUMP JUMPDEST PUSH0 DUP2 SWAP1 POP SWAP2 SWAP1 POP JUMP JUMPDEST PUSH2 0xA02 DUP2 PUSH2 0x9F0 JUMP JUMPDEST DUP2 EQ PUSH2 0xA0C JUMPI PUSH0 DUP1 REVERT JUMPDEST POP JUMP JUMPDEST PUSH0 DUP2 CALLDATALOAD SWAP1 POP PUSH2 0xA1D DUP2 PUSH2 0x9F9 JUMP JUMPDEST SWAP3 SWAP2 POP POP JUMP JUMPDEST PUSH0 DUP1 PUSH1 0x40 DUP4 DUP6 SUB SLT ISZERO PUSH2 0xA39 JUMPI PUSH2 0xA38 PUSH2 0x992 JUMP JUMPDEST JUMPDEST PUSH0 PUSH2 0xA46 DUP6 DUP3 DUP7 ADD PUSH2 0x9DC JUMP JUMPDEST SWAP3 POP POP PUSH1 0x20 PUSH2 0xA57 DUP6 DUP3 DUP7 ADD PUSH2 0xA0F JUMP JUMPDEST SWAP2 POP POP SWAP3 POP SWAP3 SWAP1 POP JUMP JUMPDEST PUSH2 0xA6A DUP2 PUSH2 0x9F0 JUMP JUMPDEST DUP3 MSTORE POP POP JUMP JUMPDEST PUSH0 PUSH1 0x20 DUP3 ADD SWAP1 POP PUSH2 0xA83 PUSH0 DUP4 ADD DUP5 PUSH2 0xA61 JUMP JUMPDEST SWAP3 SWAP2 POP POP JUMP JUMPDEST PUSH2 0xA92 DUP2 PUSH2 0x9B5 JUMP JUMPDEST DUP3 MSTORE POP POP JUMP JUMPDEST PUSH0 PUSH1 0x20 DUP3 ADD SWAP1 POP PUSH2 0xAAB PUSH0 DUP4 ADD DUP5 PUSH2 0xA89 JUMP JUMPDEST SWAP3 SWAP2 POP POP JUMP JUMPDEST PUSH0 DUP1 PUSH0 DUP1 PUSH1 0x80 DUP6 DUP8 SUB SLT ISZERO PUSH2 0xAC9 JUMPI PUSH2 0xAC8 PUSH2 0x992 JUMP JUMPDEST JUMPDEST PUSH0 PUSH2 0xAD6 DUP8 DUP3 DUP9 ADD PUSH2 0x9DC JUMP JUMPDEST SWAP5 POP POP PUSH1 0x20 PUSH2 0xAE7 DUP8 DUP3 DUP9 ADD PUSH2 0x9DC JUMP JUMPDEST SWAP4 POP POP PUSH1 0x40 PUSH2 0xAF8 DUP8 DUP3 DUP9 ADD PUSH2 0xA0F JUMP JUMPDEST SWAP3 POP POP PUSH1 0x60 PUSH2 0xB09 DUP8 DUP3 DUP9 ADD PUSH2 0xA0F JUMP JUMPDEST SWAP2 POP POP SWAP3 SWAP6 SWAP2 SWAP5 POP SWAP3 POP JUMP JUMPDEST PUSH0 DUP3 DUP3 MSTORE PUSH1 0x20 DUP3 ADD SWAP1 POP SWAP3 SWAP2 POP POP JUMP JUMPDEST PUSH32 0x4F6E6C79206F776E657200000000000000000000000000000000000000000000 PUSH0 DUP3 ADD MSTORE POP JUMP JUMPDEST PUSH0 PUSH2 0xB59 PUSH1 0xA DUP4 PUSH2 0xB15 JUMP JUMPDEST SWAP2 POP PUSH2 0xB64 DUP3 PUSH2 0xB25 JUMP JUMPDEST PUSH1 0x20 DUP3 ADD SWAP1 POP SWAP2 SWAP1 POP JUMP JUMPDEST PUSH0 PUSH1 0x20 DUP3 ADD SWAP1 POP DUP2 DUP2 SUB PUSH0 DUP4 ADD MSTORE PUSH2 0xB86 DUP2 PUSH2 0xB4D JUMP JUMPDEST SWAP1 POP SWAP2 SWAP1 POP JUMP JUMPDEST PUSH32 0x4E6F206665657320746F20776974686472617700000000000000000000000000 PUSH0 DUP3 ADD MSTORE POP JUMP JUMPDEST PUSH0 PUSH2 0xBC1 PUSH1 0x13 DUP4 PUSH2 0xB15 JUMP JUMPDEST SWAP2 POP PUSH2 0xBCC DUP3 PUSH2 0xB8D JUMP JUMPDEST PUSH1 0x20 DUP3 ADD SWAP1 POP SWAP2 SWAP1 POP JUMP JUMPDEST PUSH0 PUSH1 0x20 DUP3 ADD SWAP1 POP DUP2 DUP2 SUB PUSH0 DUP4 ADD MSTORE PUSH2 0xBEE DUP2 PUSH2 0xBB5 JUMP JUMPDEST SWAP1 POP SWAP2 SWAP1 POP JUMP JUMPDEST PUSH0 PUSH1 0x60 DUP3 ADD SWAP1 POP PUSH2 0xC08 PUSH0 DUP4 ADD DUP7 PUSH2 0xA89 JUMP JUMPDEST PUSH2 0xC15 PUSH1 0x20 DUP4 ADD DUP6 PUSH2 0xA89 JUMP JUMPDEST PUSH2 0xC22 PUSH1 0x40 DUP4 ADD DUP5 PUSH2 0xA61 JUMP JUMPDEST SWAP5 SWAP4 POP POP POP POP JUMP JUMPDEST PUSH0 DUP2 ISZERO ISZERO SWAP1 POP SWAP2 SWAP1 POP JUMP JUMPDEST PUSH2 0xC3E DUP2 PUSH2 0xC2A JUMP JUMPDEST DUP2 EQ PUSH2 0xC48 JUMPI PUSH0 DUP1 REVERT JUMPDEST POP JUMP JUMPDEST PUSH0 DUP2 MLOAD SWAP1 POP PUSH2 0xC59 DUP2 PUSH2 0xC35 JUMP JUMPDEST SWAP3 SWAP2 POP POP JUMP JUMPDEST PUSH0 PUSH1 0x20 DUP3 DUP5 SUB SLT ISZERO PUSH2 0xC74 JUMPI PUSH2 0xC73 PUSH2 0x992 JUMP JUMPDEST JUMPDEST PUSH0 PUSH2 0xC81 DUP5 DUP3 DUP6 ADD PUSH2 0xC4B JUMP JUMPDEST SWAP2 POP POP SWAP3 SWAP2 POP POP JUMP JUMPDEST PUSH32 0x4465706F736974206661696C6564000000000000000000000000000000000000 PUSH0 DUP3 ADD MSTORE POP JUMP JUMPDEST PUSH0 PUSH2 0xCBE PUSH1 0xE DUP4 PUSH2 0xB15 JUMP JUMPDEST SWAP2 POP PUSH2 0xCC9 DUP3 PUSH2 0xC8A JUMP JUMPDEST PUSH1 0x20 DUP3 ADD SWAP1 POP SWAP2 SWAP1 POP JUMP JUMPDEST PUSH0 PUSH1 0x20 DUP3 ADD SWAP1 POP DUP2 DUP2 SUB PUSH0 DUP4 ADD MSTORE PUSH2 0xCEB DUP2 PUSH2 0xCB2 JUMP JUMPDEST SWAP1 POP SWAP2 SWAP1 POP JUMP JUMPDEST PUSH0 PUSH1 0x40 DUP3 ADD SWAP1 POP PUSH2 0xD05 PUSH0 DUP4 ADD DUP6 PUSH2 0xA89 JUMP JUMPDEST PUSH2 0xD12 PUSH1 0x20 DUP4 ADD DUP5 PUSH2 0xA61 JUMP JUMPDEST SWAP4 SWAP3 POP POP POP JUMP JUMPDEST PUSH32 0x5769746864726177206661696C65640000000000000000000000000000000000 PUSH0 DUP3 ADD MSTORE POP JUMP JUMPDEST PUSH0 PUSH2 0xD4D PUSH1 0xF DUP4 PUSH2 0xB15 JUMP JUMPDEST SWAP2 POP PUSH2 0xD58 DUP3 PUSH2 0xD19 JUMP JUMPDEST PUSH1 0x20 DUP3 ADD SWAP1 POP SWAP2 SWAP1 POP JUMP JUMPDEST PUSH0 PUSH1 0x20 DUP3 ADD SWAP1 POP DUP2 DUP2 SUB PUSH0 DUP4 ADD MSTORE PUSH2 0xD7A DUP2 PUSH2 0xD41 JUMP JUMPDEST SWAP1 POP SWAP2 SWAP1 POP JUMP JUMPDEST PUSH32 0x496E73756666696369656E74206665652073656E740000000000000000000000 PUSH0 DUP3 ADD MSTORE POP JUMP JUMPDEST PUSH0 PUSH2 0xDB5 PUSH1 0x15 DUP4 PUSH2 0xB15 JUMP JUMPDEST SWAP2 POP PUSH2 0xDC0 DUP3 PUSH2 0xD81 JUMP JUMPDEST PUSH1 0x20 DUP3 ADD SWAP1 POP SWAP2 SWAP1 POP JUMP JUMPDEST PUSH0 PUSH1 0x20 DUP3 ADD SWAP1 POP DUP2 DUP2 SUB PUSH0 DUP4 ADD MSTORE PUSH2 0xDE2 DUP2 PUSH2 0xDA9 JUMP JUMPDEST SWAP1 POP SWAP2 SWAP1 POP JUMP JUMPDEST PUSH32 0x416D6F756E74206D757374206265203E20300000000000000000000000000000 PUSH0 DUP3 ADD MSTORE POP JUMP JUMPDEST PUSH0 PUSH2 0xE1D PUSH1 0x12 DUP4 PUSH2 0xB15 JUMP JUMPDEST SWAP2 POP PUSH2 0xE28 DUP3 PUSH2 0xDE9 JUMP JUMPDEST PUSH1 0x20 DUP3 ADD SWAP1 POP SWAP2 SWAP1 POP JUMP JUMPDEST PUSH0 PUSH1 0x20 DUP3 ADD SWAP1 POP DUP2 DUP2 SUB PUSH0 DUP4 ADD MSTORE PUSH2 0xE4A DUP2 PUSH2 0xE11 JUMP JUMPDEST SWAP1 POP SWAP2 SWAP1 POP JUMP JUMPDEST PUSH32 0x546F6B656E41207472616E73666572206661696C656400000000000000000000 PUSH0 DUP3 ADD MSTORE POP JUMP JUMPDEST PUSH0 PUSH2 0xE85 PUSH1 0x16 DUP4 PUSH2 0xB15 JUMP JUMPDEST SWAP2 POP PUSH2 0xE90 DUP3 PUSH2 0xE51 JUMP JUMPDEST PUSH1 0x20 DUP3 ADD SWAP1 POP SWAP2 SWAP1 POP JUMP JUMPDEST PUSH0 PUSH1 0x20 DUP3 ADD SWAP1 POP DUP2 DUP2 SUB PUSH0 DUP4 ADD MSTORE PUSH2 0xEB2 DUP2 PUSH2 0xE79 JUMP JUMPDEST SWAP1 POP SWAP2 SWAP1 POP JUMP JUMPDEST PUSH32 0x4E487B7100000000000000000000000000000000000000000000000000000000 PUSH0 MSTORE PUSH1 0x11 PUSH1 0x4 MSTORE PUSH1 0x24 PUSH0 REVERT JUMPDEST PUSH0 PUSH2 0xEF0 DUP3 PUSH2 0x9F0 JUMP JUMPDEST SWAP2 POP PUSH2 0xEFB DUP4 PUSH2 0x9F0 JUMP JUMPDEST SWAP3 POP DUP3 DUP3 MUL PUSH2 0xF09 DUP2 PUSH2 0x9F0 JUMP JUMPDEST SWAP2 POP DUP3 DUP3 DIV DUP5 EQ DUP4 ISZERO OR PUSH2 0xF20 JUMPI PUSH2 0xF1F PUSH2 0xEB9 JUMP JUMPDEST JUMPDEST POP SWAP3 SWAP2 POP POP JUMP JUMPDEST PUSH32 0x4E487B7100000000000000000000000000000000000000000000000000000000 PUSH0 MSTORE PUSH1 0x12 PUSH1 0x4 MSTORE PUSH1 0x24 PUSH0 REVERT JUMPDEST PUSH0 PUSH2 0xF5E DUP3 PUSH2 0x9F0 JUMP JUMPDEST SWAP2 POP PUSH2 0xF69 DUP4 PUSH2 0x9F0 JUMP JUMPDEST SWAP3 POP DUP3 PUSH2 0xF79 JUMPI PUSH2 0xF78 PUSH2 0xF27 JUMP JUMPDEST JUMPDEST DUP3 DUP3 DIV SWAP1 POP SWAP3 SWAP2 POP POP JUMP JUMPDEST PUSH0 DUP2 MLOAD SWAP1 POP PUSH2 0xF92 DUP2 PUSH2 0x9F9 JUMP JUMPDEST SWAP3 SWAP2 POP POP JUMP JUMPDEST PUSH0 PUSH1 0x20 DUP3 DUP5 SUB SLT ISZERO PUSH2 0xFAD JUMPI PUSH2 0xFAC PUSH2 0x992 JUMP JUMPDEST JUMPDEST PUSH0 PUSH2 0xFBA DUP5 DUP3 DUP6 ADD PUSH2 0xF84 JUMP JUMPDEST SWAP2 POP POP SWAP3 SWAP2 POP POP JUMP JUMPDEST PUSH32 0x4E6F7420656E6F75676820746F6B656E4220696E20706F6F6C00000000000000 PUSH0 DUP3 ADD MSTORE POP JUMP JUMPDEST PUSH0 PUSH2 0xFF7 PUSH1 0x19 DUP4 PUSH2 0xB15 JUMP JUMPDEST SWAP2 POP PUSH2 0x1002 DUP3 PUSH2 0xFC3 JUMP JUMPDEST PUSH1 0x20 DUP3 ADD SWAP1 POP SWAP2 SWAP1 POP JUMP JUMPDEST PUSH0 PUSH1 0x20 DUP3 ADD SWAP1 POP DUP2 DUP2 SUB PUSH0 DUP4 ADD MSTORE PUSH2 0x1024 DUP2 PUSH2 0xFEB JUMP JUMPDEST SWAP1 POP SWAP2 SWAP1 POP JUMP JUMPDEST PUSH32 0x546F6B656E42207472616E73666572206661696C656400000000000000000000 PUSH0 DUP3 ADD MSTORE POP JUMP JUMPDEST PUSH0 PUSH2 0x105F PUSH1 0x16 DUP4 PUSH2 0xB15 JUMP JUMPDEST SWAP2 POP PUSH2 0x106A DUP3 PUSH2 0x102B JUMP JUMPDEST PUSH1 0x20 DUP3 ADD SWAP1 POP SWAP2 SWAP1 POP JUMP JUMPDEST PUSH0 PUSH1 0x20 DUP3 ADD SWAP1 POP DUP2 DUP2 SUB PUSH0 DUP4 ADD MSTORE PUSH2 0x108C DUP2 PUSH2 0x1053 JUMP JUMPDEST SWAP1 POP SWAP2 SWAP1 POP JUMP JUMPDEST PUSH0 PUSH1 0x80 DUP3 ADD SWAP1 POP PUSH2 0x10A6 PUSH0 DUP4 ADD DUP8 PUSH2 0xA89 JUMP JUMPDEST PUSH2 0x10B3 PUSH1 0x20 DUP4 ADD DUP7 PUSH2 0xA89 JUMP JUMPDEST PUSH2 0x10C0 PUSH1 0x40 DUP4 ADD DUP6 PUSH2 0xA61 JUMP JUMPDEST PUSH2 0x10CD PUSH1 0x60 DUP4 ADD DUP5 PUSH2 0xA61 JUMP JUMPDEST SWAP6 SWAP5 POP POP POP POP POP JUMP INVALID LOG2 PUSH5 0x6970667358 0x22 SLT KECCAK256 0xBA MLOAD SELFBALANCE SELFDESTRUCT MULMOD AND STATICCALL 0xBA POP SUB 0xCD SUB JUMP SWAP11 0xDA SELFDESTRUCT 0xB9 ISZERO CREATE2 DUP7 MSIZE JUMPDEST SWAP1 SWAP8 LOG2 0xE3 PUSH9 0x27DE3A519664736F6C PUSH4 0x43000814 STOP CALLER "
				},
				"gasEstimates": {
					"creation": {
						"codeDepositCost": "872800",
						"executionCost": "25172",
						"totalCost": "897972"
					},
					"external": {
						"": "194",
						"deposit(address,uint256)": "infinite",
						"owner()": "2549",
						"swap(address,address,uint256,uint256)": "infinite",
						"swapFee()": "347",
						"withdraw(address,uint256)": "infinite",
						"withdrawFees()": "infinite"
					}
				},
				"methodIdentifiers": {
					"deposit(address,uint256)": "47e7ef24",
					"owner()": "8da5cb5b",
					"swap(address,address,uint256,uint256)": "fe029156",
					"swapFee()": "54cf2aeb",
					"withdraw(address,uint256)": "f3fef3a3",
					"withdrawFees()": "476343ee"
				}
			},
			"storageLayout": {
				"storage": [
					{
						"astId": 31,
						"contract": "swap.sol:SimpleSwap",
						"label": "owner",
						"offset": 0,
						"slot": "0",
						"type": "t_address"
					}
				],
				"types": {
					"t_address": {
						"encoding": "inplace",
						"label": "address",
						"numberOfBytes": "20"
					}
				}
			},
			"userdoc": {
				"kind": "user",
				"methods": {},
				"version": 1
			}
		}
	}
}