{
	"swap2.sol": {
		"SimpleSwap": {
			"abi": [
				{
					"inputs": [],
					"stateMutability": "nonpayable",
					"type": "constructor"
				},
				{
					"inputs": [
						{
							"internalType": "address",
							"name": "token",
							"type": "address"
						}
					],
					"name": "getTokenBalance",
					"outputs": [
						{
							"internalType": "uint256",
							"name": "",
							"type": "uint256"
						}
					],
					"stateMutability": "view",
					"type": "function"
				},
				{
					"inputs": [],
					"name": "owner",
					"outputs": [
						{
							"internalType": "address",
							"name": "",
							"type": "address"
						}
					],
					"stateMutability": "view",
					"type": "function"
				},
				{
					"inputs": [
						{
							"internalType": "address",
							"name": "fromToken",
							"type": "address"
						},
						{
							"internalType": "address",
							"name": "toToken",
							"type": "address"
						},
						{
							"internalType": "uint256",
							"name": "amount",
							"type": "uint256"
						},
						{
							"internalType": "uint256",
							"name": "convertRate",
							"type": "uint256"
						}
					],
					"name": "swap",
					"outputs": [],
					"stateMutability": "nonpayable",
					"type": "function"
				},
				{
					"inputs": [
						{
							"internalType": "address",
							"name": "token",
							"type": "address"
						},
						{
							"internalType": "uint256",
							"name": "amount",
							"type": "uint256"
						}
					],
					"name": "withdrawToken",
					"outputs": [],
					"stateMutability": "nonpayable",
					"type": "function"
				}
			],
			"devdoc": {
				"kind": "dev",
				"methods": {},
				"version": 1
			},
			"evm": {
				"assembly": "    /* \"swap2.sol\":330:2096  contract SimpleSwap {... */\n  mstore(0x40, 0x80)\n    /* \"swap2.sol\":386:437  constructor() {... */\n  callvalue\n  dup1\n  iszero\n  tag_1\n  jumpi\n  0x00\n  dup1\n  revert\ntag_1:\n  pop\n    /* \"swap2.sol\":419:429  msg.sender */\n  caller\n    /* \"swap2.sol\":411:416  owner */\n  0x00\n  dup1\n    /* \"swap2.sol\":411:429  owner = msg.sender */\n  0x0100\n  exp\n  dup2\n  sload\n  dup2\n  0xffffffffffffffffffffffffffffffffffffffff\n  mul\n  not\n  and\n  swap1\n  dup4\n  0xffffffffffffffffffffffffffffffffffffffff\n  and\n  mul\n  or\n  swap1\n  sstore\n  pop\n    /* \"swap2.sol\":330:2096  contract SimpleSwap {... */\n  dataSize(sub_0)\n  dup1\n  dataOffset(sub_0)\n  0x00\n  codecopy\n  0x00\n  return\nstop\n\nsub_0: assembly {\n        /* \"swap2.sol\":330:2096  contract SimpleSwap {... */\n      mstore(0x40, 0x80)\n      callvalue\n      dup1\n      iszero\n      tag_1\n      jumpi\n      0x00\n      dup1\n      revert\n    tag_1:\n      pop\n      jumpi(tag_2, lt(calldatasize, 0x04))\n      shr(0xe0, calldataload(0x00))\n      dup1\n      0x3aecd0e3\n      eq\n      tag_3\n      jumpi\n      dup1\n      0x8da5cb5b\n      eq\n      tag_4\n      jumpi\n      dup1\n      0x9e281a98\n      eq\n      tag_5\n      jumpi\n      dup1\n      0xfe029156\n      eq\n      tag_6\n      jumpi\n    tag_2:\n      0x00\n      dup1\n      revert\n        /* \"swap2.sol\":1959:2093  function getTokenBalance(address token) public view returns (uint256) {... */\n    tag_3:\n      tag_7\n      0x04\n      dup1\n      calldatasize\n      sub\n      dup2\n      add\n      swap1\n      tag_8\n      swap2\n      swap1\n      tag_9\n      jump\t// in\n    tag_8:\n      tag_10\n      jump\t// in\n    tag_7:\n      mload(0x40)\n      tag_11\n      swap2\n      swap1\n      tag_12\n      jump\t// in\n    tag_11:\n      mload(0x40)\n      dup1\n      swap2\n      sub\n      swap1\n      return\n        /* \"swap2.sol\":357:377  address public owner */\n    tag_4:\n      tag_13\n      tag_14\n      jump\t// in\n    tag_13:\n      mload(0x40)\n      tag_15\n      swap2\n      swap1\n      tag_16\n      jump\t// in\n    tag_15:\n      mload(0x40)\n      dup1\n      swap2\n      sub\n      swap1\n      return\n        /* \"swap2.sol\":1741:1914  function withdrawToken(address token, uint256 amount) public {... */\n    tag_5:\n      tag_17\n      0x04\n      dup1\n      calldatasize\n      sub\n      dup2\n      add\n      swap1\n      tag_18\n      swap2\n      swap1\n      tag_19\n      jump\t// in\n    tag_18:\n      tag_20\n      jump\t// in\n    tag_17:\n      stop\n        /* \"swap2.sol\":727:1676  function swap(... */\n    tag_6:\n      tag_21\n      0x04\n      dup1\n      calldatasize\n      sub\n      dup2\n      add\n      swap1\n      tag_22\n      swap2\n      swap1\n      tag_23\n      jump\t// in\n    tag_22:\n      tag_24\n      jump\t// in\n    tag_21:\n      stop\n        /* \"swap2.sol\":1959:2093  function getTokenBalance(address token) public view returns (uint256) {... */\n    tag_10:\n        /* \"swap2.sol\":2020:2027  uint256 */\n      0x00\n        /* \"swap2.sol\":2054:2059  token */\n      dup2\n        /* \"swap2.sol\":2047:2070  IERC20(token).balanceOf */\n      0xffffffffffffffffffffffffffffffffffffffff\n      and\n      0x70a08231\n        /* \"swap2.sol\":2079:2083  this */\n      address\n        /* \"swap2.sol\":2047:2085  IERC20(token).balanceOf(address(this)) */\n      mload(0x40)\n      dup3\n      0xffffffff\n      and\n      0xe0\n      shl\n      dup2\n      mstore\n      0x04\n      add\n      tag_26\n      swap2\n      swap1\n      tag_16\n      jump\t// in\n    tag_26:\n      0x20\n      mload(0x40)\n      dup1\n      dup4\n      sub\n      dup2\n      dup7\n      gas\n      staticcall\n      iszero\n      dup1\n      iszero\n      tag_28\n      jumpi\n      returndatasize\n      0x00\n      dup1\n      returndatacopy\n      revert(0x00, returndatasize)\n    tag_28:\n      pop\n      pop\n      pop\n      pop\n      mload(0x40)\n      returndatasize\n      not(0x1f)\n      0x1f\n      dup3\n      add\n      and\n      dup3\n      add\n      dup1\n      0x40\n      mstore\n      pop\n      dup2\n      add\n      swap1\n      tag_29\n      swap2\n      swap1\n      tag_30\n      jump\t// in\n    tag_29:\n        /* \"swap2.sol\":2040:2085  return IERC20(token).balanceOf(address(this)) */\n      swap1\n      pop\n        /* \"swap2.sol\":1959:2093  function getTokenBalance(address token) public view returns (uint256) {... */\n      swap2\n      swap1\n      pop\n      jump\t// out\n        /* \"swap2.sol\":357:377  address public owner */\n    tag_14:\n      0x00\n      dup1\n      sload\n      swap1\n      0x0100\n      exp\n      swap1\n      div\n      0xffffffffffffffffffffffffffffffffffffffff\n      and\n      dup2\n      jump\t// out\n        /* \"swap2.sol\":1741:1914  function withdrawToken(address token, uint256 amount) public {... */\n    tag_20:\n        /* \"swap2.sol\":1835:1840  owner */\n      0x00\n      dup1\n      sload\n      swap1\n      0x0100\n      exp\n      swap1\n      div\n      0xffffffffffffffffffffffffffffffffffffffff\n      and\n        /* \"swap2.sol\":1821:1840  msg.sender == owner */\n      0xffffffffffffffffffffffffffffffffffffffff\n      and\n        /* \"swap2.sol\":1821:1831  msg.sender */\n      caller\n        /* \"swap2.sol\":1821:1840  msg.sender == owner */\n      0xffffffffffffffffffffffffffffffffffffffff\n      and\n      eq\n        /* \"swap2.sol\":1813:1858  require(msg.sender == owner, \"Not the owner\") */\n      tag_32\n      jumpi\n      mload(0x40)\n      0x08c379a000000000000000000000000000000000000000000000000000000000\n      dup2\n      mstore\n      0x04\n      add\n      tag_33\n      swap1\n      tag_34\n      jump\t// in\n    tag_33:\n      mload(0x40)\n      dup1\n      swap2\n      sub\n      swap1\n      revert\n    tag_32:\n        /* \"swap2.sol\":1876:1881  token */\n      dup2\n        /* \"swap2.sol\":1869:1891  IERC20(token).transfer */\n      0xffffffffffffffffffffffffffffffffffffffff\n      and\n      0xa9059cbb\n        /* \"swap2.sol\":1892:1897  owner */\n      0x00\n      dup1\n      sload\n      swap1\n      0x0100\n      exp\n      swap1\n      div\n      0xffffffffffffffffffffffffffffffffffffffff\n      and\n        /* \"swap2.sol\":1899:1905  amount */\n      dup4\n        /* \"swap2.sol\":1869:1906  IERC20(token).transfer(owner, amount) */\n      mload(0x40)\n      dup4\n      0xffffffff\n      and\n      0xe0\n      shl\n      dup2\n      mstore\n      0x04\n      add\n      tag_35\n      swap3\n      swap2\n      swap1\n      tag_36\n      jump\t// in\n    tag_35:\n      0x20\n      mload(0x40)\n      dup1\n      dup4\n      sub\n      dup2\n      0x00\n      dup8\n      gas\n      call\n      iszero\n      dup1\n      iszero\n      tag_38\n      jumpi\n      returndatasize\n      0x00\n      dup1\n      returndatacopy\n      revert(0x00, returndatasize)\n    tag_38:\n      pop\n      pop\n      pop\n      pop\n      mload(0x40)\n      returndatasize\n      not(0x1f)\n      0x1f\n      dup3\n      add\n      and\n      dup3\n      add\n      dup1\n      0x40\n      mstore\n      pop\n      dup2\n      add\n      swap1\n      tag_39\n      swap2\n      swap1\n      tag_40\n      jump\t// in\n    tag_39:\n      pop\n        /* \"swap2.sol\":1741:1914  function withdrawToken(address token, uint256 amount) public {... */\n      pop\n      pop\n      jump\t// out\n        /* \"swap2.sol\":727:1676  function swap(... */\n    tag_24:\n        /* \"swap2.sol\":892:893  0 */\n      0x00\n        /* \"swap2.sol\":883:889  amount */\n      dup3\n        /* \"swap2.sol\":883:893  amount > 0 */\n      gt\n        /* \"swap2.sol\":875:916  require(amount > 0, \"Amount must be > 0\") */\n      tag_42\n      jumpi\n      mload(0x40)\n      0x08c379a000000000000000000000000000000000000000000000000000000000\n      dup2\n      mstore\n      0x04\n      add\n      tag_43\n      swap1\n      tag_44\n      jump\t// in\n    tag_43:\n      mload(0x40)\n      dup1\n      swap2\n      sub\n      swap1\n      revert\n    tag_42:\n        /* \"swap2.sol\":949:950  0 */\n      0x00\n        /* \"swap2.sol\":935:946  convertRate */\n      dup2\n        /* \"swap2.sol\":935:950  convertRate > 0 */\n      gt\n        /* \"swap2.sol\":927:979  require(convertRate > 0, \"Convert rate must be > 0\") */\n      tag_45\n      jumpi\n      mload(0x40)\n      0x08c379a000000000000000000000000000000000000000000000000000000000\n      dup2\n      mstore\n      0x04\n      add\n      tag_46\n      swap1\n      tag_47\n      jump\t// in\n    tag_46:\n      mload(0x40)\n      dup1\n      swap2\n      sub\n      swap1\n      revert\n    tag_45:\n        /* \"swap2.sol\":1039:1055  uint256 toAmount */\n      0x00\n        /* \"swap2.sol\":1067:1078  convertRate */\n      dup2\n        /* \"swap2.sol\":1058:1064  amount */\n      dup4\n        /* \"swap2.sol\":1058:1078  amount * convertRate */\n      tag_48\n      swap2\n      swap1\n      tag_49\n      jump\t// in\n    tag_48:\n        /* \"swap2.sol\":1039:1078  uint256 toAmount = amount * convertRate */\n      swap1\n      pop\n        /* \"swap2.sol\":1147:1170  uint256 contractBalance */\n      0x00\n        /* \"swap2.sol\":1180:1187  toToken */\n      dup5\n        /* \"swap2.sol\":1173:1198  IERC20(toToken).balanceOf */\n      0xffffffffffffffffffffffffffffffffffffffff\n      and\n      0x70a08231\n        /* \"swap2.sol\":1207:1211  this */\n      address\n        /* \"swap2.sol\":1173:1213  IERC20(toToken).balanceOf(address(this)) */\n      mload(0x40)\n      dup3\n      0xffffffff\n      and\n      0xe0\n      shl\n      dup2\n      mstore\n      0x04\n      add\n      tag_50\n      swap2\n      swap1\n      tag_16\n      jump\t// in\n    tag_50:\n      0x20\n      mload(0x40)\n      dup1\n      dup4\n      sub\n      dup2\n      dup7\n      gas\n      staticcall\n      iszero\n      dup1\n      iszero\n      tag_52\n      jumpi\n      returndatasize\n      0x00\n      dup1\n      returndatacopy\n      revert(0x00, returndatasize)\n    tag_52:\n      pop\n      pop\n      pop\n      pop\n      mload(0x40)\n      returndatasize\n      not(0x1f)\n      0x1f\n      dup3\n      add\n      and\n      dup3\n      add\n      dup1\n      0x40\n      mstore\n      pop\n      dup2\n      add\n      swap1\n      tag_53\n      swap2\n      swap1\n      tag_30\n      jump\t// in\n    tag_53:\n        /* \"swap2.sol\":1147:1213  uint256 contractBalance = IERC20(toToken).balanceOf(address(this)) */\n      swap1\n      pop\n        /* \"swap2.sol\":1251:1259  toAmount */\n      dup2\n        /* \"swap2.sol\":1232:1247  contractBalance */\n      dup2\n        /* \"swap2.sol\":1232:1259  contractBalance >= toAmount */\n      lt\n      iszero\n        /* \"swap2.sol\":1224:1281  require(contractBalance >= toAmount, \"haven't liquidity\") */\n      tag_54\n      jumpi\n      mload(0x40)\n      0x08c379a000000000000000000000000000000000000000000000000000000000\n      dup2\n      mstore\n      0x04\n      add\n      tag_55\n      swap1\n      tag_56\n      jump\t// in\n    tag_55:\n      mload(0x40)\n      dup1\n      swap2\n      sub\n      swap1\n      revert\n    tag_54:\n        /* \"swap2.sol\":1347:1360  bool sentFrom */\n      0x00\n        /* \"swap2.sol\":1370:1379  fromToken */\n      dup7\n        /* \"swap2.sol\":1363:1393  IERC20(fromToken).transferFrom */\n      0xffffffffffffffffffffffffffffffffffffffff\n      and\n      0x23b872dd\n        /* \"swap2.sol\":1394:1404  msg.sender */\n      caller\n        /* \"swap2.sol\":1414:1418  this */\n      address\n        /* \"swap2.sol\":1421:1427  amount */\n      dup9\n        /* \"swap2.sol\":1363:1428  IERC20(fromToken).transferFrom(msg.sender, address(this), amount) */\n      mload(0x40)\n      dup5\n      0xffffffff\n      and\n      0xe0\n      shl\n      dup2\n      mstore\n      0x04\n      add\n      tag_57\n      swap4\n      swap3\n      swap2\n      swap1\n      tag_58\n      jump\t// in\n    tag_57:\n      0x20\n      mload(0x40)\n      dup1\n      dup4\n      sub\n      dup2\n      0x00\n      dup8\n      gas\n      call\n      iszero\n      dup1\n      iszero\n      tag_60\n      jumpi\n      returndatasize\n      0x00\n      dup1\n      returndatacopy\n      revert(0x00, returndatasize)\n    tag_60:\n      pop\n      pop\n      pop\n      pop\n      mload(0x40)\n      returndatasize\n      not(0x1f)\n      0x1f\n      dup3\n      add\n      and\n      dup3\n      add\n      dup1\n      0x40\n      mstore\n      pop\n      dup2\n      add\n      swap1\n      tag_61\n      swap2\n      swap1\n      tag_40\n      jump\t// in\n    tag_61:\n        /* \"swap2.sol\":1347:1428  bool sentFrom = IERC20(fromToken).transferFrom(msg.sender, address(this), amount) */\n      swap1\n      pop\n        /* \"swap2.sol\":1447:1455  sentFrom */\n      dup1\n        /* \"swap2.sol\":1439:1488  require(sentFrom, \"Transfer of fromToken failed\") */\n      tag_62\n      jumpi\n      mload(0x40)\n      0x08c379a000000000000000000000000000000000000000000000000000000000\n      dup2\n      mstore\n      0x04\n      add\n      tag_63\n      swap1\n      tag_64\n      jump\t// in\n    tag_63:\n      mload(0x40)\n      dup1\n      swap2\n      sub\n      swap1\n      revert\n    tag_62:\n        /* \"swap2.sol\":1552:1563  bool sentTo */\n      0x00\n        /* \"swap2.sol\":1573:1580  toToken */\n      dup7\n        /* \"swap2.sol\":1566:1590  IERC20(toToken).transfer */\n      0xffffffffffffffffffffffffffffffffffffffff\n      and\n      0xa9059cbb\n        /* \"swap2.sol\":1591:1601  msg.sender */\n      caller\n        /* \"swap2.sol\":1603:1611  toAmount */\n      dup7\n        /* \"swap2.sol\":1566:1612  IERC20(toToken).transfer(msg.sender, toAmount) */\n      mload(0x40)\n      dup4\n      0xffffffff\n      and\n      0xe0\n      shl\n      dup2\n      mstore\n      0x04\n      add\n      tag_65\n      swap3\n      swap2\n      swap1\n      tag_36\n      jump\t// in\n    tag_65:\n      0x20\n      mload(0x40)\n      dup1\n      dup4\n      sub\n      dup2\n      0x00\n      dup8\n      gas\n      call\n      iszero\n      dup1\n      iszero\n      tag_67\n      jumpi\n      returndatasize\n      0x00\n      dup1\n      returndatacopy\n      revert(0x00, returndatasize)\n    tag_67:\n      pop\n      pop\n      pop\n      pop\n      mload(0x40)\n      returndatasize\n      not(0x1f)\n      0x1f\n      dup3\n      add\n      and\n      dup3\n      add\n      dup1\n      0x40\n      mstore\n      pop\n      dup2\n      add\n      swap1\n      tag_68\n      swap2\n      swap1\n      tag_40\n      jump\t// in\n    tag_68:\n        /* \"swap2.sol\":1552:1612  bool sentTo = IERC20(toToken).transfer(msg.sender, toAmount) */\n      swap1\n      pop\n        /* \"swap2.sol\":1631:1637  sentTo */\n      dup1\n        /* \"swap2.sol\":1623:1668  require(sentTo, \"Transfer of toToken failed\") */\n      tag_69\n      jumpi\n      mload(0x40)\n      0x08c379a000000000000000000000000000000000000000000000000000000000\n      dup2\n      mstore\n      0x04\n      add\n      tag_70\n      swap1\n      tag_71\n      jump\t// in\n    tag_70:\n      mload(0x40)\n      dup1\n      swap2\n      sub\n      swap1\n      revert\n    tag_69:\n        /* \"swap2.sol\":864:1676  {... */\n      pop\n      pop\n      pop\n      pop\n        /* \"swap2.sol\":727:1676  function swap(... */\n      pop\n      pop\n      pop\n      pop\n      jump\t// out\n        /* \"#utility.yul\":88:205   */\n    tag_73:\n        /* \"#utility.yul\":197:198   */\n      0x00\n        /* \"#utility.yul\":194:195   */\n      dup1\n        /* \"#utility.yul\":187:199   */\n      revert\n        /* \"#utility.yul\":334:460   */\n    tag_75:\n        /* \"#utility.yul\":371:378   */\n      0x00\n        /* \"#utility.yul\":411:453   */\n      0xffffffffffffffffffffffffffffffffffffffff\n        /* \"#utility.yul\":404:409   */\n      dup3\n        /* \"#utility.yul\":400:454   */\n      and\n        /* \"#utility.yul\":389:454   */\n      swap1\n      pop\n        /* \"#utility.yul\":334:460   */\n      swap2\n      swap1\n      pop\n      jump\t// out\n        /* \"#utility.yul\":466:562   */\n    tag_76:\n        /* \"#utility.yul\":503:510   */\n      0x00\n        /* \"#utility.yul\":532:556   */\n      tag_108\n        /* \"#utility.yul\":550:555   */\n      dup3\n        /* \"#utility.yul\":532:556   */\n      tag_75\n      jump\t// in\n    tag_108:\n        /* \"#utility.yul\":521:556   */\n      swap1\n      pop\n        /* \"#utility.yul\":466:562   */\n      swap2\n      swap1\n      pop\n      jump\t// out\n        /* \"#utility.yul\":568:690   */\n    tag_77:\n        /* \"#utility.yul\":641:665   */\n      tag_110\n        /* \"#utility.yul\":659:664   */\n      dup2\n        /* \"#utility.yul\":641:665   */\n      tag_76\n      jump\t// in\n    tag_110:\n        /* \"#utility.yul\":634:639   */\n      dup2\n        /* \"#utility.yul\":631:666   */\n      eq\n        /* \"#utility.yul\":621:684   */\n      tag_111\n      jumpi\n        /* \"#utility.yul\":680:681   */\n      0x00\n        /* \"#utility.yul\":677:678   */\n      dup1\n        /* \"#utility.yul\":670:682   */\n      revert\n        /* \"#utility.yul\":621:684   */\n    tag_111:\n        /* \"#utility.yul\":568:690   */\n      pop\n      jump\t// out\n        /* \"#utility.yul\":696:835   */\n    tag_78:\n        /* \"#utility.yul\":742:747   */\n      0x00\n        /* \"#utility.yul\":780:786   */\n      dup2\n        /* \"#utility.yul\":767:787   */\n      calldataload\n        /* \"#utility.yul\":758:787   */\n      swap1\n      pop\n        /* \"#utility.yul\":796:829   */\n      tag_113\n        /* \"#utility.yul\":823:828   */\n      dup2\n        /* \"#utility.yul\":796:829   */\n      tag_77\n      jump\t// in\n    tag_113:\n        /* \"#utility.yul\":696:835   */\n      swap3\n      swap2\n      pop\n      pop\n      jump\t// out\n        /* \"#utility.yul\":841:1170   */\n    tag_9:\n        /* \"#utility.yul\":900:906   */\n      0x00\n        /* \"#utility.yul\":949:951   */\n      0x20\n        /* \"#utility.yul\":937:946   */\n      dup3\n        /* \"#utility.yul\":928:935   */\n      dup5\n        /* \"#utility.yul\":924:947   */\n      sub\n        /* \"#utility.yul\":920:952   */\n      slt\n        /* \"#utility.yul\":917:1036   */\n      iszero\n      tag_115\n      jumpi\n        /* \"#utility.yul\":955:1034   */\n      tag_116\n      tag_73\n      jump\t// in\n    tag_116:\n        /* \"#utility.yul\":917:1036   */\n    tag_115:\n        /* \"#utility.yul\":1075:1076   */\n      0x00\n        /* \"#utility.yul\":1100:1153   */\n      tag_117\n        /* \"#utility.yul\":1145:1152   */\n      dup5\n        /* \"#utility.yul\":1136:1142   */\n      dup3\n        /* \"#utility.yul\":1125:1134   */\n      dup6\n        /* \"#utility.yul\":1121:1143   */\n      add\n        /* \"#utility.yul\":1100:1153   */\n      tag_78\n      jump\t// in\n    tag_117:\n        /* \"#utility.yul\":1090:1153   */\n      swap2\n      pop\n        /* \"#utility.yul\":1046:1163   */\n      pop\n        /* \"#utility.yul\":841:1170   */\n      swap3\n      swap2\n      pop\n      pop\n      jump\t// out\n        /* \"#utility.yul\":1176:1253   */\n    tag_79:\n        /* \"#utility.yul\":1213:1220   */\n      0x00\n        /* \"#utility.yul\":1242:1247   */\n      dup2\n        /* \"#utility.yul\":1231:1247   */\n      swap1\n      pop\n        /* \"#utility.yul\":1176:1253   */\n      swap2\n      swap1\n      pop\n      jump\t// out\n        /* \"#utility.yul\":1259:1377   */\n    tag_80:\n        /* \"#utility.yul\":1346:1370   */\n      tag_120\n        /* \"#utility.yul\":1364:1369   */\n      dup2\n        /* \"#utility.yul\":1346:1370   */\n      tag_79\n      jump\t// in\n    tag_120:\n        /* \"#utility.yul\":1341:1344   */\n      dup3\n        /* \"#utility.yul\":1334:1371   */\n      mstore\n        /* \"#utility.yul\":1259:1377   */\n      pop\n      pop\n      jump\t// out\n        /* \"#utility.yul\":1383:1605   */\n    tag_12:\n        /* \"#utility.yul\":1476:1480   */\n      0x00\n        /* \"#utility.yul\":1514:1516   */\n      0x20\n        /* \"#utility.yul\":1503:1512   */\n      dup3\n        /* \"#utility.yul\":1499:1517   */\n      add\n        /* \"#utility.yul\":1491:1517   */\n      swap1\n      pop\n        /* \"#utility.yul\":1527:1598   */\n      tag_122\n        /* \"#utility.yul\":1595:1596   */\n      0x00\n        /* \"#utility.yul\":1584:1593   */\n      dup4\n        /* \"#utility.yul\":1580:1597   */\n      add\n        /* \"#utility.yul\":1571:1577   */\n      dup5\n        /* \"#utility.yul\":1527:1598   */\n      tag_80\n      jump\t// in\n    tag_122:\n        /* \"#utility.yul\":1383:1605   */\n      swap3\n      swap2\n      pop\n      pop\n      jump\t// out\n        /* \"#utility.yul\":1611:1729   */\n    tag_81:\n        /* \"#utility.yul\":1698:1722   */\n      tag_124\n        /* \"#utility.yul\":1716:1721   */\n      dup2\n        /* \"#utility.yul\":1698:1722   */\n      tag_76\n      jump\t// in\n    tag_124:\n        /* \"#utility.yul\":1693:1696   */\n      dup3\n        /* \"#utility.yul\":1686:1723   */\n      mstore\n        /* \"#utility.yul\":1611:1729   */\n      pop\n      pop\n      jump\t// out\n        /* \"#utility.yul\":1735:1957   */\n    tag_16:\n        /* \"#utility.yul\":1828:1832   */\n      0x00\n        /* \"#utility.yul\":1866:1868   */\n      0x20\n        /* \"#utility.yul\":1855:1864   */\n      dup3\n        /* \"#utility.yul\":1851:1869   */\n      add\n        /* \"#utility.yul\":1843:1869   */\n      swap1\n      pop\n        /* \"#utility.yul\":1879:1950   */\n      tag_126\n        /* \"#utility.yul\":1947:1948   */\n      0x00\n        /* \"#utility.yul\":1936:1945   */\n      dup4\n        /* \"#utility.yul\":1932:1949   */\n      add\n        /* \"#utility.yul\":1923:1929   */\n      dup5\n        /* \"#utility.yul\":1879:1950   */\n      tag_81\n      jump\t// in\n    tag_126:\n        /* \"#utility.yul\":1735:1957   */\n      swap3\n      swap2\n      pop\n      pop\n      jump\t// out\n        /* \"#utility.yul\":1963:2085   */\n    tag_82:\n        /* \"#utility.yul\":2036:2060   */\n      tag_128\n        /* \"#utility.yul\":2054:2059   */\n      dup2\n        /* \"#utility.yul\":2036:2060   */\n      tag_79\n      jump\t// in\n    tag_128:\n        /* \"#utility.yul\":2029:2034   */\n      dup2\n        /* \"#utility.yul\":2026:2061   */\n      eq\n        /* \"#utility.yul\":2016:2079   */\n      tag_129\n      jumpi\n        /* \"#utility.yul\":2075:2076   */\n      0x00\n        /* \"#utility.yul\":2072:2073   */\n      dup1\n        /* \"#utility.yul\":2065:2077   */\n      revert\n        /* \"#utility.yul\":2016:2079   */\n    tag_129:\n        /* \"#utility.yul\":1963:2085   */\n      pop\n      jump\t// out\n        /* \"#utility.yul\":2091:2230   */\n    tag_83:\n        /* \"#utility.yul\":2137:2142   */\n      0x00\n        /* \"#utility.yul\":2175:2181   */\n      dup2\n        /* \"#utility.yul\":2162:2182   */\n      calldataload\n        /* \"#utility.yul\":2153:2182   */\n      swap1\n      pop\n        /* \"#utility.yul\":2191:2224   */\n      tag_131\n        /* \"#utility.yul\":2218:2223   */\n      dup2\n        /* \"#utility.yul\":2191:2224   */\n      tag_82\n      jump\t// in\n    tag_131:\n        /* \"#utility.yul\":2091:2230   */\n      swap3\n      swap2\n      pop\n      pop\n      jump\t// out\n        /* \"#utility.yul\":2236:2710   */\n    tag_19:\n        /* \"#utility.yul\":2304:2310   */\n      0x00\n        /* \"#utility.yul\":2312:2318   */\n      dup1\n        /* \"#utility.yul\":2361:2363   */\n      0x40\n        /* \"#utility.yul\":2349:2358   */\n      dup4\n        /* \"#utility.yul\":2340:2347   */\n      dup6\n        /* \"#utility.yul\":2336:2359   */\n      sub\n        /* \"#utility.yul\":2332:2364   */\n      slt\n        /* \"#utility.yul\":2329:2448   */\n      iszero\n      tag_133\n      jumpi\n        /* \"#utility.yul\":2367:2446   */\n      tag_134\n      tag_73\n      jump\t// in\n    tag_134:\n        /* \"#utility.yul\":2329:2448   */\n    tag_133:\n        /* \"#utility.yul\":2487:2488   */\n      0x00\n        /* \"#utility.yul\":2512:2565   */\n      tag_135\n        /* \"#utility.yul\":2557:2564   */\n      dup6\n        /* \"#utility.yul\":2548:2554   */\n      dup3\n        /* \"#utility.yul\":2537:2546   */\n      dup7\n        /* \"#utility.yul\":2533:2555   */\n      add\n        /* \"#utility.yul\":2512:2565   */\n      tag_78\n      jump\t// in\n    tag_135:\n        /* \"#utility.yul\":2502:2565   */\n      swap3\n      pop\n        /* \"#utility.yul\":2458:2575   */\n      pop\n        /* \"#utility.yul\":2614:2616   */\n      0x20\n        /* \"#utility.yul\":2640:2693   */\n      tag_136\n        /* \"#utility.yul\":2685:2692   */\n      dup6\n        /* \"#utility.yul\":2676:2682   */\n      dup3\n        /* \"#utility.yul\":2665:2674   */\n      dup7\n        /* \"#utility.yul\":2661:2683   */\n      add\n        /* \"#utility.yul\":2640:2693   */\n      tag_83\n      jump\t// in\n    tag_136:\n        /* \"#utility.yul\":2630:2693   */\n      swap2\n      pop\n        /* \"#utility.yul\":2585:2703   */\n      pop\n        /* \"#utility.yul\":2236:2710   */\n      swap3\n      pop\n      swap3\n      swap1\n      pop\n      jump\t// out\n        /* \"#utility.yul\":2716:3481   */\n    tag_23:\n        /* \"#utility.yul\":2802:2808   */\n      0x00\n        /* \"#utility.yul\":2810:2816   */\n      dup1\n        /* \"#utility.yul\":2818:2824   */\n      0x00\n        /* \"#utility.yul\":2826:2832   */\n      dup1\n        /* \"#utility.yul\":2875:2878   */\n      0x80\n        /* \"#utility.yul\":2863:2872   */\n      dup6\n        /* \"#utility.yul\":2854:2861   */\n      dup8\n        /* \"#utility.yul\":2850:2873   */\n      sub\n        /* \"#utility.yul\":2846:2879   */\n      slt\n        /* \"#utility.yul\":2843:2963   */\n      iszero\n      tag_138\n      jumpi\n        /* \"#utility.yul\":2882:2961   */\n      tag_139\n      tag_73\n      jump\t// in\n    tag_139:\n        /* \"#utility.yul\":2843:2963   */\n    tag_138:\n        /* \"#utility.yul\":3002:3003   */\n      0x00\n        /* \"#utility.yul\":3027:3080   */\n      tag_140\n        /* \"#utility.yul\":3072:3079   */\n      dup8\n        /* \"#utility.yul\":3063:3069   */\n      dup3\n        /* \"#utility.yul\":3052:3061   */\n      dup9\n        /* \"#utility.yul\":3048:3070   */\n      add\n        /* \"#utility.yul\":3027:3080   */\n      tag_78\n      jump\t// in\n    tag_140:\n        /* \"#utility.yul\":3017:3080   */\n      swap5\n      pop\n        /* \"#utility.yul\":2973:3090   */\n      pop\n        /* \"#utility.yul\":3129:3131   */\n      0x20\n        /* \"#utility.yul\":3155:3208   */\n      tag_141\n        /* \"#utility.yul\":3200:3207   */\n      dup8\n        /* \"#utility.yul\":3191:3197   */\n      dup3\n        /* \"#utility.yul\":3180:3189   */\n      dup9\n        /* \"#utility.yul\":3176:3198   */\n      add\n        /* \"#utility.yul\":3155:3208   */\n      tag_78\n      jump\t// in\n    tag_141:\n        /* \"#utility.yul\":3145:3208   */\n      swap4\n      pop\n        /* \"#utility.yul\":3100:3218   */\n      pop\n        /* \"#utility.yul\":3257:3259   */\n      0x40\n        /* \"#utility.yul\":3283:3336   */\n      tag_142\n        /* \"#utility.yul\":3328:3335   */\n      dup8\n        /* \"#utility.yul\":3319:3325   */\n      dup3\n        /* \"#utility.yul\":3308:3317   */\n      dup9\n        /* \"#utility.yul\":3304:3326   */\n      add\n        /* \"#utility.yul\":3283:3336   */\n      tag_83\n      jump\t// in\n    tag_142:\n        /* \"#utility.yul\":3273:3336   */\n      swap3\n      pop\n        /* \"#utility.yul\":3228:3346   */\n      pop\n        /* \"#utility.yul\":3385:3387   */\n      0x60\n        /* \"#utility.yul\":3411:3464   */\n      tag_143\n        /* \"#utility.yul\":3456:3463   */\n      dup8\n        /* \"#utility.yul\":3447:3453   */\n      dup3\n        /* \"#utility.yul\":3436:3445   */\n      dup9\n        /* \"#utility.yul\":3432:3454   */\n      add\n        /* \"#utility.yul\":3411:3464   */\n      tag_83\n      jump\t// in\n    tag_143:\n        /* \"#utility.yul\":3401:3464   */\n      swap2\n      pop\n        /* \"#utility.yul\":3356:3474   */\n      pop\n        /* \"#utility.yul\":2716:3481   */\n      swap3\n      swap6\n      swap2\n      swap5\n      pop\n      swap3\n      pop\n      jump\t// out\n        /* \"#utility.yul\":3487:3630   */\n    tag_84:\n        /* \"#utility.yul\":3544:3549   */\n      0x00\n        /* \"#utility.yul\":3575:3581   */\n      dup2\n        /* \"#utility.yul\":3569:3582   */\n      mload\n        /* \"#utility.yul\":3560:3582   */\n      swap1\n      pop\n        /* \"#utility.yul\":3591:3624   */\n      tag_145\n        /* \"#utility.yul\":3618:3623   */\n      dup2\n        /* \"#utility.yul\":3591:3624   */\n      tag_82\n      jump\t// in\n    tag_145:\n        /* \"#utility.yul\":3487:3630   */\n      swap3\n      swap2\n      pop\n      pop\n      jump\t// out\n        /* \"#utility.yul\":3636:3987   */\n    tag_30:\n        /* \"#utility.yul\":3706:3712   */\n      0x00\n        /* \"#utility.yul\":3755:3757   */\n      0x20\n        /* \"#utility.yul\":3743:3752   */\n      dup3\n        /* \"#utility.yul\":3734:3741   */\n      dup5\n        /* \"#utility.yul\":3730:3753   */\n      sub\n        /* \"#utility.yul\":3726:3758   */\n      slt\n        /* \"#utility.yul\":3723:3842   */\n      iszero\n      tag_147\n      jumpi\n        /* \"#utility.yul\":3761:3840   */\n      tag_148\n      tag_73\n      jump\t// in\n    tag_148:\n        /* \"#utility.yul\":3723:3842   */\n    tag_147:\n        /* \"#utility.yul\":3881:3882   */\n      0x00\n        /* \"#utility.yul\":3906:3970   */\n      tag_149\n        /* \"#utility.yul\":3962:3969   */\n      dup5\n        /* \"#utility.yul\":3953:3959   */\n      dup3\n        /* \"#utility.yul\":3942:3951   */\n      dup6\n        /* \"#utility.yul\":3938:3960   */\n      add\n        /* \"#utility.yul\":3906:3970   */\n      tag_84\n      jump\t// in\n    tag_149:\n        /* \"#utility.yul\":3896:3970   */\n      swap2\n      pop\n        /* \"#utility.yul\":3852:3980   */\n      pop\n        /* \"#utility.yul\":3636:3987   */\n      swap3\n      swap2\n      pop\n      pop\n      jump\t// out\n        /* \"#utility.yul\":3993:4162   */\n    tag_85:\n        /* \"#utility.yul\":4077:4088   */\n      0x00\n        /* \"#utility.yul\":4111:4117   */\n      dup3\n        /* \"#utility.yul\":4106:4109   */\n      dup3\n        /* \"#utility.yul\":4099:4118   */\n      mstore\n        /* \"#utility.yul\":4151:4155   */\n      0x20\n        /* \"#utility.yul\":4146:4149   */\n      dup3\n        /* \"#utility.yul\":4142:4156   */\n      add\n        /* \"#utility.yul\":4127:4156   */\n      swap1\n      pop\n        /* \"#utility.yul\":3993:4162   */\n      swap3\n      swap2\n      pop\n      pop\n      jump\t// out\n        /* \"#utility.yul\":4168:4331   */\n    tag_86:\n        /* \"#utility.yul\":4308:4323   */\n      0x4e6f7420746865206f776e657200000000000000000000000000000000000000\n        /* \"#utility.yul\":4304:4305   */\n      0x00\n        /* \"#utility.yul\":4296:4302   */\n      dup3\n        /* \"#utility.yul\":4292:4306   */\n      add\n        /* \"#utility.yul\":4285:4324   */\n      mstore\n        /* \"#utility.yul\":4168:4331   */\n      pop\n      jump\t// out\n        /* \"#utility.yul\":4337:4703   */\n    tag_87:\n        /* \"#utility.yul\":4479:4482   */\n      0x00\n        /* \"#utility.yul\":4500:4567   */\n      tag_153\n        /* \"#utility.yul\":4564:4566   */\n      0x0d\n        /* \"#utility.yul\":4559:4562   */\n      dup4\n        /* \"#utility.yul\":4500:4567   */\n      tag_85\n      jump\t// in\n    tag_153:\n        /* \"#utility.yul\":4493:4567   */\n      swap2\n      pop\n        /* \"#utility.yul\":4576:4669   */\n      tag_154\n        /* \"#utility.yul\":4665:4668   */\n      dup3\n        /* \"#utility.yul\":4576:4669   */\n      tag_86\n      jump\t// in\n    tag_154:\n        /* \"#utility.yul\":4694:4696   */\n      0x20\n        /* \"#utility.yul\":4689:4692   */\n      dup3\n        /* \"#utility.yul\":4685:4697   */\n      add\n        /* \"#utility.yul\":4678:4697   */\n      swap1\n      pop\n        /* \"#utility.yul\":4337:4703   */\n      swap2\n      swap1\n      pop\n      jump\t// out\n        /* \"#utility.yul\":4709:5128   */\n    tag_34:\n        /* \"#utility.yul\":4875:4879   */\n      0x00\n        /* \"#utility.yul\":4913:4915   */\n      0x20\n        /* \"#utility.yul\":4902:4911   */\n      dup3\n        /* \"#utility.yul\":4898:4916   */\n      add\n        /* \"#utility.yul\":4890:4916   */\n      swap1\n      pop\n        /* \"#utility.yul\":4962:4971   */\n      dup2\n        /* \"#utility.yul\":4956:4960   */\n      dup2\n        /* \"#utility.yul\":4952:4972   */\n      sub\n        /* \"#utility.yul\":4948:4949   */\n      0x00\n        /* \"#utility.yul\":4937:4946   */\n      dup4\n        /* \"#utility.yul\":4933:4950   */\n      add\n        /* \"#utility.yul\":4926:4973   */\n      mstore\n        /* \"#utility.yul\":4990:5121   */\n      tag_156\n        /* \"#utility.yul\":5116:5120   */\n      dup2\n        /* \"#utility.yul\":4990:5121   */\n      tag_87\n      jump\t// in\n    tag_156:\n        /* \"#utility.yul\":4982:5121   */\n      swap1\n      pop\n        /* \"#utility.yul\":4709:5128   */\n      swap2\n      swap1\n      pop\n      jump\t// out\n        /* \"#utility.yul\":5134:5466   */\n    tag_36:\n        /* \"#utility.yul\":5255:5259   */\n      0x00\n        /* \"#utility.yul\":5293:5295   */\n      0x40\n        /* \"#utility.yul\":5282:5291   */\n      dup3\n        /* \"#utility.yul\":5278:5296   */\n      add\n        /* \"#utility.yul\":5270:5296   */\n      swap1\n      pop\n        /* \"#utility.yul\":5306:5377   */\n      tag_158\n        /* \"#utility.yul\":5374:5375   */\n      0x00\n        /* \"#utility.yul\":5363:5372   */\n      dup4\n        /* \"#utility.yul\":5359:5376   */\n      add\n        /* \"#utility.yul\":5350:5356   */\n      dup6\n        /* \"#utility.yul\":5306:5377   */\n      tag_81\n      jump\t// in\n    tag_158:\n        /* \"#utility.yul\":5387:5459   */\n      tag_159\n        /* \"#utility.yul\":5455:5457   */\n      0x20\n        /* \"#utility.yul\":5444:5453   */\n      dup4\n        /* \"#utility.yul\":5440:5458   */\n      add\n        /* \"#utility.yul\":5431:5437   */\n      dup5\n        /* \"#utility.yul\":5387:5459   */\n      tag_80\n      jump\t// in\n    tag_159:\n        /* \"#utility.yul\":5134:5466   */\n      swap4\n      swap3\n      pop\n      pop\n      pop\n      jump\t// out\n        /* \"#utility.yul\":5472:5562   */\n    tag_88:\n        /* \"#utility.yul\":5506:5513   */\n      0x00\n        /* \"#utility.yul\":5549:5554   */\n      dup2\n        /* \"#utility.yul\":5542:5555   */\n      iszero\n        /* \"#utility.yul\":5535:5556   */\n      iszero\n        /* \"#utility.yul\":5524:5556   */\n      swap1\n      pop\n        /* \"#utility.yul\":5472:5562   */\n      swap2\n      swap1\n      pop\n      jump\t// out\n        /* \"#utility.yul\":5568:5684   */\n    tag_89:\n        /* \"#utility.yul\":5638:5659   */\n      tag_162\n        /* \"#utility.yul\":5653:5658   */\n      dup2\n        /* \"#utility.yul\":5638:5659   */\n      tag_88\n      jump\t// in\n    tag_162:\n        /* \"#utility.yul\":5631:5636   */\n      dup2\n        /* \"#utility.yul\":5628:5660   */\n      eq\n        /* \"#utility.yul\":5618:5678   */\n      tag_163\n      jumpi\n        /* \"#utility.yul\":5674:5675   */\n      0x00\n        /* \"#utility.yul\":5671:5672   */\n      dup1\n        /* \"#utility.yul\":5664:5676   */\n      revert\n        /* \"#utility.yul\":5618:5678   */\n    tag_163:\n        /* \"#utility.yul\":5568:5684   */\n      pop\n      jump\t// out\n        /* \"#utility.yul\":5690:5827   */\n    tag_90:\n        /* \"#utility.yul\":5744:5749   */\n      0x00\n        /* \"#utility.yul\":5775:5781   */\n      dup2\n        /* \"#utility.yul\":5769:5782   */\n      mload\n        /* \"#utility.yul\":5760:5782   */\n      swap1\n      pop\n        /* \"#utility.yul\":5791:5821   */\n      tag_165\n        /* \"#utility.yul\":5815:5820   */\n      dup2\n        /* \"#utility.yul\":5791:5821   */\n      tag_89\n      jump\t// in\n    tag_165:\n        /* \"#utility.yul\":5690:5827   */\n      swap3\n      swap2\n      pop\n      pop\n      jump\t// out\n        /* \"#utility.yul\":5833:6178   */\n    tag_40:\n        /* \"#utility.yul\":5900:5906   */\n      0x00\n        /* \"#utility.yul\":5949:5951   */\n      0x20\n        /* \"#utility.yul\":5937:5946   */\n      dup3\n        /* \"#utility.yul\":5928:5935   */\n      dup5\n        /* \"#utility.yul\":5924:5947   */\n      sub\n        /* \"#utility.yul\":5920:5952   */\n      slt\n        /* \"#utility.yul\":5917:6036   */\n      iszero\n      tag_167\n      jumpi\n        /* \"#utility.yul\":5955:6034   */\n      tag_168\n      tag_73\n      jump\t// in\n    tag_168:\n        /* \"#utility.yul\":5917:6036   */\n    tag_167:\n        /* \"#utility.yul\":6075:6076   */\n      0x00\n        /* \"#utility.yul\":6100:6161   */\n      tag_169\n        /* \"#utility.yul\":6153:6160   */\n      dup5\n        /* \"#utility.yul\":6144:6150   */\n      dup3\n        /* \"#utility.yul\":6133:6142   */\n      dup6\n        /* \"#utility.yul\":6129:6151   */\n      add\n        /* \"#utility.yul\":6100:6161   */\n      tag_90\n      jump\t// in\n    tag_169:\n        /* \"#utility.yul\":6090:6161   */\n      swap2\n      pop\n        /* \"#utility.yul\":6046:6171   */\n      pop\n        /* \"#utility.yul\":5833:6178   */\n      swap3\n      swap2\n      pop\n      pop\n      jump\t// out\n        /* \"#utility.yul\":6184:6352   */\n    tag_91:\n        /* \"#utility.yul\":6324:6344   */\n      0x416d6f756e74206d757374206265203e20300000000000000000000000000000\n        /* \"#utility.yul\":6320:6321   */\n      0x00\n        /* \"#utility.yul\":6312:6318   */\n      dup3\n        /* \"#utility.yul\":6308:6322   */\n      add\n        /* \"#utility.yul\":6301:6345   */\n      mstore\n        /* \"#utility.yul\":6184:6352   */\n      pop\n      jump\t// out\n        /* \"#utility.yul\":6358:6724   */\n    tag_92:\n        /* \"#utility.yul\":6500:6503   */\n      0x00\n        /* \"#utility.yul\":6521:6588   */\n      tag_172\n        /* \"#utility.yul\":6585:6587   */\n      0x12\n        /* \"#utility.yul\":6580:6583   */\n      dup4\n        /* \"#utility.yul\":6521:6588   */\n      tag_85\n      jump\t// in\n    tag_172:\n        /* \"#utility.yul\":6514:6588   */\n      swap2\n      pop\n        /* \"#utility.yul\":6597:6690   */\n      tag_173\n        /* \"#utility.yul\":6686:6689   */\n      dup3\n        /* \"#utility.yul\":6597:6690   */\n      tag_91\n      jump\t// in\n    tag_173:\n        /* \"#utility.yul\":6715:6717   */\n      0x20\n        /* \"#utility.yul\":6710:6713   */\n      dup3\n        /* \"#utility.yul\":6706:6718   */\n      add\n        /* \"#utility.yul\":6699:6718   */\n      swap1\n      pop\n        /* \"#utility.yul\":6358:6724   */\n      swap2\n      swap1\n      pop\n      jump\t// out\n        /* \"#utility.yul\":6730:7149   */\n    tag_44:\n        /* \"#utility.yul\":6896:6900   */\n      0x00\n        /* \"#utility.yul\":6934:6936   */\n      0x20\n        /* \"#utility.yul\":6923:6932   */\n      dup3\n        /* \"#utility.yul\":6919:6937   */\n      add\n        /* \"#utility.yul\":6911:6937   */\n      swap1\n      pop\n        /* \"#utility.yul\":6983:6992   */\n      dup2\n        /* \"#utility.yul\":6977:6981   */\n      dup2\n        /* \"#utility.yul\":6973:6993   */\n      sub\n        /* \"#utility.yul\":6969:6970   */\n      0x00\n        /* \"#utility.yul\":6958:6967   */\n      dup4\n        /* \"#utility.yul\":6954:6971   */\n      add\n        /* \"#utility.yul\":6947:6994   */\n      mstore\n        /* \"#utility.yul\":7011:7142   */\n      tag_175\n        /* \"#utility.yul\":7137:7141   */\n      dup2\n        /* \"#utility.yul\":7011:7142   */\n      tag_92\n      jump\t// in\n    tag_175:\n        /* \"#utility.yul\":7003:7142   */\n      swap1\n      pop\n        /* \"#utility.yul\":6730:7149   */\n      swap2\n      swap1\n      pop\n      jump\t// out\n        /* \"#utility.yul\":7155:7329   */\n    tag_93:\n        /* \"#utility.yul\":7295:7321   */\n      0x436f6e766572742072617465206d757374206265203e20300000000000000000\n        /* \"#utility.yul\":7291:7292   */\n      0x00\n        /* \"#utility.yul\":7283:7289   */\n      dup3\n        /* \"#utility.yul\":7279:7293   */\n      add\n        /* \"#utility.yul\":7272:7322   */\n      mstore\n        /* \"#utility.yul\":7155:7329   */\n      pop\n      jump\t// out\n        /* \"#utility.yul\":7335:7701   */\n    tag_94:\n        /* \"#utility.yul\":7477:7480   */\n      0x00\n        /* \"#utility.yul\":7498:7565   */\n      tag_178\n        /* \"#utility.yul\":7562:7564   */\n      0x18\n        /* \"#utility.yul\":7557:7560   */\n      dup4\n        /* \"#utility.yul\":7498:7565   */\n      tag_85\n      jump\t// in\n    tag_178:\n        /* \"#utility.yul\":7491:7565   */\n      swap2\n      pop\n        /* \"#utility.yul\":7574:7667   */\n      tag_179\n        /* \"#utility.yul\":7663:7666   */\n      dup3\n        /* \"#utility.yul\":7574:7667   */\n      tag_93\n      jump\t// in\n    tag_179:\n        /* \"#utility.yul\":7692:7694   */\n      0x20\n        /* \"#utility.yul\":7687:7690   */\n      dup3\n        /* \"#utility.yul\":7683:7695   */\n      add\n        /* \"#utility.yul\":7676:7695   */\n      swap1\n      pop\n        /* \"#utility.yul\":7335:7701   */\n      swap2\n      swap1\n      pop\n      jump\t// out\n        /* \"#utility.yul\":7707:8126   */\n    tag_47:\n        /* \"#utility.yul\":7873:7877   */\n      0x00\n        /* \"#utility.yul\":7911:7913   */\n      0x20\n        /* \"#utility.yul\":7900:7909   */\n      dup3\n        /* \"#utility.yul\":7896:7914   */\n      add\n        /* \"#utility.yul\":7888:7914   */\n      swap1\n      pop\n        /* \"#utility.yul\":7960:7969   */\n      dup2\n        /* \"#utility.yul\":7954:7958   */\n      dup2\n        /* \"#utility.yul\":7950:7970   */\n      sub\n        /* \"#utility.yul\":7946:7947   */\n      0x00\n        /* \"#utility.yul\":7935:7944   */\n      dup4\n        /* \"#utility.yul\":7931:7948   */\n      add\n        /* \"#utility.yul\":7924:7971   */\n      mstore\n        /* \"#utility.yul\":7988:8119   */\n      tag_181\n        /* \"#utility.yul\":8114:8118   */\n      dup2\n        /* \"#utility.yul\":7988:8119   */\n      tag_94\n      jump\t// in\n    tag_181:\n        /* \"#utility.yul\":7980:8119   */\n      swap1\n      pop\n        /* \"#utility.yul\":7707:8126   */\n      swap2\n      swap1\n      pop\n      jump\t// out\n        /* \"#utility.yul\":8132:8312   */\n    tag_95:\n        /* \"#utility.yul\":8180:8257   */\n      0x4e487b7100000000000000000000000000000000000000000000000000000000\n        /* \"#utility.yul\":8177:8178   */\n      0x00\n        /* \"#utility.yul\":8170:8258   */\n      mstore\n        /* \"#utility.yul\":8277:8281   */\n      0x11\n        /* \"#utility.yul\":8274:8275   */\n      0x04\n        /* \"#utility.yul\":8267:8282   */\n      mstore\n        /* \"#utility.yul\":8301:8305   */\n      0x24\n        /* \"#utility.yul\":8298:8299   */\n      0x00\n        /* \"#utility.yul\":8291:8306   */\n      revert\n        /* \"#utility.yul\":8318:8728   */\n    tag_49:\n        /* \"#utility.yul\":8358:8365   */\n      0x00\n        /* \"#utility.yul\":8381:8401   */\n      tag_184\n        /* \"#utility.yul\":8399:8400   */\n      dup3\n        /* \"#utility.yul\":8381:8401   */\n      tag_79\n      jump\t// in\n    tag_184:\n        /* \"#utility.yul\":8376:8401   */\n      swap2\n      pop\n        /* \"#utility.yul\":8415:8435   */\n      tag_185\n        /* \"#utility.yul\":8433:8434   */\n      dup4\n        /* \"#utility.yul\":8415:8435   */\n      tag_79\n      jump\t// in\n    tag_185:\n        /* \"#utility.yul\":8410:8435   */\n      swap3\n      pop\n        /* \"#utility.yul\":8470:8471   */\n      dup3\n        /* \"#utility.yul\":8467:8468   */\n      dup3\n        /* \"#utility.yul\":8463:8472   */\n      mul\n        /* \"#utility.yul\":8492:8522   */\n      tag_186\n        /* \"#utility.yul\":8510:8521   */\n      dup2\n        /* \"#utility.yul\":8492:8522   */\n      tag_79\n      jump\t// in\n    tag_186:\n        /* \"#utility.yul\":8481:8522   */\n      swap2\n      pop\n        /* \"#utility.yul\":8671:8672   */\n      dup3\n        /* \"#utility.yul\":8662:8669   */\n      dup3\n        /* \"#utility.yul\":8658:8673   */\n      div\n        /* \"#utility.yul\":8655:8656   */\n      dup5\n        /* \"#utility.yul\":8652:8674   */\n      eq\n        /* \"#utility.yul\":8632:8633   */\n      dup4\n        /* \"#utility.yul\":8625:8634   */\n      iszero\n        /* \"#utility.yul\":8605:8688   */\n      or\n        /* \"#utility.yul\":8582:8721   */\n      tag_187\n      jumpi\n        /* \"#utility.yul\":8701:8719   */\n      tag_188\n      tag_95\n      jump\t// in\n    tag_188:\n        /* \"#utility.yul\":8582:8721   */\n    tag_187:\n        /* \"#utility.yul\":8366:8728   */\n      pop\n        /* \"#utility.yul\":8318:8728   */\n      swap3\n      swap2\n      pop\n      pop\n      jump\t// out\n        /* \"#utility.yul\":8734:8901   */\n    tag_96:\n        /* \"#utility.yul\":8874:8893   */\n      0x686176656e2774206c6971756964697479000000000000000000000000000000\n        /* \"#utility.yul\":8870:8871   */\n      0x00\n        /* \"#utility.yul\":8862:8868   */\n      dup3\n        /* \"#utility.yul\":8858:8872   */\n      add\n        /* \"#utility.yul\":8851:8894   */\n      mstore\n        /* \"#utility.yul\":8734:8901   */\n      pop\n      jump\t// out\n        /* \"#utility.yul\":8907:9273   */\n    tag_97:\n        /* \"#utility.yul\":9049:9052   */\n      0x00\n        /* \"#utility.yul\":9070:9137   */\n      tag_191\n        /* \"#utility.yul\":9134:9136   */\n      0x11\n        /* \"#utility.yul\":9129:9132   */\n      dup4\n        /* \"#utility.yul\":9070:9137   */\n      tag_85\n      jump\t// in\n    tag_191:\n        /* \"#utility.yul\":9063:9137   */\n      swap2\n      pop\n        /* \"#utility.yul\":9146:9239   */\n      tag_192\n        /* \"#utility.yul\":9235:9238   */\n      dup3\n        /* \"#utility.yul\":9146:9239   */\n      tag_96\n      jump\t// in\n    tag_192:\n        /* \"#utility.yul\":9264:9266   */\n      0x20\n        /* \"#utility.yul\":9259:9262   */\n      dup3\n        /* \"#utility.yul\":9255:9267   */\n      add\n        /* \"#utility.yul\":9248:9267   */\n      swap1\n      pop\n        /* \"#utility.yul\":8907:9273   */\n      swap2\n      swap1\n      pop\n      jump\t// out\n        /* \"#utility.yul\":9279:9698   */\n    tag_56:\n        /* \"#utility.yul\":9445:9449   */\n      0x00\n        /* \"#utility.yul\":9483:9485   */\n      0x20\n        /* \"#utility.yul\":9472:9481   */\n      dup3\n        /* \"#utility.yul\":9468:9486   */\n      add\n        /* \"#utility.yul\":9460:9486   */\n      swap1\n      pop\n        /* \"#utility.yul\":9532:9541   */\n      dup2\n        /* \"#utility.yul\":9526:9530   */\n      dup2\n        /* \"#utility.yul\":9522:9542   */\n      sub\n        /* \"#utility.yul\":9518:9519   */\n      0x00\n        /* \"#utility.yul\":9507:9516   */\n      dup4\n        /* \"#utility.yul\":9503:9520   */\n      add\n        /* \"#utility.yul\":9496:9543   */\n      mstore\n        /* \"#utility.yul\":9560:9691   */\n      tag_194\n        /* \"#utility.yul\":9686:9690   */\n      dup2\n        /* \"#utility.yul\":9560:9691   */\n      tag_97\n      jump\t// in\n    tag_194:\n        /* \"#utility.yul\":9552:9691   */\n      swap1\n      pop\n        /* \"#utility.yul\":9279:9698   */\n      swap2\n      swap1\n      pop\n      jump\t// out\n        /* \"#utility.yul\":9704:10146   */\n    tag_58:\n        /* \"#utility.yul\":9853:9857   */\n      0x00\n        /* \"#utility.yul\":9891:9893   */\n      0x60\n        /* \"#utility.yul\":9880:9889   */\n      dup3\n        /* \"#utility.yul\":9876:9894   */\n      add\n        /* \"#utility.yul\":9868:9894   */\n      swap1\n      pop\n        /* \"#utility.yul\":9904:9975   */\n      tag_196\n        /* \"#utility.yul\":9972:9973   */\n      0x00\n        /* \"#utility.yul\":9961:9970   */\n      dup4\n        /* \"#utility.yul\":9957:9974   */\n      add\n        /* \"#utility.yul\":9948:9954   */\n      dup7\n        /* \"#utility.yul\":9904:9975   */\n      tag_81\n      jump\t// in\n    tag_196:\n        /* \"#utility.yul\":9985:10057   */\n      tag_197\n        /* \"#utility.yul\":10053:10055   */\n      0x20\n        /* \"#utility.yul\":10042:10051   */\n      dup4\n        /* \"#utility.yul\":10038:10056   */\n      add\n        /* \"#utility.yul\":10029:10035   */\n      dup6\n        /* \"#utility.yul\":9985:10057   */\n      tag_81\n      jump\t// in\n    tag_197:\n        /* \"#utility.yul\":10067:10139   */\n      tag_198\n        /* \"#utility.yul\":10135:10137   */\n      0x40\n        /* \"#utility.yul\":10124:10133   */\n      dup4\n        /* \"#utility.yul\":10120:10138   */\n      add\n        /* \"#utility.yul\":10111:10117   */\n      dup5\n        /* \"#utility.yul\":10067:10139   */\n      tag_80\n      jump\t// in\n    tag_198:\n        /* \"#utility.yul\":9704:10146   */\n      swap5\n      swap4\n      pop\n      pop\n      pop\n      pop\n      jump\t// out\n        /* \"#utility.yul\":10152:10330   */\n    tag_98:\n        /* \"#utility.yul\":10292:10322   */\n      0x5472616e73666572206f662066726f6d546f6b656e206661696c656400000000\n        /* \"#utility.yul\":10288:10289   */\n      0x00\n        /* \"#utility.yul\":10280:10286   */\n      dup3\n        /* \"#utility.yul\":10276:10290   */\n      add\n        /* \"#utility.yul\":10269:10323   */\n      mstore\n        /* \"#utility.yul\":10152:10330   */\n      pop\n      jump\t// out\n        /* \"#utility.yul\":10336:10702   */\n    tag_99:\n        /* \"#utility.yul\":10478:10481   */\n      0x00\n        /* \"#utility.yul\":10499:10566   */\n      tag_201\n        /* \"#utility.yul\":10563:10565   */\n      0x1c\n        /* \"#utility.yul\":10558:10561   */\n      dup4\n        /* \"#utility.yul\":10499:10566   */\n      tag_85\n      jump\t// in\n    tag_201:\n        /* \"#utility.yul\":10492:10566   */\n      swap2\n      pop\n        /* \"#utility.yul\":10575:10668   */\n      tag_202\n        /* \"#utility.yul\":10664:10667   */\n      dup3\n        /* \"#utility.yul\":10575:10668   */\n      tag_98\n      jump\t// in\n    tag_202:\n        /* \"#utility.yul\":10693:10695   */\n      0x20\n        /* \"#utility.yul\":10688:10691   */\n      dup3\n        /* \"#utility.yul\":10684:10696   */\n      add\n        /* \"#utility.yul\":10677:10696   */\n      swap1\n      pop\n        /* \"#utility.yul\":10336:10702   */\n      swap2\n      swap1\n      pop\n      jump\t// out\n        /* \"#utility.yul\":10708:11127   */\n    tag_64:\n        /* \"#utility.yul\":10874:10878   */\n      0x00\n        /* \"#utility.yul\":10912:10914   */\n      0x20\n        /* \"#utility.yul\":10901:10910   */\n      dup3\n        /* \"#utility.yul\":10897:10915   */\n      add\n        /* \"#utility.yul\":10889:10915   */\n      swap1\n      pop\n        /* \"#utility.yul\":10961:10970   */\n      dup2\n        /* \"#utility.yul\":10955:10959   */\n      dup2\n        /* \"#utility.yul\":10951:10971   */\n      sub\n        /* \"#utility.yul\":10947:10948   */\n      0x00\n        /* \"#utility.yul\":10936:10945   */\n      dup4\n        /* \"#utility.yul\":10932:10949   */\n      add\n        /* \"#utility.yul\":10925:10972   */\n      mstore\n        /* \"#utility.yul\":10989:11120   */\n      tag_204\n        /* \"#utility.yul\":11115:11119   */\n      dup2\n        /* \"#utility.yul\":10989:11120   */\n      tag_99\n      jump\t// in\n    tag_204:\n        /* \"#utility.yul\":10981:11120   */\n      swap1\n      pop\n        /* \"#utility.yul\":10708:11127   */\n      swap2\n      swap1\n      pop\n      jump\t// out\n        /* \"#utility.yul\":11133:11309   */\n    tag_100:\n        /* \"#utility.yul\":11273:11301   */\n      0x5472616e73666572206f6620746f546f6b656e206661696c6564000000000000\n        /* \"#utility.yul\":11269:11270   */\n      0x00\n        /* \"#utility.yul\":11261:11267   */\n      dup3\n        /* \"#utility.yul\":11257:11271   */\n      add\n        /* \"#utility.yul\":11250:11302   */\n      mstore\n        /* \"#utility.yul\":11133:11309   */\n      pop\n      jump\t// out\n        /* \"#utility.yul\":11315:11681   */\n    tag_101:\n        /* \"#utility.yul\":11457:11460   */\n      0x00\n        /* \"#utility.yul\":11478:11545   */\n      tag_207\n        /* \"#utility.yul\":11542:11544   */\n      0x1a\n        /* \"#utility.yul\":11537:11540   */\n      dup4\n        /* \"#utility.yul\":11478:11545   */\n      tag_85\n      jump\t// in\n    tag_207:\n        /* \"#utility.yul\":11471:11545   */\n      swap2\n      pop\n        /* \"#utility.yul\":11554:11647   */\n      tag_208\n        /* \"#utility.yul\":11643:11646   */\n      dup3\n        /* \"#utility.yul\":11554:11647   */\n      tag_100\n      jump\t// in\n    tag_208:\n        /* \"#utility.yul\":11672:11674   */\n      0x20\n        /* \"#utility.yul\":11667:11670   */\n      dup3\n        /* \"#utility.yul\":11663:11675   */\n      add\n        /* \"#utility.yul\":11656:11675   */\n      swap1\n      pop\n        /* \"#utility.yul\":11315:11681   */\n      swap2\n      swap1\n      pop\n      jump\t// out\n        /* \"#utility.yul\":11687:12106   */\n    tag_71:\n        /* \"#utility.yul\":11853:11857   */\n      0x00\n        /* \"#utility.yul\":11891:11893   */\n      0x20\n        /* \"#utility.yul\":11880:11889   */\n      dup3\n        /* \"#utility.yul\":11876:11894   */\n      add\n        /* \"#utility.yul\":11868:11894   */\n      swap1\n      pop\n        /* \"#utility.yul\":11940:11949   */\n      dup2\n        /* \"#utility.yul\":11934:11938   */\n      dup2\n        /* \"#utility.yul\":11930:11950   */\n      sub\n        /* \"#utility.yul\":11926:11927   */\n      0x00\n        /* \"#utility.yul\":11915:11924   */\n      dup4\n        /* \"#utility.yul\":11911:11928   */\n      add\n        /* \"#utility.yul\":11904:11951   */\n      mstore\n        /* \"#utility.yul\":11968:12099   */\n      tag_210\n        /* \"#utility.yul\":12094:12098   */\n      dup2\n        /* \"#utility.yul\":11968:12099   */\n      tag_101\n      jump\t// in\n    tag_210:\n        /* \"#utility.yul\":11960:12099   */\n      swap1\n      pop\n        /* \"#utility.yul\":11687:12106   */\n      swap2\n      swap1\n      pop\n      jump\t// out\n\n    auxdata: 0xa2646970667358221220aee43735580d9fb5dff7e65ac436edf0a943c041b364af40fa32dd5a5c0d2a8e64736f6c63430008140033\n}\n",
				"bytecode": {
					"linkReferences": {},
					"object": "608060405234801561000f575f80fd5b50335f806101000a81548173ffffffffffffffffffffffffffffffffffffffff021916908373ffffffffffffffffffffffffffffffffffffffff160217905550610b498061005c5f395ff3fe608060405234801561000f575f80fd5b506004361061004a575f3560e01c80633aecd0e31461004e5780638da5cb5b1461007e5780639e281a981461009c578063fe029156146100b8575b5f80fd5b610068600480360381019061006391906105da565b6100d4565b604051610075919061061d565b60405180910390f35b610086610154565b6040516100939190610645565b60405180910390f35b6100b660048036038101906100b19190610688565b610177565b005b6100d260048036038101906100cd91906106c6565b6102a3565b005b5f8173ffffffffffffffffffffffffffffffffffffffff166370a08231306040518263ffffffff1660e01b815260040161010e9190610645565b602060405180830381865afa158015610129573d5f803e3d5ffd5b505050506040513d601f19601f8201168201806040525081019061014d919061073e565b9050919050565b5f8054906101000a900473ffffffffffffffffffffffffffffffffffffffff1681565b5f8054906101000a900473ffffffffffffffffffffffffffffffffffffffff1673ffffffffffffffffffffffffffffffffffffffff163373ffffffffffffffffffffffffffffffffffffffff1614610204576040517f08c379a00000000000000000000000000000000000000000000000000000000081526004016101fb906107c3565b60405180910390fd5b8173ffffffffffffffffffffffffffffffffffffffff1663a9059cbb5f8054906101000a900473ffffffffffffffffffffffffffffffffffffffff16836040518363ffffffff1660e01b815260040161025e9291906107e1565b6020604051808303815f875af115801561027a573d5f803e3d5ffd5b505050506040513d601f19601f8201168201806040525081019061029e919061083d565b505050565b5f82116102e5576040517f08c379a00000000000000000000000000000000000000000000000000000000081526004016102dc906108b2565b60405180910390fd5b5f8111610327576040517f08c379a000000000000000000000000000000000000000000000000000000000815260040161031e9061091a565b60405180910390fd5b5f81836103349190610965565b90505f8473ffffffffffffffffffffffffffffffffffffffff166370a08231306040518263ffffffff1660e01b81526004016103709190610645565b602060405180830381865afa15801561038b573d5f803e3d5ffd5b505050506040513d601f19601f820116820180604052508101906103af919061073e565b9050818110156103f4576040517f08c379a00000000000000000000000000000000000000000000000000000000081526004016103eb906109f0565b60405180910390fd5b5f8673ffffffffffffffffffffffffffffffffffffffff166323b872dd3330886040518463ffffffff1660e01b815260040161043293929190610a0e565b6020604051808303815f875af115801561044e573d5f803e3d5ffd5b505050506040513d601f19601f82011682018060405250810190610472919061083d565b9050806104b4576040517f08c379a00000000000000000000000000000000000000000000000000000000081526004016104ab90610a8d565b60405180910390fd5b5f8673ffffffffffffffffffffffffffffffffffffffff1663a9059cbb33866040518363ffffffff1660e01b81526004016104f09291906107e1565b6020604051808303815f875af115801561050c573d5f803e3d5ffd5b505050506040513d601f19601f82011682018060405250810190610530919061083d565b905080610572576040517f08c379a000000000000000000000000000000000000000000000000000000000815260040161056990610af5565b60405180910390fd5b5050505050505050565b5f80fd5b5f73ffffffffffffffffffffffffffffffffffffffff82169050919050565b5f6105a982610580565b9050919050565b6105b98161059f565b81146105c3575f80fd5b50565b5f813590506105d4816105b0565b92915050565b5f602082840312156105ef576105ee61057c565b5b5f6105fc848285016105c6565b91505092915050565b5f819050919050565b61061781610605565b82525050565b5f6020820190506106305f83018461060e565b92915050565b61063f8161059f565b82525050565b5f6020820190506106585f830184610636565b92915050565b61066781610605565b8114610671575f80fd5b50565b5f813590506106828161065e565b92915050565b5f806040838503121561069e5761069d61057c565b5b5f6106ab858286016105c6565b92505060206106bc85828601610674565b9150509250929050565b5f805f80608085870312156106de576106dd61057c565b5b5f6106eb878288016105c6565b94505060206106fc878288016105c6565b935050604061070d87828801610674565b925050606061071e87828801610674565b91505092959194509250565b5f815190506107388161065e565b92915050565b5f602082840312156107535761075261057c565b5b5f6107608482850161072a565b91505092915050565b5f82825260208201905092915050565b7f4e6f7420746865206f776e6572000000000000000000000000000000000000005f82015250565b5f6107ad600d83610769565b91506107b882610779565b602082019050919050565b5f6020820190508181035f8301526107da816107a1565b9050919050565b5f6040820190506107f45f830185610636565b610801602083018461060e565b9392505050565b5f8115159050919050565b61081c81610808565b8114610826575f80fd5b50565b5f8151905061083781610813565b92915050565b5f602082840312156108525761085161057c565b5b5f61085f84828501610829565b91505092915050565b7f416d6f756e74206d757374206265203e203000000000000000000000000000005f82015250565b5f61089c601283610769565b91506108a782610868565b602082019050919050565b5f6020820190508181035f8301526108c981610890565b9050919050565b7f436f6e766572742072617465206d757374206265203e203000000000000000005f82015250565b5f610904601883610769565b915061090f826108d0565b602082019050919050565b5f6020820190508181035f830152610931816108f8565b9050919050565b7f4e487b71000000000000000000000000000000000000000000000000000000005f52601160045260245ffd5b5f61096f82610605565b915061097a83610605565b925082820261098881610605565b9150828204841483151761099f5761099e610938565b5b5092915050565b7f686176656e2774206c69717569646974790000000000000000000000000000005f82015250565b5f6109da601183610769565b91506109e5826109a6565b602082019050919050565b5f6020820190508181035f830152610a07816109ce565b9050919050565b5f606082019050610a215f830186610636565b610a2e6020830185610636565b610a3b604083018461060e565b949350505050565b7f5472616e73666572206f662066726f6d546f6b656e206661696c6564000000005f82015250565b5f610a77601c83610769565b9150610a8282610a43565b602082019050919050565b5f6020820190508181035f830152610aa481610a6b565b9050919050565b7f5472616e73666572206f6620746f546f6b656e206661696c65640000000000005f82015250565b5f610adf601a83610769565b9150610aea82610aab565b602082019050919050565b5f6020820190508181035f830152610b0c81610ad3565b905091905056fea2646970667358221220aee43735580d9fb5dff7e65ac436edf0a943c041b364af40fa32dd5a5c0d2a8e64736f6c63430008140033",
					"opcodes": "PUSH1 0x80 PUSH1 0x40 MSTORE CALLVALUE DUP1 ISZERO PUSH2 0xF JUMPI PUSH0 DUP1 REVERT JUMPDEST POP CALLER PUSH0 DUP1 PUSH2 0x100 EXP DUP2 SLOAD DUP2 PUSH20 0xFFFFFFFFFFFFFFFFFFFFFFFFFFFFFFFFFFFFFFFF MUL NOT AND SWAP1 DUP4 PUSH20 0xFFFFFFFFFFFFFFFFFFFFFFFFFFFFFFFFFFFFFFFF AND MUL OR SWAP1 SSTORE POP PUSH2 0xB49 DUP1 PUSH2 0x5C PUSH0 CODECOPY PUSH0 RETURN INVALID PUSH1 0x80 PUSH1 0x40 MSTORE CALLVALUE DUP1 ISZERO PUSH2 0xF JUMPI PUSH0 DUP1 REVERT JUMPDEST POP PUSH1 0x4 CALLDATASIZE LT PUSH2 0x4A JUMPI PUSH0 CALLDATALOAD PUSH1 0xE0 SHR DUP1 PUSH4 0x3AECD0E3 EQ PUSH2 0x4E JUMPI DUP1 PUSH4 0x8DA5CB5B EQ PUSH2 0x7E JUMPI DUP1 PUSH4 0x9E281A98 EQ PUSH2 0x9C JUMPI DUP1 PUSH4 0xFE029156 EQ PUSH2 0xB8 JUMPI JUMPDEST PUSH0 DUP1 REVERT JUMPDEST PUSH2 0x68 PUSH1 0x4 DUP1 CALLDATASIZE SUB DUP2 ADD SWAP1 PUSH2 0x63 SWAP2 SWAP1 PUSH2 0x5DA JUMP JUMPDEST PUSH2 0xD4 JUMP JUMPDEST PUSH1 0x40 MLOAD PUSH2 0x75 SWAP2 SWAP1 PUSH2 0x61D JUMP JUMPDEST PUSH1 0x40 MLOAD DUP1 SWAP2 SUB SWAP1 RETURN JUMPDEST PUSH2 0x86 PUSH2 0x154 JUMP JUMPDEST PUSH1 0x40 MLOAD PUSH2 0x93 SWAP2 SWAP1 PUSH2 0x645 JUMP JUMPDEST PUSH1 0x40 MLOAD DUP1 SWAP2 SUB SWAP1 RETURN JUMPDEST PUSH2 0xB6 PUSH1 0x4 DUP1 CALLDATASIZE SUB DUP2 ADD SWAP1 PUSH2 0xB1 SWAP2 SWAP1 PUSH2 0x688 JUMP JUMPDEST PUSH2 0x177 JUMP JUMPDEST STOP JUMPDEST PUSH2 0xD2 PUSH1 0x4 DUP1 CALLDATASIZE SUB DUP2 ADD SWAP1 PUSH2 0xCD SWAP2 SWAP1 PUSH2 0x6C6 JUMP JUMPDEST PUSH2 0x2A3 JUMP JUMPDEST STOP JUMPDEST PUSH0 DUP2 PUSH20 0xFFFFFFFFFFFFFFFFFFFFFFFFFFFFFFFFFFFFFFFF AND PUSH4 0x70A08231 ADDRESS PUSH1 0x40 MLOAD DUP3 PUSH4 0xFFFFFFFF AND PUSH1 0xE0 SHL DUP2 MSTORE PUSH1 0x4 ADD PUSH2 0x10E SWAP2 SWAP1 PUSH2 0x645 JUMP JUMPDEST PUSH1 0x20 PUSH1 0x40 MLOAD DUP1 DUP4 SUB DUP2 DUP7 GAS STATICCALL ISZERO DUP1 ISZERO PUSH2 0x129 JUMPI RETURNDATASIZE PUSH0 DUP1 RETURNDATACOPY RETURNDATASIZE PUSH0 REVERT JUMPDEST POP POP POP POP PUSH1 0x40 MLOAD RETURNDATASIZE PUSH1 0x1F NOT PUSH1 0x1F DUP3 ADD AND DUP3 ADD DUP1 PUSH1 0x40 MSTORE POP DUP2 ADD SWAP1 PUSH2 0x14D SWAP2 SWAP1 PUSH2 0x73E JUMP JUMPDEST SWAP1 POP SWAP2 SWAP1 POP JUMP JUMPDEST PUSH0 DUP1 SLOAD SWAP1 PUSH2 0x100 EXP SWAP1 DIV PUSH20 0xFFFFFFFFFFFFFFFFFFFFFFFFFFFFFFFFFFFFFFFF AND DUP2 JUMP JUMPDEST PUSH0 DUP1 SLOAD SWAP1 PUSH2 0x100 EXP SWAP1 DIV PUSH20 0xFFFFFFFFFFFFFFFFFFFFFFFFFFFFFFFFFFFFFFFF AND PUSH20 0xFFFFFFFFFFFFFFFFFFFFFFFFFFFFFFFFFFFFFFFF AND CALLER PUSH20 0xFFFFFFFFFFFFFFFFFFFFFFFFFFFFFFFFFFFFFFFF AND EQ PUSH2 0x204 JUMPI PUSH1 0x40 MLOAD PUSH32 0x8C379A000000000000000000000000000000000000000000000000000000000 DUP2 MSTORE PUSH1 0x4 ADD PUSH2 0x1FB SWAP1 PUSH2 0x7C3 JUMP JUMPDEST PUSH1 0x40 MLOAD DUP1 SWAP2 SUB SWAP1 REVERT JUMPDEST DUP2 PUSH20 0xFFFFFFFFFFFFFFFFFFFFFFFFFFFFFFFFFFFFFFFF AND PUSH4 0xA9059CBB PUSH0 DUP1 SLOAD SWAP1 PUSH2 0x100 EXP SWAP1 DIV PUSH20 0xFFFFFFFFFFFFFFFFFFFFFFFFFFFFFFFFFFFFFFFF AND DUP4 PUSH1 0x40 MLOAD DUP4 PUSH4 0xFFFFFFFF AND PUSH1 0xE0 SHL DUP2 MSTORE PUSH1 0x4 ADD PUSH2 0x25E SWAP3 SWAP2 SWAP1 PUSH2 0x7E1 JUMP JUMPDEST PUSH1 0x20 PUSH1 0x40 MLOAD DUP1 DUP4 SUB DUP2 PUSH0 DUP8 GAS CALL ISZERO DUP1 ISZERO PUSH2 0x27A JUMPI RETURNDATASIZE PUSH0 DUP1 RETURNDATACOPY RETURNDATASIZE PUSH0 REVERT JUMPDEST POP POP POP POP PUSH1 0x40 MLOAD RETURNDATASIZE PUSH1 0x1F NOT PUSH1 0x1F DUP3 ADD AND DUP3 ADD DUP1 PUSH1 0x40 MSTORE POP DUP2 ADD SWAP1 PUSH2 0x29E SWAP2 SWAP1 PUSH2 0x83D JUMP JUMPDEST POP POP POP JUMP JUMPDEST PUSH0 DUP3 GT PUSH2 0x2E5 JUMPI PUSH1 0x40 MLOAD PUSH32 0x8C379A000000000000000000000000000000000000000000000000000000000 DUP2 MSTORE PUSH1 0x4 ADD PUSH2 0x2DC SWAP1 PUSH2 0x8B2 JUMP JUMPDEST PUSH1 0x40 MLOAD DUP1 SWAP2 SUB SWAP1 REVERT JUMPDEST PUSH0 DUP2 GT PUSH2 0x327 JUMPI PUSH1 0x40 MLOAD PUSH32 0x8C379A000000000000000000000000000000000000000000000000000000000 DUP2 MSTORE PUSH1 0x4 ADD PUSH2 0x31E SWAP1 PUSH2 0x91A JUMP JUMPDEST PUSH1 0x40 MLOAD DUP1 SWAP2 SUB SWAP1 REVERT JUMPDEST PUSH0 DUP2 DUP4 PUSH2 0x334 SWAP2 SWAP1 PUSH2 0x965 JUMP JUMPDEST SWAP1 POP PUSH0 DUP5 PUSH20 0xFFFFFFFFFFFFFFFFFFFFFFFFFFFFFFFFFFFFFFFF AND PUSH4 0x70A08231 ADDRESS PUSH1 0x40 MLOAD DUP3 PUSH4 0xFFFFFFFF AND PUSH1 0xE0 SHL DUP2 MSTORE PUSH1 0x4 ADD PUSH2 0x370 SWAP2 SWAP1 PUSH2 0x645 JUMP JUMPDEST PUSH1 0x20 PUSH1 0x40 MLOAD DUP1 DUP4 SUB DUP2 DUP7 GAS STATICCALL ISZERO DUP1 ISZERO PUSH2 0x38B JUMPI RETURNDATASIZE PUSH0 DUP1 RETURNDATACOPY RETURNDATASIZE PUSH0 REVERT JUMPDEST POP POP POP POP PUSH1 0x40 MLOAD RETURNDATASIZE PUSH1 0x1F NOT PUSH1 0x1F DUP3 ADD AND DUP3 ADD DUP1 PUSH1 0x40 MSTORE POP DUP2 ADD SWAP1 PUSH2 0x3AF SWAP2 SWAP1 PUSH2 0x73E JUMP JUMPDEST SWAP1 POP DUP2 DUP2 LT ISZERO PUSH2 0x3F4 JUMPI PUSH1 0x40 MLOAD PUSH32 0x8C379A000000000000000000000000000000000000000000000000000000000 DUP2 MSTORE PUSH1 0x4 ADD PUSH2 0x3EB SWAP1 PUSH2 0x9F0 JUMP JUMPDEST PUSH1 0x40 MLOAD DUP1 SWAP2 SUB SWAP1 REVERT JUMPDEST PUSH0 DUP7 PUSH20 0xFFFFFFFFFFFFFFFFFFFFFFFFFFFFFFFFFFFFFFFF AND PUSH4 0x23B872DD CALLER ADDRESS DUP9 PUSH1 0x40 MLOAD DUP5 PUSH4 0xFFFFFFFF AND PUSH1 0xE0 SHL DUP2 MSTORE PUSH1 0x4 ADD PUSH2 0x432 SWAP4 SWAP3 SWAP2 SWAP1 PUSH2 0xA0E JUMP JUMPDEST PUSH1 0x20 PUSH1 0x40 MLOAD DUP1 DUP4 SUB DUP2 PUSH0 DUP8 GAS CALL ISZERO DUP1 ISZERO PUSH2 0x44E JUMPI RETURNDATASIZE PUSH0 DUP1 RETURNDATACOPY RETURNDATASIZE PUSH0 REVERT JUMPDEST POP POP POP POP PUSH1 0x40 MLOAD RETURNDATASIZE PUSH1 0x1F NOT PUSH1 0x1F DUP3 ADD AND DUP3 ADD DUP1 PUSH1 0x40 MSTORE POP DUP2 ADD SWAP1 PUSH2 0x472 SWAP2 SWAP1 PUSH2 0x83D JUMP JUMPDEST SWAP1 POP DUP1 PUSH2 0x4B4 JUMPI PUSH1 0x40 MLOAD PUSH32 0x8C379A000000000000000000000000000000000000000000000000000000000 DUP2 MSTORE PUSH1 0x4 ADD PUSH2 0x4AB SWAP1 PUSH2 0xA8D JUMP JUMPDEST PUSH1 0x40 MLOAD DUP1 SWAP2 SUB SWAP1 REVERT JUMPDEST PUSH0 DUP7 PUSH20 0xFFFFFFFFFFFFFFFFFFFFFFFFFFFFFFFFFFFFFFFF AND PUSH4 0xA9059CBB CALLER DUP7 PUSH1 0x40 MLOAD DUP4 PUSH4 0xFFFFFFFF AND PUSH1 0xE0 SHL DUP2 MSTORE PUSH1 0x4 ADD PUSH2 0x4F0 SWAP3 SWAP2 SWAP1 PUSH2 0x7E1 JUMP JUMPDEST PUSH1 0x20 PUSH1 0x40 MLOAD DUP1 DUP4 SUB DUP2 PUSH0 DUP8 GAS CALL ISZERO DUP1 ISZERO PUSH2 0x50C JUMPI RETURNDATASIZE PUSH0 DUP1 RETURNDATACOPY RETURNDATASIZE PUSH0 REVERT JUMPDEST POP POP POP POP PUSH1 0x40 MLOAD RETURNDATASIZE PUSH1 0x1F NOT PUSH1 0x1F DUP3 ADD AND DUP3 ADD DUP1 PUSH1 0x40 MSTORE POP DUP2 ADD SWAP1 PUSH2 0x530 SWAP2 SWAP1 PUSH2 0x83D JUMP JUMPDEST SWAP1 POP DUP1 PUSH2 0x572 JUMPI PUSH1 0x40 MLOAD PUSH32 0x8C379A000000000000000000000000000000000000000000000000000000000 DUP2 MSTORE PUSH1 0x4 ADD PUSH2 0x569 SWAP1 PUSH2 0xAF5 JUMP JUMPDEST PUSH1 0x40 MLOAD DUP1 SWAP2 SUB SWAP1 REVERT JUMPDEST POP POP POP POP POP POP POP POP JUMP JUMPDEST PUSH0 DUP1 REVERT JUMPDEST PUSH0 PUSH20 0xFFFFFFFFFFFFFFFFFFFFFFFFFFFFFFFFFFFFFFFF DUP3 AND SWAP1 POP SWAP2 SWAP1 POP JUMP JUMPDEST PUSH0 PUSH2 0x5A9 DUP3 PUSH2 0x580 JUMP JUMPDEST SWAP1 POP SWAP2 SWAP1 POP JUMP JUMPDEST PUSH2 0x5B9 DUP2 PUSH2 0x59F JUMP JUMPDEST DUP2 EQ PUSH2 0x5C3 JUMPI PUSH0 DUP1 REVERT JUMPDEST POP JUMP JUMPDEST PUSH0 DUP2 CALLDATALOAD SWAP1 POP PUSH2 0x5D4 DUP2 PUSH2 0x5B0 JUMP JUMPDEST SWAP3 SWAP2 POP POP JUMP JUMPDEST PUSH0 PUSH1 0x20 DUP3 DUP5 SUB SLT ISZERO PUSH2 0x5EF JUMPI PUSH2 0x5EE PUSH2 0x57C JUMP JUMPDEST JUMPDEST PUSH0 PUSH2 0x5FC DUP5 DUP3 DUP6 ADD PUSH2 0x5C6 JUMP JUMPDEST SWAP2 POP POP SWAP3 SWAP2 POP POP JUMP JUMPDEST PUSH0 DUP2 SWAP1 POP SWAP2 SWAP1 POP JUMP JUMPDEST PUSH2 0x617 DUP2 PUSH2 0x605 JUMP JUMPDEST DUP3 MSTORE POP POP JUMP JUMPDEST PUSH0 PUSH1 0x20 DUP3 ADD SWAP1 POP PUSH2 0x630 PUSH0 DUP4 ADD DUP5 PUSH2 0x60E JUMP JUMPDEST SWAP3 SWAP2 POP POP JUMP JUMPDEST PUSH2 0x63F DUP2 PUSH2 0x59F JUMP JUMPDEST DUP3 MSTORE POP POP JUMP JUMPDEST PUSH0 PUSH1 0x20 DUP3 ADD SWAP1 POP PUSH2 0x658 PUSH0 DUP4 ADD DUP5 PUSH2 0x636 JUMP JUMPDEST SWAP3 SWAP2 POP POP JUMP JUMPDEST PUSH2 0x667 DUP2 PUSH2 0x605 JUMP JUMPDEST DUP2 EQ PUSH2 0x671 JUMPI PUSH0 DUP1 REVERT JUMPDEST POP JUMP JUMPDEST PUSH0 DUP2 CALLDATALOAD SWAP1 POP PUSH2 0x682 DUP2 PUSH2 0x65E JUMP JUMPDEST SWAP3 SWAP2 POP POP JUMP JUMPDEST PUSH0 DUP1 PUSH1 0x40 DUP4 DUP6 SUB SLT ISZERO PUSH2 0x69E JUMPI PUSH2 0x69D PUSH2 0x57C JUMP JUMPDEST JUMPDEST PUSH0 PUSH2 0x6AB DUP6 DUP3 DUP7 ADD PUSH2 0x5C6 JUMP JUMPDEST SWAP3 POP POP PUSH1 0x20 PUSH2 0x6BC DUP6 DUP3 DUP7 ADD PUSH2 0x674 JUMP JUMPDEST SWAP2 POP POP SWAP3 POP SWAP3 SWAP1 POP JUMP JUMPDEST PUSH0 DUP1 PUSH0 DUP1 PUSH1 0x80 DUP6 DUP8 SUB SLT ISZERO PUSH2 0x6DE JUMPI PUSH2 0x6DD PUSH2 0x57C JUMP JUMPDEST JUMPDEST PUSH0 PUSH2 0x6EB DUP8 DUP3 DUP9 ADD PUSH2 0x5C6 JUMP JUMPDEST SWAP5 POP POP PUSH1 0x20 PUSH2 0x6FC DUP8 DUP3 DUP9 ADD PUSH2 0x5C6 JUMP JUMPDEST SWAP4 POP POP PUSH1 0x40 PUSH2 0x70D DUP8 DUP3 DUP9 ADD PUSH2 0x674 JUMP JUMPDEST SWAP3 POP POP PUSH1 0x60 PUSH2 0x71E DUP8 DUP3 DUP9 ADD PUSH2 0x674 JUMP JUMPDEST SWAP2 POP POP SWAP3 SWAP6 SWAP2 SWAP5 POP SWAP3 POP JUMP JUMPDEST PUSH0 DUP2 MLOAD SWAP1 POP PUSH2 0x738 DUP2 PUSH2 0x65E JUMP JUMPDEST SWAP3 SWAP2 POP POP JUMP JUMPDEST PUSH0 PUSH1 0x20 DUP3 DUP5 SUB SLT ISZERO PUSH2 0x753 JUMPI PUSH2 0x752 PUSH2 0x57C JUMP JUMPDEST JUMPDEST PUSH0 PUSH2 0x760 DUP5 DUP3 DUP6 ADD PUSH2 0x72A JUMP JUMPDEST SWAP2 POP POP SWAP3 SWAP2 POP POP JUMP JUMPDEST PUSH0 DUP3 DUP3 MSTORE PUSH1 0x20 DUP3 ADD SWAP1 POP SWAP3 SWAP2 POP POP JUMP JUMPDEST PUSH32 0x4E6F7420746865206F776E657200000000000000000000000000000000000000 PUSH0 DUP3 ADD MSTORE POP JUMP JUMPDEST PUSH0 PUSH2 0x7AD PUSH1 0xD DUP4 PUSH2 0x769 JUMP JUMPDEST SWAP2 POP PUSH2 0x7B8 DUP3 PUSH2 0x779 JUMP JUMPDEST PUSH1 0x20 DUP3 ADD SWAP1 POP SWAP2 SWAP1 POP JUMP JUMPDEST PUSH0 PUSH1 0x20 DUP3 ADD SWAP1 POP DUP2 DUP2 SUB PUSH0 DUP4 ADD MSTORE PUSH2 0x7DA DUP2 PUSH2 0x7A1 JUMP JUMPDEST SWAP1 POP SWAP2 SWAP1 POP JUMP JUMPDEST PUSH0 PUSH1 0x40 DUP3 ADD SWAP1 POP PUSH2 0x7F4 PUSH0 DUP4 ADD DUP6 PUSH2 0x636 JUMP JUMPDEST PUSH2 0x801 PUSH1 0x20 DUP4 ADD DUP5 PUSH2 0x60E JUMP JUMPDEST SWAP4 SWAP3 POP POP POP JUMP JUMPDEST PUSH0 DUP2 ISZERO ISZERO SWAP1 POP SWAP2 SWAP1 POP JUMP JUMPDEST PUSH2 0x81C DUP2 PUSH2 0x808 JUMP JUMPDEST DUP2 EQ PUSH2 0x826 JUMPI PUSH0 DUP1 REVERT JUMPDEST POP JUMP JUMPDEST PUSH0 DUP2 MLOAD SWAP1 POP PUSH2 0x837 DUP2 PUSH2 0x813 JUMP JUMPDEST SWAP3 SWAP2 POP POP JUMP JUMPDEST PUSH0 PUSH1 0x20 DUP3 DUP5 SUB SLT ISZERO PUSH2 0x852 JUMPI PUSH2 0x851 PUSH2 0x57C JUMP JUMPDEST JUMPDEST PUSH0 PUSH2 0x85F DUP5 DUP3 DUP6 ADD PUSH2 0x829 JUMP JUMPDEST SWAP2 POP POP SWAP3 SWAP2 POP POP JUMP JUMPDEST PUSH32 0x416D6F756E74206D757374206265203E20300000000000000000000000000000 PUSH0 DUP3 ADD MSTORE POP JUMP JUMPDEST PUSH0 PUSH2 0x89C PUSH1 0x12 DUP4 PUSH2 0x769 JUMP JUMPDEST SWAP2 POP PUSH2 0x8A7 DUP3 PUSH2 0x868 JUMP JUMPDEST PUSH1 0x20 DUP3 ADD SWAP1 POP SWAP2 SWAP1 POP JUMP JUMPDEST PUSH0 PUSH1 0x20 DUP3 ADD SWAP1 POP DUP2 DUP2 SUB PUSH0 DUP4 ADD MSTORE PUSH2 0x8C9 DUP2 PUSH2 0x890 JUMP JUMPDEST SWAP1 POP SWAP2 SWAP1 POP JUMP JUMPDEST PUSH32 0x436F6E766572742072617465206D757374206265203E20300000000000000000 PUSH0 DUP3 ADD MSTORE POP JUMP JUMPDEST PUSH0 PUSH2 0x904 PUSH1 0x18 DUP4 PUSH2 0x769 JUMP JUMPDEST SWAP2 POP PUSH2 0x90F DUP3 PUSH2 0x8D0 JUMP JUMPDEST PUSH1 0x20 DUP3 ADD SWAP1 POP SWAP2 SWAP1 POP JUMP JUMPDEST PUSH0 PUSH1 0x20 DUP3 ADD SWAP1 POP DUP2 DUP2 SUB PUSH0 DUP4 ADD MSTORE PUSH2 0x931 DUP2 PUSH2 0x8F8 JUMP JUMPDEST SWAP1 POP SWAP2 SWAP1 POP JUMP JUMPDEST PUSH32 0x4E487B7100000000000000000000000000000000000000000000000000000000 PUSH0 MSTORE PUSH1 0x11 PUSH1 0x4 MSTORE PUSH1 0x24 PUSH0 REVERT JUMPDEST PUSH0 PUSH2 0x96F DUP3 PUSH2 0x605 JUMP JUMPDEST SWAP2 POP PUSH2 0x97A DUP4 PUSH2 0x605 JUMP JUMPDEST SWAP3 POP DUP3 DUP3 MUL PUSH2 0x988 DUP2 PUSH2 0x605 JUMP JUMPDEST SWAP2 POP DUP3 DUP3 DIV DUP5 EQ DUP4 ISZERO OR PUSH2 0x99F JUMPI PUSH2 0x99E PUSH2 0x938 JUMP JUMPDEST JUMPDEST POP SWAP3 SWAP2 POP POP JUMP JUMPDEST PUSH32 0x686176656E2774206C6971756964697479000000000000000000000000000000 PUSH0 DUP3 ADD MSTORE POP JUMP JUMPDEST PUSH0 PUSH2 0x9DA PUSH1 0x11 DUP4 PUSH2 0x769 JUMP JUMPDEST SWAP2 POP PUSH2 0x9E5 DUP3 PUSH2 0x9A6 JUMP JUMPDEST PUSH1 0x20 DUP3 ADD SWAP1 POP SWAP2 SWAP1 POP JUMP JUMPDEST PUSH0 PUSH1 0x20 DUP3 ADD SWAP1 POP DUP2 DUP2 SUB PUSH0 DUP4 ADD MSTORE PUSH2 0xA07 DUP2 PUSH2 0x9CE JUMP JUMPDEST SWAP1 POP SWAP2 SWAP1 POP JUMP JUMPDEST PUSH0 PUSH1 0x60 DUP3 ADD SWAP1 POP PUSH2 0xA21 PUSH0 DUP4 ADD DUP7 PUSH2 0x636 JUMP JUMPDEST PUSH2 0xA2E PUSH1 0x20 DUP4 ADD DUP6 PUSH2 0x636 JUMP JUMPDEST PUSH2 0xA3B PUSH1 0x40 DUP4 ADD DUP5 PUSH2 0x60E JUMP JUMPDEST SWAP5 SWAP4 POP POP POP POP JUMP JUMPDEST PUSH32 0x5472616E73666572206F662066726F6D546F6B656E206661696C656400000000 PUSH0 DUP3 ADD MSTORE POP JUMP JUMPDEST PUSH0 PUSH2 0xA77 PUSH1 0x1C DUP4 PUSH2 0x769 JUMP JUMPDEST SWAP2 POP PUSH2 0xA82 DUP3 PUSH2 0xA43 JUMP JUMPDEST PUSH1 0x20 DUP3 ADD SWAP1 POP SWAP2 SWAP1 POP JUMP JUMPDEST PUSH0 PUSH1 0x20 DUP3 ADD SWAP1 POP DUP2 DUP2 SUB PUSH0 DUP4 ADD MSTORE PUSH2 0xAA4 DUP2 PUSH2 0xA6B JUMP JUMPDEST SWAP1 POP SWAP2 SWAP1 POP JUMP JUMPDEST PUSH32 0x5472616E73666572206F6620746F546F6B656E206661696C6564000000000000 PUSH0 DUP3 ADD MSTORE POP JUMP JUMPDEST PUSH0 PUSH2 0xADF PUSH1 0x1A DUP4 PUSH2 0x769 JUMP JUMPDEST SWAP2 POP PUSH2 0xAEA DUP3 PUSH2 0xAAB JUMP JUMPDEST PUSH1 0x20 DUP3 ADD SWAP1 POP SWAP2 SWAP1 POP JUMP JUMPDEST PUSH0 PUSH1 0x20 DUP3 ADD SWAP1 POP DUP2 DUP2 SUB PUSH0 DUP4 ADD MSTORE PUSH2 0xB0C DUP2 PUSH2 0xAD3 JUMP JUMPDEST SWAP1 POP SWAP2 SWAP1 POP JUMP INVALID LOG2 PUSH5 0x6970667358 0x22 SLT KECCAK256 0xAE 0xE4 CALLDATACOPY CALLDATALOAD PC 0xD SWAP16 0xB5 0xDF 0xF7 0xE6 GAS 0xC4 CALLDATASIZE 0xED CREATE 0xA9 NUMBER 0xC0 COINBASE 0xB3 PUSH5 0xAF40FA32DD GAS 0x5C 0xD 0x2A DUP15 PUSH5 0x736F6C6343 STOP ADDMOD EQ STOP CALLER "
				},
				"gasEstimates": {
					"creation": {
						"codeDepositCost": "577800",
						"executionCost": "24876",
						"totalCost": "602676"
					},
					"external": {
						"getTokenBalance(address)": "infinite",
						"owner()": "2505",
						"swap(address,address,uint256,uint256)": "infinite",
						"withdrawToken(address,uint256)": "infinite"
					}
				},
				"methodIdentifiers": {
					"getTokenBalance(address)": "3aecd0e3",
					"owner()": "8da5cb5b",
					"swap(address,address,uint256,uint256)": "fe029156",
					"withdrawToken(address,uint256)": "9e281a98"
				}
			},
			"storageLayout": {
				"storage": [
					{
						"astId": 31,
						"contract": "swap2.sol:SimpleSwap",
						"label": "owner",
						"offset": 0,
						"slot": "0",
						"type": "t_address"
					}
				],
				"types": {
					"t_address": {
						"encoding": "inplace",
						"label": "address",
						"numberOfBytes": "20"
					}
				}
			},
			"userdoc": {
				"kind": "user",
				"methods": {},
				"version": 1
			}
		}
	}
}