{
	"gmonad.sol": {
		"Gmonad": {
			"abi": [
				{
					"inputs": [
						{
							"internalType": "string",
							"name": "_greeting",
							"type": "string"
						}
					],
					"stateMutability": "payable",
					"type": "constructor"
				},
				{
					"anonymous": false,
					"inputs": [
						{
							"indexed": true,
							"internalType": "address",
							"name": "owner",
							"type": "address"
						},
						{
							"indexed": false,
							"internalType": "address",
							"name": "token",
							"type": "address"
						},
						{
							"indexed": false,
							"internalType": "uint256",
							"name": "amount",
							"type": "uint256"
						}
					],
					"name": "Deposited",
					"type": "event"
				},
				{
					"inputs": [],
					"name": "callFee",
					"outputs": [
						{
							"internalType": "uint256",
							"name": "",
							"type": "uint256"
						}
					],
					"stateMutability": "view",
					"type": "function"
				},
				{
					"inputs": [
						{
							"internalType": "address",
							"name": "token",
							"type": "address"
						},
						{
							"internalType": "uint256",
							"name": "amount",
							"type": "uint256"
						}
					],
					"name": "deposit",
					"outputs": [],
					"stateMutability": "nonpayable",
					"type": "function"
				},
				{
					"inputs": [],
					"name": "greeting",
					"outputs": [
						{
							"internalType": "string",
							"name": "",
							"type": "string"
						}
					],
					"stateMutability": "view",
					"type": "function"
				},
				{
					"inputs": [],
					"name": "owner",
					"outputs": [
						{
							"internalType": "address",
							"name": "",
							"type": "address"
						}
					],
					"stateMutability": "view",
					"type": "function"
				},
				{
					"inputs": [
						{
							"internalType": "string",
							"name": "_greeting",
							"type": "string"
						}
					],
					"name": "setGreeting",
					"outputs": [],
					"stateMutability": "payable",
					"type": "function"
				},
				{
					"inputs": [],
					"name": "withdrawFees",
					"outputs": [],
					"stateMutability": "nonpayable",
					"type": "function"
				}
			],
			"devdoc": {
				"kind": "dev",
				"methods": {},
				"version": 1
			},
			"evm": {
				"assembly": "    /* \"gmonad.sol\":328:1522  contract Gmonad { ... */\n  mstore(0x40, 0x80)\n    /* \"gmonad.sol\":433:444  0.001 ether */\n  0x038d7ea4c68000\n    /* \"gmonad.sol\":408:444  uint256 public callFee = 0.001 ether */\n  0x02\n  sstore\n    /* \"gmonad.sol\":554:667  constructor(string memory _greeting) payable {... */\n  mload(0x40)\n  sub(codesize, bytecodeSize)\n  dup1\n  bytecodeSize\n  dup4\n  codecopy\n  dup2\n  dup2\n  add\n  0x40\n  mstore\n  dup2\n  add\n  swap1\n  tag_1\n  swap2\n  swap1\n  tag_2\n  jump\t// in\ntag_1:\n    /* \"gmonad.sol\":621:630  _greeting */\n  dup1\n    /* \"gmonad.sol\":610:618  greeting */\n  0x00\n    /* \"gmonad.sol\":610:630  greeting = _greeting */\n  swap1\n  dup2\n  tag_5\n  swap2\n  swap1\n  tag_6\n  jump\t// in\ntag_5:\n  pop\n    /* \"gmonad.sol\":649:659  msg.sender */\n  caller\n    /* \"gmonad.sol\":641:646  owner */\n  0x01\n  0x00\n    /* \"gmonad.sol\":641:659  owner = msg.sender */\n  0x0100\n  exp\n  dup2\n  sload\n  dup2\n  0xffffffffffffffffffffffffffffffffffffffff\n  mul\n  not\n  and\n  swap1\n  dup4\n  0xffffffffffffffffffffffffffffffffffffffff\n  and\n  mul\n  or\n  swap1\n  sstore\n  pop\n    /* \"gmonad.sol\":554:667  constructor(string memory _greeting) payable {... */\n  pop\n    /* \"gmonad.sol\":328:1522  contract Gmonad { ... */\n  jump(tag_7)\n    /* \"#utility.yul\":7:82   */\ntag_8:\n    /* \"#utility.yul\":40:46   */\n  0x00\n    /* \"#utility.yul\":73:75   */\n  0x40\n    /* \"#utility.yul\":67:76   */\n  mload\n    /* \"#utility.yul\":57:76   */\n  swap1\n  pop\n    /* \"#utility.yul\":7:82   */\n  swap1\n  jump\t// out\n    /* \"#utility.yul\":88:205   */\ntag_9:\n    /* \"#utility.yul\":197:198   */\n  0x00\n    /* \"#utility.yul\":194:195   */\n  dup1\n    /* \"#utility.yul\":187:199   */\n  revert\n    /* \"#utility.yul\":211:328   */\ntag_10:\n    /* \"#utility.yul\":320:321   */\n  0x00\n    /* \"#utility.yul\":317:318   */\n  dup1\n    /* \"#utility.yul\":310:322   */\n  revert\n    /* \"#utility.yul\":334:451   */\ntag_11:\n    /* \"#utility.yul\":443:444   */\n  0x00\n    /* \"#utility.yul\":440:441   */\n  dup1\n    /* \"#utility.yul\":433:445   */\n  revert\n    /* \"#utility.yul\":457:574   */\ntag_12:\n    /* \"#utility.yul\":566:567   */\n  0x00\n    /* \"#utility.yul\":563:564   */\n  dup1\n    /* \"#utility.yul\":556:568   */\n  revert\n    /* \"#utility.yul\":580:682   */\ntag_13:\n    /* \"#utility.yul\":621:627   */\n  0x00\n    /* \"#utility.yul\":672:674   */\n  0x1f\n    /* \"#utility.yul\":668:675   */\n  not\n    /* \"#utility.yul\":663:665   */\n  0x1f\n    /* \"#utility.yul\":656:661   */\n  dup4\n    /* \"#utility.yul\":652:666   */\n  add\n    /* \"#utility.yul\":648:676   */\n  and\n    /* \"#utility.yul\":638:676   */\n  swap1\n  pop\n    /* \"#utility.yul\":580:682   */\n  swap2\n  swap1\n  pop\n  jump\t// out\n    /* \"#utility.yul\":688:868   */\ntag_14:\n    /* \"#utility.yul\":736:813   */\n  0x4e487b7100000000000000000000000000000000000000000000000000000000\n    /* \"#utility.yul\":733:734   */\n  0x00\n    /* \"#utility.yul\":726:814   */\n  mstore\n    /* \"#utility.yul\":833:837   */\n  0x41\n    /* \"#utility.yul\":830:831   */\n  0x04\n    /* \"#utility.yul\":823:838   */\n  mstore\n    /* \"#utility.yul\":857:861   */\n  0x24\n    /* \"#utility.yul\":854:855   */\n  0x00\n    /* \"#utility.yul\":847:862   */\n  revert\n    /* \"#utility.yul\":874:1155   */\ntag_15:\n    /* \"#utility.yul\":957:984   */\n  tag_49\n    /* \"#utility.yul\":979:983   */\n  dup3\n    /* \"#utility.yul\":957:984   */\n  tag_13\n  jump\t// in\ntag_49:\n    /* \"#utility.yul\":949:955   */\n  dup2\n    /* \"#utility.yul\":945:985   */\n  add\n    /* \"#utility.yul\":1087:1093   */\n  dup2\n    /* \"#utility.yul\":1075:1085   */\n  dup2\n    /* \"#utility.yul\":1072:1094   */\n  lt\n    /* \"#utility.yul\":1051:1069   */\n  0xffffffffffffffff\n    /* \"#utility.yul\":1039:1049   */\n  dup3\n    /* \"#utility.yul\":1036:1070   */\n  gt\n    /* \"#utility.yul\":1033:1095   */\n  or\n    /* \"#utility.yul\":1030:1118   */\n  iszero\n  tag_50\n  jumpi\n    /* \"#utility.yul\":1098:1116   */\n  tag_51\n  tag_14\n  jump\t// in\ntag_51:\n    /* \"#utility.yul\":1030:1118   */\ntag_50:\n    /* \"#utility.yul\":1138:1148   */\n  dup1\n    /* \"#utility.yul\":1134:1136   */\n  0x40\n    /* \"#utility.yul\":1127:1149   */\n  mstore\n    /* \"#utility.yul\":917:1155   */\n  pop\n    /* \"#utility.yul\":874:1155   */\n  pop\n  pop\n  jump\t// out\n    /* \"#utility.yul\":1161:1290   */\ntag_16:\n    /* \"#utility.yul\":1195:1201   */\n  0x00\n    /* \"#utility.yul\":1222:1242   */\n  tag_53\n  tag_8\n  jump\t// in\ntag_53:\n    /* \"#utility.yul\":1212:1242   */\n  swap1\n  pop\n    /* \"#utility.yul\":1251:1284   */\n  tag_54\n    /* \"#utility.yul\":1279:1283   */\n  dup3\n    /* \"#utility.yul\":1271:1277   */\n  dup3\n    /* \"#utility.yul\":1251:1284   */\n  tag_15\n  jump\t// in\ntag_54:\n    /* \"#utility.yul\":1161:1290   */\n  swap2\n  swap1\n  pop\n  jump\t// out\n    /* \"#utility.yul\":1296:1604   */\ntag_17:\n    /* \"#utility.yul\":1358:1362   */\n  0x00\n    /* \"#utility.yul\":1448:1466   */\n  0xffffffffffffffff\n    /* \"#utility.yul\":1440:1446   */\n  dup3\n    /* \"#utility.yul\":1437:1467   */\n  gt\n    /* \"#utility.yul\":1434:1490   */\n  iszero\n  tag_56\n  jumpi\n    /* \"#utility.yul\":1470:1488   */\n  tag_57\n  tag_14\n  jump\t// in\ntag_57:\n    /* \"#utility.yul\":1434:1490   */\ntag_56:\n    /* \"#utility.yul\":1508:1537   */\n  tag_58\n    /* \"#utility.yul\":1530:1536   */\n  dup3\n    /* \"#utility.yul\":1508:1537   */\n  tag_13\n  jump\t// in\ntag_58:\n    /* \"#utility.yul\":1500:1537   */\n  swap1\n  pop\n    /* \"#utility.yul\":1592:1596   */\n  0x20\n    /* \"#utility.yul\":1586:1590   */\n  dup2\n    /* \"#utility.yul\":1582:1597   */\n  add\n    /* \"#utility.yul\":1574:1597   */\n  swap1\n  pop\n    /* \"#utility.yul\":1296:1604   */\n  swap2\n  swap1\n  pop\n  jump\t// out\n    /* \"#utility.yul\":1610:1856   */\ntag_18:\n    /* \"#utility.yul\":1691:1692   */\n  0x00\n    /* \"#utility.yul\":1701:1814   */\ntag_60:\n    /* \"#utility.yul\":1715:1721   */\n  dup4\n    /* \"#utility.yul\":1712:1713   */\n  dup2\n    /* \"#utility.yul\":1709:1722   */\n  lt\n    /* \"#utility.yul\":1701:1814   */\n  iszero\n  tag_62\n  jumpi\n    /* \"#utility.yul\":1800:1801   */\n  dup1\n    /* \"#utility.yul\":1795:1798   */\n  dup3\n    /* \"#utility.yul\":1791:1802   */\n  add\n    /* \"#utility.yul\":1785:1803   */\n  mload\n    /* \"#utility.yul\":1781:1782   */\n  dup2\n    /* \"#utility.yul\":1776:1779   */\n  dup5\n    /* \"#utility.yul\":1772:1783   */\n  add\n    /* \"#utility.yul\":1765:1804   */\n  mstore\n    /* \"#utility.yul\":1737:1739   */\n  0x20\n    /* \"#utility.yul\":1734:1735   */\n  dup2\n    /* \"#utility.yul\":1730:1740   */\n  add\n    /* \"#utility.yul\":1725:1740   */\n  swap1\n  pop\n    /* \"#utility.yul\":1701:1814   */\n  jump(tag_60)\ntag_62:\n    /* \"#utility.yul\":1848:1849   */\n  0x00\n    /* \"#utility.yul\":1839:1845   */\n  dup5\n    /* \"#utility.yul\":1834:1837   */\n  dup5\n    /* \"#utility.yul\":1830:1846   */\n  add\n    /* \"#utility.yul\":1823:1850   */\n  mstore\n    /* \"#utility.yul\":1672:1856   */\n  pop\n    /* \"#utility.yul\":1610:1856   */\n  pop\n  pop\n  pop\n  jump\t// out\n    /* \"#utility.yul\":1862:2296   */\ntag_19:\n    /* \"#utility.yul\":1951:1956   */\n  0x00\n    /* \"#utility.yul\":1976:2042   */\n  tag_64\n    /* \"#utility.yul\":1992:2041   */\n  tag_65\n    /* \"#utility.yul\":2034:2040   */\n  dup5\n    /* \"#utility.yul\":1992:2041   */\n  tag_17\n  jump\t// in\ntag_65:\n    /* \"#utility.yul\":1976:2042   */\n  tag_16\n  jump\t// in\ntag_64:\n    /* \"#utility.yul\":1967:2042   */\n  swap1\n  pop\n    /* \"#utility.yul\":2065:2071   */\n  dup3\n    /* \"#utility.yul\":2058:2063   */\n  dup2\n    /* \"#utility.yul\":2051:2072   */\n  mstore\n    /* \"#utility.yul\":2103:2107   */\n  0x20\n    /* \"#utility.yul\":2096:2101   */\n  dup2\n    /* \"#utility.yul\":2092:2108   */\n  add\n    /* \"#utility.yul\":2141:2144   */\n  dup5\n    /* \"#utility.yul\":2132:2138   */\n  dup5\n    /* \"#utility.yul\":2127:2130   */\n  dup5\n    /* \"#utility.yul\":2123:2139   */\n  add\n    /* \"#utility.yul\":2120:2145   */\n  gt\n    /* \"#utility.yul\":2117:2229   */\n  iszero\n  tag_66\n  jumpi\n    /* \"#utility.yul\":2148:2227   */\n  tag_67\n  tag_12\n  jump\t// in\ntag_67:\n    /* \"#utility.yul\":2117:2229   */\ntag_66:\n    /* \"#utility.yul\":2238:2290   */\n  tag_68\n    /* \"#utility.yul\":2283:2289   */\n  dup5\n    /* \"#utility.yul\":2278:2281   */\n  dup3\n    /* \"#utility.yul\":2273:2276   */\n  dup6\n    /* \"#utility.yul\":2238:2290   */\n  tag_18\n  jump\t// in\ntag_68:\n    /* \"#utility.yul\":1957:2296   */\n  pop\n    /* \"#utility.yul\":1862:2296   */\n  swap4\n  swap3\n  pop\n  pop\n  pop\n  jump\t// out\n    /* \"#utility.yul\":2316:2671   */\ntag_20:\n    /* \"#utility.yul\":2383:2388   */\n  0x00\n    /* \"#utility.yul\":2432:2435   */\n  dup3\n    /* \"#utility.yul\":2425:2429   */\n  0x1f\n    /* \"#utility.yul\":2417:2423   */\n  dup4\n    /* \"#utility.yul\":2413:2430   */\n  add\n    /* \"#utility.yul\":2409:2436   */\n  slt\n    /* \"#utility.yul\":2399:2521   */\n  tag_70\n  jumpi\n    /* \"#utility.yul\":2440:2519   */\n  tag_71\n  tag_11\n  jump\t// in\ntag_71:\n    /* \"#utility.yul\":2399:2521   */\ntag_70:\n    /* \"#utility.yul\":2550:2556   */\n  dup2\n    /* \"#utility.yul\":2544:2557   */\n  mload\n    /* \"#utility.yul\":2575:2665   */\n  tag_72\n    /* \"#utility.yul\":2661:2664   */\n  dup5\n    /* \"#utility.yul\":2653:2659   */\n  dup3\n    /* \"#utility.yul\":2646:2650   */\n  0x20\n    /* \"#utility.yul\":2638:2644   */\n  dup7\n    /* \"#utility.yul\":2634:2651   */\n  add\n    /* \"#utility.yul\":2575:2665   */\n  tag_19\n  jump\t// in\ntag_72:\n    /* \"#utility.yul\":2566:2665   */\n  swap2\n  pop\n    /* \"#utility.yul\":2389:2671   */\n  pop\n    /* \"#utility.yul\":2316:2671   */\n  swap3\n  swap2\n  pop\n  pop\n  jump\t// out\n    /* \"#utility.yul\":2677:3201   */\ntag_2:\n    /* \"#utility.yul\":2757:2763   */\n  0x00\n    /* \"#utility.yul\":2806:2808   */\n  0x20\n    /* \"#utility.yul\":2794:2803   */\n  dup3\n    /* \"#utility.yul\":2785:2792   */\n  dup5\n    /* \"#utility.yul\":2781:2804   */\n  sub\n    /* \"#utility.yul\":2777:2809   */\n  slt\n    /* \"#utility.yul\":2774:2893   */\n  iszero\n  tag_74\n  jumpi\n    /* \"#utility.yul\":2812:2891   */\n  tag_75\n  tag_9\n  jump\t// in\ntag_75:\n    /* \"#utility.yul\":2774:2893   */\ntag_74:\n    /* \"#utility.yul\":2953:2954   */\n  0x00\n    /* \"#utility.yul\":2942:2951   */\n  dup3\n    /* \"#utility.yul\":2938:2955   */\n  add\n    /* \"#utility.yul\":2932:2956   */\n  mload\n    /* \"#utility.yul\":2983:3001   */\n  0xffffffffffffffff\n    /* \"#utility.yul\":2975:2981   */\n  dup2\n    /* \"#utility.yul\":2972:3002   */\n  gt\n    /* \"#utility.yul\":2969:3086   */\n  iszero\n  tag_76\n  jumpi\n    /* \"#utility.yul\":3005:3084   */\n  tag_77\n  tag_10\n  jump\t// in\ntag_77:\n    /* \"#utility.yul\":2969:3086   */\ntag_76:\n    /* \"#utility.yul\":3110:3184   */\n  tag_78\n    /* \"#utility.yul\":3176:3183   */\n  dup5\n    /* \"#utility.yul\":3167:3173   */\n  dup3\n    /* \"#utility.yul\":3156:3165   */\n  dup6\n    /* \"#utility.yul\":3152:3174   */\n  add\n    /* \"#utility.yul\":3110:3184   */\n  tag_20\n  jump\t// in\ntag_78:\n    /* \"#utility.yul\":3100:3184   */\n  swap2\n  pop\n    /* \"#utility.yul\":2903:3194   */\n  pop\n    /* \"#utility.yul\":2677:3201   */\n  swap3\n  swap2\n  pop\n  pop\n  jump\t// out\n    /* \"#utility.yul\":3207:3306   */\ntag_21:\n    /* \"#utility.yul\":3259:3265   */\n  0x00\n    /* \"#utility.yul\":3293:3298   */\n  dup2\n    /* \"#utility.yul\":3287:3299   */\n  mload\n    /* \"#utility.yul\":3277:3299   */\n  swap1\n  pop\n    /* \"#utility.yul\":3207:3306   */\n  swap2\n  swap1\n  pop\n  jump\t// out\n    /* \"#utility.yul\":3312:3492   */\ntag_22:\n    /* \"#utility.yul\":3360:3437   */\n  0x4e487b7100000000000000000000000000000000000000000000000000000000\n    /* \"#utility.yul\":3357:3358   */\n  0x00\n    /* \"#utility.yul\":3350:3438   */\n  mstore\n    /* \"#utility.yul\":3457:3461   */\n  0x22\n    /* \"#utility.yul\":3454:3455   */\n  0x04\n    /* \"#utility.yul\":3447:3462   */\n  mstore\n    /* \"#utility.yul\":3481:3485   */\n  0x24\n    /* \"#utility.yul\":3478:3479   */\n  0x00\n    /* \"#utility.yul\":3471:3486   */\n  revert\n    /* \"#utility.yul\":3498:3818   */\ntag_23:\n    /* \"#utility.yul\":3542:3548   */\n  0x00\n    /* \"#utility.yul\":3579:3580   */\n  0x02\n    /* \"#utility.yul\":3573:3577   */\n  dup3\n    /* \"#utility.yul\":3569:3581   */\n  div\n    /* \"#utility.yul\":3559:3581   */\n  swap1\n  pop\n    /* \"#utility.yul\":3626:3627   */\n  0x01\n    /* \"#utility.yul\":3620:3624   */\n  dup3\n    /* \"#utility.yul\":3616:3628   */\n  and\n    /* \"#utility.yul\":3647:3665   */\n  dup1\n    /* \"#utility.yul\":3637:3718   */\n  tag_82\n  jumpi\n    /* \"#utility.yul\":3703:3707   */\n  0x7f\n    /* \"#utility.yul\":3695:3701   */\n  dup3\n    /* \"#utility.yul\":3691:3708   */\n  and\n    /* \"#utility.yul\":3681:3708   */\n  swap2\n  pop\n    /* \"#utility.yul\":3637:3718   */\ntag_82:\n    /* \"#utility.yul\":3765:3767   */\n  0x20\n    /* \"#utility.yul\":3757:3763   */\n  dup3\n    /* \"#utility.yul\":3754:3768   */\n  lt\n    /* \"#utility.yul\":3734:3752   */\n  dup2\n    /* \"#utility.yul\":3731:3769   */\n  sub\n    /* \"#utility.yul\":3728:3812   */\n  tag_83\n  jumpi\n    /* \"#utility.yul\":3784:3802   */\n  tag_84\n  tag_22\n  jump\t// in\ntag_84:\n    /* \"#utility.yul\":3728:3812   */\ntag_83:\n    /* \"#utility.yul\":3549:3818   */\n  pop\n    /* \"#utility.yul\":3498:3818   */\n  swap2\n  swap1\n  pop\n  jump\t// out\n    /* \"#utility.yul\":3824:3965   */\ntag_24:\n    /* \"#utility.yul\":3873:3877   */\n  0x00\n    /* \"#utility.yul\":3896:3899   */\n  dup2\n    /* \"#utility.yul\":3888:3899   */\n  swap1\n  pop\n    /* \"#utility.yul\":3919:3922   */\n  dup2\n    /* \"#utility.yul\":3916:3917   */\n  0x00\n    /* \"#utility.yul\":3909:3923   */\n  mstore\n    /* \"#utility.yul\":3953:3957   */\n  0x20\n    /* \"#utility.yul\":3950:3951   */\n  0x00\n    /* \"#utility.yul\":3940:3958   */\n  keccak256\n    /* \"#utility.yul\":3932:3958   */\n  swap1\n  pop\n    /* \"#utility.yul\":3824:3965   */\n  swap2\n  swap1\n  pop\n  jump\t// out\n    /* \"#utility.yul\":3971:4064   */\ntag_25:\n    /* \"#utility.yul\":4008:4014   */\n  0x00\n    /* \"#utility.yul\":4055:4057   */\n  0x20\n    /* \"#utility.yul\":4050:4052   */\n  0x1f\n    /* \"#utility.yul\":4043:4048   */\n  dup4\n    /* \"#utility.yul\":4039:4053   */\n  add\n    /* \"#utility.yul\":4035:4058   */\n  div\n    /* \"#utility.yul\":4025:4058   */\n  swap1\n  pop\n    /* \"#utility.yul\":3971:4064   */\n  swap2\n  swap1\n  pop\n  jump\t// out\n    /* \"#utility.yul\":4070:4177   */\ntag_26:\n    /* \"#utility.yul\":4114:4122   */\n  0x00\n    /* \"#utility.yul\":4164:4169   */\n  dup3\n    /* \"#utility.yul\":4158:4162   */\n  dup3\n    /* \"#utility.yul\":4154:4170   */\n  shl\n    /* \"#utility.yul\":4133:4170   */\n  swap1\n  pop\n    /* \"#utility.yul\":4070:4177   */\n  swap3\n  swap2\n  pop\n  pop\n  jump\t// out\n    /* \"#utility.yul\":4183:4576   */\ntag_27:\n    /* \"#utility.yul\":4252:4258   */\n  0x00\n    /* \"#utility.yul\":4302:4303   */\n  0x08\n    /* \"#utility.yul\":4290:4300   */\n  dup4\n    /* \"#utility.yul\":4286:4304   */\n  mul\n    /* \"#utility.yul\":4325:4422   */\n  tag_89\n    /* \"#utility.yul\":4355:4421   */\n  0xffffffffffffffffffffffffffffffffffffffffffffffffffffffffffffffff\n    /* \"#utility.yul\":4344:4353   */\n  dup3\n    /* \"#utility.yul\":4325:4422   */\n  tag_26\n  jump\t// in\ntag_89:\n    /* \"#utility.yul\":4443:4482   */\n  tag_90\n    /* \"#utility.yul\":4473:4481   */\n  dup7\n    /* \"#utility.yul\":4462:4471   */\n  dup4\n    /* \"#utility.yul\":4443:4482   */\n  tag_26\n  jump\t// in\ntag_90:\n    /* \"#utility.yul\":4431:4482   */\n  swap6\n  pop\n    /* \"#utility.yul\":4515:4519   */\n  dup1\n    /* \"#utility.yul\":4511:4520   */\n  not\n    /* \"#utility.yul\":4504:4509   */\n  dup5\n    /* \"#utility.yul\":4500:4521   */\n  and\n    /* \"#utility.yul\":4491:4521   */\n  swap4\n  pop\n    /* \"#utility.yul\":4564:4568   */\n  dup1\n    /* \"#utility.yul\":4554:4562   */\n  dup7\n    /* \"#utility.yul\":4550:4569   */\n  and\n    /* \"#utility.yul\":4543:4548   */\n  dup5\n    /* \"#utility.yul\":4540:4570   */\n  or\n    /* \"#utility.yul\":4530:4570   */\n  swap3\n  pop\n    /* \"#utility.yul\":4259:4576   */\n  pop\n  pop\n    /* \"#utility.yul\":4183:4576   */\n  swap4\n  swap3\n  pop\n  pop\n  pop\n  jump\t// out\n    /* \"#utility.yul\":4582:4659   */\ntag_28:\n    /* \"#utility.yul\":4619:4626   */\n  0x00\n    /* \"#utility.yul\":4648:4653   */\n  dup2\n    /* \"#utility.yul\":4637:4653   */\n  swap1\n  pop\n    /* \"#utility.yul\":4582:4659   */\n  swap2\n  swap1\n  pop\n  jump\t// out\n    /* \"#utility.yul\":4665:4725   */\ntag_29:\n    /* \"#utility.yul\":4693:4696   */\n  0x00\n    /* \"#utility.yul\":4714:4719   */\n  dup2\n    /* \"#utility.yul\":4707:4719   */\n  swap1\n  pop\n    /* \"#utility.yul\":4665:4725   */\n  swap2\n  swap1\n  pop\n  jump\t// out\n    /* \"#utility.yul\":4731:4873   */\ntag_30:\n    /* \"#utility.yul\":4781:4790   */\n  0x00\n    /* \"#utility.yul\":4814:4867   */\n  tag_94\n    /* \"#utility.yul\":4832:4866   */\n  tag_95\n    /* \"#utility.yul\":4841:4865   */\n  tag_96\n    /* \"#utility.yul\":4859:4864   */\n  dup5\n    /* \"#utility.yul\":4841:4865   */\n  tag_28\n  jump\t// in\ntag_96:\n    /* \"#utility.yul\":4832:4866   */\n  tag_29\n  jump\t// in\ntag_95:\n    /* \"#utility.yul\":4814:4867   */\n  tag_28\n  jump\t// in\ntag_94:\n    /* \"#utility.yul\":4801:4867   */\n  swap1\n  pop\n    /* \"#utility.yul\":4731:4873   */\n  swap2\n  swap1\n  pop\n  jump\t// out\n    /* \"#utility.yul\":4879:4954   */\ntag_31:\n    /* \"#utility.yul\":4922:4925   */\n  0x00\n    /* \"#utility.yul\":4943:4948   */\n  dup2\n    /* \"#utility.yul\":4936:4948   */\n  swap1\n  pop\n    /* \"#utility.yul\":4879:4954   */\n  swap2\n  swap1\n  pop\n  jump\t// out\n    /* \"#utility.yul\":4960:5229   */\ntag_32:\n    /* \"#utility.yul\":5070:5109   */\n  tag_99\n    /* \"#utility.yul\":5101:5108   */\n  dup4\n    /* \"#utility.yul\":5070:5109   */\n  tag_30\n  jump\t// in\ntag_99:\n    /* \"#utility.yul\":5131:5222   */\n  tag_100\n    /* \"#utility.yul\":5180:5221   */\n  tag_101\n    /* \"#utility.yul\":5204:5220   */\n  dup3\n    /* \"#utility.yul\":5180:5221   */\n  tag_31\n  jump\t// in\ntag_101:\n    /* \"#utility.yul\":5172:5178   */\n  dup5\n    /* \"#utility.yul\":5165:5169   */\n  dup5\n    /* \"#utility.yul\":5159:5170   */\n  sload\n    /* \"#utility.yul\":5131:5222   */\n  tag_27\n  jump\t// in\ntag_100:\n    /* \"#utility.yul\":5125:5129   */\n  dup3\n    /* \"#utility.yul\":5118:5223   */\n  sstore\n    /* \"#utility.yul\":5036:5229   */\n  pop\n    /* \"#utility.yul\":4960:5229   */\n  pop\n  pop\n  pop\n  jump\t// out\n    /* \"#utility.yul\":5235:5308   */\ntag_33:\n    /* \"#utility.yul\":5280:5283   */\n  0x00\n    /* \"#utility.yul\":5235:5308   */\n  swap1\n  jump\t// out\n    /* \"#utility.yul\":5314:5503   */\ntag_34:\n    /* \"#utility.yul\":5391:5423   */\n  tag_104\n  tag_33\n  jump\t// in\ntag_104:\n    /* \"#utility.yul\":5432:5497   */\n  tag_105\n    /* \"#utility.yul\":5490:5496   */\n  dup2\n    /* \"#utility.yul\":5482:5488   */\n  dup5\n    /* \"#utility.yul\":5476:5480   */\n  dup5\n    /* \"#utility.yul\":5432:5497   */\n  tag_32\n  jump\t// in\ntag_105:\n    /* \"#utility.yul\":5367:5503   */\n  pop\n    /* \"#utility.yul\":5314:5503   */\n  pop\n  pop\n  jump\t// out\n    /* \"#utility.yul\":5509:5695   */\ntag_35:\n    /* \"#utility.yul\":5569:5689   */\ntag_107:\n    /* \"#utility.yul\":5586:5589   */\n  dup2\n    /* \"#utility.yul\":5579:5584   */\n  dup2\n    /* \"#utility.yul\":5576:5590   */\n  lt\n    /* \"#utility.yul\":5569:5689   */\n  iszero\n  tag_109\n  jumpi\n    /* \"#utility.yul\":5640:5679   */\n  tag_110\n    /* \"#utility.yul\":5677:5678   */\n  0x00\n    /* \"#utility.yul\":5670:5675   */\n  dup3\n    /* \"#utility.yul\":5640:5679   */\n  tag_34\n  jump\t// in\ntag_110:\n    /* \"#utility.yul\":5613:5614   */\n  0x01\n    /* \"#utility.yul\":5606:5611   */\n  dup2\n    /* \"#utility.yul\":5602:5615   */\n  add\n    /* \"#utility.yul\":5593:5615   */\n  swap1\n  pop\n    /* \"#utility.yul\":5569:5689   */\n  jump(tag_107)\ntag_109:\n    /* \"#utility.yul\":5509:5695   */\n  pop\n  pop\n  jump\t// out\n    /* \"#utility.yul\":5701:6244   */\ntag_36:\n    /* \"#utility.yul\":5802:5804   */\n  0x1f\n    /* \"#utility.yul\":5797:5800   */\n  dup3\n    /* \"#utility.yul\":5794:5805   */\n  gt\n    /* \"#utility.yul\":5791:6237   */\n  iszero\n  tag_112\n  jumpi\n    /* \"#utility.yul\":5836:5874   */\n  tag_113\n    /* \"#utility.yul\":5868:5873   */\n  dup2\n    /* \"#utility.yul\":5836:5874   */\n  tag_24\n  jump\t// in\ntag_113:\n    /* \"#utility.yul\":5920:5949   */\n  tag_114\n    /* \"#utility.yul\":5938:5948   */\n  dup5\n    /* \"#utility.yul\":5920:5949   */\n  tag_25\n  jump\t// in\ntag_114:\n    /* \"#utility.yul\":5910:5918   */\n  dup2\n    /* \"#utility.yul\":5906:5950   */\n  add\n    /* \"#utility.yul\":6103:6105   */\n  0x20\n    /* \"#utility.yul\":6091:6101   */\n  dup6\n    /* \"#utility.yul\":6088:6106   */\n  lt\n    /* \"#utility.yul\":6085:6134   */\n  iszero\n  tag_115\n  jumpi\n    /* \"#utility.yul\":6124:6132   */\n  dup2\n    /* \"#utility.yul\":6109:6132   */\n  swap1\n  pop\n    /* \"#utility.yul\":6085:6134   */\ntag_115:\n    /* \"#utility.yul\":6147:6227   */\n  tag_116\n    /* \"#utility.yul\":6203:6225   */\n  tag_117\n    /* \"#utility.yul\":6221:6224   */\n  dup6\n    /* \"#utility.yul\":6203:6225   */\n  tag_25\n  jump\t// in\ntag_117:\n    /* \"#utility.yul\":6193:6201   */\n  dup4\n    /* \"#utility.yul\":6189:6226   */\n  add\n    /* \"#utility.yul\":6176:6187   */\n  dup3\n    /* \"#utility.yul\":6147:6227   */\n  tag_35\n  jump\t// in\ntag_116:\n    /* \"#utility.yul\":5806:6237   */\n  pop\n  pop\n    /* \"#utility.yul\":5791:6237   */\ntag_112:\n    /* \"#utility.yul\":5701:6244   */\n  pop\n  pop\n  pop\n  jump\t// out\n    /* \"#utility.yul\":6250:6367   */\ntag_37:\n    /* \"#utility.yul\":6304:6312   */\n  0x00\n    /* \"#utility.yul\":6354:6359   */\n  dup3\n    /* \"#utility.yul\":6348:6352   */\n  dup3\n    /* \"#utility.yul\":6344:6360   */\n  shr\n    /* \"#utility.yul\":6323:6360   */\n  swap1\n  pop\n    /* \"#utility.yul\":6250:6367   */\n  swap3\n  swap2\n  pop\n  pop\n  jump\t// out\n    /* \"#utility.yul\":6373:6542   */\ntag_38:\n    /* \"#utility.yul\":6417:6423   */\n  0x00\n    /* \"#utility.yul\":6450:6501   */\n  tag_120\n    /* \"#utility.yul\":6498:6499   */\n  0x00\n    /* \"#utility.yul\":6494:6500   */\n  not\n    /* \"#utility.yul\":6486:6491   */\n  dup5\n    /* \"#utility.yul\":6483:6484   */\n  0x08\n    /* \"#utility.yul\":6479:6492   */\n  mul\n    /* \"#utility.yul\":6450:6501   */\n  tag_37\n  jump\t// in\ntag_120:\n    /* \"#utility.yul\":6446:6502   */\n  not\n    /* \"#utility.yul\":6531:6535   */\n  dup1\n    /* \"#utility.yul\":6525:6529   */\n  dup4\n    /* \"#utility.yul\":6521:6536   */\n  and\n    /* \"#utility.yul\":6511:6536   */\n  swap2\n  pop\n    /* \"#utility.yul\":6424:6542   */\n  pop\n    /* \"#utility.yul\":6373:6542   */\n  swap3\n  swap2\n  pop\n  pop\n  jump\t// out\n    /* \"#utility.yul\":6547:6842   */\ntag_39:\n    /* \"#utility.yul\":6623:6627   */\n  0x00\n    /* \"#utility.yul\":6769:6798   */\n  tag_122\n    /* \"#utility.yul\":6794:6797   */\n  dup4\n    /* \"#utility.yul\":6788:6792   */\n  dup4\n    /* \"#utility.yul\":6769:6798   */\n  tag_38\n  jump\t// in\ntag_122:\n    /* \"#utility.yul\":6761:6798   */\n  swap2\n  pop\n    /* \"#utility.yul\":6831:6834   */\n  dup3\n    /* \"#utility.yul\":6828:6829   */\n  0x02\n    /* \"#utility.yul\":6824:6835   */\n  mul\n    /* \"#utility.yul\":6818:6822   */\n  dup3\n    /* \"#utility.yul\":6815:6836   */\n  or\n    /* \"#utility.yul\":6807:6836   */\n  swap1\n  pop\n    /* \"#utility.yul\":6547:6842   */\n  swap3\n  swap2\n  pop\n  pop\n  jump\t// out\n    /* \"#utility.yul\":6847:8242   */\ntag_6:\n    /* \"#utility.yul\":6964:7001   */\n  tag_124\n    /* \"#utility.yul\":6997:7000   */\n  dup3\n    /* \"#utility.yul\":6964:7001   */\n  tag_21\n  jump\t// in\ntag_124:\n    /* \"#utility.yul\":7066:7084   */\n  0xffffffffffffffff\n    /* \"#utility.yul\":7058:7064   */\n  dup2\n    /* \"#utility.yul\":7055:7085   */\n  gt\n    /* \"#utility.yul\":7052:7108   */\n  iszero\n  tag_125\n  jumpi\n    /* \"#utility.yul\":7088:7106   */\n  tag_126\n  tag_14\n  jump\t// in\ntag_126:\n    /* \"#utility.yul\":7052:7108   */\ntag_125:\n    /* \"#utility.yul\":7132:7170   */\n  tag_127\n    /* \"#utility.yul\":7164:7168   */\n  dup3\n    /* \"#utility.yul\":7158:7169   */\n  sload\n    /* \"#utility.yul\":7132:7170   */\n  tag_23\n  jump\t// in\ntag_127:\n    /* \"#utility.yul\":7217:7284   */\n  tag_128\n    /* \"#utility.yul\":7277:7283   */\n  dup3\n    /* \"#utility.yul\":7269:7275   */\n  dup3\n    /* \"#utility.yul\":7263:7267   */\n  dup6\n    /* \"#utility.yul\":7217:7284   */\n  tag_36\n  jump\t// in\ntag_128:\n    /* \"#utility.yul\":7311:7312   */\n  0x00\n    /* \"#utility.yul\":7335:7339   */\n  0x20\n    /* \"#utility.yul\":7322:7339   */\n  swap1\n  pop\n    /* \"#utility.yul\":7367:7369   */\n  0x1f\n    /* \"#utility.yul\":7359:7365   */\n  dup4\n    /* \"#utility.yul\":7356:7370   */\n  gt\n    /* \"#utility.yul\":7384:7385   */\n  0x01\n    /* \"#utility.yul\":7379:7997   */\n  dup2\n  eq\n  tag_130\n  jumpi\n    /* \"#utility.yul\":8041:8042   */\n  0x00\n    /* \"#utility.yul\":8058:8064   */\n  dup5\n    /* \"#utility.yul\":8055:8132   */\n  iszero\n  tag_131\n  jumpi\n    /* \"#utility.yul\":8107:8116   */\n  dup3\n    /* \"#utility.yul\":8102:8105   */\n  dup8\n    /* \"#utility.yul\":8098:8117   */\n  add\n    /* \"#utility.yul\":8092:8118   */\n  mload\n    /* \"#utility.yul\":8083:8118   */\n  swap1\n  pop\n    /* \"#utility.yul\":8055:8132   */\ntag_131:\n    /* \"#utility.yul\":8158:8225   */\n  tag_132\n    /* \"#utility.yul\":8218:8224   */\n  dup6\n    /* \"#utility.yul\":8211:8216   */\n  dup3\n    /* \"#utility.yul\":8158:8225   */\n  tag_39\n  jump\t// in\ntag_132:\n    /* \"#utility.yul\":8152:8156   */\n  dup7\n    /* \"#utility.yul\":8145:8226   */\n  sstore\n    /* \"#utility.yul\":8014:8236   */\n  pop\n    /* \"#utility.yul\":7349:8236   */\n  jump(tag_129)\n    /* \"#utility.yul\":7379:7997   */\ntag_130:\n    /* \"#utility.yul\":7431:7435   */\n  0x1f\n    /* \"#utility.yul\":7427:7436   */\n  not\n    /* \"#utility.yul\":7419:7425   */\n  dup5\n    /* \"#utility.yul\":7415:7437   */\n  and\n    /* \"#utility.yul\":7465:7502   */\n  tag_133\n    /* \"#utility.yul\":7497:7501   */\n  dup7\n    /* \"#utility.yul\":7465:7502   */\n  tag_24\n  jump\t// in\ntag_133:\n    /* \"#utility.yul\":7524:7525   */\n  0x00\n    /* \"#utility.yul\":7538:7746   */\ntag_134:\n    /* \"#utility.yul\":7552:7559   */\n  dup3\n    /* \"#utility.yul\":7549:7550   */\n  dup2\n    /* \"#utility.yul\":7546:7560   */\n  lt\n    /* \"#utility.yul\":7538:7746   */\n  iszero\n  tag_136\n  jumpi\n    /* \"#utility.yul\":7631:7640   */\n  dup5\n    /* \"#utility.yul\":7626:7629   */\n  dup10\n    /* \"#utility.yul\":7622:7641   */\n  add\n    /* \"#utility.yul\":7616:7642   */\n  mload\n    /* \"#utility.yul\":7608:7614   */\n  dup3\n    /* \"#utility.yul\":7601:7643   */\n  sstore\n    /* \"#utility.yul\":7682:7683   */\n  0x01\n    /* \"#utility.yul\":7674:7680   */\n  dup3\n    /* \"#utility.yul\":7670:7684   */\n  add\n    /* \"#utility.yul\":7660:7684   */\n  swap2\n  pop\n    /* \"#utility.yul\":7729:7731   */\n  0x20\n    /* \"#utility.yul\":7718:7727   */\n  dup6\n    /* \"#utility.yul\":7714:7732   */\n  add\n    /* \"#utility.yul\":7701:7732   */\n  swap5\n  pop\n    /* \"#utility.yul\":7575:7579   */\n  0x20\n    /* \"#utility.yul\":7572:7573   */\n  dup2\n    /* \"#utility.yul\":7568:7580   */\n  add\n    /* \"#utility.yul\":7563:7580   */\n  swap1\n  pop\n    /* \"#utility.yul\":7538:7746   */\n  jump(tag_134)\ntag_136:\n    /* \"#utility.yul\":7774:7780   */\n  dup7\n    /* \"#utility.yul\":7765:7772   */\n  dup4\n    /* \"#utility.yul\":7762:7781   */\n  lt\n    /* \"#utility.yul\":7759:7938   */\n  iszero\n  tag_137\n  jumpi\n    /* \"#utility.yul\":7832:7841   */\n  dup5\n    /* \"#utility.yul\":7827:7830   */\n  dup10\n    /* \"#utility.yul\":7823:7842   */\n  add\n    /* \"#utility.yul\":7817:7843   */\n  mload\n    /* \"#utility.yul\":7875:7923   */\n  tag_138\n    /* \"#utility.yul\":7917:7921   */\n  0x1f\n    /* \"#utility.yul\":7909:7915   */\n  dup10\n    /* \"#utility.yul\":7905:7922   */\n  and\n    /* \"#utility.yul\":7894:7903   */\n  dup3\n    /* \"#utility.yul\":7875:7923   */\n  tag_38\n  jump\t// in\ntag_138:\n    /* \"#utility.yul\":7867:7873   */\n  dup4\n    /* \"#utility.yul\":7860:7924   */\n  sstore\n    /* \"#utility.yul\":7782:7938   */\n  pop\n    /* \"#utility.yul\":7759:7938   */\ntag_137:\n    /* \"#utility.yul\":7984:7985   */\n  0x01\n    /* \"#utility.yul\":7980:7981   */\n  0x02\n    /* \"#utility.yul\":7972:7978   */\n  dup9\n    /* \"#utility.yul\":7968:7982   */\n  mul\n    /* \"#utility.yul\":7964:7986   */\n  add\n    /* \"#utility.yul\":7958:7962   */\n  dup9\n    /* \"#utility.yul\":7951:7987   */\n  sstore\n    /* \"#utility.yul\":7386:7997   */\n  pop\n  pop\n  pop\n    /* \"#utility.yul\":7349:8236   */\ntag_129:\n  pop\n    /* \"#utility.yul\":6939:8242   */\n  pop\n  pop\n  pop\n    /* \"#utility.yul\":6847:8242   */\n  pop\n  pop\n  jump\t// out\n    /* \"gmonad.sol\":328:1522  contract Gmonad { ... */\ntag_7:\n  dataSize(sub_0)\n  dup1\n  dataOffset(sub_0)\n  0x00\n  codecopy\n  0x00\n  return\nstop\n\nsub_0: assembly {\n        /* \"gmonad.sol\":328:1522  contract Gmonad { ... */\n      mstore(0x40, 0x80)\n      jumpi(tag_1, lt(calldatasize, 0x04))\n      shr(0xe0, calldataload(0x00))\n      dup1\n      0x476343ee\n      eq\n      tag_2\n      jumpi\n      dup1\n      0x47e7ef24\n      eq\n      tag_3\n      jumpi\n      dup1\n      0x8da5cb5b\n      eq\n      tag_4\n      jumpi\n      dup1\n      0x90321e1a\n      eq\n      tag_5\n      jumpi\n      dup1\n      0xa4136862\n      eq\n      tag_6\n      jumpi\n      dup1\n      0xef690cc0\n      eq\n      tag_7\n      jumpi\n    tag_1:\n      0x00\n      dup1\n      revert\n        /* \"gmonad.sol\":1054:1205  function withdrawFees() external {... */\n    tag_2:\n      callvalue\n      dup1\n      iszero\n      tag_8\n      jumpi\n      0x00\n      dup1\n      revert\n    tag_8:\n      pop\n      tag_9\n      tag_10\n      jump\t// in\n    tag_9:\n      stop\n        /* \"gmonad.sol\":1261:1517  function deposit(address token, uint amount) external onlyOwner {... */\n    tag_3:\n      callvalue\n      dup1\n      iszero\n      tag_11\n      jumpi\n      0x00\n      dup1\n      revert\n    tag_11:\n      pop\n      tag_12\n      0x04\n      dup1\n      calldatasize\n      sub\n      dup2\n      add\n      swap1\n      tag_13\n      swap2\n      swap1\n      tag_14\n      jump\t// in\n    tag_13:\n      tag_15\n      jump\t// in\n    tag_12:\n      stop\n        /* \"gmonad.sol\":381:401  address public owner */\n    tag_4:\n      callvalue\n      dup1\n      iszero\n      tag_16\n      jumpi\n      0x00\n      dup1\n      revert\n    tag_16:\n      pop\n      tag_17\n      tag_18\n      jump\t// in\n    tag_17:\n      mload(0x40)\n      tag_19\n      swap2\n      swap1\n      tag_20\n      jump\t// in\n    tag_19:\n      mload(0x40)\n      dup1\n      swap2\n      sub\n      swap1\n      return\n        /* \"gmonad.sol\":408:444  uint256 public callFee = 0.001 ether */\n    tag_5:\n      callvalue\n      dup1\n      iszero\n      tag_21\n      jumpi\n      0x00\n      dup1\n      revert\n    tag_21:\n      pop\n      tag_22\n      tag_23\n      jump\t// in\n    tag_22:\n      mload(0x40)\n      tag_24\n      swap2\n      swap1\n      tag_25\n      jump\t// in\n    tag_24:\n      mload(0x40)\n      dup1\n      swap2\n      sub\n      swap1\n      return\n        /* \"gmonad.sol\":835:1004  function setGreeting(string calldata _greeting) external payable {... */\n    tag_6:\n      tag_26\n      0x04\n      dup1\n      calldatasize\n      sub\n      dup2\n      add\n      swap1\n      tag_27\n      swap2\n      swap1\n      tag_28\n      jump\t// in\n    tag_27:\n      tag_29\n      jump\t// in\n    tag_26:\n      stop\n        /* \"gmonad.sol\":352:374  string public greeting */\n    tag_7:\n      callvalue\n      dup1\n      iszero\n      tag_30\n      jumpi\n      0x00\n      dup1\n      revert\n    tag_30:\n      pop\n      tag_31\n      tag_32\n      jump\t// in\n    tag_31:\n      mload(0x40)\n      tag_33\n      swap2\n      swap1\n      tag_34\n      jump\t// in\n    tag_33:\n      mload(0x40)\n      dup1\n      swap2\n      sub\n      swap1\n      return\n        /* \"gmonad.sol\":1054:1205  function withdrawFees() external {... */\n    tag_10:\n        /* \"gmonad.sol\":1120:1125  owner */\n      0x01\n      0x00\n      swap1\n      sload\n      swap1\n      0x0100\n      exp\n      swap1\n      div\n      0xffffffffffffffffffffffffffffffffffffffff\n      and\n        /* \"gmonad.sol\":1106:1125  msg.sender == owner */\n      0xffffffffffffffffffffffffffffffffffffffff\n      and\n        /* \"gmonad.sol\":1106:1116  msg.sender */\n      caller\n        /* \"gmonad.sol\":1106:1125  msg.sender == owner */\n      0xffffffffffffffffffffffffffffffffffffffff\n      and\n      eq\n        /* \"gmonad.sol\":1098:1140  require(msg.sender == owner, \"Only owner\") */\n      tag_36\n      jumpi\n      mload(0x40)\n      0x08c379a000000000000000000000000000000000000000000000000000000000\n      dup2\n      mstore\n      0x04\n      add\n      tag_37\n      swap1\n      tag_38\n      jump\t// in\n    tag_37:\n      mload(0x40)\n      dup1\n      swap2\n      sub\n      swap1\n      revert\n    tag_36:\n        /* \"gmonad.sol\":1159:1164  owner */\n      0x01\n      0x00\n      swap1\n      sload\n      swap1\n      0x0100\n      exp\n      swap1\n      div\n      0xffffffffffffffffffffffffffffffffffffffff\n      and\n        /* \"gmonad.sol\":1151:1174  payable(owner).transfer */\n      0xffffffffffffffffffffffffffffffffffffffff\n      and\n        /* \"gmonad.sol\":1151:1197  payable(owner).transfer(address(this).balance) */\n      0x08fc\n        /* \"gmonad.sol\":1175:1196  address(this).balance */\n      selfbalance\n        /* \"gmonad.sol\":1151:1197  payable(owner).transfer(address(this).balance) */\n      swap1\n      dup2\n      iszero\n      mul\n      swap1\n      mload(0x40)\n      0x00\n      mload(0x40)\n      dup1\n      dup4\n      sub\n      dup2\n      dup6\n      dup9\n      dup9\n      call\n      swap4\n      pop\n      pop\n      pop\n      pop\n      iszero\n      dup1\n      iszero\n      tag_40\n      jumpi\n      returndatasize\n      0x00\n      dup1\n      returndatacopy\n      revert(0x00, returndatasize)\n    tag_40:\n      pop\n        /* \"gmonad.sol\":1054:1205  function withdrawFees() external {... */\n      jump\t// out\n        /* \"gmonad.sol\":1261:1517  function deposit(address token, uint amount) external onlyOwner {... */\n    tag_15:\n        /* \"gmonad.sol\":731:736  owner */\n      0x01\n      0x00\n      swap1\n      sload\n      swap1\n      0x0100\n      exp\n      swap1\n      div\n      0xffffffffffffffffffffffffffffffffffffffff\n      and\n        /* \"gmonad.sol\":717:736  msg.sender == owner */\n      0xffffffffffffffffffffffffffffffffffffffff\n      and\n        /* \"gmonad.sol\":717:727  msg.sender */\n      caller\n        /* \"gmonad.sol\":717:736  msg.sender == owner */\n      0xffffffffffffffffffffffffffffffffffffffff\n      and\n      eq\n        /* \"gmonad.sol\":709:751  require(msg.sender == owner, \"Only owner\") */\n      tag_42\n      jumpi\n      mload(0x40)\n      0x08c379a000000000000000000000000000000000000000000000000000000000\n      dup2\n      mstore\n      0x04\n      add\n      tag_43\n      swap1\n      tag_38\n      jump\t// in\n    tag_43:\n      mload(0x40)\n      dup1\n      swap2\n      sub\n      swap1\n      revert\n    tag_42:\n        /* \"gmonad.sol\":1336:1348  bool success */\n      0x00\n        /* \"gmonad.sol\":1358:1363  token */\n      dup3\n        /* \"gmonad.sol\":1351:1377  IERC20(token).transferFrom */\n      0xffffffffffffffffffffffffffffffffffffffff\n      and\n      0x23b872dd\n        /* \"gmonad.sol\":1378:1388  msg.sender */\n      caller\n        /* \"gmonad.sol\":1398:1402  this */\n      address\n        /* \"gmonad.sol\":1405:1411  amount */\n      dup6\n        /* \"gmonad.sol\":1351:1412  IERC20(token).transferFrom(msg.sender, address(this), amount) */\n      mload(0x40)\n      dup5\n      0xffffffff\n      and\n      0xe0\n      shl\n      dup2\n      mstore\n      0x04\n      add\n      tag_45\n      swap4\n      swap3\n      swap2\n      swap1\n      tag_46\n      jump\t// in\n    tag_45:\n      0x20\n      mload(0x40)\n      dup1\n      dup4\n      sub\n      dup2\n      0x00\n      dup8\n      gas\n      call\n      iszero\n      dup1\n      iszero\n      tag_48\n      jumpi\n      returndatasize\n      0x00\n      dup1\n      returndatacopy\n      revert(0x00, returndatasize)\n    tag_48:\n      pop\n      pop\n      pop\n      pop\n      mload(0x40)\n      returndatasize\n      not(0x1f)\n      0x1f\n      dup3\n      add\n      and\n      dup3\n      add\n      dup1\n      0x40\n      mstore\n      pop\n      dup2\n      add\n      swap1\n      tag_49\n      swap2\n      swap1\n      tag_50\n      jump\t// in\n    tag_49:\n        /* \"gmonad.sol\":1336:1412  bool success = IERC20(token).transferFrom(msg.sender, address(this), amount) */\n      swap1\n      pop\n        /* \"gmonad.sol\":1431:1438  success */\n      dup1\n        /* \"gmonad.sol\":1423:1457  require(success, \"Deposit failed\") */\n      tag_51\n      jumpi\n      mload(0x40)\n      0x08c379a000000000000000000000000000000000000000000000000000000000\n      dup2\n      mstore\n      0x04\n      add\n      tag_52\n      swap1\n      tag_53\n      jump\t// in\n    tag_52:\n      mload(0x40)\n      dup1\n      swap2\n      sub\n      swap1\n      revert\n    tag_51:\n        /* \"gmonad.sol\":1483:1493  msg.sender */\n      caller\n        /* \"gmonad.sol\":1473:1509  Deposited(msg.sender, token, amount) */\n      0xffffffffffffffffffffffffffffffffffffffff\n      and\n      0x8752a472e571a816aea92eec8dae9baf628e840f4929fbcc2d155e6233ff68a7\n        /* \"gmonad.sol\":1495:1500  token */\n      dup5\n        /* \"gmonad.sol\":1502:1508  amount */\n      dup5\n        /* \"gmonad.sol\":1473:1509  Deposited(msg.sender, token, amount) */\n      mload(0x40)\n      tag_54\n      swap3\n      swap2\n      swap1\n      tag_55\n      jump\t// in\n    tag_54:\n      mload(0x40)\n      dup1\n      swap2\n      sub\n      swap1\n      log2\n        /* \"gmonad.sol\":1325:1517  {... */\n      pop\n        /* \"gmonad.sol\":1261:1517  function deposit(address token, uint amount) external onlyOwner {... */\n      pop\n      pop\n      jump\t// out\n        /* \"gmonad.sol\":381:401  address public owner */\n    tag_18:\n      0x01\n      0x00\n      swap1\n      sload\n      swap1\n      0x0100\n      exp\n      swap1\n      div\n      0xffffffffffffffffffffffffffffffffffffffff\n      and\n      dup2\n      jump\t// out\n        /* \"gmonad.sol\":408:444  uint256 public callFee = 0.001 ether */\n    tag_23:\n      sload(0x02)\n      dup2\n      jump\t// out\n        /* \"gmonad.sol\":835:1004  function setGreeting(string calldata _greeting) external payable {... */\n    tag_29:\n        /* \"gmonad.sol\":932:939  callFee */\n      sload(0x02)\n        /* \"gmonad.sol\":919:928  msg.value */\n      callvalue\n        /* \"gmonad.sol\":919:939  msg.value >= callFee */\n      lt\n      iszero\n        /* \"gmonad.sol\":911:965  require(msg.value >= callFee, \"Insufficient fee sent\") */\n      tag_57\n      jumpi\n      mload(0x40)\n      0x08c379a000000000000000000000000000000000000000000000000000000000\n      dup2\n      mstore\n      0x04\n      add\n      tag_58\n      swap1\n      tag_59\n      jump\t// in\n    tag_58:\n      mload(0x40)\n      dup1\n      swap2\n      sub\n      swap1\n      revert\n    tag_57:\n        /* \"gmonad.sol\":987:996  _greeting */\n      dup2\n      dup2\n        /* \"gmonad.sol\":976:984  greeting */\n      0x00\n        /* \"gmonad.sol\":976:996  greeting = _greeting */\n      swap2\n      dup3\n      tag_60\n      swap3\n      swap2\n      swap1\n      tag_61\n      jump\t// in\n    tag_60:\n      pop\n        /* \"gmonad.sol\":835:1004  function setGreeting(string calldata _greeting) external payable {... */\n      pop\n      pop\n      jump\t// out\n        /* \"gmonad.sol\":352:374  string public greeting */\n    tag_32:\n      0x00\n      dup1\n      sload\n      tag_62\n      swap1\n      tag_63\n      jump\t// in\n    tag_62:\n      dup1\n      0x1f\n      add\n      0x20\n      dup1\n      swap2\n      div\n      mul\n      0x20\n      add\n      mload(0x40)\n      swap1\n      dup2\n      add\n      0x40\n      mstore\n      dup1\n      swap3\n      swap2\n      swap1\n      dup2\n      dup2\n      mstore\n      0x20\n      add\n      dup3\n      dup1\n      sload\n      tag_64\n      swap1\n      tag_63\n      jump\t// in\n    tag_64:\n      dup1\n      iszero\n      tag_65\n      jumpi\n      dup1\n      0x1f\n      lt\n      tag_66\n      jumpi\n      0x0100\n      dup1\n      dup4\n      sload\n      div\n      mul\n      dup4\n      mstore\n      swap2\n      0x20\n      add\n      swap2\n      jump(tag_65)\n    tag_66:\n      dup3\n      add\n      swap2\n      swap1\n      0x00\n      mstore\n      keccak256(0x00, 0x20)\n      swap1\n    tag_67:\n      dup2\n      sload\n      dup2\n      mstore\n      swap1\n      0x01\n      add\n      swap1\n      0x20\n      add\n      dup1\n      dup4\n      gt\n      tag_67\n      jumpi\n      dup3\n      swap1\n      sub\n      0x1f\n      and\n      dup3\n      add\n      swap2\n    tag_65:\n      pop\n      pop\n      pop\n      pop\n      pop\n      dup2\n      jump\t// out\n        /* \"#utility.yul\":88:205   */\n    tag_69:\n        /* \"#utility.yul\":197:198   */\n      0x00\n        /* \"#utility.yul\":194:195   */\n      dup1\n        /* \"#utility.yul\":187:199   */\n      revert\n        /* \"#utility.yul\":211:328   */\n    tag_70:\n        /* \"#utility.yul\":320:321   */\n      0x00\n        /* \"#utility.yul\":317:318   */\n      dup1\n        /* \"#utility.yul\":310:322   */\n      revert\n        /* \"#utility.yul\":334:460   */\n    tag_71:\n        /* \"#utility.yul\":371:378   */\n      0x00\n        /* \"#utility.yul\":411:453   */\n      0xffffffffffffffffffffffffffffffffffffffff\n        /* \"#utility.yul\":404:409   */\n      dup3\n        /* \"#utility.yul\":400:454   */\n      and\n        /* \"#utility.yul\":389:454   */\n      swap1\n      pop\n        /* \"#utility.yul\":334:460   */\n      swap2\n      swap1\n      pop\n      jump\t// out\n        /* \"#utility.yul\":466:562   */\n    tag_72:\n        /* \"#utility.yul\":503:510   */\n      0x00\n        /* \"#utility.yul\":532:556   */\n      tag_122\n        /* \"#utility.yul\":550:555   */\n      dup3\n        /* \"#utility.yul\":532:556   */\n      tag_71\n      jump\t// in\n    tag_122:\n        /* \"#utility.yul\":521:556   */\n      swap1\n      pop\n        /* \"#utility.yul\":466:562   */\n      swap2\n      swap1\n      pop\n      jump\t// out\n        /* \"#utility.yul\":568:690   */\n    tag_73:\n        /* \"#utility.yul\":641:665   */\n      tag_124\n        /* \"#utility.yul\":659:664   */\n      dup2\n        /* \"#utility.yul\":641:665   */\n      tag_72\n      jump\t// in\n    tag_124:\n        /* \"#utility.yul\":634:639   */\n      dup2\n        /* \"#utility.yul\":631:666   */\n      eq\n        /* \"#utility.yul\":621:684   */\n      tag_125\n      jumpi\n        /* \"#utility.yul\":680:681   */\n      0x00\n        /* \"#utility.yul\":677:678   */\n      dup1\n        /* \"#utility.yul\":670:682   */\n      revert\n        /* \"#utility.yul\":621:684   */\n    tag_125:\n        /* \"#utility.yul\":568:690   */\n      pop\n      jump\t// out\n        /* \"#utility.yul\":696:835   */\n    tag_74:\n        /* \"#utility.yul\":742:747   */\n      0x00\n        /* \"#utility.yul\":780:786   */\n      dup2\n        /* \"#utility.yul\":767:787   */\n      calldataload\n        /* \"#utility.yul\":758:787   */\n      swap1\n      pop\n        /* \"#utility.yul\":796:829   */\n      tag_127\n        /* \"#utility.yul\":823:828   */\n      dup2\n        /* \"#utility.yul\":796:829   */\n      tag_73\n      jump\t// in\n    tag_127:\n        /* \"#utility.yul\":696:835   */\n      swap3\n      swap2\n      pop\n      pop\n      jump\t// out\n        /* \"#utility.yul\":841:918   */\n    tag_75:\n        /* \"#utility.yul\":878:885   */\n      0x00\n        /* \"#utility.yul\":907:912   */\n      dup2\n        /* \"#utility.yul\":896:912   */\n      swap1\n      pop\n        /* \"#utility.yul\":841:918   */\n      swap2\n      swap1\n      pop\n      jump\t// out\n        /* \"#utility.yul\":924:1046   */\n    tag_76:\n        /* \"#utility.yul\":997:1021   */\n      tag_130\n        /* \"#utility.yul\":1015:1020   */\n      dup2\n        /* \"#utility.yul\":997:1021   */\n      tag_75\n      jump\t// in\n    tag_130:\n        /* \"#utility.yul\":990:995   */\n      dup2\n        /* \"#utility.yul\":987:1022   */\n      eq\n        /* \"#utility.yul\":977:1040   */\n      tag_131\n      jumpi\n        /* \"#utility.yul\":1036:1037   */\n      0x00\n        /* \"#utility.yul\":1033:1034   */\n      dup1\n        /* \"#utility.yul\":1026:1038   */\n      revert\n        /* \"#utility.yul\":977:1040   */\n    tag_131:\n        /* \"#utility.yul\":924:1046   */\n      pop\n      jump\t// out\n        /* \"#utility.yul\":1052:1191   */\n    tag_77:\n        /* \"#utility.yul\":1098:1103   */\n      0x00\n        /* \"#utility.yul\":1136:1142   */\n      dup2\n        /* \"#utility.yul\":1123:1143   */\n      calldataload\n        /* \"#utility.yul\":1114:1143   */\n      swap1\n      pop\n        /* \"#utility.yul\":1152:1185   */\n      tag_133\n        /* \"#utility.yul\":1179:1184   */\n      dup2\n        /* \"#utility.yul\":1152:1185   */\n      tag_76\n      jump\t// in\n    tag_133:\n        /* \"#utility.yul\":1052:1191   */\n      swap3\n      swap2\n      pop\n      pop\n      jump\t// out\n        /* \"#utility.yul\":1197:1671   */\n    tag_14:\n        /* \"#utility.yul\":1265:1271   */\n      0x00\n        /* \"#utility.yul\":1273:1279   */\n      dup1\n        /* \"#utility.yul\":1322:1324   */\n      0x40\n        /* \"#utility.yul\":1310:1319   */\n      dup4\n        /* \"#utility.yul\":1301:1308   */\n      dup6\n        /* \"#utility.yul\":1297:1320   */\n      sub\n        /* \"#utility.yul\":1293:1325   */\n      slt\n        /* \"#utility.yul\":1290:1409   */\n      iszero\n      tag_135\n      jumpi\n        /* \"#utility.yul\":1328:1407   */\n      tag_136\n      tag_69\n      jump\t// in\n    tag_136:\n        /* \"#utility.yul\":1290:1409   */\n    tag_135:\n        /* \"#utility.yul\":1448:1449   */\n      0x00\n        /* \"#utility.yul\":1473:1526   */\n      tag_137\n        /* \"#utility.yul\":1518:1525   */\n      dup6\n        /* \"#utility.yul\":1509:1515   */\n      dup3\n        /* \"#utility.yul\":1498:1507   */\n      dup7\n        /* \"#utility.yul\":1494:1516   */\n      add\n        /* \"#utility.yul\":1473:1526   */\n      tag_74\n      jump\t// in\n    tag_137:\n        /* \"#utility.yul\":1463:1526   */\n      swap3\n      pop\n        /* \"#utility.yul\":1419:1536   */\n      pop\n        /* \"#utility.yul\":1575:1577   */\n      0x20\n        /* \"#utility.yul\":1601:1654   */\n      tag_138\n        /* \"#utility.yul\":1646:1653   */\n      dup6\n        /* \"#utility.yul\":1637:1643   */\n      dup3\n        /* \"#utility.yul\":1626:1635   */\n      dup7\n        /* \"#utility.yul\":1622:1644   */\n      add\n        /* \"#utility.yul\":1601:1654   */\n      tag_77\n      jump\t// in\n    tag_138:\n        /* \"#utility.yul\":1591:1654   */\n      swap2\n      pop\n        /* \"#utility.yul\":1546:1664   */\n      pop\n        /* \"#utility.yul\":1197:1671   */\n      swap3\n      pop\n      swap3\n      swap1\n      pop\n      jump\t// out\n        /* \"#utility.yul\":1677:1795   */\n    tag_78:\n        /* \"#utility.yul\":1764:1788   */\n      tag_140\n        /* \"#utility.yul\":1782:1787   */\n      dup2\n        /* \"#utility.yul\":1764:1788   */\n      tag_72\n      jump\t// in\n    tag_140:\n        /* \"#utility.yul\":1759:1762   */\n      dup3\n        /* \"#utility.yul\":1752:1789   */\n      mstore\n        /* \"#utility.yul\":1677:1795   */\n      pop\n      pop\n      jump\t// out\n        /* \"#utility.yul\":1801:2023   */\n    tag_20:\n        /* \"#utility.yul\":1894:1898   */\n      0x00\n        /* \"#utility.yul\":1932:1934   */\n      0x20\n        /* \"#utility.yul\":1921:1930   */\n      dup3\n        /* \"#utility.yul\":1917:1935   */\n      add\n        /* \"#utility.yul\":1909:1935   */\n      swap1\n      pop\n        /* \"#utility.yul\":1945:2016   */\n      tag_142\n        /* \"#utility.yul\":2013:2014   */\n      0x00\n        /* \"#utility.yul\":2002:2011   */\n      dup4\n        /* \"#utility.yul\":1998:2015   */\n      add\n        /* \"#utility.yul\":1989:1995   */\n      dup5\n        /* \"#utility.yul\":1945:2016   */\n      tag_78\n      jump\t// in\n    tag_142:\n        /* \"#utility.yul\":1801:2023   */\n      swap3\n      swap2\n      pop\n      pop\n      jump\t// out\n        /* \"#utility.yul\":2029:2147   */\n    tag_79:\n        /* \"#utility.yul\":2116:2140   */\n      tag_144\n        /* \"#utility.yul\":2134:2139   */\n      dup2\n        /* \"#utility.yul\":2116:2140   */\n      tag_75\n      jump\t// in\n    tag_144:\n        /* \"#utility.yul\":2111:2114   */\n      dup3\n        /* \"#utility.yul\":2104:2141   */\n      mstore\n        /* \"#utility.yul\":2029:2147   */\n      pop\n      pop\n      jump\t// out\n        /* \"#utility.yul\":2153:2375   */\n    tag_25:\n        /* \"#utility.yul\":2246:2250   */\n      0x00\n        /* \"#utility.yul\":2284:2286   */\n      0x20\n        /* \"#utility.yul\":2273:2282   */\n      dup3\n        /* \"#utility.yul\":2269:2287   */\n      add\n        /* \"#utility.yul\":2261:2287   */\n      swap1\n      pop\n        /* \"#utility.yul\":2297:2368   */\n      tag_146\n        /* \"#utility.yul\":2365:2366   */\n      0x00\n        /* \"#utility.yul\":2354:2363   */\n      dup4\n        /* \"#utility.yul\":2350:2367   */\n      add\n        /* \"#utility.yul\":2341:2347   */\n      dup5\n        /* \"#utility.yul\":2297:2368   */\n      tag_79\n      jump\t// in\n    tag_146:\n        /* \"#utility.yul\":2153:2375   */\n      swap3\n      swap2\n      pop\n      pop\n      jump\t// out\n        /* \"#utility.yul\":2381:2498   */\n    tag_80:\n        /* \"#utility.yul\":2490:2491   */\n      0x00\n        /* \"#utility.yul\":2487:2488   */\n      dup1\n        /* \"#utility.yul\":2480:2492   */\n      revert\n        /* \"#utility.yul\":2504:2621   */\n    tag_81:\n        /* \"#utility.yul\":2613:2614   */\n      0x00\n        /* \"#utility.yul\":2610:2611   */\n      dup1\n        /* \"#utility.yul\":2603:2615   */\n      revert\n        /* \"#utility.yul\":2627:2744   */\n    tag_82:\n        /* \"#utility.yul\":2736:2737   */\n      0x00\n        /* \"#utility.yul\":2733:2734   */\n      dup1\n        /* \"#utility.yul\":2726:2738   */\n      revert\n        /* \"#utility.yul\":2764:3317   */\n    tag_83:\n        /* \"#utility.yul\":2822:2830   */\n      0x00\n        /* \"#utility.yul\":2832:2838   */\n      dup1\n        /* \"#utility.yul\":2882:2885   */\n      dup4\n        /* \"#utility.yul\":2875:2879   */\n      0x1f\n        /* \"#utility.yul\":2867:2873   */\n      dup5\n        /* \"#utility.yul\":2863:2880   */\n      add\n        /* \"#utility.yul\":2859:2886   */\n      slt\n        /* \"#utility.yul\":2849:2971   */\n      tag_151\n      jumpi\n        /* \"#utility.yul\":2890:2969   */\n      tag_152\n      tag_80\n      jump\t// in\n    tag_152:\n        /* \"#utility.yul\":2849:2971   */\n    tag_151:\n        /* \"#utility.yul\":3003:3009   */\n      dup3\n        /* \"#utility.yul\":2990:3010   */\n      calldataload\n        /* \"#utility.yul\":2980:3010   */\n      swap1\n      pop\n        /* \"#utility.yul\":3033:3051   */\n      0xffffffffffffffff\n        /* \"#utility.yul\":3025:3031   */\n      dup2\n        /* \"#utility.yul\":3022:3052   */\n      gt\n        /* \"#utility.yul\":3019:3136   */\n      iszero\n      tag_153\n      jumpi\n        /* \"#utility.yul\":3055:3134   */\n      tag_154\n      tag_81\n      jump\t// in\n    tag_154:\n        /* \"#utility.yul\":3019:3136   */\n    tag_153:\n        /* \"#utility.yul\":3169:3173   */\n      0x20\n        /* \"#utility.yul\":3161:3167   */\n      dup4\n        /* \"#utility.yul\":3157:3174   */\n      add\n        /* \"#utility.yul\":3145:3174   */\n      swap2\n      pop\n        /* \"#utility.yul\":3223:3226   */\n      dup4\n        /* \"#utility.yul\":3215:3219   */\n      0x01\n        /* \"#utility.yul\":3207:3213   */\n      dup3\n        /* \"#utility.yul\":3203:3220   */\n      mul\n        /* \"#utility.yul\":3193:3201   */\n      dup4\n        /* \"#utility.yul\":3189:3221   */\n      add\n        /* \"#utility.yul\":3186:3227   */\n      gt\n        /* \"#utility.yul\":3183:3311   */\n      iszero\n      tag_155\n      jumpi\n        /* \"#utility.yul\":3230:3309   */\n      tag_156\n      tag_82\n      jump\t// in\n    tag_156:\n        /* \"#utility.yul\":3183:3311   */\n    tag_155:\n        /* \"#utility.yul\":2764:3317   */\n      swap3\n      pop\n      swap3\n      swap1\n      pop\n      jump\t// out\n        /* \"#utility.yul\":3323:3852   */\n    tag_28:\n        /* \"#utility.yul\":3394:3400   */\n      0x00\n        /* \"#utility.yul\":3402:3408   */\n      dup1\n        /* \"#utility.yul\":3451:3453   */\n      0x20\n        /* \"#utility.yul\":3439:3448   */\n      dup4\n        /* \"#utility.yul\":3430:3437   */\n      dup6\n        /* \"#utility.yul\":3426:3449   */\n      sub\n        /* \"#utility.yul\":3422:3454   */\n      slt\n        /* \"#utility.yul\":3419:3538   */\n      iszero\n      tag_158\n      jumpi\n        /* \"#utility.yul\":3457:3536   */\n      tag_159\n      tag_69\n      jump\t// in\n    tag_159:\n        /* \"#utility.yul\":3419:3538   */\n    tag_158:\n        /* \"#utility.yul\":3605:3606   */\n      0x00\n        /* \"#utility.yul\":3594:3603   */\n      dup4\n        /* \"#utility.yul\":3590:3607   */\n      add\n        /* \"#utility.yul\":3577:3608   */\n      calldataload\n        /* \"#utility.yul\":3635:3653   */\n      0xffffffffffffffff\n        /* \"#utility.yul\":3627:3633   */\n      dup2\n        /* \"#utility.yul\":3624:3654   */\n      gt\n        /* \"#utility.yul\":3621:3738   */\n      iszero\n      tag_160\n      jumpi\n        /* \"#utility.yul\":3657:3736   */\n      tag_161\n      tag_70\n      jump\t// in\n    tag_161:\n        /* \"#utility.yul\":3621:3738   */\n    tag_160:\n        /* \"#utility.yul\":3770:3835   */\n      tag_162\n        /* \"#utility.yul\":3827:3834   */\n      dup6\n        /* \"#utility.yul\":3818:3824   */\n      dup3\n        /* \"#utility.yul\":3807:3816   */\n      dup7\n        /* \"#utility.yul\":3803:3825   */\n      add\n        /* \"#utility.yul\":3770:3835   */\n      tag_83\n      jump\t// in\n    tag_162:\n        /* \"#utility.yul\":3752:3835   */\n      swap3\n      pop\n      swap3\n      pop\n        /* \"#utility.yul\":3548:3845   */\n      pop\n        /* \"#utility.yul\":3323:3852   */\n      swap3\n      pop\n      swap3\n      swap1\n      pop\n      jump\t// out\n        /* \"#utility.yul\":3858:3957   */\n    tag_84:\n        /* \"#utility.yul\":3910:3916   */\n      0x00\n        /* \"#utility.yul\":3944:3949   */\n      dup2\n        /* \"#utility.yul\":3938:3950   */\n      mload\n        /* \"#utility.yul\":3928:3950   */\n      swap1\n      pop\n        /* \"#utility.yul\":3858:3957   */\n      swap2\n      swap1\n      pop\n      jump\t// out\n        /* \"#utility.yul\":3963:4132   */\n    tag_85:\n        /* \"#utility.yul\":4047:4058   */\n      0x00\n        /* \"#utility.yul\":4081:4087   */\n      dup3\n        /* \"#utility.yul\":4076:4079   */\n      dup3\n        /* \"#utility.yul\":4069:4088   */\n      mstore\n        /* \"#utility.yul\":4121:4125   */\n      0x20\n        /* \"#utility.yul\":4116:4119   */\n      dup3\n        /* \"#utility.yul\":4112:4126   */\n      add\n        /* \"#utility.yul\":4097:4126   */\n      swap1\n      pop\n        /* \"#utility.yul\":3963:4132   */\n      swap3\n      swap2\n      pop\n      pop\n      jump\t// out\n        /* \"#utility.yul\":4138:4384   */\n    tag_86:\n        /* \"#utility.yul\":4219:4220   */\n      0x00\n        /* \"#utility.yul\":4229:4342   */\n    tag_166:\n        /* \"#utility.yul\":4243:4249   */\n      dup4\n        /* \"#utility.yul\":4240:4241   */\n      dup2\n        /* \"#utility.yul\":4237:4250   */\n      lt\n        /* \"#utility.yul\":4229:4342   */\n      iszero\n      tag_168\n      jumpi\n        /* \"#utility.yul\":4328:4329   */\n      dup1\n        /* \"#utility.yul\":4323:4326   */\n      dup3\n        /* \"#utility.yul\":4319:4330   */\n      add\n        /* \"#utility.yul\":4313:4331   */\n      mload\n        /* \"#utility.yul\":4309:4310   */\n      dup2\n        /* \"#utility.yul\":4304:4307   */\n      dup5\n        /* \"#utility.yul\":4300:4311   */\n      add\n        /* \"#utility.yul\":4293:4332   */\n      mstore\n        /* \"#utility.yul\":4265:4267   */\n      0x20\n        /* \"#utility.yul\":4262:4263   */\n      dup2\n        /* \"#utility.yul\":4258:4268   */\n      add\n        /* \"#utility.yul\":4253:4268   */\n      swap1\n      pop\n        /* \"#utility.yul\":4229:4342   */\n      jump(tag_166)\n    tag_168:\n        /* \"#utility.yul\":4376:4377   */\n      0x00\n        /* \"#utility.yul\":4367:4373   */\n      dup5\n        /* \"#utility.yul\":4362:4365   */\n      dup5\n        /* \"#utility.yul\":4358:4374   */\n      add\n        /* \"#utility.yul\":4351:4378   */\n      mstore\n        /* \"#utility.yul\":4200:4384   */\n      pop\n        /* \"#utility.yul\":4138:4384   */\n      pop\n      pop\n      pop\n      jump\t// out\n        /* \"#utility.yul\":4390:4492   */\n    tag_87:\n        /* \"#utility.yul\":4431:4437   */\n      0x00\n        /* \"#utility.yul\":4482:4484   */\n      0x1f\n        /* \"#utility.yul\":4478:4485   */\n      not\n        /* \"#utility.yul\":4473:4475   */\n      0x1f\n        /* \"#utility.yul\":4466:4471   */\n      dup4\n        /* \"#utility.yul\":4462:4476   */\n      add\n        /* \"#utility.yul\":4458:4486   */\n      and\n        /* \"#utility.yul\":4448:4486   */\n      swap1\n      pop\n        /* \"#utility.yul\":4390:4492   */\n      swap2\n      swap1\n      pop\n      jump\t// out\n        /* \"#utility.yul\":4498:4875   */\n    tag_88:\n        /* \"#utility.yul\":4586:4589   */\n      0x00\n        /* \"#utility.yul\":4614:4653   */\n      tag_171\n        /* \"#utility.yul\":4647:4652   */\n      dup3\n        /* \"#utility.yul\":4614:4653   */\n      tag_84\n      jump\t// in\n    tag_171:\n        /* \"#utility.yul\":4669:4740   */\n      tag_172\n        /* \"#utility.yul\":4733:4739   */\n      dup2\n        /* \"#utility.yul\":4728:4731   */\n      dup6\n        /* \"#utility.yul\":4669:4740   */\n      tag_85\n      jump\t// in\n    tag_172:\n        /* \"#utility.yul\":4662:4740   */\n      swap4\n      pop\n        /* \"#utility.yul\":4749:4814   */\n      tag_173\n        /* \"#utility.yul\":4807:4813   */\n      dup2\n        /* \"#utility.yul\":4802:4805   */\n      dup6\n        /* \"#utility.yul\":4795:4799   */\n      0x20\n        /* \"#utility.yul\":4788:4793   */\n      dup7\n        /* \"#utility.yul\":4784:4800   */\n      add\n        /* \"#utility.yul\":4749:4814   */\n      tag_86\n      jump\t// in\n    tag_173:\n        /* \"#utility.yul\":4839:4868   */\n      tag_174\n        /* \"#utility.yul\":4861:4867   */\n      dup2\n        /* \"#utility.yul\":4839:4868   */\n      tag_87\n      jump\t// in\n    tag_174:\n        /* \"#utility.yul\":4834:4837   */\n      dup5\n        /* \"#utility.yul\":4830:4869   */\n      add\n        /* \"#utility.yul\":4823:4869   */\n      swap2\n      pop\n        /* \"#utility.yul\":4590:4875   */\n      pop\n        /* \"#utility.yul\":4498:4875   */\n      swap3\n      swap2\n      pop\n      pop\n      jump\t// out\n        /* \"#utility.yul\":4881:5194   */\n    tag_34:\n        /* \"#utility.yul\":4994:4998   */\n      0x00\n        /* \"#utility.yul\":5032:5034   */\n      0x20\n        /* \"#utility.yul\":5021:5030   */\n      dup3\n        /* \"#utility.yul\":5017:5035   */\n      add\n        /* \"#utility.yul\":5009:5035   */\n      swap1\n      pop\n        /* \"#utility.yul\":5081:5090   */\n      dup2\n        /* \"#utility.yul\":5075:5079   */\n      dup2\n        /* \"#utility.yul\":5071:5091   */\n      sub\n        /* \"#utility.yul\":5067:5068   */\n      0x00\n        /* \"#utility.yul\":5056:5065   */\n      dup4\n        /* \"#utility.yul\":5052:5069   */\n      add\n        /* \"#utility.yul\":5045:5092   */\n      mstore\n        /* \"#utility.yul\":5109:5187   */\n      tag_176\n        /* \"#utility.yul\":5182:5186   */\n      dup2\n        /* \"#utility.yul\":5173:5179   */\n      dup5\n        /* \"#utility.yul\":5109:5187   */\n      tag_88\n      jump\t// in\n    tag_176:\n        /* \"#utility.yul\":5101:5187   */\n      swap1\n      pop\n        /* \"#utility.yul\":4881:5194   */\n      swap3\n      swap2\n      pop\n      pop\n      jump\t// out\n        /* \"#utility.yul\":5200:5360   */\n    tag_89:\n        /* \"#utility.yul\":5340:5352   */\n      0x4f6e6c79206f776e657200000000000000000000000000000000000000000000\n        /* \"#utility.yul\":5336:5337   */\n      0x00\n        /* \"#utility.yul\":5328:5334   */\n      dup3\n        /* \"#utility.yul\":5324:5338   */\n      add\n        /* \"#utility.yul\":5317:5353   */\n      mstore\n        /* \"#utility.yul\":5200:5360   */\n      pop\n      jump\t// out\n        /* \"#utility.yul\":5366:5732   */\n    tag_90:\n        /* \"#utility.yul\":5508:5511   */\n      0x00\n        /* \"#utility.yul\":5529:5596   */\n      tag_179\n        /* \"#utility.yul\":5593:5595   */\n      0x0a\n        /* \"#utility.yul\":5588:5591   */\n      dup4\n        /* \"#utility.yul\":5529:5596   */\n      tag_85\n      jump\t// in\n    tag_179:\n        /* \"#utility.yul\":5522:5596   */\n      swap2\n      pop\n        /* \"#utility.yul\":5605:5698   */\n      tag_180\n        /* \"#utility.yul\":5694:5697   */\n      dup3\n        /* \"#utility.yul\":5605:5698   */\n      tag_89\n      jump\t// in\n    tag_180:\n        /* \"#utility.yul\":5723:5725   */\n      0x20\n        /* \"#utility.yul\":5718:5721   */\n      dup3\n        /* \"#utility.yul\":5714:5726   */\n      add\n        /* \"#utility.yul\":5707:5726   */\n      swap1\n      pop\n        /* \"#utility.yul\":5366:5732   */\n      swap2\n      swap1\n      pop\n      jump\t// out\n        /* \"#utility.yul\":5738:6157   */\n    tag_38:\n        /* \"#utility.yul\":5904:5908   */\n      0x00\n        /* \"#utility.yul\":5942:5944   */\n      0x20\n        /* \"#utility.yul\":5931:5940   */\n      dup3\n        /* \"#utility.yul\":5927:5945   */\n      add\n        /* \"#utility.yul\":5919:5945   */\n      swap1\n      pop\n        /* \"#utility.yul\":5991:6000   */\n      dup2\n        /* \"#utility.yul\":5985:5989   */\n      dup2\n        /* \"#utility.yul\":5981:6001   */\n      sub\n        /* \"#utility.yul\":5977:5978   */\n      0x00\n        /* \"#utility.yul\":5966:5975   */\n      dup4\n        /* \"#utility.yul\":5962:5979   */\n      add\n        /* \"#utility.yul\":5955:6002   */\n      mstore\n        /* \"#utility.yul\":6019:6150   */\n      tag_182\n        /* \"#utility.yul\":6145:6149   */\n      dup2\n        /* \"#utility.yul\":6019:6150   */\n      tag_90\n      jump\t// in\n    tag_182:\n        /* \"#utility.yul\":6011:6150   */\n      swap1\n      pop\n        /* \"#utility.yul\":5738:6157   */\n      swap2\n      swap1\n      pop\n      jump\t// out\n        /* \"#utility.yul\":6163:6605   */\n    tag_46:\n        /* \"#utility.yul\":6312:6316   */\n      0x00\n        /* \"#utility.yul\":6350:6352   */\n      0x60\n        /* \"#utility.yul\":6339:6348   */\n      dup3\n        /* \"#utility.yul\":6335:6353   */\n      add\n        /* \"#utility.yul\":6327:6353   */\n      swap1\n      pop\n        /* \"#utility.yul\":6363:6434   */\n      tag_184\n        /* \"#utility.yul\":6431:6432   */\n      0x00\n        /* \"#utility.yul\":6420:6429   */\n      dup4\n        /* \"#utility.yul\":6416:6433   */\n      add\n        /* \"#utility.yul\":6407:6413   */\n      dup7\n        /* \"#utility.yul\":6363:6434   */\n      tag_78\n      jump\t// in\n    tag_184:\n        /* \"#utility.yul\":6444:6516   */\n      tag_185\n        /* \"#utility.yul\":6512:6514   */\n      0x20\n        /* \"#utility.yul\":6501:6510   */\n      dup4\n        /* \"#utility.yul\":6497:6515   */\n      add\n        /* \"#utility.yul\":6488:6494   */\n      dup6\n        /* \"#utility.yul\":6444:6516   */\n      tag_78\n      jump\t// in\n    tag_185:\n        /* \"#utility.yul\":6526:6598   */\n      tag_186\n        /* \"#utility.yul\":6594:6596   */\n      0x40\n        /* \"#utility.yul\":6583:6592   */\n      dup4\n        /* \"#utility.yul\":6579:6597   */\n      add\n        /* \"#utility.yul\":6570:6576   */\n      dup5\n        /* \"#utility.yul\":6526:6598   */\n      tag_79\n      jump\t// in\n    tag_186:\n        /* \"#utility.yul\":6163:6605   */\n      swap5\n      swap4\n      pop\n      pop\n      pop\n      pop\n      jump\t// out\n        /* \"#utility.yul\":6611:6701   */\n    tag_91:\n        /* \"#utility.yul\":6645:6652   */\n      0x00\n        /* \"#utility.yul\":6688:6693   */\n      dup2\n        /* \"#utility.yul\":6681:6694   */\n      iszero\n        /* \"#utility.yul\":6674:6695   */\n      iszero\n        /* \"#utility.yul\":6663:6695   */\n      swap1\n      pop\n        /* \"#utility.yul\":6611:6701   */\n      swap2\n      swap1\n      pop\n      jump\t// out\n        /* \"#utility.yul\":6707:6823   */\n    tag_92:\n        /* \"#utility.yul\":6777:6798   */\n      tag_189\n        /* \"#utility.yul\":6792:6797   */\n      dup2\n        /* \"#utility.yul\":6777:6798   */\n      tag_91\n      jump\t// in\n    tag_189:\n        /* \"#utility.yul\":6770:6775   */\n      dup2\n        /* \"#utility.yul\":6767:6799   */\n      eq\n        /* \"#utility.yul\":6757:6817   */\n      tag_190\n      jumpi\n        /* \"#utility.yul\":6813:6814   */\n      0x00\n        /* \"#utility.yul\":6810:6811   */\n      dup1\n        /* \"#utility.yul\":6803:6815   */\n      revert\n        /* \"#utility.yul\":6757:6817   */\n    tag_190:\n        /* \"#utility.yul\":6707:6823   */\n      pop\n      jump\t// out\n        /* \"#utility.yul\":6829:6966   */\n    tag_93:\n        /* \"#utility.yul\":6883:6888   */\n      0x00\n        /* \"#utility.yul\":6914:6920   */\n      dup2\n        /* \"#utility.yul\":6908:6921   */\n      mload\n        /* \"#utility.yul\":6899:6921   */\n      swap1\n      pop\n        /* \"#utility.yul\":6930:6960   */\n      tag_192\n        /* \"#utility.yul\":6954:6959   */\n      dup2\n        /* \"#utility.yul\":6930:6960   */\n      tag_92\n      jump\t// in\n    tag_192:\n        /* \"#utility.yul\":6829:6966   */\n      swap3\n      swap2\n      pop\n      pop\n      jump\t// out\n        /* \"#utility.yul\":6972:7317   */\n    tag_50:\n        /* \"#utility.yul\":7039:7045   */\n      0x00\n        /* \"#utility.yul\":7088:7090   */\n      0x20\n        /* \"#utility.yul\":7076:7085   */\n      dup3\n        /* \"#utility.yul\":7067:7074   */\n      dup5\n        /* \"#utility.yul\":7063:7086   */\n      sub\n        /* \"#utility.yul\":7059:7091   */\n      slt\n        /* \"#utility.yul\":7056:7175   */\n      iszero\n      tag_194\n      jumpi\n        /* \"#utility.yul\":7094:7173   */\n      tag_195\n      tag_69\n      jump\t// in\n    tag_195:\n        /* \"#utility.yul\":7056:7175   */\n    tag_194:\n        /* \"#utility.yul\":7214:7215   */\n      0x00\n        /* \"#utility.yul\":7239:7300   */\n      tag_196\n        /* \"#utility.yul\":7292:7299   */\n      dup5\n        /* \"#utility.yul\":7283:7289   */\n      dup3\n        /* \"#utility.yul\":7272:7281   */\n      dup6\n        /* \"#utility.yul\":7268:7290   */\n      add\n        /* \"#utility.yul\":7239:7300   */\n      tag_93\n      jump\t// in\n    tag_196:\n        /* \"#utility.yul\":7229:7300   */\n      swap2\n      pop\n        /* \"#utility.yul\":7185:7310   */\n      pop\n        /* \"#utility.yul\":6972:7317   */\n      swap3\n      swap2\n      pop\n      pop\n      jump\t// out\n        /* \"#utility.yul\":7323:7487   */\n    tag_94:\n        /* \"#utility.yul\":7463:7479   */\n      0x4465706f736974206661696c6564000000000000000000000000000000000000\n        /* \"#utility.yul\":7459:7460   */\n      0x00\n        /* \"#utility.yul\":7451:7457   */\n      dup3\n        /* \"#utility.yul\":7447:7461   */\n      add\n        /* \"#utility.yul\":7440:7480   */\n      mstore\n        /* \"#utility.yul\":7323:7487   */\n      pop\n      jump\t// out\n        /* \"#utility.yul\":7493:7859   */\n    tag_95:\n        /* \"#utility.yul\":7635:7638   */\n      0x00\n        /* \"#utility.yul\":7656:7723   */\n      tag_199\n        /* \"#utility.yul\":7720:7722   */\n      0x0e\n        /* \"#utility.yul\":7715:7718   */\n      dup4\n        /* \"#utility.yul\":7656:7723   */\n      tag_85\n      jump\t// in\n    tag_199:\n        /* \"#utility.yul\":7649:7723   */\n      swap2\n      pop\n        /* \"#utility.yul\":7732:7825   */\n      tag_200\n        /* \"#utility.yul\":7821:7824   */\n      dup3\n        /* \"#utility.yul\":7732:7825   */\n      tag_94\n      jump\t// in\n    tag_200:\n        /* \"#utility.yul\":7850:7852   */\n      0x20\n        /* \"#utility.yul\":7845:7848   */\n      dup3\n        /* \"#utility.yul\":7841:7853   */\n      add\n        /* \"#utility.yul\":7834:7853   */\n      swap1\n      pop\n        /* \"#utility.yul\":7493:7859   */\n      swap2\n      swap1\n      pop\n      jump\t// out\n        /* \"#utility.yul\":7865:8284   */\n    tag_53:\n        /* \"#utility.yul\":8031:8035   */\n      0x00\n        /* \"#utility.yul\":8069:8071   */\n      0x20\n        /* \"#utility.yul\":8058:8067   */\n      dup3\n        /* \"#utility.yul\":8054:8072   */\n      add\n        /* \"#utility.yul\":8046:8072   */\n      swap1\n      pop\n        /* \"#utility.yul\":8118:8127   */\n      dup2\n        /* \"#utility.yul\":8112:8116   */\n      dup2\n        /* \"#utility.yul\":8108:8128   */\n      sub\n        /* \"#utility.yul\":8104:8105   */\n      0x00\n        /* \"#utility.yul\":8093:8102   */\n      dup4\n        /* \"#utility.yul\":8089:8106   */\n      add\n        /* \"#utility.yul\":8082:8129   */\n      mstore\n        /* \"#utility.yul\":8146:8277   */\n      tag_202\n        /* \"#utility.yul\":8272:8276   */\n      dup2\n        /* \"#utility.yul\":8146:8277   */\n      tag_95\n      jump\t// in\n    tag_202:\n        /* \"#utility.yul\":8138:8277   */\n      swap1\n      pop\n        /* \"#utility.yul\":7865:8284   */\n      swap2\n      swap1\n      pop\n      jump\t// out\n        /* \"#utility.yul\":8290:8622   */\n    tag_55:\n        /* \"#utility.yul\":8411:8415   */\n      0x00\n        /* \"#utility.yul\":8449:8451   */\n      0x40\n        /* \"#utility.yul\":8438:8447   */\n      dup3\n        /* \"#utility.yul\":8434:8452   */\n      add\n        /* \"#utility.yul\":8426:8452   */\n      swap1\n      pop\n        /* \"#utility.yul\":8462:8533   */\n      tag_204\n        /* \"#utility.yul\":8530:8531   */\n      0x00\n        /* \"#utility.yul\":8519:8528   */\n      dup4\n        /* \"#utility.yul\":8515:8532   */\n      add\n        /* \"#utility.yul\":8506:8512   */\n      dup6\n        /* \"#utility.yul\":8462:8533   */\n      tag_78\n      jump\t// in\n    tag_204:\n        /* \"#utility.yul\":8543:8615   */\n      tag_205\n        /* \"#utility.yul\":8611:8613   */\n      0x20\n        /* \"#utility.yul\":8600:8609   */\n      dup4\n        /* \"#utility.yul\":8596:8614   */\n      add\n        /* \"#utility.yul\":8587:8593   */\n      dup5\n        /* \"#utility.yul\":8543:8615   */\n      tag_79\n      jump\t// in\n    tag_205:\n        /* \"#utility.yul\":8290:8622   */\n      swap4\n      swap3\n      pop\n      pop\n      pop\n      jump\t// out\n        /* \"#utility.yul\":8628:8799   */\n    tag_96:\n        /* \"#utility.yul\":8768:8791   */\n      0x496e73756666696369656e74206665652073656e740000000000000000000000\n        /* \"#utility.yul\":8764:8765   */\n      0x00\n        /* \"#utility.yul\":8756:8762   */\n      dup3\n        /* \"#utility.yul\":8752:8766   */\n      add\n        /* \"#utility.yul\":8745:8792   */\n      mstore\n        /* \"#utility.yul\":8628:8799   */\n      pop\n      jump\t// out\n        /* \"#utility.yul\":8805:9171   */\n    tag_97:\n        /* \"#utility.yul\":8947:8950   */\n      0x00\n        /* \"#utility.yul\":8968:9035   */\n      tag_208\n        /* \"#utility.yul\":9032:9034   */\n      0x15\n        /* \"#utility.yul\":9027:9030   */\n      dup4\n        /* \"#utility.yul\":8968:9035   */\n      tag_85\n      jump\t// in\n    tag_208:\n        /* \"#utility.yul\":8961:9035   */\n      swap2\n      pop\n        /* \"#utility.yul\":9044:9137   */\n      tag_209\n        /* \"#utility.yul\":9133:9136   */\n      dup3\n        /* \"#utility.yul\":9044:9137   */\n      tag_96\n      jump\t// in\n    tag_209:\n        /* \"#utility.yul\":9162:9164   */\n      0x20\n        /* \"#utility.yul\":9157:9160   */\n      dup3\n        /* \"#utility.yul\":9153:9165   */\n      add\n        /* \"#utility.yul\":9146:9165   */\n      swap1\n      pop\n        /* \"#utility.yul\":8805:9171   */\n      swap2\n      swap1\n      pop\n      jump\t// out\n        /* \"#utility.yul\":9177:9596   */\n    tag_59:\n        /* \"#utility.yul\":9343:9347   */\n      0x00\n        /* \"#utility.yul\":9381:9383   */\n      0x20\n        /* \"#utility.yul\":9370:9379   */\n      dup3\n        /* \"#utility.yul\":9366:9384   */\n      add\n        /* \"#utility.yul\":9358:9384   */\n      swap1\n      pop\n        /* \"#utility.yul\":9430:9439   */\n      dup2\n        /* \"#utility.yul\":9424:9428   */\n      dup2\n        /* \"#utility.yul\":9420:9440   */\n      sub\n        /* \"#utility.yul\":9416:9417   */\n      0x00\n        /* \"#utility.yul\":9405:9414   */\n      dup4\n        /* \"#utility.yul\":9401:9418   */\n      add\n        /* \"#utility.yul\":9394:9441   */\n      mstore\n        /* \"#utility.yul\":9458:9589   */\n      tag_211\n        /* \"#utility.yul\":9584:9588   */\n      dup2\n        /* \"#utility.yul\":9458:9589   */\n      tag_97\n      jump\t// in\n    tag_211:\n        /* \"#utility.yul\":9450:9589   */\n      swap1\n      pop\n        /* \"#utility.yul\":9177:9596   */\n      swap2\n      swap1\n      pop\n      jump\t// out\n        /* \"#utility.yul\":9602:9699   */\n    tag_98:\n        /* \"#utility.yul\":9661:9667   */\n      0x00\n        /* \"#utility.yul\":9689:9692   */\n      dup3\n        /* \"#utility.yul\":9679:9692   */\n      swap1\n      pop\n        /* \"#utility.yul\":9602:9699   */\n      swap3\n      swap2\n      pop\n      pop\n      jump\t// out\n        /* \"#utility.yul\":9705:9885   */\n    tag_99:\n        /* \"#utility.yul\":9753:9830   */\n      0x4e487b7100000000000000000000000000000000000000000000000000000000\n        /* \"#utility.yul\":9750:9751   */\n      0x00\n        /* \"#utility.yul\":9743:9831   */\n      mstore\n        /* \"#utility.yul\":9850:9854   */\n      0x41\n        /* \"#utility.yul\":9847:9848   */\n      0x04\n        /* \"#utility.yul\":9840:9855   */\n      mstore\n        /* \"#utility.yul\":9874:9878   */\n      0x24\n        /* \"#utility.yul\":9871:9872   */\n      0x00\n        /* \"#utility.yul\":9864:9879   */\n      revert\n        /* \"#utility.yul\":9891:10071   */\n    tag_100:\n        /* \"#utility.yul\":9939:10016   */\n      0x4e487b7100000000000000000000000000000000000000000000000000000000\n        /* \"#utility.yul\":9936:9937   */\n      0x00\n        /* \"#utility.yul\":9929:10017   */\n      mstore\n        /* \"#utility.yul\":10036:10040   */\n      0x22\n        /* \"#utility.yul\":10033:10034   */\n      0x04\n        /* \"#utility.yul\":10026:10041   */\n      mstore\n        /* \"#utility.yul\":10060:10064   */\n      0x24\n        /* \"#utility.yul\":10057:10058   */\n      0x00\n        /* \"#utility.yul\":10050:10065   */\n      revert\n        /* \"#utility.yul\":10077:10397   */\n    tag_63:\n        /* \"#utility.yul\":10121:10127   */\n      0x00\n        /* \"#utility.yul\":10158:10159   */\n      0x02\n        /* \"#utility.yul\":10152:10156   */\n      dup3\n        /* \"#utility.yul\":10148:10160   */\n      div\n        /* \"#utility.yul\":10138:10160   */\n      swap1\n      pop\n        /* \"#utility.yul\":10205:10206   */\n      0x01\n        /* \"#utility.yul\":10199:10203   */\n      dup3\n        /* \"#utility.yul\":10195:10207   */\n      and\n        /* \"#utility.yul\":10226:10244   */\n      dup1\n        /* \"#utility.yul\":10216:10297   */\n      tag_216\n      jumpi\n        /* \"#utility.yul\":10282:10286   */\n      0x7f\n        /* \"#utility.yul\":10274:10280   */\n      dup3\n        /* \"#utility.yul\":10270:10287   */\n      and\n        /* \"#utility.yul\":10260:10287   */\n      swap2\n      pop\n        /* \"#utility.yul\":10216:10297   */\n    tag_216:\n        /* \"#utility.yul\":10344:10346   */\n      0x20\n        /* \"#utility.yul\":10336:10342   */\n      dup3\n        /* \"#utility.yul\":10333:10347   */\n      lt\n        /* \"#utility.yul\":10313:10331   */\n      dup2\n        /* \"#utility.yul\":10310:10348   */\n      sub\n        /* \"#utility.yul\":10307:10391   */\n      tag_217\n      jumpi\n        /* \"#utility.yul\":10363:10381   */\n      tag_218\n      tag_100\n      jump\t// in\n    tag_218:\n        /* \"#utility.yul\":10307:10391   */\n    tag_217:\n        /* \"#utility.yul\":10128:10397   */\n      pop\n        /* \"#utility.yul\":10077:10397   */\n      swap2\n      swap1\n      pop\n      jump\t// out\n        /* \"#utility.yul\":10403:10544   */\n    tag_101:\n        /* \"#utility.yul\":10452:10456   */\n      0x00\n        /* \"#utility.yul\":10475:10478   */\n      dup2\n        /* \"#utility.yul\":10467:10478   */\n      swap1\n      pop\n        /* \"#utility.yul\":10498:10501   */\n      dup2\n        /* \"#utility.yul\":10495:10496   */\n      0x00\n        /* \"#utility.yul\":10488:10502   */\n      mstore\n        /* \"#utility.yul\":10532:10536   */\n      0x20\n        /* \"#utility.yul\":10529:10530   */\n      0x00\n        /* \"#utility.yul\":10519:10537   */\n      keccak256\n        /* \"#utility.yul\":10511:10537   */\n      swap1\n      pop\n        /* \"#utility.yul\":10403:10544   */\n      swap2\n      swap1\n      pop\n      jump\t// out\n        /* \"#utility.yul\":10550:10643   */\n    tag_102:\n        /* \"#utility.yul\":10587:10593   */\n      0x00\n        /* \"#utility.yul\":10634:10636   */\n      0x20\n        /* \"#utility.yul\":10629:10631   */\n      0x1f\n        /* \"#utility.yul\":10622:10627   */\n      dup4\n        /* \"#utility.yul\":10618:10632   */\n      add\n        /* \"#utility.yul\":10614:10637   */\n      div\n        /* \"#utility.yul\":10604:10637   */\n      swap1\n      pop\n        /* \"#utility.yul\":10550:10643   */\n      swap2\n      swap1\n      pop\n      jump\t// out\n        /* \"#utility.yul\":10649:10756   */\n    tag_103:\n        /* \"#utility.yul\":10693:10701   */\n      0x00\n        /* \"#utility.yul\":10743:10748   */\n      dup3\n        /* \"#utility.yul\":10737:10741   */\n      dup3\n        /* \"#utility.yul\":10733:10749   */\n      shl\n        /* \"#utility.yul\":10712:10749   */\n      swap1\n      pop\n        /* \"#utility.yul\":10649:10756   */\n      swap3\n      swap2\n      pop\n      pop\n      jump\t// out\n        /* \"#utility.yul\":10762:11155   */\n    tag_104:\n        /* \"#utility.yul\":10831:10837   */\n      0x00\n        /* \"#utility.yul\":10881:10882   */\n      0x08\n        /* \"#utility.yul\":10869:10879   */\n      dup4\n        /* \"#utility.yul\":10865:10883   */\n      mul\n        /* \"#utility.yul\":10904:11001   */\n      tag_223\n        /* \"#utility.yul\":10934:11000   */\n      0xffffffffffffffffffffffffffffffffffffffffffffffffffffffffffffffff\n        /* \"#utility.yul\":10923:10932   */\n      dup3\n        /* \"#utility.yul\":10904:11001   */\n      tag_103\n      jump\t// in\n    tag_223:\n        /* \"#utility.yul\":11022:11061   */\n      tag_224\n        /* \"#utility.yul\":11052:11060   */\n      dup7\n        /* \"#utility.yul\":11041:11050   */\n      dup4\n        /* \"#utility.yul\":11022:11061   */\n      tag_103\n      jump\t// in\n    tag_224:\n        /* \"#utility.yul\":11010:11061   */\n      swap6\n      pop\n        /* \"#utility.yul\":11094:11098   */\n      dup1\n        /* \"#utility.yul\":11090:11099   */\n      not\n        /* \"#utility.yul\":11083:11088   */\n      dup5\n        /* \"#utility.yul\":11079:11100   */\n      and\n        /* \"#utility.yul\":11070:11100   */\n      swap4\n      pop\n        /* \"#utility.yul\":11143:11147   */\n      dup1\n        /* \"#utility.yul\":11133:11141   */\n      dup7\n        /* \"#utility.yul\":11129:11148   */\n      and\n        /* \"#utility.yul\":11122:11127   */\n      dup5\n        /* \"#utility.yul\":11119:11149   */\n      or\n        /* \"#utility.yul\":11109:11149   */\n      swap3\n      pop\n        /* \"#utility.yul\":10838:11155   */\n      pop\n      pop\n        /* \"#utility.yul\":10762:11155   */\n      swap4\n      swap3\n      pop\n      pop\n      pop\n      jump\t// out\n        /* \"#utility.yul\":11161:11221   */\n    tag_105:\n        /* \"#utility.yul\":11189:11192   */\n      0x00\n        /* \"#utility.yul\":11210:11215   */\n      dup2\n        /* \"#utility.yul\":11203:11215   */\n      swap1\n      pop\n        /* \"#utility.yul\":11161:11221   */\n      swap2\n      swap1\n      pop\n      jump\t// out\n        /* \"#utility.yul\":11227:11369   */\n    tag_106:\n        /* \"#utility.yul\":11277:11286   */\n      0x00\n        /* \"#utility.yul\":11310:11363   */\n      tag_227\n        /* \"#utility.yul\":11328:11362   */\n      tag_228\n        /* \"#utility.yul\":11337:11361   */\n      tag_229\n        /* \"#utility.yul\":11355:11360   */\n      dup5\n        /* \"#utility.yul\":11337:11361   */\n      tag_75\n      jump\t// in\n    tag_229:\n        /* \"#utility.yul\":11328:11362   */\n      tag_105\n      jump\t// in\n    tag_228:\n        /* \"#utility.yul\":11310:11363   */\n      tag_75\n      jump\t// in\n    tag_227:\n        /* \"#utility.yul\":11297:11363   */\n      swap1\n      pop\n        /* \"#utility.yul\":11227:11369   */\n      swap2\n      swap1\n      pop\n      jump\t// out\n        /* \"#utility.yul\":11375:11450   */\n    tag_107:\n        /* \"#utility.yul\":11418:11421   */\n      0x00\n        /* \"#utility.yul\":11439:11444   */\n      dup2\n        /* \"#utility.yul\":11432:11444   */\n      swap1\n      pop\n        /* \"#utility.yul\":11375:11450   */\n      swap2\n      swap1\n      pop\n      jump\t// out\n        /* \"#utility.yul\":11456:11725   */\n    tag_108:\n        /* \"#utility.yul\":11566:11605   */\n      tag_232\n        /* \"#utility.yul\":11597:11604   */\n      dup4\n        /* \"#utility.yul\":11566:11605   */\n      tag_106\n      jump\t// in\n    tag_232:\n        /* \"#utility.yul\":11627:11718   */\n      tag_233\n        /* \"#utility.yul\":11676:11717   */\n      tag_234\n        /* \"#utility.yul\":11700:11716   */\n      dup3\n        /* \"#utility.yul\":11676:11717   */\n      tag_107\n      jump\t// in\n    tag_234:\n        /* \"#utility.yul\":11668:11674   */\n      dup5\n        /* \"#utility.yul\":11661:11665   */\n      dup5\n        /* \"#utility.yul\":11655:11666   */\n      sload\n        /* \"#utility.yul\":11627:11718   */\n      tag_104\n      jump\t// in\n    tag_233:\n        /* \"#utility.yul\":11621:11625   */\n      dup3\n        /* \"#utility.yul\":11614:11719   */\n      sstore\n        /* \"#utility.yul\":11532:11725   */\n      pop\n        /* \"#utility.yul\":11456:11725   */\n      pop\n      pop\n      pop\n      jump\t// out\n        /* \"#utility.yul\":11731:11804   */\n    tag_109:\n        /* \"#utility.yul\":11776:11779   */\n      0x00\n        /* \"#utility.yul\":11731:11804   */\n      swap1\n      jump\t// out\n        /* \"#utility.yul\":11810:11999   */\n    tag_110:\n        /* \"#utility.yul\":11887:11919   */\n      tag_237\n      tag_109\n      jump\t// in\n    tag_237:\n        /* \"#utility.yul\":11928:11993   */\n      tag_238\n        /* \"#utility.yul\":11986:11992   */\n      dup2\n        /* \"#utility.yul\":11978:11984   */\n      dup5\n        /* \"#utility.yul\":11972:11976   */\n      dup5\n        /* \"#utility.yul\":11928:11993   */\n      tag_108\n      jump\t// in\n    tag_238:\n        /* \"#utility.yul\":11863:11999   */\n      pop\n        /* \"#utility.yul\":11810:11999   */\n      pop\n      pop\n      jump\t// out\n        /* \"#utility.yul\":12005:12191   */\n    tag_111:\n        /* \"#utility.yul\":12065:12185   */\n    tag_240:\n        /* \"#utility.yul\":12082:12085   */\n      dup2\n        /* \"#utility.yul\":12075:12080   */\n      dup2\n        /* \"#utility.yul\":12072:12086   */\n      lt\n        /* \"#utility.yul\":12065:12185   */\n      iszero\n      tag_242\n      jumpi\n        /* \"#utility.yul\":12136:12175   */\n      tag_243\n        /* \"#utility.yul\":12173:12174   */\n      0x00\n        /* \"#utility.yul\":12166:12171   */\n      dup3\n        /* \"#utility.yul\":12136:12175   */\n      tag_110\n      jump\t// in\n    tag_243:\n        /* \"#utility.yul\":12109:12110   */\n      0x01\n        /* \"#utility.yul\":12102:12107   */\n      dup2\n        /* \"#utility.yul\":12098:12111   */\n      add\n        /* \"#utility.yul\":12089:12111   */\n      swap1\n      pop\n        /* \"#utility.yul\":12065:12185   */\n      jump(tag_240)\n    tag_242:\n        /* \"#utility.yul\":12005:12191   */\n      pop\n      pop\n      jump\t// out\n        /* \"#utility.yul\":12197:12740   */\n    tag_112:\n        /* \"#utility.yul\":12298:12300   */\n      0x1f\n        /* \"#utility.yul\":12293:12296   */\n      dup3\n        /* \"#utility.yul\":12290:12301   */\n      gt\n        /* \"#utility.yul\":12287:12733   */\n      iszero\n      tag_245\n      jumpi\n        /* \"#utility.yul\":12332:12370   */\n      tag_246\n        /* \"#utility.yul\":12364:12369   */\n      dup2\n        /* \"#utility.yul\":12332:12370   */\n      tag_101\n      jump\t// in\n    tag_246:\n        /* \"#utility.yul\":12416:12445   */\n      tag_247\n        /* \"#utility.yul\":12434:12444   */\n      dup5\n        /* \"#utility.yul\":12416:12445   */\n      tag_102\n      jump\t// in\n    tag_247:\n        /* \"#utility.yul\":12406:12414   */\n      dup2\n        /* \"#utility.yul\":12402:12446   */\n      add\n        /* \"#utility.yul\":12599:12601   */\n      0x20\n        /* \"#utility.yul\":12587:12597   */\n      dup6\n        /* \"#utility.yul\":12584:12602   */\n      lt\n        /* \"#utility.yul\":12581:12630   */\n      iszero\n      tag_248\n      jumpi\n        /* \"#utility.yul\":12620:12628   */\n      dup2\n        /* \"#utility.yul\":12605:12628   */\n      swap1\n      pop\n        /* \"#utility.yul\":12581:12630   */\n    tag_248:\n        /* \"#utility.yul\":12643:12723   */\n      tag_249\n        /* \"#utility.yul\":12699:12721   */\n      tag_250\n        /* \"#utility.yul\":12717:12720   */\n      dup6\n        /* \"#utility.yul\":12699:12721   */\n      tag_102\n      jump\t// in\n    tag_250:\n        /* \"#utility.yul\":12689:12697   */\n      dup4\n        /* \"#utility.yul\":12685:12722   */\n      add\n        /* \"#utility.yul\":12672:12683   */\n      dup3\n        /* \"#utility.yul\":12643:12723   */\n      tag_111\n      jump\t// in\n    tag_249:\n        /* \"#utility.yul\":12302:12733   */\n      pop\n      pop\n        /* \"#utility.yul\":12287:12733   */\n    tag_245:\n        /* \"#utility.yul\":12197:12740   */\n      pop\n      pop\n      pop\n      jump\t// out\n        /* \"#utility.yul\":12746:12863   */\n    tag_113:\n        /* \"#utility.yul\":12800:12808   */\n      0x00\n        /* \"#utility.yul\":12850:12855   */\n      dup3\n        /* \"#utility.yul\":12844:12848   */\n      dup3\n        /* \"#utility.yul\":12840:12856   */\n      shr\n        /* \"#utility.yul\":12819:12856   */\n      swap1\n      pop\n        /* \"#utility.yul\":12746:12863   */\n      swap3\n      swap2\n      pop\n      pop\n      jump\t// out\n        /* \"#utility.yul\":12869:13038   */\n    tag_114:\n        /* \"#utility.yul\":12913:12919   */\n      0x00\n        /* \"#utility.yul\":12946:12997   */\n      tag_253\n        /* \"#utility.yul\":12994:12995   */\n      0x00\n        /* \"#utility.yul\":12990:12996   */\n      not\n        /* \"#utility.yul\":12982:12987   */\n      dup5\n        /* \"#utility.yul\":12979:12980   */\n      0x08\n        /* \"#utility.yul\":12975:12988   */\n      mul\n        /* \"#utility.yul\":12946:12997   */\n      tag_113\n      jump\t// in\n    tag_253:\n        /* \"#utility.yul\":12942:12998   */\n      not\n        /* \"#utility.yul\":13027:13031   */\n      dup1\n        /* \"#utility.yul\":13021:13025   */\n      dup4\n        /* \"#utility.yul\":13017:13032   */\n      and\n        /* \"#utility.yul\":13007:13032   */\n      swap2\n      pop\n        /* \"#utility.yul\":12920:13038   */\n      pop\n        /* \"#utility.yul\":12869:13038   */\n      swap3\n      swap2\n      pop\n      pop\n      jump\t// out\n        /* \"#utility.yul\":13043:13338   */\n    tag_115:\n        /* \"#utility.yul\":13119:13123   */\n      0x00\n        /* \"#utility.yul\":13265:13294   */\n      tag_255\n        /* \"#utility.yul\":13290:13293   */\n      dup4\n        /* \"#utility.yul\":13284:13288   */\n      dup4\n        /* \"#utility.yul\":13265:13294   */\n      tag_114\n      jump\t// in\n    tag_255:\n        /* \"#utility.yul\":13257:13294   */\n      swap2\n      pop\n        /* \"#utility.yul\":13327:13330   */\n      dup3\n        /* \"#utility.yul\":13324:13325   */\n      0x02\n        /* \"#utility.yul\":13320:13331   */\n      mul\n        /* \"#utility.yul\":13314:13318   */\n      dup3\n        /* \"#utility.yul\":13311:13332   */\n      or\n        /* \"#utility.yul\":13303:13332   */\n      swap1\n      pop\n        /* \"#utility.yul\":13043:13338   */\n      swap3\n      swap2\n      pop\n      pop\n      jump\t// out\n        /* \"#utility.yul\":13343:14746   */\n    tag_61:\n        /* \"#utility.yul\":13467:13511   */\n      tag_257\n        /* \"#utility.yul\":13507:13510   */\n      dup4\n        /* \"#utility.yul\":13502:13505   */\n      dup4\n        /* \"#utility.yul\":13467:13511   */\n      tag_98\n      jump\t// in\n    tag_257:\n        /* \"#utility.yul\":13576:13594   */\n      0xffffffffffffffff\n        /* \"#utility.yul\":13568:13574   */\n      dup2\n        /* \"#utility.yul\":13565:13595   */\n      gt\n        /* \"#utility.yul\":13562:13618   */\n      iszero\n      tag_258\n      jumpi\n        /* \"#utility.yul\":13598:13616   */\n      tag_259\n      tag_99\n      jump\t// in\n    tag_259:\n        /* \"#utility.yul\":13562:13618   */\n    tag_258:\n        /* \"#utility.yul\":13642:13680   */\n      tag_260\n        /* \"#utility.yul\":13674:13678   */\n      dup3\n        /* \"#utility.yul\":13668:13679   */\n      sload\n        /* \"#utility.yul\":13642:13680   */\n      tag_63\n      jump\t// in\n    tag_260:\n        /* \"#utility.yul\":13727:13794   */\n      tag_261\n        /* \"#utility.yul\":13787:13793   */\n      dup3\n        /* \"#utility.yul\":13779:13785   */\n      dup3\n        /* \"#utility.yul\":13773:13777   */\n      dup6\n        /* \"#utility.yul\":13727:13794   */\n      tag_112\n      jump\t// in\n    tag_261:\n        /* \"#utility.yul\":13821:13822   */\n      0x00\n        /* \"#utility.yul\":13850:13852   */\n      0x1f\n        /* \"#utility.yul\":13842:13848   */\n      dup4\n        /* \"#utility.yul\":13839:13853   */\n      gt\n        /* \"#utility.yul\":13867:13868   */\n      0x01\n        /* \"#utility.yul\":13862:14494   */\n      dup2\n      eq\n      tag_263\n      jumpi\n        /* \"#utility.yul\":14538:14539   */\n      0x00\n        /* \"#utility.yul\":14555:14561   */\n      dup5\n        /* \"#utility.yul\":14552:14636   */\n      iszero\n      tag_264\n      jumpi\n        /* \"#utility.yul\":14611:14620   */\n      dup3\n        /* \"#utility.yul\":14606:14609   */\n      dup8\n        /* \"#utility.yul\":14602:14621   */\n      add\n        /* \"#utility.yul\":14589:14622   */\n      calldataload\n        /* \"#utility.yul\":14580:14622   */\n      swap1\n      pop\n        /* \"#utility.yul\":14552:14636   */\n    tag_264:\n        /* \"#utility.yul\":14662:14729   */\n      tag_265\n        /* \"#utility.yul\":14722:14728   */\n      dup6\n        /* \"#utility.yul\":14715:14720   */\n      dup3\n        /* \"#utility.yul\":14662:14729   */\n      tag_115\n      jump\t// in\n    tag_265:\n        /* \"#utility.yul\":14656:14660   */\n      dup7\n        /* \"#utility.yul\":14649:14730   */\n      sstore\n        /* \"#utility.yul\":14511:14740   */\n      pop\n        /* \"#utility.yul\":13832:14740   */\n      jump(tag_262)\n        /* \"#utility.yul\":13862:14494   */\n    tag_263:\n        /* \"#utility.yul\":13914:13918   */\n      0x1f\n        /* \"#utility.yul\":13910:13919   */\n      not\n        /* \"#utility.yul\":13902:13908   */\n      dup5\n        /* \"#utility.yul\":13898:13920   */\n      and\n        /* \"#utility.yul\":13948:13985   */\n      tag_266\n        /* \"#utility.yul\":13980:13984   */\n      dup7\n        /* \"#utility.yul\":13948:13985   */\n      tag_101\n      jump\t// in\n    tag_266:\n        /* \"#utility.yul\":14007:14008   */\n      0x00\n        /* \"#utility.yul\":14021:14236   */\n    tag_267:\n        /* \"#utility.yul\":14035:14042   */\n      dup3\n        /* \"#utility.yul\":14032:14033   */\n      dup2\n        /* \"#utility.yul\":14029:14043   */\n      lt\n        /* \"#utility.yul\":14021:14236   */\n      iszero\n      tag_269\n      jumpi\n        /* \"#utility.yul\":14121:14130   */\n      dup5\n        /* \"#utility.yul\":14116:14119   */\n      dup10\n        /* \"#utility.yul\":14112:14131   */\n      add\n        /* \"#utility.yul\":14099:14132   */\n      calldataload\n        /* \"#utility.yul\":14091:14097   */\n      dup3\n        /* \"#utility.yul\":14084:14133   */\n      sstore\n        /* \"#utility.yul\":14172:14173   */\n      0x01\n        /* \"#utility.yul\":14164:14170   */\n      dup3\n        /* \"#utility.yul\":14160:14174   */\n      add\n        /* \"#utility.yul\":14150:14174   */\n      swap2\n      pop\n        /* \"#utility.yul\":14219:14221   */\n      0x20\n        /* \"#utility.yul\":14208:14217   */\n      dup6\n        /* \"#utility.yul\":14204:14222   */\n      add\n        /* \"#utility.yul\":14191:14222   */\n      swap5\n      pop\n        /* \"#utility.yul\":14058:14062   */\n      0x20\n        /* \"#utility.yul\":14055:14056   */\n      dup2\n        /* \"#utility.yul\":14051:14063   */\n      add\n        /* \"#utility.yul\":14046:14063   */\n      swap1\n      pop\n        /* \"#utility.yul\":14021:14236   */\n      jump(tag_267)\n    tag_269:\n        /* \"#utility.yul\":14264:14270   */\n      dup7\n        /* \"#utility.yul\":14255:14262   */\n      dup4\n        /* \"#utility.yul\":14252:14271   */\n      lt\n        /* \"#utility.yul\":14249:14435   */\n      iszero\n      tag_270\n      jumpi\n        /* \"#utility.yul\":14329:14338   */\n      dup5\n        /* \"#utility.yul\":14324:14327   */\n      dup10\n        /* \"#utility.yul\":14320:14339   */\n      add\n        /* \"#utility.yul\":14307:14340   */\n      calldataload\n        /* \"#utility.yul\":14372:14420   */\n      tag_271\n        /* \"#utility.yul\":14414:14418   */\n      0x1f\n        /* \"#utility.yul\":14406:14412   */\n      dup10\n        /* \"#utility.yul\":14402:14419   */\n      and\n        /* \"#utility.yul\":14391:14400   */\n      dup3\n        /* \"#utility.yul\":14372:14420   */\n      tag_114\n      jump\t// in\n    tag_271:\n        /* \"#utility.yul\":14364:14370   */\n      dup4\n        /* \"#utility.yul\":14357:14421   */\n      sstore\n        /* \"#utility.yul\":14272:14435   */\n      pop\n        /* \"#utility.yul\":14249:14435   */\n    tag_270:\n        /* \"#utility.yul\":14481:14482   */\n      0x01\n        /* \"#utility.yul\":14477:14478   */\n      0x02\n        /* \"#utility.yul\":14469:14475   */\n      dup9\n        /* \"#utility.yul\":14465:14479   */\n      mul\n        /* \"#utility.yul\":14461:14483   */\n      add\n        /* \"#utility.yul\":14455:14459   */\n      dup9\n        /* \"#utility.yul\":14448:14484   */\n      sstore\n        /* \"#utility.yul\":13869:14494   */\n      pop\n      pop\n      pop\n        /* \"#utility.yul\":13832:14740   */\n    tag_262:\n      pop\n        /* \"#utility.yul\":13442:14746   */\n      pop\n      pop\n      pop\n        /* \"#utility.yul\":13343:14746   */\n      pop\n      pop\n      pop\n      jump\t// out\n\n    auxdata: 0xa2646970667358221220d710648291a6571472ab8c5f99c23a3a7a7a538123ff7084fed9368cd2939bd964736f6c63430008140033\n}\n",
				"bytecode": {
					"linkReferences": {},
					"object": "608060405266038d7ea4c680006002556040516200120438038062001204833981810160405281019062000034919062000211565b805f908162000044919062000497565b503360015f6101000a81548173ffffffffffffffffffffffffffffffffffffffff021916908373ffffffffffffffffffffffffffffffffffffffff160217905550506200057b565b5f604051905090565b5f80fd5b5f80fd5b5f80fd5b5f80fd5b5f601f19601f8301169050919050565b7f4e487b71000000000000000000000000000000000000000000000000000000005f52604160045260245ffd5b620000ed82620000a5565b810181811067ffffffffffffffff821117156200010f576200010e620000b5565b5b80604052505050565b5f620001236200008c565b9050620001318282620000e2565b919050565b5f67ffffffffffffffff821115620001535762000152620000b5565b5b6200015e82620000a5565b9050602081019050919050565b5f5b838110156200018a5780820151818401526020810190506200016d565b5f8484015250505050565b5f620001ab620001a58462000136565b62000118565b905082815260208101848484011115620001ca57620001c9620000a1565b5b620001d78482856200016b565b509392505050565b5f82601f830112620001f657620001f56200009d565b5b81516200020884826020860162000195565b91505092915050565b5f6020828403121562000229576200022862000095565b5b5f82015167ffffffffffffffff81111562000249576200024862000099565b5b6200025784828501620001df565b91505092915050565b5f81519050919050565b7f4e487b71000000000000000000000000000000000000000000000000000000005f52602260045260245ffd5b5f6002820490506001821680620002af57607f821691505b602082108103620002c557620002c46200026a565b5b50919050565b5f819050815f5260205f209050919050565b5f6020601f8301049050919050565b5f82821b905092915050565b5f60088302620003297fffffffffffffffffffffffffffffffffffffffffffffffffffffffffffffffff82620002ec565b620003358683620002ec565b95508019841693508086168417925050509392505050565b5f819050919050565b5f819050919050565b5f6200037f6200037962000373846200034d565b62000356565b6200034d565b9050919050565b5f819050919050565b6200039a836200035f565b620003b2620003a98262000386565b848454620002f8565b825550505050565b5f90565b620003c8620003ba565b620003d58184846200038f565b505050565b5b81811015620003fc57620003f05f82620003be565b600181019050620003db565b5050565b601f8211156200044b576200041581620002cb565b6200042084620002dd565b8101602085101562000430578190505b620004486200043f85620002dd565b830182620003da565b50505b505050565b5f82821c905092915050565b5f6200046d5f198460080262000450565b1980831691505092915050565b5f6200048783836200045c565b9150826002028217905092915050565b620004a28262000260565b67ffffffffffffffff811115620004be57620004bd620000b5565b5b620004ca825462000297565b620004d782828562000400565b5f60209050601f8311600181146200050d575f8415620004f8578287015190505b6200050485826200047a565b86555062000573565b601f1984166200051d86620002cb565b5f5b8281101562000546578489015182556001820191506020850194506020810190506200051f565b8683101562000566578489015162000562601f8916826200045c565b8355505b6001600288020188555050505b505050505050565b610c7b80620005895f395ff3fe608060405260043610610054575f3560e01c8063476343ee1461005857806347e7ef241461006e5780638da5cb5b1461009657806390321e1a146100c0578063a4136862146100ea578063ef690cc014610106575b5f80fd5b348015610063575f80fd5b5061006c610130565b005b348015610079575f80fd5b50610094600480360381019061008f919061056f565b610226565b005b3480156100a1575f80fd5b506100aa6103ca565b6040516100b791906105bc565b60405180910390f35b3480156100cb575f80fd5b506100d46103ef565b6040516100e191906105e4565b60405180910390f35b61010460048036038101906100ff919061065e565b6103f5565b005b348015610111575f80fd5b5061011a61044f565b6040516101279190610733565b60405180910390f35b60015f9054906101000a900473ffffffffffffffffffffffffffffffffffffffff1673ffffffffffffffffffffffffffffffffffffffff163373ffffffffffffffffffffffffffffffffffffffff16146101bf576040517f08c379a00000000000000000000000000000000000000000000000000000000081526004016101b69061079d565b60405180910390fd5b60015f9054906101000a900473ffffffffffffffffffffffffffffffffffffffff1673ffffffffffffffffffffffffffffffffffffffff166108fc4790811502906040515f60405180830381858888f19350505050158015610223573d5f803e3d5ffd5b50565b60015f9054906101000a900473ffffffffffffffffffffffffffffffffffffffff1673ffffffffffffffffffffffffffffffffffffffff163373ffffffffffffffffffffffffffffffffffffffff16146102b5576040517f08c379a00000000000000000000000000000000000000000000000000000000081526004016102ac9061079d565b60405180910390fd5b5f8273ffffffffffffffffffffffffffffffffffffffff166323b872dd3330856040518463ffffffff1660e01b81526004016102f3939291906107bb565b6020604051808303815f875af115801561030f573d5f803e3d5ffd5b505050506040513d601f19601f820116820180604052508101906103339190610825565b905080610375576040517f08c379a000000000000000000000000000000000000000000000000000000000815260040161036c9061089a565b60405180910390fd5b3373ffffffffffffffffffffffffffffffffffffffff167f8752a472e571a816aea92eec8dae9baf628e840f4929fbcc2d155e6233ff68a784846040516103bd9291906108b8565b60405180910390a2505050565b60015f9054906101000a900473ffffffffffffffffffffffffffffffffffffffff1681565b60025481565b60025434101561043a576040517f08c379a000000000000000000000000000000000000000000000000000000000815260040161043190610929565b60405180910390fd5b81815f918261044a929190610b78565b505050565b5f805461045b906109ab565b80601f0160208091040260200160405190810160405280929190818152602001828054610487906109ab565b80156104d25780601f106104a9576101008083540402835291602001916104d2565b820191905f5260205f20905b8154815290600101906020018083116104b557829003601f168201915b505050505081565b5f80fd5b5f80fd5b5f73ffffffffffffffffffffffffffffffffffffffff82169050919050565b5f61050b826104e2565b9050919050565b61051b81610501565b8114610525575f80fd5b50565b5f8135905061053681610512565b92915050565b5f819050919050565b61054e8161053c565b8114610558575f80fd5b50565b5f8135905061056981610545565b92915050565b5f8060408385031215610585576105846104da565b5b5f61059285828601610528565b92505060206105a38582860161055b565b9150509250929050565b6105b681610501565b82525050565b5f6020820190506105cf5f8301846105ad565b92915050565b6105de8161053c565b82525050565b5f6020820190506105f75f8301846105d5565b92915050565b5f80fd5b5f80fd5b5f80fd5b5f8083601f84011261061e5761061d6105fd565b5b8235905067ffffffffffffffff81111561063b5761063a610601565b5b60208301915083600182028301111561065757610656610605565b5b9250929050565b5f8060208385031215610674576106736104da565b5b5f83013567ffffffffffffffff811115610691576106906104de565b5b61069d85828601610609565b92509250509250929050565b5f81519050919050565b5f82825260208201905092915050565b5f5b838110156106e05780820151818401526020810190506106c5565b5f8484015250505050565b5f601f19601f8301169050919050565b5f610705826106a9565b61070f81856106b3565b935061071f8185602086016106c3565b610728816106eb565b840191505092915050565b5f6020820190508181035f83015261074b81846106fb565b905092915050565b7f4f6e6c79206f776e6572000000000000000000000000000000000000000000005f82015250565b5f610787600a836106b3565b915061079282610753565b602082019050919050565b5f6020820190508181035f8301526107b48161077b565b9050919050565b5f6060820190506107ce5f8301866105ad565b6107db60208301856105ad565b6107e860408301846105d5565b949350505050565b5f8115159050919050565b610804816107f0565b811461080e575f80fd5b50565b5f8151905061081f816107fb565b92915050565b5f6020828403121561083a576108396104da565b5b5f61084784828501610811565b91505092915050565b7f4465706f736974206661696c65640000000000000000000000000000000000005f82015250565b5f610884600e836106b3565b915061088f82610850565b602082019050919050565b5f6020820190508181035f8301526108b181610878565b9050919050565b5f6040820190506108cb5f8301856105ad565b6108d860208301846105d5565b9392505050565b7f496e73756666696369656e74206665652073656e7400000000000000000000005f82015250565b5f6109136015836106b3565b915061091e826108df565b602082019050919050565b5f6020820190508181035f83015261094081610907565b9050919050565b5f82905092915050565b7f4e487b71000000000000000000000000000000000000000000000000000000005f52604160045260245ffd5b7f4e487b71000000000000000000000000000000000000000000000000000000005f52602260045260245ffd5b5f60028204905060018216806109c257607f821691505b6020821081036109d5576109d461097e565b5b50919050565b5f819050815f5260205f209050919050565b5f6020601f8301049050919050565b5f82821b905092915050565b5f60088302610a377fffffffffffffffffffffffffffffffffffffffffffffffffffffffffffffffff826109fc565b610a4186836109fc565b95508019841693508086168417925050509392505050565b5f819050919050565b5f610a7c610a77610a728461053c565b610a59565b61053c565b9050919050565b5f819050919050565b610a9583610a62565b610aa9610aa182610a83565b848454610a08565b825550505050565b5f90565b610abd610ab1565b610ac8818484610a8c565b505050565b5b81811015610aeb57610ae05f82610ab5565b600181019050610ace565b5050565b601f821115610b3057610b01816109db565b610b0a846109ed565b81016020851015610b19578190505b610b2d610b25856109ed565b830182610acd565b50505b505050565b5f82821c905092915050565b5f610b505f1984600802610b35565b1980831691505092915050565b5f610b688383610b41565b9150826002028217905092915050565b610b828383610947565b67ffffffffffffffff811115610b9b57610b9a610951565b5b610ba582546109ab565b610bb0828285610aef565b5f601f831160018114610bdd575f8415610bcb578287013590505b610bd58582610b5d565b865550610c3c565b601f198416610beb866109db565b5f5b82811015610c1257848901358255600182019150602085019450602081019050610bed565b86831015610c2f5784890135610c2b601f891682610b41565b8355505b6001600288020188555050505b5050505050505056fea2646970667358221220d710648291a6571472ab8c5f99c23a3a7a7a538123ff7084fed9368cd2939bd964736f6c63430008140033",
					"opcodes": "PUSH1 0x80 PUSH1 0x40 MSTORE PUSH7 0x38D7EA4C68000 PUSH1 0x2 SSTORE PUSH1 0x40 MLOAD PUSH3 0x1204 CODESIZE SUB DUP1 PUSH3 0x1204 DUP4 CODECOPY DUP2 DUP2 ADD PUSH1 0x40 MSTORE DUP2 ADD SWAP1 PUSH3 0x34 SWAP2 SWAP1 PUSH3 0x211 JUMP JUMPDEST DUP1 PUSH0 SWAP1 DUP2 PUSH3 0x44 SWAP2 SWAP1 PUSH3 0x497 JUMP JUMPDEST POP CALLER PUSH1 0x1 PUSH0 PUSH2 0x100 EXP DUP2 SLOAD DUP2 PUSH20 0xFFFFFFFFFFFFFFFFFFFFFFFFFFFFFFFFFFFFFFFF MUL NOT AND SWAP1 DUP4 PUSH20 0xFFFFFFFFFFFFFFFFFFFFFFFFFFFFFFFFFFFFFFFF AND MUL OR SWAP1 SSTORE POP POP PUSH3 0x57B JUMP JUMPDEST PUSH0 PUSH1 0x40 MLOAD SWAP1 POP SWAP1 JUMP JUMPDEST PUSH0 DUP1 REVERT JUMPDEST PUSH0 DUP1 REVERT JUMPDEST PUSH0 DUP1 REVERT JUMPDEST PUSH0 DUP1 REVERT JUMPDEST PUSH0 PUSH1 0x1F NOT PUSH1 0x1F DUP4 ADD AND SWAP1 POP SWAP2 SWAP1 POP JUMP JUMPDEST PUSH32 0x4E487B7100000000000000000000000000000000000000000000000000000000 PUSH0 MSTORE PUSH1 0x41 PUSH1 0x4 MSTORE PUSH1 0x24 PUSH0 REVERT JUMPDEST PUSH3 0xED DUP3 PUSH3 0xA5 JUMP JUMPDEST DUP2 ADD DUP2 DUP2 LT PUSH8 0xFFFFFFFFFFFFFFFF DUP3 GT OR ISZERO PUSH3 0x10F JUMPI PUSH3 0x10E PUSH3 0xB5 JUMP JUMPDEST JUMPDEST DUP1 PUSH1 0x40 MSTORE POP POP POP JUMP JUMPDEST PUSH0 PUSH3 0x123 PUSH3 0x8C JUMP JUMPDEST SWAP1 POP PUSH3 0x131 DUP3 DUP3 PUSH3 0xE2 JUMP JUMPDEST SWAP2 SWAP1 POP JUMP JUMPDEST PUSH0 PUSH8 0xFFFFFFFFFFFFFFFF DUP3 GT ISZERO PUSH3 0x153 JUMPI PUSH3 0x152 PUSH3 0xB5 JUMP JUMPDEST JUMPDEST PUSH3 0x15E DUP3 PUSH3 0xA5 JUMP JUMPDEST SWAP1 POP PUSH1 0x20 DUP2 ADD SWAP1 POP SWAP2 SWAP1 POP JUMP JUMPDEST PUSH0 JUMPDEST DUP4 DUP2 LT ISZERO PUSH3 0x18A JUMPI DUP1 DUP3 ADD MLOAD DUP2 DUP5 ADD MSTORE PUSH1 0x20 DUP2 ADD SWAP1 POP PUSH3 0x16D JUMP JUMPDEST PUSH0 DUP5 DUP5 ADD MSTORE POP POP POP POP JUMP JUMPDEST PUSH0 PUSH3 0x1AB PUSH3 0x1A5 DUP5 PUSH3 0x136 JUMP JUMPDEST PUSH3 0x118 JUMP JUMPDEST SWAP1 POP DUP3 DUP2 MSTORE PUSH1 0x20 DUP2 ADD DUP5 DUP5 DUP5 ADD GT ISZERO PUSH3 0x1CA JUMPI PUSH3 0x1C9 PUSH3 0xA1 JUMP JUMPDEST JUMPDEST PUSH3 0x1D7 DUP5 DUP3 DUP6 PUSH3 0x16B JUMP JUMPDEST POP SWAP4 SWAP3 POP POP POP JUMP JUMPDEST PUSH0 DUP3 PUSH1 0x1F DUP4 ADD SLT PUSH3 0x1F6 JUMPI PUSH3 0x1F5 PUSH3 0x9D JUMP JUMPDEST JUMPDEST DUP2 MLOAD PUSH3 0x208 DUP5 DUP3 PUSH1 0x20 DUP7 ADD PUSH3 0x195 JUMP JUMPDEST SWAP2 POP POP SWAP3 SWAP2 POP POP JUMP JUMPDEST PUSH0 PUSH1 0x20 DUP3 DUP5 SUB SLT ISZERO PUSH3 0x229 JUMPI PUSH3 0x228 PUSH3 0x95 JUMP JUMPDEST JUMPDEST PUSH0 DUP3 ADD MLOAD PUSH8 0xFFFFFFFFFFFFFFFF DUP2 GT ISZERO PUSH3 0x249 JUMPI PUSH3 0x248 PUSH3 0x99 JUMP JUMPDEST JUMPDEST PUSH3 0x257 DUP5 DUP3 DUP6 ADD PUSH3 0x1DF JUMP JUMPDEST SWAP2 POP POP SWAP3 SWAP2 POP POP JUMP JUMPDEST PUSH0 DUP2 MLOAD SWAP1 POP SWAP2 SWAP1 POP JUMP JUMPDEST PUSH32 0x4E487B7100000000000000000000000000000000000000000000000000000000 PUSH0 MSTORE PUSH1 0x22 PUSH1 0x4 MSTORE PUSH1 0x24 PUSH0 REVERT JUMPDEST PUSH0 PUSH1 0x2 DUP3 DIV SWAP1 POP PUSH1 0x1 DUP3 AND DUP1 PUSH3 0x2AF JUMPI PUSH1 0x7F DUP3 AND SWAP2 POP JUMPDEST PUSH1 0x20 DUP3 LT DUP2 SUB PUSH3 0x2C5 JUMPI PUSH3 0x2C4 PUSH3 0x26A JUMP JUMPDEST JUMPDEST POP SWAP2 SWAP1 POP JUMP JUMPDEST PUSH0 DUP2 SWAP1 POP DUP2 PUSH0 MSTORE PUSH1 0x20 PUSH0 KECCAK256 SWAP1 POP SWAP2 SWAP1 POP JUMP JUMPDEST PUSH0 PUSH1 0x20 PUSH1 0x1F DUP4 ADD DIV SWAP1 POP SWAP2 SWAP1 POP JUMP JUMPDEST PUSH0 DUP3 DUP3 SHL SWAP1 POP SWAP3 SWAP2 POP POP JUMP JUMPDEST PUSH0 PUSH1 0x8 DUP4 MUL PUSH3 0x329 PUSH32 0xFFFFFFFFFFFFFFFFFFFFFFFFFFFFFFFFFFFFFFFFFFFFFFFFFFFFFFFFFFFFFFFF DUP3 PUSH3 0x2EC JUMP JUMPDEST PUSH3 0x335 DUP7 DUP4 PUSH3 0x2EC JUMP JUMPDEST SWAP6 POP DUP1 NOT DUP5 AND SWAP4 POP DUP1 DUP7 AND DUP5 OR SWAP3 POP POP POP SWAP4 SWAP3 POP POP POP JUMP JUMPDEST PUSH0 DUP2 SWAP1 POP SWAP2 SWAP1 POP JUMP JUMPDEST PUSH0 DUP2 SWAP1 POP SWAP2 SWAP1 POP JUMP JUMPDEST PUSH0 PUSH3 0x37F PUSH3 0x379 PUSH3 0x373 DUP5 PUSH3 0x34D JUMP JUMPDEST PUSH3 0x356 JUMP JUMPDEST PUSH3 0x34D JUMP JUMPDEST SWAP1 POP SWAP2 SWAP1 POP JUMP JUMPDEST PUSH0 DUP2 SWAP1 POP SWAP2 SWAP1 POP JUMP JUMPDEST PUSH3 0x39A DUP4 PUSH3 0x35F JUMP JUMPDEST PUSH3 0x3B2 PUSH3 0x3A9 DUP3 PUSH3 0x386 JUMP JUMPDEST DUP5 DUP5 SLOAD PUSH3 0x2F8 JUMP JUMPDEST DUP3 SSTORE POP POP POP POP JUMP JUMPDEST PUSH0 SWAP1 JUMP JUMPDEST PUSH3 0x3C8 PUSH3 0x3BA JUMP JUMPDEST PUSH3 0x3D5 DUP2 DUP5 DUP5 PUSH3 0x38F JUMP JUMPDEST POP POP POP JUMP JUMPDEST JUMPDEST DUP2 DUP2 LT ISZERO PUSH3 0x3FC JUMPI PUSH3 0x3F0 PUSH0 DUP3 PUSH3 0x3BE JUMP JUMPDEST PUSH1 0x1 DUP2 ADD SWAP1 POP PUSH3 0x3DB JUMP JUMPDEST POP POP JUMP JUMPDEST PUSH1 0x1F DUP3 GT ISZERO PUSH3 0x44B JUMPI PUSH3 0x415 DUP2 PUSH3 0x2CB JUMP JUMPDEST PUSH3 0x420 DUP5 PUSH3 0x2DD JUMP JUMPDEST DUP2 ADD PUSH1 0x20 DUP6 LT ISZERO PUSH3 0x430 JUMPI DUP2 SWAP1 POP JUMPDEST PUSH3 0x448 PUSH3 0x43F DUP6 PUSH3 0x2DD JUMP JUMPDEST DUP4 ADD DUP3 PUSH3 0x3DA JUMP JUMPDEST POP POP JUMPDEST POP POP POP JUMP JUMPDEST PUSH0 DUP3 DUP3 SHR SWAP1 POP SWAP3 SWAP2 POP POP JUMP JUMPDEST PUSH0 PUSH3 0x46D PUSH0 NOT DUP5 PUSH1 0x8 MUL PUSH3 0x450 JUMP JUMPDEST NOT DUP1 DUP4 AND SWAP2 POP POP SWAP3 SWAP2 POP POP JUMP JUMPDEST PUSH0 PUSH3 0x487 DUP4 DUP4 PUSH3 0x45C JUMP JUMPDEST SWAP2 POP DUP3 PUSH1 0x2 MUL DUP3 OR SWAP1 POP SWAP3 SWAP2 POP POP JUMP JUMPDEST PUSH3 0x4A2 DUP3 PUSH3 0x260 JUMP JUMPDEST PUSH8 0xFFFFFFFFFFFFFFFF DUP2 GT ISZERO PUSH3 0x4BE JUMPI PUSH3 0x4BD PUSH3 0xB5 JUMP JUMPDEST JUMPDEST PUSH3 0x4CA DUP3 SLOAD PUSH3 0x297 JUMP JUMPDEST PUSH3 0x4D7 DUP3 DUP3 DUP6 PUSH3 0x400 JUMP JUMPDEST PUSH0 PUSH1 0x20 SWAP1 POP PUSH1 0x1F DUP4 GT PUSH1 0x1 DUP2 EQ PUSH3 0x50D JUMPI PUSH0 DUP5 ISZERO PUSH3 0x4F8 JUMPI DUP3 DUP8 ADD MLOAD SWAP1 POP JUMPDEST PUSH3 0x504 DUP6 DUP3 PUSH3 0x47A JUMP JUMPDEST DUP7 SSTORE POP PUSH3 0x573 JUMP JUMPDEST PUSH1 0x1F NOT DUP5 AND PUSH3 0x51D DUP7 PUSH3 0x2CB JUMP JUMPDEST PUSH0 JUMPDEST DUP3 DUP2 LT ISZERO PUSH3 0x546 JUMPI DUP5 DUP10 ADD MLOAD DUP3 SSTORE PUSH1 0x1 DUP3 ADD SWAP2 POP PUSH1 0x20 DUP6 ADD SWAP5 POP PUSH1 0x20 DUP2 ADD SWAP1 POP PUSH3 0x51F JUMP JUMPDEST DUP7 DUP4 LT ISZERO PUSH3 0x566 JUMPI DUP5 DUP10 ADD MLOAD PUSH3 0x562 PUSH1 0x1F DUP10 AND DUP3 PUSH3 0x45C JUMP JUMPDEST DUP4 SSTORE POP JUMPDEST PUSH1 0x1 PUSH1 0x2 DUP9 MUL ADD DUP9 SSTORE POP POP POP JUMPDEST POP POP POP POP POP POP JUMP JUMPDEST PUSH2 0xC7B DUP1 PUSH3 0x589 PUSH0 CODECOPY PUSH0 RETURN INVALID PUSH1 0x80 PUSH1 0x40 MSTORE PUSH1 0x4 CALLDATASIZE LT PUSH2 0x54 JUMPI PUSH0 CALLDATALOAD PUSH1 0xE0 SHR DUP1 PUSH4 0x476343EE EQ PUSH2 0x58 JUMPI DUP1 PUSH4 0x47E7EF24 EQ PUSH2 0x6E JUMPI DUP1 PUSH4 0x8DA5CB5B EQ PUSH2 0x96 JUMPI DUP1 PUSH4 0x90321E1A EQ PUSH2 0xC0 JUMPI DUP1 PUSH4 0xA4136862 EQ PUSH2 0xEA JUMPI DUP1 PUSH4 0xEF690CC0 EQ PUSH2 0x106 JUMPI JUMPDEST PUSH0 DUP1 REVERT JUMPDEST CALLVALUE DUP1 ISZERO PUSH2 0x63 JUMPI PUSH0 DUP1 REVERT JUMPDEST POP PUSH2 0x6C PUSH2 0x130 JUMP JUMPDEST STOP JUMPDEST CALLVALUE DUP1 ISZERO PUSH2 0x79 JUMPI PUSH0 DUP1 REVERT JUMPDEST POP PUSH2 0x94 PUSH1 0x4 DUP1 CALLDATASIZE SUB DUP2 ADD SWAP1 PUSH2 0x8F SWAP2 SWAP1 PUSH2 0x56F JUMP JUMPDEST PUSH2 0x226 JUMP JUMPDEST STOP JUMPDEST CALLVALUE DUP1 ISZERO PUSH2 0xA1 JUMPI PUSH0 DUP1 REVERT JUMPDEST POP PUSH2 0xAA PUSH2 0x3CA JUMP JUMPDEST PUSH1 0x40 MLOAD PUSH2 0xB7 SWAP2 SWAP1 PUSH2 0x5BC JUMP JUMPDEST PUSH1 0x40 MLOAD DUP1 SWAP2 SUB SWAP1 RETURN JUMPDEST CALLVALUE DUP1 ISZERO PUSH2 0xCB JUMPI PUSH0 DUP1 REVERT JUMPDEST POP PUSH2 0xD4 PUSH2 0x3EF JUMP JUMPDEST PUSH1 0x40 MLOAD PUSH2 0xE1 SWAP2 SWAP1 PUSH2 0x5E4 JUMP JUMPDEST PUSH1 0x40 MLOAD DUP1 SWAP2 SUB SWAP1 RETURN JUMPDEST PUSH2 0x104 PUSH1 0x4 DUP1 CALLDATASIZE SUB DUP2 ADD SWAP1 PUSH2 0xFF SWAP2 SWAP1 PUSH2 0x65E JUMP JUMPDEST PUSH2 0x3F5 JUMP JUMPDEST STOP JUMPDEST CALLVALUE DUP1 ISZERO PUSH2 0x111 JUMPI PUSH0 DUP1 REVERT JUMPDEST POP PUSH2 0x11A PUSH2 0x44F JUMP JUMPDEST PUSH1 0x40 MLOAD PUSH2 0x127 SWAP2 SWAP1 PUSH2 0x733 JUMP JUMPDEST PUSH1 0x40 MLOAD DUP1 SWAP2 SUB SWAP1 RETURN JUMPDEST PUSH1 0x1 PUSH0 SWAP1 SLOAD SWAP1 PUSH2 0x100 EXP SWAP1 DIV PUSH20 0xFFFFFFFFFFFFFFFFFFFFFFFFFFFFFFFFFFFFFFFF AND PUSH20 0xFFFFFFFFFFFFFFFFFFFFFFFFFFFFFFFFFFFFFFFF AND CALLER PUSH20 0xFFFFFFFFFFFFFFFFFFFFFFFFFFFFFFFFFFFFFFFF AND EQ PUSH2 0x1BF JUMPI PUSH1 0x40 MLOAD PUSH32 0x8C379A000000000000000000000000000000000000000000000000000000000 DUP2 MSTORE PUSH1 0x4 ADD PUSH2 0x1B6 SWAP1 PUSH2 0x79D JUMP JUMPDEST PUSH1 0x40 MLOAD DUP1 SWAP2 SUB SWAP1 REVERT JUMPDEST PUSH1 0x1 PUSH0 SWAP1 SLOAD SWAP1 PUSH2 0x100 EXP SWAP1 DIV PUSH20 0xFFFFFFFFFFFFFFFFFFFFFFFFFFFFFFFFFFFFFFFF AND PUSH20 0xFFFFFFFFFFFFFFFFFFFFFFFFFFFFFFFFFFFFFFFF AND PUSH2 0x8FC SELFBALANCE SWAP1 DUP2 ISZERO MUL SWAP1 PUSH1 0x40 MLOAD PUSH0 PUSH1 0x40 MLOAD DUP1 DUP4 SUB DUP2 DUP6 DUP9 DUP9 CALL SWAP4 POP POP POP POP ISZERO DUP1 ISZERO PUSH2 0x223 JUMPI RETURNDATASIZE PUSH0 DUP1 RETURNDATACOPY RETURNDATASIZE PUSH0 REVERT JUMPDEST POP JUMP JUMPDEST PUSH1 0x1 PUSH0 SWAP1 SLOAD SWAP1 PUSH2 0x100 EXP SWAP1 DIV PUSH20 0xFFFFFFFFFFFFFFFFFFFFFFFFFFFFFFFFFFFFFFFF AND PUSH20 0xFFFFFFFFFFFFFFFFFFFFFFFFFFFFFFFFFFFFFFFF AND CALLER PUSH20 0xFFFFFFFFFFFFFFFFFFFFFFFFFFFFFFFFFFFFFFFF AND EQ PUSH2 0x2B5 JUMPI PUSH1 0x40 MLOAD PUSH32 0x8C379A000000000000000000000000000000000000000000000000000000000 DUP2 MSTORE PUSH1 0x4 ADD PUSH2 0x2AC SWAP1 PUSH2 0x79D JUMP JUMPDEST PUSH1 0x40 MLOAD DUP1 SWAP2 SUB SWAP1 REVERT JUMPDEST PUSH0 DUP3 PUSH20 0xFFFFFFFFFFFFFFFFFFFFFFFFFFFFFFFFFFFFFFFF AND PUSH4 0x23B872DD CALLER ADDRESS DUP6 PUSH1 0x40 MLOAD DUP5 PUSH4 0xFFFFFFFF AND PUSH1 0xE0 SHL DUP2 MSTORE PUSH1 0x4 ADD PUSH2 0x2F3 SWAP4 SWAP3 SWAP2 SWAP1 PUSH2 0x7BB JUMP JUMPDEST PUSH1 0x20 PUSH1 0x40 MLOAD DUP1 DUP4 SUB DUP2 PUSH0 DUP8 GAS CALL ISZERO DUP1 ISZERO PUSH2 0x30F JUMPI RETURNDATASIZE PUSH0 DUP1 RETURNDATACOPY RETURNDATASIZE PUSH0 REVERT JUMPDEST POP POP POP POP PUSH1 0x40 MLOAD RETURNDATASIZE PUSH1 0x1F NOT PUSH1 0x1F DUP3 ADD AND DUP3 ADD DUP1 PUSH1 0x40 MSTORE POP DUP2 ADD SWAP1 PUSH2 0x333 SWAP2 SWAP1 PUSH2 0x825 JUMP JUMPDEST SWAP1 POP DUP1 PUSH2 0x375 JUMPI PUSH1 0x40 MLOAD PUSH32 0x8C379A000000000000000000000000000000000000000000000000000000000 DUP2 MSTORE PUSH1 0x4 ADD PUSH2 0x36C SWAP1 PUSH2 0x89A JUMP JUMPDEST PUSH1 0x40 MLOAD DUP1 SWAP2 SUB SWAP1 REVERT JUMPDEST CALLER PUSH20 0xFFFFFFFFFFFFFFFFFFFFFFFFFFFFFFFFFFFFFFFF AND PUSH32 0x8752A472E571A816AEA92EEC8DAE9BAF628E840F4929FBCC2D155E6233FF68A7 DUP5 DUP5 PUSH1 0x40 MLOAD PUSH2 0x3BD SWAP3 SWAP2 SWAP1 PUSH2 0x8B8 JUMP JUMPDEST PUSH1 0x40 MLOAD DUP1 SWAP2 SUB SWAP1 LOG2 POP POP POP JUMP JUMPDEST PUSH1 0x1 PUSH0 SWAP1 SLOAD SWAP1 PUSH2 0x100 EXP SWAP1 DIV PUSH20 0xFFFFFFFFFFFFFFFFFFFFFFFFFFFFFFFFFFFFFFFF AND DUP2 JUMP JUMPDEST PUSH1 0x2 SLOAD DUP2 JUMP JUMPDEST PUSH1 0x2 SLOAD CALLVALUE LT ISZERO PUSH2 0x43A JUMPI PUSH1 0x40 MLOAD PUSH32 0x8C379A000000000000000000000000000000000000000000000000000000000 DUP2 MSTORE PUSH1 0x4 ADD PUSH2 0x431 SWAP1 PUSH2 0x929 JUMP JUMPDEST PUSH1 0x40 MLOAD DUP1 SWAP2 SUB SWAP1 REVERT JUMPDEST DUP2 DUP2 PUSH0 SWAP2 DUP3 PUSH2 0x44A SWAP3 SWAP2 SWAP1 PUSH2 0xB78 JUMP JUMPDEST POP POP POP JUMP JUMPDEST PUSH0 DUP1 SLOAD PUSH2 0x45B SWAP1 PUSH2 0x9AB JUMP JUMPDEST DUP1 PUSH1 0x1F ADD PUSH1 0x20 DUP1 SWAP2 DIV MUL PUSH1 0x20 ADD PUSH1 0x40 MLOAD SWAP1 DUP2 ADD PUSH1 0x40 MSTORE DUP1 SWAP3 SWAP2 SWAP1 DUP2 DUP2 MSTORE PUSH1 0x20 ADD DUP3 DUP1 SLOAD PUSH2 0x487 SWAP1 PUSH2 0x9AB JUMP JUMPDEST DUP1 ISZERO PUSH2 0x4D2 JUMPI DUP1 PUSH1 0x1F LT PUSH2 0x4A9 JUMPI PUSH2 0x100 DUP1 DUP4 SLOAD DIV MUL DUP4 MSTORE SWAP2 PUSH1 0x20 ADD SWAP2 PUSH2 0x4D2 JUMP JUMPDEST DUP3 ADD SWAP2 SWAP1 PUSH0 MSTORE PUSH1 0x20 PUSH0 KECCAK256 SWAP1 JUMPDEST DUP2 SLOAD DUP2 MSTORE SWAP1 PUSH1 0x1 ADD SWAP1 PUSH1 0x20 ADD DUP1 DUP4 GT PUSH2 0x4B5 JUMPI DUP3 SWAP1 SUB PUSH1 0x1F AND DUP3 ADD SWAP2 JUMPDEST POP POP POP POP POP DUP2 JUMP JUMPDEST PUSH0 DUP1 REVERT JUMPDEST PUSH0 DUP1 REVERT JUMPDEST PUSH0 PUSH20 0xFFFFFFFFFFFFFFFFFFFFFFFFFFFFFFFFFFFFFFFF DUP3 AND SWAP1 POP SWAP2 SWAP1 POP JUMP JUMPDEST PUSH0 PUSH2 0x50B DUP3 PUSH2 0x4E2 JUMP JUMPDEST SWAP1 POP SWAP2 SWAP1 POP JUMP JUMPDEST PUSH2 0x51B DUP2 PUSH2 0x501 JUMP JUMPDEST DUP2 EQ PUSH2 0x525 JUMPI PUSH0 DUP1 REVERT JUMPDEST POP JUMP JUMPDEST PUSH0 DUP2 CALLDATALOAD SWAP1 POP PUSH2 0x536 DUP2 PUSH2 0x512 JUMP JUMPDEST SWAP3 SWAP2 POP POP JUMP JUMPDEST PUSH0 DUP2 SWAP1 POP SWAP2 SWAP1 POP JUMP JUMPDEST PUSH2 0x54E DUP2 PUSH2 0x53C JUMP JUMPDEST DUP2 EQ PUSH2 0x558 JUMPI PUSH0 DUP1 REVERT JUMPDEST POP JUMP JUMPDEST PUSH0 DUP2 CALLDATALOAD SWAP1 POP PUSH2 0x569 DUP2 PUSH2 0x545 JUMP JUMPDEST SWAP3 SWAP2 POP POP JUMP JUMPDEST PUSH0 DUP1 PUSH1 0x40 DUP4 DUP6 SUB SLT ISZERO PUSH2 0x585 JUMPI PUSH2 0x584 PUSH2 0x4DA JUMP JUMPDEST JUMPDEST PUSH0 PUSH2 0x592 DUP6 DUP3 DUP7 ADD PUSH2 0x528 JUMP JUMPDEST SWAP3 POP POP PUSH1 0x20 PUSH2 0x5A3 DUP6 DUP3 DUP7 ADD PUSH2 0x55B JUMP JUMPDEST SWAP2 POP POP SWAP3 POP SWAP3 SWAP1 POP JUMP JUMPDEST PUSH2 0x5B6 DUP2 PUSH2 0x501 JUMP JUMPDEST DUP3 MSTORE POP POP JUMP JUMPDEST PUSH0 PUSH1 0x20 DUP3 ADD SWAP1 POP PUSH2 0x5CF PUSH0 DUP4 ADD DUP5 PUSH2 0x5AD JUMP JUMPDEST SWAP3 SWAP2 POP POP JUMP JUMPDEST PUSH2 0x5DE DUP2 PUSH2 0x53C JUMP JUMPDEST DUP3 MSTORE POP POP JUMP JUMPDEST PUSH0 PUSH1 0x20 DUP3 ADD SWAP1 POP PUSH2 0x5F7 PUSH0 DUP4 ADD DUP5 PUSH2 0x5D5 JUMP JUMPDEST SWAP3 SWAP2 POP POP JUMP JUMPDEST PUSH0 DUP1 REVERT JUMPDEST PUSH0 DUP1 REVERT JUMPDEST PUSH0 DUP1 REVERT JUMPDEST PUSH0 DUP1 DUP4 PUSH1 0x1F DUP5 ADD SLT PUSH2 0x61E JUMPI PUSH2 0x61D PUSH2 0x5FD JUMP JUMPDEST JUMPDEST DUP3 CALLDATALOAD SWAP1 POP PUSH8 0xFFFFFFFFFFFFFFFF DUP2 GT ISZERO PUSH2 0x63B JUMPI PUSH2 0x63A PUSH2 0x601 JUMP JUMPDEST JUMPDEST PUSH1 0x20 DUP4 ADD SWAP2 POP DUP4 PUSH1 0x1 DUP3 MUL DUP4 ADD GT ISZERO PUSH2 0x657 JUMPI PUSH2 0x656 PUSH2 0x605 JUMP JUMPDEST JUMPDEST SWAP3 POP SWAP3 SWAP1 POP JUMP JUMPDEST PUSH0 DUP1 PUSH1 0x20 DUP4 DUP6 SUB SLT ISZERO PUSH2 0x674 JUMPI PUSH2 0x673 PUSH2 0x4DA JUMP JUMPDEST JUMPDEST PUSH0 DUP4 ADD CALLDATALOAD PUSH8 0xFFFFFFFFFFFFFFFF DUP2 GT ISZERO PUSH2 0x691 JUMPI PUSH2 0x690 PUSH2 0x4DE JUMP JUMPDEST JUMPDEST PUSH2 0x69D DUP6 DUP3 DUP7 ADD PUSH2 0x609 JUMP JUMPDEST SWAP3 POP SWAP3 POP POP SWAP3 POP SWAP3 SWAP1 POP JUMP JUMPDEST PUSH0 DUP2 MLOAD SWAP1 POP SWAP2 SWAP1 POP JUMP JUMPDEST PUSH0 DUP3 DUP3 MSTORE PUSH1 0x20 DUP3 ADD SWAP1 POP SWAP3 SWAP2 POP POP JUMP JUMPDEST PUSH0 JUMPDEST DUP4 DUP2 LT ISZERO PUSH2 0x6E0 JUMPI DUP1 DUP3 ADD MLOAD DUP2 DUP5 ADD MSTORE PUSH1 0x20 DUP2 ADD SWAP1 POP PUSH2 0x6C5 JUMP JUMPDEST PUSH0 DUP5 DUP5 ADD MSTORE POP POP POP POP JUMP JUMPDEST PUSH0 PUSH1 0x1F NOT PUSH1 0x1F DUP4 ADD AND SWAP1 POP SWAP2 SWAP1 POP JUMP JUMPDEST PUSH0 PUSH2 0x705 DUP3 PUSH2 0x6A9 JUMP JUMPDEST PUSH2 0x70F DUP2 DUP6 PUSH2 0x6B3 JUMP JUMPDEST SWAP4 POP PUSH2 0x71F DUP2 DUP6 PUSH1 0x20 DUP7 ADD PUSH2 0x6C3 JUMP JUMPDEST PUSH2 0x728 DUP2 PUSH2 0x6EB JUMP JUMPDEST DUP5 ADD SWAP2 POP POP SWAP3 SWAP2 POP POP JUMP JUMPDEST PUSH0 PUSH1 0x20 DUP3 ADD SWAP1 POP DUP2 DUP2 SUB PUSH0 DUP4 ADD MSTORE PUSH2 0x74B DUP2 DUP5 PUSH2 0x6FB JUMP JUMPDEST SWAP1 POP SWAP3 SWAP2 POP POP JUMP JUMPDEST PUSH32 0x4F6E6C79206F776E657200000000000000000000000000000000000000000000 PUSH0 DUP3 ADD MSTORE POP JUMP JUMPDEST PUSH0 PUSH2 0x787 PUSH1 0xA DUP4 PUSH2 0x6B3 JUMP JUMPDEST SWAP2 POP PUSH2 0x792 DUP3 PUSH2 0x753 JUMP JUMPDEST PUSH1 0x20 DUP3 ADD SWAP1 POP SWAP2 SWAP1 POP JUMP JUMPDEST PUSH0 PUSH1 0x20 DUP3 ADD SWAP1 POP DUP2 DUP2 SUB PUSH0 DUP4 ADD MSTORE PUSH2 0x7B4 DUP2 PUSH2 0x77B JUMP JUMPDEST SWAP1 POP SWAP2 SWAP1 POP JUMP JUMPDEST PUSH0 PUSH1 0x60 DUP3 ADD SWAP1 POP PUSH2 0x7CE PUSH0 DUP4 ADD DUP7 PUSH2 0x5AD JUMP JUMPDEST PUSH2 0x7DB PUSH1 0x20 DUP4 ADD DUP6 PUSH2 0x5AD JUMP JUMPDEST PUSH2 0x7E8 PUSH1 0x40 DUP4 ADD DUP5 PUSH2 0x5D5 JUMP JUMPDEST SWAP5 SWAP4 POP POP POP POP JUMP JUMPDEST PUSH0 DUP2 ISZERO ISZERO SWAP1 POP SWAP2 SWAP1 POP JUMP JUMPDEST PUSH2 0x804 DUP2 PUSH2 0x7F0 JUMP JUMPDEST DUP2 EQ PUSH2 0x80E JUMPI PUSH0 DUP1 REVERT JUMPDEST POP JUMP JUMPDEST PUSH0 DUP2 MLOAD SWAP1 POP PUSH2 0x81F DUP2 PUSH2 0x7FB JUMP JUMPDEST SWAP3 SWAP2 POP POP JUMP JUMPDEST PUSH0 PUSH1 0x20 DUP3 DUP5 SUB SLT ISZERO PUSH2 0x83A JUMPI PUSH2 0x839 PUSH2 0x4DA JUMP JUMPDEST JUMPDEST PUSH0 PUSH2 0x847 DUP5 DUP3 DUP6 ADD PUSH2 0x811 JUMP JUMPDEST SWAP2 POP POP SWAP3 SWAP2 POP POP JUMP JUMPDEST PUSH32 0x4465706F736974206661696C6564000000000000000000000000000000000000 PUSH0 DUP3 ADD MSTORE POP JUMP JUMPDEST PUSH0 PUSH2 0x884 PUSH1 0xE DUP4 PUSH2 0x6B3 JUMP JUMPDEST SWAP2 POP PUSH2 0x88F DUP3 PUSH2 0x850 JUMP JUMPDEST PUSH1 0x20 DUP3 ADD SWAP1 POP SWAP2 SWAP1 POP JUMP JUMPDEST PUSH0 PUSH1 0x20 DUP3 ADD SWAP1 POP DUP2 DUP2 SUB PUSH0 DUP4 ADD MSTORE PUSH2 0x8B1 DUP2 PUSH2 0x878 JUMP JUMPDEST SWAP1 POP SWAP2 SWAP1 POP JUMP JUMPDEST PUSH0 PUSH1 0x40 DUP3 ADD SWAP1 POP PUSH2 0x8CB PUSH0 DUP4 ADD DUP6 PUSH2 0x5AD JUMP JUMPDEST PUSH2 0x8D8 PUSH1 0x20 DUP4 ADD DUP5 PUSH2 0x5D5 JUMP JUMPDEST SWAP4 SWAP3 POP POP POP JUMP JUMPDEST PUSH32 0x496E73756666696369656E74206665652073656E740000000000000000000000 PUSH0 DUP3 ADD MSTORE POP JUMP JUMPDEST PUSH0 PUSH2 0x913 PUSH1 0x15 DUP4 PUSH2 0x6B3 JUMP JUMPDEST SWAP2 POP PUSH2 0x91E DUP3 PUSH2 0x8DF JUMP JUMPDEST PUSH1 0x20 DUP3 ADD SWAP1 POP SWAP2 SWAP1 POP JUMP JUMPDEST PUSH0 PUSH1 0x20 DUP3 ADD SWAP1 POP DUP2 DUP2 SUB PUSH0 DUP4 ADD MSTORE PUSH2 0x940 DUP2 PUSH2 0x907 JUMP JUMPDEST SWAP1 POP SWAP2 SWAP1 POP JUMP JUMPDEST PUSH0 DUP3 SWAP1 POP SWAP3 SWAP2 POP POP JUMP JUMPDEST PUSH32 0x4E487B7100000000000000000000000000000000000000000000000000000000 PUSH0 MSTORE PUSH1 0x41 PUSH1 0x4 MSTORE PUSH1 0x24 PUSH0 REVERT JUMPDEST PUSH32 0x4E487B7100000000000000000000000000000000000000000000000000000000 PUSH0 MSTORE PUSH1 0x22 PUSH1 0x4 MSTORE PUSH1 0x24 PUSH0 REVERT JUMPDEST PUSH0 PUSH1 0x2 DUP3 DIV SWAP1 POP PUSH1 0x1 DUP3 AND DUP1 PUSH2 0x9C2 JUMPI PUSH1 0x7F DUP3 AND SWAP2 POP JUMPDEST PUSH1 0x20 DUP3 LT DUP2 SUB PUSH2 0x9D5 JUMPI PUSH2 0x9D4 PUSH2 0x97E JUMP JUMPDEST JUMPDEST POP SWAP2 SWAP1 POP JUMP JUMPDEST PUSH0 DUP2 SWAP1 POP DUP2 PUSH0 MSTORE PUSH1 0x20 PUSH0 KECCAK256 SWAP1 POP SWAP2 SWAP1 POP JUMP JUMPDEST PUSH0 PUSH1 0x20 PUSH1 0x1F DUP4 ADD DIV SWAP1 POP SWAP2 SWAP1 POP JUMP JUMPDEST PUSH0 DUP3 DUP3 SHL SWAP1 POP SWAP3 SWAP2 POP POP JUMP JUMPDEST PUSH0 PUSH1 0x8 DUP4 MUL PUSH2 0xA37 PUSH32 0xFFFFFFFFFFFFFFFFFFFFFFFFFFFFFFFFFFFFFFFFFFFFFFFFFFFFFFFFFFFFFFFF DUP3 PUSH2 0x9FC JUMP JUMPDEST PUSH2 0xA41 DUP7 DUP4 PUSH2 0x9FC JUMP JUMPDEST SWAP6 POP DUP1 NOT DUP5 AND SWAP4 POP DUP1 DUP7 AND DUP5 OR SWAP3 POP POP POP SWAP4 SWAP3 POP POP POP JUMP JUMPDEST PUSH0 DUP2 SWAP1 POP SWAP2 SWAP1 POP JUMP JUMPDEST PUSH0 PUSH2 0xA7C PUSH2 0xA77 PUSH2 0xA72 DUP5 PUSH2 0x53C JUMP JUMPDEST PUSH2 0xA59 JUMP JUMPDEST PUSH2 0x53C JUMP JUMPDEST SWAP1 POP SWAP2 SWAP1 POP JUMP JUMPDEST PUSH0 DUP2 SWAP1 POP SWAP2 SWAP1 POP JUMP JUMPDEST PUSH2 0xA95 DUP4 PUSH2 0xA62 JUMP JUMPDEST PUSH2 0xAA9 PUSH2 0xAA1 DUP3 PUSH2 0xA83 JUMP JUMPDEST DUP5 DUP5 SLOAD PUSH2 0xA08 JUMP JUMPDEST DUP3 SSTORE POP POP POP POP JUMP JUMPDEST PUSH0 SWAP1 JUMP JUMPDEST PUSH2 0xABD PUSH2 0xAB1 JUMP JUMPDEST PUSH2 0xAC8 DUP2 DUP5 DUP5 PUSH2 0xA8C JUMP JUMPDEST POP POP POP JUMP JUMPDEST JUMPDEST DUP2 DUP2 LT ISZERO PUSH2 0xAEB JUMPI PUSH2 0xAE0 PUSH0 DUP3 PUSH2 0xAB5 JUMP JUMPDEST PUSH1 0x1 DUP2 ADD SWAP1 POP PUSH2 0xACE JUMP JUMPDEST POP POP JUMP JUMPDEST PUSH1 0x1F DUP3 GT ISZERO PUSH2 0xB30 JUMPI PUSH2 0xB01 DUP2 PUSH2 0x9DB JUMP JUMPDEST PUSH2 0xB0A DUP5 PUSH2 0x9ED JUMP JUMPDEST DUP2 ADD PUSH1 0x20 DUP6 LT ISZERO PUSH2 0xB19 JUMPI DUP2 SWAP1 POP JUMPDEST PUSH2 0xB2D PUSH2 0xB25 DUP6 PUSH2 0x9ED JUMP JUMPDEST DUP4 ADD DUP3 PUSH2 0xACD JUMP JUMPDEST POP POP JUMPDEST POP POP POP JUMP JUMPDEST PUSH0 DUP3 DUP3 SHR SWAP1 POP SWAP3 SWAP2 POP POP JUMP JUMPDEST PUSH0 PUSH2 0xB50 PUSH0 NOT DUP5 PUSH1 0x8 MUL PUSH2 0xB35 JUMP JUMPDEST NOT DUP1 DUP4 AND SWAP2 POP POP SWAP3 SWAP2 POP POP JUMP JUMPDEST PUSH0 PUSH2 0xB68 DUP4 DUP4 PUSH2 0xB41 JUMP JUMPDEST SWAP2 POP DUP3 PUSH1 0x2 MUL DUP3 OR SWAP1 POP SWAP3 SWAP2 POP POP JUMP JUMPDEST PUSH2 0xB82 DUP4 DUP4 PUSH2 0x947 JUMP JUMPDEST PUSH8 0xFFFFFFFFFFFFFFFF DUP2 GT ISZERO PUSH2 0xB9B JUMPI PUSH2 0xB9A PUSH2 0x951 JUMP JUMPDEST JUMPDEST PUSH2 0xBA5 DUP3 SLOAD PUSH2 0x9AB JUMP JUMPDEST PUSH2 0xBB0 DUP3 DUP3 DUP6 PUSH2 0xAEF JUMP JUMPDEST PUSH0 PUSH1 0x1F DUP4 GT PUSH1 0x1 DUP2 EQ PUSH2 0xBDD JUMPI PUSH0 DUP5 ISZERO PUSH2 0xBCB JUMPI DUP3 DUP8 ADD CALLDATALOAD SWAP1 POP JUMPDEST PUSH2 0xBD5 DUP6 DUP3 PUSH2 0xB5D JUMP JUMPDEST DUP7 SSTORE POP PUSH2 0xC3C JUMP JUMPDEST PUSH1 0x1F NOT DUP5 AND PUSH2 0xBEB DUP7 PUSH2 0x9DB JUMP JUMPDEST PUSH0 JUMPDEST DUP3 DUP2 LT ISZERO PUSH2 0xC12 JUMPI DUP5 DUP10 ADD CALLDATALOAD DUP3 SSTORE PUSH1 0x1 DUP3 ADD SWAP2 POP PUSH1 0x20 DUP6 ADD SWAP5 POP PUSH1 0x20 DUP2 ADD SWAP1 POP PUSH2 0xBED JUMP JUMPDEST DUP7 DUP4 LT ISZERO PUSH2 0xC2F JUMPI DUP5 DUP10 ADD CALLDATALOAD PUSH2 0xC2B PUSH1 0x1F DUP10 AND DUP3 PUSH2 0xB41 JUMP JUMPDEST DUP4 SSTORE POP JUMPDEST PUSH1 0x1 PUSH1 0x2 DUP9 MUL ADD DUP9 SSTORE POP POP POP JUMPDEST POP POP POP POP POP POP POP JUMP INVALID LOG2 PUSH5 0x6970667358 0x22 SLT KECCAK256 0xD7 LT PUSH5 0x8291A65714 PUSH19 0xAB8C5F99C23A3A7A7A538123FF7084FED9368C 0xD2 SWAP4 SWAP12 0xD9 PUSH5 0x736F6C6343 STOP ADDMOD EQ STOP CALLER "
				},
				"gasEstimates": {
					"creation": {
						"codeDepositCost": "639000",
						"executionCost": "infinite",
						"totalCost": "infinite"
					},
					"external": {
						"callFee()": "2469",
						"deposit(address,uint256)": "infinite",
						"greeting()": "infinite",
						"owner()": "2530",
						"setGreeting(string)": "infinite",
						"withdrawFees()": "infinite"
					}
				},
				"methodIdentifiers": {
					"callFee()": "90321e1a",
					"deposit(address,uint256)": "47e7ef24",
					"greeting()": "ef690cc0",
					"owner()": "8da5cb5b",
					"setGreeting(string)": "a4136862",
					"withdrawFees()": "476343ee"
				}
			},
			"storageLayout": {
				"storage": [
					{
						"astId": 31,
						"contract": "gmonad.sol:Gmonad",
						"label": "greeting",
						"offset": 0,
						"slot": "0",
						"type": "t_string_storage"
					},
					{
						"astId": 33,
						"contract": "gmonad.sol:Gmonad",
						"label": "owner",
						"offset": 0,
						"slot": "1",
						"type": "t_address"
					},
					{
						"astId": 36,
						"contract": "gmonad.sol:Gmonad",
						"label": "callFee",
						"offset": 0,
						"slot": "2",
						"type": "t_uint256"
					}
				],
				"types": {
					"t_address": {
						"encoding": "inplace",
						"label": "address",
						"numberOfBytes": "20"
					},
					"t_string_storage": {
						"encoding": "bytes",
						"label": "string",
						"numberOfBytes": "32"
					},
					"t_uint256": {
						"encoding": "inplace",
						"label": "uint256",
						"numberOfBytes": "32"
					}
				}
			},
			"userdoc": {
				"kind": "user",
				"methods": {},
				"version": 1
			}
		}
	}
}