{
	"data": {
		"bytecode": {
			"linkReferences": {},
			"object": "608060405266038d7ea4c6800060025560405162003cd438038062003cd4833981810160405281019062000034919062000211565b805f908162000044919062000497565b503360015f6101000a81548173ffffffffffffffffffffffffffffffffffffffff021916908373ffffffffffffffffffffffffffffffffffffffff160217905550506200057b565b5f604051905090565b5f80fd5b5f80fd5b5f80fd5b5f80fd5b5f601f19601f8301169050919050565b7f4e487b71000000000000000000000000000000000000000000000000000000005f52604160045260245ffd5b620000ed82620000a5565b810181811067ffffffffffffffff821117156200010f576200010e620000b5565b5b80604052505050565b5f620001236200008c565b9050620001318282620000e2565b919050565b5f67ffffffffffffffff821115620001535762000152620000b5565b5b6200015e82620000a5565b9050602081019050919050565b5f5b838110156200018a5780820151818401526020810190506200016d565b5f8484015250505050565b5f620001ab620001a58462000136565b62000118565b905082815260208101848484011115620001ca57620001c9620000a1565b5b620001d78482856200016b565b509392505050565b5f82601f830112620001f657620001f56200009d565b5b81516200020884826020860162000195565b91505092915050565b5f6020828403121562000229576200022862000095565b5b5f82015167ffffffffffffffff81111562000249576200024862000099565b5b6200025784828501620001df565b91505092915050565b5f81519050919050565b7f4e487b71000000000000000000000000000000000000000000000000000000005f52602260045260245ffd5b5f6002820490506001821680620002af57607f821691505b602082108103620002c557620002c46200026a565b5b50919050565b5f819050815f5260205f209050919050565b5f6020601f8301049050919050565b5f82821b905092915050565b5f60088302620003297fffffffffffffffffffffffffffffffffffffffffffffffffffffffffffffffff82620002ec565b620003358683620002ec565b95508019841693508086168417925050509392505050565b5f819050919050565b5f819050919050565b5f6200037f6200037962000373846200034d565b62000356565b6200034d565b9050919050565b5f819050919050565b6200039a836200035f565b620003b2620003a98262000386565b848454620002f8565b825550505050565b5f90565b620003c8620003ba565b620003d58184846200038f565b505050565b5b81811015620003fc57620003f05f82620003be565b600181019050620003db565b5050565b601f8211156200044b576200041581620002cb565b6200042084620002dd565b8101602085101562000430578190505b620004486200043f85620002dd565b830182620003da565b50505b505050565b5f82821c905092915050565b5f6200046d5f198460080262000450565b1980831691505092915050565b5f6200048783836200045c565b9150826002028217905092915050565b620004a28262000260565b67ffffffffffffffff811115620004be57620004bd620000b5565b5b620004ca825462000297565b620004d782828562000400565b5f60209050601f8311600181146200050d575f8415620004f8578287015190505b6200050485826200047a565b86555062000573565b601f1984166200051d86620002cb565b5f5b8281101562000546578489015182556001820191506020850194506020810190506200051f565b8683101562000566578489015162000562601f8916826200045c565b8355505b6001600288020188555050505b505050505050565b61374b80620005895f395ff3fe608060405260043610610117575f3560e01c806390321e1a1161009f578063c8a34efe11610063578063c8a34efe1461036c578063e086e5ec14610394578063ef690cc0146103aa578063f5465992146103d4578063fe029156146104105761011e565b806390321e1a146102b857806395310efa146102e257806397b8c3cb1461030a578063a413686214610314578063adb51980146103305761011e565b806347e7ef24116100e657806347e7ef24146101d75780636677b49b146101ff5780638305368a1461022a57806389476069146102665780638da5cb5b1461028e5761011e565b8063062dd33114610120578063087c3d4b146101365780631edb27e91461015e57806343ab265f1461019b5761011e565b3661011e57005b005b34801561012b575f80fd5b5061013461042c565b005b348015610141575f80fd5b5061015c600480360381019061015791906123fa565b610636565b005b348015610169575f80fd5b50610184600480360381019061017f919061244a565b610a2e565b6040516101929291906125e3565b60405180910390f35b3480156101a6575f80fd5b506101c160048036038101906101bc919061244a565b610c1a565b6040516101ce9190612627565b60405180910390f35b3480156101e2575f80fd5b506101fd60048036038101906101f89190612640565b610ce8565b005b34801561020a575f80fd5b50610213610f66565b6040516102219291906125e3565b60405180910390f35b348015610235575f80fd5b50610250600480360381019061024b919061267e565b611150565b60405161025d91906126b8565b60405180910390f35b348015610271575f80fd5b5061028c6004803603810190610287919061244a565b61118b565b005b348015610299575f80fd5b506102a261137d565b6040516102af91906126b8565b60405180910390f35b3480156102c3575f80fd5b506102cc6113a2565b6040516102d99190612627565b60405180910390f35b3480156102ed575f80fd5b5061030860048036038101906103039190612640565b6113a8565b005b610312611673565b005b61032e60048036038101906103299190612732565b611992565b005b34801561033b575f80fd5b506103566004803603810190610351919061277d565b6119ec565b6040516103639190612627565b60405180910390f35b348015610377575f80fd5b50610392600480360381019061038d919061267e565b611a0c565b005b34801561039f575f80fd5b506103a8611c60565b005b3480156103b5575f80fd5b506103be611d56565b6040516103cb9190612845565b60405180910390f35b3480156103df575f80fd5b506103fa60048036038101906103f5919061244a565b611de1565b6040516104079190612627565b60405180910390f35b61042a60048036038101906104259190612865565b611df6565b005b60015f9054906101000a900473ffffffffffffffffffffffffffffffffffffffff1673ffffffffffffffffffffffffffffffffffffffff163373ffffffffffffffffffffffffffffffffffffffff16146104bb576040517f08c379a00000000000000000000000000000000000000000000000000000000081526004016104b290612913565b60405180910390fd5b5f73760afe86e5de5fa0ee542fc7b7b713e1c542570190505f8190505f8173ffffffffffffffffffffffffffffffffffffffff166370a08231306040518263ffffffff1660e01b815260040161051191906126b8565b602060405180830381865afa15801561052c573d5f803e3d5ffd5b505050506040513d601f19601f820116820180604052508101906105509190612945565b90505f8111610594576040517f08c379a000000000000000000000000000000000000000000000000000000000815260040161058b906129ba565b60405180910390fd5b8173ffffffffffffffffffffffffffffffffffffffff1663a9059cbb60015f9054906101000a900473ffffffffffffffffffffffffffffffffffffffff16836040518363ffffffff1660e01b81526004016105f09291906129d8565b6020604051808303815f875af115801561060c573d5f803e3d5ffd5b505050506040513d601f19601f820116820180604052508101906106309190612a34565b50505050565b5f8111610678576040517f08c379a000000000000000000000000000000000000000000000000000000000815260040161066f90612aa9565b60405180910390fd5b5f73ffffffffffffffffffffffffffffffffffffffff168373ffffffffffffffffffffffffffffffffffffffff16141580156106e057505f73ffffffffffffffffffffffffffffffffffffffff168273ffffffffffffffffffffffffffffffffffffffff1614155b61071f576040517f08c379a000000000000000000000000000000000000000000000000000000000815260040161071690612b11565b60405180910390fd5b5f8390505f8390505f8273ffffffffffffffffffffffffffffffffffffffff1663dd62ed3e33306040518363ffffffff1660e01b8152600401610763929190612b2f565b602060405180830381865afa15801561077e573d5f803e3d5ffd5b505050506040513d601f19601f820116820180604052508101906107a29190612945565b9050838110156107e7576040517f08c379a00000000000000000000000000000000000000000000000000000000081526004016107de90612ba0565b60405180910390fd5b5f8373ffffffffffffffffffffffffffffffffffffffff166323b872dd3330886040518463ffffffff1660e01b815260040161082593929190612bbe565b6020604051808303815f875af1158015610841573d5f803e3d5ffd5b505050506040513d601f19601f820116820180604052508101906108659190612a34565b9050806108a7576040517f08c379a000000000000000000000000000000000000000000000000000000000815260040161089e90612c3d565b60405180910390fd5b5f8373ffffffffffffffffffffffffffffffffffffffff166370a08231306040518263ffffffff1660e01b81526004016108e191906126b8565b602060405180830381865afa1580156108fc573d5f803e3d5ffd5b505050506040513d601f19601f820116820180604052508101906109209190612945565b905085811015610965576040517f08c379a000000000000000000000000000000000000000000000000000000000815260040161095c90612ca5565b60405180910390fd5b5f8473ffffffffffffffffffffffffffffffffffffffff1663a9059cbb33896040518363ffffffff1660e01b81526004016109a19291906129d8565b6020604051808303815f875af11580156109bd573d5f803e3d5ffd5b505050506040513d601f19601f820116820180604052508101906109e19190612a34565b905080610a23576040517f08c379a0000000000000000000000000000000000000000000000000000000008152600401610a1a90612d0d565b60405180910390fd5b505050505050505050565b6060805f60058054905090508067ffffffffffffffff811115610a5457610a53612d2b565b5b604051908082528060200260200182016040528015610a825781602001602082028036833780820191505090505b5092508067ffffffffffffffff811115610a9f57610a9e612d2b565b5b604051908082528060200260200182016040528015610acd5781602001602082028036833780820191505090505b5091505f5b81811015610c13575f60058281548110610aef57610aee612d58565b5b905f5260205f20015f9054906101000a900473ffffffffffffffffffffffffffffffffffffffff16905080858381518110610b2d57610b2c612d58565b5b602002602001019073ffffffffffffffffffffffffffffffffffffffff16908173ffffffffffffffffffffffffffffffffffffffff168152505060045f8773ffffffffffffffffffffffffffffffffffffffff1673ffffffffffffffffffffffffffffffffffffffff1681526020019081526020015f205f8273ffffffffffffffffffffffffffffffffffffffff1673ffffffffffffffffffffffffffffffffffffffff1681526020019081526020015f2054848381518110610bf357610bf2612d58565b5b602002602001018181525050508080610c0b90612db2565b915050610ad2565b5050915091565b5f808273ffffffffffffffffffffffffffffffffffffffff1663313ce5676040518163ffffffff1660e01b8152600401602060405180830381865afa158015610c65573d5f803e3d5ffd5b505050506040513d601f19601f82011682018060405250810190610c899190612e2f565b905080600a610c989190612f89565b60035f8573ffffffffffffffffffffffffffffffffffffffff1673ffffffffffffffffffffffffffffffffffffffff1681526020019081526020015f2054610ce09190613000565b915050919050565b5f8111610d2a576040517f08c379a0000000000000000000000000000000000000000000000000000000008152600401610d219061307a565b60405180910390fd5b5f8290505f610d3984846122d0565b90505f8273ffffffffffffffffffffffffffffffffffffffff1663dd62ed3e33306040518363ffffffff1660e01b8152600401610d77929190612b2f565b602060405180830381865afa158015610d92573d5f803e3d5ffd5b505050506040513d601f19601f82011682018060405250810190610db69190612945565b905081811015610dfb576040517f08c379a0000000000000000000000000000000000000000000000000000000008152600401610df2906130e2565b60405180910390fd5b5f8373ffffffffffffffffffffffffffffffffffffffff166323b872dd3330866040518463ffffffff1660e01b8152600401610e3993929190612bbe565b6020604051808303815f875af1158015610e55573d5f803e3d5ffd5b505050506040513d601f19601f82011682018060405250810190610e799190612a34565b905080610ebb576040517f08c379a0000000000000000000000000000000000000000000000000000000008152600401610eb29061314a565b60405180910390fd5b8260035f8873ffffffffffffffffffffffffffffffffffffffff1673ffffffffffffffffffffffffffffffffffffffff1681526020019081526020015f205f828254610f079190613168565b925050819055503373ffffffffffffffffffffffffffffffffffffffff167f8752a472e571a816aea92eec8dae9baf628e840f4929fbcc2d155e6233ff68a78785604051610f569291906129d8565b60405180910390a2505050505050565b6060805f60058054905090508067ffffffffffffffff811115610f8c57610f8b612d2b565b5b604051908082528060200260200182016040528015610fba5781602001602082028036833780820191505090505b5092508067ffffffffffffffff811115610fd757610fd6612d2b565b5b6040519080825280602002602001820160405280156110055781602001602082028036833780820191505090505b5091505f5b8181101561114a575f6005828154811061102757611026612d58565b5b905f5260205f20015f9054906101000a900473ffffffffffffffffffffffffffffffffffffffff1690508085838151811061106557611064612d58565b5b602002602001019073ffffffffffffffffffffffffffffffffffffffff16908173ffffffffffffffffffffffffffffffffffffffff16815250508073ffffffffffffffffffffffffffffffffffffffff166370a08231306040518263ffffffff1660e01b81526004016110d891906126b8565b602060405180830381865afa1580156110f3573d5f803e3d5ffd5b505050506040513d601f19601f820116820180604052508101906111179190612945565b84838151811061112a57611129612d58565b5b60200260200101818152505050808061114290612db2565b91505061100a565b50509091565b6005818154811061115f575f80fd5b905f5260205f20015f915054906101000a900473ffffffffffffffffffffffffffffffffffffffff1681565b60015f9054906101000a900473ffffffffffffffffffffffffffffffffffffffff1673ffffffffffffffffffffffffffffffffffffffff163373ffffffffffffffffffffffffffffffffffffffff161461121a576040517f08c379a000000000000000000000000000000000000000000000000000000000815260040161121190612913565b60405180910390fd5b5f8190505f8173ffffffffffffffffffffffffffffffffffffffff166370a08231306040518263ffffffff1660e01b815260040161125891906126b8565b602060405180830381865afa158015611273573d5f803e3d5ffd5b505050506040513d601f19601f820116820180604052508101906112979190612945565b90505f81116112db576040517f08c379a00000000000000000000000000000000000000000000000000000000081526004016112d2906129ba565b60405180910390fd5b8173ffffffffffffffffffffffffffffffffffffffff1663a9059cbb60015f9054906101000a900473ffffffffffffffffffffffffffffffffffffffff16836040518363ffffffff1660e01b81526004016113379291906129d8565b6020604051808303815f875af1158015611353573d5f803e3d5ffd5b505050506040513d601f19601f820116820180604052508101906113779190612a34565b50505050565b60015f9054906101000a900473ffffffffffffffffffffffffffffffffffffffff1681565b60025481565b60015f9054906101000a900473ffffffffffffffffffffffffffffffffffffffff1673ffffffffffffffffffffffffffffffffffffffff163373ffffffffffffffffffffffffffffffffffffffff1614611437576040517f08c379a000000000000000000000000000000000000000000000000000000000815260040161142e90612913565b60405180910390fd5b5f8290505f61144684846122d0565b90505f8273ffffffffffffffffffffffffffffffffffffffff1663dd62ed3e33306040518363ffffffff1660e01b8152600401611484929190612b2f565b602060405180830381865afa15801561149f573d5f803e3d5ffd5b505050506040513d601f19601f820116820180604052508101906114c39190612945565b905081811015611508576040517f08c379a00000000000000000000000000000000000000000000000000000000081526004016114ff906130e2565b60405180910390fd5b5f8373ffffffffffffffffffffffffffffffffffffffff166323b872dd3330866040518463ffffffff1660e01b815260040161154693929190612bbe565b6020604051808303815f875af1158015611562573d5f803e3d5ffd5b505050506040513d601f19601f820116820180604052508101906115869190612a34565b9050806115c8576040517f08c379a00000000000000000000000000000000000000000000000000000000081526004016115bf9061314a565b60405180910390fd5b8260035f8873ffffffffffffffffffffffffffffffffffffffff1673ffffffffffffffffffffffffffffffffffffffff1681526020019081526020015f205f8282546116149190613168565b925050819055503373ffffffffffffffffffffffffffffffffffffffff167f8752a472e571a816aea92eec8dae9baf628e840f4929fbcc2d155e6233ff68a787856040516116639291906129d8565b60405180910390a2505050505050565b5f73760afe86e5de5fa0ee542fc7b7b713e1c542570190505f8173ffffffffffffffffffffffffffffffffffffffff1663dd62ed3e33306040518363ffffffff1660e01b81526004016116c7929190612b2f565b602060405180830381865afa1580156116e2573d5f803e3d5ffd5b505050506040513d601f19601f820116820180604052508101906117069190612945565b508173ffffffffffffffffffffffffffffffffffffffff166323b872dd333067016345785d8a00006040518463ffffffff1660e01b815260040161174c939291906131dd565b6020604051808303815f875af1158015611768573d5f803e3d5ffd5b505050506040513d601f19601f8201168201806040525081019061178c9190612a34565b505f8173ffffffffffffffffffffffffffffffffffffffff1663a9059cbb3367016345785d8a00006040518363ffffffff1660e01b81526004016117d1929190613212565b6020604051808303815f875af11580156117ed573d5f803e3d5ffd5b505050506040513d601f19601f820116820180604052508101906118119190612a34565b905080611853576040517f08c379a000000000000000000000000000000000000000000000000000000000815260040161184a90612d0d565b60405180910390fd5b67016345785d8a000060035f73760afe86e5de5fa0ee542fc7b7b713e1c542570173ffffffffffffffffffffffffffffffffffffffff1673ffffffffffffffffffffffffffffffffffffffff1681526020019081526020015f205f8282546118bb9190613168565b9250508190555067016345785d8a000060035f8073ffffffffffffffffffffffffffffffffffffffff1673ffffffffffffffffffffffffffffffffffffffff1681526020019081526020015f205f8282546119169190613239565b925050819055503373ffffffffffffffffffffffffffffffffffffffff167f6782190c91d4a7e8ad2a867deed6ec0a970cab8ff137ae2bd4abd92b3810f4d373760afe86e5de5fa0ee542fc7b7b713e1c54257015f67016345785d8a000080604051611985949392919061326c565b60405180910390a2505050565b6002543410156119d7576040517f08c379a00000000000000000000000000000000000000000000000000000000081526004016119ce906132f9565b60405180910390fd5b81815f91826119e7929190613512565b505050565b6004602052815f5260405f20602052805f5260405f205f91509150505481565b5f73760afe86e5de5fa0ee542fc7b7b713e1c542570190505f8190505f611a3383856122d0565b90505f8273ffffffffffffffffffffffffffffffffffffffff1663dd62ed3e33306040518363ffffffff1660e01b8152600401611a71929190612b2f565b602060405180830381865afa158015611a8c573d5f803e3d5ffd5b505050506040513d601f19601f82011682018060405250810190611ab09190612945565b905081811015611af5576040517f08c379a0000000000000000000000000000000000000000000000000000000008152600401611aec906130e2565b60405180910390fd5b5f8373ffffffffffffffffffffffffffffffffffffffff166323b872dd3330866040518463ffffffff1660e01b8152600401611b3393929190612bbe565b6020604051808303815f875af1158015611b4f573d5f803e3d5ffd5b505050506040513d601f19601f82011682018060405250810190611b739190612a34565b905080611bb5576040517f08c379a0000000000000000000000000000000000000000000000000000000008152600401611bac9061314a565b60405180910390fd5b8260035f8773ffffffffffffffffffffffffffffffffffffffff1673ffffffffffffffffffffffffffffffffffffffff1681526020019081526020015f205f828254611c019190613168565b925050819055503373ffffffffffffffffffffffffffffffffffffffff167f8752a472e571a816aea92eec8dae9baf628e840f4929fbcc2d155e6233ff68a78685604051611c509291906129d8565b60405180910390a2505050505050565b60015f9054906101000a900473ffffffffffffffffffffffffffffffffffffffff1673ffffffffffffffffffffffffffffffffffffffff163373ffffffffffffffffffffffffffffffffffffffff1614611cef576040517f08c379a0000000000000000000000000000000000000000000000000000000008152600401611ce690612913565b60405180910390fd5b60015f9054906101000a900473ffffffffffffffffffffffffffffffffffffffff1673ffffffffffffffffffffffffffffffffffffffff166108fc4790811502906040515f60405180830381858888f19350505050158015611d53573d5f803e3d5ffd5b50565b5f8054611d629061334e565b80601f0160208091040260200160405190810160405280929190818152602001828054611d8e9061334e565b8015611dd95780601f10611db057610100808354040283529160200191611dd9565b820191905f5260205f20905b815481529060010190602001808311611dbc57829003601f168201915b505050505081565b6003602052805f5260405f205f915090505481565b600254341015611e3b576040517f08c379a0000000000000000000000000000000000000000000000000000000008152600401611e32906132f9565b60405180910390fd5b5f8211611e7d576040517f08c379a0000000000000000000000000000000000000000000000000000000008152600401611e7490612aa9565b60405180910390fd5b5f8490505f8490505f611e9087866122d0565b90505f8373ffffffffffffffffffffffffffffffffffffffff1663dd62ed3e33306040518363ffffffff1660e01b8152600401611ece929190612b2f565b602060405180830381865afa158015611ee9573d5f803e3d5ffd5b505050506040513d601f19601f82011682018060405250810190611f0d9190612945565b905081811015611f52576040517f08c379a0000000000000000000000000000000000000000000000000000000008152600401611f49906130e2565b60405180910390fd5b5f8473ffffffffffffffffffffffffffffffffffffffff166323b872dd3330866040518463ffffffff1660e01b8152600401611f9093929190612bbe565b6020604051808303815f875af1158015611fac573d5f803e3d5ffd5b505050506040513d601f19601f82011682018060405250810190611fd09190612a34565b905080612012576040517f08c379a000000000000000000000000000000000000000000000000000000000815260040161200990612c3d565b60405180910390fd5b670de0b6b3a7640000868461202791906135df565b6120319190613000565b5067016345785d8a00008473ffffffffffffffffffffffffffffffffffffffff166370a08231306040518263ffffffff1660e01b815260040161207491906126b8565b602060405180830381865afa15801561208f573d5f803e3d5ffd5b505050506040513d601f19601f820116820180604052508101906120b39190612945565b10156120f4576040517f08c379a00000000000000000000000000000000000000000000000000000000081526004016120eb9061366a565b60405180910390fd5b5f8473ffffffffffffffffffffffffffffffffffffffff1663a9059cbb3367016345785d8a00006040518363ffffffff1660e01b8152600401612138929190613212565b6020604051808303815f875af1158015612154573d5f803e3d5ffd5b505050506040513d601f19601f820116820180604052508101906121789190612a34565b9050806121ba576040517f08c379a00000000000000000000000000000000000000000000000000000000081526004016121b190612d0d565b60405180910390fd5b8360035f8c73ffffffffffffffffffffffffffffffffffffffff1673ffffffffffffffffffffffffffffffffffffffff1681526020019081526020015f205f8282546122069190613168565b9250508190555067016345785d8a000060035f8b73ffffffffffffffffffffffffffffffffffffffff1673ffffffffffffffffffffffffffffffffffffffff1681526020019081526020015f205f8282546122619190613239565b925050819055503373ffffffffffffffffffffffffffffffffffffffff167f6782190c91d4a7e8ad2a867deed6ec0a970cab8ff137ae2bd4abd92b3810f4d38b8b8767016345785d8a00006040516122bc9493929190613688565b60405180910390a250505050505050505050565b5f808373ffffffffffffffffffffffffffffffffffffffff1663313ce5676040518163ffffffff1660e01b8152600401602060405180830381865afa15801561231b573d5f803e3d5ffd5b505050506040513d601f19601f8201168201806040525081019061233f9190612e2f565b90508060ff16600a61235191906136cb565b8361235c91906135df565b91505092915050565b5f80fd5b5f80fd5b5f73ffffffffffffffffffffffffffffffffffffffff82169050919050565b5f6123968261236d565b9050919050565b6123a68161238c565b81146123b0575f80fd5b50565b5f813590506123c18161239d565b92915050565b5f819050919050565b6123d9816123c7565b81146123e3575f80fd5b50565b5f813590506123f4816123d0565b92915050565b5f805f6060848603121561241157612410612365565b5b5f61241e868287016123b3565b935050602061242f868287016123b3565b9250506040612440868287016123e6565b9150509250925092565b5f6020828403121561245f5761245e612365565b5b5f61246c848285016123b3565b91505092915050565b5f81519050919050565b5f82825260208201905092915050565b5f819050602082019050919050565b6124a78161238c565b82525050565b5f6124b8838361249e565b60208301905092915050565b5f602082019050919050565b5f6124da82612475565b6124e4818561247f565b93506124ef8361248f565b805f5b8381101561251f57815161250688826124ad565b9750612511836124c4565b9250506001810190506124f2565b5085935050505092915050565b5f81519050919050565b5f82825260208201905092915050565b5f819050602082019050919050565b61255e816123c7565b82525050565b5f61256f8383612555565b60208301905092915050565b5f602082019050919050565b5f6125918261252c565b61259b8185612536565b93506125a683612546565b805f5b838110156125d65781516125bd8882612564565b97506125c88361257b565b9250506001810190506125a9565b5085935050505092915050565b5f6040820190508181035f8301526125fb81856124d0565b9050818103602083015261260f8184612587565b90509392505050565b612621816123c7565b82525050565b5f60208201905061263a5f830184612618565b92915050565b5f806040838503121561265657612655612365565b5b5f612663858286016123b3565b9250506020612674858286016123e6565b9150509250929050565b5f6020828403121561269357612692612365565b5b5f6126a0848285016123e6565b91505092915050565b6126b28161238c565b82525050565b5f6020820190506126cb5f8301846126a9565b92915050565b5f80fd5b5f80fd5b5f80fd5b5f8083601f8401126126f2576126f16126d1565b5b8235905067ffffffffffffffff81111561270f5761270e6126d5565b5b60208301915083600182028301111561272b5761272a6126d9565b5b9250929050565b5f806020838503121561274857612747612365565b5b5f83013567ffffffffffffffff81111561276557612764612369565b5b612771858286016126dd565b92509250509250929050565b5f806040838503121561279357612792612365565b5b5f6127a0858286016123b3565b92505060206127b1858286016123b3565b9150509250929050565b5f81519050919050565b5f82825260208201905092915050565b5f5b838110156127f25780820151818401526020810190506127d7565b5f8484015250505050565b5f601f19601f8301169050919050565b5f612817826127bb565b61282181856127c5565b93506128318185602086016127d5565b61283a816127fd565b840191505092915050565b5f6020820190508181035f83015261285d818461280d565b905092915050565b5f805f806080858703121561287d5761287c612365565b5b5f61288a878288016123b3565b945050602061289b878288016123b3565b93505060406128ac878288016123e6565b92505060606128bd878288016123e6565b91505092959194509250565b7f4f6e6c79206f776e6572000000000000000000000000000000000000000000005f82015250565b5f6128fd600a836127c5565b9150612908826128c9565b602082019050919050565b5f6020820190508181035f83015261292a816128f1565b9050919050565b5f8151905061293f816123d0565b92915050565b5f6020828403121561295a57612959612365565b5b5f61296784828501612931565b91505092915050565b7f4e6f20746f6b656e2062616c616e6365000000000000000000000000000000005f82015250565b5f6129a46010836127c5565b91506129af82612970565b602082019050919050565b5f6020820190508181035f8301526129d181612998565b9050919050565b5f6040820190506129eb5f8301856126a9565b6129f86020830184612618565b9392505050565b5f8115159050919050565b612a13816129ff565b8114612a1d575f80fd5b50565b5f81519050612a2e81612a0a565b92915050565b5f60208284031215612a4957612a48612365565b5b5f612a5684828501612a20565b91505092915050565b7f416d6f756e74206d757374206265203e203000000000000000000000000000005f82015250565b5f612a936012836127c5565b9150612a9e82612a5f565b602082019050919050565b5f6020820190508181035f830152612ac081612a87565b9050919050565b7f496e76616c696420746f6b656e206164647265737300000000000000000000005f82015250565b5f612afb6015836127c5565b9150612b0682612ac7565b602082019050919050565b5f6020820190508181035f830152612b2881612aef565b9050919050565b5f604082019050612b425f8301856126a9565b612b4f60208301846126a9565b9392505050565b7f4e6f7420656e6f75676820616c6c6f77616e636520666f7220546f6b656e41005f82015250565b5f612b8a601f836127c5565b9150612b9582612b56565b602082019050919050565b5f6020820190508181035f830152612bb781612b7e565b9050919050565b5f606082019050612bd15f8301866126a9565b612bde60208301856126a9565b612beb6040830184612618565b949350505050565b7f546f6b656e41207472616e73666572206661696c6564000000000000000000005f82015250565b5f612c276016836127c5565b9150612c3282612bf3565b602082019050919050565b5f6020820190508181035f830152612c5481612c1b565b9050919050565b7f4e6f7420656e6f75676820546f6b656e42206c697175696469747900000000005f82015250565b5f612c8f601b836127c5565b9150612c9a82612c5b565b602082019050919050565b5f6020820190508181035f830152612cbc81612c83565b9050919050565b7f546f6b656e42207472616e73666572206661696c6564000000000000000000005f82015250565b5f612cf76016836127c5565b9150612d0282612cc3565b602082019050919050565b5f6020820190508181035f830152612d2481612ceb565b9050919050565b7f4e487b71000000000000000000000000000000000000000000000000000000005f52604160045260245ffd5b7f4e487b71000000000000000000000000000000000000000000000000000000005f52603260045260245ffd5b7f4e487b71000000000000000000000000000000000000000000000000000000005f52601160045260245ffd5b5f612dbc826123c7565b91507fffffffffffffffffffffffffffffffffffffffffffffffffffffffffffffffff8203612dee57612ded612d85565b5b600182019050919050565b5f60ff82169050919050565b612e0e81612df9565b8114612e18575f80fd5b50565b5f81519050612e2981612e05565b92915050565b5f60208284031215612e4457612e43612365565b5b5f612e5184828501612e1b565b91505092915050565b5f8160011c9050919050565b5f808291508390505b6001851115612eaf57808604811115612e8b57612e8a612d85565b5b6001851615612e9a5780820291505b8081029050612ea885612e5a565b9450612e6f565b94509492505050565b5f82612ec75760019050612f82565b81612ed4575f9050612f82565b8160018114612eea5760028114612ef457612f23565b6001915050612f82565b60ff841115612f0657612f05612d85565b5b8360020a915084821115612f1d57612f1c612d85565b5b50612f82565b5060208310610133831016604e8410600b8410161715612f585782820a905083811115612f5357612f52612d85565b5b612f82565b612f658484846001612e66565b92509050818404811115612f7c57612f7b612d85565b5b81810290505b9392505050565b5f612f93826123c7565b9150612f9e83612df9565b9250612fcb7fffffffffffffffffffffffffffffffffffffffffffffffffffffffffffffffff8484612eb8565b905092915050565b7f4e487b71000000000000000000000000000000000000000000000000000000005f52601260045260245ffd5b5f61300a826123c7565b9150613015836123c7565b92508261302557613024612fd3565b5b828204905092915050565b7f416d6f756e74206d7573742062652067726561746572207468616e207a65726f5f82015250565b5f6130646020836127c5565b915061306f82613030565b602082019050919050565b5f6020820190508181035f83015261309181613058565b9050919050565b7f4e6f7420656e6f75676820616c6c6f77616e63650000000000000000000000005f82015250565b5f6130cc6014836127c5565b91506130d782613098565b602082019050919050565b5f6020820190508181035f8301526130f9816130c0565b9050919050565b7f5472616e73666572206661696c656400000000000000000000000000000000005f82015250565b5f613134600f836127c5565b915061313f82613100565b602082019050919050565b5f6020820190508181035f83015261316181613128565b9050919050565b5f613172826123c7565b915061317d836123c7565b925082820190508082111561319557613194612d85565b5b92915050565b5f819050919050565b5f819050919050565b5f6131c76131c26131bd8461319b565b6131a4565b6123c7565b9050919050565b6131d7816131ad565b82525050565b5f6060820190506131f05f8301866126a9565b6131fd60208301856126a9565b61320a60408301846131ce565b949350505050565b5f6040820190506132255f8301856126a9565b61323260208301846131ce565b9392505050565b5f613243826123c7565b915061324e836123c7565b925082820390508181111561326657613265612d85565b5b92915050565b5f60808201905061327f5f8301876126a9565b61328c60208301866126a9565b61329960408301856131ce565b6132a660608301846131ce565b95945050505050565b7f496e73756666696369656e74206665652073656e7400000000000000000000005f82015250565b5f6132e36015836127c5565b91506132ee826132af565b602082019050919050565b5f6020820190508181035f830152613310816132d7565b9050919050565b5f82905092915050565b7f4e487b71000000000000000000000000000000000000000000000000000000005f52602260045260245ffd5b5f600282049050600182168061336557607f821691505b60208210810361337857613377613321565b5b50919050565b5f819050815f5260205f209050919050565b5f6020601f8301049050919050565b5f82821b905092915050565b5f600883026133da7fffffffffffffffffffffffffffffffffffffffffffffffffffffffffffffffff8261339f565b6133e4868361339f565b95508019841693508086168417925050509392505050565b5f61341661341161340c846123c7565b6131a4565b6123c7565b9050919050565b5f819050919050565b61342f836133fc565b61344361343b8261341d565b8484546133ab565b825550505050565b5f90565b61345761344b565b613462818484613426565b505050565b5b818110156134855761347a5f8261344f565b600181019050613468565b5050565b601f8211156134ca5761349b8161337e565b6134a484613390565b810160208510156134b3578190505b6134c76134bf85613390565b830182613467565b50505b505050565b5f82821c905092915050565b5f6134ea5f19846008026134cf565b1980831691505092915050565b5f61350283836134db565b9150826002028217905092915050565b61351c8383613317565b67ffffffffffffffff81111561353557613534612d2b565b5b61353f825461334e565b61354a828285613489565b5f601f831160018114613577575f8415613565578287013590505b61356f85826134f7565b8655506135d6565b601f1984166135858661337e565b5f5b828110156135ac57848901358255600182019150602085019450602081019050613587565b868310156135c957848901356135c5601f8916826134db565b8355505b6001600288020188555050505b50505050505050565b5f6135e9826123c7565b91506135f4836123c7565b9250828202613602816123c7565b9150828204841483151761361957613618612d85565b5b5092915050565b7f4e6f7420656e6f75676820746f6b656e4220696e20706f6f6c000000000000005f82015250565b5f6136546019836127c5565b915061365f82613620565b602082019050919050565b5f6020820190508181035f83015261368181613648565b9050919050565b5f60808201905061369b5f8301876126a9565b6136a860208301866126a9565b6136b56040830185612618565b6136c260608301846131ce565b95945050505050565b5f6136d5826123c7565b91506136e0836123c7565b925061370d7fffffffffffffffffffffffffffffffffffffffffffffffffffffffffffffffff8484612eb8565b90509291505056fea264697066735822122004503eee58e830f0f5347096d5824321c73c67f1fa541ac539bf2967ee49652364736f6c63430008140033",
			"opcodes": "PUSH1 0x80 PUSH1 0x40 MSTORE PUSH7 0x38D7EA4C68000 PUSH1 0x2 SSTORE PUSH1 0x40 MLOAD PUSH3 0x3CD4 CODESIZE SUB DUP1 PUSH3 0x3CD4 DUP4 CODECOPY DUP2 DUP2 ADD PUSH1 0x40 MSTORE DUP2 ADD SWAP1 PUSH3 0x34 SWAP2 SWAP1 PUSH3 0x211 JUMP JUMPDEST DUP1 PUSH0 SWAP1 DUP2 PUSH3 0x44 SWAP2 SWAP1 PUSH3 0x497 JUMP JUMPDEST POP CALLER PUSH1 0x1 PUSH0 PUSH2 0x100 EXP DUP2 SLOAD DUP2 PUSH20 0xFFFFFFFFFFFFFFFFFFFFFFFFFFFFFFFFFFFFFFFF MUL NOT AND SWAP1 DUP4 PUSH20 0xFFFFFFFFFFFFFFFFFFFFFFFFFFFFFFFFFFFFFFFF AND MUL OR SWAP1 SSTORE POP POP PUSH3 0x57B JUMP JUMPDEST PUSH0 PUSH1 0x40 MLOAD SWAP1 POP SWAP1 JUMP JUMPDEST PUSH0 DUP1 REVERT JUMPDEST PUSH0 DUP1 REVERT JUMPDEST PUSH0 DUP1 REVERT JUMPDEST PUSH0 DUP1 REVERT JUMPDEST PUSH0 PUSH1 0x1F NOT PUSH1 0x1F DUP4 ADD AND SWAP1 POP SWAP2 SWAP1 POP JUMP JUMPDEST PUSH32 0x4E487B7100000000000000000000000000000000000000000000000000000000 PUSH0 MSTORE PUSH1 0x41 PUSH1 0x4 MSTORE PUSH1 0x24 PUSH0 REVERT JUMPDEST PUSH3 0xED DUP3 PUSH3 0xA5 JUMP JUMPDEST DUP2 ADD DUP2 DUP2 LT PUSH8 0xFFFFFFFFFFFFFFFF DUP3 GT OR ISZERO PUSH3 0x10F JUMPI PUSH3 0x10E PUSH3 0xB5 JUMP JUMPDEST JUMPDEST DUP1 PUSH1 0x40 MSTORE POP POP POP JUMP JUMPDEST PUSH0 PUSH3 0x123 PUSH3 0x8C JUMP JUMPDEST SWAP1 POP PUSH3 0x131 DUP3 DUP3 PUSH3 0xE2 JUMP JUMPDEST SWAP2 SWAP1 POP JUMP JUMPDEST PUSH0 PUSH8 0xFFFFFFFFFFFFFFFF DUP3 GT ISZERO PUSH3 0x153 JUMPI PUSH3 0x152 PUSH3 0xB5 JUMP JUMPDEST JUMPDEST PUSH3 0x15E DUP3 PUSH3 0xA5 JUMP JUMPDEST SWAP1 POP PUSH1 0x20 DUP2 ADD SWAP1 POP SWAP2 SWAP1 POP JUMP JUMPDEST PUSH0 JUMPDEST DUP4 DUP2 LT ISZERO PUSH3 0x18A JUMPI DUP1 DUP3 ADD MLOAD DUP2 DUP5 ADD MSTORE PUSH1 0x20 DUP2 ADD SWAP1 POP PUSH3 0x16D JUMP JUMPDEST PUSH0 DUP5 DUP5 ADD MSTORE POP POP POP POP JUMP JUMPDEST PUSH0 PUSH3 0x1AB PUSH3 0x1A5 DUP5 PUSH3 0x136 JUMP JUMPDEST PUSH3 0x118 JUMP JUMPDEST SWAP1 POP DUP3 DUP2 MSTORE PUSH1 0x20 DUP2 ADD DUP5 DUP5 DUP5 ADD GT ISZERO PUSH3 0x1CA JUMPI PUSH3 0x1C9 PUSH3 0xA1 JUMP JUMPDEST JUMPDEST PUSH3 0x1D7 DUP5 DUP3 DUP6 PUSH3 0x16B JUMP JUMPDEST POP SWAP4 SWAP3 POP POP POP JUMP JUMPDEST PUSH0 DUP3 PUSH1 0x1F DUP4 ADD SLT PUSH3 0x1F6 JUMPI PUSH3 0x1F5 PUSH3 0x9D JUMP JUMPDEST JUMPDEST DUP2 MLOAD PUSH3 0x208 DUP5 DUP3 PUSH1 0x20 DUP7 ADD PUSH3 0x195 JUMP JUMPDEST SWAP2 POP POP SWAP3 SWAP2 POP POP JUMP JUMPDEST PUSH0 PUSH1 0x20 DUP3 DUP5 SUB SLT ISZERO PUSH3 0x229 JUMPI PUSH3 0x228 PUSH3 0x95 JUMP JUMPDEST JUMPDEST PUSH0 DUP3 ADD MLOAD PUSH8 0xFFFFFFFFFFFFFFFF DUP2 GT ISZERO PUSH3 0x249 JUMPI PUSH3 0x248 PUSH3 0x99 JUMP JUMPDEST JUMPDEST PUSH3 0x257 DUP5 DUP3 DUP6 ADD PUSH3 0x1DF JUMP JUMPDEST SWAP2 POP POP SWAP3 SWAP2 POP POP JUMP JUMPDEST PUSH0 DUP2 MLOAD SWAP1 POP SWAP2 SWAP1 POP JUMP JUMPDEST PUSH32 0x4E487B7100000000000000000000000000000000000000000000000000000000 PUSH0 MSTORE PUSH1 0x22 PUSH1 0x4 MSTORE PUSH1 0x24 PUSH0 REVERT JUMPDEST PUSH0 PUSH1 0x2 DUP3 DIV SWAP1 POP PUSH1 0x1 DUP3 AND DUP1 PUSH3 0x2AF JUMPI PUSH1 0x7F DUP3 AND SWAP2 POP JUMPDEST PUSH1 0x20 DUP3 LT DUP2 SUB PUSH3 0x2C5 JUMPI PUSH3 0x2C4 PUSH3 0x26A JUMP JUMPDEST JUMPDEST POP SWAP2 SWAP1 POP JUMP JUMPDEST PUSH0 DUP2 SWAP1 POP DUP2 PUSH0 MSTORE PUSH1 0x20 PUSH0 KECCAK256 SWAP1 POP SWAP2 SWAP1 POP JUMP JUMPDEST PUSH0 PUSH1 0x20 PUSH1 0x1F DUP4 ADD DIV SWAP1 POP SWAP2 SWAP1 POP JUMP JUMPDEST PUSH0 DUP3 DUP3 SHL SWAP1 POP SWAP3 SWAP2 POP POP JUMP JUMPDEST PUSH0 PUSH1 0x8 DUP4 MUL PUSH3 0x329 PUSH32 0xFFFFFFFFFFFFFFFFFFFFFFFFFFFFFFFFFFFFFFFFFFFFFFFFFFFFFFFFFFFFFFFF DUP3 PUSH3 0x2EC JUMP JUMPDEST PUSH3 0x335 DUP7 DUP4 PUSH3 0x2EC JUMP JUMPDEST SWAP6 POP DUP1 NOT DUP5 AND SWAP4 POP DUP1 DUP7 AND DUP5 OR SWAP3 POP POP POP SWAP4 SWAP3 POP POP POP JUMP JUMPDEST PUSH0 DUP2 SWAP1 POP SWAP2 SWAP1 POP JUMP JUMPDEST PUSH0 DUP2 SWAP1 POP SWAP2 SWAP1 POP JUMP JUMPDEST PUSH0 PUSH3 0x37F PUSH3 0x379 PUSH3 0x373 DUP5 PUSH3 0x34D JUMP JUMPDEST PUSH3 0x356 JUMP JUMPDEST PUSH3 0x34D JUMP JUMPDEST SWAP1 POP SWAP2 SWAP1 POP JUMP JUMPDEST PUSH0 DUP2 SWAP1 POP SWAP2 SWAP1 POP JUMP JUMPDEST PUSH3 0x39A DUP4 PUSH3 0x35F JUMP JUMPDEST PUSH3 0x3B2 PUSH3 0x3A9 DUP3 PUSH3 0x386 JUMP JUMPDEST DUP5 DUP5 SLOAD PUSH3 0x2F8 JUMP JUMPDEST DUP3 SSTORE POP POP POP POP JUMP JUMPDEST PUSH0 SWAP1 JUMP JUMPDEST PUSH3 0x3C8 PUSH3 0x3BA JUMP JUMPDEST PUSH3 0x3D5 DUP2 DUP5 DUP5 PUSH3 0x38F JUMP JUMPDEST POP POP POP JUMP JUMPDEST JUMPDEST DUP2 DUP2 LT ISZERO PUSH3 0x3FC JUMPI PUSH3 0x3F0 PUSH0 DUP3 PUSH3 0x3BE JUMP JUMPDEST PUSH1 0x1 DUP2 ADD SWAP1 POP PUSH3 0x3DB JUMP JUMPDEST POP POP JUMP JUMPDEST PUSH1 0x1F DUP3 GT ISZERO PUSH3 0x44B JUMPI PUSH3 0x415 DUP2 PUSH3 0x2CB JUMP JUMPDEST PUSH3 0x420 DUP5 PUSH3 0x2DD JUMP JUMPDEST DUP2 ADD PUSH1 0x20 DUP6 LT ISZERO PUSH3 0x430 JUMPI DUP2 SWAP1 POP JUMPDEST PUSH3 0x448 PUSH3 0x43F DUP6 PUSH3 0x2DD JUMP JUMPDEST DUP4 ADD DUP3 PUSH3 0x3DA JUMP JUMPDEST POP POP JUMPDEST POP POP POP JUMP JUMPDEST PUSH0 DUP3 DUP3 SHR SWAP1 POP SWAP3 SWAP2 POP POP JUMP JUMPDEST PUSH0 PUSH3 0x46D PUSH0 NOT DUP5 PUSH1 0x8 MUL PUSH3 0x450 JUMP JUMPDEST NOT DUP1 DUP4 AND SWAP2 POP POP SWAP3 SWAP2 POP POP JUMP JUMPDEST PUSH0 PUSH3 0x487 DUP4 DUP4 PUSH3 0x45C JUMP JUMPDEST SWAP2 POP DUP3 PUSH1 0x2 MUL DUP3 OR SWAP1 POP SWAP3 SWAP2 POP POP JUMP JUMPDEST PUSH3 0x4A2 DUP3 PUSH3 0x260 JUMP JUMPDEST PUSH8 0xFFFFFFFFFFFFFFFF DUP2 GT ISZERO PUSH3 0x4BE JUMPI PUSH3 0x4BD PUSH3 0xB5 JUMP JUMPDEST JUMPDEST PUSH3 0x4CA DUP3 SLOAD PUSH3 0x297 JUMP JUMPDEST PUSH3 0x4D7 DUP3 DUP3 DUP6 PUSH3 0x400 JUMP JUMPDEST PUSH0 PUSH1 0x20 SWAP1 POP PUSH1 0x1F DUP4 GT PUSH1 0x1 DUP2 EQ PUSH3 0x50D JUMPI PUSH0 DUP5 ISZERO PUSH3 0x4F8 JUMPI DUP3 DUP8 ADD MLOAD SWAP1 POP JUMPDEST PUSH3 0x504 DUP6 DUP3 PUSH3 0x47A JUMP JUMPDEST DUP7 SSTORE POP PUSH3 0x573 JUMP JUMPDEST PUSH1 0x1F NOT DUP5 AND PUSH3 0x51D DUP7 PUSH3 0x2CB JUMP JUMPDEST PUSH0 JUMPDEST DUP3 DUP2 LT ISZERO PUSH3 0x546 JUMPI DUP5 DUP10 ADD MLOAD DUP3 SSTORE PUSH1 0x1 DUP3 ADD SWAP2 POP PUSH1 0x20 DUP6 ADD SWAP5 POP PUSH1 0x20 DUP2 ADD SWAP1 POP PUSH3 0x51F JUMP JUMPDEST DUP7 DUP4 LT ISZERO PUSH3 0x566 JUMPI DUP5 DUP10 ADD MLOAD PUSH3 0x562 PUSH1 0x1F DUP10 AND DUP3 PUSH3 0x45C JUMP JUMPDEST DUP4 SSTORE POP JUMPDEST PUSH1 0x1 PUSH1 0x2 DUP9 MUL ADD DUP9 SSTORE POP POP POP JUMPDEST POP POP POP POP POP POP JUMP JUMPDEST PUSH2 0x374B DUP1 PUSH3 0x589 PUSH0 CODECOPY PUSH0 RETURN INVALID PUSH1 0x80 PUSH1 0x40 MSTORE PUSH1 0x4 CALLDATASIZE LT PUSH2 0x117 JUMPI PUSH0 CALLDATALOAD PUSH1 0xE0 SHR DUP1 PUSH4 0x90321E1A GT PUSH2 0x9F JUMPI DUP1 PUSH4 0xC8A34EFE GT PUSH2 0x63 JUMPI DUP1 PUSH4 0xC8A34EFE EQ PUSH2 0x36C JUMPI DUP1 PUSH4 0xE086E5EC EQ PUSH2 0x394 JUMPI DUP1 PUSH4 0xEF690CC0 EQ PUSH2 0x3AA JUMPI DUP1 PUSH4 0xF5465992 EQ PUSH2 0x3D4 JUMPI DUP1 PUSH4 0xFE029156 EQ PUSH2 0x410 JUMPI PUSH2 0x11E JUMP JUMPDEST DUP1 PUSH4 0x90321E1A EQ PUSH2 0x2B8 JUMPI DUP1 PUSH4 0x95310EFA EQ PUSH2 0x2E2 JUMPI DUP1 PUSH4 0x97B8C3CB EQ PUSH2 0x30A JUMPI DUP1 PUSH4 0xA4136862 EQ PUSH2 0x314 JUMPI DUP1 PUSH4 0xADB51980 EQ PUSH2 0x330 JUMPI PUSH2 0x11E JUMP JUMPDEST DUP1 PUSH4 0x47E7EF24 GT PUSH2 0xE6 JUMPI DUP1 PUSH4 0x47E7EF24 EQ PUSH2 0x1D7 JUMPI DUP1 PUSH4 0x6677B49B EQ PUSH2 0x1FF JUMPI DUP1 PUSH4 0x8305368A EQ PUSH2 0x22A JUMPI DUP1 PUSH4 0x89476069 EQ PUSH2 0x266 JUMPI DUP1 PUSH4 0x8DA5CB5B EQ PUSH2 0x28E JUMPI PUSH2 0x11E JUMP JUMPDEST DUP1 PUSH4 0x62DD331 EQ PUSH2 0x120 JUMPI DUP1 PUSH4 0x87C3D4B EQ PUSH2 0x136 JUMPI DUP1 PUSH4 0x1EDB27E9 EQ PUSH2 0x15E JUMPI DUP1 PUSH4 0x43AB265F EQ PUSH2 0x19B JUMPI PUSH2 0x11E JUMP JUMPDEST CALLDATASIZE PUSH2 0x11E JUMPI STOP JUMPDEST STOP JUMPDEST CALLVALUE DUP1 ISZERO PUSH2 0x12B JUMPI PUSH0 DUP1 REVERT JUMPDEST POP PUSH2 0x134 PUSH2 0x42C JUMP JUMPDEST STOP JUMPDEST CALLVALUE DUP1 ISZERO PUSH2 0x141 JUMPI PUSH0 DUP1 REVERT JUMPDEST POP PUSH2 0x15C PUSH1 0x4 DUP1 CALLDATASIZE SUB DUP2 ADD SWAP1 PUSH2 0x157 SWAP2 SWAP1 PUSH2 0x23FA JUMP JUMPDEST PUSH2 0x636 JUMP JUMPDEST STOP JUMPDEST CALLVALUE DUP1 ISZERO PUSH2 0x169 JUMPI PUSH0 DUP1 REVERT JUMPDEST POP PUSH2 0x184 PUSH1 0x4 DUP1 CALLDATASIZE SUB DUP2 ADD SWAP1 PUSH2 0x17F SWAP2 SWAP1 PUSH2 0x244A JUMP JUMPDEST PUSH2 0xA2E JUMP JUMPDEST PUSH1 0x40 MLOAD PUSH2 0x192 SWAP3 SWAP2 SWAP1 PUSH2 0x25E3 JUMP JUMPDEST PUSH1 0x40 MLOAD DUP1 SWAP2 SUB SWAP1 RETURN JUMPDEST CALLVALUE DUP1 ISZERO PUSH2 0x1A6 JUMPI PUSH0 DUP1 REVERT JUMPDEST POP PUSH2 0x1C1 PUSH1 0x4 DUP1 CALLDATASIZE SUB DUP2 ADD SWAP1 PUSH2 0x1BC SWAP2 SWAP1 PUSH2 0x244A JUMP JUMPDEST PUSH2 0xC1A JUMP JUMPDEST PUSH1 0x40 MLOAD PUSH2 0x1CE SWAP2 SWAP1 PUSH2 0x2627 JUMP JUMPDEST PUSH1 0x40 MLOAD DUP1 SWAP2 SUB SWAP1 RETURN JUMPDEST CALLVALUE DUP1 ISZERO PUSH2 0x1E2 JUMPI PUSH0 DUP1 REVERT JUMPDEST POP PUSH2 0x1FD PUSH1 0x4 DUP1 CALLDATASIZE SUB DUP2 ADD SWAP1 PUSH2 0x1F8 SWAP2 SWAP1 PUSH2 0x2640 JUMP JUMPDEST PUSH2 0xCE8 JUMP JUMPDEST STOP JUMPDEST CALLVALUE DUP1 ISZERO PUSH2 0x20A JUMPI PUSH0 DUP1 REVERT JUMPDEST POP PUSH2 0x213 PUSH2 0xF66 JUMP JUMPDEST PUSH1 0x40 MLOAD PUSH2 0x221 SWAP3 SWAP2 SWAP1 PUSH2 0x25E3 JUMP JUMPDEST PUSH1 0x40 MLOAD DUP1 SWAP2 SUB SWAP1 RETURN JUMPDEST CALLVALUE DUP1 ISZERO PUSH2 0x235 JUMPI PUSH0 DUP1 REVERT JUMPDEST POP PUSH2 0x250 PUSH1 0x4 DUP1 CALLDATASIZE SUB DUP2 ADD SWAP1 PUSH2 0x24B SWAP2 SWAP1 PUSH2 0x267E JUMP JUMPDEST PUSH2 0x1150 JUMP JUMPDEST PUSH1 0x40 MLOAD PUSH2 0x25D SWAP2 SWAP1 PUSH2 0x26B8 JUMP JUMPDEST PUSH1 0x40 MLOAD DUP1 SWAP2 SUB SWAP1 RETURN JUMPDEST CALLVALUE DUP1 ISZERO PUSH2 0x271 JUMPI PUSH0 DUP1 REVERT JUMPDEST POP PUSH2 0x28C PUSH1 0x4 DUP1 CALLDATASIZE SUB DUP2 ADD SWAP1 PUSH2 0x287 SWAP2 SWAP1 PUSH2 0x244A JUMP JUMPDEST PUSH2 0x118B JUMP JUMPDEST STOP JUMPDEST CALLVALUE DUP1 ISZERO PUSH2 0x299 JUMPI PUSH0 DUP1 REVERT JUMPDEST POP PUSH2 0x2A2 PUSH2 0x137D JUMP JUMPDEST PUSH1 0x40 MLOAD PUSH2 0x2AF SWAP2 SWAP1 PUSH2 0x26B8 JUMP JUMPDEST PUSH1 0x40 MLOAD DUP1 SWAP2 SUB SWAP1 RETURN JUMPDEST CALLVALUE DUP1 ISZERO PUSH2 0x2C3 JUMPI PUSH0 DUP1 REVERT JUMPDEST POP PUSH2 0x2CC PUSH2 0x13A2 JUMP JUMPDEST PUSH1 0x40 MLOAD PUSH2 0x2D9 SWAP2 SWAP1 PUSH2 0x2627 JUMP JUMPDEST PUSH1 0x40 MLOAD DUP1 SWAP2 SUB SWAP1 RETURN JUMPDEST CALLVALUE DUP1 ISZERO PUSH2 0x2ED JUMPI PUSH0 DUP1 REVERT JUMPDEST POP PUSH2 0x308 PUSH1 0x4 DUP1 CALLDATASIZE SUB DUP2 ADD SWAP1 PUSH2 0x303 SWAP2 SWAP1 PUSH2 0x2640 JUMP JUMPDEST PUSH2 0x13A8 JUMP JUMPDEST STOP JUMPDEST PUSH2 0x312 PUSH2 0x1673 JUMP JUMPDEST STOP JUMPDEST PUSH2 0x32E PUSH1 0x4 DUP1 CALLDATASIZE SUB DUP2 ADD SWAP1 PUSH2 0x329 SWAP2 SWAP1 PUSH2 0x2732 JUMP JUMPDEST PUSH2 0x1992 JUMP JUMPDEST STOP JUMPDEST CALLVALUE DUP1 ISZERO PUSH2 0x33B JUMPI PUSH0 DUP1 REVERT JUMPDEST POP PUSH2 0x356 PUSH1 0x4 DUP1 CALLDATASIZE SUB DUP2 ADD SWAP1 PUSH2 0x351 SWAP2 SWAP1 PUSH2 0x277D JUMP JUMPDEST PUSH2 0x19EC JUMP JUMPDEST PUSH1 0x40 MLOAD PUSH2 0x363 SWAP2 SWAP1 PUSH2 0x2627 JUMP JUMPDEST PUSH1 0x40 MLOAD DUP1 SWAP2 SUB SWAP1 RETURN JUMPDEST CALLVALUE DUP1 ISZERO PUSH2 0x377 JUMPI PUSH0 DUP1 REVERT JUMPDEST POP PUSH2 0x392 PUSH1 0x4 DUP1 CALLDATASIZE SUB DUP2 ADD SWAP1 PUSH2 0x38D SWAP2 SWAP1 PUSH2 0x267E JUMP JUMPDEST PUSH2 0x1A0C JUMP JUMPDEST STOP JUMPDEST CALLVALUE DUP1 ISZERO PUSH2 0x39F JUMPI PUSH0 DUP1 REVERT JUMPDEST POP PUSH2 0x3A8 PUSH2 0x1C60 JUMP JUMPDEST STOP JUMPDEST CALLVALUE DUP1 ISZERO PUSH2 0x3B5 JUMPI PUSH0 DUP1 REVERT JUMPDEST POP PUSH2 0x3BE PUSH2 0x1D56 JUMP JUMPDEST PUSH1 0x40 MLOAD PUSH2 0x3CB SWAP2 SWAP1 PUSH2 0x2845 JUMP JUMPDEST PUSH1 0x40 MLOAD DUP1 SWAP2 SUB SWAP1 RETURN JUMPDEST CALLVALUE DUP1 ISZERO PUSH2 0x3DF JUMPI PUSH0 DUP1 REVERT JUMPDEST POP PUSH2 0x3FA PUSH1 0x4 DUP1 CALLDATASIZE SUB DUP2 ADD SWAP1 PUSH2 0x3F5 SWAP2 SWAP1 PUSH2 0x244A JUMP JUMPDEST PUSH2 0x1DE1 JUMP JUMPDEST PUSH1 0x40 MLOAD PUSH2 0x407 SWAP2 SWAP1 PUSH2 0x2627 JUMP JUMPDEST PUSH1 0x40 MLOAD DUP1 SWAP2 SUB SWAP1 RETURN JUMPDEST PUSH2 0x42A PUSH1 0x4 DUP1 CALLDATASIZE SUB DUP2 ADD SWAP1 PUSH2 0x425 SWAP2 SWAP1 PUSH2 0x2865 JUMP JUMPDEST PUSH2 0x1DF6 JUMP JUMPDEST STOP JUMPDEST PUSH1 0x1 PUSH0 SWAP1 SLOAD SWAP1 PUSH2 0x100 EXP SWAP1 DIV PUSH20 0xFFFFFFFFFFFFFFFFFFFFFFFFFFFFFFFFFFFFFFFF AND PUSH20 0xFFFFFFFFFFFFFFFFFFFFFFFFFFFFFFFFFFFFFFFF AND CALLER PUSH20 0xFFFFFFFFFFFFFFFFFFFFFFFFFFFFFFFFFFFFFFFF AND EQ PUSH2 0x4BB JUMPI PUSH1 0x40 MLOAD PUSH32 0x8C379A000000000000000000000000000000000000000000000000000000000 DUP2 MSTORE PUSH1 0x4 ADD PUSH2 0x4B2 SWAP1 PUSH2 0x2913 JUMP JUMPDEST PUSH1 0x40 MLOAD DUP1 SWAP2 SUB SWAP1 REVERT JUMPDEST PUSH0 PUSH20 0x760AFE86E5DE5FA0EE542FC7B7B713E1C5425701 SWAP1 POP PUSH0 DUP2 SWAP1 POP PUSH0 DUP2 PUSH20 0xFFFFFFFFFFFFFFFFFFFFFFFFFFFFFFFFFFFFFFFF AND PUSH4 0x70A08231 ADDRESS PUSH1 0x40 MLOAD DUP3 PUSH4 0xFFFFFFFF AND PUSH1 0xE0 SHL DUP2 MSTORE PUSH1 0x4 ADD PUSH2 0x511 SWAP2 SWAP1 PUSH2 0x26B8 JUMP JUMPDEST PUSH1 0x20 PUSH1 0x40 MLOAD DUP1 DUP4 SUB DUP2 DUP7 GAS STATICCALL ISZERO DUP1 ISZERO PUSH2 0x52C JUMPI RETURNDATASIZE PUSH0 DUP1 RETURNDATACOPY RETURNDATASIZE PUSH0 REVERT JUMPDEST POP POP POP POP PUSH1 0x40 MLOAD RETURNDATASIZE PUSH1 0x1F NOT PUSH1 0x1F DUP3 ADD AND DUP3 ADD DUP1 PUSH1 0x40 MSTORE POP DUP2 ADD SWAP1 PUSH2 0x550 SWAP2 SWAP1 PUSH2 0x2945 JUMP JUMPDEST SWAP1 POP PUSH0 DUP2 GT PUSH2 0x594 JUMPI PUSH1 0x40 MLOAD PUSH32 0x8C379A000000000000000000000000000000000000000000000000000000000 DUP2 MSTORE PUSH1 0x4 ADD PUSH2 0x58B SWAP1 PUSH2 0x29BA JUMP JUMPDEST PUSH1 0x40 MLOAD DUP1 SWAP2 SUB SWAP1 REVERT JUMPDEST DUP2 PUSH20 0xFFFFFFFFFFFFFFFFFFFFFFFFFFFFFFFFFFFFFFFF AND PUSH4 0xA9059CBB PUSH1 0x1 PUSH0 SWAP1 SLOAD SWAP1 PUSH2 0x100 EXP SWAP1 DIV PUSH20 0xFFFFFFFFFFFFFFFFFFFFFFFFFFFFFFFFFFFFFFFF AND DUP4 PUSH1 0x40 MLOAD DUP4 PUSH4 0xFFFFFFFF AND PUSH1 0xE0 SHL DUP2 MSTORE PUSH1 0x4 ADD PUSH2 0x5F0 SWAP3 SWAP2 SWAP1 PUSH2 0x29D8 JUMP JUMPDEST PUSH1 0x20 PUSH1 0x40 MLOAD DUP1 DUP4 SUB DUP2 PUSH0 DUP8 GAS CALL ISZERO DUP1 ISZERO PUSH2 0x60C JUMPI RETURNDATASIZE PUSH0 DUP1 RETURNDATACOPY RETURNDATASIZE PUSH0 REVERT JUMPDEST POP POP POP POP PUSH1 0x40 MLOAD RETURNDATASIZE PUSH1 0x1F NOT PUSH1 0x1F DUP3 ADD AND DUP3 ADD DUP1 PUSH1 0x40 MSTORE POP DUP2 ADD SWAP1 PUSH2 0x630 SWAP2 SWAP1 PUSH2 0x2A34 JUMP JUMPDEST POP POP POP POP JUMP JUMPDEST PUSH0 DUP2 GT PUSH2 0x678 JUMPI PUSH1 0x40 MLOAD PUSH32 0x8C379A000000000000000000000000000000000000000000000000000000000 DUP2 MSTORE PUSH1 0x4 ADD PUSH2 0x66F SWAP1 PUSH2 0x2AA9 JUMP JUMPDEST PUSH1 0x40 MLOAD DUP1 SWAP2 SUB SWAP1 REVERT JUMPDEST PUSH0 PUSH20 0xFFFFFFFFFFFFFFFFFFFFFFFFFFFFFFFFFFFFFFFF AND DUP4 PUSH20 0xFFFFFFFFFFFFFFFFFFFFFFFFFFFFFFFFFFFFFFFF AND EQ ISZERO DUP1 ISZERO PUSH2 0x6E0 JUMPI POP PUSH0 PUSH20 0xFFFFFFFFFFFFFFFFFFFFFFFFFFFFFFFFFFFFFFFF AND DUP3 PUSH20 0xFFFFFFFFFFFFFFFFFFFFFFFFFFFFFFFFFFFFFFFF AND EQ ISZERO JUMPDEST PUSH2 0x71F JUMPI PUSH1 0x40 MLOAD PUSH32 0x8C379A000000000000000000000000000000000000000000000000000000000 DUP2 MSTORE PUSH1 0x4 ADD PUSH2 0x716 SWAP1 PUSH2 0x2B11 JUMP JUMPDEST PUSH1 0x40 MLOAD DUP1 SWAP2 SUB SWAP1 REVERT JUMPDEST PUSH0 DUP4 SWAP1 POP PUSH0 DUP4 SWAP1 POP PUSH0 DUP3 PUSH20 0xFFFFFFFFFFFFFFFFFFFFFFFFFFFFFFFFFFFFFFFF AND PUSH4 0xDD62ED3E CALLER ADDRESS PUSH1 0x40 MLOAD DUP4 PUSH4 0xFFFFFFFF AND PUSH1 0xE0 SHL DUP2 MSTORE PUSH1 0x4 ADD PUSH2 0x763 SWAP3 SWAP2 SWAP1 PUSH2 0x2B2F JUMP JUMPDEST PUSH1 0x20 PUSH1 0x40 MLOAD DUP1 DUP4 SUB DUP2 DUP7 GAS STATICCALL ISZERO DUP1 ISZERO PUSH2 0x77E JUMPI RETURNDATASIZE PUSH0 DUP1 RETURNDATACOPY RETURNDATASIZE PUSH0 REVERT JUMPDEST POP POP POP POP PUSH1 0x40 MLOAD RETURNDATASIZE PUSH1 0x1F NOT PUSH1 0x1F DUP3 ADD AND DUP3 ADD DUP1 PUSH1 0x40 MSTORE POP DUP2 ADD SWAP1 PUSH2 0x7A2 SWAP2 SWAP1 PUSH2 0x2945 JUMP JUMPDEST SWAP1 POP DUP4 DUP2 LT ISZERO PUSH2 0x7E7 JUMPI PUSH1 0x40 MLOAD PUSH32 0x8C379A000000000000000000000000000000000000000000000000000000000 DUP2 MSTORE PUSH1 0x4 ADD PUSH2 0x7DE SWAP1 PUSH2 0x2BA0 JUMP JUMPDEST PUSH1 0x40 MLOAD DUP1 SWAP2 SUB SWAP1 REVERT JUMPDEST PUSH0 DUP4 PUSH20 0xFFFFFFFFFFFFFFFFFFFFFFFFFFFFFFFFFFFFFFFF AND PUSH4 0x23B872DD CALLER ADDRESS DUP9 PUSH1 0x40 MLOAD DUP5 PUSH4 0xFFFFFFFF AND PUSH1 0xE0 SHL DUP2 MSTORE PUSH1 0x4 ADD PUSH2 0x825 SWAP4 SWAP3 SWAP2 SWAP1 PUSH2 0x2BBE JUMP JUMPDEST PUSH1 0x20 PUSH1 0x40 MLOAD DUP1 DUP4 SUB DUP2 PUSH0 DUP8 GAS CALL ISZERO DUP1 ISZERO PUSH2 0x841 JUMPI RETURNDATASIZE PUSH0 DUP1 RETURNDATACOPY RETURNDATASIZE PUSH0 REVERT JUMPDEST POP POP POP POP PUSH1 0x40 MLOAD RETURNDATASIZE PUSH1 0x1F NOT PUSH1 0x1F DUP3 ADD AND DUP3 ADD DUP1 PUSH1 0x40 MSTORE POP DUP2 ADD SWAP1 PUSH2 0x865 SWAP2 SWAP1 PUSH2 0x2A34 JUMP JUMPDEST SWAP1 POP DUP1 PUSH2 0x8A7 JUMPI PUSH1 0x40 MLOAD PUSH32 0x8C379A000000000000000000000000000000000000000000000000000000000 DUP2 MSTORE PUSH1 0x4 ADD PUSH2 0x89E SWAP1 PUSH2 0x2C3D JUMP JUMPDEST PUSH1 0x40 MLOAD DUP1 SWAP2 SUB SWAP1 REVERT JUMPDEST PUSH0 DUP4 PUSH20 0xFFFFFFFFFFFFFFFFFFFFFFFFFFFFFFFFFFFFFFFF AND PUSH4 0x70A08231 ADDRESS PUSH1 0x40 MLOAD DUP3 PUSH4 0xFFFFFFFF AND PUSH1 0xE0 SHL DUP2 MSTORE PUSH1 0x4 ADD PUSH2 0x8E1 SWAP2 SWAP1 PUSH2 0x26B8 JUMP JUMPDEST PUSH1 0x20 PUSH1 0x40 MLOAD DUP1 DUP4 SUB DUP2 DUP7 GAS STATICCALL ISZERO DUP1 ISZERO PUSH2 0x8FC JUMPI RETURNDATASIZE PUSH0 DUP1 RETURNDATACOPY RETURNDATASIZE PUSH0 REVERT JUMPDEST POP POP POP POP PUSH1 0x40 MLOAD RETURNDATASIZE PUSH1 0x1F NOT PUSH1 0x1F DUP3 ADD AND DUP3 ADD DUP1 PUSH1 0x40 MSTORE POP DUP2 ADD SWAP1 PUSH2 0x920 SWAP2 SWAP1 PUSH2 0x2945 JUMP JUMPDEST SWAP1 POP DUP6 DUP2 LT ISZERO PUSH2 0x965 JUMPI PUSH1 0x40 MLOAD PUSH32 0x8C379A000000000000000000000000000000000000000000000000000000000 DUP2 MSTORE PUSH1 0x4 ADD PUSH2 0x95C SWAP1 PUSH2 0x2CA5 JUMP JUMPDEST PUSH1 0x40 MLOAD DUP1 SWAP2 SUB SWAP1 REVERT JUMPDEST PUSH0 DUP5 PUSH20 0xFFFFFFFFFFFFFFFFFFFFFFFFFFFFFFFFFFFFFFFF AND PUSH4 0xA9059CBB CALLER DUP10 PUSH1 0x40 MLOAD DUP4 PUSH4 0xFFFFFFFF AND PUSH1 0xE0 SHL DUP2 MSTORE PUSH1 0x4 ADD PUSH2 0x9A1 SWAP3 SWAP2 SWAP1 PUSH2 0x29D8 JUMP JUMPDEST PUSH1 0x20 PUSH1 0x40 MLOAD DUP1 DUP4 SUB DUP2 PUSH0 DUP8 GAS CALL ISZERO DUP1 ISZERO PUSH2 0x9BD JUMPI RETURNDATASIZE PUSH0 DUP1 RETURNDATACOPY RETURNDATASIZE PUSH0 REVERT JUMPDEST POP POP POP POP PUSH1 0x40 MLOAD RETURNDATASIZE PUSH1 0x1F NOT PUSH1 0x1F DUP3 ADD AND DUP3 ADD DUP1 PUSH1 0x40 MSTORE POP DUP2 ADD SWAP1 PUSH2 0x9E1 SWAP2 SWAP1 PUSH2 0x2A34 JUMP JUMPDEST SWAP1 POP DUP1 PUSH2 0xA23 JUMPI PUSH1 0x40 MLOAD PUSH32 0x8C379A000000000000000000000000000000000000000000000000000000000 DUP2 MSTORE PUSH1 0x4 ADD PUSH2 0xA1A SWAP1 PUSH2 0x2D0D JUMP JUMPDEST PUSH1 0x40 MLOAD DUP1 SWAP2 SUB SWAP1 REVERT JUMPDEST POP POP POP POP POP POP POP POP POP JUMP JUMPDEST PUSH1 0x60 DUP1 PUSH0 PUSH1 0x5 DUP1 SLOAD SWAP1 POP SWAP1 POP DUP1 PUSH8 0xFFFFFFFFFFFFFFFF DUP2 GT ISZERO PUSH2 0xA54 JUMPI PUSH2 0xA53 PUSH2 0x2D2B JUMP JUMPDEST JUMPDEST PUSH1 0x40 MLOAD SWAP1 DUP1 DUP3 MSTORE DUP1 PUSH1 0x20 MUL PUSH1 0x20 ADD DUP3 ADD PUSH1 0x40 MSTORE DUP1 ISZERO PUSH2 0xA82 JUMPI DUP2 PUSH1 0x20 ADD PUSH1 0x20 DUP3 MUL DUP1 CALLDATASIZE DUP4 CALLDATACOPY DUP1 DUP3 ADD SWAP2 POP POP SWAP1 POP JUMPDEST POP SWAP3 POP DUP1 PUSH8 0xFFFFFFFFFFFFFFFF DUP2 GT ISZERO PUSH2 0xA9F JUMPI PUSH2 0xA9E PUSH2 0x2D2B JUMP JUMPDEST JUMPDEST PUSH1 0x40 MLOAD SWAP1 DUP1 DUP3 MSTORE DUP1 PUSH1 0x20 MUL PUSH1 0x20 ADD DUP3 ADD PUSH1 0x40 MSTORE DUP1 ISZERO PUSH2 0xACD JUMPI DUP2 PUSH1 0x20 ADD PUSH1 0x20 DUP3 MUL DUP1 CALLDATASIZE DUP4 CALLDATACOPY DUP1 DUP3 ADD SWAP2 POP POP SWAP1 POP JUMPDEST POP SWAP2 POP PUSH0 JUMPDEST DUP2 DUP2 LT ISZERO PUSH2 0xC13 JUMPI PUSH0 PUSH1 0x5 DUP3 DUP2 SLOAD DUP2 LT PUSH2 0xAEF JUMPI PUSH2 0xAEE PUSH2 0x2D58 JUMP JUMPDEST JUMPDEST SWAP1 PUSH0 MSTORE PUSH1 0x20 PUSH0 KECCAK256 ADD PUSH0 SWAP1 SLOAD SWAP1 PUSH2 0x100 EXP SWAP1 DIV PUSH20 0xFFFFFFFFFFFFFFFFFFFFFFFFFFFFFFFFFFFFFFFF AND SWAP1 POP DUP1 DUP6 DUP4 DUP2 MLOAD DUP2 LT PUSH2 0xB2D JUMPI PUSH2 0xB2C PUSH2 0x2D58 JUMP JUMPDEST JUMPDEST PUSH1 0x20 MUL PUSH1 0x20 ADD ADD SWAP1 PUSH20 0xFFFFFFFFFFFFFFFFFFFFFFFFFFFFFFFFFFFFFFFF AND SWAP1 DUP2 PUSH20 0xFFFFFFFFFFFFFFFFFFFFFFFFFFFFFFFFFFFFFFFF AND DUP2 MSTORE POP POP PUSH1 0x4 PUSH0 DUP8 PUSH20 0xFFFFFFFFFFFFFFFFFFFFFFFFFFFFFFFFFFFFFFFF AND PUSH20 0xFFFFFFFFFFFFFFFFFFFFFFFFFFFFFFFFFFFFFFFF AND DUP2 MSTORE PUSH1 0x20 ADD SWAP1 DUP2 MSTORE PUSH1 0x20 ADD PUSH0 KECCAK256 PUSH0 DUP3 PUSH20 0xFFFFFFFFFFFFFFFFFFFFFFFFFFFFFFFFFFFFFFFF AND PUSH20 0xFFFFFFFFFFFFFFFFFFFFFFFFFFFFFFFFFFFFFFFF AND DUP2 MSTORE PUSH1 0x20 ADD SWAP1 DUP2 MSTORE PUSH1 0x20 ADD PUSH0 KECCAK256 SLOAD DUP5 DUP4 DUP2 MLOAD DUP2 LT PUSH2 0xBF3 JUMPI PUSH2 0xBF2 PUSH2 0x2D58 JUMP JUMPDEST JUMPDEST PUSH1 0x20 MUL PUSH1 0x20 ADD ADD DUP2 DUP2 MSTORE POP POP POP DUP1 DUP1 PUSH2 0xC0B SWAP1 PUSH2 0x2DB2 JUMP JUMPDEST SWAP2 POP POP PUSH2 0xAD2 JUMP JUMPDEST POP POP SWAP2 POP SWAP2 JUMP JUMPDEST PUSH0 DUP1 DUP3 PUSH20 0xFFFFFFFFFFFFFFFFFFFFFFFFFFFFFFFFFFFFFFFF AND PUSH4 0x313CE567 PUSH1 0x40 MLOAD DUP2 PUSH4 0xFFFFFFFF AND PUSH1 0xE0 SHL DUP2 MSTORE PUSH1 0x4 ADD PUSH1 0x20 PUSH1 0x40 MLOAD DUP1 DUP4 SUB DUP2 DUP7 GAS STATICCALL ISZERO DUP1 ISZERO PUSH2 0xC65 JUMPI RETURNDATASIZE PUSH0 DUP1 RETURNDATACOPY RETURNDATASIZE PUSH0 REVERT JUMPDEST POP POP POP POP PUSH1 0x40 MLOAD RETURNDATASIZE PUSH1 0x1F NOT PUSH1 0x1F DUP3 ADD AND DUP3 ADD DUP1 PUSH1 0x40 MSTORE POP DUP2 ADD SWAP1 PUSH2 0xC89 SWAP2 SWAP1 PUSH2 0x2E2F JUMP JUMPDEST SWAP1 POP DUP1 PUSH1 0xA PUSH2 0xC98 SWAP2 SWAP1 PUSH2 0x2F89 JUMP JUMPDEST PUSH1 0x3 PUSH0 DUP6 PUSH20 0xFFFFFFFFFFFFFFFFFFFFFFFFFFFFFFFFFFFFFFFF AND PUSH20 0xFFFFFFFFFFFFFFFFFFFFFFFFFFFFFFFFFFFFFFFF AND DUP2 MSTORE PUSH1 0x20 ADD SWAP1 DUP2 MSTORE PUSH1 0x20 ADD PUSH0 KECCAK256 SLOAD PUSH2 0xCE0 SWAP2 SWAP1 PUSH2 0x3000 JUMP JUMPDEST SWAP2 POP POP SWAP2 SWAP1 POP JUMP JUMPDEST PUSH0 DUP2 GT PUSH2 0xD2A JUMPI PUSH1 0x40 MLOAD PUSH32 0x8C379A000000000000000000000000000000000000000000000000000000000 DUP2 MSTORE PUSH1 0x4 ADD PUSH2 0xD21 SWAP1 PUSH2 0x307A JUMP JUMPDEST PUSH1 0x40 MLOAD DUP1 SWAP2 SUB SWAP1 REVERT JUMPDEST PUSH0 DUP3 SWAP1 POP PUSH0 PUSH2 0xD39 DUP5 DUP5 PUSH2 0x22D0 JUMP JUMPDEST SWAP1 POP PUSH0 DUP3 PUSH20 0xFFFFFFFFFFFFFFFFFFFFFFFFFFFFFFFFFFFFFFFF AND PUSH4 0xDD62ED3E CALLER ADDRESS PUSH1 0x40 MLOAD DUP4 PUSH4 0xFFFFFFFF AND PUSH1 0xE0 SHL DUP2 MSTORE PUSH1 0x4 ADD PUSH2 0xD77 SWAP3 SWAP2 SWAP1 PUSH2 0x2B2F JUMP JUMPDEST PUSH1 0x20 PUSH1 0x40 MLOAD DUP1 DUP4 SUB DUP2 DUP7 GAS STATICCALL ISZERO DUP1 ISZERO PUSH2 0xD92 JUMPI RETURNDATASIZE PUSH0 DUP1 RETURNDATACOPY RETURNDATASIZE PUSH0 REVERT JUMPDEST POP POP POP POP PUSH1 0x40 MLOAD RETURNDATASIZE PUSH1 0x1F NOT PUSH1 0x1F DUP3 ADD AND DUP3 ADD DUP1 PUSH1 0x40 MSTORE POP DUP2 ADD SWAP1 PUSH2 0xDB6 SWAP2 SWAP1 PUSH2 0x2945 JUMP JUMPDEST SWAP1 POP DUP2 DUP2 LT ISZERO PUSH2 0xDFB JUMPI PUSH1 0x40 MLOAD PUSH32 0x8C379A000000000000000000000000000000000000000000000000000000000 DUP2 MSTORE PUSH1 0x4 ADD PUSH2 0xDF2 SWAP1 PUSH2 0x30E2 JUMP JUMPDEST PUSH1 0x40 MLOAD DUP1 SWAP2 SUB SWAP1 REVERT JUMPDEST PUSH0 DUP4 PUSH20 0xFFFFFFFFFFFFFFFFFFFFFFFFFFFFFFFFFFFFFFFF AND PUSH4 0x23B872DD CALLER ADDRESS DUP7 PUSH1 0x40 MLOAD DUP5 PUSH4 0xFFFFFFFF AND PUSH1 0xE0 SHL DUP2 MSTORE PUSH1 0x4 ADD PUSH2 0xE39 SWAP4 SWAP3 SWAP2 SWAP1 PUSH2 0x2BBE JUMP JUMPDEST PUSH1 0x20 PUSH1 0x40 MLOAD DUP1 DUP4 SUB DUP2 PUSH0 DUP8 GAS CALL ISZERO DUP1 ISZERO PUSH2 0xE55 JUMPI RETURNDATASIZE PUSH0 DUP1 RETURNDATACOPY RETURNDATASIZE PUSH0 REVERT JUMPDEST POP POP POP POP PUSH1 0x40 MLOAD RETURNDATASIZE PUSH1 0x1F NOT PUSH1 0x1F DUP3 ADD AND DUP3 ADD DUP1 PUSH1 0x40 MSTORE POP DUP2 ADD SWAP1 PUSH2 0xE79 SWAP2 SWAP1 PUSH2 0x2A34 JUMP JUMPDEST SWAP1 POP DUP1 PUSH2 0xEBB JUMPI PUSH1 0x40 MLOAD PUSH32 0x8C379A000000000000000000000000000000000000000000000000000000000 DUP2 MSTORE PUSH1 0x4 ADD PUSH2 0xEB2 SWAP1 PUSH2 0x314A JUMP JUMPDEST PUSH1 0x40 MLOAD DUP1 SWAP2 SUB SWAP1 REVERT JUMPDEST DUP3 PUSH1 0x3 PUSH0 DUP9 PUSH20 0xFFFFFFFFFFFFFFFFFFFFFFFFFFFFFFFFFFFFFFFF AND PUSH20 0xFFFFFFFFFFFFFFFFFFFFFFFFFFFFFFFFFFFFFFFF AND DUP2 MSTORE PUSH1 0x20 ADD SWAP1 DUP2 MSTORE PUSH1 0x20 ADD PUSH0 KECCAK256 PUSH0 DUP3 DUP3 SLOAD PUSH2 0xF07 SWAP2 SWAP1 PUSH2 0x3168 JUMP JUMPDEST SWAP3 POP POP DUP2 SWAP1 SSTORE POP CALLER PUSH20 0xFFFFFFFFFFFFFFFFFFFFFFFFFFFFFFFFFFFFFFFF AND PUSH32 0x8752A472E571A816AEA92EEC8DAE9BAF628E840F4929FBCC2D155E6233FF68A7 DUP8 DUP6 PUSH1 0x40 MLOAD PUSH2 0xF56 SWAP3 SWAP2 SWAP1 PUSH2 0x29D8 JUMP JUMPDEST PUSH1 0x40 MLOAD DUP1 SWAP2 SUB SWAP1 LOG2 POP POP POP POP POP POP JUMP JUMPDEST PUSH1 0x60 DUP1 PUSH0 PUSH1 0x5 DUP1 SLOAD SWAP1 POP SWAP1 POP DUP1 PUSH8 0xFFFFFFFFFFFFFFFF DUP2 GT ISZERO PUSH2 0xF8C JUMPI PUSH2 0xF8B PUSH2 0x2D2B JUMP JUMPDEST JUMPDEST PUSH1 0x40 MLOAD SWAP1 DUP1 DUP3 MSTORE DUP1 PUSH1 0x20 MUL PUSH1 0x20 ADD DUP3 ADD PUSH1 0x40 MSTORE DUP1 ISZERO PUSH2 0xFBA JUMPI DUP2 PUSH1 0x20 ADD PUSH1 0x20 DUP3 MUL DUP1 CALLDATASIZE DUP4 CALLDATACOPY DUP1 DUP3 ADD SWAP2 POP POP SWAP1 POP JUMPDEST POP SWAP3 POP DUP1 PUSH8 0xFFFFFFFFFFFFFFFF DUP2 GT ISZERO PUSH2 0xFD7 JUMPI PUSH2 0xFD6 PUSH2 0x2D2B JUMP JUMPDEST JUMPDEST PUSH1 0x40 MLOAD SWAP1 DUP1 DUP3 MSTORE DUP1 PUSH1 0x20 MUL PUSH1 0x20 ADD DUP3 ADD PUSH1 0x40 MSTORE DUP1 ISZERO PUSH2 0x1005 JUMPI DUP2 PUSH1 0x20 ADD PUSH1 0x20 DUP3 MUL DUP1 CALLDATASIZE DUP4 CALLDATACOPY DUP1 DUP3 ADD SWAP2 POP POP SWAP1 POP JUMPDEST POP SWAP2 POP PUSH0 JUMPDEST DUP2 DUP2 LT ISZERO PUSH2 0x114A JUMPI PUSH0 PUSH1 0x5 DUP3 DUP2 SLOAD DUP2 LT PUSH2 0x1027 JUMPI PUSH2 0x1026 PUSH2 0x2D58 JUMP JUMPDEST JUMPDEST SWAP1 PUSH0 MSTORE PUSH1 0x20 PUSH0 KECCAK256 ADD PUSH0 SWAP1 SLOAD SWAP1 PUSH2 0x100 EXP SWAP1 DIV PUSH20 0xFFFFFFFFFFFFFFFFFFFFFFFFFFFFFFFFFFFFFFFF AND SWAP1 POP DUP1 DUP6 DUP4 DUP2 MLOAD DUP2 LT PUSH2 0x1065 JUMPI PUSH2 0x1064 PUSH2 0x2D58 JUMP JUMPDEST JUMPDEST PUSH1 0x20 MUL PUSH1 0x20 ADD ADD SWAP1 PUSH20 0xFFFFFFFFFFFFFFFFFFFFFFFFFFFFFFFFFFFFFFFF AND SWAP1 DUP2 PUSH20 0xFFFFFFFFFFFFFFFFFFFFFFFFFFFFFFFFFFFFFFFF AND DUP2 MSTORE POP POP DUP1 PUSH20 0xFFFFFFFFFFFFFFFFFFFFFFFFFFFFFFFFFFFFFFFF AND PUSH4 0x70A08231 ADDRESS PUSH1 0x40 MLOAD DUP3 PUSH4 0xFFFFFFFF AND PUSH1 0xE0 SHL DUP2 MSTORE PUSH1 0x4 ADD PUSH2 0x10D8 SWAP2 SWAP1 PUSH2 0x26B8 JUMP JUMPDEST PUSH1 0x20 PUSH1 0x40 MLOAD DUP1 DUP4 SUB DUP2 DUP7 GAS STATICCALL ISZERO DUP1 ISZERO PUSH2 0x10F3 JUMPI RETURNDATASIZE PUSH0 DUP1 RETURNDATACOPY RETURNDATASIZE PUSH0 REVERT JUMPDEST POP POP POP POP PUSH1 0x40 MLOAD RETURNDATASIZE PUSH1 0x1F NOT PUSH1 0x1F DUP3 ADD AND DUP3 ADD DUP1 PUSH1 0x40 MSTORE POP DUP2 ADD SWAP1 PUSH2 0x1117 SWAP2 SWAP1 PUSH2 0x2945 JUMP JUMPDEST DUP5 DUP4 DUP2 MLOAD DUP2 LT PUSH2 0x112A JUMPI PUSH2 0x1129 PUSH2 0x2D58 JUMP JUMPDEST JUMPDEST PUSH1 0x20 MUL PUSH1 0x20 ADD ADD DUP2 DUP2 MSTORE POP POP POP DUP1 DUP1 PUSH2 0x1142 SWAP1 PUSH2 0x2DB2 JUMP JUMPDEST SWAP2 POP POP PUSH2 0x100A JUMP JUMPDEST POP POP SWAP1 SWAP2 JUMP JUMPDEST PUSH1 0x5 DUP2 DUP2 SLOAD DUP2 LT PUSH2 0x115F JUMPI PUSH0 DUP1 REVERT JUMPDEST SWAP1 PUSH0 MSTORE PUSH1 0x20 PUSH0 KECCAK256 ADD PUSH0 SWAP2 POP SLOAD SWAP1 PUSH2 0x100 EXP SWAP1 DIV PUSH20 0xFFFFFFFFFFFFFFFFFFFFFFFFFFFFFFFFFFFFFFFF AND DUP2 JUMP JUMPDEST PUSH1 0x1 PUSH0 SWAP1 SLOAD SWAP1 PUSH2 0x100 EXP SWAP1 DIV PUSH20 0xFFFFFFFFFFFFFFFFFFFFFFFFFFFFFFFFFFFFFFFF AND PUSH20 0xFFFFFFFFFFFFFFFFFFFFFFFFFFFFFFFFFFFFFFFF AND CALLER PUSH20 0xFFFFFFFFFFFFFFFFFFFFFFFFFFFFFFFFFFFFFFFF AND EQ PUSH2 0x121A JUMPI PUSH1 0x40 MLOAD PUSH32 0x8C379A000000000000000000000000000000000000000000000000000000000 DUP2 MSTORE PUSH1 0x4 ADD PUSH2 0x1211 SWAP1 PUSH2 0x2913 JUMP JUMPDEST PUSH1 0x40 MLOAD DUP1 SWAP2 SUB SWAP1 REVERT JUMPDEST PUSH0 DUP2 SWAP1 POP PUSH0 DUP2 PUSH20 0xFFFFFFFFFFFFFFFFFFFFFFFFFFFFFFFFFFFFFFFF AND PUSH4 0x70A08231 ADDRESS PUSH1 0x40 MLOAD DUP3 PUSH4 0xFFFFFFFF AND PUSH1 0xE0 SHL DUP2 MSTORE PUSH1 0x4 ADD PUSH2 0x1258 SWAP2 SWAP1 PUSH2 0x26B8 JUMP JUMPDEST PUSH1 0x20 PUSH1 0x40 MLOAD DUP1 DUP4 SUB DUP2 DUP7 GAS STATICCALL ISZERO DUP1 ISZERO PUSH2 0x1273 JUMPI RETURNDATASIZE PUSH0 DUP1 RETURNDATACOPY RETURNDATASIZE PUSH0 REVERT JUMPDEST POP POP POP POP PUSH1 0x40 MLOAD RETURNDATASIZE PUSH1 0x1F NOT PUSH1 0x1F DUP3 ADD AND DUP3 ADD DUP1 PUSH1 0x40 MSTORE POP DUP2 ADD SWAP1 PUSH2 0x1297 SWAP2 SWAP1 PUSH2 0x2945 JUMP JUMPDEST SWAP1 POP PUSH0 DUP2 GT PUSH2 0x12DB JUMPI PUSH1 0x40 MLOAD PUSH32 0x8C379A000000000000000000000000000000000000000000000000000000000 DUP2 MSTORE PUSH1 0x4 ADD PUSH2 0x12D2 SWAP1 PUSH2 0x29BA JUMP JUMPDEST PUSH1 0x40 MLOAD DUP1 SWAP2 SUB SWAP1 REVERT JUMPDEST DUP2 PUSH20 0xFFFFFFFFFFFFFFFFFFFFFFFFFFFFFFFFFFFFFFFF AND PUSH4 0xA9059CBB PUSH1 0x1 PUSH0 SWAP1 SLOAD SWAP1 PUSH2 0x100 EXP SWAP1 DIV PUSH20 0xFFFFFFFFFFFFFFFFFFFFFFFFFFFFFFFFFFFFFFFF AND DUP4 PUSH1 0x40 MLOAD DUP4 PUSH4 0xFFFFFFFF AND PUSH1 0xE0 SHL DUP2 MSTORE PUSH1 0x4 ADD PUSH2 0x1337 SWAP3 SWAP2 SWAP1 PUSH2 0x29D8 JUMP JUMPDEST PUSH1 0x20 PUSH1 0x40 MLOAD DUP1 DUP4 SUB DUP2 PUSH0 DUP8 GAS CALL ISZERO DUP1 ISZERO PUSH2 0x1353 JUMPI RETURNDATASIZE PUSH0 DUP1 RETURNDATACOPY RETURNDATASIZE PUSH0 REVERT JUMPDEST POP POP POP POP PUSH1 0x40 MLOAD RETURNDATASIZE PUSH1 0x1F NOT PUSH1 0x1F DUP3 ADD AND DUP3 ADD DUP1 PUSH1 0x40 MSTORE POP DUP2 ADD SWAP1 PUSH2 0x1377 SWAP2 SWAP1 PUSH2 0x2A34 JUMP JUMPDEST POP POP POP POP JUMP JUMPDEST PUSH1 0x1 PUSH0 SWAP1 SLOAD SWAP1 PUSH2 0x100 EXP SWAP1 DIV PUSH20 0xFFFFFFFFFFFFFFFFFFFFFFFFFFFFFFFFFFFFFFFF AND DUP2 JUMP JUMPDEST PUSH1 0x2 SLOAD DUP2 JUMP JUMPDEST PUSH1 0x1 PUSH0 SWAP1 SLOAD SWAP1 PUSH2 0x100 EXP SWAP1 DIV PUSH20 0xFFFFFFFFFFFFFFFFFFFFFFFFFFFFFFFFFFFFFFFF AND PUSH20 0xFFFFFFFFFFFFFFFFFFFFFFFFFFFFFFFFFFFFFFFF AND CALLER PUSH20 0xFFFFFFFFFFFFFFFFFFFFFFFFFFFFFFFFFFFFFFFF AND EQ PUSH2 0x1437 JUMPI PUSH1 0x40 MLOAD PUSH32 0x8C379A000000000000000000000000000000000000000000000000000000000 DUP2 MSTORE PUSH1 0x4 ADD PUSH2 0x142E SWAP1 PUSH2 0x2913 JUMP JUMPDEST PUSH1 0x40 MLOAD DUP1 SWAP2 SUB SWAP1 REVERT JUMPDEST PUSH0 DUP3 SWAP1 POP PUSH0 PUSH2 0x1446 DUP5 DUP5 PUSH2 0x22D0 JUMP JUMPDEST SWAP1 POP PUSH0 DUP3 PUSH20 0xFFFFFFFFFFFFFFFFFFFFFFFFFFFFFFFFFFFFFFFF AND PUSH4 0xDD62ED3E CALLER ADDRESS PUSH1 0x40 MLOAD DUP4 PUSH4 0xFFFFFFFF AND PUSH1 0xE0 SHL DUP2 MSTORE PUSH1 0x4 ADD PUSH2 0x1484 SWAP3 SWAP2 SWAP1 PUSH2 0x2B2F JUMP JUMPDEST PUSH1 0x20 PUSH1 0x40 MLOAD DUP1 DUP4 SUB DUP2 DUP7 GAS STATICCALL ISZERO DUP1 ISZERO PUSH2 0x149F JUMPI RETURNDATASIZE PUSH0 DUP1 RETURNDATACOPY RETURNDATASIZE PUSH0 REVERT JUMPDEST POP POP POP POP PUSH1 0x40 MLOAD RETURNDATASIZE PUSH1 0x1F NOT PUSH1 0x1F DUP3 ADD AND DUP3 ADD DUP1 PUSH1 0x40 MSTORE POP DUP2 ADD SWAP1 PUSH2 0x14C3 SWAP2 SWAP1 PUSH2 0x2945 JUMP JUMPDEST SWAP1 POP DUP2 DUP2 LT ISZERO PUSH2 0x1508 JUMPI PUSH1 0x40 MLOAD PUSH32 0x8C379A000000000000000000000000000000000000000000000000000000000 DUP2 MSTORE PUSH1 0x4 ADD PUSH2 0x14FF SWAP1 PUSH2 0x30E2 JUMP JUMPDEST PUSH1 0x40 MLOAD DUP1 SWAP2 SUB SWAP1 REVERT JUMPDEST PUSH0 DUP4 PUSH20 0xFFFFFFFFFFFFFFFFFFFFFFFFFFFFFFFFFFFFFFFF AND PUSH4 0x23B872DD CALLER ADDRESS DUP7 PUSH1 0x40 MLOAD DUP5 PUSH4 0xFFFFFFFF AND PUSH1 0xE0 SHL DUP2 MSTORE PUSH1 0x4 ADD PUSH2 0x1546 SWAP4 SWAP3 SWAP2 SWAP1 PUSH2 0x2BBE JUMP JUMPDEST PUSH1 0x20 PUSH1 0x40 MLOAD DUP1 DUP4 SUB DUP2 PUSH0 DUP8 GAS CALL ISZERO DUP1 ISZERO PUSH2 0x1562 JUMPI RETURNDATASIZE PUSH0 DUP1 RETURNDATACOPY RETURNDATASIZE PUSH0 REVERT JUMPDEST POP POP POP POP PUSH1 0x40 MLOAD RETURNDATASIZE PUSH1 0x1F NOT PUSH1 0x1F DUP3 ADD AND DUP3 ADD DUP1 PUSH1 0x40 MSTORE POP DUP2 ADD SWAP1 PUSH2 0x1586 SWAP2 SWAP1 PUSH2 0x2A34 JUMP JUMPDEST SWAP1 POP DUP1 PUSH2 0x15C8 JUMPI PUSH1 0x40 MLOAD PUSH32 0x8C379A000000000000000000000000000000000000000000000000000000000 DUP2 MSTORE PUSH1 0x4 ADD PUSH2 0x15BF SWAP1 PUSH2 0x314A JUMP JUMPDEST PUSH1 0x40 MLOAD DUP1 SWAP2 SUB SWAP1 REVERT JUMPDEST DUP3 PUSH1 0x3 PUSH0 DUP9 PUSH20 0xFFFFFFFFFFFFFFFFFFFFFFFFFFFFFFFFFFFFFFFF AND PUSH20 0xFFFFFFFFFFFFFFFFFFFFFFFFFFFFFFFFFFFFFFFF AND DUP2 MSTORE PUSH1 0x20 ADD SWAP1 DUP2 MSTORE PUSH1 0x20 ADD PUSH0 KECCAK256 PUSH0 DUP3 DUP3 SLOAD PUSH2 0x1614 SWAP2 SWAP1 PUSH2 0x3168 JUMP JUMPDEST SWAP3 POP POP DUP2 SWAP1 SSTORE POP CALLER PUSH20 0xFFFFFFFFFFFFFFFFFFFFFFFFFFFFFFFFFFFFFFFF AND PUSH32 0x8752A472E571A816AEA92EEC8DAE9BAF628E840F4929FBCC2D155E6233FF68A7 DUP8 DUP6 PUSH1 0x40 MLOAD PUSH2 0x1663 SWAP3 SWAP2 SWAP1 PUSH2 0x29D8 JUMP JUMPDEST PUSH1 0x40 MLOAD DUP1 SWAP2 SUB SWAP1 LOG2 POP POP POP POP POP POP JUMP JUMPDEST PUSH0 PUSH20 0x760AFE86E5DE5FA0EE542FC7B7B713E1C5425701 SWAP1 POP PUSH0 DUP2 PUSH20 0xFFFFFFFFFFFFFFFFFFFFFFFFFFFFFFFFFFFFFFFF AND PUSH4 0xDD62ED3E CALLER ADDRESS PUSH1 0x40 MLOAD DUP4 PUSH4 0xFFFFFFFF AND PUSH1 0xE0 SHL DUP2 MSTORE PUSH1 0x4 ADD PUSH2 0x16C7 SWAP3 SWAP2 SWAP1 PUSH2 0x2B2F JUMP JUMPDEST PUSH1 0x20 PUSH1 0x40 MLOAD DUP1 DUP4 SUB DUP2 DUP7 GAS STATICCALL ISZERO DUP1 ISZERO PUSH2 0x16E2 JUMPI RETURNDATASIZE PUSH0 DUP1 RETURNDATACOPY RETURNDATASIZE PUSH0 REVERT JUMPDEST POP POP POP POP PUSH1 0x40 MLOAD RETURNDATASIZE PUSH1 0x1F NOT PUSH1 0x1F DUP3 ADD AND DUP3 ADD DUP1 PUSH1 0x40 MSTORE POP DUP2 ADD SWAP1 PUSH2 0x1706 SWAP2 SWAP1 PUSH2 0x2945 JUMP JUMPDEST POP DUP2 PUSH20 0xFFFFFFFFFFFFFFFFFFFFFFFFFFFFFFFFFFFFFFFF AND PUSH4 0x23B872DD CALLER ADDRESS PUSH8 0x16345785D8A0000 PUSH1 0x40 MLOAD DUP5 PUSH4 0xFFFFFFFF AND PUSH1 0xE0 SHL DUP2 MSTORE PUSH1 0x4 ADD PUSH2 0x174C SWAP4 SWAP3 SWAP2 SWAP1 PUSH2 0x31DD JUMP JUMPDEST PUSH1 0x20 PUSH1 0x40 MLOAD DUP1 DUP4 SUB DUP2 PUSH0 DUP8 GAS CALL ISZERO DUP1 ISZERO PUSH2 0x1768 JUMPI RETURNDATASIZE PUSH0 DUP1 RETURNDATACOPY RETURNDATASIZE PUSH0 REVERT JUMPDEST POP POP POP POP PUSH1 0x40 MLOAD RETURNDATASIZE PUSH1 0x1F NOT PUSH1 0x1F DUP3 ADD AND DUP3 ADD DUP1 PUSH1 0x40 MSTORE POP DUP2 ADD SWAP1 PUSH2 0x178C SWAP2 SWAP1 PUSH2 0x2A34 JUMP JUMPDEST POP PUSH0 DUP2 PUSH20 0xFFFFFFFFFFFFFFFFFFFFFFFFFFFFFFFFFFFFFFFF AND PUSH4 0xA9059CBB CALLER PUSH8 0x16345785D8A0000 PUSH1 0x40 MLOAD DUP4 PUSH4 0xFFFFFFFF AND PUSH1 0xE0 SHL DUP2 MSTORE PUSH1 0x4 ADD PUSH2 0x17D1 SWAP3 SWAP2 SWAP1 PUSH2 0x3212 JUMP JUMPDEST PUSH1 0x20 PUSH1 0x40 MLOAD DUP1 DUP4 SUB DUP2 PUSH0 DUP8 GAS CALL ISZERO DUP1 ISZERO PUSH2 0x17ED JUMPI RETURNDATASIZE PUSH0 DUP1 RETURNDATACOPY RETURNDATASIZE PUSH0 REVERT JUMPDEST POP POP POP POP PUSH1 0x40 MLOAD RETURNDATASIZE PUSH1 0x1F NOT PUSH1 0x1F DUP3 ADD AND DUP3 ADD DUP1 PUSH1 0x40 MSTORE POP DUP2 ADD SWAP1 PUSH2 0x1811 SWAP2 SWAP1 PUSH2 0x2A34 JUMP JUMPDEST SWAP1 POP DUP1 PUSH2 0x1853 JUMPI PUSH1 0x40 MLOAD PUSH32 0x8C379A000000000000000000000000000000000000000000000000000000000 DUP2 MSTORE PUSH1 0x4 ADD PUSH2 0x184A SWAP1 PUSH2 0x2D0D JUMP JUMPDEST PUSH1 0x40 MLOAD DUP1 SWAP2 SUB SWAP1 REVERT JUMPDEST PUSH8 0x16345785D8A0000 PUSH1 0x3 PUSH0 PUSH20 0x760AFE86E5DE5FA0EE542FC7B7B713E1C5425701 PUSH20 0xFFFFFFFFFFFFFFFFFFFFFFFFFFFFFFFFFFFFFFFF AND PUSH20 0xFFFFFFFFFFFFFFFFFFFFFFFFFFFFFFFFFFFFFFFF AND DUP2 MSTORE PUSH1 0x20 ADD SWAP1 DUP2 MSTORE PUSH1 0x20 ADD PUSH0 KECCAK256 PUSH0 DUP3 DUP3 SLOAD PUSH2 0x18BB SWAP2 SWAP1 PUSH2 0x3168 JUMP JUMPDEST SWAP3 POP POP DUP2 SWAP1 SSTORE POP PUSH8 0x16345785D8A0000 PUSH1 0x3 PUSH0 DUP1 PUSH20 0xFFFFFFFFFFFFFFFFFFFFFFFFFFFFFFFFFFFFFFFF AND PUSH20 0xFFFFFFFFFFFFFFFFFFFFFFFFFFFFFFFFFFFFFFFF AND DUP2 MSTORE PUSH1 0x20 ADD SWAP1 DUP2 MSTORE PUSH1 0x20 ADD PUSH0 KECCAK256 PUSH0 DUP3 DUP3 SLOAD PUSH2 0x1916 SWAP2 SWAP1 PUSH2 0x3239 JUMP JUMPDEST SWAP3 POP POP DUP2 SWAP1 SSTORE POP CALLER PUSH20 0xFFFFFFFFFFFFFFFFFFFFFFFFFFFFFFFFFFFFFFFF AND PUSH32 0x6782190C91D4A7E8AD2A867DEED6EC0A970CAB8FF137AE2BD4ABD92B3810F4D3 PUSH20 0x760AFE86E5DE5FA0EE542FC7B7B713E1C5425701 PUSH0 PUSH8 0x16345785D8A0000 DUP1 PUSH1 0x40 MLOAD PUSH2 0x1985 SWAP5 SWAP4 SWAP3 SWAP2 SWAP1 PUSH2 0x326C JUMP JUMPDEST PUSH1 0x40 MLOAD DUP1 SWAP2 SUB SWAP1 LOG2 POP POP POP JUMP JUMPDEST PUSH1 0x2 SLOAD CALLVALUE LT ISZERO PUSH2 0x19D7 JUMPI PUSH1 0x40 MLOAD PUSH32 0x8C379A000000000000000000000000000000000000000000000000000000000 DUP2 MSTORE PUSH1 0x4 ADD PUSH2 0x19CE SWAP1 PUSH2 0x32F9 JUMP JUMPDEST PUSH1 0x40 MLOAD DUP1 SWAP2 SUB SWAP1 REVERT JUMPDEST DUP2 DUP2 PUSH0 SWAP2 DUP3 PUSH2 0x19E7 SWAP3 SWAP2 SWAP1 PUSH2 0x3512 JUMP JUMPDEST POP POP POP JUMP JUMPDEST PUSH1 0x4 PUSH1 0x20 MSTORE DUP2 PUSH0 MSTORE PUSH1 0x40 PUSH0 KECCAK256 PUSH1 0x20 MSTORE DUP1 PUSH0 MSTORE PUSH1 0x40 PUSH0 KECCAK256 PUSH0 SWAP2 POP SWAP2 POP POP SLOAD DUP2 JUMP JUMPDEST PUSH0 PUSH20 0x760AFE86E5DE5FA0EE542FC7B7B713E1C5425701 SWAP1 POP PUSH0 DUP2 SWAP1 POP PUSH0 PUSH2 0x1A33 DUP4 DUP6 PUSH2 0x22D0 JUMP JUMPDEST SWAP1 POP PUSH0 DUP3 PUSH20 0xFFFFFFFFFFFFFFFFFFFFFFFFFFFFFFFFFFFFFFFF AND PUSH4 0xDD62ED3E CALLER ADDRESS PUSH1 0x40 MLOAD DUP4 PUSH4 0xFFFFFFFF AND PUSH1 0xE0 SHL DUP2 MSTORE PUSH1 0x4 ADD PUSH2 0x1A71 SWAP3 SWAP2 SWAP1 PUSH2 0x2B2F JUMP JUMPDEST PUSH1 0x20 PUSH1 0x40 MLOAD DUP1 DUP4 SUB DUP2 DUP7 GAS STATICCALL ISZERO DUP1 ISZERO PUSH2 0x1A8C JUMPI RETURNDATASIZE PUSH0 DUP1 RETURNDATACOPY RETURNDATASIZE PUSH0 REVERT JUMPDEST POP POP POP POP PUSH1 0x40 MLOAD RETURNDATASIZE PUSH1 0x1F NOT PUSH1 0x1F DUP3 ADD AND DUP3 ADD DUP1 PUSH1 0x40 MSTORE POP DUP2 ADD SWAP1 PUSH2 0x1AB0 SWAP2 SWAP1 PUSH2 0x2945 JUMP JUMPDEST SWAP1 POP DUP2 DUP2 LT ISZERO PUSH2 0x1AF5 JUMPI PUSH1 0x40 MLOAD PUSH32 0x8C379A000000000000000000000000000000000000000000000000000000000 DUP2 MSTORE PUSH1 0x4 ADD PUSH2 0x1AEC SWAP1 PUSH2 0x30E2 JUMP JUMPDEST PUSH1 0x40 MLOAD DUP1 SWAP2 SUB SWAP1 REVERT JUMPDEST PUSH0 DUP4 PUSH20 0xFFFFFFFFFFFFFFFFFFFFFFFFFFFFFFFFFFFFFFFF AND PUSH4 0x23B872DD CALLER ADDRESS DUP7 PUSH1 0x40 MLOAD DUP5 PUSH4 0xFFFFFFFF AND PUSH1 0xE0 SHL DUP2 MSTORE PUSH1 0x4 ADD PUSH2 0x1B33 SWAP4 SWAP3 SWAP2 SWAP1 PUSH2 0x2BBE JUMP JUMPDEST PUSH1 0x20 PUSH1 0x40 MLOAD DUP1 DUP4 SUB DUP2 PUSH0 DUP8 GAS CALL ISZERO DUP1 ISZERO PUSH2 0x1B4F JUMPI RETURNDATASIZE PUSH0 DUP1 RETURNDATACOPY RETURNDATASIZE PUSH0 REVERT JUMPDEST POP POP POP POP PUSH1 0x40 MLOAD RETURNDATASIZE PUSH1 0x1F NOT PUSH1 0x1F DUP3 ADD AND DUP3 ADD DUP1 PUSH1 0x40 MSTORE POP DUP2 ADD SWAP1 PUSH2 0x1B73 SWAP2 SWAP1 PUSH2 0x2A34 JUMP JUMPDEST SWAP1 POP DUP1 PUSH2 0x1BB5 JUMPI PUSH1 0x40 MLOAD PUSH32 0x8C379A000000000000000000000000000000000000000000000000000000000 DUP2 MSTORE PUSH1 0x4 ADD PUSH2 0x1BAC SWAP1 PUSH2 0x314A JUMP JUMPDEST PUSH1 0x40 MLOAD DUP1 SWAP2 SUB SWAP1 REVERT JUMPDEST DUP3 PUSH1 0x3 PUSH0 DUP8 PUSH20 0xFFFFFFFFFFFFFFFFFFFFFFFFFFFFFFFFFFFFFFFF AND PUSH20 0xFFFFFFFFFFFFFFFFFFFFFFFFFFFFFFFFFFFFFFFF AND DUP2 MSTORE PUSH1 0x20 ADD SWAP1 DUP2 MSTORE PUSH1 0x20 ADD PUSH0 KECCAK256 PUSH0 DUP3 DUP3 SLOAD PUSH2 0x1C01 SWAP2 SWAP1 PUSH2 0x3168 JUMP JUMPDEST SWAP3 POP POP DUP2 SWAP1 SSTORE POP CALLER PUSH20 0xFFFFFFFFFFFFFFFFFFFFFFFFFFFFFFFFFFFFFFFF AND PUSH32 0x8752A472E571A816AEA92EEC8DAE9BAF628E840F4929FBCC2D155E6233FF68A7 DUP7 DUP6 PUSH1 0x40 MLOAD PUSH2 0x1C50 SWAP3 SWAP2 SWAP1 PUSH2 0x29D8 JUMP JUMPDEST PUSH1 0x40 MLOAD DUP1 SWAP2 SUB SWAP1 LOG2 POP POP POP POP POP POP JUMP JUMPDEST PUSH1 0x1 PUSH0 SWAP1 SLOAD SWAP1 PUSH2 0x100 EXP SWAP1 DIV PUSH20 0xFFFFFFFFFFFFFFFFFFFFFFFFFFFFFFFFFFFFFFFF AND PUSH20 0xFFFFFFFFFFFFFFFFFFFFFFFFFFFFFFFFFFFFFFFF AND CALLER PUSH20 0xFFFFFFFFFFFFFFFFFFFFFFFFFFFFFFFFFFFFFFFF AND EQ PUSH2 0x1CEF JUMPI PUSH1 0x40 MLOAD PUSH32 0x8C379A000000000000000000000000000000000000000000000000000000000 DUP2 MSTORE PUSH1 0x4 ADD PUSH2 0x1CE6 SWAP1 PUSH2 0x2913 JUMP JUMPDEST PUSH1 0x40 MLOAD DUP1 SWAP2 SUB SWAP1 REVERT JUMPDEST PUSH1 0x1 PUSH0 SWAP1 SLOAD SWAP1 PUSH2 0x100 EXP SWAP1 DIV PUSH20 0xFFFFFFFFFFFFFFFFFFFFFFFFFFFFFFFFFFFFFFFF AND PUSH20 0xFFFFFFFFFFFFFFFFFFFFFFFFFFFFFFFFFFFFFFFF AND PUSH2 0x8FC SELFBALANCE SWAP1 DUP2 ISZERO MUL SWAP1 PUSH1 0x40 MLOAD PUSH0 PUSH1 0x40 MLOAD DUP1 DUP4 SUB DUP2 DUP6 DUP9 DUP9 CALL SWAP4 POP POP POP POP ISZERO DUP1 ISZERO PUSH2 0x1D53 JUMPI RETURNDATASIZE PUSH0 DUP1 RETURNDATACOPY RETURNDATASIZE PUSH0 REVERT JUMPDEST POP JUMP JUMPDEST PUSH0 DUP1 SLOAD PUSH2 0x1D62 SWAP1 PUSH2 0x334E JUMP JUMPDEST DUP1 PUSH1 0x1F ADD PUSH1 0x20 DUP1 SWAP2 DIV MUL PUSH1 0x20 ADD PUSH1 0x40 MLOAD SWAP1 DUP2 ADD PUSH1 0x40 MSTORE DUP1 SWAP3 SWAP2 SWAP1 DUP2 DUP2 MSTORE PUSH1 0x20 ADD DUP3 DUP1 SLOAD PUSH2 0x1D8E SWAP1 PUSH2 0x334E JUMP JUMPDEST DUP1 ISZERO PUSH2 0x1DD9 JUMPI DUP1 PUSH1 0x1F LT PUSH2 0x1DB0 JUMPI PUSH2 0x100 DUP1 DUP4 SLOAD DIV MUL DUP4 MSTORE SWAP2 PUSH1 0x20 ADD SWAP2 PUSH2 0x1DD9 JUMP JUMPDEST DUP3 ADD SWAP2 SWAP1 PUSH0 MSTORE PUSH1 0x20 PUSH0 KECCAK256 SWAP1 JUMPDEST DUP2 SLOAD DUP2 MSTORE SWAP1 PUSH1 0x1 ADD SWAP1 PUSH1 0x20 ADD DUP1 DUP4 GT PUSH2 0x1DBC JUMPI DUP3 SWAP1 SUB PUSH1 0x1F AND DUP3 ADD SWAP2 JUMPDEST POP POP POP POP POP DUP2 JUMP JUMPDEST PUSH1 0x3 PUSH1 0x20 MSTORE DUP1 PUSH0 MSTORE PUSH1 0x40 PUSH0 KECCAK256 PUSH0 SWAP2 POP SWAP1 POP SLOAD DUP2 JUMP JUMPDEST PUSH1 0x2 SLOAD CALLVALUE LT ISZERO PUSH2 0x1E3B JUMPI PUSH1 0x40 MLOAD PUSH32 0x8C379A000000000000000000000000000000000000000000000000000000000 DUP2 MSTORE PUSH1 0x4 ADD PUSH2 0x1E32 SWAP1 PUSH2 0x32F9 JUMP JUMPDEST PUSH1 0x40 MLOAD DUP1 SWAP2 SUB SWAP1 REVERT JUMPDEST PUSH0 DUP3 GT PUSH2 0x1E7D JUMPI PUSH1 0x40 MLOAD PUSH32 0x8C379A000000000000000000000000000000000000000000000000000000000 DUP2 MSTORE PUSH1 0x4 ADD PUSH2 0x1E74 SWAP1 PUSH2 0x2AA9 JUMP JUMPDEST PUSH1 0x40 MLOAD DUP1 SWAP2 SUB SWAP1 REVERT JUMPDEST PUSH0 DUP5 SWAP1 POP PUSH0 DUP5 SWAP1 POP PUSH0 PUSH2 0x1E90 DUP8 DUP7 PUSH2 0x22D0 JUMP JUMPDEST SWAP1 POP PUSH0 DUP4 PUSH20 0xFFFFFFFFFFFFFFFFFFFFFFFFFFFFFFFFFFFFFFFF AND PUSH4 0xDD62ED3E CALLER ADDRESS PUSH1 0x40 MLOAD DUP4 PUSH4 0xFFFFFFFF AND PUSH1 0xE0 SHL DUP2 MSTORE PUSH1 0x4 ADD PUSH2 0x1ECE SWAP3 SWAP2 SWAP1 PUSH2 0x2B2F JUMP JUMPDEST PUSH1 0x20 PUSH1 0x40 MLOAD DUP1 DUP4 SUB DUP2 DUP7 GAS STATICCALL ISZERO DUP1 ISZERO PUSH2 0x1EE9 JUMPI RETURNDATASIZE PUSH0 DUP1 RETURNDATACOPY RETURNDATASIZE PUSH0 REVERT JUMPDEST POP POP POP POP PUSH1 0x40 MLOAD RETURNDATASIZE PUSH1 0x1F NOT PUSH1 0x1F DUP3 ADD AND DUP3 ADD DUP1 PUSH1 0x40 MSTORE POP DUP2 ADD SWAP1 PUSH2 0x1F0D SWAP2 SWAP1 PUSH2 0x2945 JUMP JUMPDEST SWAP1 POP DUP2 DUP2 LT ISZERO PUSH2 0x1F52 JUMPI PUSH1 0x40 MLOAD PUSH32 0x8C379A000000000000000000000000000000000000000000000000000000000 DUP2 MSTORE PUSH1 0x4 ADD PUSH2 0x1F49 SWAP1 PUSH2 0x30E2 JUMP JUMPDEST PUSH1 0x40 MLOAD DUP1 SWAP2 SUB SWAP1 REVERT JUMPDEST PUSH0 DUP5 PUSH20 0xFFFFFFFFFFFFFFFFFFFFFFFFFFFFFFFFFFFFFFFF AND PUSH4 0x23B872DD CALLER ADDRESS DUP7 PUSH1 0x40 MLOAD DUP5 PUSH4 0xFFFFFFFF AND PUSH1 0xE0 SHL DUP2 MSTORE PUSH1 0x4 ADD PUSH2 0x1F90 SWAP4 SWAP3 SWAP2 SWAP1 PUSH2 0x2BBE JUMP JUMPDEST PUSH1 0x20 PUSH1 0x40 MLOAD DUP1 DUP4 SUB DUP2 PUSH0 DUP8 GAS CALL ISZERO DUP1 ISZERO PUSH2 0x1FAC JUMPI RETURNDATASIZE PUSH0 DUP1 RETURNDATACOPY RETURNDATASIZE PUSH0 REVERT JUMPDEST POP POP POP POP PUSH1 0x40 MLOAD RETURNDATASIZE PUSH1 0x1F NOT PUSH1 0x1F DUP3 ADD AND DUP3 ADD DUP1 PUSH1 0x40 MSTORE POP DUP2 ADD SWAP1 PUSH2 0x1FD0 SWAP2 SWAP1 PUSH2 0x2A34 JUMP JUMPDEST SWAP1 POP DUP1 PUSH2 0x2012 JUMPI PUSH1 0x40 MLOAD PUSH32 0x8C379A000000000000000000000000000000000000000000000000000000000 DUP2 MSTORE PUSH1 0x4 ADD PUSH2 0x2009 SWAP1 PUSH2 0x2C3D JUMP JUMPDEST PUSH1 0x40 MLOAD DUP1 SWAP2 SUB SWAP1 REVERT JUMPDEST PUSH8 0xDE0B6B3A7640000 DUP7 DUP5 PUSH2 0x2027 SWAP2 SWAP1 PUSH2 0x35DF JUMP JUMPDEST PUSH2 0x2031 SWAP2 SWAP1 PUSH2 0x3000 JUMP JUMPDEST POP PUSH8 0x16345785D8A0000 DUP5 PUSH20 0xFFFFFFFFFFFFFFFFFFFFFFFFFFFFFFFFFFFFFFFF AND PUSH4 0x70A08231 ADDRESS PUSH1 0x40 MLOAD DUP3 PUSH4 0xFFFFFFFF AND PUSH1 0xE0 SHL DUP2 MSTORE PUSH1 0x4 ADD PUSH2 0x2074 SWAP2 SWAP1 PUSH2 0x26B8 JUMP JUMPDEST PUSH1 0x20 PUSH1 0x40 MLOAD DUP1 DUP4 SUB DUP2 DUP7 GAS STATICCALL ISZERO DUP1 ISZERO PUSH2 0x208F JUMPI RETURNDATASIZE PUSH0 DUP1 RETURNDATACOPY RETURNDATASIZE PUSH0 REVERT JUMPDEST POP POP POP POP PUSH1 0x40 MLOAD RETURNDATASIZE PUSH1 0x1F NOT PUSH1 0x1F DUP3 ADD AND DUP3 ADD DUP1 PUSH1 0x40 MSTORE POP DUP2 ADD SWAP1 PUSH2 0x20B3 SWAP2 SWAP1 PUSH2 0x2945 JUMP JUMPDEST LT ISZERO PUSH2 0x20F4 JUMPI PUSH1 0x40 MLOAD PUSH32 0x8C379A000000000000000000000000000000000000000000000000000000000 DUP2 MSTORE PUSH1 0x4 ADD PUSH2 0x20EB SWAP1 PUSH2 0x366A JUMP JUMPDEST PUSH1 0x40 MLOAD DUP1 SWAP2 SUB SWAP1 REVERT JUMPDEST PUSH0 DUP5 PUSH20 0xFFFFFFFFFFFFFFFFFFFFFFFFFFFFFFFFFFFFFFFF AND PUSH4 0xA9059CBB CALLER PUSH8 0x16345785D8A0000 PUSH1 0x40 MLOAD DUP4 PUSH4 0xFFFFFFFF AND PUSH1 0xE0 SHL DUP2 MSTORE PUSH1 0x4 ADD PUSH2 0x2138 SWAP3 SWAP2 SWAP1 PUSH2 0x3212 JUMP JUMPDEST PUSH1 0x20 PUSH1 0x40 MLOAD DUP1 DUP4 SUB DUP2 PUSH0 DUP8 GAS CALL ISZERO DUP1 ISZERO PUSH2 0x2154 JUMPI RETURNDATASIZE PUSH0 DUP1 RETURNDATACOPY RETURNDATASIZE PUSH0 REVERT JUMPDEST POP POP POP POP PUSH1 0x40 MLOAD RETURNDATASIZE PUSH1 0x1F NOT PUSH1 0x1F DUP3 ADD AND DUP3 ADD DUP1 PUSH1 0x40 MSTORE POP DUP2 ADD SWAP1 PUSH2 0x2178 SWAP2 SWAP1 PUSH2 0x2A34 JUMP JUMPDEST SWAP1 POP DUP1 PUSH2 0x21BA JUMPI PUSH1 0x40 MLOAD PUSH32 0x8C379A000000000000000000000000000000000000000000000000000000000 DUP2 MSTORE PUSH1 0x4 ADD PUSH2 0x21B1 SWAP1 PUSH2 0x2D0D JUMP JUMPDEST PUSH1 0x40 MLOAD DUP1 SWAP2 SUB SWAP1 REVERT JUMPDEST DUP4 PUSH1 0x3 PUSH0 DUP13 PUSH20 0xFFFFFFFFFFFFFFFFFFFFFFFFFFFFFFFFFFFFFFFF AND PUSH20 0xFFFFFFFFFFFFFFFFFFFFFFFFFFFFFFFFFFFFFFFF AND DUP2 MSTORE PUSH1 0x20 ADD SWAP1 DUP2 MSTORE PUSH1 0x20 ADD PUSH0 KECCAK256 PUSH0 DUP3 DUP3 SLOAD PUSH2 0x2206 SWAP2 SWAP1 PUSH2 0x3168 JUMP JUMPDEST SWAP3 POP POP DUP2 SWAP1 SSTORE POP PUSH8 0x16345785D8A0000 PUSH1 0x3 PUSH0 DUP12 PUSH20 0xFFFFFFFFFFFFFFFFFFFFFFFFFFFFFFFFFFFFFFFF AND PUSH20 0xFFFFFFFFFFFFFFFFFFFFFFFFFFFFFFFFFFFFFFFF AND DUP2 MSTORE PUSH1 0x20 ADD SWAP1 DUP2 MSTORE PUSH1 0x20 ADD PUSH0 KECCAK256 PUSH0 DUP3 DUP3 SLOAD PUSH2 0x2261 SWAP2 SWAP1 PUSH2 0x3239 JUMP JUMPDEST SWAP3 POP POP DUP2 SWAP1 SSTORE POP CALLER PUSH20 0xFFFFFFFFFFFFFFFFFFFFFFFFFFFFFFFFFFFFFFFF AND PUSH32 0x6782190C91D4A7E8AD2A867DEED6EC0A970CAB8FF137AE2BD4ABD92B3810F4D3 DUP12 DUP12 DUP8 PUSH8 0x16345785D8A0000 PUSH1 0x40 MLOAD PUSH2 0x22BC SWAP5 SWAP4 SWAP3 SWAP2 SWAP1 PUSH2 0x3688 JUMP JUMPDEST PUSH1 0x40 MLOAD DUP1 SWAP2 SUB SWAP1 LOG2 POP POP POP POP POP POP POP POP POP POP JUMP JUMPDEST PUSH0 DUP1 DUP4 PUSH20 0xFFFFFFFFFFFFFFFFFFFFFFFFFFFFFFFFFFFFFFFF AND PUSH4 0x313CE567 PUSH1 0x40 MLOAD DUP2 PUSH4 0xFFFFFFFF AND PUSH1 0xE0 SHL DUP2 MSTORE PUSH1 0x4 ADD PUSH1 0x20 PUSH1 0x40 MLOAD DUP1 DUP4 SUB DUP2 DUP7 GAS STATICCALL ISZERO DUP1 ISZERO PUSH2 0x231B JUMPI RETURNDATASIZE PUSH0 DUP1 RETURNDATACOPY RETURNDATASIZE PUSH0 REVERT JUMPDEST POP POP POP POP PUSH1 0x40 MLOAD RETURNDATASIZE PUSH1 0x1F NOT PUSH1 0x1F DUP3 ADD AND DUP3 ADD DUP1 PUSH1 0x40 MSTORE POP DUP2 ADD SWAP1 PUSH2 0x233F SWAP2 SWAP1 PUSH2 0x2E2F JUMP JUMPDEST SWAP1 POP DUP1 PUSH1 0xFF AND PUSH1 0xA PUSH2 0x2351 SWAP2 SWAP1 PUSH2 0x36CB JUMP JUMPDEST DUP4 PUSH2 0x235C SWAP2 SWAP1 PUSH2 0x35DF JUMP JUMPDEST SWAP2 POP POP SWAP3 SWAP2 POP POP JUMP JUMPDEST PUSH0 DUP1 REVERT JUMPDEST PUSH0 DUP1 REVERT JUMPDEST PUSH0 PUSH20 0xFFFFFFFFFFFFFFFFFFFFFFFFFFFFFFFFFFFFFFFF DUP3 AND SWAP1 POP SWAP2 SWAP1 POP JUMP JUMPDEST PUSH0 PUSH2 0x2396 DUP3 PUSH2 0x236D JUMP JUMPDEST SWAP1 POP SWAP2 SWAP1 POP JUMP JUMPDEST PUSH2 0x23A6 DUP2 PUSH2 0x238C JUMP JUMPDEST DUP2 EQ PUSH2 0x23B0 JUMPI PUSH0 DUP1 REVERT JUMPDEST POP JUMP JUMPDEST PUSH0 DUP2 CALLDATALOAD SWAP1 POP PUSH2 0x23C1 DUP2 PUSH2 0x239D JUMP JUMPDEST SWAP3 SWAP2 POP POP JUMP JUMPDEST PUSH0 DUP2 SWAP1 POP SWAP2 SWAP1 POP JUMP JUMPDEST PUSH2 0x23D9 DUP2 PUSH2 0x23C7 JUMP JUMPDEST DUP2 EQ PUSH2 0x23E3 JUMPI PUSH0 DUP1 REVERT JUMPDEST POP JUMP JUMPDEST PUSH0 DUP2 CALLDATALOAD SWAP1 POP PUSH2 0x23F4 DUP2 PUSH2 0x23D0 JUMP JUMPDEST SWAP3 SWAP2 POP POP JUMP JUMPDEST PUSH0 DUP1 PUSH0 PUSH1 0x60 DUP5 DUP7 SUB SLT ISZERO PUSH2 0x2411 JUMPI PUSH2 0x2410 PUSH2 0x2365 JUMP JUMPDEST JUMPDEST PUSH0 PUSH2 0x241E DUP7 DUP3 DUP8 ADD PUSH2 0x23B3 JUMP JUMPDEST SWAP4 POP POP PUSH1 0x20 PUSH2 0x242F DUP7 DUP3 DUP8 ADD PUSH2 0x23B3 JUMP JUMPDEST SWAP3 POP POP PUSH1 0x40 PUSH2 0x2440 DUP7 DUP3 DUP8 ADD PUSH2 0x23E6 JUMP JUMPDEST SWAP2 POP POP SWAP3 POP SWAP3 POP SWAP3 JUMP JUMPDEST PUSH0 PUSH1 0x20 DUP3 DUP5 SUB SLT ISZERO PUSH2 0x245F JUMPI PUSH2 0x245E PUSH2 0x2365 JUMP JUMPDEST JUMPDEST PUSH0 PUSH2 0x246C DUP5 DUP3 DUP6 ADD PUSH2 0x23B3 JUMP JUMPDEST SWAP2 POP POP SWAP3 SWAP2 POP POP JUMP JUMPDEST PUSH0 DUP2 MLOAD SWAP1 POP SWAP2 SWAP1 POP JUMP JUMPDEST PUSH0 DUP3 DUP3 MSTORE PUSH1 0x20 DUP3 ADD SWAP1 POP SWAP3 SWAP2 POP POP JUMP JUMPDEST PUSH0 DUP2 SWAP1 POP PUSH1 0x20 DUP3 ADD SWAP1 POP SWAP2 SWAP1 POP JUMP JUMPDEST PUSH2 0x24A7 DUP2 PUSH2 0x238C JUMP JUMPDEST DUP3 MSTORE POP POP JUMP JUMPDEST PUSH0 PUSH2 0x24B8 DUP4 DUP4 PUSH2 0x249E JUMP JUMPDEST PUSH1 0x20 DUP4 ADD SWAP1 POP SWAP3 SWAP2 POP POP JUMP JUMPDEST PUSH0 PUSH1 0x20 DUP3 ADD SWAP1 POP SWAP2 SWAP1 POP JUMP JUMPDEST PUSH0 PUSH2 0x24DA DUP3 PUSH2 0x2475 JUMP JUMPDEST PUSH2 0x24E4 DUP2 DUP6 PUSH2 0x247F JUMP JUMPDEST SWAP4 POP PUSH2 0x24EF DUP4 PUSH2 0x248F JUMP JUMPDEST DUP1 PUSH0 JUMPDEST DUP4 DUP2 LT ISZERO PUSH2 0x251F JUMPI DUP2 MLOAD PUSH2 0x2506 DUP9 DUP3 PUSH2 0x24AD JUMP JUMPDEST SWAP8 POP PUSH2 0x2511 DUP4 PUSH2 0x24C4 JUMP JUMPDEST SWAP3 POP POP PUSH1 0x1 DUP2 ADD SWAP1 POP PUSH2 0x24F2 JUMP JUMPDEST POP DUP6 SWAP4 POP POP POP POP SWAP3 SWAP2 POP POP JUMP JUMPDEST PUSH0 DUP2 MLOAD SWAP1 POP SWAP2 SWAP1 POP JUMP JUMPDEST PUSH0 DUP3 DUP3 MSTORE PUSH1 0x20 DUP3 ADD SWAP1 POP SWAP3 SWAP2 POP POP JUMP JUMPDEST PUSH0 DUP2 SWAP1 POP PUSH1 0x20 DUP3 ADD SWAP1 POP SWAP2 SWAP1 POP JUMP JUMPDEST PUSH2 0x255E DUP2 PUSH2 0x23C7 JUMP JUMPDEST DUP3 MSTORE POP POP JUMP JUMPDEST PUSH0 PUSH2 0x256F DUP4 DUP4 PUSH2 0x2555 JUMP JUMPDEST PUSH1 0x20 DUP4 ADD SWAP1 POP SWAP3 SWAP2 POP POP JUMP JUMPDEST PUSH0 PUSH1 0x20 DUP3 ADD SWAP1 POP SWAP2 SWAP1 POP JUMP JUMPDEST PUSH0 PUSH2 0x2591 DUP3 PUSH2 0x252C JUMP JUMPDEST PUSH2 0x259B DUP2 DUP6 PUSH2 0x2536 JUMP JUMPDEST SWAP4 POP PUSH2 0x25A6 DUP4 PUSH2 0x2546 JUMP JUMPDEST DUP1 PUSH0 JUMPDEST DUP4 DUP2 LT ISZERO PUSH2 0x25D6 JUMPI DUP2 MLOAD PUSH2 0x25BD DUP9 DUP3 PUSH2 0x2564 JUMP JUMPDEST SWAP8 POP PUSH2 0x25C8 DUP4 PUSH2 0x257B JUMP JUMPDEST SWAP3 POP POP PUSH1 0x1 DUP2 ADD SWAP1 POP PUSH2 0x25A9 JUMP JUMPDEST POP DUP6 SWAP4 POP POP POP POP SWAP3 SWAP2 POP POP JUMP JUMPDEST PUSH0 PUSH1 0x40 DUP3 ADD SWAP1 POP DUP2 DUP2 SUB PUSH0 DUP4 ADD MSTORE PUSH2 0x25FB DUP2 DUP6 PUSH2 0x24D0 JUMP JUMPDEST SWAP1 POP DUP2 DUP2 SUB PUSH1 0x20 DUP4 ADD MSTORE PUSH2 0x260F DUP2 DUP5 PUSH2 0x2587 JUMP JUMPDEST SWAP1 POP SWAP4 SWAP3 POP POP POP JUMP JUMPDEST PUSH2 0x2621 DUP2 PUSH2 0x23C7 JUMP JUMPDEST DUP3 MSTORE POP POP JUMP JUMPDEST PUSH0 PUSH1 0x20 DUP3 ADD SWAP1 POP PUSH2 0x263A PUSH0 DUP4 ADD DUP5 PUSH2 0x2618 JUMP JUMPDEST SWAP3 SWAP2 POP POP JUMP JUMPDEST PUSH0 DUP1 PUSH1 0x40 DUP4 DUP6 SUB SLT ISZERO PUSH2 0x2656 JUMPI PUSH2 0x2655 PUSH2 0x2365 JUMP JUMPDEST JUMPDEST PUSH0 PUSH2 0x2663 DUP6 DUP3 DUP7 ADD PUSH2 0x23B3 JUMP JUMPDEST SWAP3 POP POP PUSH1 0x20 PUSH2 0x2674 DUP6 DUP3 DUP7 ADD PUSH2 0x23E6 JUMP JUMPDEST SWAP2 POP POP SWAP3 POP SWAP3 SWAP1 POP JUMP JUMPDEST PUSH0 PUSH1 0x20 DUP3 DUP5 SUB SLT ISZERO PUSH2 0x2693 JUMPI PUSH2 0x2692 PUSH2 0x2365 JUMP JUMPDEST JUMPDEST PUSH0 PUSH2 0x26A0 DUP5 DUP3 DUP6 ADD PUSH2 0x23E6 JUMP JUMPDEST SWAP2 POP POP SWAP3 SWAP2 POP POP JUMP JUMPDEST PUSH2 0x26B2 DUP2 PUSH2 0x238C JUMP JUMPDEST DUP3 MSTORE POP POP JUMP JUMPDEST PUSH0 PUSH1 0x20 DUP3 ADD SWAP1 POP PUSH2 0x26CB PUSH0 DUP4 ADD DUP5 PUSH2 0x26A9 JUMP JUMPDEST SWAP3 SWAP2 POP POP JUMP JUMPDEST PUSH0 DUP1 REVERT JUMPDEST PUSH0 DUP1 REVERT JUMPDEST PUSH0 DUP1 REVERT JUMPDEST PUSH0 DUP1 DUP4 PUSH1 0x1F DUP5 ADD SLT PUSH2 0x26F2 JUMPI PUSH2 0x26F1 PUSH2 0x26D1 JUMP JUMPDEST JUMPDEST DUP3 CALLDATALOAD SWAP1 POP PUSH8 0xFFFFFFFFFFFFFFFF DUP2 GT ISZERO PUSH2 0x270F JUMPI PUSH2 0x270E PUSH2 0x26D5 JUMP JUMPDEST JUMPDEST PUSH1 0x20 DUP4 ADD SWAP2 POP DUP4 PUSH1 0x1 DUP3 MUL DUP4 ADD GT ISZERO PUSH2 0x272B JUMPI PUSH2 0x272A PUSH2 0x26D9 JUMP JUMPDEST JUMPDEST SWAP3 POP SWAP3 SWAP1 POP JUMP JUMPDEST PUSH0 DUP1 PUSH1 0x20 DUP4 DUP6 SUB SLT ISZERO PUSH2 0x2748 JUMPI PUSH2 0x2747 PUSH2 0x2365 JUMP JUMPDEST JUMPDEST PUSH0 DUP4 ADD CALLDATALOAD PUSH8 0xFFFFFFFFFFFFFFFF DUP2 GT ISZERO PUSH2 0x2765 JUMPI PUSH2 0x2764 PUSH2 0x2369 JUMP JUMPDEST JUMPDEST PUSH2 0x2771 DUP6 DUP3 DUP7 ADD PUSH2 0x26DD JUMP JUMPDEST SWAP3 POP SWAP3 POP POP SWAP3 POP SWAP3 SWAP1 POP JUMP JUMPDEST PUSH0 DUP1 PUSH1 0x40 DUP4 DUP6 SUB SLT ISZERO PUSH2 0x2793 JUMPI PUSH2 0x2792 PUSH2 0x2365 JUMP JUMPDEST JUMPDEST PUSH0 PUSH2 0x27A0 DUP6 DUP3 DUP7 ADD PUSH2 0x23B3 JUMP JUMPDEST SWAP3 POP POP PUSH1 0x20 PUSH2 0x27B1 DUP6 DUP3 DUP7 ADD PUSH2 0x23B3 JUMP JUMPDEST SWAP2 POP POP SWAP3 POP SWAP3 SWAP1 POP JUMP JUMPDEST PUSH0 DUP2 MLOAD SWAP1 POP SWAP2 SWAP1 POP JUMP JUMPDEST PUSH0 DUP3 DUP3 MSTORE PUSH1 0x20 DUP3 ADD SWAP1 POP SWAP3 SWAP2 POP POP JUMP JUMPDEST PUSH0 JUMPDEST DUP4 DUP2 LT ISZERO PUSH2 0x27F2 JUMPI DUP1 DUP3 ADD MLOAD DUP2 DUP5 ADD MSTORE PUSH1 0x20 DUP2 ADD SWAP1 POP PUSH2 0x27D7 JUMP JUMPDEST PUSH0 DUP5 DUP5 ADD MSTORE POP POP POP POP JUMP JUMPDEST PUSH0 PUSH1 0x1F NOT PUSH1 0x1F DUP4 ADD AND SWAP1 POP SWAP2 SWAP1 POP JUMP JUMPDEST PUSH0 PUSH2 0x2817 DUP3 PUSH2 0x27BB JUMP JUMPDEST PUSH2 0x2821 DUP2 DUP6 PUSH2 0x27C5 JUMP JUMPDEST SWAP4 POP PUSH2 0x2831 DUP2 DUP6 PUSH1 0x20 DUP7 ADD PUSH2 0x27D5 JUMP JUMPDEST PUSH2 0x283A DUP2 PUSH2 0x27FD JUMP JUMPDEST DUP5 ADD SWAP2 POP POP SWAP3 SWAP2 POP POP JUMP JUMPDEST PUSH0 PUSH1 0x20 DUP3 ADD SWAP1 POP DUP2 DUP2 SUB PUSH0 DUP4 ADD MSTORE PUSH2 0x285D DUP2 DUP5 PUSH2 0x280D JUMP JUMPDEST SWAP1 POP SWAP3 SWAP2 POP POP JUMP JUMPDEST PUSH0 DUP1 PUSH0 DUP1 PUSH1 0x80 DUP6 DUP8 SUB SLT ISZERO PUSH2 0x287D JUMPI PUSH2 0x287C PUSH2 0x2365 JUMP JUMPDEST JUMPDEST PUSH0 PUSH2 0x288A DUP8 DUP3 DUP9 ADD PUSH2 0x23B3 JUMP JUMPDEST SWAP5 POP POP PUSH1 0x20 PUSH2 0x289B DUP8 DUP3 DUP9 ADD PUSH2 0x23B3 JUMP JUMPDEST SWAP4 POP POP PUSH1 0x40 PUSH2 0x28AC DUP8 DUP3 DUP9 ADD PUSH2 0x23E6 JUMP JUMPDEST SWAP3 POP POP PUSH1 0x60 PUSH2 0x28BD DUP8 DUP3 DUP9 ADD PUSH2 0x23E6 JUMP JUMPDEST SWAP2 POP POP SWAP3 SWAP6 SWAP2 SWAP5 POP SWAP3 POP JUMP JUMPDEST PUSH32 0x4F6E6C79206F776E657200000000000000000000000000000000000000000000 PUSH0 DUP3 ADD MSTORE POP JUMP JUMPDEST PUSH0 PUSH2 0x28FD PUSH1 0xA DUP4 PUSH2 0x27C5 JUMP JUMPDEST SWAP2 POP PUSH2 0x2908 DUP3 PUSH2 0x28C9 JUMP JUMPDEST PUSH1 0x20 DUP3 ADD SWAP1 POP SWAP2 SWAP1 POP JUMP JUMPDEST PUSH0 PUSH1 0x20 DUP3 ADD SWAP1 POP DUP2 DUP2 SUB PUSH0 DUP4 ADD MSTORE PUSH2 0x292A DUP2 PUSH2 0x28F1 JUMP JUMPDEST SWAP1 POP SWAP2 SWAP1 POP JUMP JUMPDEST PUSH0 DUP2 MLOAD SWAP1 POP PUSH2 0x293F DUP2 PUSH2 0x23D0 JUMP JUMPDEST SWAP3 SWAP2 POP POP JUMP JUMPDEST PUSH0 PUSH1 0x20 DUP3 DUP5 SUB SLT ISZERO PUSH2 0x295A JUMPI PUSH2 0x2959 PUSH2 0x2365 JUMP JUMPDEST JUMPDEST PUSH0 PUSH2 0x2967 DUP5 DUP3 DUP6 ADD PUSH2 0x2931 JUMP JUMPDEST SWAP2 POP POP SWAP3 SWAP2 POP POP JUMP JUMPDEST PUSH32 0x4E6F20746F6B656E2062616C616E636500000000000000000000000000000000 PUSH0 DUP3 ADD MSTORE POP JUMP JUMPDEST PUSH0 PUSH2 0x29A4 PUSH1 0x10 DUP4 PUSH2 0x27C5 JUMP JUMPDEST SWAP2 POP PUSH2 0x29AF DUP3 PUSH2 0x2970 JUMP JUMPDEST PUSH1 0x20 DUP3 ADD SWAP1 POP SWAP2 SWAP1 POP JUMP JUMPDEST PUSH0 PUSH1 0x20 DUP3 ADD SWAP1 POP DUP2 DUP2 SUB PUSH0 DUP4 ADD MSTORE PUSH2 0x29D1 DUP2 PUSH2 0x2998 JUMP JUMPDEST SWAP1 POP SWAP2 SWAP1 POP JUMP JUMPDEST PUSH0 PUSH1 0x40 DUP3 ADD SWAP1 POP PUSH2 0x29EB PUSH0 DUP4 ADD DUP6 PUSH2 0x26A9 JUMP JUMPDEST PUSH2 0x29F8 PUSH1 0x20 DUP4 ADD DUP5 PUSH2 0x2618 JUMP JUMPDEST SWAP4 SWAP3 POP POP POP JUMP JUMPDEST PUSH0 DUP2 ISZERO ISZERO SWAP1 POP SWAP2 SWAP1 POP JUMP JUMPDEST PUSH2 0x2A13 DUP2 PUSH2 0x29FF JUMP JUMPDEST DUP2 EQ PUSH2 0x2A1D JUMPI PUSH0 DUP1 REVERT JUMPDEST POP JUMP JUMPDEST PUSH0 DUP2 MLOAD SWAP1 POP PUSH2 0x2A2E DUP2 PUSH2 0x2A0A JUMP JUMPDEST SWAP3 SWAP2 POP POP JUMP JUMPDEST PUSH0 PUSH1 0x20 DUP3 DUP5 SUB SLT ISZERO PUSH2 0x2A49 JUMPI PUSH2 0x2A48 PUSH2 0x2365 JUMP JUMPDEST JUMPDEST PUSH0 PUSH2 0x2A56 DUP5 DUP3 DUP6 ADD PUSH2 0x2A20 JUMP JUMPDEST SWAP2 POP POP SWAP3 SWAP2 POP POP JUMP JUMPDEST PUSH32 0x416D6F756E74206D757374206265203E20300000000000000000000000000000 PUSH0 DUP3 ADD MSTORE POP JUMP JUMPDEST PUSH0 PUSH2 0x2A93 PUSH1 0x12 DUP4 PUSH2 0x27C5 JUMP JUMPDEST SWAP2 POP PUSH2 0x2A9E DUP3 PUSH2 0x2A5F JUMP JUMPDEST PUSH1 0x20 DUP3 ADD SWAP1 POP SWAP2 SWAP1 POP JUMP JUMPDEST PUSH0 PUSH1 0x20 DUP3 ADD SWAP1 POP DUP2 DUP2 SUB PUSH0 DUP4 ADD MSTORE PUSH2 0x2AC0 DUP2 PUSH2 0x2A87 JUMP JUMPDEST SWAP1 POP SWAP2 SWAP1 POP JUMP JUMPDEST PUSH32 0x496E76616C696420746F6B656E20616464726573730000000000000000000000 PUSH0 DUP3 ADD MSTORE POP JUMP JUMPDEST PUSH0 PUSH2 0x2AFB PUSH1 0x15 DUP4 PUSH2 0x27C5 JUMP JUMPDEST SWAP2 POP PUSH2 0x2B06 DUP3 PUSH2 0x2AC7 JUMP JUMPDEST PUSH1 0x20 DUP3 ADD SWAP1 POP SWAP2 SWAP1 POP JUMP JUMPDEST PUSH0 PUSH1 0x20 DUP3 ADD SWAP1 POP DUP2 DUP2 SUB PUSH0 DUP4 ADD MSTORE PUSH2 0x2B28 DUP2 PUSH2 0x2AEF JUMP JUMPDEST SWAP1 POP SWAP2 SWAP1 POP JUMP JUMPDEST PUSH0 PUSH1 0x40 DUP3 ADD SWAP1 POP PUSH2 0x2B42 PUSH0 DUP4 ADD DUP6 PUSH2 0x26A9 JUMP JUMPDEST PUSH2 0x2B4F PUSH1 0x20 DUP4 ADD DUP5 PUSH2 0x26A9 JUMP JUMPDEST SWAP4 SWAP3 POP POP POP JUMP JUMPDEST PUSH32 0x4E6F7420656E6F75676820616C6C6F77616E636520666F7220546F6B656E4100 PUSH0 DUP3 ADD MSTORE POP JUMP JUMPDEST PUSH0 PUSH2 0x2B8A PUSH1 0x1F DUP4 PUSH2 0x27C5 JUMP JUMPDEST SWAP2 POP PUSH2 0x2B95 DUP3 PUSH2 0x2B56 JUMP JUMPDEST PUSH1 0x20 DUP3 ADD SWAP1 POP SWAP2 SWAP1 POP JUMP JUMPDEST PUSH0 PUSH1 0x20 DUP3 ADD SWAP1 POP DUP2 DUP2 SUB PUSH0 DUP4 ADD MSTORE PUSH2 0x2BB7 DUP2 PUSH2 0x2B7E JUMP JUMPDEST SWAP1 POP SWAP2 SWAP1 POP JUMP JUMPDEST PUSH0 PUSH1 0x60 DUP3 ADD SWAP1 POP PUSH2 0x2BD1 PUSH0 DUP4 ADD DUP7 PUSH2 0x26A9 JUMP JUMPDEST PUSH2 0x2BDE PUSH1 0x20 DUP4 ADD DUP6 PUSH2 0x26A9 JUMP JUMPDEST PUSH2 0x2BEB PUSH1 0x40 DUP4 ADD DUP5 PUSH2 0x2618 JUMP JUMPDEST SWAP5 SWAP4 POP POP POP POP JUMP JUMPDEST PUSH32 0x546F6B656E41207472616E73666572206661696C656400000000000000000000 PUSH0 DUP3 ADD MSTORE POP JUMP JUMPDEST PUSH0 PUSH2 0x2C27 PUSH1 0x16 DUP4 PUSH2 0x27C5 JUMP JUMPDEST SWAP2 POP PUSH2 0x2C32 DUP3 PUSH2 0x2BF3 JUMP JUMPDEST PUSH1 0x20 DUP3 ADD SWAP1 POP SWAP2 SWAP1 POP JUMP JUMPDEST PUSH0 PUSH1 0x20 DUP3 ADD SWAP1 POP DUP2 DUP2 SUB PUSH0 DUP4 ADD MSTORE PUSH2 0x2C54 DUP2 PUSH2 0x2C1B JUMP JUMPDEST SWAP1 POP SWAP2 SWAP1 POP JUMP JUMPDEST PUSH32 0x4E6F7420656E6F75676820546F6B656E42206C69717569646974790000000000 PUSH0 DUP3 ADD MSTORE POP JUMP JUMPDEST PUSH0 PUSH2 0x2C8F PUSH1 0x1B DUP4 PUSH2 0x27C5 JUMP JUMPDEST SWAP2 POP PUSH2 0x2C9A DUP3 PUSH2 0x2C5B JUMP JUMPDEST PUSH1 0x20 DUP3 ADD SWAP1 POP SWAP2 SWAP1 POP JUMP JUMPDEST PUSH0 PUSH1 0x20 DUP3 ADD SWAP1 POP DUP2 DUP2 SUB PUSH0 DUP4 ADD MSTORE PUSH2 0x2CBC DUP2 PUSH2 0x2C83 JUMP JUMPDEST SWAP1 POP SWAP2 SWAP1 POP JUMP JUMPDEST PUSH32 0x546F6B656E42207472616E73666572206661696C656400000000000000000000 PUSH0 DUP3 ADD MSTORE POP JUMP JUMPDEST PUSH0 PUSH2 0x2CF7 PUSH1 0x16 DUP4 PUSH2 0x27C5 JUMP JUMPDEST SWAP2 POP PUSH2 0x2D02 DUP3 PUSH2 0x2CC3 JUMP JUMPDEST PUSH1 0x20 DUP3 ADD SWAP1 POP SWAP2 SWAP1 POP JUMP JUMPDEST PUSH0 PUSH1 0x20 DUP3 ADD SWAP1 POP DUP2 DUP2 SUB PUSH0 DUP4 ADD MSTORE PUSH2 0x2D24 DUP2 PUSH2 0x2CEB JUMP JUMPDEST SWAP1 POP SWAP2 SWAP1 POP JUMP JUMPDEST PUSH32 0x4E487B7100000000000000000000000000000000000000000000000000000000 PUSH0 MSTORE PUSH1 0x41 PUSH1 0x4 MSTORE PUSH1 0x24 PUSH0 REVERT JUMPDEST PUSH32 0x4E487B7100000000000000000000000000000000000000000000000000000000 PUSH0 MSTORE PUSH1 0x32 PUSH1 0x4 MSTORE PUSH1 0x24 PUSH0 REVERT JUMPDEST PUSH32 0x4E487B7100000000000000000000000000000000000000000000000000000000 PUSH0 MSTORE PUSH1 0x11 PUSH1 0x4 MSTORE PUSH1 0x24 PUSH0 REVERT JUMPDEST PUSH0 PUSH2 0x2DBC DUP3 PUSH2 0x23C7 JUMP JUMPDEST SWAP2 POP PUSH32 0xFFFFFFFFFFFFFFFFFFFFFFFFFFFFFFFFFFFFFFFFFFFFFFFFFFFFFFFFFFFFFFFF DUP3 SUB PUSH2 0x2DEE JUMPI PUSH2 0x2DED PUSH2 0x2D85 JUMP JUMPDEST JUMPDEST PUSH1 0x1 DUP3 ADD SWAP1 POP SWAP2 SWAP1 POP JUMP JUMPDEST PUSH0 PUSH1 0xFF DUP3 AND SWAP1 POP SWAP2 SWAP1 POP JUMP JUMPDEST PUSH2 0x2E0E DUP2 PUSH2 0x2DF9 JUMP JUMPDEST DUP2 EQ PUSH2 0x2E18 JUMPI PUSH0 DUP1 REVERT JUMPDEST POP JUMP JUMPDEST PUSH0 DUP2 MLOAD SWAP1 POP PUSH2 0x2E29 DUP2 PUSH2 0x2E05 JUMP JUMPDEST SWAP3 SWAP2 POP POP JUMP JUMPDEST PUSH0 PUSH1 0x20 DUP3 DUP5 SUB SLT ISZERO PUSH2 0x2E44 JUMPI PUSH2 0x2E43 PUSH2 0x2365 JUMP JUMPDEST JUMPDEST PUSH0 PUSH2 0x2E51 DUP5 DUP3 DUP6 ADD PUSH2 0x2E1B JUMP JUMPDEST SWAP2 POP POP SWAP3 SWAP2 POP POP JUMP JUMPDEST PUSH0 DUP2 PUSH1 0x1 SHR SWAP1 POP SWAP2 SWAP1 POP JUMP JUMPDEST PUSH0 DUP1 DUP3 SWAP2 POP DUP4 SWAP1 POP JUMPDEST PUSH1 0x1 DUP6 GT ISZERO PUSH2 0x2EAF JUMPI DUP1 DUP7 DIV DUP2 GT ISZERO PUSH2 0x2E8B JUMPI PUSH2 0x2E8A PUSH2 0x2D85 JUMP JUMPDEST JUMPDEST PUSH1 0x1 DUP6 AND ISZERO PUSH2 0x2E9A JUMPI DUP1 DUP3 MUL SWAP2 POP JUMPDEST DUP1 DUP2 MUL SWAP1 POP PUSH2 0x2EA8 DUP6 PUSH2 0x2E5A JUMP JUMPDEST SWAP5 POP PUSH2 0x2E6F JUMP JUMPDEST SWAP5 POP SWAP5 SWAP3 POP POP POP JUMP JUMPDEST PUSH0 DUP3 PUSH2 0x2EC7 JUMPI PUSH1 0x1 SWAP1 POP PUSH2 0x2F82 JUMP JUMPDEST DUP2 PUSH2 0x2ED4 JUMPI PUSH0 SWAP1 POP PUSH2 0x2F82 JUMP JUMPDEST DUP2 PUSH1 0x1 DUP2 EQ PUSH2 0x2EEA JUMPI PUSH1 0x2 DUP2 EQ PUSH2 0x2EF4 JUMPI PUSH2 0x2F23 JUMP JUMPDEST PUSH1 0x1 SWAP2 POP POP PUSH2 0x2F82 JUMP JUMPDEST PUSH1 0xFF DUP5 GT ISZERO PUSH2 0x2F06 JUMPI PUSH2 0x2F05 PUSH2 0x2D85 JUMP JUMPDEST JUMPDEST DUP4 PUSH1 0x2 EXP SWAP2 POP DUP5 DUP3 GT ISZERO PUSH2 0x2F1D JUMPI PUSH2 0x2F1C PUSH2 0x2D85 JUMP JUMPDEST JUMPDEST POP PUSH2 0x2F82 JUMP JUMPDEST POP PUSH1 0x20 DUP4 LT PUSH2 0x133 DUP4 LT AND PUSH1 0x4E DUP5 LT PUSH1 0xB DUP5 LT AND OR ISZERO PUSH2 0x2F58 JUMPI DUP3 DUP3 EXP SWAP1 POP DUP4 DUP2 GT ISZERO PUSH2 0x2F53 JUMPI PUSH2 0x2F52 PUSH2 0x2D85 JUMP JUMPDEST JUMPDEST PUSH2 0x2F82 JUMP JUMPDEST PUSH2 0x2F65 DUP5 DUP5 DUP5 PUSH1 0x1 PUSH2 0x2E66 JUMP JUMPDEST SWAP3 POP SWAP1 POP DUP2 DUP5 DIV DUP2 GT ISZERO PUSH2 0x2F7C JUMPI PUSH2 0x2F7B PUSH2 0x2D85 JUMP JUMPDEST JUMPDEST DUP2 DUP2 MUL SWAP1 POP JUMPDEST SWAP4 SWAP3 POP POP POP JUMP JUMPDEST PUSH0 PUSH2 0x2F93 DUP3 PUSH2 0x23C7 JUMP JUMPDEST SWAP2 POP PUSH2 0x2F9E DUP4 PUSH2 0x2DF9 JUMP JUMPDEST SWAP3 POP PUSH2 0x2FCB PUSH32 0xFFFFFFFFFFFFFFFFFFFFFFFFFFFFFFFFFFFFFFFFFFFFFFFFFFFFFFFFFFFFFFFF DUP5 DUP5 PUSH2 0x2EB8 JUMP JUMPDEST SWAP1 POP SWAP3 SWAP2 POP POP JUMP JUMPDEST PUSH32 0x4E487B7100000000000000000000000000000000000000000000000000000000 PUSH0 MSTORE PUSH1 0x12 PUSH1 0x4 MSTORE PUSH1 0x24 PUSH0 REVERT JUMPDEST PUSH0 PUSH2 0x300A DUP3 PUSH2 0x23C7 JUMP JUMPDEST SWAP2 POP PUSH2 0x3015 DUP4 PUSH2 0x23C7 JUMP JUMPDEST SWAP3 POP DUP3 PUSH2 0x3025 JUMPI PUSH2 0x3024 PUSH2 0x2FD3 JUMP JUMPDEST JUMPDEST DUP3 DUP3 DIV SWAP1 POP SWAP3 SWAP2 POP POP JUMP JUMPDEST PUSH32 0x416D6F756E74206D7573742062652067726561746572207468616E207A65726F PUSH0 DUP3 ADD MSTORE POP JUMP JUMPDEST PUSH0 PUSH2 0x3064 PUSH1 0x20 DUP4 PUSH2 0x27C5 JUMP JUMPDEST SWAP2 POP PUSH2 0x306F DUP3 PUSH2 0x3030 JUMP JUMPDEST PUSH1 0x20 DUP3 ADD SWAP1 POP SWAP2 SWAP1 POP JUMP JUMPDEST PUSH0 PUSH1 0x20 DUP3 ADD SWAP1 POP DUP2 DUP2 SUB PUSH0 DUP4 ADD MSTORE PUSH2 0x3091 DUP2 PUSH2 0x3058 JUMP JUMPDEST SWAP1 POP SWAP2 SWAP1 POP JUMP JUMPDEST PUSH32 0x4E6F7420656E6F75676820616C6C6F77616E6365000000000000000000000000 PUSH0 DUP3 ADD MSTORE POP JUMP JUMPDEST PUSH0 PUSH2 0x30CC PUSH1 0x14 DUP4 PUSH2 0x27C5 JUMP JUMPDEST SWAP2 POP PUSH2 0x30D7 DUP3 PUSH2 0x3098 JUMP JUMPDEST PUSH1 0x20 DUP3 ADD SWAP1 POP SWAP2 SWAP1 POP JUMP JUMPDEST PUSH0 PUSH1 0x20 DUP3 ADD SWAP1 POP DUP2 DUP2 SUB PUSH0 DUP4 ADD MSTORE PUSH2 0x30F9 DUP2 PUSH2 0x30C0 JUMP JUMPDEST SWAP1 POP SWAP2 SWAP1 POP JUMP JUMPDEST PUSH32 0x5472616E73666572206661696C65640000000000000000000000000000000000 PUSH0 DUP3 ADD MSTORE POP JUMP JUMPDEST PUSH0 PUSH2 0x3134 PUSH1 0xF DUP4 PUSH2 0x27C5 JUMP JUMPDEST SWAP2 POP PUSH2 0x313F DUP3 PUSH2 0x3100 JUMP JUMPDEST PUSH1 0x20 DUP3 ADD SWAP1 POP SWAP2 SWAP1 POP JUMP JUMPDEST PUSH0 PUSH1 0x20 DUP3 ADD SWAP1 POP DUP2 DUP2 SUB PUSH0 DUP4 ADD MSTORE PUSH2 0x3161 DUP2 PUSH2 0x3128 JUMP JUMPDEST SWAP1 POP SWAP2 SWAP1 POP JUMP JUMPDEST PUSH0 PUSH2 0x3172 DUP3 PUSH2 0x23C7 JUMP JUMPDEST SWAP2 POP PUSH2 0x317D DUP4 PUSH2 0x23C7 JUMP JUMPDEST SWAP3 POP DUP3 DUP3 ADD SWAP1 POP DUP1 DUP3 GT ISZERO PUSH2 0x3195 JUMPI PUSH2 0x3194 PUSH2 0x2D85 JUMP JUMPDEST JUMPDEST SWAP3 SWAP2 POP POP JUMP JUMPDEST PUSH0 DUP2 SWAP1 POP SWAP2 SWAP1 POP JUMP JUMPDEST PUSH0 DUP2 SWAP1 POP SWAP2 SWAP1 POP JUMP JUMPDEST PUSH0 PUSH2 0x31C7 PUSH2 0x31C2 PUSH2 0x31BD DUP5 PUSH2 0x319B JUMP JUMPDEST PUSH2 0x31A4 JUMP JUMPDEST PUSH2 0x23C7 JUMP JUMPDEST SWAP1 POP SWAP2 SWAP1 POP JUMP JUMPDEST PUSH2 0x31D7 DUP2 PUSH2 0x31AD JUMP JUMPDEST DUP3 MSTORE POP POP JUMP JUMPDEST PUSH0 PUSH1 0x60 DUP3 ADD SWAP1 POP PUSH2 0x31F0 PUSH0 DUP4 ADD DUP7 PUSH2 0x26A9 JUMP JUMPDEST PUSH2 0x31FD PUSH1 0x20 DUP4 ADD DUP6 PUSH2 0x26A9 JUMP JUMPDEST PUSH2 0x320A PUSH1 0x40 DUP4 ADD DUP5 PUSH2 0x31CE JUMP JUMPDEST SWAP5 SWAP4 POP POP POP POP JUMP JUMPDEST PUSH0 PUSH1 0x40 DUP3 ADD SWAP1 POP PUSH2 0x3225 PUSH0 DUP4 ADD DUP6 PUSH2 0x26A9 JUMP JUMPDEST PUSH2 0x3232 PUSH1 0x20 DUP4 ADD DUP5 PUSH2 0x31CE JUMP JUMPDEST SWAP4 SWAP3 POP POP POP JUMP JUMPDEST PUSH0 PUSH2 0x3243 DUP3 PUSH2 0x23C7 JUMP JUMPDEST SWAP2 POP PUSH2 0x324E DUP4 PUSH2 0x23C7 JUMP JUMPDEST SWAP3 POP DUP3 DUP3 SUB SWAP1 POP DUP2 DUP2 GT ISZERO PUSH2 0x3266 JUMPI PUSH2 0x3265 PUSH2 0x2D85 JUMP JUMPDEST JUMPDEST SWAP3 SWAP2 POP POP JUMP JUMPDEST PUSH0 PUSH1 0x80 DUP3 ADD SWAP1 POP PUSH2 0x327F PUSH0 DUP4 ADD DUP8 PUSH2 0x26A9 JUMP JUMPDEST PUSH2 0x328C PUSH1 0x20 DUP4 ADD DUP7 PUSH2 0x26A9 JUMP JUMPDEST PUSH2 0x3299 PUSH1 0x40 DUP4 ADD DUP6 PUSH2 0x31CE JUMP JUMPDEST PUSH2 0x32A6 PUSH1 0x60 DUP4 ADD DUP5 PUSH2 0x31CE JUMP JUMPDEST SWAP6 SWAP5 POP POP POP POP POP JUMP JUMPDEST PUSH32 0x496E73756666696369656E74206665652073656E740000000000000000000000 PUSH0 DUP3 ADD MSTORE POP JUMP JUMPDEST PUSH0 PUSH2 0x32E3 PUSH1 0x15 DUP4 PUSH2 0x27C5 JUMP JUMPDEST SWAP2 POP PUSH2 0x32EE DUP3 PUSH2 0x32AF JUMP JUMPDEST PUSH1 0x20 DUP3 ADD SWAP1 POP SWAP2 SWAP1 POP JUMP JUMPDEST PUSH0 PUSH1 0x20 DUP3 ADD SWAP1 POP DUP2 DUP2 SUB PUSH0 DUP4 ADD MSTORE PUSH2 0x3310 DUP2 PUSH2 0x32D7 JUMP JUMPDEST SWAP1 POP SWAP2 SWAP1 POP JUMP JUMPDEST PUSH0 DUP3 SWAP1 POP SWAP3 SWAP2 POP POP JUMP JUMPDEST PUSH32 0x4E487B7100000000000000000000000000000000000000000000000000000000 PUSH0 MSTORE PUSH1 0x22 PUSH1 0x4 MSTORE PUSH1 0x24 PUSH0 REVERT JUMPDEST PUSH0 PUSH1 0x2 DUP3 DIV SWAP1 POP PUSH1 0x1 DUP3 AND DUP1 PUSH2 0x3365 JUMPI PUSH1 0x7F DUP3 AND SWAP2 POP JUMPDEST PUSH1 0x20 DUP3 LT DUP2 SUB PUSH2 0x3378 JUMPI PUSH2 0x3377 PUSH2 0x3321 JUMP JUMPDEST JUMPDEST POP SWAP2 SWAP1 POP JUMP JUMPDEST PUSH0 DUP2 SWAP1 POP DUP2 PUSH0 MSTORE PUSH1 0x20 PUSH0 KECCAK256 SWAP1 POP SWAP2 SWAP1 POP JUMP JUMPDEST PUSH0 PUSH1 0x20 PUSH1 0x1F DUP4 ADD DIV SWAP1 POP SWAP2 SWAP1 POP JUMP JUMPDEST PUSH0 DUP3 DUP3 SHL SWAP1 POP SWAP3 SWAP2 POP POP JUMP JUMPDEST PUSH0 PUSH1 0x8 DUP4 MUL PUSH2 0x33DA PUSH32 0xFFFFFFFFFFFFFFFFFFFFFFFFFFFFFFFFFFFFFFFFFFFFFFFFFFFFFFFFFFFFFFFF DUP3 PUSH2 0x339F JUMP JUMPDEST PUSH2 0x33E4 DUP7 DUP4 PUSH2 0x339F JUMP JUMPDEST SWAP6 POP DUP1 NOT DUP5 AND SWAP4 POP DUP1 DUP7 AND DUP5 OR SWAP3 POP POP POP SWAP4 SWAP3 POP POP POP JUMP JUMPDEST PUSH0 PUSH2 0x3416 PUSH2 0x3411 PUSH2 0x340C DUP5 PUSH2 0x23C7 JUMP JUMPDEST PUSH2 0x31A4 JUMP JUMPDEST PUSH2 0x23C7 JUMP JUMPDEST SWAP1 POP SWAP2 SWAP1 POP JUMP JUMPDEST PUSH0 DUP2 SWAP1 POP SWAP2 SWAP1 POP JUMP JUMPDEST PUSH2 0x342F DUP4 PUSH2 0x33FC JUMP JUMPDEST PUSH2 0x3443 PUSH2 0x343B DUP3 PUSH2 0x341D JUMP JUMPDEST DUP5 DUP5 SLOAD PUSH2 0x33AB JUMP JUMPDEST DUP3 SSTORE POP POP POP POP JUMP JUMPDEST PUSH0 SWAP1 JUMP JUMPDEST PUSH2 0x3457 PUSH2 0x344B JUMP JUMPDEST PUSH2 0x3462 DUP2 DUP5 DUP5 PUSH2 0x3426 JUMP JUMPDEST POP POP POP JUMP JUMPDEST JUMPDEST DUP2 DUP2 LT ISZERO PUSH2 0x3485 JUMPI PUSH2 0x347A PUSH0 DUP3 PUSH2 0x344F JUMP JUMPDEST PUSH1 0x1 DUP2 ADD SWAP1 POP PUSH2 0x3468 JUMP JUMPDEST POP POP JUMP JUMPDEST PUSH1 0x1F DUP3 GT ISZERO PUSH2 0x34CA JUMPI PUSH2 0x349B DUP2 PUSH2 0x337E JUMP JUMPDEST PUSH2 0x34A4 DUP5 PUSH2 0x3390 JUMP JUMPDEST DUP2 ADD PUSH1 0x20 DUP6 LT ISZERO PUSH2 0x34B3 JUMPI DUP2 SWAP1 POP JUMPDEST PUSH2 0x34C7 PUSH2 0x34BF DUP6 PUSH2 0x3390 JUMP JUMPDEST DUP4 ADD DUP3 PUSH2 0x3467 JUMP JUMPDEST POP POP JUMPDEST POP POP POP JUMP JUMPDEST PUSH0 DUP3 DUP3 SHR SWAP1 POP SWAP3 SWAP2 POP POP JUMP JUMPDEST PUSH0 PUSH2 0x34EA PUSH0 NOT DUP5 PUSH1 0x8 MUL PUSH2 0x34CF JUMP JUMPDEST NOT DUP1 DUP4 AND SWAP2 POP POP SWAP3 SWAP2 POP POP JUMP JUMPDEST PUSH0 PUSH2 0x3502 DUP4 DUP4 PUSH2 0x34DB JUMP JUMPDEST SWAP2 POP DUP3 PUSH1 0x2 MUL DUP3 OR SWAP1 POP SWAP3 SWAP2 POP POP JUMP JUMPDEST PUSH2 0x351C DUP4 DUP4 PUSH2 0x3317 JUMP JUMPDEST PUSH8 0xFFFFFFFFFFFFFFFF DUP2 GT ISZERO PUSH2 0x3535 JUMPI PUSH2 0x3534 PUSH2 0x2D2B JUMP JUMPDEST JUMPDEST PUSH2 0x353F DUP3 SLOAD PUSH2 0x334E JUMP JUMPDEST PUSH2 0x354A DUP3 DUP3 DUP6 PUSH2 0x3489 JUMP JUMPDEST PUSH0 PUSH1 0x1F DUP4 GT PUSH1 0x1 DUP2 EQ PUSH2 0x3577 JUMPI PUSH0 DUP5 ISZERO PUSH2 0x3565 JUMPI DUP3 DUP8 ADD CALLDATALOAD SWAP1 POP JUMPDEST PUSH2 0x356F DUP6 DUP3 PUSH2 0x34F7 JUMP JUMPDEST DUP7 SSTORE POP PUSH2 0x35D6 JUMP JUMPDEST PUSH1 0x1F NOT DUP5 AND PUSH2 0x3585 DUP7 PUSH2 0x337E JUMP JUMPDEST PUSH0 JUMPDEST DUP3 DUP2 LT ISZERO PUSH2 0x35AC JUMPI DUP5 DUP10 ADD CALLDATALOAD DUP3 SSTORE PUSH1 0x1 DUP3 ADD SWAP2 POP PUSH1 0x20 DUP6 ADD SWAP5 POP PUSH1 0x20 DUP2 ADD SWAP1 POP PUSH2 0x3587 JUMP JUMPDEST DUP7 DUP4 LT ISZERO PUSH2 0x35C9 JUMPI DUP5 DUP10 ADD CALLDATALOAD PUSH2 0x35C5 PUSH1 0x1F DUP10 AND DUP3 PUSH2 0x34DB JUMP JUMPDEST DUP4 SSTORE POP JUMPDEST PUSH1 0x1 PUSH1 0x2 DUP9 MUL ADD DUP9 SSTORE POP POP POP JUMPDEST POP POP POP POP POP POP POP JUMP JUMPDEST PUSH0 PUSH2 0x35E9 DUP3 PUSH2 0x23C7 JUMP JUMPDEST SWAP2 POP PUSH2 0x35F4 DUP4 PUSH2 0x23C7 JUMP JUMPDEST SWAP3 POP DUP3 DUP3 MUL PUSH2 0x3602 DUP2 PUSH2 0x23C7 JUMP JUMPDEST SWAP2 POP DUP3 DUP3 DIV DUP5 EQ DUP4 ISZERO OR PUSH2 0x3619 JUMPI PUSH2 0x3618 PUSH2 0x2D85 JUMP JUMPDEST JUMPDEST POP SWAP3 SWAP2 POP POP JUMP JUMPDEST PUSH32 0x4E6F7420656E6F75676820746F6B656E4220696E20706F6F6C00000000000000 PUSH0 DUP3 ADD MSTORE POP JUMP JUMPDEST PUSH0 PUSH2 0x3654 PUSH1 0x19 DUP4 PUSH2 0x27C5 JUMP JUMPDEST SWAP2 POP PUSH2 0x365F DUP3 PUSH2 0x3620 JUMP JUMPDEST PUSH1 0x20 DUP3 ADD SWAP1 POP SWAP2 SWAP1 POP JUMP JUMPDEST PUSH0 PUSH1 0x20 DUP3 ADD SWAP1 POP DUP2 DUP2 SUB PUSH0 DUP4 ADD MSTORE PUSH2 0x3681 DUP2 PUSH2 0x3648 JUMP JUMPDEST SWAP1 POP SWAP2 SWAP1 POP JUMP JUMPDEST PUSH0 PUSH1 0x80 DUP3 ADD SWAP1 POP PUSH2 0x369B PUSH0 DUP4 ADD DUP8 PUSH2 0x26A9 JUMP JUMPDEST PUSH2 0x36A8 PUSH1 0x20 DUP4 ADD DUP7 PUSH2 0x26A9 JUMP JUMPDEST PUSH2 0x36B5 PUSH1 0x40 DUP4 ADD DUP6 PUSH2 0x2618 JUMP JUMPDEST PUSH2 0x36C2 PUSH1 0x60 DUP4 ADD DUP5 PUSH2 0x31CE JUMP JUMPDEST SWAP6 SWAP5 POP POP POP POP POP JUMP JUMPDEST PUSH0 PUSH2 0x36D5 DUP3 PUSH2 0x23C7 JUMP JUMPDEST SWAP2 POP PUSH2 0x36E0 DUP4 PUSH2 0x23C7 JUMP JUMPDEST SWAP3 POP PUSH2 0x370D PUSH32 0xFFFFFFFFFFFFFFFFFFFFFFFFFFFFFFFFFFFFFFFFFFFFFFFFFFFFFFFFFFFFFFFF DUP5 DUP5 PUSH2 0x2EB8 JUMP JUMPDEST SWAP1 POP SWAP3 SWAP2 POP POP JUMP INVALID LOG2 PUSH5 0x6970667358 0x22 SLT KECCAK256 DIV POP RETURNDATACOPY 0xEE PC 0xE8 ADDRESS CREATE CREATE2 CALLVALUE PUSH17 0x96D5824321C73C67F1FA541AC539BF2967 0xEE 0x49 PUSH6 0x2364736F6C63 NUMBER STOP ADDMOD EQ STOP CALLER "
		},
		"gasEstimates": {
			"creation": {
				"codeDepositCost": "2831000",
				"executionCost": "infinite",
				"totalCost": "infinite"
			},
			"external": {
				"": "196",
				"callFee()": "2448",
				"deposit(address,uint256)": "infinite",
				"depositOwner(address,uint256)": "infinite",
				"depositWmon(uint256)": "infinite",
				"getContractBalance(address)": "infinite",
				"getContractPortfolio()": "infinite",
				"getUserPortfolio(address)": "infinite",
				"greeting()": "infinite",
				"owner()": "2619",
				"setGreeting(string)": "infinite",
				"swap(address,address,uint256,uint256)": "infinite",
				"swapOne(address,address,uint256)": "infinite",
				"swapWmon()": "infinite",
				"totalTokenBalance(address)": "2890",
				"trackedTokens(uint256)": "5011",
				"userBalances(address,address)": "infinite",
				"withdrawETH()": "infinite",
				"withdrawToken(address)": "infinite",
				"withdrawWmon()": "infinite"
			},
			"internal": {
				"_isTracked(address)": "infinite",
				"_toWei(address,uint256)": "infinite"
			}
		},
		"methodIdentifiers": {
			"callFee()": "90321e1a",
			"deposit(address,uint256)": "47e7ef24",
			"depositOwner(address,uint256)": "95310efa",
			"depositWmon(uint256)": "c8a34efe",
			"getContractBalance(address)": "43ab265f",
			"getContractPortfolio()": "6677b49b",
			"getUserPortfolio(address)": "1edb27e9",
			"greeting()": "ef690cc0",
			"owner()": "8da5cb5b",
			"setGreeting(string)": "a4136862",
			"swap(address,address,uint256,uint256)": "fe029156",
			"swapOne(address,address,uint256)": "087c3d4b",
			"swapWmon()": "97b8c3cb",
			"totalTokenBalance(address)": "f5465992",
			"trackedTokens(uint256)": "8305368a",
			"userBalances(address,address)": "adb51980",
			"withdrawETH()": "e086e5ec",
			"withdrawToken(address)": "89476069",
			"withdrawWmon()": "062dd331"
		}
	},
	"abi": [
		{
			"inputs": [
				{
					"internalType": "string",
					"name": "_greeting",
					"type": "string"
				}
			],
			"stateMutability": "payable",
			"type": "constructor"
		},
		{
			"anonymous": false,
			"inputs": [
				{
					"indexed": true,
					"internalType": "address",
					"name": "from",
					"type": "address"
				},
				{
					"indexed": false,
					"internalType": "address",
					"name": "token",
					"type": "address"
				},
				{
					"indexed": false,
					"internalType": "uint256",
					"name": "amount",
					"type": "uint256"
				}
			],
			"name": "Deposited",
			"type": "event"
		},
		{
			"anonymous": false,
			"inputs": [
				{
					"indexed": true,
					"internalType": "address",
					"name": "user",
					"type": "address"
				},
				{
					"indexed": false,
					"internalType": "address",
					"name": "tokenA",
					"type": "address"
				},
				{
					"indexed": false,
					"internalType": "address",
					"name": "tokenB",
					"type": "address"
				},
				{
					"indexed": false,
					"internalType": "uint256",
					"name": "amountA",
					"type": "uint256"
				},
				{
					"indexed": false,
					"internalType": "uint256",
					"name": "amountB",
					"type": "uint256"
				}
			],
			"name": "Swapped",
			"type": "event"
		},
		{
			"stateMutability": "payable",
			"type": "fallback"
		},
		{
			"inputs": [],
			"name": "callFee",
			"outputs": [
				{
					"internalType": "uint256",
					"name": "",
					"type": "uint256"
				}
			],
			"stateMutability": "view",
			"type": "function"
		},
		{
			"inputs": [
				{
					"internalType": "address",
					"name": "_token",
					"type": "address"
				},
				{
					"internalType": "uint256",
					"name": "_amount",
					"type": "uint256"
				}
			],
			"name": "deposit",
			"outputs": [],
			"stateMutability": "nonpayable",
			"type": "function"
		},
		{
			"inputs": [
				{
					"internalType": "address",
					"name": "_token",
					"type": "address"
				},
				{
					"internalType": "uint256",
					"name": "_amount",
					"type": "uint256"
				}
			],
			"name": "depositOwner",
			"outputs": [],
			"stateMutability": "nonpayable",
			"type": "function"
		},
		{
			"inputs": [
				{
					"internalType": "uint256",
					"name": "_amount",
					"type": "uint256"
				}
			],
			"name": "depositWmon",
			"outputs": [],
			"stateMutability": "nonpayable",
			"type": "function"
		},
		{
			"inputs": [
				{
					"internalType": "address",
					"name": "_token",
					"type": "address"
				}
			],
			"name": "getContractBalance",
			"outputs": [
				{
					"internalType": "uint256",
					"name": "",
					"type": "uint256"
				}
			],
			"stateMutability": "view",
			"type": "function"
		},
		{
			"inputs": [],
			"name": "getContractPortfolio",
			"outputs": [
				{
					"internalType": "address[]",
					"name": "tokens",
					"type": "address[]"
				},
				{
					"internalType": "uint256[]",
					"name": "balances",
					"type": "uint256[]"
				}
			],
			"stateMutability": "view",
			"type": "function"
		},
		{
			"inputs": [
				{
					"internalType": "address",
					"name": "user",
					"type": "address"
				}
			],
			"name": "getUserPortfolio",
			"outputs": [
				{
					"internalType": "address[]",
					"name": "tokens",
					"type": "address[]"
				},
				{
					"internalType": "uint256[]",
					"name": "balances",
					"type": "uint256[]"
				}
			],
			"stateMutability": "view",
			"type": "function"
		},
		{
			"inputs": [],
			"name": "greeting",
			"outputs": [
				{
					"internalType": "string",
					"name": "",
					"type": "string"
				}
			],
			"stateMutability": "view",
			"type": "function"
		},
		{
			"inputs": [],
			"name": "owner",
			"outputs": [
				{
					"internalType": "address",
					"name": "",
					"type": "address"
				}
			],
			"stateMutability": "view",
			"type": "function"
		},
		{
			"inputs": [
				{
					"internalType": "string",
					"name": "_greeting",
					"type": "string"
				}
			],
			"name": "setGreeting",
			"outputs": [],
			"stateMutability": "payable",
			"type": "function"
		},
		{
			"inputs": [
				{
					"internalType": "address",
					"name": "tokenA",
					"type": "address"
				},
				{
					"internalType": "address",
					"name": "tokenB",
					"type": "address"
				},
				{
					"internalType": "uint256",
					"name": "amountA",
					"type": "uint256"
				},
				{
					"internalType": "uint256",
					"name": "rate",
					"type": "uint256"
				}
			],
			"name": "swap",
			"outputs": [],
			"stateMutability": "payable",
			"type": "function"
		},
		{
			"inputs": [
				{
					"internalType": "address",
					"name": "tokenA",
					"type": "address"
				},
				{
					"internalType": "address",
					"name": "tokenB",
					"type": "address"
				},
				{
					"internalType": "uint256",
					"name": "amount",
					"type": "uint256"
				}
			],
			"name": "swapOne",
			"outputs": [],
			"stateMutability": "nonpayable",
			"type": "function"
		},
		{
			"inputs": [],
			"name": "swapWmon",
			"outputs": [],
			"stateMutability": "payable",
			"type": "function"
		},
		{
			"inputs": [
				{
					"internalType": "address",
					"name": "",
					"type": "address"
				}
			],
			"name": "totalTokenBalance",
			"outputs": [
				{
					"internalType": "uint256",
					"name": "",
					"type": "uint256"
				}
			],
			"stateMutability": "view",
			"type": "function"
		},
		{
			"inputs": [
				{
					"internalType": "uint256",
					"name": "",
					"type": "uint256"
				}
			],
			"name": "trackedTokens",
			"outputs": [
				{
					"internalType": "address",
					"name": "",
					"type": "address"
				}
			],
			"stateMutability": "view",
			"type": "function"
		},
		{
			"inputs": [
				{
					"internalType": "address",
					"name": "",
					"type": "address"
				},
				{
					"internalType": "address",
					"name": "",
					"type": "address"
				}
			],
			"name": "userBalances",
			"outputs": [
				{
					"internalType": "uint256",
					"name": "",
					"type": "uint256"
				}
			],
			"stateMutability": "view",
			"type": "function"
		},
		{
			"inputs": [],
			"name": "withdrawETH",
			"outputs": [],
			"stateMutability": "nonpayable",
			"type": "function"
		},
		{
			"inputs": [
				{
					"internalType": "address",
					"name": "_token",
					"type": "address"
				}
			],
			"name": "withdrawToken",
			"outputs": [],
			"stateMutability": "nonpayable",
			"type": "function"
		},
		{
			"inputs": [],
			"name": "withdrawWmon",
			"outputs": [],
			"stateMutability": "nonpayable",
			"type": "function"
		},
		{
			"stateMutability": "payable",
			"type": "receive"
		}
	]
}