{
	"data": {
		"bytecode": {
			"linkReferences": {},
			"object": "608060405234801561000f575f80fd5b50335f806101000a81548173ffffffffffffffffffffffffffffffffffffffff021916908373ffffffffffffffffffffffffffffffffffffffff160217905550610a228061005c5f395ff3fe608060405234801561000f575f80fd5b506004361061003f575f3560e01c806347e7ef24146100435780638da5cb5b1461005f578063fe0291561461007d575b5f80fd5b61005d60048036038101906100589190610535565b610099565b005b6100676101e6565b6040516100749190610582565b60405180910390f35b6100976004803603810190610092919061059b565b610209565b005b5f8054906101000a900473ffffffffffffffffffffffffffffffffffffffff1673ffffffffffffffffffffffffffffffffffffffff163373ffffffffffffffffffffffffffffffffffffffff1614610126576040517f08c379a000000000000000000000000000000000000000000000000000000000815260040161011d90610659565b60405180910390fd5b8173ffffffffffffffffffffffffffffffffffffffff166323b872dd3330846040518463ffffffff1660e01b815260040161016393929190610686565b6020604051808303815f875af115801561017f573d5f803e3d5ffd5b505050506040513d601f19601f820116820180604052508101906101a391906106f0565b6101e2576040517f08c379a00000000000000000000000000000000000000000000000000000000081526004016101d990610765565b60405180910390fd5b5050565b5f8054906101000a900473ffffffffffffffffffffffffffffffffffffffff1681565b5f821161024b576040517f08c379a0000000000000000000000000000000000000000000000000000000008152600401610242906107cd565b60405180910390fd5b8373ffffffffffffffffffffffffffffffffffffffff166323b872dd3330856040518463ffffffff1660e01b815260040161028893929190610686565b6020604051808303815f875af11580156102a4573d5f803e3d5ffd5b505050506040513d601f19601f820116820180604052508101906102c891906106f0565b610307576040517f08c379a00000000000000000000000000000000000000000000000000000000081526004016102fe90610835565b60405180910390fd5b5f670de0b6b3a7640000828461031d9190610880565b61032791906108ee565b9050808473ffffffffffffffffffffffffffffffffffffffff166370a08231306040518263ffffffff1660e01b81526004016103639190610582565b602060405180830381865afa15801561037e573d5f803e3d5ffd5b505050506040513d601f19601f820116820180604052508101906103a29190610932565b10156103e3576040517f08c379a00000000000000000000000000000000000000000000000000000000081526004016103da906109a7565b60405180910390fd5b8373ffffffffffffffffffffffffffffffffffffffff1663a9059cbb33836040518363ffffffff1660e01b815260040161041e9291906109c5565b6020604051808303815f875af115801561043a573d5f803e3d5ffd5b505050506040513d601f19601f8201168201806040525081019061045e91906106f0565b61049d576040517f08c379a000000000000000000000000000000000000000000000000000000000815260040161049490610835565b60405180910390fd5b5050505050565b5f80fd5b5f73ffffffffffffffffffffffffffffffffffffffff82169050919050565b5f6104d1826104a8565b9050919050565b6104e1816104c7565b81146104eb575f80fd5b50565b5f813590506104fc816104d8565b92915050565b5f819050919050565b61051481610502565b811461051e575f80fd5b50565b5f8135905061052f8161050b565b92915050565b5f806040838503121561054b5761054a6104a4565b5b5f610558858286016104ee565b925050602061056985828601610521565b9150509250929050565b61057c816104c7565b82525050565b5f6020820190506105955f830184610573565b92915050565b5f805f80608085870312156105b3576105b26104a4565b5b5f6105c0878288016104ee565b94505060206105d1878288016104ee565b93505060406105e287828801610521565b92505060606105f387828801610521565b91505092959194509250565b5f82825260208201905092915050565b7f4f6e6c79206f776e6572000000000000000000000000000000000000000000005f82015250565b5f610643600a836105ff565b915061064e8261060f565b602082019050919050565b5f6020820190508181035f83015261067081610637565b9050919050565b61068081610502565b82525050565b5f6060820190506106995f830186610573565b6106a66020830185610573565b6106b36040830184610677565b949350505050565b5f8115159050919050565b6106cf816106bb565b81146106d9575f80fd5b50565b5f815190506106ea816106c6565b92915050565b5f60208284031215610705576107046104a4565b5b5f610712848285016106dc565b91505092915050565b7f4465706f736974206661696c65640000000000000000000000000000000000005f82015250565b5f61074f600e836105ff565b915061075a8261071b565b602082019050919050565b5f6020820190508181035f83015261077c81610743565b9050919050565b7f416d6f756e74206d757374206265203e203000000000000000000000000000005f82015250565b5f6107b76012836105ff565b91506107c282610783565b602082019050919050565b5f6020820190508181035f8301526107e4816107ab565b9050919050565b7f5472616e73666572206661696c656400000000000000000000000000000000005f82015250565b5f61081f600f836105ff565b915061082a826107eb565b602082019050919050565b5f6020820190508181035f83015261084c81610813565b9050919050565b7f4e487b71000000000000000000000000000000000000000000000000000000005f52601160045260245ffd5b5f61088a82610502565b915061089583610502565b92508282026108a381610502565b915082820484148315176108ba576108b9610853565b5b5092915050565b7f4e487b71000000000000000000000000000000000000000000000000000000005f52601260045260245ffd5b5f6108f882610502565b915061090383610502565b925082610913576109126108c1565b5b828204905092915050565b5f8151905061092c8161050b565b92915050565b5f60208284031215610947576109466104a4565b5b5f6109548482850161091e565b91505092915050565b7f4e6f7420656e6f75676820746f6b656e4220696e20636f6e74726163740000005f82015250565b5f610991601d836105ff565b915061099c8261095d565b602082019050919050565b5f6020820190508181035f8301526109be81610985565b9050919050565b5f6040820190506109d85f830185610573565b6109e56020830184610677565b939250505056fea2646970667358221220ea21d217a4f5f9952cd480a81161839fa89050b8ef0d44d4e7bbcba728355bbd64736f6c63430008140033",
			"opcodes": "PUSH1 0x80 PUSH1 0x40 MSTORE CALLVALUE DUP1 ISZERO PUSH2 0xF JUMPI PUSH0 DUP1 REVERT JUMPDEST POP CALLER PUSH0 DUP1 PUSH2 0x100 EXP DUP2 SLOAD DUP2 PUSH20 0xFFFFFFFFFFFFFFFFFFFFFFFFFFFFFFFFFFFFFFFF MUL NOT AND SWAP1 DUP4 PUSH20 0xFFFFFFFFFFFFFFFFFFFFFFFFFFFFFFFFFFFFFFFF AND MUL OR SWAP1 SSTORE POP PUSH2 0xA22 DUP1 PUSH2 0x5C PUSH0 CODECOPY PUSH0 RETURN INVALID PUSH1 0x80 PUSH1 0x40 MSTORE CALLVALUE DUP1 ISZERO PUSH2 0xF JUMPI PUSH0 DUP1 REVERT JUMPDEST POP PUSH1 0x4 CALLDATASIZE LT PUSH2 0x3F JUMPI PUSH0 CALLDATALOAD PUSH1 0xE0 SHR DUP1 PUSH4 0x47E7EF24 EQ PUSH2 0x43 JUMPI DUP1 PUSH4 0x8DA5CB5B EQ PUSH2 0x5F JUMPI DUP1 PUSH4 0xFE029156 EQ PUSH2 0x7D JUMPI JUMPDEST PUSH0 DUP1 REVERT JUMPDEST PUSH2 0x5D PUSH1 0x4 DUP1 CALLDATASIZE SUB DUP2 ADD SWAP1 PUSH2 0x58 SWAP2 SWAP1 PUSH2 0x535 JUMP JUMPDEST PUSH2 0x99 JUMP JUMPDEST STOP JUMPDEST PUSH2 0x67 PUSH2 0x1E6 JUMP JUMPDEST PUSH1 0x40 MLOAD PUSH2 0x74 SWAP2 SWAP1 PUSH2 0x582 JUMP JUMPDEST PUSH1 0x40 MLOAD DUP1 SWAP2 SUB SWAP1 RETURN JUMPDEST PUSH2 0x97 PUSH1 0x4 DUP1 CALLDATASIZE SUB DUP2 ADD SWAP1 PUSH2 0x92 SWAP2 SWAP1 PUSH2 0x59B JUMP JUMPDEST PUSH2 0x209 JUMP JUMPDEST STOP JUMPDEST PUSH0 DUP1 SLOAD SWAP1 PUSH2 0x100 EXP SWAP1 DIV PUSH20 0xFFFFFFFFFFFFFFFFFFFFFFFFFFFFFFFFFFFFFFFF AND PUSH20 0xFFFFFFFFFFFFFFFFFFFFFFFFFFFFFFFFFFFFFFFF AND CALLER PUSH20 0xFFFFFFFFFFFFFFFFFFFFFFFFFFFFFFFFFFFFFFFF AND EQ PUSH2 0x126 JUMPI PUSH1 0x40 MLOAD PUSH32 0x8C379A000000000000000000000000000000000000000000000000000000000 DUP2 MSTORE PUSH1 0x4 ADD PUSH2 0x11D SWAP1 PUSH2 0x659 JUMP JUMPDEST PUSH1 0x40 MLOAD DUP1 SWAP2 SUB SWAP1 REVERT JUMPDEST DUP2 PUSH20 0xFFFFFFFFFFFFFFFFFFFFFFFFFFFFFFFFFFFFFFFF AND PUSH4 0x23B872DD CALLER ADDRESS DUP5 PUSH1 0x40 MLOAD DUP5 PUSH4 0xFFFFFFFF AND PUSH1 0xE0 SHL DUP2 MSTORE PUSH1 0x4 ADD PUSH2 0x163 SWAP4 SWAP3 SWAP2 SWAP1 PUSH2 0x686 JUMP JUMPDEST PUSH1 0x20 PUSH1 0x40 MLOAD DUP1 DUP4 SUB DUP2 PUSH0 DUP8 GAS CALL ISZERO DUP1 ISZERO PUSH2 0x17F JUMPI RETURNDATASIZE PUSH0 DUP1 RETURNDATACOPY RETURNDATASIZE PUSH0 REVERT JUMPDEST POP POP POP POP PUSH1 0x40 MLOAD RETURNDATASIZE PUSH1 0x1F NOT PUSH1 0x1F DUP3 ADD AND DUP3 ADD DUP1 PUSH1 0x40 MSTORE POP DUP2 ADD SWAP1 PUSH2 0x1A3 SWAP2 SWAP1 PUSH2 0x6F0 JUMP JUMPDEST PUSH2 0x1E2 JUMPI PUSH1 0x40 MLOAD PUSH32 0x8C379A000000000000000000000000000000000000000000000000000000000 DUP2 MSTORE PUSH1 0x4 ADD PUSH2 0x1D9 SWAP1 PUSH2 0x765 JUMP JUMPDEST PUSH1 0x40 MLOAD DUP1 SWAP2 SUB SWAP1 REVERT JUMPDEST POP POP JUMP JUMPDEST PUSH0 DUP1 SLOAD SWAP1 PUSH2 0x100 EXP SWAP1 DIV PUSH20 0xFFFFFFFFFFFFFFFFFFFFFFFFFFFFFFFFFFFFFFFF AND DUP2 JUMP JUMPDEST PUSH0 DUP3 GT PUSH2 0x24B JUMPI PUSH1 0x40 MLOAD PUSH32 0x8C379A000000000000000000000000000000000000000000000000000000000 DUP2 MSTORE PUSH1 0x4 ADD PUSH2 0x242 SWAP1 PUSH2 0x7CD JUMP JUMPDEST PUSH1 0x40 MLOAD DUP1 SWAP2 SUB SWAP1 REVERT JUMPDEST DUP4 PUSH20 0xFFFFFFFFFFFFFFFFFFFFFFFFFFFFFFFFFFFFFFFF AND PUSH4 0x23B872DD CALLER ADDRESS DUP6 PUSH1 0x40 MLOAD DUP5 PUSH4 0xFFFFFFFF AND PUSH1 0xE0 SHL DUP2 MSTORE PUSH1 0x4 ADD PUSH2 0x288 SWAP4 SWAP3 SWAP2 SWAP1 PUSH2 0x686 JUMP JUMPDEST PUSH1 0x20 PUSH1 0x40 MLOAD DUP1 DUP4 SUB DUP2 PUSH0 DUP8 GAS CALL ISZERO DUP1 ISZERO PUSH2 0x2A4 JUMPI RETURNDATASIZE PUSH0 DUP1 RETURNDATACOPY RETURNDATASIZE PUSH0 REVERT JUMPDEST POP POP POP POP PUSH1 0x40 MLOAD RETURNDATASIZE PUSH1 0x1F NOT PUSH1 0x1F DUP3 ADD AND DUP3 ADD DUP1 PUSH1 0x40 MSTORE POP DUP2 ADD SWAP1 PUSH2 0x2C8 SWAP2 SWAP1 PUSH2 0x6F0 JUMP JUMPDEST PUSH2 0x307 JUMPI PUSH1 0x40 MLOAD PUSH32 0x8C379A000000000000000000000000000000000000000000000000000000000 DUP2 MSTORE PUSH1 0x4 ADD PUSH2 0x2FE SWAP1 PUSH2 0x835 JUMP JUMPDEST PUSH1 0x40 MLOAD DUP1 SWAP2 SUB SWAP1 REVERT JUMPDEST PUSH0 PUSH8 0xDE0B6B3A7640000 DUP3 DUP5 PUSH2 0x31D SWAP2 SWAP1 PUSH2 0x880 JUMP JUMPDEST PUSH2 0x327 SWAP2 SWAP1 PUSH2 0x8EE JUMP JUMPDEST SWAP1 POP DUP1 DUP5 PUSH20 0xFFFFFFFFFFFFFFFFFFFFFFFFFFFFFFFFFFFFFFFF AND PUSH4 0x70A08231 ADDRESS PUSH1 0x40 MLOAD DUP3 PUSH4 0xFFFFFFFF AND PUSH1 0xE0 SHL DUP2 MSTORE PUSH1 0x4 ADD PUSH2 0x363 SWAP2 SWAP1 PUSH2 0x582 JUMP JUMPDEST PUSH1 0x20 PUSH1 0x40 MLOAD DUP1 DUP4 SUB DUP2 DUP7 GAS STATICCALL ISZERO DUP1 ISZERO PUSH2 0x37E JUMPI RETURNDATASIZE PUSH0 DUP1 RETURNDATACOPY RETURNDATASIZE PUSH0 REVERT JUMPDEST POP POP POP POP PUSH1 0x40 MLOAD RETURNDATASIZE PUSH1 0x1F NOT PUSH1 0x1F DUP3 ADD AND DUP3 ADD DUP1 PUSH1 0x40 MSTORE POP DUP2 ADD SWAP1 PUSH2 0x3A2 SWAP2 SWAP1 PUSH2 0x932 JUMP JUMPDEST LT ISZERO PUSH2 0x3E3 JUMPI PUSH1 0x40 MLOAD PUSH32 0x8C379A000000000000000000000000000000000000000000000000000000000 DUP2 MSTORE PUSH1 0x4 ADD PUSH2 0x3DA SWAP1 PUSH2 0x9A7 JUMP JUMPDEST PUSH1 0x40 MLOAD DUP1 SWAP2 SUB SWAP1 REVERT JUMPDEST DUP4 PUSH20 0xFFFFFFFFFFFFFFFFFFFFFFFFFFFFFFFFFFFFFFFF AND PUSH4 0xA9059CBB CALLER DUP4 PUSH1 0x40 MLOAD DUP4 PUSH4 0xFFFFFFFF AND PUSH1 0xE0 SHL DUP2 MSTORE PUSH1 0x4 ADD PUSH2 0x41E SWAP3 SWAP2 SWAP1 PUSH2 0x9C5 JUMP JUMPDEST PUSH1 0x20 PUSH1 0x40 MLOAD DUP1 DUP4 SUB DUP2 PUSH0 DUP8 GAS CALL ISZERO DUP1 ISZERO PUSH2 0x43A JUMPI RETURNDATASIZE PUSH0 DUP1 RETURNDATACOPY RETURNDATASIZE PUSH0 REVERT JUMPDEST POP POP POP POP PUSH1 0x40 MLOAD RETURNDATASIZE PUSH1 0x1F NOT PUSH1 0x1F DUP3 ADD AND DUP3 ADD DUP1 PUSH1 0x40 MSTORE POP DUP2 ADD SWAP1 PUSH2 0x45E SWAP2 SWAP1 PUSH2 0x6F0 JUMP JUMPDEST PUSH2 0x49D JUMPI PUSH1 0x40 MLOAD PUSH32 0x8C379A000000000000000000000000000000000000000000000000000000000 DUP2 MSTORE PUSH1 0x4 ADD PUSH2 0x494 SWAP1 PUSH2 0x835 JUMP JUMPDEST PUSH1 0x40 MLOAD DUP1 SWAP2 SUB SWAP1 REVERT JUMPDEST POP POP POP POP POP JUMP JUMPDEST PUSH0 DUP1 REVERT JUMPDEST PUSH0 PUSH20 0xFFFFFFFFFFFFFFFFFFFFFFFFFFFFFFFFFFFFFFFF DUP3 AND SWAP1 POP SWAP2 SWAP1 POP JUMP JUMPDEST PUSH0 PUSH2 0x4D1 DUP3 PUSH2 0x4A8 JUMP JUMPDEST SWAP1 POP SWAP2 SWAP1 POP JUMP JUMPDEST PUSH2 0x4E1 DUP2 PUSH2 0x4C7 JUMP JUMPDEST DUP2 EQ PUSH2 0x4EB JUMPI PUSH0 DUP1 REVERT JUMPDEST POP JUMP JUMPDEST PUSH0 DUP2 CALLDATALOAD SWAP1 POP PUSH2 0x4FC DUP2 PUSH2 0x4D8 JUMP JUMPDEST SWAP3 SWAP2 POP POP JUMP JUMPDEST PUSH0 DUP2 SWAP1 POP SWAP2 SWAP1 POP JUMP JUMPDEST PUSH2 0x514 DUP2 PUSH2 0x502 JUMP JUMPDEST DUP2 EQ PUSH2 0x51E JUMPI PUSH0 DUP1 REVERT JUMPDEST POP JUMP JUMPDEST PUSH0 DUP2 CALLDATALOAD SWAP1 POP PUSH2 0x52F DUP2 PUSH2 0x50B JUMP JUMPDEST SWAP3 SWAP2 POP POP JUMP JUMPDEST PUSH0 DUP1 PUSH1 0x40 DUP4 DUP6 SUB SLT ISZERO PUSH2 0x54B JUMPI PUSH2 0x54A PUSH2 0x4A4 JUMP JUMPDEST JUMPDEST PUSH0 PUSH2 0x558 DUP6 DUP3 DUP7 ADD PUSH2 0x4EE JUMP JUMPDEST SWAP3 POP POP PUSH1 0x20 PUSH2 0x569 DUP6 DUP3 DUP7 ADD PUSH2 0x521 JUMP JUMPDEST SWAP2 POP POP SWAP3 POP SWAP3 SWAP1 POP JUMP JUMPDEST PUSH2 0x57C DUP2 PUSH2 0x4C7 JUMP JUMPDEST DUP3 MSTORE POP POP JUMP JUMPDEST PUSH0 PUSH1 0x20 DUP3 ADD SWAP1 POP PUSH2 0x595 PUSH0 DUP4 ADD DUP5 PUSH2 0x573 JUMP JUMPDEST SWAP3 SWAP2 POP POP JUMP JUMPDEST PUSH0 DUP1 PUSH0 DUP1 PUSH1 0x80 DUP6 DUP8 SUB SLT ISZERO PUSH2 0x5B3 JUMPI PUSH2 0x5B2 PUSH2 0x4A4 JUMP JUMPDEST JUMPDEST PUSH0 PUSH2 0x5C0 DUP8 DUP3 DUP9 ADD PUSH2 0x4EE JUMP JUMPDEST SWAP5 POP POP PUSH1 0x20 PUSH2 0x5D1 DUP8 DUP3 DUP9 ADD PUSH2 0x4EE JUMP JUMPDEST SWAP4 POP POP PUSH1 0x40 PUSH2 0x5E2 DUP8 DUP3 DUP9 ADD PUSH2 0x521 JUMP JUMPDEST SWAP3 POP POP PUSH1 0x60 PUSH2 0x5F3 DUP8 DUP3 DUP9 ADD PUSH2 0x521 JUMP JUMPDEST SWAP2 POP POP SWAP3 SWAP6 SWAP2 SWAP5 POP SWAP3 POP JUMP JUMPDEST PUSH0 DUP3 DUP3 MSTORE PUSH1 0x20 DUP3 ADD SWAP1 POP SWAP3 SWAP2 POP POP JUMP JUMPDEST PUSH32 0x4F6E6C79206F776E657200000000000000000000000000000000000000000000 PUSH0 DUP3 ADD MSTORE POP JUMP JUMPDEST PUSH0 PUSH2 0x643 PUSH1 0xA DUP4 PUSH2 0x5FF JUMP JUMPDEST SWAP2 POP PUSH2 0x64E DUP3 PUSH2 0x60F JUMP JUMPDEST PUSH1 0x20 DUP3 ADD SWAP1 POP SWAP2 SWAP1 POP JUMP JUMPDEST PUSH0 PUSH1 0x20 DUP3 ADD SWAP1 POP DUP2 DUP2 SUB PUSH0 DUP4 ADD MSTORE PUSH2 0x670 DUP2 PUSH2 0x637 JUMP JUMPDEST SWAP1 POP SWAP2 SWAP1 POP JUMP JUMPDEST PUSH2 0x680 DUP2 PUSH2 0x502 JUMP JUMPDEST DUP3 MSTORE POP POP JUMP JUMPDEST PUSH0 PUSH1 0x60 DUP3 ADD SWAP1 POP PUSH2 0x699 PUSH0 DUP4 ADD DUP7 PUSH2 0x573 JUMP JUMPDEST PUSH2 0x6A6 PUSH1 0x20 DUP4 ADD DUP6 PUSH2 0x573 JUMP JUMPDEST PUSH2 0x6B3 PUSH1 0x40 DUP4 ADD DUP5 PUSH2 0x677 JUMP JUMPDEST SWAP5 SWAP4 POP POP POP POP JUMP JUMPDEST PUSH0 DUP2 ISZERO ISZERO SWAP1 POP SWAP2 SWAP1 POP JUMP JUMPDEST PUSH2 0x6CF DUP2 PUSH2 0x6BB JUMP JUMPDEST DUP2 EQ PUSH2 0x6D9 JUMPI PUSH0 DUP1 REVERT JUMPDEST POP JUMP JUMPDEST PUSH0 DUP2 MLOAD SWAP1 POP PUSH2 0x6EA DUP2 PUSH2 0x6C6 JUMP JUMPDEST SWAP3 SWAP2 POP POP JUMP JUMPDEST PUSH0 PUSH1 0x20 DUP3 DUP5 SUB SLT ISZERO PUSH2 0x705 JUMPI PUSH2 0x704 PUSH2 0x4A4 JUMP JUMPDEST JUMPDEST PUSH0 PUSH2 0x712 DUP5 DUP3 DUP6 ADD PUSH2 0x6DC JUMP JUMPDEST SWAP2 POP POP SWAP3 SWAP2 POP POP JUMP JUMPDEST PUSH32 0x4465706F736974206661696C6564000000000000000000000000000000000000 PUSH0 DUP3 ADD MSTORE POP JUMP JUMPDEST PUSH0 PUSH2 0x74F PUSH1 0xE DUP4 PUSH2 0x5FF JUMP JUMPDEST SWAP2 POP PUSH2 0x75A DUP3 PUSH2 0x71B JUMP JUMPDEST PUSH1 0x20 DUP3 ADD SWAP1 POP SWAP2 SWAP1 POP JUMP JUMPDEST PUSH0 PUSH1 0x20 DUP3 ADD SWAP1 POP DUP2 DUP2 SUB PUSH0 DUP4 ADD MSTORE PUSH2 0x77C DUP2 PUSH2 0x743 JUMP JUMPDEST SWAP1 POP SWAP2 SWAP1 POP JUMP JUMPDEST PUSH32 0x416D6F756E74206D757374206265203E20300000000000000000000000000000 PUSH0 DUP3 ADD MSTORE POP JUMP JUMPDEST PUSH0 PUSH2 0x7B7 PUSH1 0x12 DUP4 PUSH2 0x5FF JUMP JUMPDEST SWAP2 POP PUSH2 0x7C2 DUP3 PUSH2 0x783 JUMP JUMPDEST PUSH1 0x20 DUP3 ADD SWAP1 POP SWAP2 SWAP1 POP JUMP JUMPDEST PUSH0 PUSH1 0x20 DUP3 ADD SWAP1 POP DUP2 DUP2 SUB PUSH0 DUP4 ADD MSTORE PUSH2 0x7E4 DUP2 PUSH2 0x7AB JUMP JUMPDEST SWAP1 POP SWAP2 SWAP1 POP JUMP JUMPDEST PUSH32 0x5472616E73666572206661696C65640000000000000000000000000000000000 PUSH0 DUP3 ADD MSTORE POP JUMP JUMPDEST PUSH0 PUSH2 0x81F PUSH1 0xF DUP4 PUSH2 0x5FF JUMP JUMPDEST SWAP2 POP PUSH2 0x82A DUP3 PUSH2 0x7EB JUMP JUMPDEST PUSH1 0x20 DUP3 ADD SWAP1 POP SWAP2 SWAP1 POP JUMP JUMPDEST PUSH0 PUSH1 0x20 DUP3 ADD SWAP1 POP DUP2 DUP2 SUB PUSH0 DUP4 ADD MSTORE PUSH2 0x84C DUP2 PUSH2 0x813 JUMP JUMPDEST SWAP1 POP SWAP2 SWAP1 POP JUMP JUMPDEST PUSH32 0x4E487B7100000000000000000000000000000000000000000000000000000000 PUSH0 MSTORE PUSH1 0x11 PUSH1 0x4 MSTORE PUSH1 0x24 PUSH0 REVERT JUMPDEST PUSH0 PUSH2 0x88A DUP3 PUSH2 0x502 JUMP JUMPDEST SWAP2 POP PUSH2 0x895 DUP4 PUSH2 0x502 JUMP JUMPDEST SWAP3 POP DUP3 DUP3 MUL PUSH2 0x8A3 DUP2 PUSH2 0x502 JUMP JUMPDEST SWAP2 POP DUP3 DUP3 DIV DUP5 EQ DUP4 ISZERO OR PUSH2 0x8BA JUMPI PUSH2 0x8B9 PUSH2 0x853 JUMP JUMPDEST JUMPDEST POP SWAP3 SWAP2 POP POP JUMP JUMPDEST PUSH32 0x4E487B7100000000000000000000000000000000000000000000000000000000 PUSH0 MSTORE PUSH1 0x12 PUSH1 0x4 MSTORE PUSH1 0x24 PUSH0 REVERT JUMPDEST PUSH0 PUSH2 0x8F8 DUP3 PUSH2 0x502 JUMP JUMPDEST SWAP2 POP PUSH2 0x903 DUP4 PUSH2 0x502 JUMP JUMPDEST SWAP3 POP DUP3 PUSH2 0x913 JUMPI PUSH2 0x912 PUSH2 0x8C1 JUMP JUMPDEST JUMPDEST DUP3 DUP3 DIV SWAP1 POP SWAP3 SWAP2 POP POP JUMP JUMPDEST PUSH0 DUP2 MLOAD SWAP1 POP PUSH2 0x92C DUP2 PUSH2 0x50B JUMP JUMPDEST SWAP3 SWAP2 POP POP JUMP JUMPDEST PUSH0 PUSH1 0x20 DUP3 DUP5 SUB SLT ISZERO PUSH2 0x947 JUMPI PUSH2 0x946 PUSH2 0x4A4 JUMP JUMPDEST JUMPDEST PUSH0 PUSH2 0x954 DUP5 DUP3 DUP6 ADD PUSH2 0x91E JUMP JUMPDEST SWAP2 POP POP SWAP3 SWAP2 POP POP JUMP JUMPDEST PUSH32 0x4E6F7420656E6F75676820746F6B656E4220696E20636F6E7472616374000000 PUSH0 DUP3 ADD MSTORE POP JUMP JUMPDEST PUSH0 PUSH2 0x991 PUSH1 0x1D DUP4 PUSH2 0x5FF JUMP JUMPDEST SWAP2 POP PUSH2 0x99C DUP3 PUSH2 0x95D JUMP JUMPDEST PUSH1 0x20 DUP3 ADD SWAP1 POP SWAP2 SWAP1 POP JUMP JUMPDEST PUSH0 PUSH1 0x20 DUP3 ADD SWAP1 POP DUP2 DUP2 SUB PUSH0 DUP4 ADD MSTORE PUSH2 0x9BE DUP2 PUSH2 0x985 JUMP JUMPDEST SWAP1 POP SWAP2 SWAP1 POP JUMP JUMPDEST PUSH0 PUSH1 0x40 DUP3 ADD SWAP1 POP PUSH2 0x9D8 PUSH0 DUP4 ADD DUP6 PUSH2 0x573 JUMP JUMPDEST PUSH2 0x9E5 PUSH1 0x20 DUP4 ADD DUP5 PUSH2 0x677 JUMP JUMPDEST SWAP4 SWAP3 POP POP POP JUMP INVALID LOG2 PUSH5 0x6970667358 0x22 SLT KECCAK256 0xEA 0x21 0xD2 OR LOG4 CREATE2 0xF9 SWAP6 0x2C 0xD4 DUP1 0xA8 GT PUSH2 0x839F 0xA8 SWAP1 POP 0xB8 0xEF 0xD PREVRANDAO 0xD4 0xE7 0xBB 0xCB 0xA7 0x28 CALLDATALOAD JUMPDEST 0xBD PUSH5 0x736F6C6343 STOP ADDMOD EQ STOP CALLER "
		},
		"gasEstimates": {
			"creation": {
				"codeDepositCost": "518800",
				"executionCost": "24819",
				"totalCost": "543619"
			},
			"external": {
				"deposit(address,uint256)": "infinite",
				"owner()": "2505",
				"swap(address,address,uint256,uint256)": "infinite"
			}
		},
		"methodIdentifiers": {
			"deposit(address,uint256)": "47e7ef24",
			"owner()": "8da5cb5b",
			"swap(address,address,uint256,uint256)": "fe029156"
		}
	},
	"abi": [
		{
			"inputs": [],
			"stateMutability": "nonpayable",
			"type": "constructor"
		},
		{
			"inputs": [
				{
					"internalType": "address",
					"name": "token",
					"type": "address"
				},
				{
					"internalType": "uint256",
					"name": "amount",
					"type": "uint256"
				}
			],
			"name": "deposit",
			"outputs": [],
			"stateMutability": "nonpayable",
			"type": "function"
		},
		{
			"inputs": [],
			"name": "owner",
			"outputs": [
				{
					"internalType": "address",
					"name": "",
					"type": "address"
				}
			],
			"stateMutability": "view",
			"type": "function"
		},
		{
			"inputs": [
				{
					"internalType": "address",
					"name": "tokenA",
					"type": "address"
				},
				{
					"internalType": "address",
					"name": "tokenB",
					"type": "address"
				},
				{
					"internalType": "uint256",
					"name": "amountA",
					"type": "uint256"
				},
				{
					"internalType": "uint256",
					"name": "rate",
					"type": "uint256"
				}
			],
			"name": "swap",
			"outputs": [],
			"stateMutability": "nonpayable",
			"type": "function"
		}
	]
}